{"abi":[{"type":"constructor","inputs":[],"stateMutability":"nonpayable"},{"type":"receive","stateMutability":"payable"},{"type":"function","name":"addAdmin","inputs":[{"name":"newAdmin","type":"address","internalType":"address"}],"outputs":[],"stateMutability":"nonpayable"},{"type":"function","name":"assignRole","inputs":[{"name":"user","type":"address","internalType":"address"},{"name":"role","type":"bytes32","internalType":"bytes32"}],"outputs":[],"stateMutability":"nonpayable"},{"type":"function","name":"balances","inputs":[{"name":"","type":"address","internalType":"address"}],"outputs":[{"name":"","type":"uint256","internalType":"uint256"}],"stateMutability":"view"},{"type":"function","name":"deposit","inputs":[],"outputs":[],"stateMutability":"payable"},{"type":"function","name":"executeExternalCall","inputs":[{"name":"target","type":"address","internalType":"address"},{"name":"data","type":"bytes","internalType":"bytes"}],"outputs":[],"stateMutability":"nonpayable"},{"type":"function","name":"getContractBalance","inputs":[],"outputs":[{"name":"","type":"uint256","internalType":"uint256"}],"stateMutability":"view"},{"type":"function","name":"initialize","inputs":[],"outputs":[],"stateMutability":"nonpayable"},{"type":"function","name":"initialized","inputs":[],"outputs":[{"name":"","type":"bool","internalType":"bool"}],"stateMutability":"view"},{"type":"function","name":"insecureFunction","inputs":[],"outputs":[],"stateMutability":"nonpayable"},{"type":"function","name":"isAdmin","inputs":[{"name":"","type":"address","internalType":"address"}],"outputs":[{"name":"","type":"bool","internalType":"bool"}],"stateMutability":"view"},{"type":"function","name":"owner","inputs":[],"outputs":[{"name":"","type":"address","internalType":"address"}],"stateMutability":"view"},{"type":"function","name":"pause","inputs":[],"outputs":[],"stateMutability":"nonpayable"},{"type":"function","name":"secureFunction","inputs":[],"outputs":[],"stateMutability":"nonpayable"},{"type":"function","name":"totalFunds","inputs":[],"outputs":[{"name":"","type":"uint256","internalType":"uint256"}],"stateMutability":"view"},{"type":"function","name":"updateParameters","inputs":[{"name":"newValue","type":"uint256","internalType":"uint256"}],"outputs":[],"stateMutability":"nonpayable"},{"type":"function","name":"userRoles","inputs":[{"name":"","type":"address","internalType":"address"}],"outputs":[{"name":"","type":"bytes32","internalType":"bytes32"}],"stateMutability":"view"},{"type":"function","name":"withdraw","inputs":[{"name":"amount","type":"uint256","internalType":"uint256"}],"outputs":[],"stateMutability":"nonpayable"},{"type":"event","name":"AdminAdded","inputs":[{"name":"admin","type":"address","indexed":true,"internalType":"address"}],"anonymous":false},{"type":"event","name":"Deposit","inputs":[{"name":"user","type":"address","indexed":true,"internalType":"address"},{"name":"amount","type":"uint256","indexed":false,"internalType":"uint256"}],"anonymous":false},{"type":"event","name":"RoleAssigned","inputs":[{"name":"user","type":"address","indexed":true,"internalType":"address"},{"name":"role","type":"bytes32","indexed":false,"internalType":"bytes32"}],"anonymous":false},{"type":"event","name":"Withdraw","inputs":[{"name":"user","type":"address","indexed":true,"internalType":"address"},{"name":"amount","type":"uint256","indexed":false,"internalType":"uint256"}],"anonymous":false}],"bytecode":{"object":"0x608060405234801561000f575f80fd5b50600380546001600160a01b031916339081179091555f908152600160208190526040909120805460ff191690911790556108158061004d5f395ff3fe6080604052600436106100fd575f3560e01c806370480275116100925780638456cb59116100625780638456cb59146101e45780638c075249146102cd5780638da5cb5b146102ec578063968ed60014610323578063d0e30db014610338575f80fd5b8063704802751461021e57806374d5e1001461023d5780637b033707146102685780638129fc1c1461027c575f80fd5b80632e1a7d4d116100cd5780632e1a7d4d146101c557806338e02b2f146101e45780633ec66202146101ef5780636f9fb98a1461020c575f80fd5b8063158ef93e146101085780631d9486de1461013d57806324d7806c1461015e57806327e235e31461018c575f80fd5b3661010457005b5f80fd5b348015610113575f80fd5b5060035461012890600160a01b900460ff1681565b60405190151581526020015b60405180910390f35b348015610148575f80fd5b5061015c6101573660046106b5565b610340565b005b348015610169575f80fd5b506101286101783660046106dd565b60016020525f908152604090205460ff1681565b348015610197575f80fd5b506101b76101a63660046106dd565b5f6020819052908152604090205481565b604051908152602001610134565b3480156101d0575f80fd5b5061015c6101df3660046106fd565b610398565b34801561015c575f80fd5b3480156101fa575f80fd5b5061015c6102093660046106fd565b50565b348015610217575f80fd5b50476101b7565b348015610229575f80fd5b5061015c6102383660046106dd565b6104e8565b348015610248575f80fd5b506101b76102573660046106dd565b60026020525f908152604090205481565b348015610273575f80fd5b5061015c610536565b348015610287575f80fd5b5061015c600380546001600160a01b0319163390811782555f908152600160208190526040909120805460ff19169091179055805460ff60a01b1916600160a01b179055565b3480156102d8575f80fd5b5061015c6102e7366004610714565b610581565b3480156102f7575f80fd5b5060035461030b906001600160a01b031681565b6040516001600160a01b039091168152602001610134565b34801561032e575f80fd5b506101b760045481565b61015c610628565b6001600160a01b0382165f8181526002602052604090819020839055517f0666448aae9b9c8249fd8213a35a9c10218a0eac2fb39b96ed90c67214c7e7619061038c9084815260200190565b60405180910390a25050565b335f908152602081905260409020548111156103f25760405162461bcd60e51b8152602060048201526014602482015273496e73756666696369656e742062616c616e636560601b60448201526064015b60405180910390fd5b335f90815260208190526040812080548392906104109084906107a4565b925050819055508060045f82825461042891906107a4565b90915550506040515f90339083908381818185875af1925050503d805f811461046c576040519150601f19603f3d011682016040523d82523d5f602084013e610471565b606091505b50509050806104b45760405162461bcd60e51b815260206004820152600f60248201526e151c985b9cd9995c8819985a5b1959608a1b60448201526064016103e9565b60405182815233907f884edad9ce6fa2440d8a54cc123490eb96d2768479d49ff9c7366125a94243649060200161038c565b565b6001600160a01b0381165f818152600160208190526040808320805460ff1916909217909155517f44d6d25963f097ad14f29f06854a01f575648a1ef82f30e562ccd3889717e3399190a250565b335f9081526001602052604090205460ff166104e65760405162461bcd60e51b815260206004820152600a60248201526927b7363c9030b236b4b760b11b60448201526064016103e9565b5f836001600160a01b0316838360405161059c9291906107bd565b5f604051808303815f865af19150503d805f81146105d5576040519150601f19603f3d011682016040523d82523d5f602084013e6105da565b606091505b50509050806106225760405162461bcd60e51b8152602060048201526014602482015273115e1d195c9b985b0818d85b1b0819985a5b195960621b60448201526064016103e9565b50505050565b335f90815260208190526040812080543492906106469084906107cc565b925050819055503460045f82825461065e91906107cc565b909155505060405134815233907fe1fffcc4923d04b559f4d29a8bfc6cda04eb5b0d3c460751c2402c5c5cc9109c9060200160405180910390a2565b80356001600160a01b03811681146106b0575f80fd5b919050565b5f80604083850312156106c6575f80fd5b6106cf8361069a565b946020939093013593505050565b5f602082840312156106ed575f80fd5b6106f68261069a565b9392505050565b5f6020828403121561070d575f80fd5b5035919050565b5f805f60408486031215610726575f80fd5b61072f8461069a565b9250602084013567ffffffffffffffff8082111561074b575f80fd5b818601915086601f83011261075e575f80fd5b81358181111561076c575f80fd5b87602082850101111561077d575f80fd5b6020830194508093505050509250925092565b634e487b7160e01b5f52601160045260245ffd5b818103818111156107b7576107b7610790565b92915050565b818382375f9101908152919050565b808201808211156107b7576107b761079056fea26469706673582212202642ba7bbf7eb588f545021c28ed0182938f6112048a8bbbd8e3ea771d741e0f64736f6c63430008140033","linkReferences":{}},"assembly":"    /* \"projects/02-access-control/contracts/01-vulnerable/VulnerableVault.sol\":564:4324  contract VulnerableVault {... */\n  mstore(0x40, 0x80)\n    /* \"projects/02-access-control/contracts/01-vulnerable/VulnerableVault.sol\":1157:1242  constructor() {... */\n  callvalue\n  dup1\n  iszero\n  tag_1\n  jumpi\n  0x00\n  dup1\n  revert\ntag_1:\n  pop\n    /* \"projects/02-access-control/contracts/01-vulnerable/VulnerableVault.sol\":1181:1186  owner */\n  0x03\n    /* \"projects/02-access-control/contracts/01-vulnerable/VulnerableVault.sol\":1181:1199  owner = msg.sender */\n  dup1\n  sload\n  not(sub(shl(0xa0, 0x01), 0x01))\n  and\n    /* \"projects/02-access-control/contracts/01-vulnerable/VulnerableVault.sol\":1189:1199  msg.sender */\n  caller\n    /* \"projects/02-access-control/contracts/01-vulnerable/VulnerableVault.sol\":1181:1199  owner = msg.sender */\n  swap1\n  dup2\n  or\n  swap1\n  swap2\n  sstore\n    /* \"projects/02-access-control/contracts/01-vulnerable/VulnerableVault.sol\":1181:1186  owner */\n  0x00\n    /* \"projects/02-access-control/contracts/01-vulnerable/VulnerableVault.sol\":1209:1228  isAdmin[msg.sender] */\n  swap1\n  dup2\n  mstore\n    /* \"projects/02-access-control/contracts/01-vulnerable/VulnerableVault.sol\":1181:1199  owner = msg.sender */\n  0x01\n    /* \"projects/02-access-control/contracts/01-vulnerable/VulnerableVault.sol\":1209:1228  isAdmin[msg.sender] */\n  0x20\n  dup2\n  swap1\n  mstore\n  0x40\n  swap1\n  swap2\n  keccak256\n    /* \"projects/02-access-control/contracts/01-vulnerable/VulnerableVault.sol\":1209:1235  isAdmin[msg.sender] = true */\n  dup1\n  sload\n  not(0xff)\n  and\n  swap1\n  swap2\n  or\n  swap1\n  sstore\n    /* \"projects/02-access-control/contracts/01-vulnerable/VulnerableVault.sol\":564:4324  contract VulnerableVault {... */\n  dataSize(sub_0)\n  dup1\n  dataOffset(sub_0)\n  0x00\n  codecopy\n  0x00\n  return\nstop\n\nsub_0: assembly {\n        /* \"projects/02-access-control/contracts/01-vulnerable/VulnerableVault.sol\":564:4324  contract VulnerableVault {... */\n      mstore(0x40, 0x80)\n      jumpi(tag_1, lt(calldatasize, 0x04))\n      shr(0xe0, calldataload(0x00))\n      dup1\n      0x70480275\n      gt\n      tag_20\n      jumpi\n      dup1\n      0x8456cb59\n      gt\n      tag_21\n      jumpi\n      dup1\n      0x8456cb59\n      eq\n      tag_8\n      jumpi\n      dup1\n      0x8c075249\n      eq\n      tag_16\n      jumpi\n      dup1\n      0x8da5cb5b\n      eq\n      tag_17\n      jumpi\n      dup1\n      0x968ed600\n      eq\n      tag_18\n      jumpi\n      dup1\n      0xd0e30db0\n      eq\n      tag_19\n      jumpi\n      0x00\n      dup1\n      revert\n    tag_21:\n      dup1\n      0x70480275\n      eq\n      tag_11\n      jumpi\n      dup1\n      0x74d5e100\n      eq\n      tag_12\n      jumpi\n      dup1\n      0x7b033707\n      eq\n      tag_13\n      jumpi\n      dup1\n      0x8129fc1c\n      eq\n      tag_14\n      jumpi\n      0x00\n      dup1\n      revert\n    tag_20:\n      dup1\n      0x2e1a7d4d\n      gt\n      tag_22\n      jumpi\n      dup1\n      0x2e1a7d4d\n      eq\n      tag_7\n      jumpi\n      dup1\n      0x38e02b2f\n      eq\n      tag_8\n      jumpi\n      dup1\n      0x3ec66202\n      eq\n      tag_9\n      jumpi\n      dup1\n      0x6f9fb98a\n      eq\n      tag_10\n      jumpi\n      0x00\n      dup1\n      revert\n    tag_22:\n      dup1\n      0x158ef93e\n      eq\n      tag_3\n      jumpi\n      dup1\n      0x1d9486de\n      eq\n      tag_4\n      jumpi\n      dup1\n      0x24d7806c\n      eq\n      tag_5\n      jumpi\n      dup1\n      0x27e235e3\n      eq\n      tag_6\n      jumpi\n      0x00\n      dup1\n      revert\n    tag_1:\n      jumpi(tag_2, calldatasize)\n      stop\n    tag_2:\n      0x00\n      dup1\n      revert\n        /* \"projects/02-access-control/contracts/01-vulnerable/VulnerableVault.sol\":793:816  bool public initialized */\n    tag_3:\n      callvalue\n      dup1\n      iszero\n      tag_25\n      jumpi\n      0x00\n      dup1\n      revert\n    tag_25:\n      pop\n      sload(0x03)\n      tag_26\n      swap1\n      shl(0xa0, 0x01)\n      swap1\n      div\n      0xff\n      and\n      dup2\n      jump\n    tag_26:\n      mload(0x40)\n        /* \"#utility.yul\":179:193   */\n      swap1\n      iszero\n        /* \"#utility.yul\":172:194   */\n      iszero\n        /* \"#utility.yul\":154:195   */\n      dup2\n      mstore\n        /* \"#utility.yul\":142:144   */\n      0x20\n        /* \"#utility.yul\":127:145   */\n      add\n        /* \"projects/02-access-control/contracts/01-vulnerable/VulnerableVault.sol\":793:816  bool public initialized */\n    tag_28:\n      mload(0x40)\n      dup1\n      swap2\n      sub\n      swap1\n      return\n        /* \"projects/02-access-control/contracts/01-vulnerable/VulnerableVault.sol\":1855:2026  function assignRole(address user, bytes32 role) external {... */\n    tag_4:\n      callvalue\n      dup1\n      iszero\n      tag_30\n      jumpi\n      0x00\n      dup1\n      revert\n    tag_30:\n      pop\n      tag_31\n      tag_32\n      calldatasize\n      0x04\n      tag_33\n      jump\t// in\n    tag_32:\n      tag_34\n      jump\t// in\n    tag_31:\n      stop\n        /* \"projects/02-access-control/contracts/01-vulnerable/VulnerableVault.sol\":667:706  mapping(address => bool) public isAdmin */\n    tag_5:\n      callvalue\n      dup1\n      iszero\n      tag_35\n      jumpi\n      0x00\n      dup1\n      revert\n    tag_35:\n      pop\n      tag_26\n      tag_37\n      calldatasize\n      0x04\n      tag_38\n      jump\t// in\n    tag_37:\n      mstore(0x20, 0x01)\n      0x00\n      swap1\n      dup2\n      mstore\n      0x40\n      swap1\n      keccak256\n      sload\n      0xff\n      and\n      dup2\n      jump\n        /* \"projects/02-access-control/contracts/01-vulnerable/VulnerableVault.sol\":618:661  mapping(address => uint256) public balances */\n    tag_6:\n      callvalue\n      dup1\n      iszero\n      tag_41\n      jumpi\n      0x00\n      dup1\n      revert\n    tag_41:\n      pop\n      tag_42\n      tag_43\n      calldatasize\n      0x04\n      tag_38\n      jump\t// in\n    tag_43:\n      0x00\n      0x20\n      dup2\n      swap1\n      mstore\n      swap1\n      dup2\n      mstore\n      0x40\n      swap1\n      keccak256\n      sload\n      dup2\n      jump\n    tag_42:\n      mload(0x40)\n        /* \"#utility.yul\":980:1005   */\n      swap1\n      dup2\n      mstore\n        /* \"#utility.yul\":968:970   */\n      0x20\n        /* \"#utility.yul\":953:971   */\n      add\n        /* \"projects/02-access-control/contracts/01-vulnerable/VulnerableVault.sol\":618:661  mapping(address => uint256) public balances */\n      tag_28\n        /* \"#utility.yul\":834:1011   */\n      jump\n        /* \"projects/02-access-control/contracts/01-vulnerable/VulnerableVault.sol\":1363:1734  function withdraw(uint256 amount) external {... */\n    tag_7:\n      callvalue\n      dup1\n      iszero\n      tag_47\n      jumpi\n      0x00\n      dup1\n      revert\n    tag_47:\n      pop\n      tag_31\n      tag_49\n      calldatasize\n      0x04\n      tag_50\n      jump\t// in\n    tag_49:\n      tag_51\n      jump\t// in\n        /* \"projects/02-access-control/contracts/01-vulnerable/VulnerableVault.sol\":3052:3179  function insecureFunction() external {... */\n    tag_8:\n      callvalue\n      dup1\n      iszero\n      tag_31\n      jumpi\n      0x00\n      dup1\n      revert\n        /* \"projects/02-access-control/contracts/01-vulnerable/VulnerableVault.sol\":3911:4053  function updateParameters(uint256 newValue) external {... */\n    tag_9:\n      callvalue\n      dup1\n      iszero\n      tag_55\n      jumpi\n      0x00\n      dup1\n      revert\n    tag_55:\n      pop\n      tag_31\n      tag_57\n      calldatasize\n      0x04\n      tag_50\n      jump\t// in\n    tag_57:\n      pop\n      jump\n        /* \"projects/02-access-control/contracts/01-vulnerable/VulnerableVault.sol\":4124:4231  function getContractBalance() external view returns (uint256) {... */\n    tag_10:\n      callvalue\n      dup1\n      iszero\n      tag_59\n      jumpi\n      0x00\n      dup1\n      revert\n    tag_59:\n      pop\n        /* \"projects/02-access-control/contracts/01-vulnerable/VulnerableVault.sol\":4203:4224  address(this).balance */\n      selfbalance\n        /* \"projects/02-access-control/contracts/01-vulnerable/VulnerableVault.sol\":4124:4231  function getContractBalance() external view returns (uint256) {... */\n      jump(tag_42)\n        /* \"projects/02-access-control/contracts/01-vulnerable/VulnerableVault.sol\":3471:3645  function addAdmin(address newAdmin) external {... */\n    tag_11:\n      callvalue\n      dup1\n      iszero\n      tag_63\n      jumpi\n      0x00\n      dup1\n      revert\n    tag_63:\n      pop\n      tag_31\n      tag_65\n      calldatasize\n      0x04\n      tag_38\n      jump\t// in\n    tag_65:\n      tag_66\n      jump\t// in\n        /* \"projects/02-access-control/contracts/01-vulnerable/VulnerableVault.sol\":712:756  mapping(address => bytes32) public userRoles */\n    tag_12:\n      callvalue\n      dup1\n      iszero\n      tag_67\n      jumpi\n      0x00\n      dup1\n      revert\n    tag_67:\n      pop\n      tag_42\n      tag_69\n      calldatasize\n      0x04\n      tag_38\n      jump\t// in\n    tag_69:\n      mstore(0x20, 0x02)\n      0x00\n      swap1\n      dup2\n      mstore\n      0x40\n      swap1\n      keccak256\n      sload\n      dup2\n      jump\n        /* \"projects/02-access-control/contracts/01-vulnerable/VulnerableVault.sol\":2794:2921  function secureFunction() external {... */\n    tag_13:\n      callvalue\n      dup1\n      iszero\n      tag_73\n      jumpi\n      0x00\n      dup1\n      revert\n    tag_73:\n      pop\n      tag_31\n      tag_75\n      jump\t// in\n        /* \"projects/02-access-control/contracts/01-vulnerable/VulnerableVault.sol\":2152:2321  function initialize() external {... */\n    tag_14:\n      callvalue\n      dup1\n      iszero\n      tag_76\n      jumpi\n      0x00\n      dup1\n      revert\n    tag_76:\n      pop\n      tag_31\n        /* \"projects/02-access-control/contracts/01-vulnerable/VulnerableVault.sol\":2232:2237  owner */\n      0x03\n        /* \"projects/02-access-control/contracts/01-vulnerable/VulnerableVault.sol\":2232:2250  owner = msg.sender */\n      dup1\n      sload\n      not(sub(shl(0xa0, 0x01), 0x01))\n      and\n        /* \"projects/02-access-control/contracts/01-vulnerable/VulnerableVault.sol\":2240:2250  msg.sender */\n      caller\n        /* \"projects/02-access-control/contracts/01-vulnerable/VulnerableVault.sol\":2232:2250  owner = msg.sender */\n      swap1\n      dup2\n      or\n      dup3\n      sstore\n        /* \"projects/02-access-control/contracts/01-vulnerable/VulnerableVault.sol\":2232:2237  owner */\n      0x00\n        /* \"projects/02-access-control/contracts/01-vulnerable/VulnerableVault.sol\":2260:2279  isAdmin[msg.sender] */\n      swap1\n      dup2\n      mstore\n        /* \"projects/02-access-control/contracts/01-vulnerable/VulnerableVault.sol\":2232:2250  owner = msg.sender */\n      0x01\n        /* \"projects/02-access-control/contracts/01-vulnerable/VulnerableVault.sol\":2260:2279  isAdmin[msg.sender] */\n      0x20\n      dup2\n      swap1\n      mstore\n      0x40\n      swap1\n      swap2\n      keccak256\n        /* \"projects/02-access-control/contracts/01-vulnerable/VulnerableVault.sol\":2260:2286  isAdmin[msg.sender] = true */\n      dup1\n      sload\n      not(0xff)\n      and\n      swap1\n      swap2\n      or\n      swap1\n      sstore\n        /* \"projects/02-access-control/contracts/01-vulnerable/VulnerableVault.sol\":2296:2314  initialized = true */\n      dup1\n      sload\n      not(shl(0xa0, 0xff))\n      and\n      shl(0xa0, 0x01)\n      or\n      swap1\n      sstore\n        /* \"projects/02-access-control/contracts/01-vulnerable/VulnerableVault.sol\":2152:2321  function initialize() external {... */\n      jump\n        /* \"projects/02-access-control/contracts/01-vulnerable/VulnerableVault.sol\":2452:2666  function executeExternalCall(address target, bytes calldata data) external {... */\n    tag_16:\n      callvalue\n      dup1\n      iszero\n      tag_82\n      jumpi\n      0x00\n      dup1\n      revert\n    tag_82:\n      pop\n      tag_31\n      tag_84\n      calldatasize\n      0x04\n      tag_85\n      jump\t// in\n    tag_84:\n      tag_86\n      jump\t// in\n        /* \"projects/02-access-control/contracts/01-vulnerable/VulnerableVault.sol\":767:787  address public owner */\n    tag_17:\n      callvalue\n      dup1\n      iszero\n      tag_87\n      jumpi\n      0x00\n      dup1\n      revert\n    tag_87:\n      pop\n      sload(0x03)\n      tag_88\n      swap1\n      sub(shl(0xa0, 0x01), 0x01)\n      and\n      dup2\n      jump\n    tag_88:\n      mload(0x40)\n      sub(shl(0xa0, 0x01), 0x01)\n        /* \"#utility.yul\":2217:2249   */\n      swap1\n      swap2\n      and\n        /* \"#utility.yul\":2199:2250   */\n      dup2\n      mstore\n        /* \"#utility.yul\":2187:2189   */\n      0x20\n        /* \"#utility.yul\":2172:2190   */\n      add\n        /* \"projects/02-access-control/contracts/01-vulnerable/VulnerableVault.sol\":767:787  address public owner */\n      tag_28\n        /* \"#utility.yul\":2053:2256   */\n      jump\n        /* \"projects/02-access-control/contracts/01-vulnerable/VulnerableVault.sol\":822:847  uint256 public totalFunds */\n    tag_18:\n      callvalue\n      dup1\n      iszero\n      tag_92\n      jumpi\n      0x00\n      dup1\n      revert\n    tag_92:\n      pop\n      tag_42\n      sload(0x04)\n      dup2\n      jump\n        /* \"projects/02-access-control/contracts/01-vulnerable/VulnerableVault.sol\":3234:3398  function deposit() external payable {... */\n    tag_19:\n      tag_31\n      tag_97\n      jump\t// in\n        /* \"projects/02-access-control/contracts/01-vulnerable/VulnerableVault.sol\":1855:2026  function assignRole(address user, bytes32 role) external {... */\n    tag_34:\n      sub(shl(0xa0, 0x01), 0x01)\n        /* \"projects/02-access-control/contracts/01-vulnerable/VulnerableVault.sol\":1958:1973  userRoles[user] */\n      dup3\n      and\n      0x00\n      dup2\n      dup2\n      mstore\n        /* \"projects/02-access-control/contracts/01-vulnerable/VulnerableVault.sol\":1958:1967  userRoles */\n      0x02\n        /* \"projects/02-access-control/contracts/01-vulnerable/VulnerableVault.sol\":1958:1973  userRoles[user] */\n      0x20\n      mstore\n      0x40\n      swap1\n      dup2\n      swap1\n      keccak256\n        /* \"projects/02-access-control/contracts/01-vulnerable/VulnerableVault.sol\":1958:1980  userRoles[user] = role */\n      dup4\n      swap1\n      sstore\n        /* \"projects/02-access-control/contracts/01-vulnerable/VulnerableVault.sol\":1995:2019  RoleAssigned(user, role) */\n      mload\n      0x0666448aae9b9c8249fd8213a35a9c10218a0eac2fb39b96ed90c67214c7e761\n      swap1\n      tag_99\n      swap1\n        /* \"projects/02-access-control/contracts/01-vulnerable/VulnerableVault.sol\":1976:1980  role */\n      dup5\n        /* \"#utility.yul\":980:1005   */\n      dup2\n      mstore\n        /* \"#utility.yul\":968:970   */\n      0x20\n        /* \"#utility.yul\":953:971   */\n      add\n      swap1\n        /* \"#utility.yul\":834:1011   */\n      jump\n        /* \"projects/02-access-control/contracts/01-vulnerable/VulnerableVault.sol\":1995:2019  RoleAssigned(user, role) */\n    tag_99:\n      mload(0x40)\n      dup1\n      swap2\n      sub\n      swap1\n      log2\n        /* \"projects/02-access-control/contracts/01-vulnerable/VulnerableVault.sol\":1855:2026  function assignRole(address user, bytes32 role) external {... */\n      pop\n      pop\n      jump\t// out\n        /* \"projects/02-access-control/contracts/01-vulnerable/VulnerableVault.sol\":1363:1734  function withdraw(uint256 amount) external {... */\n    tag_51:\n        /* \"projects/02-access-control/contracts/01-vulnerable/VulnerableVault.sol\":1433:1443  msg.sender */\n      caller\n        /* \"projects/02-access-control/contracts/01-vulnerable/VulnerableVault.sol\":1424:1432  balances */\n      0x00\n        /* \"projects/02-access-control/contracts/01-vulnerable/VulnerableVault.sol\":1424:1444  balances[msg.sender] */\n      swap1\n      dup2\n      mstore\n      0x20\n      dup2\n      swap1\n      mstore\n      0x40\n      swap1\n      keccak256\n      sload\n        /* \"projects/02-access-control/contracts/01-vulnerable/VulnerableVault.sol\":1424:1454  balances[msg.sender] >= amount */\n      dup2\n      gt\n      iszero\n        /* \"projects/02-access-control/contracts/01-vulnerable/VulnerableVault.sol\":1416:1479  require(balances[msg.sender] >= amount, \"Insufficient balance\") */\n      tag_101\n      jumpi\n      mload(0x40)\n      shl(0xe5, 0x461bcd)\n      dup2\n      mstore\n        /* \"#utility.yul\":2463:2465   */\n      0x20\n        /* \"projects/02-access-control/contracts/01-vulnerable/VulnerableVault.sol\":1416:1479  require(balances[msg.sender] >= amount, \"Insufficient balance\") */\n      0x04\n      dup3\n      add\n        /* \"#utility.yul\":2445:2466   */\n      mstore\n        /* \"#utility.yul\":2502:2504   */\n      0x14\n        /* \"#utility.yul\":2482:2500   */\n      0x24\n      dup3\n      add\n        /* \"#utility.yul\":2475:2505   */\n      mstore\n      shl(0x60, 0x496e73756666696369656e742062616c616e6365)\n        /* \"#utility.yul\":2521:2539   */\n      0x44\n      dup3\n      add\n        /* \"#utility.yul\":2514:2564   */\n      mstore\n        /* \"#utility.yul\":2581:2599   */\n      0x64\n      add\n        /* \"projects/02-access-control/contracts/01-vulnerable/VulnerableVault.sol\":1416:1479  require(balances[msg.sender] >= amount, \"Insufficient balance\") */\n    tag_102:\n      mload(0x40)\n      dup1\n      swap2\n      sub\n      swap1\n      revert\n    tag_101:\n        /* \"projects/02-access-control/contracts/01-vulnerable/VulnerableVault.sol\":1507:1517  msg.sender */\n      caller\n        /* \"projects/02-access-control/contracts/01-vulnerable/VulnerableVault.sol\":1498:1506  balances */\n      0x00\n        /* \"projects/02-access-control/contracts/01-vulnerable/VulnerableVault.sol\":1498:1518  balances[msg.sender] */\n      swap1\n      dup2\n      mstore\n      0x20\n      dup2\n      swap1\n      mstore\n      0x40\n      dup2\n      keccak256\n        /* \"projects/02-access-control/contracts/01-vulnerable/VulnerableVault.sol\":1498:1528  balances[msg.sender] -= amount */\n      dup1\n      sload\n        /* \"projects/02-access-control/contracts/01-vulnerable/VulnerableVault.sol\":1522:1528  amount */\n      dup4\n      swap3\n        /* \"projects/02-access-control/contracts/01-vulnerable/VulnerableVault.sol\":1498:1506  balances */\n      swap1\n        /* \"projects/02-access-control/contracts/01-vulnerable/VulnerableVault.sol\":1498:1528  balances[msg.sender] -= amount */\n      tag_104\n      swap1\n        /* \"projects/02-access-control/contracts/01-vulnerable/VulnerableVault.sol\":1522:1528  amount */\n      dup5\n      swap1\n        /* \"projects/02-access-control/contracts/01-vulnerable/VulnerableVault.sol\":1498:1528  balances[msg.sender] -= amount */\n      tag_105\n      jump\t// in\n    tag_104:\n      swap3\n      pop\n      pop\n      dup2\n      swap1\n      sstore\n      pop\n        /* \"projects/02-access-control/contracts/01-vulnerable/VulnerableVault.sol\":1552:1558  amount */\n      dup1\n        /* \"projects/02-access-control/contracts/01-vulnerable/VulnerableVault.sol\":1538:1548  totalFunds */\n      0x04\n      0x00\n        /* \"projects/02-access-control/contracts/01-vulnerable/VulnerableVault.sol\":1538:1558  totalFunds -= amount */\n      dup3\n      dup3\n      sload\n      tag_106\n      swap2\n      swap1\n      tag_105\n      jump\t// in\n    tag_106:\n      swap1\n      swap2\n      sstore\n      pop\n      pop\n        /* \"projects/02-access-control/contracts/01-vulnerable/VulnerableVault.sol\":1596:1630  msg.sender.call{value: amount}(\"\") */\n      mload(0x40)\n        /* \"projects/02-access-control/contracts/01-vulnerable/VulnerableVault.sol\":1578:1590  bool success */\n      0x00\n      swap1\n        /* \"projects/02-access-control/contracts/01-vulnerable/VulnerableVault.sol\":1596:1606  msg.sender */\n      caller\n      swap1\n        /* \"projects/02-access-control/contracts/01-vulnerable/VulnerableVault.sol\":1619:1625  amount */\n      dup4\n      swap1\n        /* \"projects/02-access-control/contracts/01-vulnerable/VulnerableVault.sol\":1578:1590  bool success */\n      dup4\n        /* \"projects/02-access-control/contracts/01-vulnerable/VulnerableVault.sol\":1596:1630  msg.sender.call{value: amount}(\"\") */\n      dup2\n        /* \"projects/02-access-control/contracts/01-vulnerable/VulnerableVault.sol\":1578:1590  bool success */\n      dup2\n        /* \"projects/02-access-control/contracts/01-vulnerable/VulnerableVault.sol\":1596:1630  msg.sender.call{value: amount}(\"\") */\n      dup2\n        /* \"projects/02-access-control/contracts/01-vulnerable/VulnerableVault.sol\":1619:1625  amount */\n      dup6\n        /* \"projects/02-access-control/contracts/01-vulnerable/VulnerableVault.sol\":1596:1606  msg.sender */\n      dup8\n        /* \"projects/02-access-control/contracts/01-vulnerable/VulnerableVault.sol\":1596:1630  msg.sender.call{value: amount}(\"\") */\n      gas\n      call\n      swap3\n      pop\n      pop\n      pop\n      returndatasize\n      dup1\n      0x00\n      dup2\n      eq\n      tag_111\n      jumpi\n      mload(0x40)\n      swap2\n      pop\n      and(add(returndatasize, 0x3f), not(0x1f))\n      dup3\n      add\n      0x40\n      mstore\n      returndatasize\n      dup3\n      mstore\n      returndatasize\n      0x00\n      0x20\n      dup5\n      add\n      returndatacopy\n      jump(tag_110)\n    tag_111:\n      0x60\n      swap2\n      pop\n    tag_110:\n      pop\n        /* \"projects/02-access-control/contracts/01-vulnerable/VulnerableVault.sol\":1577:1630  (bool success, ) = msg.sender.call{value: amount}(\"\") */\n      pop\n      swap1\n      pop\n        /* \"projects/02-access-control/contracts/01-vulnerable/VulnerableVault.sol\":1648:1655  success */\n      dup1\n        /* \"projects/02-access-control/contracts/01-vulnerable/VulnerableVault.sol\":1640:1675  require(success, \"Transfer failed\") */\n      tag_112\n      jumpi\n      mload(0x40)\n      shl(0xe5, 0x461bcd)\n      dup2\n      mstore\n        /* \"#utility.yul\":3287:3289   */\n      0x20\n        /* \"projects/02-access-control/contracts/01-vulnerable/VulnerableVault.sol\":1640:1675  require(success, \"Transfer failed\") */\n      0x04\n      dup3\n      add\n        /* \"#utility.yul\":3269:3290   */\n      mstore\n        /* \"#utility.yul\":3326:3328   */\n      0x0f\n        /* \"#utility.yul\":3306:3324   */\n      0x24\n      dup3\n      add\n        /* \"#utility.yul\":3299:3329   */\n      mstore\n      shl(0x8a, 0x151c985b9cd9995c8819985a5b1959)\n        /* \"#utility.yul\":3345:3363   */\n      0x44\n      dup3\n      add\n        /* \"#utility.yul\":3338:3383   */\n      mstore\n        /* \"#utility.yul\":3400:3418   */\n      0x64\n      add\n        /* \"projects/02-access-control/contracts/01-vulnerable/VulnerableVault.sol\":1640:1675  require(success, \"Transfer failed\") */\n      tag_102\n        /* \"#utility.yul\":3085:3424   */\n      jump\n        /* \"projects/02-access-control/contracts/01-vulnerable/VulnerableVault.sol\":1640:1675  require(success, \"Transfer failed\") */\n    tag_112:\n        /* \"projects/02-access-control/contracts/01-vulnerable/VulnerableVault.sol\":1699:1727  Withdraw(msg.sender, amount) */\n      mload(0x40)\n        /* \"#utility.yul\":980:1005   */\n      dup3\n      dup2\n      mstore\n        /* \"projects/02-access-control/contracts/01-vulnerable/VulnerableVault.sol\":1708:1718  msg.sender */\n      caller\n      swap1\n        /* \"projects/02-access-control/contracts/01-vulnerable/VulnerableVault.sol\":1699:1727  Withdraw(msg.sender, amount) */\n      0x884edad9ce6fa2440d8a54cc123490eb96d2768479d49ff9c7366125a9424364\n      swap1\n        /* \"#utility.yul\":968:970   */\n      0x20\n        /* \"#utility.yul\":953:971   */\n      add\n        /* \"projects/02-access-control/contracts/01-vulnerable/VulnerableVault.sol\":1699:1727  Withdraw(msg.sender, amount) */\n      tag_99\n        /* \"#utility.yul\":834:1011   */\n      jump\n        /* \"projects/02-access-control/contracts/01-vulnerable/VulnerableVault.sol\":3052:3179  function insecureFunction() external {... */\n    tag_54:\n      jump\t// out\n        /* \"projects/02-access-control/contracts/01-vulnerable/VulnerableVault.sol\":3471:3645  function addAdmin(address newAdmin) external {... */\n    tag_66:\n      sub(shl(0xa0, 0x01), 0x01)\n        /* \"projects/02-access-control/contracts/01-vulnerable/VulnerableVault.sol\":3579:3596  isAdmin[newAdmin] */\n      dup2\n      and\n      0x00\n      dup2\n      dup2\n      mstore\n        /* \"projects/02-access-control/contracts/01-vulnerable/VulnerableVault.sol\":3599:3603  true */\n      0x01\n        /* \"projects/02-access-control/contracts/01-vulnerable/VulnerableVault.sol\":3579:3596  isAdmin[newAdmin] */\n      0x20\n      dup2\n      swap1\n      mstore\n      0x40\n      dup1\n      dup4\n      keccak256\n        /* \"projects/02-access-control/contracts/01-vulnerable/VulnerableVault.sol\":3579:3603  isAdmin[newAdmin] = true */\n      dup1\n      sload\n      not(0xff)\n      and\n      swap1\n      swap3\n      or\n      swap1\n      swap2\n      sstore\n        /* \"projects/02-access-control/contracts/01-vulnerable/VulnerableVault.sol\":3618:3638  AdminAdded(newAdmin) */\n      mload\n      0x44d6d25963f097ad14f29f06854a01f575648a1ef82f30e562ccd3889717e339\n      swap2\n        /* \"projects/02-access-control/contracts/01-vulnerable/VulnerableVault.sol\":3579:3596  isAdmin[newAdmin] */\n      swap1\n        /* \"projects/02-access-control/contracts/01-vulnerable/VulnerableVault.sol\":3618:3638  AdminAdded(newAdmin) */\n      log2\n        /* \"projects/02-access-control/contracts/01-vulnerable/VulnerableVault.sol\":3471:3645  function addAdmin(address newAdmin) external {... */\n      pop\n      jump\t// out\n        /* \"projects/02-access-control/contracts/01-vulnerable/VulnerableVault.sol\":2794:2921  function secureFunction() external {... */\n    tag_75:\n        /* \"projects/02-access-control/contracts/01-vulnerable/VulnerableVault.sol\":2855:2865  msg.sender */\n      caller\n        /* \"projects/02-access-control/contracts/01-vulnerable/VulnerableVault.sol\":2847:2866  isAdmin[msg.sender] */\n      0x00\n      swap1\n      dup2\n      mstore\n        /* \"projects/02-access-control/contracts/01-vulnerable/VulnerableVault.sol\":2847:2854  isAdmin */\n      0x01\n        /* \"projects/02-access-control/contracts/01-vulnerable/VulnerableVault.sol\":2847:2866  isAdmin[msg.sender] */\n      0x20\n      mstore\n      0x40\n      swap1\n      keccak256\n      sload\n      0xff\n      and\n        /* \"projects/02-access-control/contracts/01-vulnerable/VulnerableVault.sol\":2839:2881  require(isAdmin[msg.sender], \"Only admin\") */\n      tag_54\n      jumpi\n      mload(0x40)\n      shl(0xe5, 0x461bcd)\n      dup2\n      mstore\n        /* \"#utility.yul\":3631:3633   */\n      0x20\n        /* \"projects/02-access-control/contracts/01-vulnerable/VulnerableVault.sol\":2839:2881  require(isAdmin[msg.sender], \"Only admin\") */\n      0x04\n      dup3\n      add\n        /* \"#utility.yul\":3613:3634   */\n      mstore\n        /* \"#utility.yul\":3670:3672   */\n      0x0a\n        /* \"#utility.yul\":3650:3668   */\n      0x24\n      dup3\n      add\n        /* \"#utility.yul\":3643:3673   */\n      mstore\n      shl(0xb1, 0x27b7363c9030b236b4b7)\n        /* \"#utility.yul\":3689:3707   */\n      0x44\n      dup3\n      add\n        /* \"#utility.yul\":3682:3722   */\n      mstore\n        /* \"#utility.yul\":3739:3757   */\n      0x64\n      add\n        /* \"projects/02-access-control/contracts/01-vulnerable/VulnerableVault.sol\":2839:2881  require(isAdmin[msg.sender], \"Only admin\") */\n      tag_102\n        /* \"#utility.yul\":3429:3763   */\n      jump\n        /* \"projects/02-access-control/contracts/01-vulnerable/VulnerableVault.sol\":2452:2666  function executeExternalCall(address target, bytes calldata data) external {... */\n    tag_86:\n        /* \"projects/02-access-control/contracts/01-vulnerable/VulnerableVault.sol\":2574:2586  bool success */\n      0x00\n        /* \"projects/02-access-control/contracts/01-vulnerable/VulnerableVault.sol\":2592:2598  target */\n      dup4\n      sub(shl(0xa0, 0x01), 0x01)\n        /* \"projects/02-access-control/contracts/01-vulnerable/VulnerableVault.sol\":2592:2603  target.call */\n      and\n        /* \"projects/02-access-control/contracts/01-vulnerable/VulnerableVault.sol\":2604:2608  data */\n      dup4\n      dup4\n        /* \"projects/02-access-control/contracts/01-vulnerable/VulnerableVault.sol\":2592:2609  target.call(data) */\n      mload(0x40)\n      tag_127\n      swap3\n      swap2\n      swap1\n      tag_128\n      jump\t// in\n    tag_127:\n      0x00\n      mload(0x40)\n      dup1\n      dup4\n      sub\n      dup2\n      0x00\n      dup7\n      gas\n      call\n      swap2\n      pop\n      pop\n      returndatasize\n      dup1\n      0x00\n      dup2\n      eq\n      tag_131\n      jumpi\n      mload(0x40)\n      swap2\n      pop\n      and(add(returndatasize, 0x3f), not(0x1f))\n      dup3\n      add\n      0x40\n      mstore\n      returndatasize\n      dup3\n      mstore\n      returndatasize\n      0x00\n      0x20\n      dup5\n      add\n      returndatacopy\n      jump(tag_130)\n    tag_131:\n      0x60\n      swap2\n      pop\n    tag_130:\n      pop\n        /* \"projects/02-access-control/contracts/01-vulnerable/VulnerableVault.sol\":2573:2609  (bool success, ) = target.call(data) */\n      pop\n      swap1\n      pop\n        /* \"projects/02-access-control/contracts/01-vulnerable/VulnerableVault.sol\":2627:2634  success */\n      dup1\n        /* \"projects/02-access-control/contracts/01-vulnerable/VulnerableVault.sol\":2619:2659  require(success, \"External call failed\") */\n      tag_132\n      jumpi\n      mload(0x40)\n      shl(0xe5, 0x461bcd)\n      dup2\n      mstore\n        /* \"#utility.yul\":4246:4248   */\n      0x20\n        /* \"projects/02-access-control/contracts/01-vulnerable/VulnerableVault.sol\":2619:2659  require(success, \"External call failed\") */\n      0x04\n      dup3\n      add\n        /* \"#utility.yul\":4228:4249   */\n      mstore\n        /* \"#utility.yul\":4285:4287   */\n      0x14\n        /* \"#utility.yul\":4265:4283   */\n      0x24\n      dup3\n      add\n        /* \"#utility.yul\":4258:4288   */\n      mstore\n      shl(0x62, 0x115e1d195c9b985b0818d85b1b0819985a5b1959)\n        /* \"#utility.yul\":4304:4322   */\n      0x44\n      dup3\n      add\n        /* \"#utility.yul\":4297:4347   */\n      mstore\n        /* \"#utility.yul\":4364:4382   */\n      0x64\n      add\n        /* \"projects/02-access-control/contracts/01-vulnerable/VulnerableVault.sol\":2619:2659  require(success, \"External call failed\") */\n      tag_102\n        /* \"#utility.yul\":4044:4388   */\n      jump\n        /* \"projects/02-access-control/contracts/01-vulnerable/VulnerableVault.sol\":2619:2659  require(success, \"External call failed\") */\n    tag_132:\n        /* \"projects/02-access-control/contracts/01-vulnerable/VulnerableVault.sol\":2527:2666  {... */\n      pop\n        /* \"projects/02-access-control/contracts/01-vulnerable/VulnerableVault.sol\":2452:2666  function executeExternalCall(address target, bytes calldata data) external {... */\n      pop\n      pop\n      pop\n      jump\t// out\n        /* \"projects/02-access-control/contracts/01-vulnerable/VulnerableVault.sol\":3234:3398  function deposit() external payable {... */\n    tag_97:\n        /* \"projects/02-access-control/contracts/01-vulnerable/VulnerableVault.sol\":3289:3299  msg.sender */\n      caller\n        /* \"projects/02-access-control/contracts/01-vulnerable/VulnerableVault.sol\":3280:3288  balances */\n      0x00\n        /* \"projects/02-access-control/contracts/01-vulnerable/VulnerableVault.sol\":3280:3300  balances[msg.sender] */\n      swap1\n      dup2\n      mstore\n      0x20\n      dup2\n      swap1\n      mstore\n      0x40\n      dup2\n      keccak256\n        /* \"projects/02-access-control/contracts/01-vulnerable/VulnerableVault.sol\":3280:3313  balances[msg.sender] += msg.value */\n      dup1\n      sload\n        /* \"projects/02-access-control/contracts/01-vulnerable/VulnerableVault.sol\":3304:3313  msg.value */\n      callvalue\n      swap3\n        /* \"projects/02-access-control/contracts/01-vulnerable/VulnerableVault.sol\":3280:3288  balances */\n      swap1\n        /* \"projects/02-access-control/contracts/01-vulnerable/VulnerableVault.sol\":3280:3313  balances[msg.sender] += msg.value */\n      tag_136\n      swap1\n        /* \"projects/02-access-control/contracts/01-vulnerable/VulnerableVault.sol\":3304:3313  msg.value */\n      dup5\n      swap1\n        /* \"projects/02-access-control/contracts/01-vulnerable/VulnerableVault.sol\":3280:3313  balances[msg.sender] += msg.value */\n      tag_137\n      jump\t// in\n    tag_136:\n      swap3\n      pop\n      pop\n      dup2\n      swap1\n      sstore\n      pop\n        /* \"projects/02-access-control/contracts/01-vulnerable/VulnerableVault.sol\":3337:3346  msg.value */\n      callvalue\n        /* \"projects/02-access-control/contracts/01-vulnerable/VulnerableVault.sol\":3323:3333  totalFunds */\n      0x04\n      0x00\n        /* \"projects/02-access-control/contracts/01-vulnerable/VulnerableVault.sol\":3323:3346  totalFunds += msg.value */\n      dup3\n      dup3\n      sload\n      tag_138\n      swap2\n      swap1\n      tag_137\n      jump\t// in\n    tag_138:\n      swap1\n      swap2\n      sstore\n      pop\n      pop\n        /* \"projects/02-access-control/contracts/01-vulnerable/VulnerableVault.sol\":3361:3391  Deposit(msg.sender, msg.value) */\n      mload(0x40)\n        /* \"projects/02-access-control/contracts/01-vulnerable/VulnerableVault.sol\":3381:3390  msg.value */\n      callvalue\n        /* \"#utility.yul\":980:1005   */\n      dup2\n      mstore\n        /* \"projects/02-access-control/contracts/01-vulnerable/VulnerableVault.sol\":3369:3379  msg.sender */\n      caller\n      swap1\n        /* \"projects/02-access-control/contracts/01-vulnerable/VulnerableVault.sol\":3361:3391  Deposit(msg.sender, msg.value) */\n      0xe1fffcc4923d04b559f4d29a8bfc6cda04eb5b0d3c460751c2402c5c5cc9109c\n      swap1\n        /* \"#utility.yul\":968:970   */\n      0x20\n        /* \"#utility.yul\":953:971   */\n      add\n        /* \"projects/02-access-control/contracts/01-vulnerable/VulnerableVault.sol\":3361:3391  Deposit(msg.sender, msg.value) */\n      mload(0x40)\n      dup1\n      swap2\n      sub\n      swap1\n      log2\n        /* \"projects/02-access-control/contracts/01-vulnerable/VulnerableVault.sol\":3234:3398  function deposit() external payable {... */\n      jump\t// out\n        /* \"#utility.yul\":206:379   */\n    tag_140:\n        /* \"#utility.yul\":274:294   */\n      dup1\n      calldataload\n      sub(shl(0xa0, 0x01), 0x01)\n        /* \"#utility.yul\":323:354   */\n      dup2\n      and\n        /* \"#utility.yul\":313:355   */\n      dup2\n      eq\n        /* \"#utility.yul\":303:373   */\n      tag_145\n      jumpi\n        /* \"#utility.yul\":369:370   */\n      0x00\n        /* \"#utility.yul\":366:367   */\n      dup1\n        /* \"#utility.yul\":359:371   */\n      revert\n        /* \"#utility.yul\":303:373   */\n    tag_145:\n        /* \"#utility.yul\":206:379   */\n      swap2\n      swap1\n      pop\n      jump\t// out\n        /* \"#utility.yul\":384:638   */\n    tag_33:\n        /* \"#utility.yul\":452:458   */\n      0x00\n        /* \"#utility.yul\":460:466   */\n      dup1\n        /* \"#utility.yul\":513:515   */\n      0x40\n        /* \"#utility.yul\":501:510   */\n      dup4\n        /* \"#utility.yul\":492:499   */\n      dup6\n        /* \"#utility.yul\":488:511   */\n      sub\n        /* \"#utility.yul\":484:516   */\n      slt\n        /* \"#utility.yul\":481:533   */\n      iszero\n      tag_147\n      jumpi\n        /* \"#utility.yul\":529:530   */\n      0x00\n        /* \"#utility.yul\":526:527   */\n      dup1\n        /* \"#utility.yul\":519:531   */\n      revert\n        /* \"#utility.yul\":481:533   */\n    tag_147:\n        /* \"#utility.yul\":552:581   */\n      tag_148\n        /* \"#utility.yul\":571:580   */\n      dup4\n        /* \"#utility.yul\":552:581   */\n      tag_140\n      jump\t// in\n    tag_148:\n        /* \"#utility.yul\":542:581   */\n      swap5\n        /* \"#utility.yul\":628:630   */\n      0x20\n        /* \"#utility.yul\":613:631   */\n      swap4\n      swap1\n      swap4\n      add\n        /* \"#utility.yul\":600:632   */\n      calldataload\n      swap4\n      pop\n      pop\n      pop\n        /* \"#utility.yul\":384:638   */\n      jump\t// out\n        /* \"#utility.yul\":643:829   */\n    tag_38:\n        /* \"#utility.yul\":702:708   */\n      0x00\n        /* \"#utility.yul\":755:757   */\n      0x20\n        /* \"#utility.yul\":743:752   */\n      dup3\n        /* \"#utility.yul\":734:741   */\n      dup5\n        /* \"#utility.yul\":730:753   */\n      sub\n        /* \"#utility.yul\":726:758   */\n      slt\n        /* \"#utility.yul\":723:775   */\n      iszero\n      tag_150\n      jumpi\n        /* \"#utility.yul\":771:772   */\n      0x00\n        /* \"#utility.yul\":768:769   */\n      dup1\n        /* \"#utility.yul\":761:773   */\n      revert\n        /* \"#utility.yul\":723:775   */\n    tag_150:\n        /* \"#utility.yul\":794:823   */\n      tag_151\n        /* \"#utility.yul\":813:822   */\n      dup3\n        /* \"#utility.yul\":794:823   */\n      tag_140\n      jump\t// in\n    tag_151:\n        /* \"#utility.yul\":784:823   */\n      swap4\n        /* \"#utility.yul\":643:829   */\n      swap3\n      pop\n      pop\n      pop\n      jump\t// out\n        /* \"#utility.yul\":1016:1196   */\n    tag_50:\n        /* \"#utility.yul\":1075:1081   */\n      0x00\n        /* \"#utility.yul\":1128:1130   */\n      0x20\n        /* \"#utility.yul\":1116:1125   */\n      dup3\n        /* \"#utility.yul\":1107:1114   */\n      dup5\n        /* \"#utility.yul\":1103:1126   */\n      sub\n        /* \"#utility.yul\":1099:1131   */\n      slt\n        /* \"#utility.yul\":1096:1148   */\n      iszero\n      tag_154\n      jumpi\n        /* \"#utility.yul\":1144:1145   */\n      0x00\n        /* \"#utility.yul\":1141:1142   */\n      dup1\n        /* \"#utility.yul\":1134:1146   */\n      revert\n        /* \"#utility.yul\":1096:1148   */\n    tag_154:\n      pop\n        /* \"#utility.yul\":1167:1190   */\n      calldataload\n      swap2\n        /* \"#utility.yul\":1016:1196   */\n      swap1\n      pop\n      jump\t// out\n        /* \"#utility.yul\":1383:2048   */\n    tag_85:\n        /* \"#utility.yul\":1462:1468   */\n      0x00\n        /* \"#utility.yul\":1470:1476   */\n      dup1\n        /* \"#utility.yul\":1478:1484   */\n      0x00\n        /* \"#utility.yul\":1531:1533   */\n      0x40\n        /* \"#utility.yul\":1519:1528   */\n      dup5\n        /* \"#utility.yul\":1510:1517   */\n      dup7\n        /* \"#utility.yul\":1506:1529   */\n      sub\n        /* \"#utility.yul\":1502:1534   */\n      slt\n        /* \"#utility.yul\":1499:1551   */\n      iszero\n      tag_157\n      jumpi\n        /* \"#utility.yul\":1547:1548   */\n      0x00\n        /* \"#utility.yul\":1544:1545   */\n      dup1\n        /* \"#utility.yul\":1537:1549   */\n      revert\n        /* \"#utility.yul\":1499:1551   */\n    tag_157:\n        /* \"#utility.yul\":1570:1599   */\n      tag_158\n        /* \"#utility.yul\":1589:1598   */\n      dup5\n        /* \"#utility.yul\":1570:1599   */\n      tag_140\n      jump\t// in\n    tag_158:\n        /* \"#utility.yul\":1560:1599   */\n      swap3\n      pop\n        /* \"#utility.yul\":1650:1652   */\n      0x20\n        /* \"#utility.yul\":1639:1648   */\n      dup5\n        /* \"#utility.yul\":1635:1653   */\n      add\n        /* \"#utility.yul\":1622:1654   */\n      calldataload\n        /* \"#utility.yul\":1673:1691   */\n      0xffffffffffffffff\n        /* \"#utility.yul\":1714:1716   */\n      dup1\n        /* \"#utility.yul\":1706:1712   */\n      dup3\n        /* \"#utility.yul\":1703:1717   */\n      gt\n        /* \"#utility.yul\":1700:1734   */\n      iszero\n      tag_159\n      jumpi\n        /* \"#utility.yul\":1730:1731   */\n      0x00\n        /* \"#utility.yul\":1727:1728   */\n      dup1\n        /* \"#utility.yul\":1720:1732   */\n      revert\n        /* \"#utility.yul\":1700:1734   */\n    tag_159:\n        /* \"#utility.yul\":1768:1774   */\n      dup2\n        /* \"#utility.yul\":1757:1766   */\n      dup7\n        /* \"#utility.yul\":1753:1775   */\n      add\n        /* \"#utility.yul\":1743:1775   */\n      swap2\n      pop\n        /* \"#utility.yul\":1813:1820   */\n      dup7\n        /* \"#utility.yul\":1806:1810   */\n      0x1f\n        /* \"#utility.yul\":1802:1804   */\n      dup4\n        /* \"#utility.yul\":1798:1811   */\n      add\n        /* \"#utility.yul\":1794:1821   */\n      slt\n        /* \"#utility.yul\":1784:1839   */\n      tag_160\n      jumpi\n        /* \"#utility.yul\":1835:1836   */\n      0x00\n        /* \"#utility.yul\":1832:1833   */\n      dup1\n        /* \"#utility.yul\":1825:1837   */\n      revert\n        /* \"#utility.yul\":1784:1839   */\n    tag_160:\n        /* \"#utility.yul\":1875:1877   */\n      dup2\n        /* \"#utility.yul\":1862:1878   */\n      calldataload\n        /* \"#utility.yul\":1901:1903   */\n      dup2\n        /* \"#utility.yul\":1893:1899   */\n      dup2\n        /* \"#utility.yul\":1890:1904   */\n      gt\n        /* \"#utility.yul\":1887:1921   */\n      iszero\n      tag_161\n      jumpi\n        /* \"#utility.yul\":1917:1918   */\n      0x00\n        /* \"#utility.yul\":1914:1915   */\n      dup1\n        /* \"#utility.yul\":1907:1919   */\n      revert\n        /* \"#utility.yul\":1887:1921   */\n    tag_161:\n        /* \"#utility.yul\":1962:1969   */\n      dup8\n        /* \"#utility.yul\":1957:1959   */\n      0x20\n        /* \"#utility.yul\":1948:1954   */\n      dup3\n        /* \"#utility.yul\":1944:1946   */\n      dup6\n        /* \"#utility.yul\":1940:1955   */\n      add\n        /* \"#utility.yul\":1936:1960   */\n      add\n        /* \"#utility.yul\":1933:1970   */\n      gt\n        /* \"#utility.yul\":1930:1987   */\n      iszero\n      tag_162\n      jumpi\n        /* \"#utility.yul\":1983:1984   */\n      0x00\n        /* \"#utility.yul\":1980:1981   */\n      dup1\n        /* \"#utility.yul\":1973:1985   */\n      revert\n        /* \"#utility.yul\":1930:1987   */\n    tag_162:\n        /* \"#utility.yul\":2014:2016   */\n      0x20\n        /* \"#utility.yul\":2010:2012   */\n      dup4\n        /* \"#utility.yul\":2006:2017   */\n      add\n        /* \"#utility.yul\":1996:2017   */\n      swap5\n      pop\n        /* \"#utility.yul\":2036:2042   */\n      dup1\n        /* \"#utility.yul\":2026:2042   */\n      swap4\n      pop\n      pop\n      pop\n      pop\n        /* \"#utility.yul\":1383:2048   */\n      swap3\n      pop\n      swap3\n      pop\n      swap3\n      jump\t// out\n        /* \"#utility.yul\":2610:2737   */\n    tag_141:\n        /* \"#utility.yul\":2671:2681   */\n      0x4e487b71\n        /* \"#utility.yul\":2666:2669   */\n      0xe0\n        /* \"#utility.yul\":2662:2682   */\n      shl\n        /* \"#utility.yul\":2659:2660   */\n      0x00\n        /* \"#utility.yul\":2652:2683   */\n      mstore\n        /* \"#utility.yul\":2702:2706   */\n      0x11\n        /* \"#utility.yul\":2699:2700   */\n      0x04\n        /* \"#utility.yul\":2692:2707   */\n      mstore\n        /* \"#utility.yul\":2726:2730   */\n      0x24\n        /* \"#utility.yul\":2723:2724   */\n      0x00\n        /* \"#utility.yul\":2716:2731   */\n      revert\n        /* \"#utility.yul\":2742:2870   */\n    tag_105:\n        /* \"#utility.yul\":2809:2818   */\n      dup2\n      dup2\n      sub\n        /* \"#utility.yul\":2830:2841   */\n      dup2\n      dup2\n      gt\n        /* \"#utility.yul\":2827:2864   */\n      iszero\n      tag_168\n      jumpi\n        /* \"#utility.yul\":2844:2862   */\n      tag_168\n      tag_141\n      jump\t// in\n    tag_168:\n        /* \"#utility.yul\":2742:2870   */\n      swap3\n      swap2\n      pop\n      pop\n      jump\t// out\n        /* \"#utility.yul\":3768:4039   */\n    tag_128:\n        /* \"#utility.yul\":3951:3957   */\n      dup2\n        /* \"#utility.yul\":3943:3949   */\n      dup4\n        /* \"#utility.yul\":3938:3941   */\n      dup3\n        /* \"#utility.yul\":3925:3958   */\n      calldatacopy\n        /* \"#utility.yul\":3907:3910   */\n      0x00\n        /* \"#utility.yul\":3977:3993   */\n      swap2\n      add\n        /* \"#utility.yul\":4002:4015   */\n      swap1\n      dup2\n      mstore\n        /* \"#utility.yul\":3977:3993   */\n      swap2\n        /* \"#utility.yul\":3768:4039   */\n      swap1\n      pop\n      jump\t// out\n        /* \"#utility.yul\":4393:4518   */\n    tag_137:\n        /* \"#utility.yul\":4458:4467   */\n      dup1\n      dup3\n      add\n        /* \"#utility.yul\":4479:4489   */\n      dup1\n      dup3\n      gt\n        /* \"#utility.yul\":4476:4512   */\n      iszero\n      tag_168\n      jumpi\n        /* \"#utility.yul\":4492:4510   */\n      tag_168\n      tag_141\n      jump\t// in\n\n    auxdata: 0xa26469706673582212202642ba7bbf7eb588f545021c28ed0182938f6112048a8bbbd8e3ea771d741e0f64736f6c63430008140033\n}\n","methodIdentifiers":{"addAdmin(address)":"70480275","assignRole(address,bytes32)":"1d9486de","balances(address)":"27e235e3","deposit()":"d0e30db0","executeExternalCall(address,bytes)":"8c075249","getContractBalance()":"6f9fb98a","initialize()":"8129fc1c","initialized()":"158ef93e","insecureFunction()":"38e02b2f","isAdmin(address)":"24d7806c","owner()":"8da5cb5b","pause()":"8456cb59","secureFunction()":"7b033707","totalFunds()":"968ed600","updateParameters(uint256)":"3ec66202","userRoles(address)":"74d5e100","withdraw(uint256)":"2e1a7d4d"},"storageLayout":{"storage":[{"astId":44927,"contract":"projects/02-access-control/contracts/01-vulnerable/VulnerableVault.sol:VulnerableVault","label":"balances","offset":0,"slot":"0","type":"t_mapping(t_address,t_uint256)"},{"astId":44931,"contract":"projects/02-access-control/contracts/01-vulnerable/VulnerableVault.sol:VulnerableVault","label":"isAdmin","offset":0,"slot":"1","type":"t_mapping(t_address,t_bool)"},{"astId":44935,"contract":"projects/02-access-control/contracts/01-vulnerable/VulnerableVault.sol:VulnerableVault","label":"userRoles","offset":0,"slot":"2","type":"t_mapping(t_address,t_bytes32)"},{"astId":44937,"contract":"projects/02-access-control/contracts/01-vulnerable/VulnerableVault.sol:VulnerableVault","label":"owner","offset":0,"slot":"3","type":"t_address"},{"astId":44939,"contract":"projects/02-access-control/contracts/01-vulnerable/VulnerableVault.sol:VulnerableVault","label":"initialized","offset":20,"slot":"3","type":"t_bool"},{"astId":44941,"contract":"projects/02-access-control/contracts/01-vulnerable/VulnerableVault.sol:VulnerableVault","label":"totalFunds","offset":0,"slot":"4","type":"t_uint256"}],"types":{"t_address":{"encoding":"inplace","label":"address","numberOfBytes":"20"},"t_bool":{"encoding":"inplace","label":"bool","numberOfBytes":"1"},"t_bytes32":{"encoding":"inplace","label":"bytes32","numberOfBytes":"32"},"t_mapping(t_address,t_bool)":{"encoding":"mapping","key":"t_address","label":"mapping(address => bool)","numberOfBytes":"32","value":"t_bool"},"t_mapping(t_address,t_bytes32)":{"encoding":"mapping","key":"t_address","label":"mapping(address => bytes32)","numberOfBytes":"32","value":"t_bytes32"},"t_mapping(t_address,t_uint256)":{"encoding":"mapping","key":"t_address","label":"mapping(address => uint256)","numberOfBytes":"32","value":"t_uint256"},"t_uint256":{"encoding":"inplace","label":"uint256","numberOfBytes":"32"}}},"id":40}