{"abi":[{"type":"receive","stateMutability":"payable"},{"type":"function","name":"balances","inputs":[{"name":"","type":"address","internalType":"address"}],"outputs":[{"name":"","type":"uint256","internalType":"uint256"}],"stateMutability":"view"},{"type":"function","name":"deposit","inputs":[],"outputs":[],"stateMutability":"payable"},{"type":"function","name":"emergencyWithdraw","inputs":[],"outputs":[],"stateMutability":"nonpayable"},{"type":"function","name":"getBalance","inputs":[{"name":"user","type":"address","internalType":"address"}],"outputs":[{"name":"","type":"uint256","internalType":"uint256"}],"stateMutability":"view"},{"type":"function","name":"getContractBalance","inputs":[],"outputs":[{"name":"","type":"uint256","internalType":"uint256"}],"stateMutability":"view"},{"type":"function","name":"isDepositing","inputs":[{"name":"","type":"address","internalType":"address"}],"outputs":[{"name":"","type":"bool","internalType":"bool"}],"stateMutability":"view"},{"type":"function","name":"withdraw","inputs":[{"name":"amount","type":"uint256","internalType":"uint256"}],"outputs":[],"stateMutability":"nonpayable"},{"type":"event","name":"Deposit","inputs":[{"name":"user","type":"address","indexed":true,"internalType":"address"},{"name":"amount","type":"uint256","indexed":false,"internalType":"uint256"}],"anonymous":false},{"type":"event","name":"EmergencyWithdraw","inputs":[{"name":"user","type":"address","indexed":true,"internalType":"address"},{"name":"amount","type":"uint256","indexed":false,"internalType":"uint256"}],"anonymous":false},{"type":"event","name":"Withdraw","inputs":[{"name":"user","type":"address","indexed":true,"internalType":"address"},{"name":"amount","type":"uint256","indexed":false,"internalType":"uint256"}],"anonymous":false}],"bytecode":{"object":"0x608060405234801561001057600080fd5b506106d7806100206000396000f3fe6080604052600436106100745760003560e01c80636f9fb98a1161004e5780636f9fb98a1461017b578063d0e30db01461018e578063db2e21bc14610196578063f8b2cb4f146101ab57600080fd5b806319b02120146100d957806327e235e31461011e5780632e1a7d4d1461015957600080fd5b366100d457336000908152602081905260408120805434929061009890849061062c565b909155505060405134815233907fe1fffcc4923d04b559f4d29a8bfc6cda04eb5b0d3c460751c2402c5c5cc9109c9060200160405180910390a2005b600080fd5b3480156100e557600080fd5b506101096100f4366004610645565b60016020526000908152604090205460ff1681565b60405190151581526020015b60405180910390f35b34801561012a57600080fd5b5061014b610139366004610645565b60006020819052908152604090205481565b604051908152602001610115565b34801561016557600080fd5b50610179610174366004610675565b6101e1565b005b34801561018757600080fd5b504761014b565b610179610324565b3480156101a257600080fd5b5061017961048f565b3480156101b757600080fd5b5061014b6101c6366004610645565b6001600160a01b031660009081526020819052604090205490565b3360009081526020819052604090205481111561023c5760405162461bcd60e51b8152602060048201526014602482015273496e73756666696369656e742062616c616e636560601b60448201526064015b60405180910390fd5b604051600090339083908381818185875af1925050503d806000811461027e576040519150601f19603f3d011682016040523d82523d6000602084013e610283565b606091505b50509050806102c65760405162461bcd60e51b815260206004820152600f60248201526e151c985b9cd9995c8819985a5b1959608a1b6044820152606401610233565b33600090815260208190526040812080548492906102e590849061068e565b909155505060405182815233907f884edad9ce6fa2440d8a54cc123490eb96d2768479d49ff9c7366125a9424364906020015b60405180910390a25050565b600034116103645760405162461bcd60e51b815260206004820152600d60248201526c09aeae6e840e6cadcc8408aa89609b1b6044820152606401610233565b336000908152602081905260408120805434929061038390849061062c565b9091555050336000908152600160208190526040909120805460ff19169091179055670de0b6b3a7640000341061043c57604051600090339067016345785d8a0000908381818185875af1925050503d80600081146103fe576040519150601f19603f3d011682016040523d82523d6000602084013e610403565b606091505b50509050801561043a57336000908152602081905260408120805467016345785d8a0000929061043490849061062c565b90915550505b505b3360008181526001602052604090819020805460ff19169055517fe1fffcc4923d04b559f4d29a8bfc6cda04eb5b0d3c460751c2402c5c5cc9109c906104859034815260200190565b60405180910390a2565b3360009081526001602052604090205460ff166104e55760405162461bcd60e51b81526020600482015260146024820152734e6f7420696e206465706f73697420737461746560601b6044820152606401610233565b336000908152602081905260409020548061053b5760405162461bcd60e51b81526020600482015260166024820152754e6f2062616c616e636520746f20776974686472617760501b6044820152606401610233565b336000818152602081815260408083208390556001909152808220805460ff191690555190919083908381818185875af1925050503d806000811461059c576040519150601f19603f3d011682016040523d82523d6000602084013e6105a1565b606091505b50509050806105e45760405162461bcd60e51b815260206004820152600f60248201526e151c985b9cd9995c8819985a5b1959608a1b6044820152606401610233565b60405182815233907f5fafa99d0643513820be26656b45130b01e1c03062e1266bf36f88cbd3bd969590602001610318565b634e487b7160e01b600052601160045260246000fd5b8082018082111561063f5761063f610616565b92915050565b60006020828403121561065757600080fd5b81356001600160a01b038116811461066e57600080fd5b9392505050565b60006020828403121561068757600080fd5b5035919050565b8181038181111561063f5761063f61061656fea264697066735822122054bf5d68e7dc07c218a196e9b6772b872f397ef24f4c0767fc25278f6f5a9e8e64736f6c63430008130033","linkReferences":{}},"assembly":"    /* \"projects/01-reentrancy-vault/contracts/vulnerable/VulnerableVault.sol\":368:3148  contract VulnerableVault {... */\n  mstore(0x40, 0x80)\n  callvalue\n  dup1\n  iszero\n  tag_1\n  jumpi\n  0x00\n  dup1\n  revert\ntag_1:\n  pop\n  dataSize(sub_0)\n  dup1\n  dataOffset(sub_0)\n  0x00\n  codecopy\n  0x00\n  return\nstop\n\nsub_0: assembly {\n        /* \"projects/01-reentrancy-vault/contracts/vulnerable/VulnerableVault.sol\":368:3148  contract VulnerableVault {... */\n      mstore(0x40, 0x80)\n      jumpi(tag_1, lt(calldatasize, 0x04))\n      shr(0xe0, calldataload(0x00))\n      dup1\n      0x6f9fb98a\n      gt\n      tag_10\n      jumpi\n      dup1\n      0x6f9fb98a\n      eq\n      tag_6\n      jumpi\n      dup1\n      0xd0e30db0\n      eq\n      tag_7\n      jumpi\n      dup1\n      0xdb2e21bc\n      eq\n      tag_8\n      jumpi\n      dup1\n      0xf8b2cb4f\n      eq\n      tag_9\n      jumpi\n      0x00\n      dup1\n      revert\n    tag_10:\n      dup1\n      0x19b02120\n      eq\n      tag_3\n      jumpi\n      dup1\n      0x27e235e3\n      eq\n      tag_4\n      jumpi\n      dup1\n      0x2e1a7d4d\n      eq\n      tag_5\n      jumpi\n      0x00\n      dup1\n      revert\n    tag_1:\n      jumpi(tag_2, calldatasize)\n        /* \"projects/01-reentrancy-vault/contracts/vulnerable/VulnerableVault.sol\":3070:3080  msg.sender */\n      caller\n        /* \"projects/01-reentrancy-vault/contracts/vulnerable/VulnerableVault.sol\":3061:3069  balances */\n      0x00\n        /* \"projects/01-reentrancy-vault/contracts/vulnerable/VulnerableVault.sol\":3061:3081  balances[msg.sender] */\n      swap1\n      dup2\n      mstore\n      0x20\n      dup2\n      swap1\n      mstore\n      0x40\n      dup2\n      keccak256\n        /* \"projects/01-reentrancy-vault/contracts/vulnerable/VulnerableVault.sol\":3061:3094  balances[msg.sender] += msg.value */\n      dup1\n      sload\n        /* \"projects/01-reentrancy-vault/contracts/vulnerable/VulnerableVault.sol\":3085:3094  msg.value */\n      callvalue\n      swap3\n        /* \"projects/01-reentrancy-vault/contracts/vulnerable/VulnerableVault.sol\":3061:3069  balances */\n      swap1\n        /* \"projects/01-reentrancy-vault/contracts/vulnerable/VulnerableVault.sol\":3061:3094  balances[msg.sender] += msg.value */\n      tag_13\n      swap1\n        /* \"projects/01-reentrancy-vault/contracts/vulnerable/VulnerableVault.sol\":3085:3094  msg.value */\n      dup5\n      swap1\n        /* \"projects/01-reentrancy-vault/contracts/vulnerable/VulnerableVault.sol\":3061:3094  balances[msg.sender] += msg.value */\n      tag_14\n      jump\t// in\n    tag_13:\n      swap1\n      swap2\n      sstore\n      pop\n      pop\n        /* \"projects/01-reentrancy-vault/contracts/vulnerable/VulnerableVault.sol\":3109:3139  Deposit(msg.sender, msg.value) */\n      mload(0x40)\n        /* \"projects/01-reentrancy-vault/contracts/vulnerable/VulnerableVault.sol\":3129:3138  msg.value */\n      callvalue\n        /* \"#utility.yul\":422:447   */\n      dup2\n      mstore\n        /* \"projects/01-reentrancy-vault/contracts/vulnerable/VulnerableVault.sol\":3117:3127  msg.sender */\n      caller\n      swap1\n        /* \"projects/01-reentrancy-vault/contracts/vulnerable/VulnerableVault.sol\":3109:3139  Deposit(msg.sender, msg.value) */\n      0xe1fffcc4923d04b559f4d29a8bfc6cda04eb5b0d3c460751c2402c5c5cc9109c\n      swap1\n        /* \"#utility.yul\":410:412   */\n      0x20\n        /* \"#utility.yul\":395:413   */\n      add\n        /* \"projects/01-reentrancy-vault/contracts/vulnerable/VulnerableVault.sol\":3109:3139  Deposit(msg.sender, msg.value) */\n      mload(0x40)\n      dup1\n      swap2\n      sub\n      swap1\n      log2\n        /* \"projects/01-reentrancy-vault/contracts/vulnerable/VulnerableVault.sol\":368:3148  contract VulnerableVault {... */\n      stop\n    tag_2:\n      0x00\n      dup1\n      revert\n        /* \"projects/01-reentrancy-vault/contracts/vulnerable/VulnerableVault.sol\":448:492  mapping(address => bool) public isDepositing */\n    tag_3:\n      callvalue\n      dup1\n      iszero\n      tag_17\n      jumpi\n      0x00\n      dup1\n      revert\n    tag_17:\n      pop\n      tag_18\n      tag_19\n      calldatasize\n      0x04\n      tag_20\n      jump\t// in\n    tag_19:\n      mstore(0x20, 0x01)\n      0x00\n      swap1\n      dup2\n      mstore\n      0x40\n      swap1\n      keccak256\n      sload\n      0xff\n      and\n      dup2\n      jump\n    tag_18:\n      mload(0x40)\n        /* \"#utility.yul\":914:928   */\n      swap1\n      iszero\n        /* \"#utility.yul\":907:929   */\n      iszero\n        /* \"#utility.yul\":889:930   */\n      dup2\n      mstore\n        /* \"#utility.yul\":877:879   */\n      0x20\n        /* \"#utility.yul\":862:880   */\n      add\n        /* \"projects/01-reentrancy-vault/contracts/vulnerable/VulnerableVault.sol\":448:492  mapping(address => bool) public isDepositing */\n    tag_22:\n      mload(0x40)\n      dup1\n      swap2\n      sub\n      swap1\n      return\n        /* \"projects/01-reentrancy-vault/contracts/vulnerable/VulnerableVault.sol\":399:442  mapping(address => uint256) public balances */\n    tag_4:\n      callvalue\n      dup1\n      iszero\n      tag_24\n      jumpi\n      0x00\n      dup1\n      revert\n    tag_24:\n      pop\n      tag_25\n      tag_26\n      calldatasize\n      0x04\n      tag_20\n      jump\t// in\n    tag_26:\n      0x00\n      0x20\n      dup2\n      swap1\n      mstore\n      swap1\n      dup2\n      mstore\n      0x40\n      swap1\n      keccak256\n      sload\n      dup2\n      jump\n    tag_25:\n      mload(0x40)\n        /* \"#utility.yul\":422:447   */\n      swap1\n      dup2\n      mstore\n        /* \"#utility.yul\":410:412   */\n      0x20\n        /* \"#utility.yul\":395:413   */\n      add\n        /* \"projects/01-reentrancy-vault/contracts/vulnerable/VulnerableVault.sol\":399:442  mapping(address => uint256) public balances */\n      tag_22\n        /* \"#utility.yul\":276:453   */\n      jump\n        /* \"projects/01-reentrancy-vault/contracts/vulnerable/VulnerableVault.sol\":759:1232  function withdraw(uint256 amount) external {... */\n    tag_5:\n      callvalue\n      dup1\n      iszero\n      tag_29\n      jumpi\n      0x00\n      dup1\n      revert\n    tag_29:\n      pop\n      tag_30\n      tag_31\n      calldatasize\n      0x04\n      tag_32\n      jump\t// in\n    tag_31:\n      tag_33\n      jump\t// in\n    tag_30:\n      stop\n        /* \"projects/01-reentrancy-vault/contracts/vulnerable/VulnerableVault.sol\":2671:2778  function getContractBalance() external view returns (uint256) {... */\n    tag_6:\n      callvalue\n      dup1\n      iszero\n      tag_34\n      jumpi\n      0x00\n      dup1\n      revert\n    tag_34:\n      pop\n        /* \"projects/01-reentrancy-vault/contracts/vulnerable/VulnerableVault.sol\":2750:2771  address(this).balance */\n      selfbalance\n        /* \"projects/01-reentrancy-vault/contracts/vulnerable/VulnerableVault.sol\":2671:2778  function getContractBalance() external view returns (uint256) {... */\n      jump(tag_25)\n        /* \"projects/01-reentrancy-vault/contracts/vulnerable/VulnerableVault.sol\":1301:1980  function deposit() external payable {... */\n    tag_7:\n      tag_30\n      tag_39\n      jump\t// in\n        /* \"projects/01-reentrancy-vault/contracts/vulnerable/VulnerableVault.sol\":2035:2621  function emergencyWithdraw() external {... */\n    tag_8:\n      callvalue\n      dup1\n      iszero\n      tag_40\n      jumpi\n      0x00\n      dup1\n      revert\n    tag_40:\n      pop\n      tag_30\n      tag_42\n      jump\t// in\n        /* \"projects/01-reentrancy-vault/contracts/vulnerable/VulnerableVault.sol\":2824:2928  function getBalance(address user) external view returns (uint256) {... */\n    tag_9:\n      callvalue\n      dup1\n      iszero\n      tag_43\n      jumpi\n      0x00\n      dup1\n      revert\n    tag_43:\n      pop\n      tag_25\n      tag_45\n      calldatasize\n      0x04\n      tag_20\n      jump\t// in\n    tag_45:\n      sub(shl(0xa0, 0x01), 0x01)\n        /* \"projects/01-reentrancy-vault/contracts/vulnerable/VulnerableVault.sol\":2907:2921  balances[user] */\n      and\n        /* \"projects/01-reentrancy-vault/contracts/vulnerable/VulnerableVault.sol\":2881:2888  uint256 */\n      0x00\n        /* \"projects/01-reentrancy-vault/contracts/vulnerable/VulnerableVault.sol\":2907:2921  balances[user] */\n      swap1\n      dup2\n      mstore\n      0x20\n      dup2\n      swap1\n      mstore\n      0x40\n      swap1\n      keccak256\n      sload\n      swap1\n        /* \"projects/01-reentrancy-vault/contracts/vulnerable/VulnerableVault.sol\":2824:2928  function getBalance(address user) external view returns (uint256) {... */\n      jump\n        /* \"projects/01-reentrancy-vault/contracts/vulnerable/VulnerableVault.sol\":759:1232  function withdraw(uint256 amount) external {... */\n    tag_33:\n        /* \"projects/01-reentrancy-vault/contracts/vulnerable/VulnerableVault.sol\":829:839  msg.sender */\n      caller\n        /* \"projects/01-reentrancy-vault/contracts/vulnerable/VulnerableVault.sol\":820:828  balances */\n      0x00\n        /* \"projects/01-reentrancy-vault/contracts/vulnerable/VulnerableVault.sol\":820:840  balances[msg.sender] */\n      swap1\n      dup2\n      mstore\n      0x20\n      dup2\n      swap1\n      mstore\n      0x40\n      swap1\n      keccak256\n      sload\n        /* \"projects/01-reentrancy-vault/contracts/vulnerable/VulnerableVault.sol\":820:850  balances[msg.sender] >= amount */\n      dup2\n      gt\n      iszero\n        /* \"projects/01-reentrancy-vault/contracts/vulnerable/VulnerableVault.sol\":812:875  require(balances[msg.sender] >= amount, \"Insufficient balance\") */\n      tag_49\n      jumpi\n      mload(0x40)\n      shl(0xe5, 0x461bcd)\n      dup2\n      mstore\n        /* \"#utility.yul\":1328:1330   */\n      0x20\n        /* \"projects/01-reentrancy-vault/contracts/vulnerable/VulnerableVault.sol\":812:875  require(balances[msg.sender] >= amount, \"Insufficient balance\") */\n      0x04\n      dup3\n      add\n        /* \"#utility.yul\":1310:1331   */\n      mstore\n        /* \"#utility.yul\":1367:1369   */\n      0x14\n        /* \"#utility.yul\":1347:1365   */\n      0x24\n      dup3\n      add\n        /* \"#utility.yul\":1340:1370   */\n      mstore\n      shl(0x60, 0x496e73756666696369656e742062616c616e6365)\n        /* \"#utility.yul\":1386:1404   */\n      0x44\n      dup3\n      add\n        /* \"#utility.yul\":1379:1429   */\n      mstore\n        /* \"#utility.yul\":1446:1464   */\n      0x64\n      add\n        /* \"projects/01-reentrancy-vault/contracts/vulnerable/VulnerableVault.sol\":812:875  require(balances[msg.sender] >= amount, \"Insufficient balance\") */\n    tag_50:\n      mload(0x40)\n      dup1\n      swap2\n      sub\n      swap1\n      revert\n    tag_49:\n        /* \"projects/01-reentrancy-vault/contracts/vulnerable/VulnerableVault.sol\":996:1030  msg.sender.call{value: amount}(\"\") */\n      mload(0x40)\n        /* \"projects/01-reentrancy-vault/contracts/vulnerable/VulnerableVault.sol\":978:990  bool success */\n      0x00\n      swap1\n        /* \"projects/01-reentrancy-vault/contracts/vulnerable/VulnerableVault.sol\":996:1006  msg.sender */\n      caller\n      swap1\n        /* \"projects/01-reentrancy-vault/contracts/vulnerable/VulnerableVault.sol\":1019:1025  amount */\n      dup4\n      swap1\n        /* \"projects/01-reentrancy-vault/contracts/vulnerable/VulnerableVault.sol\":978:990  bool success */\n      dup4\n        /* \"projects/01-reentrancy-vault/contracts/vulnerable/VulnerableVault.sol\":996:1030  msg.sender.call{value: amount}(\"\") */\n      dup2\n        /* \"projects/01-reentrancy-vault/contracts/vulnerable/VulnerableVault.sol\":978:990  bool success */\n      dup2\n        /* \"projects/01-reentrancy-vault/contracts/vulnerable/VulnerableVault.sol\":996:1030  msg.sender.call{value: amount}(\"\") */\n      dup2\n        /* \"projects/01-reentrancy-vault/contracts/vulnerable/VulnerableVault.sol\":1019:1025  amount */\n      dup6\n        /* \"projects/01-reentrancy-vault/contracts/vulnerable/VulnerableVault.sol\":996:1006  msg.sender */\n      dup8\n        /* \"projects/01-reentrancy-vault/contracts/vulnerable/VulnerableVault.sol\":996:1030  msg.sender.call{value: amount}(\"\") */\n      gas\n      call\n      swap3\n      pop\n      pop\n      pop\n      returndatasize\n      dup1\n      0x00\n      dup2\n      eq\n      tag_56\n      jumpi\n      mload(0x40)\n      swap2\n      pop\n      and(add(returndatasize, 0x3f), not(0x1f))\n      dup3\n      add\n      0x40\n      mstore\n      returndatasize\n      dup3\n      mstore\n      returndatasize\n      0x00\n      0x20\n      dup5\n      add\n      returndatacopy\n      jump(tag_55)\n    tag_56:\n      0x60\n      swap2\n      pop\n    tag_55:\n      pop\n        /* \"projects/01-reentrancy-vault/contracts/vulnerable/VulnerableVault.sol\":977:1030  (bool success, ) = msg.sender.call{value: amount}(\"\") */\n      pop\n      swap1\n      pop\n        /* \"projects/01-reentrancy-vault/contracts/vulnerable/VulnerableVault.sol\":1048:1055  success */\n      dup1\n        /* \"projects/01-reentrancy-vault/contracts/vulnerable/VulnerableVault.sol\":1040:1075  require(success, \"Transfer failed\") */\n      tag_57\n      jumpi\n      mload(0x40)\n      shl(0xe5, 0x461bcd)\n      dup2\n      mstore\n        /* \"#utility.yul\":1887:1889   */\n      0x20\n        /* \"projects/01-reentrancy-vault/contracts/vulnerable/VulnerableVault.sol\":1040:1075  require(success, \"Transfer failed\") */\n      0x04\n      dup3\n      add\n        /* \"#utility.yul\":1869:1890   */\n      mstore\n        /* \"#utility.yul\":1926:1928   */\n      0x0f\n        /* \"#utility.yul\":1906:1924   */\n      0x24\n      dup3\n      add\n        /* \"#utility.yul\":1899:1929   */\n      mstore\n      shl(0x8a, 0x151c985b9cd9995c8819985a5b1959)\n        /* \"#utility.yul\":1945:1963   */\n      0x44\n      dup3\n      add\n        /* \"#utility.yul\":1938:1983   */\n      mstore\n        /* \"#utility.yul\":2000:2018   */\n      0x64\n      add\n        /* \"projects/01-reentrancy-vault/contracts/vulnerable/VulnerableVault.sol\":1040:1075  require(success, \"Transfer failed\") */\n      tag_50\n        /* \"#utility.yul\":1685:2024   */\n      jump\n        /* \"projects/01-reentrancy-vault/contracts/vulnerable/VulnerableVault.sol\":1040:1075  require(success, \"Transfer failed\") */\n    tag_57:\n        /* \"projects/01-reentrancy-vault/contracts/vulnerable/VulnerableVault.sol\":1152:1162  msg.sender */\n      caller\n        /* \"projects/01-reentrancy-vault/contracts/vulnerable/VulnerableVault.sol\":1143:1151  balances */\n      0x00\n        /* \"projects/01-reentrancy-vault/contracts/vulnerable/VulnerableVault.sol\":1143:1163  balances[msg.sender] */\n      swap1\n      dup2\n      mstore\n      0x20\n      dup2\n      swap1\n      mstore\n      0x40\n      dup2\n      keccak256\n        /* \"projects/01-reentrancy-vault/contracts/vulnerable/VulnerableVault.sol\":1143:1173  balances[msg.sender] -= amount */\n      dup1\n      sload\n        /* \"projects/01-reentrancy-vault/contracts/vulnerable/VulnerableVault.sol\":1167:1173  amount */\n      dup5\n      swap3\n        /* \"projects/01-reentrancy-vault/contracts/vulnerable/VulnerableVault.sol\":1143:1151  balances */\n      swap1\n        /* \"projects/01-reentrancy-vault/contracts/vulnerable/VulnerableVault.sol\":1143:1173  balances[msg.sender] -= amount */\n      tag_60\n      swap1\n        /* \"projects/01-reentrancy-vault/contracts/vulnerable/VulnerableVault.sol\":1167:1173  amount */\n      dup5\n      swap1\n        /* \"projects/01-reentrancy-vault/contracts/vulnerable/VulnerableVault.sol\":1143:1173  balances[msg.sender] -= amount */\n      tag_61\n      jump\t// in\n    tag_60:\n      swap1\n      swap2\n      sstore\n      pop\n      pop\n        /* \"projects/01-reentrancy-vault/contracts/vulnerable/VulnerableVault.sol\":1197:1225  Withdraw(msg.sender, amount) */\n      mload(0x40)\n        /* \"#utility.yul\":422:447   */\n      dup3\n      dup2\n      mstore\n        /* \"projects/01-reentrancy-vault/contracts/vulnerable/VulnerableVault.sol\":1206:1216  msg.sender */\n      caller\n      swap1\n        /* \"projects/01-reentrancy-vault/contracts/vulnerable/VulnerableVault.sol\":1197:1225  Withdraw(msg.sender, amount) */\n      0x884edad9ce6fa2440d8a54cc123490eb96d2768479d49ff9c7366125a9424364\n      swap1\n        /* \"#utility.yul\":410:412   */\n      0x20\n        /* \"#utility.yul\":395:413   */\n      add\n        /* \"projects/01-reentrancy-vault/contracts/vulnerable/VulnerableVault.sol\":1197:1225  Withdraw(msg.sender, amount) */\n    tag_62:\n      mload(0x40)\n      dup1\n      swap2\n      sub\n      swap1\n      log2\n        /* \"projects/01-reentrancy-vault/contracts/vulnerable/VulnerableVault.sol\":802:1232  {... */\n      pop\n        /* \"projects/01-reentrancy-vault/contracts/vulnerable/VulnerableVault.sol\":759:1232  function withdraw(uint256 amount) external {... */\n      pop\n      jump\t// out\n        /* \"projects/01-reentrancy-vault/contracts/vulnerable/VulnerableVault.sol\":1301:1980  function deposit() external payable {... */\n    tag_39:\n        /* \"projects/01-reentrancy-vault/contracts/vulnerable/VulnerableVault.sol\":1367:1368  0 */\n      0x00\n        /* \"projects/01-reentrancy-vault/contracts/vulnerable/VulnerableVault.sol\":1355:1364  msg.value */\n      callvalue\n        /* \"projects/01-reentrancy-vault/contracts/vulnerable/VulnerableVault.sol\":1355:1368  msg.value > 0 */\n      gt\n        /* \"projects/01-reentrancy-vault/contracts/vulnerable/VulnerableVault.sol\":1347:1386  require(msg.value > 0, \"Must send ETH\") */\n      tag_65\n      jumpi\n      mload(0x40)\n      shl(0xe5, 0x461bcd)\n      dup2\n      mstore\n        /* \"#utility.yul\":2364:2366   */\n      0x20\n        /* \"projects/01-reentrancy-vault/contracts/vulnerable/VulnerableVault.sol\":1347:1386  require(msg.value > 0, \"Must send ETH\") */\n      0x04\n      dup3\n      add\n        /* \"#utility.yul\":2346:2367   */\n      mstore\n        /* \"#utility.yul\":2403:2405   */\n      0x0d\n        /* \"#utility.yul\":2383:2401   */\n      0x24\n      dup3\n      add\n        /* \"#utility.yul\":2376:2406   */\n      mstore\n      shl(0x9b, 0x09aeae6e840e6cadcc8408aa89)\n        /* \"#utility.yul\":2422:2440   */\n      0x44\n      dup3\n      add\n        /* \"#utility.yul\":2415:2458   */\n      mstore\n        /* \"#utility.yul\":2475:2493   */\n      0x64\n      add\n        /* \"projects/01-reentrancy-vault/contracts/vulnerable/VulnerableVault.sol\":1347:1386  require(msg.value > 0, \"Must send ETH\") */\n      tag_50\n        /* \"#utility.yul\":2162:2499   */\n      jump\n        /* \"projects/01-reentrancy-vault/contracts/vulnerable/VulnerableVault.sol\":1347:1386  require(msg.value > 0, \"Must send ETH\") */\n    tag_65:\n        /* \"projects/01-reentrancy-vault/contracts/vulnerable/VulnerableVault.sol\":1475:1485  msg.sender */\n      caller\n        /* \"projects/01-reentrancy-vault/contracts/vulnerable/VulnerableVault.sol\":1466:1474  balances */\n      0x00\n        /* \"projects/01-reentrancy-vault/contracts/vulnerable/VulnerableVault.sol\":1466:1486  balances[msg.sender] */\n      swap1\n      dup2\n      mstore\n      0x20\n      dup2\n      swap1\n      mstore\n      0x40\n      dup2\n      keccak256\n        /* \"projects/01-reentrancy-vault/contracts/vulnerable/VulnerableVault.sol\":1466:1499  balances[msg.sender] += msg.value */\n      dup1\n      sload\n        /* \"projects/01-reentrancy-vault/contracts/vulnerable/VulnerableVault.sol\":1490:1499  msg.value */\n      callvalue\n      swap3\n        /* \"projects/01-reentrancy-vault/contracts/vulnerable/VulnerableVault.sol\":1466:1474  balances */\n      swap1\n        /* \"projects/01-reentrancy-vault/contracts/vulnerable/VulnerableVault.sol\":1466:1499  balances[msg.sender] += msg.value */\n      tag_68\n      swap1\n        /* \"projects/01-reentrancy-vault/contracts/vulnerable/VulnerableVault.sol\":1490:1499  msg.value */\n      dup5\n      swap1\n        /* \"projects/01-reentrancy-vault/contracts/vulnerable/VulnerableVault.sol\":1466:1499  balances[msg.sender] += msg.value */\n      tag_14\n      jump\t// in\n    tag_68:\n      swap1\n      swap2\n      sstore\n      pop\n      pop\n        /* \"projects/01-reentrancy-vault/contracts/vulnerable/VulnerableVault.sol\":1522:1532  msg.sender */\n      caller\n        /* \"projects/01-reentrancy-vault/contracts/vulnerable/VulnerableVault.sol\":1509:1533  isDepositing[msg.sender] */\n      0x00\n      swap1\n      dup2\n      mstore\n        /* \"projects/01-reentrancy-vault/contracts/vulnerable/VulnerableVault.sol\":1536:1540  true */\n      0x01\n        /* \"projects/01-reentrancy-vault/contracts/vulnerable/VulnerableVault.sol\":1509:1533  isDepositing[msg.sender] */\n      0x20\n      dup2\n      swap1\n      mstore\n      0x40\n      swap1\n      swap2\n      keccak256\n        /* \"projects/01-reentrancy-vault/contracts/vulnerable/VulnerableVault.sol\":1509:1540  isDepositing[msg.sender] = true */\n      dup1\n      sload\n      not(0xff)\n      and\n      swap1\n      swap2\n      or\n      swap1\n      sstore\n        /* \"projects/01-reentrancy-vault/contracts/vulnerable/VulnerableVault.sol\":1629:1636  1 ether */\n      0x0de0b6b3a7640000\n        /* \"projects/01-reentrancy-vault/contracts/vulnerable/VulnerableVault.sol\":1616:1625  msg.value */\n      callvalue\n        /* \"projects/01-reentrancy-vault/contracts/vulnerable/VulnerableVault.sol\":1616:1636  msg.value >= 1 ether */\n      lt\n        /* \"projects/01-reentrancy-vault/contracts/vulnerable/VulnerableVault.sol\":1612:1878  if (msg.value >= 1 ether) {... */\n      tag_69\n      jumpi\n        /* \"projects/01-reentrancy-vault/contracts/vulnerable/VulnerableVault.sol\":1738:1775  msg.sender.call{value: 0.1 ether}(\"\") */\n      mload(0x40)\n        /* \"projects/01-reentrancy-vault/contracts/vulnerable/VulnerableVault.sol\":1720:1732  bool success */\n      0x00\n      swap1\n        /* \"projects/01-reentrancy-vault/contracts/vulnerable/VulnerableVault.sol\":1738:1748  msg.sender */\n      caller\n      swap1\n        /* \"projects/01-reentrancy-vault/contracts/vulnerable/VulnerableVault.sol\":1761:1770  0.1 ether */\n      0x016345785d8a0000\n      swap1\n        /* \"projects/01-reentrancy-vault/contracts/vulnerable/VulnerableVault.sol\":1720:1732  bool success */\n      dup4\n        /* \"projects/01-reentrancy-vault/contracts/vulnerable/VulnerableVault.sol\":1738:1775  msg.sender.call{value: 0.1 ether}(\"\") */\n      dup2\n        /* \"projects/01-reentrancy-vault/contracts/vulnerable/VulnerableVault.sol\":1720:1732  bool success */\n      dup2\n        /* \"projects/01-reentrancy-vault/contracts/vulnerable/VulnerableVault.sol\":1738:1775  msg.sender.call{value: 0.1 ether}(\"\") */\n      dup2\n        /* \"projects/01-reentrancy-vault/contracts/vulnerable/VulnerableVault.sol\":1761:1770  0.1 ether */\n      dup6\n        /* \"projects/01-reentrancy-vault/contracts/vulnerable/VulnerableVault.sol\":1738:1748  msg.sender */\n      dup8\n        /* \"projects/01-reentrancy-vault/contracts/vulnerable/VulnerableVault.sol\":1738:1775  msg.sender.call{value: 0.1 ether}(\"\") */\n      gas\n      call\n      swap3\n      pop\n      pop\n      pop\n      returndatasize\n      dup1\n      0x00\n      dup2\n      eq\n      tag_73\n      jumpi\n      mload(0x40)\n      swap2\n      pop\n      and(add(returndatasize, 0x3f), not(0x1f))\n      dup3\n      add\n      0x40\n      mstore\n      returndatasize\n      dup3\n      mstore\n      returndatasize\n      0x00\n      0x20\n      dup5\n      add\n      returndatacopy\n      jump(tag_72)\n    tag_73:\n      0x60\n      swap2\n      pop\n    tag_72:\n      pop\n        /* \"projects/01-reentrancy-vault/contracts/vulnerable/VulnerableVault.sol\":1719:1775  (bool success, ) = msg.sender.call{value: 0.1 ether}(\"\") */\n      pop\n      swap1\n      pop\n        /* \"projects/01-reentrancy-vault/contracts/vulnerable/VulnerableVault.sol\":1793:1800  success */\n      dup1\n        /* \"projects/01-reentrancy-vault/contracts/vulnerable/VulnerableVault.sol\":1789:1868  if (success) {... */\n      iszero\n      tag_74\n      jumpi\n        /* \"projects/01-reentrancy-vault/contracts/vulnerable/VulnerableVault.sol\":1829:1839  msg.sender */\n      caller\n        /* \"projects/01-reentrancy-vault/contracts/vulnerable/VulnerableVault.sol\":1820:1828  balances */\n      0x00\n        /* \"projects/01-reentrancy-vault/contracts/vulnerable/VulnerableVault.sol\":1820:1840  balances[msg.sender] */\n      swap1\n      dup2\n      mstore\n      0x20\n      dup2\n      swap1\n      mstore\n      0x40\n      dup2\n      keccak256\n        /* \"projects/01-reentrancy-vault/contracts/vulnerable/VulnerableVault.sol\":1820:1853  balances[msg.sender] += 0.1 ether */\n      dup1\n      sload\n        /* \"projects/01-reentrancy-vault/contracts/vulnerable/VulnerableVault.sol\":1844:1853  0.1 ether */\n      0x016345785d8a0000\n      swap3\n        /* \"projects/01-reentrancy-vault/contracts/vulnerable/VulnerableVault.sol\":1820:1828  balances */\n      swap1\n        /* \"projects/01-reentrancy-vault/contracts/vulnerable/VulnerableVault.sol\":1820:1853  balances[msg.sender] += 0.1 ether */\n      tag_75\n      swap1\n        /* \"projects/01-reentrancy-vault/contracts/vulnerable/VulnerableVault.sol\":1844:1853  0.1 ether */\n      dup5\n      swap1\n        /* \"projects/01-reentrancy-vault/contracts/vulnerable/VulnerableVault.sol\":1820:1853  balances[msg.sender] += 0.1 ether */\n      tag_14\n      jump\t// in\n    tag_75:\n      swap1\n      swap2\n      sstore\n      pop\n      pop\n        /* \"projects/01-reentrancy-vault/contracts/vulnerable/VulnerableVault.sol\":1789:1868  if (success) {... */\n    tag_74:\n        /* \"projects/01-reentrancy-vault/contracts/vulnerable/VulnerableVault.sol\":1638:1878  {... */\n      pop\n        /* \"projects/01-reentrancy-vault/contracts/vulnerable/VulnerableVault.sol\":1612:1878  if (msg.value >= 1 ether) {... */\n    tag_69:\n        /* \"projects/01-reentrancy-vault/contracts/vulnerable/VulnerableVault.sol\":1909:1919  msg.sender */\n      caller\n        /* \"projects/01-reentrancy-vault/contracts/vulnerable/VulnerableVault.sol\":1923:1928  false */\n      0x00\n        /* \"projects/01-reentrancy-vault/contracts/vulnerable/VulnerableVault.sol\":1896:1920  isDepositing[msg.sender] */\n      dup2\n      dup2\n      mstore\n        /* \"projects/01-reentrancy-vault/contracts/vulnerable/VulnerableVault.sol\":1896:1908  isDepositing */\n      0x01\n        /* \"projects/01-reentrancy-vault/contracts/vulnerable/VulnerableVault.sol\":1896:1920  isDepositing[msg.sender] */\n      0x20\n      mstore\n      0x40\n      swap1\n      dup2\n      swap1\n      keccak256\n        /* \"projects/01-reentrancy-vault/contracts/vulnerable/VulnerableVault.sol\":1896:1928  isDepositing[msg.sender] = false */\n      dup1\n      sload\n      not(0xff)\n      and\n      swap1\n      sstore\n        /* \"projects/01-reentrancy-vault/contracts/vulnerable/VulnerableVault.sol\":1943:1973  Deposit(msg.sender, msg.value) */\n      mload\n      0xe1fffcc4923d04b559f4d29a8bfc6cda04eb5b0d3c460751c2402c5c5cc9109c\n      swap1\n      tag_76\n      swap1\n        /* \"projects/01-reentrancy-vault/contracts/vulnerable/VulnerableVault.sol\":1963:1972  msg.value */\n      callvalue\n        /* \"#utility.yul\":422:447   */\n      dup2\n      mstore\n        /* \"#utility.yul\":410:412   */\n      0x20\n        /* \"#utility.yul\":395:413   */\n      add\n      swap1\n        /* \"#utility.yul\":276:453   */\n      jump\n        /* \"projects/01-reentrancy-vault/contracts/vulnerable/VulnerableVault.sol\":1943:1973  Deposit(msg.sender, msg.value) */\n    tag_76:\n      mload(0x40)\n      dup1\n      swap2\n      sub\n      swap1\n      log2\n        /* \"projects/01-reentrancy-vault/contracts/vulnerable/VulnerableVault.sol\":1301:1980  function deposit() external payable {... */\n      jump\t// out\n        /* \"projects/01-reentrancy-vault/contracts/vulnerable/VulnerableVault.sol\":2035:2621  function emergencyWithdraw() external {... */\n    tag_42:\n        /* \"projects/01-reentrancy-vault/contracts/vulnerable/VulnerableVault.sol\":2104:2114  msg.sender */\n      caller\n        /* \"projects/01-reentrancy-vault/contracts/vulnerable/VulnerableVault.sol\":2091:2115  isDepositing[msg.sender] */\n      0x00\n      swap1\n      dup2\n      mstore\n        /* \"projects/01-reentrancy-vault/contracts/vulnerable/VulnerableVault.sol\":2091:2103  isDepositing */\n      0x01\n        /* \"projects/01-reentrancy-vault/contracts/vulnerable/VulnerableVault.sol\":2091:2115  isDepositing[msg.sender] */\n      0x20\n      mstore\n      0x40\n      swap1\n      keccak256\n      sload\n      0xff\n      and\n        /* \"projects/01-reentrancy-vault/contracts/vulnerable/VulnerableVault.sol\":2083:2140  require(isDepositing[msg.sender], \"Not in deposit state\") */\n      tag_78\n      jumpi\n      mload(0x40)\n      shl(0xe5, 0x461bcd)\n      dup2\n      mstore\n        /* \"#utility.yul\":2706:2708   */\n      0x20\n        /* \"projects/01-reentrancy-vault/contracts/vulnerable/VulnerableVault.sol\":2083:2140  require(isDepositing[msg.sender], \"Not in deposit state\") */\n      0x04\n      dup3\n      add\n        /* \"#utility.yul\":2688:2709   */\n      mstore\n        /* \"#utility.yul\":2745:2747   */\n      0x14\n        /* \"#utility.yul\":2725:2743   */\n      0x24\n      dup3\n      add\n        /* \"#utility.yul\":2718:2748   */\n      mstore\n      shl(0x60, 0x4e6f7420696e206465706f736974207374617465)\n        /* \"#utility.yul\":2764:2782   */\n      0x44\n      dup3\n      add\n        /* \"#utility.yul\":2757:2807   */\n      mstore\n        /* \"#utility.yul\":2824:2842   */\n      0x64\n      add\n        /* \"projects/01-reentrancy-vault/contracts/vulnerable/VulnerableVault.sol\":2083:2140  require(isDepositing[msg.sender], \"Not in deposit state\") */\n      tag_50\n        /* \"#utility.yul\":2504:2848   */\n      jump\n        /* \"projects/01-reentrancy-vault/contracts/vulnerable/VulnerableVault.sol\":2083:2140  require(isDepositing[msg.sender], \"Not in deposit state\") */\n    tag_78:\n        /* \"projects/01-reentrancy-vault/contracts/vulnerable/VulnerableVault.sol\":2186:2196  msg.sender */\n      caller\n        /* \"projects/01-reentrancy-vault/contracts/vulnerable/VulnerableVault.sol\":2159:2174  uint256 balance */\n      0x00\n        /* \"projects/01-reentrancy-vault/contracts/vulnerable/VulnerableVault.sol\":2177:2197  balances[msg.sender] */\n      swap1\n      dup2\n      mstore\n      0x20\n      dup2\n      swap1\n      mstore\n      0x40\n      swap1\n      keccak256\n      sload\n        /* \"projects/01-reentrancy-vault/contracts/vulnerable/VulnerableVault.sol\":2215:2226  balance > 0 */\n      dup1\n        /* \"projects/01-reentrancy-vault/contracts/vulnerable/VulnerableVault.sol\":2207:2253  require(balance > 0, \"No balance to withdraw\") */\n      tag_81\n      jumpi\n      mload(0x40)\n      shl(0xe5, 0x461bcd)\n      dup2\n      mstore\n        /* \"#utility.yul\":3055:3057   */\n      0x20\n        /* \"projects/01-reentrancy-vault/contracts/vulnerable/VulnerableVault.sol\":2207:2253  require(balance > 0, \"No balance to withdraw\") */\n      0x04\n      dup3\n      add\n        /* \"#utility.yul\":3037:3058   */\n      mstore\n        /* \"#utility.yul\":3094:3096   */\n      0x16\n        /* \"#utility.yul\":3074:3092   */\n      0x24\n      dup3\n      add\n        /* \"#utility.yul\":3067:3097   */\n      mstore\n      shl(0x50, 0x4e6f2062616c616e636520746f207769746864726177)\n        /* \"#utility.yul\":3113:3131   */\n      0x44\n      dup3\n      add\n        /* \"#utility.yul\":3106:3158   */\n      mstore\n        /* \"#utility.yul\":3175:3193   */\n      0x64\n      add\n        /* \"projects/01-reentrancy-vault/contracts/vulnerable/VulnerableVault.sol\":2207:2253  require(balance > 0, \"No balance to withdraw\") */\n      tag_50\n        /* \"#utility.yul\":2853:3199   */\n      jump\n        /* \"projects/01-reentrancy-vault/contracts/vulnerable/VulnerableVault.sol\":2207:2253  require(balance > 0, \"No balance to withdraw\") */\n    tag_81:\n        /* \"projects/01-reentrancy-vault/contracts/vulnerable/VulnerableVault.sol\":2331:2341  msg.sender */\n      caller\n        /* \"projects/01-reentrancy-vault/contracts/vulnerable/VulnerableVault.sol\":2345:2346  0 */\n      0x00\n        /* \"projects/01-reentrancy-vault/contracts/vulnerable/VulnerableVault.sol\":2322:2342  balances[msg.sender] */\n      dup2\n      dup2\n      mstore\n      0x20\n      dup2\n      dup2\n      mstore\n      0x40\n      dup1\n      dup4\n      keccak256\n        /* \"projects/01-reentrancy-vault/contracts/vulnerable/VulnerableVault.sol\":2322:2346  balances[msg.sender] = 0 */\n      dup4\n      swap1\n      sstore\n        /* \"projects/01-reentrancy-vault/contracts/vulnerable/VulnerableVault.sol\":2356:2368  isDepositing */\n      0x01\n        /* \"projects/01-reentrancy-vault/contracts/vulnerable/VulnerableVault.sol\":2356:2380  isDepositing[msg.sender] */\n      swap1\n      swap2\n      mstore\n      dup1\n      dup3\n      keccak256\n        /* \"projects/01-reentrancy-vault/contracts/vulnerable/VulnerableVault.sol\":2356:2388  isDepositing[msg.sender] = false */\n      dup1\n      sload\n      not(0xff)\n      and\n      swap1\n      sstore\n        /* \"projects/01-reentrancy-vault/contracts/vulnerable/VulnerableVault.sol\":2472:2507  msg.sender.call{value: balance}(\"\") */\n      mload\n        /* \"projects/01-reentrancy-vault/contracts/vulnerable/VulnerableVault.sol\":2345:2346  0 */\n      swap1\n      swap2\n        /* \"projects/01-reentrancy-vault/contracts/vulnerable/VulnerableVault.sol\":2331:2341  msg.sender */\n      swap1\n        /* \"projects/01-reentrancy-vault/contracts/vulnerable/VulnerableVault.sol\":2495:2502  balance */\n      dup4\n      swap1\n        /* \"projects/01-reentrancy-vault/contracts/vulnerable/VulnerableVault.sol\":2345:2346  0 */\n      dup4\n        /* \"projects/01-reentrancy-vault/contracts/vulnerable/VulnerableVault.sol\":2472:2507  msg.sender.call{value: balance}(\"\") */\n      dup2\n        /* \"projects/01-reentrancy-vault/contracts/vulnerable/VulnerableVault.sol\":2345:2346  0 */\n      dup2\n        /* \"projects/01-reentrancy-vault/contracts/vulnerable/VulnerableVault.sol\":2472:2507  msg.sender.call{value: balance}(\"\") */\n      dup2\n        /* \"projects/01-reentrancy-vault/contracts/vulnerable/VulnerableVault.sol\":2495:2502  balance */\n      dup6\n        /* \"projects/01-reentrancy-vault/contracts/vulnerable/VulnerableVault.sol\":2331:2341  msg.sender */\n      dup8\n        /* \"projects/01-reentrancy-vault/contracts/vulnerable/VulnerableVault.sol\":2472:2507  msg.sender.call{value: balance}(\"\") */\n      gas\n      call\n      swap3\n      pop\n      pop\n      pop\n      returndatasize\n      dup1\n      0x00\n      dup2\n      eq\n      tag_87\n      jumpi\n      mload(0x40)\n      swap2\n      pop\n      and(add(returndatasize, 0x3f), not(0x1f))\n      dup3\n      add\n      0x40\n      mstore\n      returndatasize\n      dup3\n      mstore\n      returndatasize\n      0x00\n      0x20\n      dup5\n      add\n      returndatacopy\n      jump(tag_86)\n    tag_87:\n      0x60\n      swap2\n      pop\n    tag_86:\n      pop\n        /* \"projects/01-reentrancy-vault/contracts/vulnerable/VulnerableVault.sol\":2453:2507  (bool success, ) = msg.sender.call{value: balance}(\"\") */\n      pop\n      swap1\n      pop\n        /* \"projects/01-reentrancy-vault/contracts/vulnerable/VulnerableVault.sol\":2525:2532  success */\n      dup1\n        /* \"projects/01-reentrancy-vault/contracts/vulnerable/VulnerableVault.sol\":2517:2552  require(success, \"Transfer failed\") */\n      tag_88\n      jumpi\n      mload(0x40)\n      shl(0xe5, 0x461bcd)\n      dup2\n      mstore\n        /* \"#utility.yul\":1887:1889   */\n      0x20\n        /* \"projects/01-reentrancy-vault/contracts/vulnerable/VulnerableVault.sol\":2517:2552  require(success, \"Transfer failed\") */\n      0x04\n      dup3\n      add\n        /* \"#utility.yul\":1869:1890   */\n      mstore\n        /* \"#utility.yul\":1926:1928   */\n      0x0f\n        /* \"#utility.yul\":1906:1924   */\n      0x24\n      dup3\n      add\n        /* \"#utility.yul\":1899:1929   */\n      mstore\n      shl(0x8a, 0x151c985b9cd9995c8819985a5b1959)\n        /* \"#utility.yul\":1945:1963   */\n      0x44\n      dup3\n      add\n        /* \"#utility.yul\":1938:1983   */\n      mstore\n        /* \"#utility.yul\":2000:2018   */\n      0x64\n      add\n        /* \"projects/01-reentrancy-vault/contracts/vulnerable/VulnerableVault.sol\":2517:2552  require(success, \"Transfer failed\") */\n      tag_50\n        /* \"#utility.yul\":1685:2024   */\n      jump\n        /* \"projects/01-reentrancy-vault/contracts/vulnerable/VulnerableVault.sol\":2517:2552  require(success, \"Transfer failed\") */\n    tag_88:\n        /* \"projects/01-reentrancy-vault/contracts/vulnerable/VulnerableVault.sol\":2576:2614  EmergencyWithdraw(msg.sender, balance) */\n      mload(0x40)\n        /* \"#utility.yul\":422:447   */\n      dup3\n      dup2\n      mstore\n        /* \"projects/01-reentrancy-vault/contracts/vulnerable/VulnerableVault.sol\":2594:2604  msg.sender */\n      caller\n      swap1\n        /* \"projects/01-reentrancy-vault/contracts/vulnerable/VulnerableVault.sol\":2576:2614  EmergencyWithdraw(msg.sender, balance) */\n      0x5fafa99d0643513820be26656b45130b01e1c03062e1266bf36f88cbd3bd9695\n      swap1\n        /* \"#utility.yul\":410:412   */\n      0x20\n        /* \"#utility.yul\":395:413   */\n      add\n        /* \"projects/01-reentrancy-vault/contracts/vulnerable/VulnerableVault.sol\":2576:2614  EmergencyWithdraw(msg.sender, balance) */\n      tag_62\n        /* \"#utility.yul\":276:453   */\n      jump\n        /* \"#utility.yul\":14:141   */\n    tag_92:\n        /* \"#utility.yul\":75:85   */\n      0x4e487b71\n        /* \"#utility.yul\":70:73   */\n      0xe0\n        /* \"#utility.yul\":66:86   */\n      shl\n        /* \"#utility.yul\":63:64   */\n      0x00\n        /* \"#utility.yul\":56:87   */\n      mstore\n        /* \"#utility.yul\":106:110   */\n      0x11\n        /* \"#utility.yul\":103:104   */\n      0x04\n        /* \"#utility.yul\":96:111   */\n      mstore\n        /* \"#utility.yul\":130:134   */\n      0x24\n        /* \"#utility.yul\":127:128   */\n      0x00\n        /* \"#utility.yul\":120:135   */\n      revert\n        /* \"#utility.yul\":146:271   */\n    tag_14:\n        /* \"#utility.yul\":211:220   */\n      dup1\n      dup3\n      add\n        /* \"#utility.yul\":232:242   */\n      dup1\n      dup3\n      gt\n        /* \"#utility.yul\":229:265   */\n      iszero\n      tag_97\n      jumpi\n        /* \"#utility.yul\":245:263   */\n      tag_97\n      tag_92\n      jump\t// in\n    tag_97:\n        /* \"#utility.yul\":146:271   */\n      swap3\n      swap2\n      pop\n      pop\n      jump\t// out\n        /* \"#utility.yul\":458:744   */\n    tag_20:\n        /* \"#utility.yul\":517:523   */\n      0x00\n        /* \"#utility.yul\":570:572   */\n      0x20\n        /* \"#utility.yul\":558:567   */\n      dup3\n        /* \"#utility.yul\":549:556   */\n      dup5\n        /* \"#utility.yul\":545:568   */\n      sub\n        /* \"#utility.yul\":541:573   */\n      slt\n        /* \"#utility.yul\":538:590   */\n      iszero\n      tag_100\n      jumpi\n        /* \"#utility.yul\":586:587   */\n      0x00\n        /* \"#utility.yul\":583:584   */\n      dup1\n        /* \"#utility.yul\":576:588   */\n      revert\n        /* \"#utility.yul\":538:590   */\n    tag_100:\n        /* \"#utility.yul\":612:635   */\n      dup2\n      calldataload\n      sub(shl(0xa0, 0x01), 0x01)\n        /* \"#utility.yul\":664:695   */\n      dup2\n      and\n        /* \"#utility.yul\":654:696   */\n      dup2\n      eq\n        /* \"#utility.yul\":644:714   */\n      tag_101\n      jumpi\n        /* \"#utility.yul\":710:711   */\n      0x00\n        /* \"#utility.yul\":707:708   */\n      dup1\n        /* \"#utility.yul\":700:712   */\n      revert\n        /* \"#utility.yul\":644:714   */\n    tag_101:\n        /* \"#utility.yul\":733:738   */\n      swap4\n        /* \"#utility.yul\":458:744   */\n      swap3\n      pop\n      pop\n      pop\n      jump\t// out\n        /* \"#utility.yul\":941:1121   */\n    tag_32:\n        /* \"#utility.yul\":1000:1006   */\n      0x00\n        /* \"#utility.yul\":1053:1055   */\n      0x20\n        /* \"#utility.yul\":1041:1050   */\n      dup3\n        /* \"#utility.yul\":1032:1039   */\n      dup5\n        /* \"#utility.yul\":1028:1051   */\n      sub\n        /* \"#utility.yul\":1024:1056   */\n      slt\n        /* \"#utility.yul\":1021:1073   */\n      iszero\n      tag_104\n      jumpi\n        /* \"#utility.yul\":1069:1070   */\n      0x00\n        /* \"#utility.yul\":1066:1067   */\n      dup1\n        /* \"#utility.yul\":1059:1071   */\n      revert\n        /* \"#utility.yul\":1021:1073   */\n    tag_104:\n      pop\n        /* \"#utility.yul\":1092:1115   */\n      calldataload\n      swap2\n        /* \"#utility.yul\":941:1121   */\n      swap1\n      pop\n      jump\t// out\n        /* \"#utility.yul\":2029:2157   */\n    tag_61:\n        /* \"#utility.yul\":2096:2105   */\n      dup2\n      dup2\n      sub\n        /* \"#utility.yul\":2117:2128   */\n      dup2\n      dup2\n      gt\n        /* \"#utility.yul\":2114:2151   */\n      iszero\n      tag_97\n      jumpi\n        /* \"#utility.yul\":2131:2149   */\n      tag_97\n      tag_92\n      jump\t// in\n\n    auxdata: 0xa264697066735822122054bf5d68e7dc07c218a196e9b6772b872f397ef24f4c0767fc25278f6f5a9e8e64736f6c63430008130033\n}\n","methodIdentifiers":{"balances(address)":"27e235e3","deposit()":"d0e30db0","emergencyWithdraw()":"db2e21bc","getBalance(address)":"f8b2cb4f","getContractBalance()":"6f9fb98a","isDepositing(address)":"19b02120","withdraw(uint256)":"2e1a7d4d"},"storageLayout":{"storage":[{"astId":40058,"contract":"projects/01-reentrancy-vault/contracts/vulnerable/VulnerableVault.sol:VulnerableVault","label":"balances","offset":0,"slot":"0","type":"t_mapping(t_address,t_uint256)"},{"astId":40062,"contract":"projects/01-reentrancy-vault/contracts/vulnerable/VulnerableVault.sol:VulnerableVault","label":"isDepositing","offset":0,"slot":"1","type":"t_mapping(t_address,t_bool)"}],"types":{"t_address":{"encoding":"inplace","label":"address","numberOfBytes":"20"},"t_bool":{"encoding":"inplace","label":"bool","numberOfBytes":"1"},"t_mapping(t_address,t_bool)":{"encoding":"mapping","key":"t_address","label":"mapping(address => bool)","numberOfBytes":"32","value":"t_bool"},"t_mapping(t_address,t_uint256)":{"encoding":"mapping","key":"t_address","label":"mapping(address => uint256)","numberOfBytes":"32","value":"t_uint256"},"t_uint256":{"encoding":"inplace","label":"uint256","numberOfBytes":"32"}}},"id":21}