{"abi":[{"type":"constructor","inputs":[{"name":"_maxWithdrawal","type":"uint256","internalType":"uint256"},{"name":"_multisigSigners","type":"address[]","internalType":"address[]"}],"stateMutability":"nonpayable"},{"type":"receive","stateMutability":"payable"},{"type":"function","name":"DEFAULT_ADMIN_ROLE","inputs":[],"outputs":[{"name":"","type":"bytes32","internalType":"bytes32"}],"stateMutability":"view"},{"type":"function","name":"GUARDIAN_ROLE","inputs":[],"outputs":[{"name":"","type":"bytes32","internalType":"bytes32"}],"stateMutability":"view"},{"type":"function","name":"MULTISIG_ROLE","inputs":[],"outputs":[{"name":"","type":"bytes32","internalType":"bytes32"}],"stateMutability":"view"},{"type":"function","name":"OPERATOR_ROLE","inputs":[],"outputs":[{"name":"","type":"bytes32","internalType":"bytes32"}],"stateMutability":"view"},{"type":"function","name":"PAUSE_ROLE","inputs":[],"outputs":[{"name":"","type":"bytes32","internalType":"bytes32"}],"stateMutability":"view"},{"type":"function","name":"PROPOSAL_EXPIRY","inputs":[],"outputs":[{"name":"","type":"uint256","internalType":"uint256"}],"stateMutability":"view"},{"type":"function","name":"REQUIRED_SIGNATURES","inputs":[],"outputs":[{"name":"","type":"uint256","internalType":"uint256"}],"stateMutability":"view"},{"type":"function","name":"TIMELOCK_DURATION","inputs":[],"outputs":[{"name":"","type":"uint256","internalType":"uint256"}],"stateMutability":"view"},{"type":"function","name":"WITHDRAW_ROLE","inputs":[],"outputs":[{"name":"","type":"bytes32","internalType":"bytes32"}],"stateMutability":"view"},{"type":"function","name":"approveProposal","inputs":[{"name":"proposalId","type":"uint256","internalType":"uint256"}],"outputs":[],"stateMutability":"nonpayable"},{"type":"function","name":"balances","inputs":[{"name":"","type":"address","internalType":"address"}],"outputs":[{"name":"","type":"uint256","internalType":"uint256"}],"stateMutability":"view"},{"type":"function","name":"cancelProposal","inputs":[{"name":"proposalId","type":"uint256","internalType":"uint256"}],"outputs":[],"stateMutability":"nonpayable"},{"type":"function","name":"createPauseProposal","inputs":[],"outputs":[{"name":"","type":"uint256","internalType":"uint256"}],"stateMutability":"nonpayable"},{"type":"function","name":"createWithdrawProposal","inputs":[{"name":"amount","type":"uint256","internalType":"uint256"}],"outputs":[{"name":"","type":"uint256","internalType":"uint256"}],"stateMutability":"nonpayable"},{"type":"function","name":"deposit","inputs":[],"outputs":[],"stateMutability":"payable"},{"type":"function","name":"emergencyPause","inputs":[],"outputs":[],"stateMutability":"nonpayable"},{"type":"function","name":"emergencyWithdraw","inputs":[],"outputs":[],"stateMutability":"nonpayable"},{"type":"function","name":"executeProposal","inputs":[{"name":"proposalId","type":"uint256","internalType":"uint256"}],"outputs":[],"stateMutability":"nonpayable"},{"type":"function","name":"getApprovalCount","inputs":[{"name":"proposalId","type":"uint256","internalType":"uint256"}],"outputs":[{"name":"","type":"uint256","internalType":"uint256"}],"stateMutability":"view"},{"type":"function","name":"getBalance","inputs":[{"name":"user","type":"address","internalType":"address"}],"outputs":[{"name":"","type":"uint256","internalType":"uint256"}],"stateMutability":"view"},{"type":"function","name":"getContractBalance","inputs":[],"outputs":[{"name":"","type":"uint256","internalType":"uint256"}],"stateMutability":"view"},{"type":"function","name":"getProposal","inputs":[{"name":"proposalId","type":"uint256","internalType":"uint256"}],"outputs":[{"name":"proposer","type":"address","internalType":"address"},{"name":"proposalType","type":"uint8","internalType":"enum MultiSigVault.ProposalType"},{"name":"amount","type":"uint256","internalType":"uint256"},{"name":"target","type":"address","internalType":"address"},{"name":"data","type":"bytes","internalType":"bytes"},{"name":"timestamp","type":"uint256","internalType":"uint256"},{"name":"executed","type":"bool","internalType":"bool"},{"name":"cancelled","type":"bool","internalType":"bool"}],"stateMutability":"view"},{"type":"function","name":"getProposalCount","inputs":[],"outputs":[{"name":"","type":"uint256","internalType":"uint256"}],"stateMutability":"view"},{"type":"function","name":"getRoleAdmin","inputs":[{"name":"role","type":"bytes32","internalType":"bytes32"}],"outputs":[{"name":"","type":"bytes32","internalType":"bytes32"}],"stateMutability":"view"},{"type":"function","name":"grantRole","inputs":[{"name":"role","type":"bytes32","internalType":"bytes32"},{"name":"account","type":"address","internalType":"address"}],"outputs":[],"stateMutability":"nonpayable"},{"type":"function","name":"hasApproved","inputs":[{"name":"proposalId","type":"uint256","internalType":"uint256"},{"name":"approver","type":"address","internalType":"address"}],"outputs":[{"name":"","type":"bool","internalType":"bool"}],"stateMutability":"view"},{"type":"function","name":"hasRole","inputs":[{"name":"role","type":"bytes32","internalType":"bytes32"},{"name":"account","type":"address","internalType":"address"}],"outputs":[{"name":"","type":"bool","internalType":"bool"}],"stateMutability":"view"},{"type":"function","name":"maxWithdrawal","inputs":[],"outputs":[{"name":"","type":"uint256","internalType":"uint256"}],"stateMutability":"view"},{"type":"function","name":"paused","inputs":[],"outputs":[{"name":"","type":"bool","internalType":"bool"}],"stateMutability":"view"},{"type":"function","name":"proposalApprovalCounts","inputs":[{"name":"","type":"uint256","internalType":"uint256"}],"outputs":[{"name":"","type":"uint256","internalType":"uint256"}],"stateMutability":"view"},{"type":"function","name":"proposalApprovals","inputs":[{"name":"","type":"uint256","internalType":"uint256"},{"name":"","type":"address","internalType":"address"}],"outputs":[{"name":"","type":"bool","internalType":"bool"}],"stateMutability":"view"},{"type":"function","name":"proposals","inputs":[{"name":"","type":"uint256","internalType":"uint256"}],"outputs":[{"name":"proposer","type":"address","internalType":"address"},{"name":"proposalType","type":"uint8","internalType":"enum MultiSigVault.ProposalType"},{"name":"amount","type":"uint256","internalType":"uint256"},{"name":"target","type":"address","internalType":"address"},{"name":"data","type":"bytes","internalType":"bytes"},{"name":"timestamp","type":"uint256","internalType":"uint256"},{"name":"executed","type":"bool","internalType":"bool"},{"name":"cancelled","type":"bool","internalType":"bool"}],"stateMutability":"view"},{"type":"function","name":"renounceRole","inputs":[{"name":"role","type":"bytes32","internalType":"bytes32"},{"name":"account","type":"address","internalType":"address"}],"outputs":[],"stateMutability":"nonpayable"},{"type":"function","name":"revokeRole","inputs":[{"name":"role","type":"bytes32","internalType":"bytes32"},{"name":"account","type":"address","internalType":"address"}],"outputs":[],"stateMutability":"nonpayable"},{"type":"function","name":"supportsInterface","inputs":[{"name":"interfaceId","type":"bytes4","internalType":"bytes4"}],"outputs":[{"name":"","type":"bool","internalType":"bool"}],"stateMutability":"view"},{"type":"function","name":"totalFunds","inputs":[],"outputs":[{"name":"","type":"uint256","internalType":"uint256"}],"stateMutability":"view"},{"type":"event","name":"Deposit","inputs":[{"name":"user","type":"address","indexed":true,"internalType":"address"},{"name":"amount","type":"uint256","indexed":false,"internalType":"uint256"}],"anonymous":false},{"type":"event","name":"EmergencyAction","inputs":[{"name":"guardian","type":"address","indexed":true,"internalType":"address"},{"name":"action","type":"string","indexed":false,"internalType":"string"}],"anonymous":false},{"type":"event","name":"Paused","inputs":[{"name":"account","type":"address","indexed":false,"internalType":"address"}],"anonymous":false},{"type":"event","name":"ProposalApproved","inputs":[{"name":"proposalId","type":"uint256","indexed":true,"internalType":"uint256"},{"name":"approver","type":"address","indexed":true,"internalType":"address"}],"anonymous":false},{"type":"event","name":"ProposalCancelled","inputs":[{"name":"proposalId","type":"uint256","indexed":true,"internalType":"uint256"},{"name":"canceller","type":"address","indexed":true,"internalType":"address"}],"anonymous":false},{"type":"event","name":"ProposalCreated","inputs":[{"name":"proposalId","type":"uint256","indexed":true,"internalType":"uint256"},{"name":"proposer","type":"address","indexed":true,"internalType":"address"},{"name":"proposalType","type":"uint8","indexed":false,"internalType":"enum MultiSigVault.ProposalType"}],"anonymous":false},{"type":"event","name":"ProposalExecuted","inputs":[{"name":"proposalId","type":"uint256","indexed":true,"internalType":"uint256"},{"name":"executor","type":"address","indexed":true,"internalType":"address"}],"anonymous":false},{"type":"event","name":"RoleAdminChanged","inputs":[{"name":"role","type":"bytes32","indexed":true,"internalType":"bytes32"},{"name":"previousAdminRole","type":"bytes32","indexed":true,"internalType":"bytes32"},{"name":"newAdminRole","type":"bytes32","indexed":true,"internalType":"bytes32"}],"anonymous":false},{"type":"event","name":"RoleGranted","inputs":[{"name":"role","type":"bytes32","indexed":true,"internalType":"bytes32"},{"name":"account","type":"address","indexed":true,"internalType":"address"},{"name":"sender","type":"address","indexed":true,"internalType":"address"}],"anonymous":false},{"type":"event","name":"RoleRevoked","inputs":[{"name":"role","type":"bytes32","indexed":true,"internalType":"bytes32"},{"name":"account","type":"address","indexed":true,"internalType":"address"},{"name":"sender","type":"address","indexed":true,"internalType":"address"}],"anonymous":false},{"type":"event","name":"Unpaused","inputs":[{"name":"account","type":"address","indexed":false,"internalType":"address"}],"anonymous":false},{"type":"event","name":"Withdraw","inputs":[{"name":"user","type":"address","indexed":true,"internalType":"address"},{"name":"amount","type":"uint256","indexed":false,"internalType":"uint256"}],"anonymous":false}],"bytecode":{"object":"0x608060405234801562000010575f80fd5b506040516200244a3803806200244a833981016040819052620000339162000326565b600180556002805460ff1916815581511015620000975760405162461bcd60e51b815260206004820152601460248201527f496e73756666696369656e74207369676e65727300000000000000000000000060448201526064015b60405180910390fd5b6005829055620000a85f3362000257565b620000d47f5d8e12c39142ff96d79d04d15d1ba1269e4fe57bb9d26f43523628b34ba108ec3362000257565b620001007f139c2898040ef16910dc9f44dc697df79363da767d8bc92f2e310312b816e46d3362000257565b6200012c7f97667070c54ef182b0f5858b034beac1b6f3089aa2d3188bb1e8929f4fa9b9293362000257565b620001587f55435dd261a4b9b3364963f7738a7a662ad9c84396d64be3365284bb7f0a50413362000257565b620001725f805160206200242a8339815191523362000257565b5f5b81518110156200024e575f6001600160a01b03168282815181106200019d576200019d62000401565b60200260200101516001600160a01b031603620001fd5760405162461bcd60e51b815260206004820152601660248201527f496e76616c6964207369676e657220616464726573730000000000000000000060448201526064016200008e565b620002395f805160206200242a83398151915283838151811062000225576200022562000401565b60200260200101516200025760201b60201c565b80620002458162000415565b91505062000174565b5050506200043a565b5f828152602081815260408083206001600160a01b038516845290915290205460ff16620002f2575f828152602081815260408083206001600160a01b03851684529091529020805460ff19166001179055620002b13390565b6001600160a01b0316816001600160a01b0316837f2f8788117e7eff1d82e926ec794901d17c78024a50270940304540a733656f0d60405160405180910390a45b5050565b634e487b7160e01b5f52604160045260245ffd5b80516001600160a01b038116811462000321575f80fd5b919050565b5f806040838503121562000338575f80fd5b8251602080850151919350906001600160401b038082111562000359575f80fd5b818601915086601f8301126200036d575f80fd5b815181811115620003825762000382620002f6565b8060051b604051601f19603f83011681018181108582111715620003aa57620003aa620002f6565b604052918252848201925083810185019189831115620003c8575f80fd5b938501935b82851015620003f157620003e1856200030a565b84529385019392850192620003cd565b8096505050505050509250929050565b634e487b7160e01b5f52603260045260245ffd5b5f600182016200043357634e487b7160e01b5f52601160045260245ffd5b5060010190565b611fe280620004485f395ff3fe60806040526004361061020a575f3560e01c80638a14e3d011610113578063c7f758a81161009d578063e02023a11161006d578063e02023a114610618578063e0a8f6f51461064b578063e328400c1461066a578063f5b541a61461068a578063f8b2cb4f146106bd575f80fd5b8063c7f758a8146105be578063d0e30db0146105dd578063d547741f146105e5578063db2e21bc14610604575f80fd5b806398951b56116100e357806398951b56146105395780639ac18b1914610558578063a217fddf1461056c578063ba7e7cab1461057f578063c08cc02d146105aa575f80fd5b80638a14e3d0146104da5780638c0ff5b7146104f057806391d1485414610505578063968ed60014610524575f80fd5b80632f2ff15d116101945780634733c271116101645780634733c2711461044557806351858e271461047e5780635c975abb146104925780636f9fb98a146104a957806373febf67146104bb575f80fd5b80632f2ff15d146103be57806336568abe146103dd578063389ed267146103fc5780634623c81e1461042f575f80fd5b80630d61b519116101da5780630d61b519146102cd5780632358d5a8146102ee578063248a9ca31461033257806324ea54f41461036057806327e235e314610393575f80fd5b8063013cf08b1461021557806301ffc9a714610251578063037aadad146102805780630c0eb384146102b9575f80fd5b3661021157005b5f80fd5b348015610220575f80fd5b5061023461022f366004611b5f565b6106f1565b604051610248989796959493929190611bf7565b60405180910390f35b34801561025c575f80fd5b5061027061026b366004611c5b565b6107d0565b6040519015158152602001610248565b34801561028b575f80fd5b506102ab61029a366004611b5f565b60096020525f908152604090205481565b604051908152602001610248565b3480156102c4575f80fd5b506102ab6107e0565b3480156102d8575f80fd5b506102ec6102e7366004611b5f565b61097a565b005b3480156102f9575f80fd5b50610270610308366004611c9d565b5f9182526008602090815260408084206001600160a01b0393909316845291905290205460ff1690565b34801561033d575f80fd5b506102ab61034c366004611b5f565b5f9081526020819052604090206001015490565b34801561036b575f80fd5b506102ab7f55435dd261a4b9b3364963f7738a7a662ad9c84396d64be3365284bb7f0a504181565b34801561039e575f80fd5b506102ab6103ad366004611cc7565b60036020525f908152604090205481565b3480156103c9575f80fd5b506102ec6103d8366004611c9d565b610c0e565b3480156103e8575f80fd5b506102ec6103f7366004611c9d565b610c37565b348015610407575f80fd5b506102ab7f139c2898040ef16910dc9f44dc697df79363da767d8bc92f2e310312b816e46d81565b34801561043a575f80fd5b506102ab6201518081565b348015610450575f80fd5b5061027061045f366004611c9d565b600860209081525f928352604080842090915290825290205460ff1681565b348015610489575f80fd5b506102ec610cb5565b34801561049d575f80fd5b5060025460ff16610270565b3480156104b4575f80fd5b50476102ab565b3480156104c6575f80fd5b506102ab6104d5366004611b5f565b610d5b565b3480156104e5575f80fd5b506102ab62093a8081565b3480156104fb575f80fd5b506102ab60055481565b348015610510575f80fd5b5061027061051f366004611c9d565b610fe6565b34801561052f575f80fd5b506102ab60045481565b348015610544575f80fd5b506102ec610553366004611b5f565b61100e565b348015610563575f80fd5b506102ab600281565b348015610577575f80fd5b506102ab5f81565b34801561058a575f80fd5b506102ab610599366004611b5f565b5f9081526009602052604090205490565b3480156105b5575f80fd5b506102ab611217565b3480156105c9575f80fd5b506102346105d8366004611b5f565b611226565b6102ec611334565b3480156105f0575f80fd5b506102ec6105ff366004611c9d565b6113fd565b34801561060f575f80fd5b506102ec611421565b348015610623575f80fd5b506102ab7f5d8e12c39142ff96d79d04d15d1ba1269e4fe57bb9d26f43523628b34ba108ec81565b348015610656575f80fd5b506102ec610665366004611b5f565b611591565b348015610675575f80fd5b506102ab5f80516020611f8d83398151915281565b348015610695575f80fd5b506102ab7f97667070c54ef182b0f5858b034beac1b6f3089aa2d3188bb1e8929f4fa9b92981565b3480156106c8575f80fd5b506102ab6106d7366004611cc7565b6001600160a01b03165f9081526003602052604090205490565b60076020525f908152604090208054600182015460028301546003840180546001600160a01b0380861696600160a01b90960460ff1695931692919061073690611ce0565b80601f016020809104026020016040519081016040528092919081815260200182805461076290611ce0565b80156107ad5780601f10610784576101008083540402835291602001916107ad565b820191905f5260205f20905b81548152906001019060200180831161079057829003601f168201915b50505050600483015460059093015491929160ff80821692506101009091041688565b5f6107da826116b7565b92915050565b5f5f80516020611f8d8339815191526107f8816116eb565b610806600680546001019055565b5f61081060065490565b60408051610100810190915233815290915060208101600181525f6020808301829052604080840183905280518083018252838152606085015242608085015260a0840183905260c090930182905284825260078152919020825181546001600160a01b03919091166001600160a01b031982168117835592840151919283916001600160a81b03191617600160a01b8360048111156108b2576108b2611b76565b02179055506040820151600182015560608201516002820180546001600160a01b0319166001600160a01b03909216919091179055608082015160038201906108fb9082611d73565b5060a0820151600482015560c08201516005909101805460e09093015115156101000261ff00199215159290921661ffff1990931692909217179055604051339082907f876b000c101c27e7aaff6a3254ea503d0e9bf516112d43803bd82989b13552359061096c90600190611e2f565b60405180910390a391505090565b5f80516020611f8d833981519152610991816116eb565b5f82815260076020526040902080546001600160a01b03166109f45760405162461bcd60e51b8152602060048201526017602482015276141c9bdc1bdcd85b08191bd95cc81b9bdd08195e1a5cdd604a1b60448201526064015b60405180910390fd5b600581015460ff1615610a195760405162461bcd60e51b81526004016109eb90611e3d565b6005810154610100900460ff1615610a685760405162461bcd60e51b8152602060048201526012602482015271141c9bdc1bdcd85b0818d85b98d95b1b195960721b60448201526064016109eb565b5f8381526009602052604090205460021115610abf5760405162461bcd60e51b8152602060048201526016602482015275496e73756666696369656e7420617070726f76616c7360501b60448201526064016109eb565b620151808160040154610ad29190611e88565b421015610b185760405162461bcd60e51b8152602060048201526014602482015273151a5b595b1bd8dac81b9bdd08195e1c1a5c995960621b60448201526064016109eb565b62093a808160040154610b2b9190611e88565b421115610b6d5760405162461bcd60e51b815260206004820152601060248201526f141c9bdc1bdcd85b08195e1c1a5c995960821b60448201526064016109eb565b60058101805460ff191660011790555f8154600160a01b900460ff166004811115610b9a57610b9a611b76565b03610bb157610bac81600101546116f8565b610bdd565b60018154600160a01b900460ff166004811115610bd057610bd0611b76565b03610bdd57610bdd6117ce565b604051339084907f9c85b616f29fca57a17eafe71cf9ff82ffef41766e2cf01ea7f8f7878dd3ec24905f90a3505050565b5f82815260208190526040902060010154610c28816116eb565b610c328383611828565b505050565b6001600160a01b0381163314610ca75760405162461bcd60e51b815260206004820152602f60248201527f416363657373436f6e74726f6c3a2063616e206f6e6c792072656e6f756e636560448201526e103937b632b9903337b91039b2b63360891b60648201526084016109eb565b610cb182826118ab565b5050565b7f55435dd261a4b9b3364963f7738a7a662ad9c84396d64be3365284bb7f0a5041610cdf816116eb565b610ce76117ce565b336001600160a01b03167fadd39274de8dd8b809f76ff95f1489f4d93c1ae807bcb035ab8cee8d68a1af1b604051610d509060208082526019908201527f456d657267656e63792070617573652061637469766174656400000000000000604082015260600190565b60405180910390a250565b5f5f80516020611f8d833981519152610d73816116eb565b5f8311610dc25760405162461bcd60e51b815260206004820152601d60248201527f416d6f756e74206d7573742062652067726561746572207468616e203000000060448201526064016109eb565b47831115610e125760405162461bcd60e51b815260206004820152601d60248201527f496e73756666696369656e7420636f6e74726163742062616c616e636500000060448201526064016109eb565b600554831115610e645760405162461bcd60e51b815260206004820152601c60248201527f45786365656473206d6178207769746864726177616c206c696d69740000000060448201526064016109eb565b610e72600680546001019055565b5f610e7c60065490565b60408051610100810182523381525f60208083018281528385018a9052606084018390528451808301865283815260808501524260a085015260c0840183905260e084018390528583526007909152929020815181546001600160a01b031981166001600160a01b039092169182178355935194955091939092909183916001600160a81b03191617600160a01b836004811115610f1c57610f1c611b76565b02179055506040820151600182015560608201516002820180546001600160a01b0319166001600160a01b0390921691909117905560808201516003820190610f659082611d73565b5060a0820151600482015560c08201516005909101805460e09093015115156101000261ff00199215159290921661ffff1990931692909217179055604051339082907f876b000c101c27e7aaff6a3254ea503d0e9bf516112d43803bd82989b135523590610fd5905f90611e2f565b60405180910390a391505b50919050565b5f918252602082815260408084206001600160a01b0393909316845291905290205460ff1690565b5f80516020611f8d833981519152611025816116eb565b5f82815260076020526040902080546001600160a01b03166110835760405162461bcd60e51b8152602060048201526017602482015276141c9bdc1bdcd85b08191bd95cc81b9bdd08195e1a5cdd604a1b60448201526064016109eb565b600581015460ff16156110a85760405162461bcd60e51b81526004016109eb90611e3d565b6005810154610100900460ff16156110f75760405162461bcd60e51b8152602060048201526012602482015271141c9bdc1bdcd85b0818d85b98d95b1b195960721b60448201526064016109eb565b5f83815260086020908152604080832033845290915290205460ff16156111535760405162461bcd60e51b815260206004820152601060248201526f105b1c9958591e48185c1c1c9bdd995960821b60448201526064016109eb565b62093a8081600401546111669190611e88565b4211156111a85760405162461bcd60e51b815260206004820152601060248201526f141c9bdc1bdcd85b08195e1c1a5c995960821b60448201526064016109eb565b5f8381526008602090815260408083203384528252808320805460ff19166001179055858352600990915281208054916111e183611e9b565b9091555050604051339084907f049c28adfe50bcf1b76fd95273b6a24566b9f377e52fddc653c3355248dad07a905f90a3505050565b5f61122160065490565b905090565b5f8181526007602052604081208054600182015460028301546004840154600585015460038601805488978897889760609789978897889795966001600160a01b038087169760ff600160a01b90980488169795909116949093928082169261010090910490911690849061129a90611ce0565b80601f01602080910402602001604051908101604052809291908181526020018280546112c690611ce0565b80156113115780601f106112e857610100808354040283529160200191611311565b820191905f5260205f20905b8154815290600101906020018083116112f457829003601f168201915b505050505093509850985098509850985098509850985050919395975091939597565b61133c61190f565b5f341161138b5760405162461bcd60e51b815260206004820152601d60248201527f416d6f756e74206d7573742062652067726561746572207468616e203000000060448201526064016109eb565b335f90815260036020526040812080543492906113a9908490611e88565b925050819055503460045f8282546113c19190611e88565b909155505060405134815233907fe1fffcc4923d04b559f4d29a8bfc6cda04eb5b0d3c460751c2402c5c5cc9109c9060200160405180910390a2565b5f82815260208190526040902060010154611417816116eb565b610c3283836118ab565b7f55435dd261a4b9b3364963f7738a7a662ad9c84396d64be3365284bb7f0a504161144b816116eb565b47806114905760405162461bcd60e51b81526020600482015260146024820152734e6f2066756e647320746f20776974686472617760601b60448201526064016109eb565b5f6004819055604051339083908381818185875af1925050503d805f81146114d3576040519150601f19603f3d011682016040523d82523d5f602084013e6114d8565b606091505b505090508061151b5760405162461bcd60e51b815260206004820152600f60248201526e151c985b9cd9995c8819985a5b1959608a1b60448201526064016109eb565b336001600160a01b03167fadd39274de8dd8b809f76ff95f1489f4d93c1ae807bcb035ab8cee8d68a1af1b604051611584906020808252601d908201527f456d657267656e6379207769746864726177616c206578656375746564000000604082015260600190565b60405180910390a2505050565b5f81815260076020526040902080546001600160a01b031633146115f75760405162461bcd60e51b815260206004820152601860248201527f4f6e6c792070726f706f7365722063616e2063616e63656c000000000000000060448201526064016109eb565b600581015460ff161561161c5760405162461bcd60e51b81526004016109eb90611e3d565b6005810154610100900460ff16156116765760405162461bcd60e51b815260206004820152601a60248201527f50726f706f73616c20616c72656164792063616e63656c6c656400000000000060448201526064016109eb565b60058101805461ff001916610100179055604051339083907f74c34a008ce735d9fcf0bd03a9b238d212ad4c441c020661f4ffbb6442645b85905f90a35050565b5f6001600160e01b03198216637965db0b60e01b14806107da57506301ffc9a760e01b6001600160e01b03198316146107da565b6116f58133611957565b50565b8060045f8282546117099190611eb3565b90915550506040515f90339083908381818185875af1925050503d805f811461174d576040519150601f19603f3d011682016040523d82523d5f602084013e611752565b606091505b50509050806117955760405162461bcd60e51b815260206004820152600f60248201526e151c985b9cd9995c8819985a5b1959608a1b60448201526064016109eb565b60405182815233907f884edad9ce6fa2440d8a54cc123490eb96d2768479d49ff9c7366125a94243649060200160405180910390a25050565b6117d661190f565b6002805460ff191660011790557f62e78cea01bee320cd4e420270b5ea74000d11b0c9f74754ebdbfc544b05a25861180b3390565b6040516001600160a01b03909116815260200160405180910390a1565b6118328282610fe6565b610cb1575f828152602081815260408083206001600160a01b03851684529091529020805460ff191660011790556118673390565b6001600160a01b0316816001600160a01b0316837f2f8788117e7eff1d82e926ec794901d17c78024a50270940304540a733656f0d60405160405180910390a45050565b6118b58282610fe6565b15610cb1575f828152602081815260408083206001600160a01b0385168085529252808320805460ff1916905551339285917ff6391f5c32d9c69d2a47ea670b442974b53935d1edc7fd64eb21e047a839171b9190a45050565b60025460ff16156119555760405162461bcd60e51b815260206004820152601060248201526f14185d5cd8589b194e881c185d5cd95960821b60448201526064016109eb565b565b6119618282610fe6565b610cb15761196e816119b0565b6119798360206119c2565b60405160200161198a929190611ec6565b60408051601f198184030181529082905262461bcd60e51b82526109eb91600401611f3a565b60606107da6001600160a01b03831660145b60605f6119d0836002611f4c565b6119db906002611e88565b67ffffffffffffffff8111156119f3576119f3611d12565b6040519080825280601f01601f191660200182016040528015611a1d576020820181803683370190505b509050600360fc1b815f81518110611a3757611a37611f63565b60200101906001600160f81b03191690815f1a905350600f60fb1b81600181518110611a6557611a65611f63565b60200101906001600160f81b03191690815f1a9053505f611a87846002611f4c565b611a92906001611e88565b90505b6001811115611b09576f181899199a1a9b1b9c1cb0b131b232b360811b85600f1660108110611ac657611ac6611f63565b1a60f81b828281518110611adc57611adc611f63565b60200101906001600160f81b03191690815f1a90535060049490941c93611b0281611f77565b9050611a95565b508315611b585760405162461bcd60e51b815260206004820181905260248201527f537472696e67733a20686578206c656e67746820696e73756666696369656e7460448201526064016109eb565b9392505050565b5f60208284031215611b6f575f80fd5b5035919050565b634e487b7160e01b5f52602160045260245ffd5b60058110611ba657634e487b7160e01b5f52602160045260245ffd5b9052565b5f5b83811015611bc4578181015183820152602001611bac565b50505f910152565b5f8151808452611be3816020860160208601611baa565b601f01601f19169290920160200192915050565b6001600160a01b0389811682525f9061010090611c17602085018c611b8a565b896040850152808916606085015250806080840152611c3881840188611bcc565b60a0840196909652505091151560c0830152151560e09091015295945050505050565b5f60208284031215611c6b575f80fd5b81356001600160e01b031981168114611b58575f80fd5b80356001600160a01b0381168114611c98575f80fd5b919050565b5f8060408385031215611cae575f80fd5b82359150611cbe60208401611c82565b90509250929050565b5f60208284031215611cd7575f80fd5b611b5882611c82565b600181811c90821680611cf457607f821691505b602082108103610fe057634e487b7160e01b5f52602260045260245ffd5b634e487b7160e01b5f52604160045260245ffd5b601f821115610c32575f81815260208120601f850160051c81016020861015611d4c5750805b601f850160051c820191505b81811015611d6b57828155600101611d58565b505050505050565b815167ffffffffffffffff811115611d8d57611d8d611d12565b611da181611d9b8454611ce0565b84611d26565b602080601f831160018114611dd4575f8415611dbd5750858301515b5f19600386901b1c1916600185901b178555611d6b565b5f85815260208120601f198616915b82811015611e0257888601518255948401946001909101908401611de3565b5085821015611e1f57878501515f19600388901b60f8161c191681555b5050505050600190811b01905550565b602081016107da8284611b8a565b60208082526019908201527f50726f706f73616c20616c726561647920657865637574656400000000000000604082015260600190565b634e487b7160e01b5f52601160045260245ffd5b808201808211156107da576107da611e74565b5f60018201611eac57611eac611e74565b5060010190565b818103818111156107da576107da611e74565b7f416363657373436f6e74726f6c3a206163636f756e742000000000000000000081525f8351611efd816017850160208801611baa565b7001034b99036b4b9b9b4b733903937b6329607d1b6017918401918201528351611f2e816028840160208801611baa565b01602801949350505050565b602081525f611b586020830184611bcc565b80820281158282048414176107da576107da611e74565b634e487b7160e01b5f52603260045260245ffd5b5f81611f8557611f85611e74565b505f19019056fea5a0b70b385ff7611cd3840916bd08b10829e5bf9e6637cf79dd9a427fc0e2aba2646970667358221220d77256ea1734f3e37f845872717e2713983d138e0d711e9f5ea18744f890201b64736f6c63430008140033a5a0b70b385ff7611cd3840916bd08b10829e5bf9e6637cf79dd9a427fc0e2ab","linkReferences":{}},"assembly":"    /* \"projects/02-access-control/contracts/04-multisig/MultiSigVault.sol\":956:11990  contract MultiSigVault is AccessControl, ReentrancyGuard, Pausable {... */\n  mstore(0x40, 0x80)\n    /* \"projects/02-access-control/contracts/04-multisig/MultiSigVault.sol\":3202:4082  constructor(uint256 _maxWithdrawal, address[] memory _multisigSigners) {... */\n  callvalue\n  dup1\n  iszero\n  tag_1\n  jumpi\n  0x00\n  dup1\n  revert\ntag_1:\n  pop\n  mload(0x40)\n  sub(codesize, bytecodeSize)\n  dup1\n  bytecodeSize\n  dup4\n  codecopy\n  dup2\n  add\n  0x40\n  dup2\n  swap1\n  mstore\n  tag_2\n  swap2\n  tag_3\n  jump\t// in\ntag_2:\n    /* \"lib/openzeppelin-contracts/contracts/security/ReentrancyGuard.sol\":1716:1717  1 */\n  0x01\n    /* \"lib/openzeppelin-contracts/contracts/security/ReentrancyGuard.sol\":1821:1843  _status = _NOT_ENTERED */\n  dup1\n  sstore\n    /* \"lib/openzeppelin-contracts/contracts/security/Pausable.sol\":996:1003  _paused */\n  0x02\n    /* \"lib/openzeppelin-contracts/contracts/security/Pausable.sol\":996:1011  _paused = false */\n  dup1\n  sload\n  not(0xff)\n  and\n  dup2\n  sstore\n    /* \"projects/02-access-control/contracts/04-multisig/MultiSigVault.sol\":3291:3314  _multisigSigners.length */\n  dup2\n  mload\n    /* \"projects/02-access-control/contracts/04-multisig/MultiSigVault.sol\":3291:3337  _multisigSigners.length >= REQUIRED_SIGNATURES */\n  lt\n  iszero\n    /* \"projects/02-access-control/contracts/04-multisig/MultiSigVault.sol\":3283:3362  require(_multisigSigners.length >= REQUIRED_SIGNATURES, \"Insufficient signers\") */\n  tag_10\n  jumpi\n  mload(0x40)\n  shl(0xe5, 0x461bcd)\n  dup2\n  mstore\n    /* \"#utility.yul\":1725:1727   */\n  0x20\n    /* \"projects/02-access-control/contracts/04-multisig/MultiSigVault.sol\":3283:3362  require(_multisigSigners.length >= REQUIRED_SIGNATURES, \"Insufficient signers\") */\n  0x04\n  dup3\n  add\n    /* \"#utility.yul\":1707:1728   */\n  mstore\n    /* \"#utility.yul\":1764:1766   */\n  0x14\n    /* \"#utility.yul\":1744:1762   */\n  0x24\n  dup3\n  add\n    /* \"#utility.yul\":1737:1767   */\n  mstore\n    /* \"#utility.yul\":1803:1825   */\n  0x496e73756666696369656e74207369676e657273000000000000000000000000\n    /* \"#utility.yul\":1783:1801   */\n  0x44\n  dup3\n  add\n    /* \"#utility.yul\":1776:1826   */\n  mstore\n    /* \"#utility.yul\":1843:1861   */\n  0x64\n  add\n    /* \"projects/02-access-control/contracts/04-multisig/MultiSigVault.sol\":3283:3362  require(_multisigSigners.length >= REQUIRED_SIGNATURES, \"Insufficient signers\") */\ntag_11:\n  mload(0x40)\n  dup1\n  swap2\n  sub\n  swap1\n  revert\ntag_10:\n    /* \"projects/02-access-control/contracts/04-multisig/MultiSigVault.sol\":3372:3385  maxWithdrawal */\n  0x05\n    /* \"projects/02-access-control/contracts/04-multisig/MultiSigVault.sol\":3372:3402  maxWithdrawal = _maxWithdrawal */\n  dup3\n  swap1\n  sstore\n    /* \"projects/02-access-control/contracts/04-multisig/MultiSigVault.sol\":3478:3520  _grantRole(DEFAULT_ADMIN_ROLE, msg.sender) */\n  tag_13\n    /* \"lib/openzeppelin-contracts/contracts/access/AccessControl.sol\":2198:2202  0x00 */\n  0x00\n    /* \"projects/02-access-control/contracts/04-multisig/MultiSigVault.sol\":3509:3519  msg.sender */\n  caller\n    /* \"projects/02-access-control/contracts/04-multisig/MultiSigVault.sol\":3478:3488  _grantRole */\n  tag_14\n    /* \"projects/02-access-control/contracts/04-multisig/MultiSigVault.sol\":3478:3520  _grantRole(DEFAULT_ADMIN_ROLE, msg.sender) */\n  jump\t// in\ntag_13:\n    /* \"projects/02-access-control/contracts/04-multisig/MultiSigVault.sol\":3582:3619  _grantRole(WITHDRAW_ROLE, msg.sender) */\n  tag_15\n    /* \"projects/02-access-control/contracts/04-multisig/MultiSigVault.sol\":1139:1165  keccak256(\"WITHDRAW_ROLE\") */\n  0x5d8e12c39142ff96d79d04d15d1ba1269e4fe57bb9d26f43523628b34ba108ec\n    /* \"projects/02-access-control/contracts/04-multisig/MultiSigVault.sol\":3608:3618  msg.sender */\n  caller\n    /* \"projects/02-access-control/contracts/04-multisig/MultiSigVault.sol\":3582:3592  _grantRole */\n  tag_14\n    /* \"projects/02-access-control/contracts/04-multisig/MultiSigVault.sol\":3582:3619  _grantRole(WITHDRAW_ROLE, msg.sender) */\n  jump\t// in\ntag_15:\n    /* \"projects/02-access-control/contracts/04-multisig/MultiSigVault.sol\":3629:3663  _grantRole(PAUSE_ROLE, msg.sender) */\n  tag_16\n    /* \"projects/02-access-control/contracts/04-multisig/MultiSigVault.sol\":1208:1231  keccak256(\"PAUSE_ROLE\") */\n  0x139c2898040ef16910dc9f44dc697df79363da767d8bc92f2e310312b816e46d\n    /* \"projects/02-access-control/contracts/04-multisig/MultiSigVault.sol\":3652:3662  msg.sender */\n  caller\n    /* \"projects/02-access-control/contracts/04-multisig/MultiSigVault.sol\":3629:3639  _grantRole */\n  tag_14\n    /* \"projects/02-access-control/contracts/04-multisig/MultiSigVault.sol\":3629:3663  _grantRole(PAUSE_ROLE, msg.sender) */\n  jump\t// in\ntag_16:\n    /* \"projects/02-access-control/contracts/04-multisig/MultiSigVault.sol\":3673:3710  _grantRole(OPERATOR_ROLE, msg.sender) */\n  tag_17\n    /* \"projects/02-access-control/contracts/04-multisig/MultiSigVault.sol\":1277:1303  keccak256(\"OPERATOR_ROLE\") */\n  0x97667070c54ef182b0f5858b034beac1b6f3089aa2d3188bb1e8929f4fa9b929\n    /* \"projects/02-access-control/contracts/04-multisig/MultiSigVault.sol\":3699:3709  msg.sender */\n  caller\n    /* \"projects/02-access-control/contracts/04-multisig/MultiSigVault.sol\":3673:3683  _grantRole */\n  tag_14\n    /* \"projects/02-access-control/contracts/04-multisig/MultiSigVault.sol\":3673:3710  _grantRole(OPERATOR_ROLE, msg.sender) */\n  jump\t// in\ntag_17:\n    /* \"projects/02-access-control/contracts/04-multisig/MultiSigVault.sol\":3720:3757  _grantRole(GUARDIAN_ROLE, msg.sender) */\n  tag_18\n    /* \"projects/02-access-control/contracts/04-multisig/MultiSigVault.sol\":1349:1375  keccak256(\"GUARDIAN_ROLE\") */\n  0x55435dd261a4b9b3364963f7738a7a662ad9c84396d64be3365284bb7f0a5041\n    /* \"projects/02-access-control/contracts/04-multisig/MultiSigVault.sol\":3746:3756  msg.sender */\n  caller\n    /* \"projects/02-access-control/contracts/04-multisig/MultiSigVault.sol\":3720:3730  _grantRole */\n  tag_14\n    /* \"projects/02-access-control/contracts/04-multisig/MultiSigVault.sol\":3720:3757  _grantRole(GUARDIAN_ROLE, msg.sender) */\n  jump\t// in\ntag_18:\n    /* \"projects/02-access-control/contracts/04-multisig/MultiSigVault.sol\":3767:3804  _grantRole(MULTISIG_ROLE, msg.sender) */\n  tag_19\n  0x00\n  dup1\n  mload\n  0x20\n  data_3f8eb866d258fc640a3f5774e37f33eaf684db99cbe43c28d82b47ac7b936104\n  dup4\n  codecopy\n  dup2\n  mload\n  swap2\n  mstore\n    /* \"projects/02-access-control/contracts/04-multisig/MultiSigVault.sol\":3793:3803  msg.sender */\n  caller\n    /* \"projects/02-access-control/contracts/04-multisig/MultiSigVault.sol\":3767:3777  _grantRole */\n  tag_14\n    /* \"projects/02-access-control/contracts/04-multisig/MultiSigVault.sol\":3767:3804  _grantRole(MULTISIG_ROLE, msg.sender) */\n  jump\t// in\ntag_19:\n    /* \"projects/02-access-control/contracts/04-multisig/MultiSigVault.sol\":3874:3883  uint256 i */\n  0x00\n    /* \"projects/02-access-control/contracts/04-multisig/MultiSigVault.sol\":3869:4076  for (uint256 i = 0; i < _multisigSigners.length; i++) {... */\ntag_20:\n    /* \"projects/02-access-control/contracts/04-multisig/MultiSigVault.sol\":3893:3909  _multisigSigners */\n  dup2\n    /* \"projects/02-access-control/contracts/04-multisig/MultiSigVault.sol\":3893:3916  _multisigSigners.length */\n  mload\n    /* \"projects/02-access-control/contracts/04-multisig/MultiSigVault.sol\":3889:3890  i */\n  dup2\n    /* \"projects/02-access-control/contracts/04-multisig/MultiSigVault.sol\":3889:3916  i < _multisigSigners.length */\n  lt\n    /* \"projects/02-access-control/contracts/04-multisig/MultiSigVault.sol\":3869:4076  for (uint256 i = 0; i < _multisigSigners.length; i++) {... */\n  iszero\n  tag_21\n  jumpi\n    /* \"projects/02-access-control/contracts/04-multisig/MultiSigVault.sol\":3976:3977  0 */\n  0x00\n  sub(shl(0xa0, 0x01), 0x01)\n    /* \"projects/02-access-control/contracts/04-multisig/MultiSigVault.sol\":3945:3978  _multisigSigners[i] != address(0) */\n  and\n    /* \"projects/02-access-control/contracts/04-multisig/MultiSigVault.sol\":3945:3961  _multisigSigners */\n  dup3\n    /* \"projects/02-access-control/contracts/04-multisig/MultiSigVault.sol\":3962:3963  i */\n  dup3\n    /* \"projects/02-access-control/contracts/04-multisig/MultiSigVault.sol\":3945:3964  _multisigSigners[i] */\n  dup2\n  mload\n  dup2\n  lt\n  tag_24\n  jumpi\n  tag_24\n  tag_25\n  jump\t// in\ntag_24:\n  0x20\n  mul\n  0x20\n  add\n  add\n  mload\n  sub(shl(0xa0, 0x01), 0x01)\n    /* \"projects/02-access-control/contracts/04-multisig/MultiSigVault.sol\":3945:3978  _multisigSigners[i] != address(0) */\n  and\n  sub\n    /* \"projects/02-access-control/contracts/04-multisig/MultiSigVault.sol\":3937:4005  require(_multisigSigners[i] != address(0), \"Invalid signer address\") */\n  tag_26\n  jumpi\n  mload(0x40)\n  shl(0xe5, 0x461bcd)\n  dup2\n  mstore\n    /* \"#utility.yul\":2206:2208   */\n  0x20\n    /* \"projects/02-access-control/contracts/04-multisig/MultiSigVault.sol\":3937:4005  require(_multisigSigners[i] != address(0), \"Invalid signer address\") */\n  0x04\n  dup3\n  add\n    /* \"#utility.yul\":2188:2209   */\n  mstore\n    /* \"#utility.yul\":2245:2247   */\n  0x16\n    /* \"#utility.yul\":2225:2243   */\n  0x24\n  dup3\n  add\n    /* \"#utility.yul\":2218:2248   */\n  mstore\n    /* \"#utility.yul\":2284:2308   */\n  0x496e76616c6964207369676e6572206164647265737300000000000000000000\n    /* \"#utility.yul\":2264:2282   */\n  0x44\n  dup3\n  add\n    /* \"#utility.yul\":2257:2309   */\n  mstore\n    /* \"#utility.yul\":2326:2344   */\n  0x64\n  add\n    /* \"projects/02-access-control/contracts/04-multisig/MultiSigVault.sol\":3937:4005  require(_multisigSigners[i] != address(0), \"Invalid signer address\") */\n  tag_11\n    /* \"#utility.yul\":2004:2350   */\n  jump\n    /* \"projects/02-access-control/contracts/04-multisig/MultiSigVault.sol\":3937:4005  require(_multisigSigners[i] != address(0), \"Invalid signer address\") */\ntag_26:\n    /* \"projects/02-access-control/contracts/04-multisig/MultiSigVault.sol\":4019:4065  _grantRole(MULTISIG_ROLE, _multisigSigners[i]) */\n  tag_29\n  0x00\n  dup1\n  mload\n  0x20\n  data_3f8eb866d258fc640a3f5774e37f33eaf684db99cbe43c28d82b47ac7b936104\n  dup4\n  codecopy\n  dup2\n  mload\n  swap2\n  mstore\n    /* \"projects/02-access-control/contracts/04-multisig/MultiSigVault.sol\":4045:4061  _multisigSigners */\n  dup4\n    /* \"projects/02-access-control/contracts/04-multisig/MultiSigVault.sol\":4062:4063  i */\n  dup4\n    /* \"projects/02-access-control/contracts/04-multisig/MultiSigVault.sol\":4045:4064  _multisigSigners[i] */\n  dup2\n  mload\n  dup2\n  lt\n  tag_31\n  jumpi\n  tag_31\n  tag_25\n  jump\t// in\ntag_31:\n  0x20\n  mul\n  0x20\n  add\n  add\n  mload\n    /* \"projects/02-access-control/contracts/04-multisig/MultiSigVault.sol\":4019:4029  _grantRole */\n  shl(0x20, tag_14)\n    /* \"projects/02-access-control/contracts/04-multisig/MultiSigVault.sol\":4019:4065  _grantRole(MULTISIG_ROLE, _multisigSigners[i]) */\n  0x20\n  shr\n  jump\t// in\ntag_29:\n    /* \"projects/02-access-control/contracts/04-multisig/MultiSigVault.sol\":3918:3921  i++ */\n  dup1\n  tag_32\n  dup2\n  tag_33\n  jump\t// in\ntag_32:\n  swap2\n  pop\n  pop\n    /* \"projects/02-access-control/contracts/04-multisig/MultiSigVault.sol\":3869:4076  for (uint256 i = 0; i < _multisigSigners.length; i++) {... */\n  jump(tag_20)\ntag_21:\n  pop\n    /* \"projects/02-access-control/contracts/04-multisig/MultiSigVault.sol\":3202:4082  constructor(uint256 _maxWithdrawal, address[] memory _multisigSigners) {... */\n  pop\n  pop\n    /* \"projects/02-access-control/contracts/04-multisig/MultiSigVault.sol\":956:11990  contract MultiSigVault is AccessControl, ReentrancyGuard, Pausable {... */\n  jump(tag_45)\n    /* \"lib/openzeppelin-contracts/contracts/access/AccessControl.sol\":7587:7820  function _grantRole(bytes32 role, address account) internal virtual {... */\ntag_14:\n    /* \"lib/openzeppelin-contracts/contracts/access/AccessControl.sol\":3107:3111  bool */\n  0x00\n    /* \"lib/openzeppelin-contracts/contracts/access/AccessControl.sol\":3130:3142  _roles[role] */\n  dup3\n  dup2\n  mstore\n  0x20\n  dup2\n  dup2\n  mstore\n  0x40\n  dup1\n  dup4\n  keccak256\n  sub(shl(0xa0, 0x01), 0x01)\n    /* \"lib/openzeppelin-contracts/contracts/access/AccessControl.sol\":3130:3159  _roles[role].members[account] */\n  dup6\n  and\n  dup5\n  mstore\n  swap1\n  swap2\n  mstore\n  swap1\n  keccak256\n  sload\n  0xff\n  and\n    /* \"lib/openzeppelin-contracts/contracts/access/AccessControl.sol\":7665:7814  if (!hasRole(role, account)) {... */\n  tag_38\n  jumpi\n    /* \"lib/openzeppelin-contracts/contracts/access/AccessControl.sol\":7708:7714  _roles */\n  0x00\n    /* \"lib/openzeppelin-contracts/contracts/access/AccessControl.sol\":7708:7720  _roles[role] */\n  dup3\n  dup2\n  mstore\n  0x20\n  dup2\n  dup2\n  mstore\n  0x40\n  dup1\n  dup4\n  keccak256\n  sub(shl(0xa0, 0x01), 0x01)\n    /* \"lib/openzeppelin-contracts/contracts/access/AccessControl.sol\":7708:7737  _roles[role].members[account] */\n  dup6\n  and\n  dup5\n  mstore\n  swap1\n  swap2\n  mstore\n  swap1\n  keccak256\n    /* \"lib/openzeppelin-contracts/contracts/access/AccessControl.sol\":7708:7744  _roles[role].members[account] = true */\n  dup1\n  sload\n  not(0xff)\n  and\n    /* \"lib/openzeppelin-contracts/contracts/access/AccessControl.sol\":7740:7744  true */\n  0x01\n    /* \"lib/openzeppelin-contracts/contracts/access/AccessControl.sol\":7708:7744  _roles[role].members[account] = true */\n  or\n  swap1\n  sstore\n    /* \"lib/openzeppelin-contracts/contracts/access/AccessControl.sol\":7790:7802  _msgSender() */\n  tag_39\n    /* \"lib/openzeppelin-contracts/contracts/utils/Context.sol\":719:729  msg.sender */\n  caller\n  swap1\n    /* \"lib/openzeppelin-contracts/contracts/utils/Context.sol\":640:736  function _msgSender() internal view virtual returns (address) {... */\n  jump\n    /* \"lib/openzeppelin-contracts/contracts/access/AccessControl.sol\":7790:7802  _msgSender() */\ntag_39:\n  sub(shl(0xa0, 0x01), 0x01)\n    /* \"lib/openzeppelin-contracts/contracts/access/AccessControl.sol\":7763:7803  RoleGranted(role, account, _msgSender()) */\n  and\n    /* \"lib/openzeppelin-contracts/contracts/access/AccessControl.sol\":7781:7788  account */\n  dup2\n  sub(shl(0xa0, 0x01), 0x01)\n    /* \"lib/openzeppelin-contracts/contracts/access/AccessControl.sol\":7763:7803  RoleGranted(role, account, _msgSender()) */\n  and\n    /* \"lib/openzeppelin-contracts/contracts/access/AccessControl.sol\":7775:7779  role */\n  dup4\n    /* \"lib/openzeppelin-contracts/contracts/access/AccessControl.sol\":7763:7803  RoleGranted(role, account, _msgSender()) */\n  0x2f8788117e7eff1d82e926ec794901d17c78024a50270940304540a733656f0d\n  mload(0x40)\n  mload(0x40)\n  dup1\n  swap2\n  sub\n  swap1\n  log4\n    /* \"lib/openzeppelin-contracts/contracts/access/AccessControl.sol\":7665:7814  if (!hasRole(role, account)) {... */\ntag_38:\n    /* \"lib/openzeppelin-contracts/contracts/access/AccessControl.sol\":7587:7820  function _grantRole(bytes32 role, address account) internal virtual {... */\n  pop\n  pop\n  jump\t// out\n    /* \"#utility.yul\":14:141   */\ntag_43:\n    /* \"#utility.yul\":75:85   */\n  0x4e487b71\n    /* \"#utility.yul\":70:73   */\n  0xe0\n    /* \"#utility.yul\":66:86   */\n  shl\n    /* \"#utility.yul\":63:64   */\n  0x00\n    /* \"#utility.yul\":56:87   */\n  mstore\n    /* \"#utility.yul\":106:110   */\n  0x41\n    /* \"#utility.yul\":103:104   */\n  0x04\n    /* \"#utility.yul\":96:111   */\n  mstore\n    /* \"#utility.yul\":130:134   */\n  0x24\n    /* \"#utility.yul\":127:128   */\n  0x00\n    /* \"#utility.yul\":120:135   */\n  revert\n    /* \"#utility.yul\":146:323   */\ntag_44:\n    /* \"#utility.yul\":225:238   */\n  dup1\n  mload\n  sub(shl(0xa0, 0x01), 0x01)\n    /* \"#utility.yul\":267:298   */\n  dup2\n  and\n    /* \"#utility.yul\":257:299   */\n  dup2\n  eq\n    /* \"#utility.yul\":247:317   */\n  tag_48\n  jumpi\n    /* \"#utility.yul\":313:314   */\n  0x00\n    /* \"#utility.yul\":310:311   */\n  dup1\n    /* \"#utility.yul\":303:315   */\n  revert\n    /* \"#utility.yul\":247:317   */\ntag_48:\n    /* \"#utility.yul\":146:323   */\n  swap2\n  swap1\n  pop\n  jump\t// out\n    /* \"#utility.yul\":328:1518   */\ntag_3:\n    /* \"#utility.yul\":432:438   */\n  0x00\n    /* \"#utility.yul\":440:446   */\n  dup1\n    /* \"#utility.yul\":493:495   */\n  0x40\n    /* \"#utility.yul\":481:490   */\n  dup4\n    /* \"#utility.yul\":472:479   */\n  dup6\n    /* \"#utility.yul\":468:491   */\n  sub\n    /* \"#utility.yul\":464:496   */\n  slt\n    /* \"#utility.yul\":461:513   */\n  iszero\n  tag_50\n  jumpi\n    /* \"#utility.yul\":509:510   */\n  0x00\n    /* \"#utility.yul\":506:507   */\n  dup1\n    /* \"#utility.yul\":499:511   */\n  revert\n    /* \"#utility.yul\":461:513   */\ntag_50:\n    /* \"#utility.yul\":532:548   */\n  dup3\n  mload\n    /* \"#utility.yul\":567:569   */\n  0x20\n    /* \"#utility.yul\":598:616   */\n  dup1\n  dup6\n  add\n    /* \"#utility.yul\":592:617   */\n  mload\n    /* \"#utility.yul\":532:548   */\n  swap2\n  swap4\n  pop\n    /* \"#utility.yul\":567:569   */\n  swap1\n  sub(shl(0x40, 0x01), 0x01)\n    /* \"#utility.yul\":666:680   */\n  dup1\n  dup3\n  gt\n    /* \"#utility.yul\":663:697   */\n  iszero\n  tag_51\n  jumpi\n    /* \"#utility.yul\":693:694   */\n  0x00\n    /* \"#utility.yul\":690:691   */\n  dup1\n    /* \"#utility.yul\":683:695   */\n  revert\n    /* \"#utility.yul\":663:697   */\ntag_51:\n    /* \"#utility.yul\":731:737   */\n  dup2\n    /* \"#utility.yul\":720:729   */\n  dup7\n    /* \"#utility.yul\":716:738   */\n  add\n    /* \"#utility.yul\":706:738   */\n  swap2\n  pop\n    /* \"#utility.yul\":776:783   */\n  dup7\n    /* \"#utility.yul\":769:773   */\n  0x1f\n    /* \"#utility.yul\":765:767   */\n  dup4\n    /* \"#utility.yul\":761:774   */\n  add\n    /* \"#utility.yul\":757:784   */\n  slt\n    /* \"#utility.yul\":747:802   */\n  tag_52\n  jumpi\n    /* \"#utility.yul\":798:799   */\n  0x00\n    /* \"#utility.yul\":795:796   */\n  dup1\n    /* \"#utility.yul\":788:800   */\n  revert\n    /* \"#utility.yul\":747:802   */\ntag_52:\n    /* \"#utility.yul\":827:829   */\n  dup2\n    /* \"#utility.yul\":821:830   */\n  mload\n    /* \"#utility.yul\":849:851   */\n  dup2\n    /* \"#utility.yul\":845:847   */\n  dup2\n    /* \"#utility.yul\":842:852   */\n  gt\n    /* \"#utility.yul\":839:875   */\n  iszero\n  tag_54\n  jumpi\n    /* \"#utility.yul\":855:873   */\n  tag_54\n  tag_43\n  jump\t// in\ntag_54:\n    /* \"#utility.yul\":901:903   */\n  dup1\n    /* \"#utility.yul\":898:899   */\n  0x05\n    /* \"#utility.yul\":894:904   */\n  shl\n    /* \"#utility.yul\":933:935   */\n  0x40\n    /* \"#utility.yul\":927:936   */\n  mload\n    /* \"#utility.yul\":996:998   */\n  0x1f\n    /* \"#utility.yul\":992:999   */\n  not\n    /* \"#utility.yul\":987:989   */\n  0x3f\n    /* \"#utility.yul\":983:985   */\n  dup4\n    /* \"#utility.yul\":979:990   */\n  add\n    /* \"#utility.yul\":975:1000   */\n  and\n    /* \"#utility.yul\":967:973   */\n  dup2\n    /* \"#utility.yul\":963:1001   */\n  add\n    /* \"#utility.yul\":1051:1057   */\n  dup2\n    /* \"#utility.yul\":1039:1049   */\n  dup2\n    /* \"#utility.yul\":1036:1058   */\n  lt\n    /* \"#utility.yul\":1031:1033   */\n  dup6\n    /* \"#utility.yul\":1019:1029   */\n  dup3\n    /* \"#utility.yul\":1016:1034   */\n  gt\n    /* \"#utility.yul\":1013:1059   */\n  or\n    /* \"#utility.yul\":1010:1082   */\n  iszero\n  tag_56\n  jumpi\n    /* \"#utility.yul\":1062:1080   */\n  tag_56\n  tag_43\n  jump\t// in\ntag_56:\n    /* \"#utility.yul\":1098:1100   */\n  0x40\n    /* \"#utility.yul\":1091:1113   */\n  mstore\n    /* \"#utility.yul\":1148:1166   */\n  swap2\n  dup3\n  mstore\n    /* \"#utility.yul\":1182:1197   */\n  dup5\n  dup3\n  add\n  swap3\n  pop\n    /* \"#utility.yul\":1224:1235   */\n  dup4\n  dup2\n  add\n    /* \"#utility.yul\":1220:1240   */\n  dup6\n  add\n  swap2\n    /* \"#utility.yul\":1252:1271   */\n  dup10\n  dup4\n  gt\n    /* \"#utility.yul\":1249:1288   */\n  iszero\n  tag_57\n  jumpi\n    /* \"#utility.yul\":1284:1285   */\n  0x00\n    /* \"#utility.yul\":1281:1282   */\n  dup1\n    /* \"#utility.yul\":1274:1286   */\n  revert\n    /* \"#utility.yul\":1249:1288   */\ntag_57:\n    /* \"#utility.yul\":1308:1319   */\n  swap4\n  dup6\n  add\n  swap4\n    /* \"#utility.yul\":1328:1487   */\ntag_58:\n    /* \"#utility.yul\":1344:1350   */\n  dup3\n    /* \"#utility.yul\":1339:1342   */\n  dup6\n    /* \"#utility.yul\":1336:1351   */\n  lt\n    /* \"#utility.yul\":1328:1487   */\n  iszero\n  tag_60\n  jumpi\n    /* \"#utility.yul\":1410:1444   */\n  tag_61\n    /* \"#utility.yul\":1440:1443   */\n  dup6\n    /* \"#utility.yul\":1410:1444   */\n  tag_44\n  jump\t// in\ntag_61:\n    /* \"#utility.yul\":1398:1445   */\n  dup5\n  mstore\n    /* \"#utility.yul\":1361:1373   */\n  swap4\n  dup6\n  add\n  swap4\n    /* \"#utility.yul\":1465:1477   */\n  swap3\n  dup6\n  add\n  swap3\n    /* \"#utility.yul\":1328:1487   */\n  jump(tag_58)\ntag_60:\n    /* \"#utility.yul\":1506:1512   */\n  dup1\n    /* \"#utility.yul\":1496:1512   */\n  swap7\n  pop\n  pop\n  pop\n  pop\n  pop\n  pop\n  pop\n    /* \"#utility.yul\":328:1518   */\n  swap3\n  pop\n  swap3\n  swap1\n  pop\n  jump\t// out\n    /* \"#utility.yul\":1872:1999   */\ntag_25:\n    /* \"#utility.yul\":1933:1943   */\n  0x4e487b71\n    /* \"#utility.yul\":1928:1931   */\n  0xe0\n    /* \"#utility.yul\":1924:1944   */\n  shl\n    /* \"#utility.yul\":1921:1922   */\n  0x00\n    /* \"#utility.yul\":1914:1945   */\n  mstore\n    /* \"#utility.yul\":1964:1968   */\n  0x32\n    /* \"#utility.yul\":1961:1962   */\n  0x04\n    /* \"#utility.yul\":1954:1969   */\n  mstore\n    /* \"#utility.yul\":1988:1992   */\n  0x24\n    /* \"#utility.yul\":1985:1986   */\n  0x00\n    /* \"#utility.yul\":1978:1993   */\n  revert\n    /* \"#utility.yul\":2355:2587   */\ntag_33:\n    /* \"#utility.yul\":2394:2397   */\n  0x00\n    /* \"#utility.yul\":2415:2432   */\n  0x01\n  dup3\n  add\n    /* \"#utility.yul\":2412:2552   */\n  tag_66\n  jumpi\n    /* \"#utility.yul\":2474:2484   */\n  0x4e487b71\n    /* \"#utility.yul\":2469:2472   */\n  0xe0\n    /* \"#utility.yul\":2465:2485   */\n  shl\n    /* \"#utility.yul\":2462:2463   */\n  0x00\n    /* \"#utility.yul\":2455:2486   */\n  mstore\n    /* \"#utility.yul\":2509:2513   */\n  0x11\n    /* \"#utility.yul\":2506:2507   */\n  0x04\n    /* \"#utility.yul\":2499:2514   */\n  mstore\n    /* \"#utility.yul\":2537:2541   */\n  0x24\n    /* \"#utility.yul\":2534:2535   */\n  0x00\n    /* \"#utility.yul\":2527:2542   */\n  revert\n    /* \"#utility.yul\":2412:2552   */\ntag_66:\n  pop\n    /* \"#utility.yul\":2579:2580   */\n  0x01\n    /* \"#utility.yul\":2568:2581   */\n  add\n  swap1\n    /* \"#utility.yul\":2355:2587   */\n  jump\t// out\ntag_45:\n    /* \"projects/02-access-control/contracts/04-multisig/MultiSigVault.sol\":956:11990  contract MultiSigVault is AccessControl, ReentrancyGuard, Pausable {... */\n  dataSize(sub_0)\n  dup1\n  dataOffset(sub_0)\n  0x00\n  codecopy\n  0x00\n  return\nstop\ndata_3f8eb866d258fc640a3f5774e37f33eaf684db99cbe43c28d82b47ac7b936104 a5a0b70b385ff7611cd3840916bd08b10829e5bf9e6637cf79dd9a427fc0e2ab\n\nsub_0: assembly {\n        /* \"projects/02-access-control/contracts/04-multisig/MultiSigVault.sol\":956:11990  contract MultiSigVault is AccessControl, ReentrancyGuard, Pausable {... */\n      mstore(0x40, 0x80)\n      jumpi(tag_1, lt(calldatasize, 0x04))\n      shr(0xe0, calldataload(0x00))\n      dup1\n      0x8a14e3d0\n      gt\n      tag_39\n      jumpi\n      dup1\n      0xc7f758a8\n      gt\n      tag_40\n      jumpi\n      dup1\n      0xe02023a1\n      gt\n      tag_41\n      jumpi\n      dup1\n      0xe02023a1\n      eq\n      tag_34\n      jumpi\n      dup1\n      0xe0a8f6f5\n      eq\n      tag_35\n      jumpi\n      dup1\n      0xe328400c\n      eq\n      tag_36\n      jumpi\n      dup1\n      0xf5b541a6\n      eq\n      tag_37\n      jumpi\n      dup1\n      0xf8b2cb4f\n      eq\n      tag_38\n      jumpi\n      0x00\n      dup1\n      revert\n    tag_41:\n      dup1\n      0xc7f758a8\n      eq\n      tag_30\n      jumpi\n      dup1\n      0xd0e30db0\n      eq\n      tag_31\n      jumpi\n      dup1\n      0xd547741f\n      eq\n      tag_32\n      jumpi\n      dup1\n      0xdb2e21bc\n      eq\n      tag_33\n      jumpi\n      0x00\n      dup1\n      revert\n    tag_40:\n      dup1\n      0x98951b56\n      gt\n      tag_42\n      jumpi\n      dup1\n      0x98951b56\n      eq\n      tag_25\n      jumpi\n      dup1\n      0x9ac18b19\n      eq\n      tag_26\n      jumpi\n      dup1\n      0xa217fddf\n      eq\n      tag_27\n      jumpi\n      dup1\n      0xba7e7cab\n      eq\n      tag_28\n      jumpi\n      dup1\n      0xc08cc02d\n      eq\n      tag_29\n      jumpi\n      0x00\n      dup1\n      revert\n    tag_42:\n      dup1\n      0x8a14e3d0\n      eq\n      tag_21\n      jumpi\n      dup1\n      0x8c0ff5b7\n      eq\n      tag_22\n      jumpi\n      dup1\n      0x91d14854\n      eq\n      tag_23\n      jumpi\n      dup1\n      0x968ed600\n      eq\n      tag_24\n      jumpi\n      0x00\n      dup1\n      revert\n    tag_39:\n      dup1\n      0x2f2ff15d\n      gt\n      tag_43\n      jumpi\n      dup1\n      0x4733c271\n      gt\n      tag_44\n      jumpi\n      dup1\n      0x4733c271\n      eq\n      tag_16\n      jumpi\n      dup1\n      0x51858e27\n      eq\n      tag_17\n      jumpi\n      dup1\n      0x5c975abb\n      eq\n      tag_18\n      jumpi\n      dup1\n      0x6f9fb98a\n      eq\n      tag_19\n      jumpi\n      dup1\n      0x73febf67\n      eq\n      tag_20\n      jumpi\n      0x00\n      dup1\n      revert\n    tag_44:\n      dup1\n      0x2f2ff15d\n      eq\n      tag_12\n      jumpi\n      dup1\n      0x36568abe\n      eq\n      tag_13\n      jumpi\n      dup1\n      0x389ed267\n      eq\n      tag_14\n      jumpi\n      dup1\n      0x4623c81e\n      eq\n      tag_15\n      jumpi\n      0x00\n      dup1\n      revert\n    tag_43:\n      dup1\n      0x0d61b519\n      gt\n      tag_45\n      jumpi\n      dup1\n      0x0d61b519\n      eq\n      tag_7\n      jumpi\n      dup1\n      0x2358d5a8\n      eq\n      tag_8\n      jumpi\n      dup1\n      0x248a9ca3\n      eq\n      tag_9\n      jumpi\n      dup1\n      0x24ea54f4\n      eq\n      tag_10\n      jumpi\n      dup1\n      0x27e235e3\n      eq\n      tag_11\n      jumpi\n      0x00\n      dup1\n      revert\n    tag_45:\n      dup1\n      0x013cf08b\n      eq\n      tag_3\n      jumpi\n      dup1\n      0x01ffc9a7\n      eq\n      tag_4\n      jumpi\n      dup1\n      0x037aadad\n      eq\n      tag_5\n      jumpi\n      dup1\n      0x0c0eb384\n      eq\n      tag_6\n      jumpi\n      0x00\n      dup1\n      revert\n    tag_1:\n      jumpi(tag_2, calldatasize)\n      stop\n    tag_2:\n      0x00\n      dup1\n      revert\n        /* \"projects/02-access-control/contracts/04-multisig/MultiSigVault.sol\":1876:1921  mapping(uint256 => Proposal) public proposals */\n    tag_3:\n      callvalue\n      dup1\n      iszero\n      tag_48\n      jumpi\n      0x00\n      dup1\n      revert\n    tag_48:\n      pop\n      tag_49\n      tag_50\n      calldatasize\n      0x04\n      tag_51\n      jump\t// in\n    tag_50:\n      tag_52\n      jump\t// in\n    tag_49:\n      mload(0x40)\n      tag_53\n      swap9\n      swap8\n      swap7\n      swap6\n      swap5\n      swap4\n      swap3\n      swap2\n      swap1\n      tag_54\n      jump\t// in\n    tag_53:\n      mload(0x40)\n      dup1\n      swap2\n      sub\n      swap1\n      return\n        /* \"projects/02-access-control/contracts/04-multisig/MultiSigVault.sol\":11830:11988  function supportsInterface(bytes4 interfaceId) public view override(AccessControl) returns (bool) {... */\n    tag_4:\n      callvalue\n      dup1\n      iszero\n      tag_55\n      jumpi\n      0x00\n      dup1\n      revert\n    tag_55:\n      pop\n      tag_56\n      tag_57\n      calldatasize\n      0x04\n      tag_58\n      jump\t// in\n    tag_57:\n      tag_59\n      jump\t// in\n    tag_56:\n      mload(0x40)\n        /* \"#utility.yul\":2421:2435   */\n      swap1\n      iszero\n        /* \"#utility.yul\":2414:2436   */\n      iszero\n        /* \"#utility.yul\":2396:2437   */\n      dup2\n      mstore\n        /* \"#utility.yul\":2384:2386   */\n      0x20\n        /* \"#utility.yul\":2369:2387   */\n      add\n        /* \"projects/02-access-control/contracts/04-multisig/MultiSigVault.sol\":11830:11988  function supportsInterface(bytes4 interfaceId) public view override(AccessControl) returns (bool) {... */\n      tag_53\n        /* \"#utility.yul\":2256:2443   */\n      jump\n        /* \"projects/02-access-control/contracts/04-multisig/MultiSigVault.sol\":2002:2059  mapping(uint256 => uint256) public proposalApprovalCounts */\n    tag_5:\n      callvalue\n      dup1\n      iszero\n      tag_62\n      jumpi\n      0x00\n      dup1\n      revert\n    tag_62:\n      pop\n      tag_63\n      tag_64\n      calldatasize\n      0x04\n      tag_51\n      jump\t// in\n    tag_64:\n      mstore(0x20, 0x09)\n      0x00\n      swap1\n      dup2\n      mstore\n      0x40\n      swap1\n      keccak256\n      sload\n      dup2\n      jump\n    tag_63:\n      mload(0x40)\n        /* \"#utility.yul\":2594:2619   */\n      swap1\n      dup2\n      mstore\n        /* \"#utility.yul\":2582:2584   */\n      0x20\n        /* \"#utility.yul\":2567:2585   */\n      add\n        /* \"projects/02-access-control/contracts/04-multisig/MultiSigVault.sol\":2002:2059  mapping(uint256 => uint256) public proposalApprovalCounts */\n      tag_53\n        /* \"#utility.yul\":2448:2625   */\n      jump\n        /* \"projects/02-access-control/contracts/04-multisig/MultiSigVault.sol\":5494:6097  function createPauseProposal() external onlyRole(MULTISIG_ROLE) returns (uint256) {... */\n    tag_6:\n      callvalue\n      dup1\n      iszero\n      tag_68\n      jumpi\n      0x00\n      dup1\n      revert\n    tag_68:\n      pop\n      tag_63\n      tag_70\n      jump\t// in\n        /* \"projects/02-access-control/contracts/04-multisig/MultiSigVault.sol\":7091:8057  function executeProposal(uint256 proposalId) external onlyRole(MULTISIG_ROLE) {... */\n    tag_7:\n      callvalue\n      dup1\n      iszero\n      tag_72\n      jumpi\n      0x00\n      dup1\n      revert\n    tag_72:\n      pop\n      tag_73\n      tag_74\n      calldatasize\n      0x04\n      tag_51\n      jump\t// in\n    tag_74:\n      tag_75\n      jump\t// in\n    tag_73:\n      stop\n        /* \"projects/02-access-control/contracts/04-multisig/MultiSigVault.sol\":10733:10884  function hasApproved(uint256 proposalId, address approver) external view returns (bool) {... */\n    tag_8:\n      callvalue\n      dup1\n      iszero\n      tag_76\n      jumpi\n      0x00\n      dup1\n      revert\n    tag_76:\n      pop\n      tag_56\n      tag_78\n      calldatasize\n      0x04\n      tag_79\n      jump\t// in\n    tag_78:\n        /* \"projects/02-access-control/contracts/04-multisig/MultiSigVault.sol\":10815:10819  bool */\n      0x00\n        /* \"projects/02-access-control/contracts/04-multisig/MultiSigVault.sol\":10838:10867  proposalApprovals[proposalId] */\n      swap2\n      dup3\n      mstore\n        /* \"projects/02-access-control/contracts/04-multisig/MultiSigVault.sol\":10838:10855  proposalApprovals */\n      0x08\n        /* \"projects/02-access-control/contracts/04-multisig/MultiSigVault.sol\":10838:10867  proposalApprovals[proposalId] */\n      0x20\n      swap1\n      dup2\n      mstore\n      0x40\n      dup1\n      dup5\n      keccak256\n      sub(shl(0xa0, 0x01), 0x01)\n        /* \"projects/02-access-control/contracts/04-multisig/MultiSigVault.sol\":10838:10877  proposalApprovals[proposalId][approver] */\n      swap4\n      swap1\n      swap4\n      and\n      dup5\n      mstore\n      swap2\n      swap1\n      mstore\n      swap1\n      keccak256\n      sload\n      0xff\n      and\n      swap1\n        /* \"projects/02-access-control/contracts/04-multisig/MultiSigVault.sol\":10733:10884  function hasApproved(uint256 proposalId, address approver) external view returns (bool) {... */\n      jump\n        /* \"lib/openzeppelin-contracts/contracts/access/AccessControl.sol\":4504:4633  function getRoleAdmin(bytes32 role) public view virtual override returns (bytes32) {... */\n    tag_9:\n      callvalue\n      dup1\n      iszero\n      tag_82\n      jumpi\n      0x00\n      dup1\n      revert\n    tag_82:\n      pop\n      tag_63\n      tag_84\n      calldatasize\n      0x04\n      tag_51\n      jump\t// in\n    tag_84:\n        /* \"lib/openzeppelin-contracts/contracts/access/AccessControl.sol\":4578:4585  bytes32 */\n      0x00\n        /* \"lib/openzeppelin-contracts/contracts/access/AccessControl.sol\":4604:4616  _roles[role] */\n      swap1\n      dup2\n      mstore\n      0x20\n      dup2\n      swap1\n      mstore\n      0x40\n      swap1\n      keccak256\n        /* \"lib/openzeppelin-contracts/contracts/access/AccessControl.sol\":4604:4626  _roles[role].adminRole */\n      0x01\n      add\n      sload\n      swap1\n        /* \"lib/openzeppelin-contracts/contracts/access/AccessControl.sol\":4504:4633  function getRoleAdmin(bytes32 role) public view virtual override returns (bytes32) {... */\n      jump\n        /* \"projects/02-access-control/contracts/04-multisig/MultiSigVault.sol\":1309:1375  bytes32 public constant GUARDIAN_ROLE = keccak256(\"GUARDIAN_ROLE\") */\n    tag_10:\n      callvalue\n      dup1\n      iszero\n      tag_89\n      jumpi\n      0x00\n      dup1\n      revert\n    tag_89:\n      pop\n      tag_63\n        /* \"projects/02-access-control/contracts/04-multisig/MultiSigVault.sol\":1349:1375  keccak256(\"GUARDIAN_ROLE\") */\n      0x55435dd261a4b9b3364963f7738a7a662ad9c84396d64be3365284bb7f0a5041\n        /* \"projects/02-access-control/contracts/04-multisig/MultiSigVault.sol\":1309:1375  bytes32 public constant GUARDIAN_ROLE = keccak256(\"GUARDIAN_ROLE\") */\n      dup2\n      jump\n        /* \"projects/02-access-control/contracts/04-multisig/MultiSigVault.sol\":1688:1731  mapping(address => uint256) public balances */\n    tag_11:\n      callvalue\n      dup1\n      iszero\n      tag_93\n      jumpi\n      0x00\n      dup1\n      revert\n    tag_93:\n      pop\n      tag_63\n      tag_95\n      calldatasize\n      0x04\n      tag_96\n      jump\t// in\n    tag_95:\n      mstore(0x20, 0x03)\n      0x00\n      swap1\n      dup2\n      mstore\n      0x40\n      swap1\n      keccak256\n      sload\n      dup2\n      jump\n        /* \"lib/openzeppelin-contracts/contracts/access/AccessControl.sol\":4929:5074  function grantRole(bytes32 role, address account) public virtual override onlyRole(getRoleAdmin(role)) {... */\n    tag_12:\n      callvalue\n      dup1\n      iszero\n      tag_99\n      jumpi\n      0x00\n      dup1\n      revert\n    tag_99:\n      pop\n      tag_73\n      tag_101\n      calldatasize\n      0x04\n      tag_79\n      jump\t// in\n    tag_101:\n      tag_103\n      jump\t// in\n        /* \"lib/openzeppelin-contracts/contracts/access/AccessControl.sol\":6038:6252  function renounceRole(bytes32 role, address account) public virtual override {... */\n    tag_13:\n      callvalue\n      dup1\n      iszero\n      tag_104\n      jumpi\n      0x00\n      dup1\n      revert\n    tag_104:\n      pop\n      tag_73\n      tag_106\n      calldatasize\n      0x04\n      tag_79\n      jump\t// in\n    tag_106:\n      tag_107\n      jump\t// in\n        /* \"projects/02-access-control/contracts/04-multisig/MultiSigVault.sol\":1171:1231  bytes32 public constant PAUSE_ROLE = keccak256(\"PAUSE_ROLE\") */\n    tag_14:\n      callvalue\n      dup1\n      iszero\n      tag_108\n      jumpi\n      0x00\n      dup1\n      revert\n    tag_108:\n      pop\n      tag_63\n        /* \"projects/02-access-control/contracts/04-multisig/MultiSigVault.sol\":1208:1231  keccak256(\"PAUSE_ROLE\") */\n      0x139c2898040ef16910dc9f44dc697df79363da767d8bc92f2e310312b816e46d\n        /* \"projects/02-access-control/contracts/04-multisig/MultiSigVault.sol\":1171:1231  bytes32 public constant PAUSE_ROLE = keccak256(\"PAUSE_ROLE\") */\n      dup2\n      jump\n        /* \"projects/02-access-control/contracts/04-multisig/MultiSigVault.sol\":1548:1600  uint256 public constant TIMELOCK_DURATION = 24 hours */\n    tag_15:\n      callvalue\n      dup1\n      iszero\n      tag_112\n      jumpi\n      0x00\n      dup1\n      revert\n    tag_112:\n      pop\n      tag_63\n        /* \"projects/02-access-control/contracts/04-multisig/MultiSigVault.sol\":1592:1600  24 hours */\n      0x015180\n        /* \"projects/02-access-control/contracts/04-multisig/MultiSigVault.sol\":1548:1600  uint256 public constant TIMELOCK_DURATION = 24 hours */\n      dup2\n      jump\n        /* \"projects/02-access-control/contracts/04-multisig/MultiSigVault.sol\":1927:1996  mapping(uint256 => mapping(address => bool)) public proposalApprovals */\n    tag_16:\n      callvalue\n      dup1\n      iszero\n      tag_116\n      jumpi\n      0x00\n      dup1\n      revert\n    tag_116:\n      pop\n      tag_56\n      tag_118\n      calldatasize\n      0x04\n      tag_79\n      jump\t// in\n    tag_118:\n      0x08\n      0x20\n      swap1\n      dup2\n      mstore\n      0x00\n      swap3\n      dup4\n      mstore\n      0x40\n      dup1\n      dup5\n      keccak256\n      swap1\n      swap2\n      mstore\n      swap1\n      dup3\n      mstore\n      swap1\n      keccak256\n      sload\n      0xff\n      and\n      dup2\n      jump\n        /* \"projects/02-access-control/contracts/04-multisig/MultiSigVault.sol\":8776:8931  function emergencyPause() external onlyRole(GUARDIAN_ROLE) {... */\n    tag_17:\n      callvalue\n      dup1\n      iszero\n      tag_121\n      jumpi\n      0x00\n      dup1\n      revert\n    tag_121:\n      pop\n      tag_73\n      tag_123\n      jump\t// in\n        /* \"lib/openzeppelin-contracts/contracts/security/Pausable.sol\":1615:1699  function paused() public view virtual returns (bool) {... */\n    tag_18:\n      callvalue\n      dup1\n      iszero\n      tag_124\n      jumpi\n      0x00\n      dup1\n      revert\n    tag_124:\n      pop\n        /* \"lib/openzeppelin-contracts/contracts/security/Pausable.sol\":1685:1692  _paused */\n      and(0xff, sload(0x02))\n        /* \"lib/openzeppelin-contracts/contracts/security/Pausable.sol\":1615:1699  function paused() public view virtual returns (bool) {... */\n      jump(tag_56)\n        /* \"projects/02-access-control/contracts/04-multisig/MultiSigVault.sol\":11388:11495  function getContractBalance() external view returns (uint256) {... */\n    tag_19:\n      callvalue\n      dup1\n      iszero\n      tag_128\n      jumpi\n      0x00\n      dup1\n      revert\n    tag_128:\n      pop\n        /* \"projects/02-access-control/contracts/04-multisig/MultiSigVault.sol\":11467:11488  address(this).balance */\n      selfbalance\n        /* \"projects/02-access-control/contracts/04-multisig/MultiSigVault.sol\":11388:11495  function getContractBalance() external view returns (uint256) {... */\n      jump(tag_63)\n        /* \"projects/02-access-control/contracts/04-multisig/MultiSigVault.sol\":4550:5409  function createWithdrawProposal(uint256 amount) external onlyRole(MULTISIG_ROLE) returns (uint256) {... */\n    tag_20:\n      callvalue\n      dup1\n      iszero\n      tag_132\n      jumpi\n      0x00\n      dup1\n      revert\n    tag_132:\n      pop\n      tag_63\n      tag_134\n      calldatasize\n      0x04\n      tag_51\n      jump\t// in\n    tag_134:\n      tag_135\n      jump\t// in\n        /* \"projects/02-access-control/contracts/04-multisig/MultiSigVault.sol\":1606:1654  uint256 public constant PROPOSAL_EXPIRY = 7 days */\n    tag_21:\n      callvalue\n      dup1\n      iszero\n      tag_137\n      jumpi\n      0x00\n      dup1\n      revert\n    tag_137:\n      pop\n      tag_63\n        /* \"projects/02-access-control/contracts/04-multisig/MultiSigVault.sol\":1648:1654  7 days */\n      0x093a80\n        /* \"projects/02-access-control/contracts/04-multisig/MultiSigVault.sol\":1606:1654  uint256 public constant PROPOSAL_EXPIRY = 7 days */\n      dup2\n      jump\n        /* \"projects/02-access-control/contracts/04-multisig/MultiSigVault.sol\":1768:1796  uint256 public maxWithdrawal */\n    tag_22:\n      callvalue\n      dup1\n      iszero\n      tag_141\n      jumpi\n      0x00\n      dup1\n      revert\n    tag_141:\n      pop\n      tag_63\n      sload(0x05)\n      dup2\n      jump\n        /* \"lib/openzeppelin-contracts/contracts/access/AccessControl.sol\":3021:3166  function hasRole(bytes32 role, address account) public view virtual override returns (bool) {... */\n    tag_23:\n      callvalue\n      dup1\n      iszero\n      tag_145\n      jumpi\n      0x00\n      dup1\n      revert\n    tag_145:\n      pop\n      tag_56\n      tag_147\n      calldatasize\n      0x04\n      tag_79\n      jump\t// in\n    tag_147:\n      tag_148\n      jump\t// in\n        /* \"projects/02-access-control/contracts/04-multisig/MultiSigVault.sol\":1737:1762  uint256 public totalFunds */\n    tag_24:\n      callvalue\n      dup1\n      iszero\n      tag_150\n      jumpi\n      0x00\n      dup1\n      revert\n    tag_150:\n      pop\n      tag_63\n      sload(0x04)\n      dup2\n      jump\n        /* \"projects/02-access-control/contracts/04-multisig/MultiSigVault.sol\":6232:6931  function approveProposal(uint256 proposalId) external onlyRole(MULTISIG_ROLE) {... */\n    tag_25:\n      callvalue\n      dup1\n      iszero\n      tag_154\n      jumpi\n      0x00\n      dup1\n      revert\n    tag_154:\n      pop\n      tag_73\n      tag_156\n      calldatasize\n      0x04\n      tag_51\n      jump\t// in\n    tag_156:\n      tag_157\n      jump\t// in\n        /* \"projects/02-access-control/contracts/04-multisig/MultiSigVault.sol\":1495:1542  uint256 public constant REQUIRED_SIGNATURES = 2 */\n    tag_26:\n      callvalue\n      dup1\n      iszero\n      tag_158\n      jumpi\n      0x00\n      dup1\n      revert\n    tag_158:\n      pop\n      tag_63\n        /* \"projects/02-access-control/contracts/04-multisig/MultiSigVault.sol\":1541:1542  2 */\n      0x02\n        /* \"projects/02-access-control/contracts/04-multisig/MultiSigVault.sol\":1495:1542  uint256 public constant REQUIRED_SIGNATURES = 2 */\n      dup2\n      jump\n        /* \"lib/openzeppelin-contracts/contracts/access/AccessControl.sol\":2153:2202  bytes32 public constant DEFAULT_ADMIN_ROLE = 0x00 */\n    tag_27:\n      callvalue\n      dup1\n      iszero\n      tag_162\n      jumpi\n      0x00\n      dup1\n      revert\n    tag_162:\n      pop\n      tag_63\n        /* \"lib/openzeppelin-contracts/contracts/access/AccessControl.sol\":2198:2202  0x00 */\n      0x00\n        /* \"lib/openzeppelin-contracts/contracts/access/AccessControl.sol\":2153:2202  bytes32 public constant DEFAULT_ADMIN_ROLE = 0x00 */\n      dup2\n      jump\n        /* \"projects/02-access-control/contracts/04-multisig/MultiSigVault.sol\":10998:11134  function getApprovalCount(uint256 proposalId) external view returns (uint256) {... */\n    tag_28:\n      callvalue\n      dup1\n      iszero\n      tag_166\n      jumpi\n      0x00\n      dup1\n      revert\n    tag_166:\n      pop\n      tag_63\n      tag_168\n      calldatasize\n      0x04\n      tag_51\n      jump\t// in\n    tag_168:\n        /* \"projects/02-access-control/contracts/04-multisig/MultiSigVault.sol\":11067:11074  uint256 */\n      0x00\n        /* \"projects/02-access-control/contracts/04-multisig/MultiSigVault.sol\":11093:11127  proposalApprovalCounts[proposalId] */\n      swap1\n      dup2\n      mstore\n        /* \"projects/02-access-control/contracts/04-multisig/MultiSigVault.sol\":11093:11115  proposalApprovalCounts */\n      0x09\n        /* \"projects/02-access-control/contracts/04-multisig/MultiSigVault.sol\":11093:11127  proposalApprovalCounts[proposalId] */\n      0x20\n      mstore\n      0x40\n      swap1\n      keccak256\n      sload\n      swap1\n        /* \"projects/02-access-control/contracts/04-multisig/MultiSigVault.sol\":10998:11134  function getApprovalCount(uint256 proposalId) external view returns (uint256) {... */\n      jump\n        /* \"projects/02-access-control/contracts/04-multisig/MultiSigVault.sol\":11558:11663  function getProposalCount() external view returns (uint256) {... */\n    tag_29:\n      callvalue\n      dup1\n      iszero\n      tag_171\n      jumpi\n      0x00\n      dup1\n      revert\n    tag_171:\n      pop\n      tag_63\n      tag_173\n      jump\t// in\n        /* \"projects/02-access-control/contracts/04-multisig/MultiSigVault.sol\":9953:10572  function getProposal(uint256 proposalId) external view returns (... */\n    tag_30:\n      callvalue\n      dup1\n      iszero\n      tag_175\n      jumpi\n      0x00\n      dup1\n      revert\n    tag_175:\n      pop\n      tag_49\n      tag_177\n      calldatasize\n      0x04\n      tag_51\n      jump\t// in\n    tag_177:\n      tag_178\n      jump\t// in\n        /* \"projects/02-access-control/contracts/04-multisig/MultiSigVault.sol\":4159:4420  function deposit() external payable whenNotPaused {... */\n    tag_31:\n      tag_73\n      tag_181\n      jump\t// in\n        /* \"lib/openzeppelin-contracts/contracts/access/AccessControl.sol\":5354:5501  function revokeRole(bytes32 role, address account) public virtual override onlyRole(getRoleAdmin(role)) {... */\n    tag_32:\n      callvalue\n      dup1\n      iszero\n      tag_182\n      jumpi\n      0x00\n      dup1\n      revert\n    tag_182:\n      pop\n      tag_73\n      tag_184\n      calldatasize\n      0x04\n      tag_79\n      jump\t// in\n    tag_184:\n      tag_185\n      jump\t// in\n        /* \"projects/02-access-control/contracts/04-multisig/MultiSigVault.sol\":9078:9485  function emergencyWithdraw() external onlyRole(GUARDIAN_ROLE) {... */\n    tag_33:\n      callvalue\n      dup1\n      iszero\n      tag_186\n      jumpi\n      0x00\n      dup1\n      revert\n    tag_186:\n      pop\n      tag_73\n      tag_188\n      jump\t// in\n        /* \"projects/02-access-control/contracts/04-multisig/MultiSigVault.sol\":1099:1165  bytes32 public constant WITHDRAW_ROLE = keccak256(\"WITHDRAW_ROLE\") */\n    tag_34:\n      callvalue\n      dup1\n      iszero\n      tag_189\n      jumpi\n      0x00\n      dup1\n      revert\n    tag_189:\n      pop\n      tag_63\n        /* \"projects/02-access-control/contracts/04-multisig/MultiSigVault.sol\":1139:1165  keccak256(\"WITHDRAW_ROLE\") */\n      0x5d8e12c39142ff96d79d04d15d1ba1269e4fe57bb9d26f43523628b34ba108ec\n        /* \"projects/02-access-control/contracts/04-multisig/MultiSigVault.sol\":1099:1165  bytes32 public constant WITHDRAW_ROLE = keccak256(\"WITHDRAW_ROLE\") */\n      dup2\n      jump\n        /* \"projects/02-access-control/contracts/04-multisig/MultiSigVault.sol\":8192:8632  function cancelProposal(uint256 proposalId) external {... */\n    tag_35:\n      callvalue\n      dup1\n      iszero\n      tag_193\n      jumpi\n      0x00\n      dup1\n      revert\n    tag_193:\n      pop\n      tag_73\n      tag_195\n      calldatasize\n      0x04\n      tag_51\n      jump\t// in\n    tag_195:\n      tag_196\n      jump\t// in\n        /* \"projects/02-access-control/contracts/04-multisig/MultiSigVault.sol\":1381:1447  bytes32 public constant MULTISIG_ROLE = keccak256(\"MULTISIG_ROLE\") */\n    tag_36:\n      callvalue\n      dup1\n      iszero\n      tag_197\n      jumpi\n      0x00\n      dup1\n      revert\n    tag_197:\n      pop\n      tag_63\n      0x00\n      dup1\n      mload\n      0x20\n      data_3f8eb866d258fc640a3f5774e37f33eaf684db99cbe43c28d82b47ac7b936104\n      dup4\n      codecopy\n      dup2\n      mload\n      swap2\n      mstore\n      dup2\n      jump\n        /* \"projects/02-access-control/contracts/04-multisig/MultiSigVault.sol\":1237:1303  bytes32 public constant OPERATOR_ROLE = keccak256(\"OPERATOR_ROLE\") */\n    tag_37:\n      callvalue\n      dup1\n      iszero\n      tag_201\n      jumpi\n      0x00\n      dup1\n      revert\n    tag_201:\n      pop\n      tag_63\n        /* \"projects/02-access-control/contracts/04-multisig/MultiSigVault.sol\":1277:1303  keccak256(\"OPERATOR_ROLE\") */\n      0x97667070c54ef182b0f5858b034beac1b6f3089aa2d3188bb1e8929f4fa9b929\n        /* \"projects/02-access-control/contracts/04-multisig/MultiSigVault.sol\":1237:1303  bytes32 public constant OPERATOR_ROLE = keccak256(\"OPERATOR_ROLE\") */\n      dup2\n      jump\n        /* \"projects/02-access-control/contracts/04-multisig/MultiSigVault.sol\":11225:11329  function getBalance(address user) external view returns (uint256) {... */\n    tag_38:\n      callvalue\n      dup1\n      iszero\n      tag_205\n      jumpi\n      0x00\n      dup1\n      revert\n    tag_205:\n      pop\n      tag_63\n      tag_207\n      calldatasize\n      0x04\n      tag_96\n      jump\t// in\n    tag_207:\n      sub(shl(0xa0, 0x01), 0x01)\n        /* \"projects/02-access-control/contracts/04-multisig/MultiSigVault.sol\":11308:11322  balances[user] */\n      and\n        /* \"projects/02-access-control/contracts/04-multisig/MultiSigVault.sol\":11282:11289  uint256 */\n      0x00\n        /* \"projects/02-access-control/contracts/04-multisig/MultiSigVault.sol\":11308:11322  balances[user] */\n      swap1\n      dup2\n      mstore\n        /* \"projects/02-access-control/contracts/04-multisig/MultiSigVault.sol\":11308:11316  balances */\n      0x03\n        /* \"projects/02-access-control/contracts/04-multisig/MultiSigVault.sol\":11308:11322  balances[user] */\n      0x20\n      mstore\n      0x40\n      swap1\n      keccak256\n      sload\n      swap1\n        /* \"projects/02-access-control/contracts/04-multisig/MultiSigVault.sol\":11225:11329  function getBalance(address user) external view returns (uint256) {... */\n      jump\n        /* \"projects/02-access-control/contracts/04-multisig/MultiSigVault.sol\":1876:1921  mapping(uint256 => Proposal) public proposals */\n    tag_52:\n      mstore(0x20, 0x07)\n      0x00\n      swap1\n      dup2\n      mstore\n      0x40\n      swap1\n      keccak256\n      dup1\n      sload\n      0x01\n      dup3\n      add\n      sload\n      0x02\n      dup4\n      add\n      sload\n      0x03\n      dup5\n      add\n      dup1\n      sload\n      sub(shl(0xa0, 0x01), 0x01)\n      dup1\n      dup7\n      and\n      swap7\n      shl(0xa0, 0x01)\n      swap1\n      swap7\n      div\n      0xff\n      and\n      swap6\n      swap4\n      and\n      swap3\n      swap2\n      swap1\n      tag_210\n      swap1\n      tag_211\n      jump\t// in\n    tag_210:\n      dup1\n      0x1f\n      add\n      0x20\n      dup1\n      swap2\n      div\n      mul\n      0x20\n      add\n      mload(0x40)\n      swap1\n      dup2\n      add\n      0x40\n      mstore\n      dup1\n      swap3\n      swap2\n      swap1\n      dup2\n      dup2\n      mstore\n      0x20\n      add\n      dup3\n      dup1\n      sload\n      tag_212\n      swap1\n      tag_211\n      jump\t// in\n    tag_212:\n      dup1\n      iszero\n      tag_213\n      jumpi\n      dup1\n      0x1f\n      lt\n      tag_214\n      jumpi\n      0x0100\n      dup1\n      dup4\n      sload\n      div\n      mul\n      dup4\n      mstore\n      swap2\n      0x20\n      add\n      swap2\n      jump(tag_213)\n    tag_214:\n      dup3\n      add\n      swap2\n      swap1\n      0x00\n      mstore\n      keccak256(0x00, 0x20)\n      swap1\n    tag_215:\n      dup2\n      sload\n      dup2\n      mstore\n      swap1\n      0x01\n      add\n      swap1\n      0x20\n      add\n      dup1\n      dup4\n      gt\n      tag_215\n      jumpi\n      dup3\n      swap1\n      sub\n      0x1f\n      and\n      dup3\n      add\n      swap2\n    tag_213:\n      pop\n      pop\n      pop\n      pop\n      0x04\n      dup4\n      add\n      sload\n      0x05\n      swap1\n      swap4\n      add\n      sload\n      swap2\n      swap3\n      swap2\n      0xff\n      dup1\n      dup3\n      and\n      swap3\n      pop\n      0x0100\n      swap1\n      swap2\n      div\n      and\n      dup9\n      jump\t// out\n        /* \"projects/02-access-control/contracts/04-multisig/MultiSigVault.sol\":11830:11988  function supportsInterface(bytes4 interfaceId) public view override(AccessControl) returns (bool) {... */\n    tag_59:\n        /* \"projects/02-access-control/contracts/04-multisig/MultiSigVault.sol\":11922:11926  bool */\n      0x00\n        /* \"projects/02-access-control/contracts/04-multisig/MultiSigVault.sol\":11945:11981  super.supportsInterface(interfaceId) */\n      tag_217\n        /* \"projects/02-access-control/contracts/04-multisig/MultiSigVault.sol\":11969:11980  interfaceId */\n      dup3\n        /* \"projects/02-access-control/contracts/04-multisig/MultiSigVault.sol\":11945:11968  super.supportsInterface */\n      tag_218\n        /* \"projects/02-access-control/contracts/04-multisig/MultiSigVault.sol\":11945:11981  super.supportsInterface(interfaceId) */\n      jump\t// in\n    tag_217:\n        /* \"projects/02-access-control/contracts/04-multisig/MultiSigVault.sol\":11938:11981  return super.supportsInterface(interfaceId) */\n      swap3\n        /* \"projects/02-access-control/contracts/04-multisig/MultiSigVault.sol\":11830:11988  function supportsInterface(bytes4 interfaceId) public view override(AccessControl) returns (bool) {... */\n      swap2\n      pop\n      pop\n      jump\t// out\n        /* \"projects/02-access-control/contracts/04-multisig/MultiSigVault.sol\":5494:6097  function createPauseProposal() external onlyRole(MULTISIG_ROLE) returns (uint256) {... */\n    tag_70:\n        /* \"projects/02-access-control/contracts/04-multisig/MultiSigVault.sol\":5567:5574  uint256 */\n      0x00\n      0x00\n      dup1\n      mload\n      0x20\n      data_3f8eb866d258fc640a3f5774e37f33eaf684db99cbe43c28d82b47ac7b936104\n      dup4\n      codecopy\n      dup2\n      mload\n      swap2\n      mstore\n        /* \"lib/openzeppelin-contracts/contracts/access/AccessControl.sol\":2631:2647  _checkRole(role) */\n      tag_220\n        /* \"lib/openzeppelin-contracts/contracts/access/AccessControl.sol\":2642:2646  role */\n      dup2\n        /* \"lib/openzeppelin-contracts/contracts/access/AccessControl.sol\":2631:2641  _checkRole */\n      tag_221\n        /* \"lib/openzeppelin-contracts/contracts/access/AccessControl.sol\":2631:2647  _checkRole(role) */\n      jump\t// in\n    tag_220:\n        /* \"projects/02-access-control/contracts/04-multisig/MultiSigVault.sol\":5586:5609  _proposalId.increment() */\n      tag_223\n        /* \"projects/02-access-control/contracts/04-multisig/MultiSigVault.sol\":5586:5597  _proposalId */\n      0x06\n        /* \"lib/openzeppelin-contracts/contracts/utils/Counters.sol\":1032:1051  counter._value += 1 */\n      dup1\n      sload\n        /* \"lib/openzeppelin-contracts/contracts/utils/Counters.sol\":1050:1051  1 */\n      0x01\n        /* \"lib/openzeppelin-contracts/contracts/utils/Counters.sol\":1032:1051  counter._value += 1 */\n      add\n      swap1\n      sstore\n        /* \"lib/openzeppelin-contracts/contracts/utils/Counters.sol\":945:1068  function increment(Counter storage counter) internal {... */\n      jump\n        /* \"projects/02-access-control/contracts/04-multisig/MultiSigVault.sol\":5586:5609  _proposalId.increment() */\n    tag_223:\n        /* \"projects/02-access-control/contracts/04-multisig/MultiSigVault.sol\":5619:5637  uint256 proposalId */\n      0x00\n        /* \"projects/02-access-control/contracts/04-multisig/MultiSigVault.sol\":5640:5661  _proposalId.current() */\n      tag_225\n        /* \"projects/02-access-control/contracts/04-multisig/MultiSigVault.sol\":5640:5651  _proposalId */\n      0x06\n        /* \"lib/openzeppelin-contracts/contracts/utils/Counters.sol\":918:932  counter._value */\n      sload\n      swap1\n        /* \"lib/openzeppelin-contracts/contracts/utils/Counters.sol\":827:939  function current(Counter storage counter) internal view returns (uint256) {... */\n      jump\n        /* \"projects/02-access-control/contracts/04-multisig/MultiSigVault.sol\":5640:5661  _proposalId.current() */\n    tag_225:\n        /* \"projects/02-access-control/contracts/04-multisig/MultiSigVault.sol\":5704:5980  Proposal({... */\n      0x40\n      dup1\n      mload\n      0x0100\n      dup2\n      add\n      swap1\n      swap2\n      mstore\n        /* \"projects/02-access-control/contracts/04-multisig/MultiSigVault.sol\":5737:5747  msg.sender */\n      caller\n        /* \"projects/02-access-control/contracts/04-multisig/MultiSigVault.sol\":5704:5980  Proposal({... */\n      dup2\n      mstore\n        /* \"projects/02-access-control/contracts/04-multisig/MultiSigVault.sol\":5619:5661  uint256 proposalId = _proposalId.current() */\n      swap1\n      swap2\n      pop\n        /* \"projects/02-access-control/contracts/04-multisig/MultiSigVault.sol\":5704:5980  Proposal({... */\n      0x20\n      dup2\n      add\n        /* \"projects/02-access-control/contracts/04-multisig/MultiSigVault.sol\":5775:5793  ProposalType.PAUSE */\n      0x01\n        /* \"projects/02-access-control/contracts/04-multisig/MultiSigVault.sol\":5704:5980  Proposal({... */\n      dup2\n      mstore\n        /* \"projects/02-access-control/contracts/04-multisig/MultiSigVault.sol\":5815:5816  0 */\n      0x00\n        /* \"projects/02-access-control/contracts/04-multisig/MultiSigVault.sol\":5704:5980  Proposal({... */\n      0x20\n      dup1\n      dup4\n      add\n      dup3\n      swap1\n      mstore\n      0x40\n      dup1\n      dup5\n      add\n      dup4\n      swap1\n      mstore\n      dup1\n      mload\n      dup1\n      dup4\n      add\n      dup3\n      mstore\n      dup4\n      dup2\n      mstore\n      0x60\n      dup6\n      add\n      mstore\n        /* \"projects/02-access-control/contracts/04-multisig/MultiSigVault.sol\":5895:5910  block.timestamp */\n      timestamp\n        /* \"projects/02-access-control/contracts/04-multisig/MultiSigVault.sol\":5704:5980  Proposal({... */\n      0x80\n      dup6\n      add\n      mstore\n      0xa0\n      dup5\n      add\n      dup4\n      swap1\n      mstore\n      0xc0\n      swap1\n      swap4\n      add\n      dup3\n      swap1\n      mstore\n        /* \"projects/02-access-control/contracts/04-multisig/MultiSigVault.sol\":5680:5701  proposals[proposalId] */\n      dup5\n      dup3\n      mstore\n        /* \"projects/02-access-control/contracts/04-multisig/MultiSigVault.sol\":5680:5689  proposals */\n      0x07\n        /* \"projects/02-access-control/contracts/04-multisig/MultiSigVault.sol\":5680:5701  proposals[proposalId] */\n      dup2\n      mstore\n      swap2\n      swap1\n      keccak256\n        /* \"projects/02-access-control/contracts/04-multisig/MultiSigVault.sol\":5680:5980  proposals[proposalId] = Proposal({... */\n      dup3\n      mload\n      dup2\n      sload\n      sub(shl(0xa0, 0x01), 0x01)\n      swap2\n      swap1\n      swap2\n      and\n      not(sub(shl(0xa0, 0x01), 0x01))\n      dup3\n      and\n      dup2\n      or\n      dup4\n      sstore\n      swap3\n      dup5\n      add\n      mload\n        /* \"projects/02-access-control/contracts/04-multisig/MultiSigVault.sol\":5680:5701  proposals[proposalId] */\n      swap2\n      swap3\n      dup4\n      swap2\n      not(sub(shl(0xa8, 0x01), 0x01))\n        /* \"projects/02-access-control/contracts/04-multisig/MultiSigVault.sol\":5680:5980  proposals[proposalId] = Proposal({... */\n      and\n      or\n      shl(0xa0, 0x01)\n      dup4\n      0x04\n      dup2\n      gt\n      iszero\n      tag_231\n      jumpi\n      tag_231\n      tag_229\n      jump\t// in\n    tag_231:\n      mul\n      or\n      swap1\n      sstore\n      pop\n      0x40\n      dup3\n      add\n      mload\n      0x01\n      dup3\n      add\n      sstore\n      0x60\n      dup3\n      add\n      mload\n      0x02\n      dup3\n      add\n      dup1\n      sload\n      not(sub(shl(0xa0, 0x01), 0x01))\n      and\n      sub(shl(0xa0, 0x01), 0x01)\n      swap1\n      swap3\n      and\n      swap2\n      swap1\n      swap2\n      or\n      swap1\n      sstore\n      0x80\n      dup3\n      add\n      mload\n      0x03\n      dup3\n      add\n      swap1\n      tag_232\n      swap1\n      dup3\n      tag_233\n      jump\t// in\n    tag_232:\n      pop\n      0xa0\n      dup3\n      add\n      mload\n      0x04\n      dup3\n      add\n      sstore\n      0xc0\n      dup3\n      add\n      mload\n      0x05\n      swap1\n      swap2\n      add\n      dup1\n      sload\n      0xe0\n      swap1\n      swap4\n      add\n      mload\n      iszero\n      iszero\n      0x0100\n      mul\n      not(0xff00)\n      swap3\n      iszero\n      iszero\n      swap3\n      swap1\n      swap3\n      and\n      not(0xffff)\n      swap1\n      swap4\n      and\n      swap3\n      swap1\n      swap3\n      or\n      or\n      swap1\n      sstore\n        /* \"projects/02-access-control/contracts/04-multisig/MultiSigVault.sol\":6004:6063  ProposalCreated(proposalId, msg.sender, ProposalType.PAUSE) */\n      mload(0x40)\n        /* \"projects/02-access-control/contracts/04-multisig/MultiSigVault.sol\":6032:6042  msg.sender */\n      caller\n      swap1\n        /* \"projects/02-access-control/contracts/04-multisig/MultiSigVault.sol\":6020:6030  proposalId */\n      dup3\n      swap1\n        /* \"projects/02-access-control/contracts/04-multisig/MultiSigVault.sol\":6004:6063  ProposalCreated(proposalId, msg.sender, ProposalType.PAUSE) */\n      0x876b000c101c27e7aaff6a3254ea503d0e9bf516112d43803bd82989b1355235\n      swap1\n      tag_234\n      swap1\n        /* \"projects/02-access-control/contracts/04-multisig/MultiSigVault.sol\":5680:5980  proposals[proposalId] = Proposal({... */\n      0x01\n      swap1\n        /* \"projects/02-access-control/contracts/04-multisig/MultiSigVault.sol\":6004:6063  ProposalCreated(proposalId, msg.sender, ProposalType.PAUSE) */\n      tag_235\n      jump\t// in\n    tag_234:\n      mload(0x40)\n      dup1\n      swap2\n      sub\n      swap1\n      log3\n        /* \"projects/02-access-control/contracts/04-multisig/MultiSigVault.sol\":6080:6090  proposalId */\n      swap2\n      pop\n        /* \"projects/02-access-control/contracts/04-multisig/MultiSigVault.sol\":5494:6097  function createPauseProposal() external onlyRole(MULTISIG_ROLE) returns (uint256) {... */\n      pop\n      swap1\n      jump\t// out\n        /* \"projects/02-access-control/contracts/04-multisig/MultiSigVault.sol\":7091:8057  function executeProposal(uint256 proposalId) external onlyRole(MULTISIG_ROLE) {... */\n    tag_75:\n      0x00\n      dup1\n      mload\n      0x20\n      data_3f8eb866d258fc640a3f5774e37f33eaf684db99cbe43c28d82b47ac7b936104\n      dup4\n      codecopy\n      dup2\n      mload\n      swap2\n      mstore\n        /* \"lib/openzeppelin-contracts/contracts/access/AccessControl.sol\":2631:2647  _checkRole(role) */\n      tag_237\n        /* \"lib/openzeppelin-contracts/contracts/access/AccessControl.sol\":2642:2646  role */\n      dup2\n        /* \"lib/openzeppelin-contracts/contracts/access/AccessControl.sol\":2631:2641  _checkRole */\n      tag_221\n        /* \"lib/openzeppelin-contracts/contracts/access/AccessControl.sol\":2631:2647  _checkRole(role) */\n      jump\t// in\n    tag_237:\n        /* \"projects/02-access-control/contracts/04-multisig/MultiSigVault.sol\":7179:7204  Proposal storage proposal */\n      0x00\n        /* \"projects/02-access-control/contracts/04-multisig/MultiSigVault.sol\":7207:7228  proposals[proposalId] */\n      dup3\n      dup2\n      mstore\n        /* \"projects/02-access-control/contracts/04-multisig/MultiSigVault.sol\":7207:7216  proposals */\n      0x07\n        /* \"projects/02-access-control/contracts/04-multisig/MultiSigVault.sol\":7207:7228  proposals[proposalId] */\n      0x20\n      mstore\n      0x40\n      swap1\n      keccak256\n        /* \"projects/02-access-control/contracts/04-multisig/MultiSigVault.sol\":7246:7263  proposal.proposer */\n      dup1\n      sload\n      sub(shl(0xa0, 0x01), 0x01)\n      and\n        /* \"projects/02-access-control/contracts/04-multisig/MultiSigVault.sol\":7238:7305  require(proposal.proposer != address(0), \"Proposal does not exist\") */\n      tag_239\n      jumpi\n      mload(0x40)\n      shl(0xe5, 0x461bcd)\n      dup2\n      mstore\n        /* \"#utility.yul\":7021:7023   */\n      0x20\n        /* \"projects/02-access-control/contracts/04-multisig/MultiSigVault.sol\":7238:7305  require(proposal.proposer != address(0), \"Proposal does not exist\") */\n      0x04\n      dup3\n      add\n        /* \"#utility.yul\":7003:7024   */\n      mstore\n        /* \"#utility.yul\":7060:7062   */\n      0x17\n        /* \"#utility.yul\":7040:7058   */\n      0x24\n      dup3\n      add\n        /* \"#utility.yul\":7033:7063   */\n      mstore\n      shl(0x4a, 0x141c9bdc1bdcd85b08191bd95cc81b9bdd08195e1a5cdd)\n        /* \"#utility.yul\":7079:7097   */\n      0x44\n      dup3\n      add\n        /* \"#utility.yul\":7072:7125   */\n      mstore\n        /* \"#utility.yul\":7142:7160   */\n      0x64\n      add\n        /* \"projects/02-access-control/contracts/04-multisig/MultiSigVault.sol\":7238:7305  require(proposal.proposer != address(0), \"Proposal does not exist\") */\n    tag_240:\n      mload(0x40)\n      dup1\n      swap2\n      sub\n      swap1\n      revert\n    tag_239:\n        /* \"projects/02-access-control/contracts/04-multisig/MultiSigVault.sol\":7324:7341  proposal.executed */\n      0x05\n      dup2\n      add\n      sload\n      0xff\n      and\n        /* \"projects/02-access-control/contracts/04-multisig/MultiSigVault.sol\":7323:7341  !proposal.executed */\n      iszero\n        /* \"projects/02-access-control/contracts/04-multisig/MultiSigVault.sol\":7315:7371  require(!proposal.executed, \"Proposal already executed\") */\n      tag_242\n      jumpi\n      mload(0x40)\n      shl(0xe5, 0x461bcd)\n      dup2\n      mstore\n      0x04\n      add\n      tag_240\n      swap1\n      tag_244\n      jump\t// in\n    tag_242:\n        /* \"projects/02-access-control/contracts/04-multisig/MultiSigVault.sol\":7390:7408  proposal.cancelled */\n      0x05\n      dup2\n      add\n      sload\n      0x0100\n      swap1\n      div\n      0xff\n      and\n        /* \"projects/02-access-control/contracts/04-multisig/MultiSigVault.sol\":7389:7408  !proposal.cancelled */\n      iszero\n        /* \"projects/02-access-control/contracts/04-multisig/MultiSigVault.sol\":7381:7431  require(!proposal.cancelled, \"Proposal cancelled\") */\n      tag_245\n      jumpi\n      mload(0x40)\n      shl(0xe5, 0x461bcd)\n      dup2\n      mstore\n        /* \"#utility.yul\":7727:7729   */\n      0x20\n        /* \"projects/02-access-control/contracts/04-multisig/MultiSigVault.sol\":7381:7431  require(!proposal.cancelled, \"Proposal cancelled\") */\n      0x04\n      dup3\n      add\n        /* \"#utility.yul\":7709:7730   */\n      mstore\n        /* \"#utility.yul\":7766:7768   */\n      0x12\n        /* \"#utility.yul\":7746:7764   */\n      0x24\n      dup3\n      add\n        /* \"#utility.yul\":7739:7769   */\n      mstore\n      shl(0x72, 0x141c9bdc1bdcd85b0818d85b98d95b1b1959)\n        /* \"#utility.yul\":7785:7803   */\n      0x44\n      dup3\n      add\n        /* \"#utility.yul\":7778:7826   */\n      mstore\n        /* \"#utility.yul\":7843:7861   */\n      0x64\n      add\n        /* \"projects/02-access-control/contracts/04-multisig/MultiSigVault.sol\":7381:7431  require(!proposal.cancelled, \"Proposal cancelled\") */\n      tag_240\n        /* \"#utility.yul\":7525:7867   */\n      jump\n        /* \"projects/02-access-control/contracts/04-multisig/MultiSigVault.sol\":7381:7431  require(!proposal.cancelled, \"Proposal cancelled\") */\n    tag_245:\n        /* \"projects/02-access-control/contracts/04-multisig/MultiSigVault.sol\":7449:7483  proposalApprovalCounts[proposalId] */\n      0x00\n      dup4\n      dup2\n      mstore\n        /* \"projects/02-access-control/contracts/04-multisig/MultiSigVault.sol\":7449:7471  proposalApprovalCounts */\n      0x09\n        /* \"projects/02-access-control/contracts/04-multisig/MultiSigVault.sol\":7449:7483  proposalApprovalCounts[proposalId] */\n      0x20\n      mstore\n      0x40\n      swap1\n      keccak256\n      sload\n        /* \"projects/02-access-control/contracts/04-multisig/MultiSigVault.sol\":1541:1542  2 */\n      0x02\n      gt\n        /* \"projects/02-access-control/contracts/04-multisig/MultiSigVault.sol\":7449:7506  proposalApprovalCounts[proposalId] >= REQUIRED_SIGNATURES */\n      iszero\n        /* \"projects/02-access-control/contracts/04-multisig/MultiSigVault.sol\":7441:7533  require(proposalApprovalCounts[proposalId] >= REQUIRED_SIGNATURES, \"Insufficient approvals\") */\n      tag_248\n      jumpi\n      mload(0x40)\n      shl(0xe5, 0x461bcd)\n      dup2\n      mstore\n        /* \"#utility.yul\":8074:8076   */\n      0x20\n        /* \"projects/02-access-control/contracts/04-multisig/MultiSigVault.sol\":7441:7533  require(proposalApprovalCounts[proposalId] >= REQUIRED_SIGNATURES, \"Insufficient approvals\") */\n      0x04\n      dup3\n      add\n        /* \"#utility.yul\":8056:8077   */\n      mstore\n        /* \"#utility.yul\":8113:8115   */\n      0x16\n        /* \"#utility.yul\":8093:8111   */\n      0x24\n      dup3\n      add\n        /* \"#utility.yul\":8086:8116   */\n      mstore\n      shl(0x50, 0x496e73756666696369656e7420617070726f76616c73)\n        /* \"#utility.yul\":8132:8150   */\n      0x44\n      dup3\n      add\n        /* \"#utility.yul\":8125:8177   */\n      mstore\n        /* \"#utility.yul\":8194:8212   */\n      0x64\n      add\n        /* \"projects/02-access-control/contracts/04-multisig/MultiSigVault.sol\":7441:7533  require(proposalApprovalCounts[proposalId] >= REQUIRED_SIGNATURES, \"Insufficient approvals\") */\n      tag_240\n        /* \"#utility.yul\":7872:8218   */\n      jump\n        /* \"projects/02-access-control/contracts/04-multisig/MultiSigVault.sol\":7441:7533  require(proposalApprovalCounts[proposalId] >= REQUIRED_SIGNATURES, \"Insufficient approvals\") */\n    tag_248:\n        /* \"projects/02-access-control/contracts/04-multisig/MultiSigVault.sol\":1592:1600  24 hours */\n      0x015180\n        /* \"projects/02-access-control/contracts/04-multisig/MultiSigVault.sol\":7570:7578  proposal */\n      dup2\n        /* \"projects/02-access-control/contracts/04-multisig/MultiSigVault.sol\":7570:7588  proposal.timestamp */\n      0x04\n      add\n      sload\n        /* \"projects/02-access-control/contracts/04-multisig/MultiSigVault.sol\":7570:7608  proposal.timestamp + TIMELOCK_DURATION */\n      tag_251\n      swap2\n      swap1\n      tag_252\n      jump\t// in\n    tag_251:\n        /* \"projects/02-access-control/contracts/04-multisig/MultiSigVault.sol\":7551:7566  block.timestamp */\n      timestamp\n        /* \"projects/02-access-control/contracts/04-multisig/MultiSigVault.sol\":7551:7608  block.timestamp >= proposal.timestamp + TIMELOCK_DURATION */\n      lt\n      iszero\n        /* \"projects/02-access-control/contracts/04-multisig/MultiSigVault.sol\":7543:7633  require(block.timestamp >= proposal.timestamp + TIMELOCK_DURATION, \"Timelock not expired\") */\n      tag_253\n      jumpi\n      mload(0x40)\n      shl(0xe5, 0x461bcd)\n      dup2\n      mstore\n        /* \"#utility.yul\":8687:8689   */\n      0x20\n        /* \"projects/02-access-control/contracts/04-multisig/MultiSigVault.sol\":7543:7633  require(block.timestamp >= proposal.timestamp + TIMELOCK_DURATION, \"Timelock not expired\") */\n      0x04\n      dup3\n      add\n        /* \"#utility.yul\":8669:8690   */\n      mstore\n        /* \"#utility.yul\":8726:8728   */\n      0x14\n        /* \"#utility.yul\":8706:8724   */\n      0x24\n      dup3\n      add\n        /* \"#utility.yul\":8699:8729   */\n      mstore\n      shl(0x62, 0x151a5b595b1bd8dac81b9bdd08195e1c1a5c9959)\n        /* \"#utility.yul\":8745:8763   */\n      0x44\n      dup3\n      add\n        /* \"#utility.yul\":8738:8788   */\n      mstore\n        /* \"#utility.yul\":8805:8823   */\n      0x64\n      add\n        /* \"projects/02-access-control/contracts/04-multisig/MultiSigVault.sol\":7543:7633  require(block.timestamp >= proposal.timestamp + TIMELOCK_DURATION, \"Timelock not expired\") */\n      tag_240\n        /* \"#utility.yul\":8485:8829   */\n      jump\n        /* \"projects/02-access-control/contracts/04-multisig/MultiSigVault.sol\":7543:7633  require(block.timestamp >= proposal.timestamp + TIMELOCK_DURATION, \"Timelock not expired\") */\n    tag_253:\n        /* \"projects/02-access-control/contracts/04-multisig/MultiSigVault.sol\":1648:1654  7 days */\n      0x093a80\n        /* \"projects/02-access-control/contracts/04-multisig/MultiSigVault.sol\":7670:7678  proposal */\n      dup2\n        /* \"projects/02-access-control/contracts/04-multisig/MultiSigVault.sol\":7670:7688  proposal.timestamp */\n      0x04\n      add\n      sload\n        /* \"projects/02-access-control/contracts/04-multisig/MultiSigVault.sol\":7670:7706  proposal.timestamp + PROPOSAL_EXPIRY */\n      tag_256\n      swap2\n      swap1\n      tag_252\n      jump\t// in\n    tag_256:\n        /* \"projects/02-access-control/contracts/04-multisig/MultiSigVault.sol\":7651:7666  block.timestamp */\n      timestamp\n        /* \"projects/02-access-control/contracts/04-multisig/MultiSigVault.sol\":7651:7706  block.timestamp <= proposal.timestamp + PROPOSAL_EXPIRY */\n      gt\n      iszero\n        /* \"projects/02-access-control/contracts/04-multisig/MultiSigVault.sol\":7643:7727  require(block.timestamp <= proposal.timestamp + PROPOSAL_EXPIRY, \"Proposal expired\") */\n      tag_257\n      jumpi\n      mload(0x40)\n      shl(0xe5, 0x461bcd)\n      dup2\n      mstore\n        /* \"#utility.yul\":9036:9038   */\n      0x20\n        /* \"projects/02-access-control/contracts/04-multisig/MultiSigVault.sol\":7643:7727  require(block.timestamp <= proposal.timestamp + PROPOSAL_EXPIRY, \"Proposal expired\") */\n      0x04\n      dup3\n      add\n        /* \"#utility.yul\":9018:9039   */\n      mstore\n        /* \"#utility.yul\":9075:9077   */\n      0x10\n        /* \"#utility.yul\":9055:9073   */\n      0x24\n      dup3\n      add\n        /* \"#utility.yul\":9048:9078   */\n      mstore\n      shl(0x82, 0x141c9bdc1bdcd85b08195e1c1a5c9959)\n        /* \"#utility.yul\":9094:9112   */\n      0x44\n      dup3\n      add\n        /* \"#utility.yul\":9087:9133   */\n      mstore\n        /* \"#utility.yul\":9150:9168   */\n      0x64\n      add\n        /* \"projects/02-access-control/contracts/04-multisig/MultiSigVault.sol\":7643:7727  require(block.timestamp <= proposal.timestamp + PROPOSAL_EXPIRY, \"Proposal expired\") */\n      tag_240\n        /* \"#utility.yul\":8834:9174   */\n      jump\n        /* \"projects/02-access-control/contracts/04-multisig/MultiSigVault.sol\":7643:7727  require(block.timestamp <= proposal.timestamp + PROPOSAL_EXPIRY, \"Proposal expired\") */\n    tag_257:\n        /* \"projects/02-access-control/contracts/04-multisig/MultiSigVault.sol\":7746:7763  proposal.executed */\n      0x05\n      dup2\n      add\n        /* \"projects/02-access-control/contracts/04-multisig/MultiSigVault.sol\":7746:7770  proposal.executed = true */\n      dup1\n      sload\n      not(0xff)\n      and\n        /* \"projects/02-access-control/contracts/04-multisig/MultiSigVault.sol\":7766:7770  true */\n      0x01\n        /* \"projects/02-access-control/contracts/04-multisig/MultiSigVault.sol\":7746:7770  proposal.executed = true */\n      or\n      swap1\n      sstore\n        /* \"projects/02-access-control/contracts/04-multisig/MultiSigVault.sol\":7746:7763  proposal.executed */\n      0x00\n        /* \"projects/02-access-control/contracts/04-multisig/MultiSigVault.sol\":7793:7814  proposal.proposalType */\n      dup2\n      sload\n      shl(0xa0, 0x01)\n      swap1\n      div\n      0xff\n      and\n        /* \"projects/02-access-control/contracts/04-multisig/MultiSigVault.sol\":7793:7839  proposal.proposalType == ProposalType.WITHDRAW */\n      0x04\n      dup2\n      gt\n      iszero\n      tag_263\n      jumpi\n      tag_263\n      tag_229\n      jump\t// in\n    tag_263:\n      sub\n        /* \"projects/02-access-control/contracts/04-multisig/MultiSigVault.sol\":7789:7987  if (proposal.proposalType == ProposalType.WITHDRAW) {... */\n      tag_264\n      jumpi\n        /* \"projects/02-access-control/contracts/04-multisig/MultiSigVault.sol\":7855:7888  _executeWithdraw(proposal.amount) */\n      tag_265\n        /* \"projects/02-access-control/contracts/04-multisig/MultiSigVault.sol\":7872:7880  proposal */\n      dup2\n        /* \"projects/02-access-control/contracts/04-multisig/MultiSigVault.sol\":7872:7887  proposal.amount */\n      0x01\n      add\n      sload\n        /* \"projects/02-access-control/contracts/04-multisig/MultiSigVault.sol\":7855:7871  _executeWithdraw */\n      tag_266\n        /* \"projects/02-access-control/contracts/04-multisig/MultiSigVault.sol\":7855:7888  _executeWithdraw(proposal.amount) */\n      jump\t// in\n    tag_265:\n        /* \"projects/02-access-control/contracts/04-multisig/MultiSigVault.sol\":7789:7987  if (proposal.proposalType == ProposalType.WITHDRAW) {... */\n      jump(tag_273)\n    tag_264:\n        /* \"projects/02-access-control/contracts/04-multisig/MultiSigVault.sol\":7934:7952  ProposalType.PAUSE */\n      0x01\n        /* \"projects/02-access-control/contracts/04-multisig/MultiSigVault.sol\":7909:7930  proposal.proposalType */\n      dup2\n      sload\n      shl(0xa0, 0x01)\n      swap1\n      div\n      0xff\n      and\n        /* \"projects/02-access-control/contracts/04-multisig/MultiSigVault.sol\":7909:7952  proposal.proposalType == ProposalType.PAUSE */\n      0x04\n      dup2\n      gt\n      iszero\n      tag_271\n      jumpi\n      tag_271\n      tag_229\n      jump\t// in\n    tag_271:\n      sub\n        /* \"projects/02-access-control/contracts/04-multisig/MultiSigVault.sol\":7905:7987  if (proposal.proposalType == ProposalType.PAUSE) {... */\n      tag_273\n      jumpi\n        /* \"projects/02-access-control/contracts/04-multisig/MultiSigVault.sol\":7968:7976  _pause() */\n      tag_273\n        /* \"projects/02-access-control/contracts/04-multisig/MultiSigVault.sol\":7968:7974  _pause */\n      tag_274\n        /* \"projects/02-access-control/contracts/04-multisig/MultiSigVault.sol\":7968:7976  _pause() */\n      jump\t// in\n    tag_273:\n        /* \"projects/02-access-control/contracts/04-multisig/MultiSigVault.sol\":8010:8050  ProposalExecuted(proposalId, msg.sender) */\n      mload(0x40)\n        /* \"projects/02-access-control/contracts/04-multisig/MultiSigVault.sol\":8039:8049  msg.sender */\n      caller\n      swap1\n        /* \"projects/02-access-control/contracts/04-multisig/MultiSigVault.sol\":8027:8037  proposalId */\n      dup5\n      swap1\n        /* \"projects/02-access-control/contracts/04-multisig/MultiSigVault.sol\":8010:8050  ProposalExecuted(proposalId, msg.sender) */\n      0x9c85b616f29fca57a17eafe71cf9ff82ffef41766e2cf01ea7f8f7878dd3ec24\n      swap1\n      0x00\n      swap1\n      log3\n        /* \"projects/02-access-control/contracts/04-multisig/MultiSigVault.sol\":7169:8057  {... */\n      pop\n        /* \"projects/02-access-control/contracts/04-multisig/MultiSigVault.sol\":7091:8057  function executeProposal(uint256 proposalId) external onlyRole(MULTISIG_ROLE) {... */\n      pop\n      pop\n      jump\t// out\n        /* \"lib/openzeppelin-contracts/contracts/access/AccessControl.sol\":4929:5074  function grantRole(bytes32 role, address account) public virtual override onlyRole(getRoleAdmin(role)) {... */\n    tag_103:\n        /* \"lib/openzeppelin-contracts/contracts/access/AccessControl.sol\":4578:4585  bytes32 */\n      0x00\n        /* \"lib/openzeppelin-contracts/contracts/access/AccessControl.sol\":4604:4616  _roles[role] */\n      dup3\n      dup2\n      mstore\n      0x20\n      dup2\n      swap1\n      mstore\n      0x40\n      swap1\n      keccak256\n        /* \"lib/openzeppelin-contracts/contracts/access/AccessControl.sol\":4604:4626  _roles[role].adminRole */\n      0x01\n      add\n      sload\n        /* \"lib/openzeppelin-contracts/contracts/access/AccessControl.sol\":2631:2647  _checkRole(role) */\n      tag_279\n        /* \"lib/openzeppelin-contracts/contracts/access/AccessControl.sol\":2642:2646  role */\n      dup2\n        /* \"lib/openzeppelin-contracts/contracts/access/AccessControl.sol\":2631:2641  _checkRole */\n      tag_221\n        /* \"lib/openzeppelin-contracts/contracts/access/AccessControl.sol\":2631:2647  _checkRole(role) */\n      jump\t// in\n    tag_279:\n        /* \"lib/openzeppelin-contracts/contracts/access/AccessControl.sol\":5042:5067  _grantRole(role, account) */\n      tag_281\n        /* \"lib/openzeppelin-contracts/contracts/access/AccessControl.sol\":5053:5057  role */\n      dup4\n        /* \"lib/openzeppelin-contracts/contracts/access/AccessControl.sol\":5059:5066  account */\n      dup4\n        /* \"lib/openzeppelin-contracts/contracts/access/AccessControl.sol\":5042:5052  _grantRole */\n      tag_282\n        /* \"lib/openzeppelin-contracts/contracts/access/AccessControl.sol\":5042:5067  _grantRole(role, account) */\n      jump\t// in\n    tag_281:\n        /* \"lib/openzeppelin-contracts/contracts/access/AccessControl.sol\":4929:5074  function grantRole(bytes32 role, address account) public virtual override onlyRole(getRoleAdmin(role)) {... */\n      pop\n      pop\n      pop\n      jump\t// out\n        /* \"lib/openzeppelin-contracts/contracts/access/AccessControl.sol\":6038:6252  function renounceRole(bytes32 role, address account) public virtual override {... */\n    tag_107:\n      sub(shl(0xa0, 0x01), 0x01)\n        /* \"lib/openzeppelin-contracts/contracts/access/AccessControl.sol\":6133:6156  account == _msgSender() */\n      dup2\n      and\n        /* \"lib/openzeppelin-contracts/contracts/utils/Context.sol\":719:729  msg.sender */\n      caller\n        /* \"lib/openzeppelin-contracts/contracts/access/AccessControl.sol\":6133:6156  account == _msgSender() */\n      eq\n        /* \"lib/openzeppelin-contracts/contracts/access/AccessControl.sol\":6125:6208  require(account == _msgSender(), \"AccessControl: can only renounce roles for self\") */\n      tag_286\n      jumpi\n      mload(0x40)\n      shl(0xe5, 0x461bcd)\n      dup2\n      mstore\n        /* \"#utility.yul\":9381:9383   */\n      0x20\n        /* \"lib/openzeppelin-contracts/contracts/access/AccessControl.sol\":6125:6208  require(account == _msgSender(), \"AccessControl: can only renounce roles for self\") */\n      0x04\n      dup3\n      add\n        /* \"#utility.yul\":9363:9384   */\n      mstore\n        /* \"#utility.yul\":9420:9422   */\n      0x2f\n        /* \"#utility.yul\":9400:9418   */\n      0x24\n      dup3\n      add\n        /* \"#utility.yul\":9393:9423   */\n      mstore\n        /* \"#utility.yul\":9459:9493   */\n      0x416363657373436f6e74726f6c3a2063616e206f6e6c792072656e6f756e6365\n        /* \"#utility.yul\":9439:9457   */\n      0x44\n      dup3\n      add\n        /* \"#utility.yul\":9432:9494   */\n      mstore\n      shl(0x89, 0x103937b632b9903337b91039b2b633)\n        /* \"#utility.yul\":9510:9528   */\n      0x64\n      dup3\n      add\n        /* \"#utility.yul\":9503:9548   */\n      mstore\n        /* \"#utility.yul\":9565:9584   */\n      0x84\n      add\n        /* \"lib/openzeppelin-contracts/contracts/access/AccessControl.sol\":6125:6208  require(account == _msgSender(), \"AccessControl: can only renounce roles for self\") */\n      tag_240\n        /* \"#utility.yul\":9179:9590   */\n      jump\n        /* \"lib/openzeppelin-contracts/contracts/access/AccessControl.sol\":6125:6208  require(account == _msgSender(), \"AccessControl: can only renounce roles for self\") */\n    tag_286:\n        /* \"lib/openzeppelin-contracts/contracts/access/AccessControl.sol\":6219:6245  _revokeRole(role, account) */\n      tag_289\n        /* \"lib/openzeppelin-contracts/contracts/access/AccessControl.sol\":6231:6235  role */\n      dup3\n        /* \"lib/openzeppelin-contracts/contracts/access/AccessControl.sol\":6237:6244  account */\n      dup3\n        /* \"lib/openzeppelin-contracts/contracts/access/AccessControl.sol\":6219:6230  _revokeRole */\n      tag_290\n        /* \"lib/openzeppelin-contracts/contracts/access/AccessControl.sol\":6219:6245  _revokeRole(role, account) */\n      jump\t// in\n    tag_289:\n        /* \"lib/openzeppelin-contracts/contracts/access/AccessControl.sol\":6038:6252  function renounceRole(bytes32 role, address account) public virtual override {... */\n      pop\n      pop\n      jump\t// out\n        /* \"projects/02-access-control/contracts/04-multisig/MultiSigVault.sol\":8776:8931  function emergencyPause() external onlyRole(GUARDIAN_ROLE) {... */\n    tag_123:\n        /* \"projects/02-access-control/contracts/04-multisig/MultiSigVault.sol\":1349:1375  keccak256(\"GUARDIAN_ROLE\") */\n      0x55435dd261a4b9b3364963f7738a7a662ad9c84396d64be3365284bb7f0a5041\n        /* \"lib/openzeppelin-contracts/contracts/access/AccessControl.sol\":2631:2647  _checkRole(role) */\n      tag_292\n        /* \"lib/openzeppelin-contracts/contracts/access/AccessControl.sol\":2642:2646  role */\n      dup2\n        /* \"lib/openzeppelin-contracts/contracts/access/AccessControl.sol\":2631:2641  _checkRole */\n      tag_221\n        /* \"lib/openzeppelin-contracts/contracts/access/AccessControl.sol\":2631:2647  _checkRole(role) */\n      jump\t// in\n    tag_292:\n        /* \"projects/02-access-control/contracts/04-multisig/MultiSigVault.sol\":8845:8853  _pause() */\n      tag_294\n        /* \"projects/02-access-control/contracts/04-multisig/MultiSigVault.sol\":8845:8851  _pause */\n      tag_274\n        /* \"projects/02-access-control/contracts/04-multisig/MultiSigVault.sol\":8845:8853  _pause() */\n      jump\t// in\n    tag_294:\n        /* \"projects/02-access-control/contracts/04-multisig/MultiSigVault.sol\":8884:8894  msg.sender */\n      caller\n      sub(shl(0xa0, 0x01), 0x01)\n        /* \"projects/02-access-control/contracts/04-multisig/MultiSigVault.sol\":8868:8924  EmergencyAction(msg.sender, \"Emergency pause activated\") */\n      and\n      0xadd39274de8dd8b809f76ff95f1489f4d93c1ae807bcb035ab8cee8d68a1af1b\n      mload(0x40)\n      tag_295\n      swap1\n        /* \"#utility.yul\":9797:9799   */\n      0x20\n        /* \"#utility.yul\":9779:9800   */\n      dup1\n      dup3\n      mstore\n        /* \"#utility.yul\":9836:9838   */\n      0x19\n        /* \"#utility.yul\":9816:9834   */\n      swap1\n      dup3\n      add\n        /* \"#utility.yul\":9809:9839   */\n      mstore\n        /* \"#utility.yul\":9875:9902   */\n      0x456d657267656e63792070617573652061637469766174656400000000000000\n        /* \"#utility.yul\":9870:9872   */\n      0x40\n        /* \"#utility.yul\":9855:9873   */\n      dup3\n      add\n        /* \"#utility.yul\":9848:9903   */\n      mstore\n        /* \"#utility.yul\":9935:9937   */\n      0x60\n        /* \"#utility.yul\":9920:9938   */\n      add\n      swap1\n        /* \"#utility.yul\":9595:9944   */\n      jump\n        /* \"projects/02-access-control/contracts/04-multisig/MultiSigVault.sol\":8868:8924  EmergencyAction(msg.sender, \"Emergency pause activated\") */\n    tag_295:\n      mload(0x40)\n      dup1\n      swap2\n      sub\n      swap1\n      log2\n        /* \"projects/02-access-control/contracts/04-multisig/MultiSigVault.sol\":8776:8931  function emergencyPause() external onlyRole(GUARDIAN_ROLE) {... */\n      pop\n      jump\t// out\n        /* \"projects/02-access-control/contracts/04-multisig/MultiSigVault.sol\":4550:5409  function createWithdrawProposal(uint256 amount) external onlyRole(MULTISIG_ROLE) returns (uint256) {... */\n    tag_135:\n        /* \"projects/02-access-control/contracts/04-multisig/MultiSigVault.sol\":4640:4647  uint256 */\n      0x00\n      0x00\n      dup1\n      mload\n      0x20\n      data_3f8eb866d258fc640a3f5774e37f33eaf684db99cbe43c28d82b47ac7b936104\n      dup4\n      codecopy\n      dup2\n      mload\n      swap2\n      mstore\n        /* \"lib/openzeppelin-contracts/contracts/access/AccessControl.sol\":2631:2647  _checkRole(role) */\n      tag_300\n        /* \"lib/openzeppelin-contracts/contracts/access/AccessControl.sol\":2642:2646  role */\n      dup2\n        /* \"lib/openzeppelin-contracts/contracts/access/AccessControl.sol\":2631:2641  _checkRole */\n      tag_221\n        /* \"lib/openzeppelin-contracts/contracts/access/AccessControl.sol\":2631:2647  _checkRole(role) */\n      jump\t// in\n    tag_300:\n        /* \"projects/02-access-control/contracts/04-multisig/MultiSigVault.sol\":4676:4677  0 */\n      0x00\n        /* \"projects/02-access-control/contracts/04-multisig/MultiSigVault.sol\":4667:4673  amount */\n      dup4\n        /* \"projects/02-access-control/contracts/04-multisig/MultiSigVault.sol\":4667:4677  amount > 0 */\n      gt\n        /* \"projects/02-access-control/contracts/04-multisig/MultiSigVault.sol\":4659:4711  require(amount > 0, \"Amount must be greater than 0\") */\n      tag_302\n      jumpi\n      mload(0x40)\n      shl(0xe5, 0x461bcd)\n      dup2\n      mstore\n        /* \"#utility.yul\":10151:10153   */\n      0x20\n        /* \"projects/02-access-control/contracts/04-multisig/MultiSigVault.sol\":4659:4711  require(amount > 0, \"Amount must be greater than 0\") */\n      0x04\n      dup3\n      add\n        /* \"#utility.yul\":10133:10154   */\n      mstore\n        /* \"#utility.yul\":10190:10192   */\n      0x1d\n        /* \"#utility.yul\":10170:10188   */\n      0x24\n      dup3\n      add\n        /* \"#utility.yul\":10163:10193   */\n      mstore\n        /* \"#utility.yul\":10229:10260   */\n      0x416d6f756e74206d7573742062652067726561746572207468616e2030000000\n        /* \"#utility.yul\":10209:10227   */\n      0x44\n      dup3\n      add\n        /* \"#utility.yul\":10202:10261   */\n      mstore\n        /* \"#utility.yul\":10278:10296   */\n      0x64\n      add\n        /* \"projects/02-access-control/contracts/04-multisig/MultiSigVault.sol\":4659:4711  require(amount > 0, \"Amount must be greater than 0\") */\n      tag_240\n        /* \"#utility.yul\":9949:10302   */\n      jump\n        /* \"projects/02-access-control/contracts/04-multisig/MultiSigVault.sol\":4659:4711  require(amount > 0, \"Amount must be greater than 0\") */\n    tag_302:\n        /* \"projects/02-access-control/contracts/04-multisig/MultiSigVault.sol\":4739:4760  address(this).balance */\n      selfbalance\n        /* \"projects/02-access-control/contracts/04-multisig/MultiSigVault.sol\":4729:4735  amount */\n      dup4\n        /* \"projects/02-access-control/contracts/04-multisig/MultiSigVault.sol\":4729:4760  amount <= address(this).balance */\n      gt\n      iszero\n        /* \"projects/02-access-control/contracts/04-multisig/MultiSigVault.sol\":4721:4794  require(amount <= address(this).balance, \"Insufficient contract balance\") */\n      tag_305\n      jumpi\n      mload(0x40)\n      shl(0xe5, 0x461bcd)\n      dup2\n      mstore\n        /* \"#utility.yul\":10509:10511   */\n      0x20\n        /* \"projects/02-access-control/contracts/04-multisig/MultiSigVault.sol\":4721:4794  require(amount <= address(this).balance, \"Insufficient contract balance\") */\n      0x04\n      dup3\n      add\n        /* \"#utility.yul\":10491:10512   */\n      mstore\n        /* \"#utility.yul\":10548:10550   */\n      0x1d\n        /* \"#utility.yul\":10528:10546   */\n      0x24\n      dup3\n      add\n        /* \"#utility.yul\":10521:10551   */\n      mstore\n        /* \"#utility.yul\":10587:10618   */\n      0x496e73756666696369656e7420636f6e74726163742062616c616e6365000000\n        /* \"#utility.yul\":10567:10585   */\n      0x44\n      dup3\n      add\n        /* \"#utility.yul\":10560:10619   */\n      mstore\n        /* \"#utility.yul\":10636:10654   */\n      0x64\n      add\n        /* \"projects/02-access-control/contracts/04-multisig/MultiSigVault.sol\":4721:4794  require(amount <= address(this).balance, \"Insufficient contract balance\") */\n      tag_240\n        /* \"#utility.yul\":10307:10660   */\n      jump\n        /* \"projects/02-access-control/contracts/04-multisig/MultiSigVault.sol\":4721:4794  require(amount <= address(this).balance, \"Insufficient contract balance\") */\n    tag_305:\n        /* \"projects/02-access-control/contracts/04-multisig/MultiSigVault.sol\":4822:4835  maxWithdrawal */\n      sload(0x05)\n        /* \"projects/02-access-control/contracts/04-multisig/MultiSigVault.sol\":4812:4818  amount */\n      dup4\n        /* \"projects/02-access-control/contracts/04-multisig/MultiSigVault.sol\":4812:4835  amount <= maxWithdrawal */\n      gt\n      iszero\n        /* \"projects/02-access-control/contracts/04-multisig/MultiSigVault.sol\":4804:4868  require(amount <= maxWithdrawal, \"Exceeds max withdrawal limit\") */\n      tag_308\n      jumpi\n      mload(0x40)\n      shl(0xe5, 0x461bcd)\n      dup2\n      mstore\n        /* \"#utility.yul\":10867:10869   */\n      0x20\n        /* \"projects/02-access-control/contracts/04-multisig/MultiSigVault.sol\":4804:4868  require(amount <= maxWithdrawal, \"Exceeds max withdrawal limit\") */\n      0x04\n      dup3\n      add\n        /* \"#utility.yul\":10849:10870   */\n      mstore\n        /* \"#utility.yul\":10906:10908   */\n      0x1c\n        /* \"#utility.yul\":10886:10904   */\n      0x24\n      dup3\n      add\n        /* \"#utility.yul\":10879:10909   */\n      mstore\n        /* \"#utility.yul\":10945:10975   */\n      0x45786365656473206d6178207769746864726177616c206c696d697400000000\n        /* \"#utility.yul\":10925:10943   */\n      0x44\n      dup3\n      add\n        /* \"#utility.yul\":10918:10976   */\n      mstore\n        /* \"#utility.yul\":10993:11011   */\n      0x64\n      add\n        /* \"projects/02-access-control/contracts/04-multisig/MultiSigVault.sol\":4804:4868  require(amount <= maxWithdrawal, \"Exceeds max withdrawal limit\") */\n      tag_240\n        /* \"#utility.yul\":10665:11017   */\n      jump\n        /* \"projects/02-access-control/contracts/04-multisig/MultiSigVault.sol\":4804:4868  require(amount <= maxWithdrawal, \"Exceeds max withdrawal limit\") */\n    tag_308:\n        /* \"projects/02-access-control/contracts/04-multisig/MultiSigVault.sol\":4887:4910  _proposalId.increment() */\n      tag_311\n        /* \"projects/02-access-control/contracts/04-multisig/MultiSigVault.sol\":4887:4898  _proposalId */\n      0x06\n        /* \"lib/openzeppelin-contracts/contracts/utils/Counters.sol\":1032:1051  counter._value += 1 */\n      dup1\n      sload\n        /* \"lib/openzeppelin-contracts/contracts/utils/Counters.sol\":1050:1051  1 */\n      0x01\n        /* \"lib/openzeppelin-contracts/contracts/utils/Counters.sol\":1032:1051  counter._value += 1 */\n      add\n      swap1\n      sstore\n        /* \"lib/openzeppelin-contracts/contracts/utils/Counters.sol\":945:1068  function increment(Counter storage counter) internal {... */\n      jump\n        /* \"projects/02-access-control/contracts/04-multisig/MultiSigVault.sol\":4887:4910  _proposalId.increment() */\n    tag_311:\n        /* \"projects/02-access-control/contracts/04-multisig/MultiSigVault.sol\":4920:4938  uint256 proposalId */\n      0x00\n        /* \"projects/02-access-control/contracts/04-multisig/MultiSigVault.sol\":4941:4962  _proposalId.current() */\n      tag_312\n        /* \"projects/02-access-control/contracts/04-multisig/MultiSigVault.sol\":4941:4952  _proposalId */\n      0x06\n        /* \"lib/openzeppelin-contracts/contracts/utils/Counters.sol\":918:932  counter._value */\n      sload\n      swap1\n        /* \"lib/openzeppelin-contracts/contracts/utils/Counters.sol\":827:939  function current(Counter storage counter) internal view returns (uint256) {... */\n      jump\n        /* \"projects/02-access-control/contracts/04-multisig/MultiSigVault.sol\":4941:4962  _proposalId.current() */\n    tag_312:\n        /* \"projects/02-access-control/contracts/04-multisig/MultiSigVault.sol\":5005:5289  Proposal({... */\n      0x40\n      dup1\n      mload\n      0x0100\n      dup2\n      add\n      dup3\n      mstore\n        /* \"projects/02-access-control/contracts/04-multisig/MultiSigVault.sol\":5038:5048  msg.sender */\n      caller\n        /* \"projects/02-access-control/contracts/04-multisig/MultiSigVault.sol\":5005:5289  Proposal({... */\n      dup2\n      mstore\n      0x00\n      0x20\n      dup1\n      dup4\n      add\n      dup3\n      dup2\n      mstore\n      dup4\n      dup6\n      add\n      dup11\n      swap1\n      mstore\n      0x60\n      dup5\n      add\n      dup4\n      swap1\n      mstore\n      dup5\n      mload\n      dup1\n      dup4\n      add\n      dup7\n      mstore\n      dup4\n      dup2\n      mstore\n      0x80\n      dup6\n      add\n      mstore\n        /* \"projects/02-access-control/contracts/04-multisig/MultiSigVault.sol\":5204:5219  block.timestamp */\n      timestamp\n        /* \"projects/02-access-control/contracts/04-multisig/MultiSigVault.sol\":5005:5289  Proposal({... */\n      0xa0\n      dup6\n      add\n      mstore\n      0xc0\n      dup5\n      add\n      dup4\n      swap1\n      mstore\n      0xe0\n      dup5\n      add\n      dup4\n      swap1\n      mstore\n        /* \"projects/02-access-control/contracts/04-multisig/MultiSigVault.sol\":4981:5002  proposals[proposalId] */\n      dup6\n      dup4\n      mstore\n        /* \"projects/02-access-control/contracts/04-multisig/MultiSigVault.sol\":4981:4990  proposals */\n      0x07\n        /* \"projects/02-access-control/contracts/04-multisig/MultiSigVault.sol\":4981:5002  proposals[proposalId] */\n      swap1\n      swap2\n      mstore\n      swap3\n      swap1\n      keccak256\n        /* \"projects/02-access-control/contracts/04-multisig/MultiSigVault.sol\":4981:5289  proposals[proposalId] = Proposal({... */\n      dup2\n      mload\n      dup2\n      sload\n      not(sub(shl(0xa0, 0x01), 0x01))\n      dup2\n      and\n      sub(shl(0xa0, 0x01), 0x01)\n      swap1\n      swap3\n      and\n      swap2\n      dup3\n      or\n      dup4\n      sstore\n      swap4\n      mload\n        /* \"projects/02-access-control/contracts/04-multisig/MultiSigVault.sol\":4920:4962  uint256 proposalId = _proposalId.current() */\n      swap5\n      swap6\n      pop\n        /* \"projects/02-access-control/contracts/04-multisig/MultiSigVault.sol\":5005:5289  Proposal({... */\n      swap2\n      swap4\n        /* \"projects/02-access-control/contracts/04-multisig/MultiSigVault.sol\":4981:5002  proposals[proposalId] */\n      swap1\n      swap3\n        /* \"projects/02-access-control/contracts/04-multisig/MultiSigVault.sol\":4981:5289  proposals[proposalId] = Proposal({... */\n      swap1\n      swap2\n        /* \"projects/02-access-control/contracts/04-multisig/MultiSigVault.sol\":4981:5002  proposals[proposalId] */\n      dup4\n      swap2\n      not(sub(shl(0xa8, 0x01), 0x01))\n        /* \"projects/02-access-control/contracts/04-multisig/MultiSigVault.sol\":4981:5289  proposals[proposalId] = Proposal({... */\n      and\n      or\n      shl(0xa0, 0x01)\n      dup4\n      0x04\n      dup2\n      gt\n      iszero\n      tag_316\n      jumpi\n      tag_316\n      tag_229\n      jump\t// in\n    tag_316:\n      mul\n      or\n      swap1\n      sstore\n      pop\n      0x40\n      dup3\n      add\n      mload\n      0x01\n      dup3\n      add\n      sstore\n      0x60\n      dup3\n      add\n      mload\n      0x02\n      dup3\n      add\n      dup1\n      sload\n      not(sub(shl(0xa0, 0x01), 0x01))\n      and\n      sub(shl(0xa0, 0x01), 0x01)\n      swap1\n      swap3\n      and\n      swap2\n      swap1\n      swap2\n      or\n      swap1\n      sstore\n      0x80\n      dup3\n      add\n      mload\n      0x03\n      dup3\n      add\n      swap1\n      tag_317\n      swap1\n      dup3\n      tag_233\n      jump\t// in\n    tag_317:\n      pop\n      0xa0\n      dup3\n      add\n      mload\n      0x04\n      dup3\n      add\n      sstore\n      0xc0\n      dup3\n      add\n      mload\n      0x05\n      swap1\n      swap2\n      add\n      dup1\n      sload\n      0xe0\n      swap1\n      swap4\n      add\n      mload\n      iszero\n      iszero\n      0x0100\n      mul\n      not(0xff00)\n      swap3\n      iszero\n      iszero\n      swap3\n      swap1\n      swap3\n      and\n      not(0xffff)\n      swap1\n      swap4\n      and\n      swap3\n      swap1\n      swap3\n      or\n      or\n      swap1\n      sstore\n        /* \"projects/02-access-control/contracts/04-multisig/MultiSigVault.sol\":5313:5375  ProposalCreated(proposalId, msg.sender, ProposalType.WITHDRAW) */\n      mload(0x40)\n        /* \"projects/02-access-control/contracts/04-multisig/MultiSigVault.sol\":5341:5351  msg.sender */\n      caller\n      swap1\n        /* \"projects/02-access-control/contracts/04-multisig/MultiSigVault.sol\":5329:5339  proposalId */\n      dup3\n      swap1\n        /* \"projects/02-access-control/contracts/04-multisig/MultiSigVault.sol\":5313:5375  ProposalCreated(proposalId, msg.sender, ProposalType.WITHDRAW) */\n      0x876b000c101c27e7aaff6a3254ea503d0e9bf516112d43803bd82989b1355235\n      swap1\n      tag_318\n      swap1\n        /* \"projects/02-access-control/contracts/04-multisig/MultiSigVault.sol\":4981:5289  proposals[proposalId] = Proposal({... */\n      0x00\n      swap1\n        /* \"projects/02-access-control/contracts/04-multisig/MultiSigVault.sol\":5313:5375  ProposalCreated(proposalId, msg.sender, ProposalType.WITHDRAW) */\n      tag_235\n      jump\t// in\n    tag_318:\n      mload(0x40)\n      dup1\n      swap2\n      sub\n      swap1\n      log3\n        /* \"projects/02-access-control/contracts/04-multisig/MultiSigVault.sol\":5392:5402  proposalId */\n      swap2\n      pop\n        /* \"lib/openzeppelin-contracts/contracts/access/AccessControl.sol\":2657:2658  _ */\n    tag_301:\n        /* \"projects/02-access-control/contracts/04-multisig/MultiSigVault.sol\":4550:5409  function createWithdrawProposal(uint256 amount) external onlyRole(MULTISIG_ROLE) returns (uint256) {... */\n      pop\n      swap2\n      swap1\n      pop\n      jump\t// out\n        /* \"lib/openzeppelin-contracts/contracts/access/AccessControl.sol\":3021:3166  function hasRole(bytes32 role, address account) public view virtual override returns (bool) {... */\n    tag_148:\n        /* \"lib/openzeppelin-contracts/contracts/access/AccessControl.sol\":3107:3111  bool */\n      0x00\n        /* \"lib/openzeppelin-contracts/contracts/access/AccessControl.sol\":3130:3142  _roles[role] */\n      swap2\n      dup3\n      mstore\n      0x20\n      dup3\n      dup2\n      mstore\n      0x40\n      dup1\n      dup5\n      keccak256\n      sub(shl(0xa0, 0x01), 0x01)\n        /* \"lib/openzeppelin-contracts/contracts/access/AccessControl.sol\":3130:3159  _roles[role].members[account] */\n      swap4\n      swap1\n      swap4\n      and\n      dup5\n      mstore\n      swap2\n      swap1\n      mstore\n      swap1\n      keccak256\n      sload\n      0xff\n      and\n      swap1\n        /* \"lib/openzeppelin-contracts/contracts/access/AccessControl.sol\":3021:3166  function hasRole(bytes32 role, address account) public view virtual override returns (bool) {... */\n      jump\t// out\n        /* \"projects/02-access-control/contracts/04-multisig/MultiSigVault.sol\":6232:6931  function approveProposal(uint256 proposalId) external onlyRole(MULTISIG_ROLE) {... */\n    tag_157:\n      0x00\n      dup1\n      mload\n      0x20\n      data_3f8eb866d258fc640a3f5774e37f33eaf684db99cbe43c28d82b47ac7b936104\n      dup4\n      codecopy\n      dup2\n      mload\n      swap2\n      mstore\n        /* \"lib/openzeppelin-contracts/contracts/access/AccessControl.sol\":2631:2647  _checkRole(role) */\n      tag_321\n        /* \"lib/openzeppelin-contracts/contracts/access/AccessControl.sol\":2642:2646  role */\n      dup2\n        /* \"lib/openzeppelin-contracts/contracts/access/AccessControl.sol\":2631:2641  _checkRole */\n      tag_221\n        /* \"lib/openzeppelin-contracts/contracts/access/AccessControl.sol\":2631:2647  _checkRole(role) */\n      jump\t// in\n    tag_321:\n        /* \"projects/02-access-control/contracts/04-multisig/MultiSigVault.sol\":6320:6345  Proposal storage proposal */\n      0x00\n        /* \"projects/02-access-control/contracts/04-multisig/MultiSigVault.sol\":6348:6369  proposals[proposalId] */\n      dup3\n      dup2\n      mstore\n        /* \"projects/02-access-control/contracts/04-multisig/MultiSigVault.sol\":6348:6357  proposals */\n      0x07\n        /* \"projects/02-access-control/contracts/04-multisig/MultiSigVault.sol\":6348:6369  proposals[proposalId] */\n      0x20\n      mstore\n      0x40\n      swap1\n      keccak256\n        /* \"projects/02-access-control/contracts/04-multisig/MultiSigVault.sol\":6387:6404  proposal.proposer */\n      dup1\n      sload\n      sub(shl(0xa0, 0x01), 0x01)\n      and\n        /* \"projects/02-access-control/contracts/04-multisig/MultiSigVault.sol\":6379:6446  require(proposal.proposer != address(0), \"Proposal does not exist\") */\n      tag_323\n      jumpi\n      mload(0x40)\n      shl(0xe5, 0x461bcd)\n      dup2\n      mstore\n        /* \"#utility.yul\":7021:7023   */\n      0x20\n        /* \"projects/02-access-control/contracts/04-multisig/MultiSigVault.sol\":6379:6446  require(proposal.proposer != address(0), \"Proposal does not exist\") */\n      0x04\n      dup3\n      add\n        /* \"#utility.yul\":7003:7024   */\n      mstore\n        /* \"#utility.yul\":7060:7062   */\n      0x17\n        /* \"#utility.yul\":7040:7058   */\n      0x24\n      dup3\n      add\n        /* \"#utility.yul\":7033:7063   */\n      mstore\n      shl(0x4a, 0x141c9bdc1bdcd85b08191bd95cc81b9bdd08195e1a5cdd)\n        /* \"#utility.yul\":7079:7097   */\n      0x44\n      dup3\n      add\n        /* \"#utility.yul\":7072:7125   */\n      mstore\n        /* \"#utility.yul\":7142:7160   */\n      0x64\n      add\n        /* \"projects/02-access-control/contracts/04-multisig/MultiSigVault.sol\":6379:6446  require(proposal.proposer != address(0), \"Proposal does not exist\") */\n      tag_240\n        /* \"#utility.yul\":6819:7166   */\n      jump\n        /* \"projects/02-access-control/contracts/04-multisig/MultiSigVault.sol\":6379:6446  require(proposal.proposer != address(0), \"Proposal does not exist\") */\n    tag_323:\n        /* \"projects/02-access-control/contracts/04-multisig/MultiSigVault.sol\":6465:6482  proposal.executed */\n      0x05\n      dup2\n      add\n      sload\n      0xff\n      and\n        /* \"projects/02-access-control/contracts/04-multisig/MultiSigVault.sol\":6464:6482  !proposal.executed */\n      iszero\n        /* \"projects/02-access-control/contracts/04-multisig/MultiSigVault.sol\":6456:6512  require(!proposal.executed, \"Proposal already executed\") */\n      tag_325\n      jumpi\n      mload(0x40)\n      shl(0xe5, 0x461bcd)\n      dup2\n      mstore\n      0x04\n      add\n      tag_240\n      swap1\n      tag_244\n      jump\t// in\n    tag_325:\n        /* \"projects/02-access-control/contracts/04-multisig/MultiSigVault.sol\":6531:6549  proposal.cancelled */\n      0x05\n      dup2\n      add\n      sload\n      0x0100\n      swap1\n      div\n      0xff\n      and\n        /* \"projects/02-access-control/contracts/04-multisig/MultiSigVault.sol\":6530:6549  !proposal.cancelled */\n      iszero\n        /* \"projects/02-access-control/contracts/04-multisig/MultiSigVault.sol\":6522:6572  require(!proposal.cancelled, \"Proposal cancelled\") */\n      tag_327\n      jumpi\n      mload(0x40)\n      shl(0xe5, 0x461bcd)\n      dup2\n      mstore\n        /* \"#utility.yul\":7727:7729   */\n      0x20\n        /* \"projects/02-access-control/contracts/04-multisig/MultiSigVault.sol\":6522:6572  require(!proposal.cancelled, \"Proposal cancelled\") */\n      0x04\n      dup3\n      add\n        /* \"#utility.yul\":7709:7730   */\n      mstore\n        /* \"#utility.yul\":7766:7768   */\n      0x12\n        /* \"#utility.yul\":7746:7764   */\n      0x24\n      dup3\n      add\n        /* \"#utility.yul\":7739:7769   */\n      mstore\n      shl(0x72, 0x141c9bdc1bdcd85b0818d85b98d95b1b1959)\n        /* \"#utility.yul\":7785:7803   */\n      0x44\n      dup3\n      add\n        /* \"#utility.yul\":7778:7826   */\n      mstore\n        /* \"#utility.yul\":7843:7861   */\n      0x64\n      add\n        /* \"projects/02-access-control/contracts/04-multisig/MultiSigVault.sol\":6522:6572  require(!proposal.cancelled, \"Proposal cancelled\") */\n      tag_240\n        /* \"#utility.yul\":7525:7867   */\n      jump\n        /* \"projects/02-access-control/contracts/04-multisig/MultiSigVault.sol\":6522:6572  require(!proposal.cancelled, \"Proposal cancelled\") */\n    tag_327:\n        /* \"projects/02-access-control/contracts/04-multisig/MultiSigVault.sol\":6591:6620  proposalApprovals[proposalId] */\n      0x00\n      dup4\n      dup2\n      mstore\n        /* \"projects/02-access-control/contracts/04-multisig/MultiSigVault.sol\":6591:6608  proposalApprovals */\n      0x08\n        /* \"projects/02-access-control/contracts/04-multisig/MultiSigVault.sol\":6591:6620  proposalApprovals[proposalId] */\n      0x20\n      swap1\n      dup2\n      mstore\n      0x40\n      dup1\n      dup4\n      keccak256\n        /* \"projects/02-access-control/contracts/04-multisig/MultiSigVault.sol\":6621:6631  msg.sender */\n      caller\n        /* \"projects/02-access-control/contracts/04-multisig/MultiSigVault.sol\":6591:6632  proposalApprovals[proposalId][msg.sender] */\n      dup5\n      mstore\n      swap1\n      swap2\n      mstore\n      swap1\n      keccak256\n      sload\n      0xff\n      and\n        /* \"projects/02-access-control/contracts/04-multisig/MultiSigVault.sol\":6590:6632  !proposalApprovals[proposalId][msg.sender] */\n      iszero\n        /* \"projects/02-access-control/contracts/04-multisig/MultiSigVault.sol\":6582:6653  require(!proposalApprovals[proposalId][msg.sender], \"Already approved\") */\n      tag_329\n      jumpi\n      mload(0x40)\n      shl(0xe5, 0x461bcd)\n      dup2\n      mstore\n        /* \"#utility.yul\":11224:11226   */\n      0x20\n        /* \"projects/02-access-control/contracts/04-multisig/MultiSigVault.sol\":6582:6653  require(!proposalApprovals[proposalId][msg.sender], \"Already approved\") */\n      0x04\n      dup3\n      add\n        /* \"#utility.yul\":11206:11227   */\n      mstore\n        /* \"#utility.yul\":11263:11265   */\n      0x10\n        /* \"#utility.yul\":11243:11261   */\n      0x24\n      dup3\n      add\n        /* \"#utility.yul\":11236:11266   */\n      mstore\n      shl(0x82, 0x105b1c9958591e48185c1c1c9bdd9959)\n        /* \"#utility.yul\":11282:11300   */\n      0x44\n      dup3\n      add\n        /* \"#utility.yul\":11275:11321   */\n      mstore\n        /* \"#utility.yul\":11338:11356   */\n      0x64\n      add\n        /* \"projects/02-access-control/contracts/04-multisig/MultiSigVault.sol\":6582:6653  require(!proposalApprovals[proposalId][msg.sender], \"Already approved\") */\n      tag_240\n        /* \"#utility.yul\":11022:11362   */\n      jump\n        /* \"projects/02-access-control/contracts/04-multisig/MultiSigVault.sol\":6582:6653  require(!proposalApprovals[proposalId][msg.sender], \"Already approved\") */\n    tag_329:\n        /* \"projects/02-access-control/contracts/04-multisig/MultiSigVault.sol\":1648:1654  7 days */\n      0x093a80\n        /* \"projects/02-access-control/contracts/04-multisig/MultiSigVault.sol\":6690:6698  proposal */\n      dup2\n        /* \"projects/02-access-control/contracts/04-multisig/MultiSigVault.sol\":6690:6708  proposal.timestamp */\n      0x04\n      add\n      sload\n        /* \"projects/02-access-control/contracts/04-multisig/MultiSigVault.sol\":6690:6726  proposal.timestamp + PROPOSAL_EXPIRY */\n      tag_332\n      swap2\n      swap1\n      tag_252\n      jump\t// in\n    tag_332:\n        /* \"projects/02-access-control/contracts/04-multisig/MultiSigVault.sol\":6671:6686  block.timestamp */\n      timestamp\n        /* \"projects/02-access-control/contracts/04-multisig/MultiSigVault.sol\":6671:6726  block.timestamp <= proposal.timestamp + PROPOSAL_EXPIRY */\n      gt\n      iszero\n        /* \"projects/02-access-control/contracts/04-multisig/MultiSigVault.sol\":6663:6747  require(block.timestamp <= proposal.timestamp + PROPOSAL_EXPIRY, \"Proposal expired\") */\n      tag_333\n      jumpi\n      mload(0x40)\n      shl(0xe5, 0x461bcd)\n      dup2\n      mstore\n        /* \"#utility.yul\":9036:9038   */\n      0x20\n        /* \"projects/02-access-control/contracts/04-multisig/MultiSigVault.sol\":6663:6747  require(block.timestamp <= proposal.timestamp + PROPOSAL_EXPIRY, \"Proposal expired\") */\n      0x04\n      dup3\n      add\n        /* \"#utility.yul\":9018:9039   */\n      mstore\n        /* \"#utility.yul\":9075:9077   */\n      0x10\n        /* \"#utility.yul\":9055:9073   */\n      0x24\n      dup3\n      add\n        /* \"#utility.yul\":9048:9078   */\n      mstore\n      shl(0x82, 0x141c9bdc1bdcd85b08195e1c1a5c9959)\n        /* \"#utility.yul\":9094:9112   */\n      0x44\n      dup3\n      add\n        /* \"#utility.yul\":9087:9133   */\n      mstore\n        /* \"#utility.yul\":9150:9168   */\n      0x64\n      add\n        /* \"projects/02-access-control/contracts/04-multisig/MultiSigVault.sol\":6663:6747  require(block.timestamp <= proposal.timestamp + PROPOSAL_EXPIRY, \"Proposal expired\") */\n      tag_240\n        /* \"#utility.yul\":8834:9174   */\n      jump\n        /* \"projects/02-access-control/contracts/04-multisig/MultiSigVault.sol\":6663:6747  require(block.timestamp <= proposal.timestamp + PROPOSAL_EXPIRY, \"Proposal expired\") */\n    tag_333:\n        /* \"projects/02-access-control/contracts/04-multisig/MultiSigVault.sol\":6766:6795  proposalApprovals[proposalId] */\n      0x00\n      dup4\n      dup2\n      mstore\n        /* \"projects/02-access-control/contracts/04-multisig/MultiSigVault.sol\":6766:6783  proposalApprovals */\n      0x08\n        /* \"projects/02-access-control/contracts/04-multisig/MultiSigVault.sol\":6766:6795  proposalApprovals[proposalId] */\n      0x20\n      swap1\n      dup2\n      mstore\n      0x40\n      dup1\n      dup4\n      keccak256\n        /* \"projects/02-access-control/contracts/04-multisig/MultiSigVault.sol\":6796:6806  msg.sender */\n      caller\n        /* \"projects/02-access-control/contracts/04-multisig/MultiSigVault.sol\":6766:6807  proposalApprovals[proposalId][msg.sender] */\n      dup5\n      mstore\n      dup3\n      mstore\n      dup1\n      dup4\n      keccak256\n        /* \"projects/02-access-control/contracts/04-multisig/MultiSigVault.sol\":6766:6814  proposalApprovals[proposalId][msg.sender] = true */\n      dup1\n      sload\n      not(0xff)\n      and\n        /* \"projects/02-access-control/contracts/04-multisig/MultiSigVault.sol\":6810:6814  true */\n      0x01\n        /* \"projects/02-access-control/contracts/04-multisig/MultiSigVault.sol\":6766:6814  proposalApprovals[proposalId][msg.sender] = true */\n      or\n      swap1\n      sstore\n        /* \"projects/02-access-control/contracts/04-multisig/MultiSigVault.sol\":6824:6858  proposalApprovalCounts[proposalId] */\n      dup6\n      dup4\n      mstore\n        /* \"projects/02-access-control/contracts/04-multisig/MultiSigVault.sol\":6824:6846  proposalApprovalCounts */\n      0x09\n        /* \"projects/02-access-control/contracts/04-multisig/MultiSigVault.sol\":6824:6858  proposalApprovalCounts[proposalId] */\n      swap1\n      swap2\n      mstore\n      dup2\n      keccak256\n        /* \"projects/02-access-control/contracts/04-multisig/MultiSigVault.sol\":6824:6860  proposalApprovalCounts[proposalId]++ */\n      dup1\n      sload\n      swap2\n      tag_335\n      dup4\n      tag_336\n      jump\t// in\n    tag_335:\n      swap1\n      swap2\n      sstore\n      pop\n      pop\n        /* \"projects/02-access-control/contracts/04-multisig/MultiSigVault.sol\":6884:6924  ProposalApproved(proposalId, msg.sender) */\n      mload(0x40)\n        /* \"projects/02-access-control/contracts/04-multisig/MultiSigVault.sol\":6913:6923  msg.sender */\n      caller\n      swap1\n        /* \"projects/02-access-control/contracts/04-multisig/MultiSigVault.sol\":6901:6911  proposalId */\n      dup5\n      swap1\n        /* \"projects/02-access-control/contracts/04-multisig/MultiSigVault.sol\":6884:6924  ProposalApproved(proposalId, msg.sender) */\n      0x049c28adfe50bcf1b76fd95273b6a24566b9f377e52fddc653c3355248dad07a\n      swap1\n      0x00\n      swap1\n      log3\n        /* \"projects/02-access-control/contracts/04-multisig/MultiSigVault.sol\":6310:6931  {... */\n      pop\n        /* \"projects/02-access-control/contracts/04-multisig/MultiSigVault.sol\":6232:6931  function approveProposal(uint256 proposalId) external onlyRole(MULTISIG_ROLE) {... */\n      pop\n      pop\n      jump\t// out\n        /* \"projects/02-access-control/contracts/04-multisig/MultiSigVault.sol\":11558:11663  function getProposalCount() external view returns (uint256) {... */\n    tag_173:\n        /* \"projects/02-access-control/contracts/04-multisig/MultiSigVault.sol\":11609:11616  uint256 */\n      0x00\n        /* \"projects/02-access-control/contracts/04-multisig/MultiSigVault.sol\":11635:11656  _proposalId.current() */\n      tag_339\n        /* \"projects/02-access-control/contracts/04-multisig/MultiSigVault.sol\":11635:11646  _proposalId */\n      0x06\n        /* \"lib/openzeppelin-contracts/contracts/utils/Counters.sol\":918:932  counter._value */\n      sload\n      swap1\n        /* \"lib/openzeppelin-contracts/contracts/utils/Counters.sol\":827:939  function current(Counter storage counter) internal view returns (uint256) {... */\n      jump\n        /* \"projects/02-access-control/contracts/04-multisig/MultiSigVault.sol\":11635:11656  _proposalId.current() */\n    tag_339:\n        /* \"projects/02-access-control/contracts/04-multisig/MultiSigVault.sol\":11628:11656  return _proposalId.current() */\n      swap1\n      pop\n        /* \"projects/02-access-control/contracts/04-multisig/MultiSigVault.sol\":11558:11663  function getProposalCount() external view returns (uint256) {... */\n      swap1\n      jump\t// out\n        /* \"projects/02-access-control/contracts/04-multisig/MultiSigVault.sol\":9953:10572  function getProposal(uint256 proposalId) external view returns (... */\n    tag_178:\n        /* \"projects/02-access-control/contracts/04-multisig/MultiSigVault.sol\":10026:10042  address proposer */\n      0x00\n        /* \"projects/02-access-control/contracts/04-multisig/MultiSigVault.sol\":10271:10292  proposals[proposalId] */\n      dup2\n      dup2\n      mstore\n        /* \"projects/02-access-control/contracts/04-multisig/MultiSigVault.sol\":10271:10280  proposals */\n      0x07\n        /* \"projects/02-access-control/contracts/04-multisig/MultiSigVault.sol\":10271:10292  proposals[proposalId] */\n      0x20\n      mstore\n      0x40\n      dup2\n      keccak256\n        /* \"projects/02-access-control/contracts/04-multisig/MultiSigVault.sol\":10323:10340  proposal.proposer */\n      dup1\n      sload\n      0x01\n        /* \"projects/02-access-control/contracts/04-multisig/MultiSigVault.sol\":10389:10404  proposal.amount */\n      dup3\n      add\n      sload\n        /* \"projects/02-access-control/contracts/04-multisig/MultiSigVault.sol\":10418:10433  proposal.target */\n      0x02\n      dup4\n      add\n      sload\n        /* \"projects/02-access-control/contracts/04-multisig/MultiSigVault.sol\":10474:10492  proposal.timestamp */\n      0x04\n      dup5\n      add\n      sload\n        /* \"projects/02-access-control/contracts/04-multisig/MultiSigVault.sol\":10506:10523  proposal.executed */\n      0x05\n      dup6\n      add\n      sload\n        /* \"projects/02-access-control/contracts/04-multisig/MultiSigVault.sol\":10447:10460  proposal.data */\n      0x03\n      dup7\n      add\n        /* \"projects/02-access-control/contracts/04-multisig/MultiSigVault.sol\":10302:10565  return (... */\n      dup1\n      sload\n        /* \"projects/02-access-control/contracts/04-multisig/MultiSigVault.sol\":10026:10042  address proposer */\n      dup9\n      swap8\n      dup9\n      swap8\n      dup9\n      swap8\n        /* \"projects/02-access-control/contracts/04-multisig/MultiSigVault.sol\":10135:10152  bytes memory data */\n      0x60\n      swap8\n        /* \"projects/02-access-control/contracts/04-multisig/MultiSigVault.sol\":10026:10042  address proposer */\n      dup10\n      swap8\n      dup9\n      swap8\n      dup9\n      swap8\n        /* \"projects/02-access-control/contracts/04-multisig/MultiSigVault.sol\":10271:10292  proposals[proposalId] */\n      swap6\n      swap7\n      sub(shl(0xa0, 0x01), 0x01)\n        /* \"projects/02-access-control/contracts/04-multisig/MultiSigVault.sol\":10323:10340  proposal.proposer */\n      dup1\n      dup8\n      and\n      swap8\n        /* \"projects/02-access-control/contracts/04-multisig/MultiSigVault.sol\":10354:10375  proposal.proposalType */\n      0xff\n      shl(0xa0, 0x01)\n      swap1\n      swap9\n      div\n      dup9\n      and\n      swap8\n        /* \"projects/02-access-control/contracts/04-multisig/MultiSigVault.sol\":10418:10433  proposal.target */\n      swap6\n      swap1\n      swap2\n      and\n      swap5\n        /* \"projects/02-access-control/contracts/04-multisig/MultiSigVault.sol\":10447:10460  proposal.data */\n      swap1\n      swap4\n        /* \"projects/02-access-control/contracts/04-multisig/MultiSigVault.sol\":10474:10492  proposal.timestamp */\n      swap3\n        /* \"projects/02-access-control/contracts/04-multisig/MultiSigVault.sol\":10506:10523  proposal.executed */\n      dup1\n      dup3\n      and\n      swap3\n        /* \"projects/02-access-control/contracts/04-multisig/MultiSigVault.sol\":10323:10340  proposal.proposer */\n      0x0100\n        /* \"projects/02-access-control/contracts/04-multisig/MultiSigVault.sol\":10537:10555  proposal.cancelled */\n      swap1\n      swap2\n      div\n      swap1\n      swap2\n      and\n      swap1\n        /* \"projects/02-access-control/contracts/04-multisig/MultiSigVault.sol\":10447:10460  proposal.data */\n      dup5\n      swap1\n        /* \"projects/02-access-control/contracts/04-multisig/MultiSigVault.sol\":10302:10565  return (... */\n      tag_341\n      swap1\n      tag_211\n      jump\t// in\n    tag_341:\n      dup1\n      0x1f\n      add\n      0x20\n      dup1\n      swap2\n      div\n      mul\n      0x20\n      add\n      mload(0x40)\n      swap1\n      dup2\n      add\n      0x40\n      mstore\n      dup1\n      swap3\n      swap2\n      swap1\n      dup2\n      dup2\n      mstore\n      0x20\n      add\n      dup3\n      dup1\n      sload\n      tag_342\n      swap1\n      tag_211\n      jump\t// in\n    tag_342:\n      dup1\n      iszero\n      tag_343\n      jumpi\n      dup1\n      0x1f\n      lt\n      tag_344\n      jumpi\n      0x0100\n      dup1\n      dup4\n      sload\n      div\n      mul\n      dup4\n      mstore\n      swap2\n      0x20\n      add\n      swap2\n      jump(tag_343)\n    tag_344:\n      dup3\n      add\n      swap2\n      swap1\n      0x00\n      mstore\n      keccak256(0x00, 0x20)\n      swap1\n    tag_345:\n      dup2\n      sload\n      dup2\n      mstore\n      swap1\n      0x01\n      add\n      swap1\n      0x20\n      add\n      dup1\n      dup4\n      gt\n      tag_345\n      jumpi\n      dup3\n      swap1\n      sub\n      0x1f\n      and\n      dup3\n      add\n      swap2\n    tag_343:\n      pop\n      pop\n      pop\n      pop\n      pop\n      swap4\n      pop\n      swap9\n      pop\n      swap9\n      pop\n      swap9\n      pop\n      swap9\n      pop\n      swap9\n      pop\n      swap9\n      pop\n      swap9\n      pop\n      swap9\n      pop\n      pop\n        /* \"projects/02-access-control/contracts/04-multisig/MultiSigVault.sol\":9953:10572  function getProposal(uint256 proposalId) external view returns (... */\n      swap2\n      swap4\n      swap6\n      swap8\n      pop\n      swap2\n      swap4\n      swap6\n      swap8\n      jump\t// out\n        /* \"projects/02-access-control/contracts/04-multisig/MultiSigVault.sol\":4159:4420  function deposit() external payable whenNotPaused {... */\n    tag_181:\n        /* \"lib/openzeppelin-contracts/contracts/security/Pausable.sol\":1239:1258  _requireNotPaused() */\n      tag_347\n        /* \"lib/openzeppelin-contracts/contracts/security/Pausable.sol\":1239:1256  _requireNotPaused */\n      tag_348\n        /* \"lib/openzeppelin-contracts/contracts/security/Pausable.sol\":1239:1258  _requireNotPaused() */\n      jump\t// in\n    tag_347:\n        /* \"projects/02-access-control/contracts/04-multisig/MultiSigVault.sol\":4239:4240  0 */\n      0x00\n        /* \"projects/02-access-control/contracts/04-multisig/MultiSigVault.sol\":4227:4236  msg.value */\n      callvalue\n        /* \"projects/02-access-control/contracts/04-multisig/MultiSigVault.sol\":4227:4240  msg.value > 0 */\n      gt\n        /* \"projects/02-access-control/contracts/04-multisig/MultiSigVault.sol\":4219:4274  require(msg.value > 0, \"Amount must be greater than 0\") */\n      tag_350\n      jumpi\n      mload(0x40)\n      shl(0xe5, 0x461bcd)\n      dup2\n      mstore\n        /* \"#utility.yul\":10151:10153   */\n      0x20\n        /* \"projects/02-access-control/contracts/04-multisig/MultiSigVault.sol\":4219:4274  require(msg.value > 0, \"Amount must be greater than 0\") */\n      0x04\n      dup3\n      add\n        /* \"#utility.yul\":10133:10154   */\n      mstore\n        /* \"#utility.yul\":10190:10192   */\n      0x1d\n        /* \"#utility.yul\":10170:10188   */\n      0x24\n      dup3\n      add\n        /* \"#utility.yul\":10163:10193   */\n      mstore\n        /* \"#utility.yul\":10229:10260   */\n      0x416d6f756e74206d7573742062652067726561746572207468616e2030000000\n        /* \"#utility.yul\":10209:10227   */\n      0x44\n      dup3\n      add\n        /* \"#utility.yul\":10202:10261   */\n      mstore\n        /* \"#utility.yul\":10278:10296   */\n      0x64\n      add\n        /* \"projects/02-access-control/contracts/04-multisig/MultiSigVault.sol\":4219:4274  require(msg.value > 0, \"Amount must be greater than 0\") */\n      tag_240\n        /* \"#utility.yul\":9949:10302   */\n      jump\n        /* \"projects/02-access-control/contracts/04-multisig/MultiSigVault.sol\":4219:4274  require(msg.value > 0, \"Amount must be greater than 0\") */\n    tag_350:\n        /* \"projects/02-access-control/contracts/04-multisig/MultiSigVault.sol\":4302:4312  msg.sender */\n      caller\n        /* \"projects/02-access-control/contracts/04-multisig/MultiSigVault.sol\":4293:4313  balances[msg.sender] */\n      0x00\n      swap1\n      dup2\n      mstore\n        /* \"projects/02-access-control/contracts/04-multisig/MultiSigVault.sol\":4293:4301  balances */\n      0x03\n        /* \"projects/02-access-control/contracts/04-multisig/MultiSigVault.sol\":4293:4313  balances[msg.sender] */\n      0x20\n      mstore\n      0x40\n      dup2\n      keccak256\n        /* \"projects/02-access-control/contracts/04-multisig/MultiSigVault.sol\":4293:4326  balances[msg.sender] += msg.value */\n      dup1\n      sload\n        /* \"projects/02-access-control/contracts/04-multisig/MultiSigVault.sol\":4317:4326  msg.value */\n      callvalue\n      swap3\n        /* \"projects/02-access-control/contracts/04-multisig/MultiSigVault.sol\":4293:4313  balances[msg.sender] */\n      swap1\n        /* \"projects/02-access-control/contracts/04-multisig/MultiSigVault.sol\":4293:4326  balances[msg.sender] += msg.value */\n      tag_352\n      swap1\n        /* \"projects/02-access-control/contracts/04-multisig/MultiSigVault.sol\":4317:4326  msg.value */\n      dup5\n      swap1\n        /* \"projects/02-access-control/contracts/04-multisig/MultiSigVault.sol\":4293:4326  balances[msg.sender] += msg.value */\n      tag_252\n      jump\t// in\n    tag_352:\n      swap3\n      pop\n      pop\n      dup2\n      swap1\n      sstore\n      pop\n        /* \"projects/02-access-control/contracts/04-multisig/MultiSigVault.sol\":4350:4359  msg.value */\n      callvalue\n        /* \"projects/02-access-control/contracts/04-multisig/MultiSigVault.sol\":4336:4346  totalFunds */\n      0x04\n      0x00\n        /* \"projects/02-access-control/contracts/04-multisig/MultiSigVault.sol\":4336:4359  totalFunds += msg.value */\n      dup3\n      dup3\n      sload\n      tag_353\n      swap2\n      swap1\n      tag_252\n      jump\t// in\n    tag_353:\n      swap1\n      swap2\n      sstore\n      pop\n      pop\n        /* \"projects/02-access-control/contracts/04-multisig/MultiSigVault.sol\":4383:4413  Deposit(msg.sender, msg.value) */\n      mload(0x40)\n        /* \"projects/02-access-control/contracts/04-multisig/MultiSigVault.sol\":4403:4412  msg.value */\n      callvalue\n        /* \"#utility.yul\":2594:2619   */\n      dup2\n      mstore\n        /* \"projects/02-access-control/contracts/04-multisig/MultiSigVault.sol\":4391:4401  msg.sender */\n      caller\n      swap1\n        /* \"projects/02-access-control/contracts/04-multisig/MultiSigVault.sol\":4383:4413  Deposit(msg.sender, msg.value) */\n      0xe1fffcc4923d04b559f4d29a8bfc6cda04eb5b0d3c460751c2402c5c5cc9109c\n      swap1\n        /* \"#utility.yul\":2582:2584   */\n      0x20\n        /* \"#utility.yul\":2567:2585   */\n      add\n        /* \"projects/02-access-control/contracts/04-multisig/MultiSigVault.sol\":4383:4413  Deposit(msg.sender, msg.value) */\n      mload(0x40)\n      dup1\n      swap2\n      sub\n      swap1\n      log2\n        /* \"projects/02-access-control/contracts/04-multisig/MultiSigVault.sol\":4159:4420  function deposit() external payable whenNotPaused {... */\n      jump\t// out\n        /* \"lib/openzeppelin-contracts/contracts/access/AccessControl.sol\":5354:5501  function revokeRole(bytes32 role, address account) public virtual override onlyRole(getRoleAdmin(role)) {... */\n    tag_185:\n        /* \"lib/openzeppelin-contracts/contracts/access/AccessControl.sol\":4578:4585  bytes32 */\n      0x00\n        /* \"lib/openzeppelin-contracts/contracts/access/AccessControl.sol\":4604:4616  _roles[role] */\n      dup3\n      dup2\n      mstore\n      0x20\n      dup2\n      swap1\n      mstore\n      0x40\n      swap1\n      keccak256\n        /* \"lib/openzeppelin-contracts/contracts/access/AccessControl.sol\":4604:4626  _roles[role].adminRole */\n      0x01\n      add\n      sload\n        /* \"lib/openzeppelin-contracts/contracts/access/AccessControl.sol\":2631:2647  _checkRole(role) */\n      tag_357\n        /* \"lib/openzeppelin-contracts/contracts/access/AccessControl.sol\":2642:2646  role */\n      dup2\n        /* \"lib/openzeppelin-contracts/contracts/access/AccessControl.sol\":2631:2641  _checkRole */\n      tag_221\n        /* \"lib/openzeppelin-contracts/contracts/access/AccessControl.sol\":2631:2647  _checkRole(role) */\n      jump\t// in\n    tag_357:\n        /* \"lib/openzeppelin-contracts/contracts/access/AccessControl.sol\":5468:5494  _revokeRole(role, account) */\n      tag_281\n        /* \"lib/openzeppelin-contracts/contracts/access/AccessControl.sol\":5480:5484  role */\n      dup4\n        /* \"lib/openzeppelin-contracts/contracts/access/AccessControl.sol\":5486:5493  account */\n      dup4\n        /* \"lib/openzeppelin-contracts/contracts/access/AccessControl.sol\":5468:5479  _revokeRole */\n      tag_290\n        /* \"lib/openzeppelin-contracts/contracts/access/AccessControl.sol\":5468:5494  _revokeRole(role, account) */\n      jump\t// in\n        /* \"projects/02-access-control/contracts/04-multisig/MultiSigVault.sol\":9078:9485  function emergencyWithdraw() external onlyRole(GUARDIAN_ROLE) {... */\n    tag_188:\n        /* \"projects/02-access-control/contracts/04-multisig/MultiSigVault.sol\":1349:1375  keccak256(\"GUARDIAN_ROLE\") */\n      0x55435dd261a4b9b3364963f7738a7a662ad9c84396d64be3365284bb7f0a5041\n        /* \"lib/openzeppelin-contracts/contracts/access/AccessControl.sol\":2631:2647  _checkRole(role) */\n      tag_361\n        /* \"lib/openzeppelin-contracts/contracts/access/AccessControl.sol\":2642:2646  role */\n      dup2\n        /* \"lib/openzeppelin-contracts/contracts/access/AccessControl.sol\":2631:2641  _checkRole */\n      tag_221\n        /* \"lib/openzeppelin-contracts/contracts/access/AccessControl.sol\":2631:2647  _checkRole(role) */\n      jump\t// in\n    tag_361:\n        /* \"projects/02-access-control/contracts/04-multisig/MultiSigVault.sol\":9168:9189  address(this).balance */\n      selfbalance\n        /* \"projects/02-access-control/contracts/04-multisig/MultiSigVault.sol\":9207:9218  balance > 0 */\n      dup1\n        /* \"projects/02-access-control/contracts/04-multisig/MultiSigVault.sol\":9199:9243  require(balance > 0, \"No funds to withdraw\") */\n      tag_363\n      jumpi\n      mload(0x40)\n      shl(0xe5, 0x461bcd)\n      dup2\n      mstore\n        /* \"#utility.yul\":11709:11711   */\n      0x20\n        /* \"projects/02-access-control/contracts/04-multisig/MultiSigVault.sol\":9199:9243  require(balance > 0, \"No funds to withdraw\") */\n      0x04\n      dup3\n      add\n        /* \"#utility.yul\":11691:11712   */\n      mstore\n        /* \"#utility.yul\":11748:11750   */\n      0x14\n        /* \"#utility.yul\":11728:11746   */\n      0x24\n      dup3\n      add\n        /* \"#utility.yul\":11721:11751   */\n      mstore\n      shl(0x60, 0x4e6f2066756e647320746f207769746864726177)\n        /* \"#utility.yul\":11767:11785   */\n      0x44\n      dup3\n      add\n        /* \"#utility.yul\":11760:11810   */\n      mstore\n        /* \"#utility.yul\":11827:11845   */\n      0x64\n      add\n        /* \"projects/02-access-control/contracts/04-multisig/MultiSigVault.sol\":9199:9243  require(balance > 0, \"No funds to withdraw\") */\n      tag_240\n        /* \"#utility.yul\":11507:11851   */\n      jump\n        /* \"projects/02-access-control/contracts/04-multisig/MultiSigVault.sol\":9199:9243  require(balance > 0, \"No funds to withdraw\") */\n    tag_363:\n        /* \"projects/02-access-control/contracts/04-multisig/MultiSigVault.sol\":9275:9276  0 */\n      0x00\n        /* \"projects/02-access-control/contracts/04-multisig/MultiSigVault.sol\":9262:9272  totalFunds */\n      0x04\n        /* \"projects/02-access-control/contracts/04-multisig/MultiSigVault.sol\":9262:9276  totalFunds = 0 */\n      dup2\n      swap1\n      sstore\n        /* \"projects/02-access-control/contracts/04-multisig/MultiSigVault.sol\":9314:9349  msg.sender.call{value: balance}(\"\") */\n      mload(0x40)\n        /* \"projects/02-access-control/contracts/04-multisig/MultiSigVault.sol\":9314:9324  msg.sender */\n      caller\n      swap1\n        /* \"projects/02-access-control/contracts/04-multisig/MultiSigVault.sol\":9337:9344  balance */\n      dup4\n      swap1\n        /* \"projects/02-access-control/contracts/04-multisig/MultiSigVault.sol\":9275:9276  0 */\n      dup4\n        /* \"projects/02-access-control/contracts/04-multisig/MultiSigVault.sol\":9314:9349  msg.sender.call{value: balance}(\"\") */\n      dup2\n        /* \"projects/02-access-control/contracts/04-multisig/MultiSigVault.sol\":9275:9276  0 */\n      dup2\n        /* \"projects/02-access-control/contracts/04-multisig/MultiSigVault.sol\":9314:9349  msg.sender.call{value: balance}(\"\") */\n      dup2\n        /* \"projects/02-access-control/contracts/04-multisig/MultiSigVault.sol\":9337:9344  balance */\n      dup6\n        /* \"projects/02-access-control/contracts/04-multisig/MultiSigVault.sol\":9314:9324  msg.sender */\n      dup8\n        /* \"projects/02-access-control/contracts/04-multisig/MultiSigVault.sol\":9314:9349  msg.sender.call{value: balance}(\"\") */\n      gas\n      call\n      swap3\n      pop\n      pop\n      pop\n      returndatasize\n      dup1\n      0x00\n      dup2\n      eq\n      tag_370\n      jumpi\n      mload(0x40)\n      swap2\n      pop\n      and(add(returndatasize, 0x3f), not(0x1f))\n      dup3\n      add\n      0x40\n      mstore\n      returndatasize\n      dup3\n      mstore\n      returndatasize\n      0x00\n      0x20\n      dup5\n      add\n      returndatacopy\n      jump(tag_369)\n    tag_370:\n      0x60\n      swap2\n      pop\n    tag_369:\n      pop\n        /* \"projects/02-access-control/contracts/04-multisig/MultiSigVault.sol\":9295:9349  (bool success, ) = msg.sender.call{value: balance}(\"\") */\n      pop\n      swap1\n      pop\n        /* \"projects/02-access-control/contracts/04-multisig/MultiSigVault.sol\":9367:9374  success */\n      dup1\n        /* \"projects/02-access-control/contracts/04-multisig/MultiSigVault.sol\":9359:9394  require(success, \"Transfer failed\") */\n      tag_371\n      jumpi\n      mload(0x40)\n      shl(0xe5, 0x461bcd)\n      dup2\n      mstore\n        /* \"#utility.yul\":12268:12270   */\n      0x20\n        /* \"projects/02-access-control/contracts/04-multisig/MultiSigVault.sol\":9359:9394  require(success, \"Transfer failed\") */\n      0x04\n      dup3\n      add\n        /* \"#utility.yul\":12250:12271   */\n      mstore\n        /* \"#utility.yul\":12307:12309   */\n      0x0f\n        /* \"#utility.yul\":12287:12305   */\n      0x24\n      dup3\n      add\n        /* \"#utility.yul\":12280:12310   */\n      mstore\n      shl(0x8a, 0x151c985b9cd9995c8819985a5b1959)\n        /* \"#utility.yul\":12326:12344   */\n      0x44\n      dup3\n      add\n        /* \"#utility.yul\":12319:12364   */\n      mstore\n        /* \"#utility.yul\":12381:12399   */\n      0x64\n      add\n        /* \"projects/02-access-control/contracts/04-multisig/MultiSigVault.sol\":9359:9394  require(success, \"Transfer failed\") */\n      tag_240\n        /* \"#utility.yul\":12066:12405   */\n      jump\n        /* \"projects/02-access-control/contracts/04-multisig/MultiSigVault.sol\":9359:9394  require(success, \"Transfer failed\") */\n    tag_371:\n        /* \"projects/02-access-control/contracts/04-multisig/MultiSigVault.sol\":9434:9444  msg.sender */\n      caller\n      sub(shl(0xa0, 0x01), 0x01)\n        /* \"projects/02-access-control/contracts/04-multisig/MultiSigVault.sol\":9418:9478  EmergencyAction(msg.sender, \"Emergency withdrawal executed\") */\n      and\n      0xadd39274de8dd8b809f76ff95f1489f4d93c1ae807bcb035ab8cee8d68a1af1b\n      mload(0x40)\n      tag_374\n      swap1\n        /* \"#utility.yul\":12612:12614   */\n      0x20\n        /* \"#utility.yul\":12594:12615   */\n      dup1\n      dup3\n      mstore\n        /* \"#utility.yul\":12651:12653   */\n      0x1d\n        /* \"#utility.yul\":12631:12649   */\n      swap1\n      dup3\n      add\n        /* \"#utility.yul\":12624:12654   */\n      mstore\n        /* \"#utility.yul\":12690:12721   */\n      0x456d657267656e6379207769746864726177616c206578656375746564000000\n        /* \"#utility.yul\":12685:12687   */\n      0x40\n        /* \"#utility.yul\":12670:12688   */\n      dup3\n      add\n        /* \"#utility.yul\":12663:12722   */\n      mstore\n        /* \"#utility.yul\":12754:12756   */\n      0x60\n        /* \"#utility.yul\":12739:12757   */\n      add\n      swap1\n        /* \"#utility.yul\":12410:12763   */\n      jump\n        /* \"projects/02-access-control/contracts/04-multisig/MultiSigVault.sol\":9418:9478  EmergencyAction(msg.sender, \"Emergency withdrawal executed\") */\n    tag_374:\n      mload(0x40)\n      dup1\n      swap2\n      sub\n      swap1\n      log2\n        /* \"projects/02-access-control/contracts/04-multisig/MultiSigVault.sol\":9140:9485  {... */\n      pop\n      pop\n        /* \"projects/02-access-control/contracts/04-multisig/MultiSigVault.sol\":9078:9485  function emergencyWithdraw() external onlyRole(GUARDIAN_ROLE) {... */\n      pop\n      jump\t// out\n        /* \"projects/02-access-control/contracts/04-multisig/MultiSigVault.sol\":8192:8632  function cancelProposal(uint256 proposalId) external {... */\n    tag_196:\n        /* \"projects/02-access-control/contracts/04-multisig/MultiSigVault.sol\":8255:8280  Proposal storage proposal */\n      0x00\n        /* \"projects/02-access-control/contracts/04-multisig/MultiSigVault.sol\":8283:8304  proposals[proposalId] */\n      dup2\n      dup2\n      mstore\n        /* \"projects/02-access-control/contracts/04-multisig/MultiSigVault.sol\":8283:8292  proposals */\n      0x07\n        /* \"projects/02-access-control/contracts/04-multisig/MultiSigVault.sol\":8283:8304  proposals[proposalId] */\n      0x20\n      mstore\n      0x40\n      swap1\n      keccak256\n        /* \"projects/02-access-control/contracts/04-multisig/MultiSigVault.sol\":8322:8339  proposal.proposer */\n      dup1\n      sload\n      sub(shl(0xa0, 0x01), 0x01)\n      and\n        /* \"projects/02-access-control/contracts/04-multisig/MultiSigVault.sol\":8343:8353  msg.sender */\n      caller\n        /* \"projects/02-access-control/contracts/04-multisig/MultiSigVault.sol\":8322:8353  proposal.proposer == msg.sender */\n      eq\n        /* \"projects/02-access-control/contracts/04-multisig/MultiSigVault.sol\":8314:8382  require(proposal.proposer == msg.sender, \"Only proposer can cancel\") */\n      tag_377\n      jumpi\n      mload(0x40)\n      shl(0xe5, 0x461bcd)\n      dup2\n      mstore\n        /* \"#utility.yul\":12970:12972   */\n      0x20\n        /* \"projects/02-access-control/contracts/04-multisig/MultiSigVault.sol\":8314:8382  require(proposal.proposer == msg.sender, \"Only proposer can cancel\") */\n      0x04\n      dup3\n      add\n        /* \"#utility.yul\":12952:12973   */\n      mstore\n        /* \"#utility.yul\":13009:13011   */\n      0x18\n        /* \"#utility.yul\":12989:13007   */\n      0x24\n      dup3\n      add\n        /* \"#utility.yul\":12982:13012   */\n      mstore\n        /* \"#utility.yul\":13048:13074   */\n      0x4f6e6c792070726f706f7365722063616e2063616e63656c0000000000000000\n        /* \"#utility.yul\":13028:13046   */\n      0x44\n      dup3\n      add\n        /* \"#utility.yul\":13021:13075   */\n      mstore\n        /* \"#utility.yul\":13092:13110   */\n      0x64\n      add\n        /* \"projects/02-access-control/contracts/04-multisig/MultiSigVault.sol\":8314:8382  require(proposal.proposer == msg.sender, \"Only proposer can cancel\") */\n      tag_240\n        /* \"#utility.yul\":12768:13116   */\n      jump\n        /* \"projects/02-access-control/contracts/04-multisig/MultiSigVault.sol\":8314:8382  require(proposal.proposer == msg.sender, \"Only proposer can cancel\") */\n    tag_377:\n        /* \"projects/02-access-control/contracts/04-multisig/MultiSigVault.sol\":8401:8418  proposal.executed */\n      0x05\n      dup2\n      add\n      sload\n      0xff\n      and\n        /* \"projects/02-access-control/contracts/04-multisig/MultiSigVault.sol\":8400:8418  !proposal.executed */\n      iszero\n        /* \"projects/02-access-control/contracts/04-multisig/MultiSigVault.sol\":8392:8448  require(!proposal.executed, \"Proposal already executed\") */\n      tag_380\n      jumpi\n      mload(0x40)\n      shl(0xe5, 0x461bcd)\n      dup2\n      mstore\n      0x04\n      add\n      tag_240\n      swap1\n      tag_244\n      jump\t// in\n    tag_380:\n        /* \"projects/02-access-control/contracts/04-multisig/MultiSigVault.sol\":8467:8485  proposal.cancelled */\n      0x05\n      dup2\n      add\n      sload\n      0x0100\n      swap1\n      div\n      0xff\n      and\n        /* \"projects/02-access-control/contracts/04-multisig/MultiSigVault.sol\":8466:8485  !proposal.cancelled */\n      iszero\n        /* \"projects/02-access-control/contracts/04-multisig/MultiSigVault.sol\":8458:8516  require(!proposal.cancelled, \"Proposal already cancelled\") */\n      tag_382\n      jumpi\n      mload(0x40)\n      shl(0xe5, 0x461bcd)\n      dup2\n      mstore\n        /* \"#utility.yul\":13323:13325   */\n      0x20\n        /* \"projects/02-access-control/contracts/04-multisig/MultiSigVault.sol\":8458:8516  require(!proposal.cancelled, \"Proposal already cancelled\") */\n      0x04\n      dup3\n      add\n        /* \"#utility.yul\":13305:13326   */\n      mstore\n        /* \"#utility.yul\":13362:13364   */\n      0x1a\n        /* \"#utility.yul\":13342:13360   */\n      0x24\n      dup3\n      add\n        /* \"#utility.yul\":13335:13365   */\n      mstore\n        /* \"#utility.yul\":13401:13429   */\n      0x50726f706f73616c20616c72656164792063616e63656c6c6564000000000000\n        /* \"#utility.yul\":13381:13399   */\n      0x44\n      dup3\n      add\n        /* \"#utility.yul\":13374:13430   */\n      mstore\n        /* \"#utility.yul\":13447:13465   */\n      0x64\n      add\n        /* \"projects/02-access-control/contracts/04-multisig/MultiSigVault.sol\":8458:8516  require(!proposal.cancelled, \"Proposal already cancelled\") */\n      tag_240\n        /* \"#utility.yul\":13121:13471   */\n      jump\n        /* \"projects/02-access-control/contracts/04-multisig/MultiSigVault.sol\":8458:8516  require(!proposal.cancelled, \"Proposal already cancelled\") */\n    tag_382:\n        /* \"projects/02-access-control/contracts/04-multisig/MultiSigVault.sol\":8535:8553  proposal.cancelled */\n      0x05\n      dup2\n      add\n        /* \"projects/02-access-control/contracts/04-multisig/MultiSigVault.sol\":8535:8560  proposal.cancelled = true */\n      dup1\n      sload\n      not(0xff00)\n      and\n      0x0100\n      or\n      swap1\n      sstore\n        /* \"projects/02-access-control/contracts/04-multisig/MultiSigVault.sol\":8584:8625  ProposalCancelled(proposalId, msg.sender) */\n      mload(0x40)\n        /* \"projects/02-access-control/contracts/04-multisig/MultiSigVault.sol\":8614:8624  msg.sender */\n      caller\n      swap1\n        /* \"projects/02-access-control/contracts/04-multisig/MultiSigVault.sol\":8602:8612  proposalId */\n      dup4\n      swap1\n        /* \"projects/02-access-control/contracts/04-multisig/MultiSigVault.sol\":8584:8625  ProposalCancelled(proposalId, msg.sender) */\n      0x74c34a008ce735d9fcf0bd03a9b238d212ad4c441c020661f4ffbb6442645b85\n      swap1\n        /* \"projects/02-access-control/contracts/04-multisig/MultiSigVault.sol\":8535:8560  proposal.cancelled = true */\n      0x00\n      swap1\n        /* \"projects/02-access-control/contracts/04-multisig/MultiSigVault.sol\":8584:8625  ProposalCancelled(proposalId, msg.sender) */\n      log3\n        /* \"projects/02-access-control/contracts/04-multisig/MultiSigVault.sol\":8245:8632  {... */\n      pop\n        /* \"projects/02-access-control/contracts/04-multisig/MultiSigVault.sol\":8192:8632  function cancelProposal(uint256 proposalId) external {... */\n      pop\n      jump\t// out\n        /* \"lib/openzeppelin-contracts/contracts/access/AccessControl.sol\":2732:2934  function supportsInterface(bytes4 interfaceId) public view virtual override returns (bool) {... */\n    tag_218:\n        /* \"lib/openzeppelin-contracts/contracts/access/AccessControl.sol\":2817:2821  bool */\n      0x00\n      not(sub(shl(0xe0, 0x01), 0x01))\n        /* \"lib/openzeppelin-contracts/contracts/access/AccessControl.sol\":2840:2887  interfaceId == type(IAccessControl).interfaceId */\n      dup3\n      and\n      shl(0xe0, 0x7965db0b)\n      eq\n      dup1\n        /* \"lib/openzeppelin-contracts/contracts/access/AccessControl.sol\":2840:2927  interfaceId == type(IAccessControl).interfaceId || super.supportsInterface(interfaceId) */\n      tag_217\n      jumpi\n      pop\n      shl(0xe0, 0x01ffc9a7)\n      not(sub(shl(0xe0, 0x01), 0x01))\n        /* \"lib/openzeppelin-contracts/contracts/utils/introspection/ERC165.sol\":937:977  interfaceId == type(IERC165).interfaceId */\n      dup4\n      and\n      eq\n        /* \"lib/openzeppelin-contracts/contracts/access/AccessControl.sol\":2891:2927  super.supportsInterface(interfaceId) */\n      tag_217\n        /* \"lib/openzeppelin-contracts/contracts/utils/introspection/ERC165.sol\":829:984  function supportsInterface(bytes4 interfaceId) public view virtual override returns (bool) {... */\n      jump\n        /* \"lib/openzeppelin-contracts/contracts/access/AccessControl.sol\":3460:3563  function _checkRole(bytes32 role) internal view virtual {... */\n    tag_221:\n        /* \"lib/openzeppelin-contracts/contracts/access/AccessControl.sol\":3526:3556  _checkRole(role, _msgSender()) */\n      tag_391\n        /* \"lib/openzeppelin-contracts/contracts/access/AccessControl.sol\":3537:3541  role */\n      dup2\n        /* \"lib/openzeppelin-contracts/contracts/utils/Context.sol\":719:729  msg.sender */\n      caller\n        /* \"lib/openzeppelin-contracts/contracts/access/AccessControl.sol\":3526:3536  _checkRole */\n      tag_393\n        /* \"lib/openzeppelin-contracts/contracts/access/AccessControl.sol\":3526:3556  _checkRole(role, _msgSender()) */\n      jump\t// in\n    tag_391:\n        /* \"lib/openzeppelin-contracts/contracts/access/AccessControl.sol\":3460:3563  function _checkRole(bytes32 role) internal view virtual {... */\n      pop\n      jump\t// out\n        /* \"projects/02-access-control/contracts/04-multisig/MultiSigVault.sol\":9593:9850  function _executeWithdraw(uint256 amount) internal {... */\n    tag_266:\n        /* \"projects/02-access-control/contracts/04-multisig/MultiSigVault.sol\":9668:9674  amount */\n      dup1\n        /* \"projects/02-access-control/contracts/04-multisig/MultiSigVault.sol\":9654:9664  totalFunds */\n      0x04\n      0x00\n        /* \"projects/02-access-control/contracts/04-multisig/MultiSigVault.sol\":9654:9674  totalFunds -= amount */\n      dup3\n      dup3\n      sload\n      tag_397\n      swap2\n      swap1\n      tag_398\n      jump\t// in\n    tag_397:\n      swap1\n      swap2\n      sstore\n      pop\n      pop\n        /* \"projects/02-access-control/contracts/04-multisig/MultiSigVault.sol\":9712:9746  msg.sender.call{value: amount}(\"\") */\n      mload(0x40)\n        /* \"projects/02-access-control/contracts/04-multisig/MultiSigVault.sol\":9694:9706  bool success */\n      0x00\n      swap1\n        /* \"projects/02-access-control/contracts/04-multisig/MultiSigVault.sol\":9712:9722  msg.sender */\n      caller\n      swap1\n        /* \"projects/02-access-control/contracts/04-multisig/MultiSigVault.sol\":9735:9741  amount */\n      dup4\n      swap1\n        /* \"projects/02-access-control/contracts/04-multisig/MultiSigVault.sol\":9694:9706  bool success */\n      dup4\n        /* \"projects/02-access-control/contracts/04-multisig/MultiSigVault.sol\":9712:9746  msg.sender.call{value: amount}(\"\") */\n      dup2\n        /* \"projects/02-access-control/contracts/04-multisig/MultiSigVault.sol\":9694:9706  bool success */\n      dup2\n        /* \"projects/02-access-control/contracts/04-multisig/MultiSigVault.sol\":9712:9746  msg.sender.call{value: amount}(\"\") */\n      dup2\n        /* \"projects/02-access-control/contracts/04-multisig/MultiSigVault.sol\":9735:9741  amount */\n      dup6\n        /* \"projects/02-access-control/contracts/04-multisig/MultiSigVault.sol\":9712:9722  msg.sender */\n      dup8\n        /* \"projects/02-access-control/contracts/04-multisig/MultiSigVault.sol\":9712:9746  msg.sender.call{value: amount}(\"\") */\n      gas\n      call\n      swap3\n      pop\n      pop\n      pop\n      returndatasize\n      dup1\n      0x00\n      dup2\n      eq\n      tag_402\n      jumpi\n      mload(0x40)\n      swap2\n      pop\n      and(add(returndatasize, 0x3f), not(0x1f))\n      dup3\n      add\n      0x40\n      mstore\n      returndatasize\n      dup3\n      mstore\n      returndatasize\n      0x00\n      0x20\n      dup5\n      add\n      returndatacopy\n      jump(tag_401)\n    tag_402:\n      0x60\n      swap2\n      pop\n    tag_401:\n      pop\n        /* \"projects/02-access-control/contracts/04-multisig/MultiSigVault.sol\":9693:9746  (bool success, ) = msg.sender.call{value: amount}(\"\") */\n      pop\n      swap1\n      pop\n        /* \"projects/02-access-control/contracts/04-multisig/MultiSigVault.sol\":9764:9771  success */\n      dup1\n        /* \"projects/02-access-control/contracts/04-multisig/MultiSigVault.sol\":9756:9791  require(success, \"Transfer failed\") */\n      tag_403\n      jumpi\n      mload(0x40)\n      shl(0xe5, 0x461bcd)\n      dup2\n      mstore\n        /* \"#utility.yul\":12268:12270   */\n      0x20\n        /* \"projects/02-access-control/contracts/04-multisig/MultiSigVault.sol\":9756:9791  require(success, \"Transfer failed\") */\n      0x04\n      dup3\n      add\n        /* \"#utility.yul\":12250:12271   */\n      mstore\n        /* \"#utility.yul\":12307:12309   */\n      0x0f\n        /* \"#utility.yul\":12287:12305   */\n      0x24\n      dup3\n      add\n        /* \"#utility.yul\":12280:12310   */\n      mstore\n      shl(0x8a, 0x151c985b9cd9995c8819985a5b1959)\n        /* \"#utility.yul\":12326:12344   */\n      0x44\n      dup3\n      add\n        /* \"#utility.yul\":12319:12364   */\n      mstore\n        /* \"#utility.yul\":12381:12399   */\n      0x64\n      add\n        /* \"projects/02-access-control/contracts/04-multisig/MultiSigVault.sol\":9756:9791  require(success, \"Transfer failed\") */\n      tag_240\n        /* \"#utility.yul\":12066:12405   */\n      jump\n        /* \"projects/02-access-control/contracts/04-multisig/MultiSigVault.sol\":9756:9791  require(success, \"Transfer failed\") */\n    tag_403:\n        /* \"projects/02-access-control/contracts/04-multisig/MultiSigVault.sol\":9815:9843  Withdraw(msg.sender, amount) */\n      mload(0x40)\n        /* \"#utility.yul\":2594:2619   */\n      dup3\n      dup2\n      mstore\n        /* \"projects/02-access-control/contracts/04-multisig/MultiSigVault.sol\":9824:9834  msg.sender */\n      caller\n      swap1\n        /* \"projects/02-access-control/contracts/04-multisig/MultiSigVault.sol\":9815:9843  Withdraw(msg.sender, amount) */\n      0x884edad9ce6fa2440d8a54cc123490eb96d2768479d49ff9c7366125a9424364\n      swap1\n        /* \"#utility.yul\":2582:2584   */\n      0x20\n        /* \"#utility.yul\":2567:2585   */\n      add\n        /* \"projects/02-access-control/contracts/04-multisig/MultiSigVault.sol\":9815:9843  Withdraw(msg.sender, amount) */\n      mload(0x40)\n      dup1\n      swap2\n      sub\n      swap1\n      log2\n        /* \"projects/02-access-control/contracts/04-multisig/MultiSigVault.sol\":9644:9850  {... */\n      pop\n        /* \"projects/02-access-control/contracts/04-multisig/MultiSigVault.sol\":9593:9850  function _executeWithdraw(uint256 amount) internal {... */\n      pop\n      jump\t// out\n        /* \"lib/openzeppelin-contracts/contracts/security/Pausable.sol\":2186:2301  function _pause() internal virtual whenNotPaused {... */\n    tag_274:\n        /* \"lib/openzeppelin-contracts/contracts/security/Pausable.sol\":1239:1258  _requireNotPaused() */\n      tag_407\n        /* \"lib/openzeppelin-contracts/contracts/security/Pausable.sol\":1239:1256  _requireNotPaused */\n      tag_348\n        /* \"lib/openzeppelin-contracts/contracts/security/Pausable.sol\":1239:1258  _requireNotPaused() */\n      jump\t// in\n    tag_407:\n        /* \"lib/openzeppelin-contracts/contracts/security/Pausable.sol\":2245:2252  _paused */\n      0x02\n        /* \"lib/openzeppelin-contracts/contracts/security/Pausable.sol\":2245:2259  _paused = true */\n      dup1\n      sload\n      not(0xff)\n      and\n        /* \"lib/openzeppelin-contracts/contracts/security/Pausable.sol\":2255:2259  true */\n      0x01\n        /* \"lib/openzeppelin-contracts/contracts/security/Pausable.sol\":2245:2259  _paused = true */\n      or\n      swap1\n      sstore\n        /* \"lib/openzeppelin-contracts/contracts/security/Pausable.sol\":2274:2294  Paused(_msgSender()) */\n      0x62e78cea01bee320cd4e420270b5ea74000d11b0c9f74754ebdbfc544b05a258\n        /* \"lib/openzeppelin-contracts/contracts/security/Pausable.sol\":2281:2293  _msgSender() */\n      tag_409\n        /* \"lib/openzeppelin-contracts/contracts/utils/Context.sol\":719:729  msg.sender */\n      caller\n      swap1\n        /* \"lib/openzeppelin-contracts/contracts/utils/Context.sol\":640:736  function _msgSender() internal view virtual returns (address) {... */\n      jump\n        /* \"lib/openzeppelin-contracts/contracts/security/Pausable.sol\":2281:2293  _msgSender() */\n    tag_409:\n        /* \"lib/openzeppelin-contracts/contracts/security/Pausable.sol\":2274:2294  Paused(_msgSender()) */\n      mload(0x40)\n      sub(shl(0xa0, 0x01), 0x01)\n        /* \"#utility.yul\":13773:13805   */\n      swap1\n      swap2\n      and\n        /* \"#utility.yul\":13755:13806   */\n      dup2\n      mstore\n        /* \"#utility.yul\":13743:13745   */\n      0x20\n        /* \"#utility.yul\":13728:13746   */\n      add\n        /* \"lib/openzeppelin-contracts/contracts/security/Pausable.sol\":2274:2294  Paused(_msgSender()) */\n      mload(0x40)\n      dup1\n      swap2\n      sub\n      swap1\n      log1\n        /* \"lib/openzeppelin-contracts/contracts/security/Pausable.sol\":2186:2301  function _pause() internal virtual whenNotPaused {... */\n      jump\t// out\n        /* \"lib/openzeppelin-contracts/contracts/access/AccessControl.sol\":7587:7820  function _grantRole(bytes32 role, address account) internal virtual {... */\n    tag_282:\n        /* \"lib/openzeppelin-contracts/contracts/access/AccessControl.sol\":7670:7692  hasRole(role, account) */\n      tag_413\n        /* \"lib/openzeppelin-contracts/contracts/access/AccessControl.sol\":7678:7682  role */\n      dup3\n        /* \"lib/openzeppelin-contracts/contracts/access/AccessControl.sol\":7684:7691  account */\n      dup3\n        /* \"lib/openzeppelin-contracts/contracts/access/AccessControl.sol\":7670:7677  hasRole */\n      tag_148\n        /* \"lib/openzeppelin-contracts/contracts/access/AccessControl.sol\":7670:7692  hasRole(role, account) */\n      jump\t// in\n    tag_413:\n        /* \"lib/openzeppelin-contracts/contracts/access/AccessControl.sol\":7665:7814  if (!hasRole(role, account)) {... */\n      tag_289\n      jumpi\n        /* \"lib/openzeppelin-contracts/contracts/access/AccessControl.sol\":7708:7714  _roles */\n      0x00\n        /* \"lib/openzeppelin-contracts/contracts/access/AccessControl.sol\":7708:7720  _roles[role] */\n      dup3\n      dup2\n      mstore\n      0x20\n      dup2\n      dup2\n      mstore\n      0x40\n      dup1\n      dup4\n      keccak256\n      sub(shl(0xa0, 0x01), 0x01)\n        /* \"lib/openzeppelin-contracts/contracts/access/AccessControl.sol\":7708:7737  _roles[role].members[account] */\n      dup6\n      and\n      dup5\n      mstore\n      swap1\n      swap2\n      mstore\n      swap1\n      keccak256\n        /* \"lib/openzeppelin-contracts/contracts/access/AccessControl.sol\":7708:7744  _roles[role].members[account] = true */\n      dup1\n      sload\n      not(0xff)\n      and\n        /* \"lib/openzeppelin-contracts/contracts/access/AccessControl.sol\":7740:7744  true */\n      0x01\n        /* \"lib/openzeppelin-contracts/contracts/access/AccessControl.sol\":7708:7744  _roles[role].members[account] = true */\n      or\n      swap1\n      sstore\n        /* \"lib/openzeppelin-contracts/contracts/access/AccessControl.sol\":7790:7802  _msgSender() */\n      tag_415\n        /* \"lib/openzeppelin-contracts/contracts/utils/Context.sol\":719:729  msg.sender */\n      caller\n      swap1\n        /* \"lib/openzeppelin-contracts/contracts/utils/Context.sol\":640:736  function _msgSender() internal view virtual returns (address) {... */\n      jump\n        /* \"lib/openzeppelin-contracts/contracts/access/AccessControl.sol\":7790:7802  _msgSender() */\n    tag_415:\n      sub(shl(0xa0, 0x01), 0x01)\n        /* \"lib/openzeppelin-contracts/contracts/access/AccessControl.sol\":7763:7803  RoleGranted(role, account, _msgSender()) */\n      and\n        /* \"lib/openzeppelin-contracts/contracts/access/AccessControl.sol\":7781:7788  account */\n      dup2\n      sub(shl(0xa0, 0x01), 0x01)\n        /* \"lib/openzeppelin-contracts/contracts/access/AccessControl.sol\":7763:7803  RoleGranted(role, account, _msgSender()) */\n      and\n        /* \"lib/openzeppelin-contracts/contracts/access/AccessControl.sol\":7775:7779  role */\n      dup4\n        /* \"lib/openzeppelin-contracts/contracts/access/AccessControl.sol\":7763:7803  RoleGranted(role, account, _msgSender()) */\n      0x2f8788117e7eff1d82e926ec794901d17c78024a50270940304540a733656f0d\n      mload(0x40)\n      mload(0x40)\n      dup1\n      swap2\n      sub\n      swap1\n      log4\n        /* \"lib/openzeppelin-contracts/contracts/access/AccessControl.sol\":7587:7820  function _grantRole(bytes32 role, address account) internal virtual {... */\n      pop\n      pop\n      jump\t// out\n        /* \"lib/openzeppelin-contracts/contracts/access/AccessControl.sol\":7991:8225  function _revokeRole(bytes32 role, address account) internal virtual {... */\n    tag_290:\n        /* \"lib/openzeppelin-contracts/contracts/access/AccessControl.sol\":8074:8096  hasRole(role, account) */\n      tag_418\n        /* \"lib/openzeppelin-contracts/contracts/access/AccessControl.sol\":8082:8086  role */\n      dup3\n        /* \"lib/openzeppelin-contracts/contracts/access/AccessControl.sol\":8088:8095  account */\n      dup3\n        /* \"lib/openzeppelin-contracts/contracts/access/AccessControl.sol\":8074:8081  hasRole */\n      tag_148\n        /* \"lib/openzeppelin-contracts/contracts/access/AccessControl.sol\":8074:8096  hasRole(role, account) */\n      jump\t// in\n    tag_418:\n        /* \"lib/openzeppelin-contracts/contracts/access/AccessControl.sol\":8070:8219  if (hasRole(role, account)) {... */\n      iszero\n      tag_289\n      jumpi\n        /* \"lib/openzeppelin-contracts/contracts/access/AccessControl.sol\":8144:8149  false */\n      0x00\n        /* \"lib/openzeppelin-contracts/contracts/access/AccessControl.sol\":8112:8124  _roles[role] */\n      dup3\n      dup2\n      mstore\n      0x20\n      dup2\n      dup2\n      mstore\n      0x40\n      dup1\n      dup4\n      keccak256\n      sub(shl(0xa0, 0x01), 0x01)\n        /* \"lib/openzeppelin-contracts/contracts/access/AccessControl.sol\":8112:8141  _roles[role].members[account] */\n      dup6\n      and\n      dup1\n      dup6\n      mstore\n      swap3\n      mstore\n      dup1\n      dup4\n      keccak256\n        /* \"lib/openzeppelin-contracts/contracts/access/AccessControl.sol\":8112:8149  _roles[role].members[account] = false */\n      dup1\n      sload\n      not(0xff)\n      and\n      swap1\n      sstore\n        /* \"lib/openzeppelin-contracts/contracts/access/AccessControl.sol\":8168:8208  RoleRevoked(role, account, _msgSender()) */\n      mload\n        /* \"lib/openzeppelin-contracts/contracts/utils/Context.sol\":719:729  msg.sender */\n      caller\n      swap3\n        /* \"lib/openzeppelin-contracts/contracts/access/AccessControl.sol\":8112:8124  _roles[role] */\n      dup6\n      swap2\n        /* \"lib/openzeppelin-contracts/contracts/access/AccessControl.sol\":8168:8208  RoleRevoked(role, account, _msgSender()) */\n      0xf6391f5c32d9c69d2a47ea670b442974b53935d1edc7fd64eb21e047a839171b\n      swap2\n        /* \"lib/openzeppelin-contracts/contracts/access/AccessControl.sol\":8144:8149  false */\n      swap1\n        /* \"lib/openzeppelin-contracts/contracts/access/AccessControl.sol\":8168:8208  RoleRevoked(role, account, _msgSender()) */\n      log4\n        /* \"lib/openzeppelin-contracts/contracts/access/AccessControl.sol\":7991:8225  function _revokeRole(bytes32 role, address account) internal virtual {... */\n      pop\n      pop\n      jump\t// out\n        /* \"lib/openzeppelin-contracts/contracts/security/Pausable.sol\":1767:1873  function _requireNotPaused() internal view virtual {... */\n    tag_348:\n        /* \"lib/openzeppelin-contracts/contracts/security/Pausable.sol\":1685:1692  _paused */\n      and(0xff, sload(0x02))\n        /* \"lib/openzeppelin-contracts/contracts/security/Pausable.sol\":1836:1845  !paused() */\n      iszero\n        /* \"lib/openzeppelin-contracts/contracts/security/Pausable.sol\":1828:1866  require(!paused(), \"Pausable: paused\") */\n      tag_423\n      jumpi\n      mload(0x40)\n      shl(0xe5, 0x461bcd)\n      dup2\n      mstore\n        /* \"#utility.yul\":14019:14021   */\n      0x20\n        /* \"lib/openzeppelin-contracts/contracts/security/Pausable.sol\":1828:1866  require(!paused(), \"Pausable: paused\") */\n      0x04\n      dup3\n      add\n        /* \"#utility.yul\":14001:14022   */\n      mstore\n        /* \"#utility.yul\":14058:14060   */\n      0x10\n        /* \"#utility.yul\":14038:14056   */\n      0x24\n      dup3\n      add\n        /* \"#utility.yul\":14031:14061   */\n      mstore\n      shl(0x82, 0x14185d5cd8589b194e881c185d5cd959)\n        /* \"#utility.yul\":14077:14095   */\n      0x44\n      dup3\n      add\n        /* \"#utility.yul\":14070:14116   */\n      mstore\n        /* \"#utility.yul\":14133:14151   */\n      0x64\n      add\n        /* \"lib/openzeppelin-contracts/contracts/security/Pausable.sol\":1828:1866  require(!paused(), \"Pausable: paused\") */\n      tag_240\n        /* \"#utility.yul\":13817:14157   */\n      jump\n        /* \"lib/openzeppelin-contracts/contracts/security/Pausable.sol\":1828:1866  require(!paused(), \"Pausable: paused\") */\n    tag_423:\n        /* \"lib/openzeppelin-contracts/contracts/security/Pausable.sol\":1767:1873  function _requireNotPaused() internal view virtual {... */\n      jump\t// out\n        /* \"lib/openzeppelin-contracts/contracts/access/AccessControl.sol\":3844:4323  function _checkRole(bytes32 role, address account) internal view virtual {... */\n    tag_393:\n        /* \"lib/openzeppelin-contracts/contracts/access/AccessControl.sol\":3932:3954  hasRole(role, account) */\n      tag_428\n        /* \"lib/openzeppelin-contracts/contracts/access/AccessControl.sol\":3940:3944  role */\n      dup3\n        /* \"lib/openzeppelin-contracts/contracts/access/AccessControl.sol\":3946:3953  account */\n      dup3\n        /* \"lib/openzeppelin-contracts/contracts/access/AccessControl.sol\":3932:3939  hasRole */\n      tag_148\n        /* \"lib/openzeppelin-contracts/contracts/access/AccessControl.sol\":3932:3954  hasRole(role, account) */\n      jump\t// in\n    tag_428:\n        /* \"lib/openzeppelin-contracts/contracts/access/AccessControl.sol\":3927:4317  if (!hasRole(role, account)) {... */\n      tag_289\n      jumpi\n        /* \"lib/openzeppelin-contracts/contracts/access/AccessControl.sol\":4115:4143  Strings.toHexString(account) */\n      tag_430\n        /* \"lib/openzeppelin-contracts/contracts/access/AccessControl.sol\":4135:4142  account */\n      dup2\n        /* \"lib/openzeppelin-contracts/contracts/access/AccessControl.sol\":4115:4134  Strings.toHexString */\n      tag_431\n        /* \"lib/openzeppelin-contracts/contracts/access/AccessControl.sol\":4115:4143  Strings.toHexString(account) */\n      jump\t// in\n    tag_430:\n        /* \"lib/openzeppelin-contracts/contracts/access/AccessControl.sol\":4214:4252  Strings.toHexString(uint256(role), 32) */\n      tag_432\n        /* \"lib/openzeppelin-contracts/contracts/access/AccessControl.sol\":4242:4246  role */\n      dup4\n        /* \"lib/openzeppelin-contracts/contracts/access/AccessControl.sol\":4249:4251  32 */\n      0x20\n        /* \"lib/openzeppelin-contracts/contracts/access/AccessControl.sol\":4214:4233  Strings.toHexString */\n      tag_433\n        /* \"lib/openzeppelin-contracts/contracts/access/AccessControl.sol\":4214:4252  Strings.toHexString(uint256(role), 32) */\n      jump\t// in\n    tag_432:\n        /* \"lib/openzeppelin-contracts/contracts/access/AccessControl.sol\":4022:4274  abi.encodePacked(... */\n      add(0x20, mload(0x40))\n      tag_434\n      swap3\n      swap2\n      swap1\n      tag_435\n      jump\t// in\n    tag_434:\n      0x40\n      dup1\n      mload\n      not(0x1f)\n      dup2\n      dup5\n      sub\n      add\n      dup2\n      mstore\n      swap1\n      dup3\n      swap1\n      mstore\n      shl(0xe5, 0x461bcd)\n        /* \"lib/openzeppelin-contracts/contracts/access/AccessControl.sol\":3970:4306  revert(... */\n      dup3\n      mstore\n      tag_240\n      swap2\n      0x04\n      add\n      tag_437\n      jump\t// in\n        /* \"lib/openzeppelin-contracts/contracts/utils/Strings.sol\":2407:2556  function toHexString(address addr) internal pure returns (string memory) {... */\n    tag_431:\n        /* \"lib/openzeppelin-contracts/contracts/utils/Strings.sol\":2465:2478  string memory */\n      0x60\n        /* \"lib/openzeppelin-contracts/contracts/utils/Strings.sol\":2497:2549  toHexString(uint256(uint160(addr)), _ADDRESS_LENGTH) */\n      tag_217\n      sub(shl(0xa0, 0x01), 0x01)\n        /* \"lib/openzeppelin-contracts/contracts/utils/Strings.sol\":2509:2531  uint256(uint160(addr)) */\n      dup4\n      and\n        /* \"lib/openzeppelin-contracts/contracts/utils/Strings.sol\":343:345  20 */\n      0x14\n        /* \"lib/openzeppelin-contracts/contracts/utils/Strings.sol\":1818:2255  function toHexString(uint256 value, uint256 length) internal pure returns (string memory) {... */\n    tag_433:\n        /* \"lib/openzeppelin-contracts/contracts/utils/Strings.sol\":1893:1906  string memory */\n      0x60\n        /* \"lib/openzeppelin-contracts/contracts/utils/Strings.sol\":1918:1937  bytes memory buffer */\n      0x00\n        /* \"lib/openzeppelin-contracts/contracts/utils/Strings.sol\":1950:1960  2 * length */\n      tag_441\n        /* \"lib/openzeppelin-contracts/contracts/utils/Strings.sol\":1954:1960  length */\n      dup4\n        /* \"lib/openzeppelin-contracts/contracts/utils/Strings.sol\":1950:1951  2 */\n      0x02\n        /* \"lib/openzeppelin-contracts/contracts/utils/Strings.sol\":1950:1960  2 * length */\n      tag_442\n      jump\t// in\n    tag_441:\n        /* \"lib/openzeppelin-contracts/contracts/utils/Strings.sol\":1950:1964  2 * length + 2 */\n      tag_443\n      swap1\n        /* \"lib/openzeppelin-contracts/contracts/utils/Strings.sol\":1963:1964  2 */\n      0x02\n        /* \"lib/openzeppelin-contracts/contracts/utils/Strings.sol\":1950:1964  2 * length + 2 */\n      tag_252\n      jump\t// in\n    tag_443:\n        /* \"lib/openzeppelin-contracts/contracts/utils/Strings.sol\":1940:1965  new bytes(2 * length + 2) */\n      0xffffffffffffffff\n      dup2\n      gt\n      iszero\n      tag_445\n      jumpi\n      tag_445\n      tag_446\n      jump\t// in\n    tag_445:\n      mload(0x40)\n      swap1\n      dup1\n      dup3\n      mstore\n      dup1\n      0x1f\n      add\n      not(0x1f)\n      and\n      0x20\n      add\n      dup3\n      add\n      0x40\n      mstore\n      dup1\n      iszero\n      tag_447\n      jumpi\n      0x20\n      dup3\n      add\n      dup2\n      dup1\n      calldatasize\n      dup4\n      calldatacopy\n      add\n      swap1\n      pop\n    tag_447:\n      pop\n        /* \"lib/openzeppelin-contracts/contracts/utils/Strings.sol\":1918:1965  bytes memory buffer = new bytes(2 * length + 2) */\n      swap1\n      pop\n      shl(0xfc, 0x03)\n        /* \"lib/openzeppelin-contracts/contracts/utils/Strings.sol\":1975:1981  buffer */\n      dup2\n        /* \"lib/openzeppelin-contracts/contracts/utils/Strings.sol\":1982:1983  0 */\n      0x00\n        /* \"lib/openzeppelin-contracts/contracts/utils/Strings.sol\":1975:1984  buffer[0] */\n      dup2\n      mload\n      dup2\n      lt\n      tag_449\n      jumpi\n      tag_449\n      tag_450\n      jump\t// in\n    tag_449:\n      0x20\n      add\n      add\n        /* \"lib/openzeppelin-contracts/contracts/utils/Strings.sol\":1975:1990  buffer[0] = \"0\" */\n      swap1\n      not(sub(shl(0xf8, 0x01), 0x01))\n      and\n      swap1\n      dup2\n      0x00\n      byte\n      swap1\n      mstore8\n      pop\n      shl(0xfb, 0x0f)\n        /* \"lib/openzeppelin-contracts/contracts/utils/Strings.sol\":2000:2006  buffer */\n      dup2\n        /* \"lib/openzeppelin-contracts/contracts/utils/Strings.sol\":2007:2008  1 */\n      0x01\n        /* \"lib/openzeppelin-contracts/contracts/utils/Strings.sol\":2000:2009  buffer[1] */\n      dup2\n      mload\n      dup2\n      lt\n      tag_452\n      jumpi\n      tag_452\n      tag_450\n      jump\t// in\n    tag_452:\n      0x20\n      add\n      add\n        /* \"lib/openzeppelin-contracts/contracts/utils/Strings.sol\":2000:2015  buffer[1] = \"x\" */\n      swap1\n      not(sub(shl(0xf8, 0x01), 0x01))\n      and\n      swap1\n      dup2\n      0x00\n      byte\n      swap1\n      mstore8\n      pop\n        /* \"lib/openzeppelin-contracts/contracts/utils/Strings.sol\":2030:2039  uint256 i */\n      0x00\n        /* \"lib/openzeppelin-contracts/contracts/utils/Strings.sol\":2042:2052  2 * length */\n      tag_456\n        /* \"lib/openzeppelin-contracts/contracts/utils/Strings.sol\":2046:2052  length */\n      dup5\n        /* \"lib/openzeppelin-contracts/contracts/utils/Strings.sol\":2042:2043  2 */\n      0x02\n        /* \"lib/openzeppelin-contracts/contracts/utils/Strings.sol\":2042:2052  2 * length */\n      tag_442\n      jump\t// in\n    tag_456:\n        /* \"lib/openzeppelin-contracts/contracts/utils/Strings.sol\":2042:2056  2 * length + 1 */\n      tag_457\n      swap1\n        /* \"lib/openzeppelin-contracts/contracts/utils/Strings.sol\":2055:2056  1 */\n      0x01\n        /* \"lib/openzeppelin-contracts/contracts/utils/Strings.sol\":2042:2056  2 * length + 1 */\n      tag_252\n      jump\t// in\n    tag_457:\n        /* \"lib/openzeppelin-contracts/contracts/utils/Strings.sol\":2030:2056  uint256 i = 2 * length + 1 */\n      swap1\n      pop\n        /* \"lib/openzeppelin-contracts/contracts/utils/Strings.sol\":2025:2153  for (uint256 i = 2 * length + 1; i > 1; --i) {... */\n    tag_453:\n        /* \"lib/openzeppelin-contracts/contracts/utils/Strings.sol\":2062:2063  1 */\n      0x01\n        /* \"lib/openzeppelin-contracts/contracts/utils/Strings.sol\":2058:2059  i */\n      dup2\n        /* \"lib/openzeppelin-contracts/contracts/utils/Strings.sol\":2058:2063  i > 1 */\n      gt\n        /* \"lib/openzeppelin-contracts/contracts/utils/Strings.sol\":2025:2153  for (uint256 i = 2 * length + 1; i > 1; --i) {... */\n      iszero\n      tag_454\n      jumpi\n      shl(0x81, 0x181899199a1a9b1b9c1cb0b131b232b3)\n        /* \"lib/openzeppelin-contracts/contracts/utils/Strings.sol\":2105:2110  value */\n      dup6\n        /* \"lib/openzeppelin-contracts/contracts/utils/Strings.sol\":2113:2116  0xf */\n      0x0f\n        /* \"lib/openzeppelin-contracts/contracts/utils/Strings.sol\":2105:2116  value & 0xf */\n      and\n        /* \"lib/openzeppelin-contracts/contracts/utils/Strings.sol\":2096:2117  _SYMBOLS[value & 0xf] */\n      0x10\n      dup2\n      lt\n      tag_459\n      jumpi\n      tag_459\n      tag_450\n      jump\t// in\n    tag_459:\n      byte\n      0xf8\n      shl\n        /* \"lib/openzeppelin-contracts/contracts/utils/Strings.sol\":2084:2090  buffer */\n      dup3\n        /* \"lib/openzeppelin-contracts/contracts/utils/Strings.sol\":2091:2092  i */\n      dup3\n        /* \"lib/openzeppelin-contracts/contracts/utils/Strings.sol\":2084:2093  buffer[i] */\n      dup2\n      mload\n      dup2\n      lt\n      tag_461\n      jumpi\n      tag_461\n      tag_450\n      jump\t// in\n    tag_461:\n      0x20\n      add\n      add\n        /* \"lib/openzeppelin-contracts/contracts/utils/Strings.sol\":2084:2117  buffer[i] = _SYMBOLS[value & 0xf] */\n      swap1\n      not(sub(shl(0xf8, 0x01), 0x01))\n      and\n      swap1\n      dup2\n      0x00\n      byte\n      swap1\n      mstore8\n      pop\n        /* \"lib/openzeppelin-contracts/contracts/utils/Strings.sol\":2141:2142  4 */\n      0x04\n        /* \"lib/openzeppelin-contracts/contracts/utils/Strings.sol\":2131:2142  value >>= 4 */\n      swap5\n      swap1\n      swap5\n      shr\n      swap4\n        /* \"lib/openzeppelin-contracts/contracts/utils/Strings.sol\":2065:2068  --i */\n      tag_462\n      dup2\n      tag_463\n      jump\t// in\n    tag_462:\n      swap1\n      pop\n        /* \"lib/openzeppelin-contracts/contracts/utils/Strings.sol\":2025:2153  for (uint256 i = 2 * length + 1; i > 1; --i) {... */\n      jump(tag_453)\n    tag_454:\n      pop\n        /* \"lib/openzeppelin-contracts/contracts/utils/Strings.sol\":2170:2180  value == 0 */\n      dup4\n      iszero\n        /* \"lib/openzeppelin-contracts/contracts/utils/Strings.sol\":2162:2217  require(value == 0, \"Strings: hex length insufficient\") */\n      tag_464\n      jumpi\n      mload(0x40)\n      shl(0xe5, 0x461bcd)\n      dup2\n      mstore\n        /* \"#utility.yul\":15851:15853   */\n      0x20\n        /* \"lib/openzeppelin-contracts/contracts/utils/Strings.sol\":2162:2217  require(value == 0, \"Strings: hex length insufficient\") */\n      0x04\n      dup3\n      add\n        /* \"#utility.yul\":15833:15854   */\n      dup2\n      swap1\n      mstore\n        /* \"#utility.yul\":15870:15888   */\n      0x24\n      dup3\n      add\n        /* \"#utility.yul\":15863:15893   */\n      mstore\n        /* \"#utility.yul\":15929:15963   */\n      0x537472696e67733a20686578206c656e67746820696e73756666696369656e74\n        /* \"#utility.yul\":15909:15927   */\n      0x44\n      dup3\n      add\n        /* \"#utility.yul\":15902:15964   */\n      mstore\n        /* \"#utility.yul\":15981:15999   */\n      0x64\n      add\n        /* \"lib/openzeppelin-contracts/contracts/utils/Strings.sol\":2162:2217  require(value == 0, \"Strings: hex length insufficient\") */\n      tag_240\n        /* \"#utility.yul\":15649:16005   */\n      jump\n        /* \"lib/openzeppelin-contracts/contracts/utils/Strings.sol\":2162:2217  require(value == 0, \"Strings: hex length insufficient\") */\n    tag_464:\n        /* \"lib/openzeppelin-contracts/contracts/utils/Strings.sol\":2241:2247  buffer */\n      swap4\n        /* \"lib/openzeppelin-contracts/contracts/utils/Strings.sol\":1818:2255  function toHexString(uint256 value, uint256 length) internal pure returns (string memory) {... */\n      swap3\n      pop\n      pop\n      pop\n      jump\t// out\n        /* \"#utility.yul\":14:194   */\n    tag_51:\n        /* \"#utility.yul\":73:79   */\n      0x00\n        /* \"#utility.yul\":126:128   */\n      0x20\n        /* \"#utility.yul\":114:123   */\n      dup3\n        /* \"#utility.yul\":105:112   */\n      dup5\n        /* \"#utility.yul\":101:124   */\n      sub\n        /* \"#utility.yul\":97:129   */\n      slt\n        /* \"#utility.yul\":94:146   */\n      iszero\n      tag_477\n      jumpi\n        /* \"#utility.yul\":142:143   */\n      0x00\n        /* \"#utility.yul\":139:140   */\n      dup1\n        /* \"#utility.yul\":132:144   */\n      revert\n        /* \"#utility.yul\":94:146   */\n    tag_477:\n      pop\n        /* \"#utility.yul\":165:188   */\n      calldataload\n      swap2\n        /* \"#utility.yul\":14:194   */\n      swap1\n      pop\n      jump\t// out\n        /* \"#utility.yul\":199:326   */\n    tag_229:\n        /* \"#utility.yul\":260:270   */\n      0x4e487b71\n        /* \"#utility.yul\":255:258   */\n      0xe0\n        /* \"#utility.yul\":251:271   */\n      shl\n        /* \"#utility.yul\":248:249   */\n      0x00\n        /* \"#utility.yul\":241:272   */\n      mstore\n        /* \"#utility.yul\":291:295   */\n      0x21\n        /* \"#utility.yul\":288:289   */\n      0x04\n        /* \"#utility.yul\":281:296   */\n      mstore\n        /* \"#utility.yul\":315:319   */\n      0x24\n        /* \"#utility.yul\":312:313   */\n      0x00\n        /* \"#utility.yul\":305:320   */\n      revert\n        /* \"#utility.yul\":331:571   */\n    tag_467:\n        /* \"#utility.yul\":415:416   */\n      0x05\n        /* \"#utility.yul\":408:413   */\n      dup2\n        /* \"#utility.yul\":405:417   */\n      lt\n        /* \"#utility.yul\":395:538   */\n      tag_480\n      jumpi\n        /* \"#utility.yul\":460:470   */\n      0x4e487b71\n        /* \"#utility.yul\":455:458   */\n      0xe0\n        /* \"#utility.yul\":451:471   */\n      shl\n        /* \"#utility.yul\":448:449   */\n      0x00\n        /* \"#utility.yul\":441:472   */\n      mstore\n        /* \"#utility.yul\":495:499   */\n      0x21\n        /* \"#utility.yul\":492:493   */\n      0x04\n        /* \"#utility.yul\":485:500   */\n      mstore\n        /* \"#utility.yul\":523:527   */\n      0x24\n        /* \"#utility.yul\":520:521   */\n      0x00\n        /* \"#utility.yul\":513:528   */\n      revert\n        /* \"#utility.yul\":395:538   */\n    tag_480:\n        /* \"#utility.yul\":547:565   */\n      swap1\n      mstore\n        /* \"#utility.yul\":331:571   */\n      jump\t// out\n        /* \"#utility.yul\":576:826   */\n    tag_468:\n        /* \"#utility.yul\":661:662   */\n      0x00\n        /* \"#utility.yul\":671:784   */\n    tag_482:\n        /* \"#utility.yul\":685:691   */\n      dup4\n        /* \"#utility.yul\":682:683   */\n      dup2\n        /* \"#utility.yul\":679:692   */\n      lt\n        /* \"#utility.yul\":671:784   */\n      iszero\n      tag_484\n      jumpi\n        /* \"#utility.yul\":761:772   */\n      dup2\n      dup2\n      add\n        /* \"#utility.yul\":755:773   */\n      mload\n        /* \"#utility.yul\":742:753   */\n      dup4\n      dup3\n      add\n        /* \"#utility.yul\":735:774   */\n      mstore\n        /* \"#utility.yul\":707:709   */\n      0x20\n        /* \"#utility.yul\":700:710   */\n      add\n        /* \"#utility.yul\":671:784   */\n      jump(tag_482)\n    tag_484:\n      pop\n      pop\n        /* \"#utility.yul\":818:819   */\n      0x00\n        /* \"#utility.yul\":800:816   */\n      swap2\n      add\n        /* \"#utility.yul\":793:820   */\n      mstore\n        /* \"#utility.yul\":576:826   */\n      jump\t// out\n        /* \"#utility.yul\":831:1101   */\n    tag_469:\n        /* \"#utility.yul\":872:875   */\n      0x00\n        /* \"#utility.yul\":910:915   */\n      dup2\n        /* \"#utility.yul\":904:916   */\n      mload\n        /* \"#utility.yul\":937:943   */\n      dup1\n        /* \"#utility.yul\":932:935   */\n      dup5\n        /* \"#utility.yul\":925:944   */\n      mstore\n        /* \"#utility.yul\":953:1029   */\n      tag_486\n        /* \"#utility.yul\":1022:1028   */\n      dup2\n        /* \"#utility.yul\":1015:1019   */\n      0x20\n        /* \"#utility.yul\":1010:1013   */\n      dup7\n        /* \"#utility.yul\":1006:1020   */\n      add\n        /* \"#utility.yul\":999:1003   */\n      0x20\n        /* \"#utility.yul\":992:997   */\n      dup7\n        /* \"#utility.yul\":988:1004   */\n      add\n        /* \"#utility.yul\":953:1029   */\n      tag_468\n      jump\t// in\n    tag_486:\n        /* \"#utility.yul\":1083:1085   */\n      0x1f\n        /* \"#utility.yul\":1062:1077   */\n      add\n      not(0x1f)\n        /* \"#utility.yul\":1058:1087   */\n      and\n        /* \"#utility.yul\":1049:1088   */\n      swap3\n      swap1\n      swap3\n      add\n        /* \"#utility.yul\":1090:1094   */\n      0x20\n        /* \"#utility.yul\":1045:1095   */\n      add\n      swap3\n        /* \"#utility.yul\":831:1101   */\n      swap2\n      pop\n      pop\n      jump\t// out\n        /* \"#utility.yul\":1106:1960   */\n    tag_54:\n      sub(shl(0xa0, 0x01), 0x01)\n        /* \"#utility.yul\":1513:1528   */\n      dup10\n      dup2\n      and\n        /* \"#utility.yul\":1495:1529   */\n      dup3\n      mstore\n        /* \"#utility.yul\":1416:1420   */\n      0x00\n      swap1\n        /* \"#utility.yul\":1445:1448   */\n      0x0100\n      swap1\n        /* \"#utility.yul\":1538:1594   */\n      tag_488\n        /* \"#utility.yul\":1590:1592   */\n      0x20\n        /* \"#utility.yul\":1575:1593   */\n      dup6\n      add\n        /* \"#utility.yul\":1567:1573   */\n      dup13\n        /* \"#utility.yul\":1538:1594   */\n      tag_467\n      jump\t// in\n    tag_488:\n        /* \"#utility.yul\":1630:1636   */\n      dup10\n        /* \"#utility.yul\":1625:1627   */\n      0x40\n        /* \"#utility.yul\":1614:1623   */\n      dup6\n        /* \"#utility.yul\":1610:1628   */\n      add\n        /* \"#utility.yul\":1603:1637   */\n      mstore\n        /* \"#utility.yul\":1685:1687   */\n      dup1\n        /* \"#utility.yul\":1677:1683   */\n      dup10\n        /* \"#utility.yul\":1673:1688   */\n      and\n        /* \"#utility.yul\":1668:1670   */\n      0x60\n        /* \"#utility.yul\":1657:1666   */\n      dup6\n        /* \"#utility.yul\":1653:1671   */\n      add\n        /* \"#utility.yul\":1646:1689   */\n      mstore\n      pop\n        /* \"#utility.yul\":1726:1728   */\n      dup1\n        /* \"#utility.yul\":1720:1723   */\n      0x80\n        /* \"#utility.yul\":1709:1718   */\n      dup5\n        /* \"#utility.yul\":1705:1724   */\n      add\n        /* \"#utility.yul\":1698:1729   */\n      mstore\n        /* \"#utility.yul\":1746:1790   */\n      tag_489\n        /* \"#utility.yul\":1786:1788   */\n      dup2\n        /* \"#utility.yul\":1775:1784   */\n      dup5\n        /* \"#utility.yul\":1771:1789   */\n      add\n        /* \"#utility.yul\":1763:1769   */\n      dup9\n        /* \"#utility.yul\":1746:1790   */\n      tag_469\n      jump\t// in\n    tag_489:\n        /* \"#utility.yul\":1821:1824   */\n      0xa0\n        /* \"#utility.yul\":1806:1825   */\n      dup5\n      add\n        /* \"#utility.yul\":1799:1834   */\n      swap7\n      swap1\n      swap7\n      mstore\n      pop\n      pop\n        /* \"#utility.yul\":1878:1892   */\n      swap2\n      iszero\n        /* \"#utility.yul\":1871:1893   */\n      iszero\n        /* \"#utility.yul\":1865:1868   */\n      0xc0\n        /* \"#utility.yul\":1850:1869   */\n      dup4\n      add\n        /* \"#utility.yul\":1843:1894   */\n      mstore\n        /* \"#utility.yul\":1938:1952   */\n      iszero\n        /* \"#utility.yul\":1931:1953   */\n      iszero\n        /* \"#utility.yul\":1925:1928   */\n      0xe0\n        /* \"#utility.yul\":1910:1929   */\n      swap1\n      swap2\n      add\n        /* \"#utility.yul\":1903:1954   */\n      mstore\n        /* \"#utility.yul\":1738:1790   */\n      swap6\n        /* \"#utility.yul\":1106:1960   */\n      swap5\n      pop\n      pop\n      pop\n      pop\n      pop\n      jump\t// out\n        /* \"#utility.yul\":1965:2251   */\n    tag_58:\n        /* \"#utility.yul\":2023:2029   */\n      0x00\n        /* \"#utility.yul\":2076:2078   */\n      0x20\n        /* \"#utility.yul\":2064:2073   */\n      dup3\n        /* \"#utility.yul\":2055:2062   */\n      dup5\n        /* \"#utility.yul\":2051:2074   */\n      sub\n        /* \"#utility.yul\":2047:2079   */\n      slt\n        /* \"#utility.yul\":2044:2096   */\n      iszero\n      tag_491\n      jumpi\n        /* \"#utility.yul\":2092:2093   */\n      0x00\n        /* \"#utility.yul\":2089:2090   */\n      dup1\n        /* \"#utility.yul\":2082:2094   */\n      revert\n        /* \"#utility.yul\":2044:2096   */\n    tag_491:\n        /* \"#utility.yul\":2118:2141   */\n      dup2\n      calldataload\n      not(sub(shl(0xe0, 0x01), 0x01))\n        /* \"#utility.yul\":2170:2202   */\n      dup2\n      and\n        /* \"#utility.yul\":2160:2203   */\n      dup2\n      eq\n        /* \"#utility.yul\":2150:2221   */\n      tag_464\n      jumpi\n        /* \"#utility.yul\":2217:2218   */\n      0x00\n        /* \"#utility.yul\":2214:2215   */\n      dup1\n        /* \"#utility.yul\":2207:2219   */\n      revert\n        /* \"#utility.yul\":2630:2803   */\n    tag_470:\n        /* \"#utility.yul\":2698:2718   */\n      dup1\n      calldataload\n      sub(shl(0xa0, 0x01), 0x01)\n        /* \"#utility.yul\":2747:2778   */\n      dup2\n      and\n        /* \"#utility.yul\":2737:2779   */\n      dup2\n      eq\n        /* \"#utility.yul\":2727:2797   */\n      tag_496\n      jumpi\n        /* \"#utility.yul\":2793:2794   */\n      0x00\n        /* \"#utility.yul\":2790:2791   */\n      dup1\n        /* \"#utility.yul\":2783:2795   */\n      revert\n        /* \"#utility.yul\":2727:2797   */\n    tag_496:\n        /* \"#utility.yul\":2630:2803   */\n      swap2\n      swap1\n      pop\n      jump\t// out\n        /* \"#utility.yul\":2808:3062   */\n    tag_79:\n        /* \"#utility.yul\":2876:2882   */\n      0x00\n        /* \"#utility.yul\":2884:2890   */\n      dup1\n        /* \"#utility.yul\":2937:2939   */\n      0x40\n        /* \"#utility.yul\":2925:2934   */\n      dup4\n        /* \"#utility.yul\":2916:2923   */\n      dup6\n        /* \"#utility.yul\":2912:2935   */\n      sub\n        /* \"#utility.yul\":2908:2940   */\n      slt\n        /* \"#utility.yul\":2905:2957   */\n      iszero\n      tag_498\n      jumpi\n        /* \"#utility.yul\":2953:2954   */\n      0x00\n        /* \"#utility.yul\":2950:2951   */\n      dup1\n        /* \"#utility.yul\":2943:2955   */\n      revert\n        /* \"#utility.yul\":2905:2957   */\n    tag_498:\n        /* \"#utility.yul\":2989:2998   */\n      dup3\n        /* \"#utility.yul\":2976:2999   */\n      calldataload\n        /* \"#utility.yul\":2966:2999   */\n      swap2\n      pop\n        /* \"#utility.yul\":3018:3056   */\n      tag_499\n        /* \"#utility.yul\":3052:3054   */\n      0x20\n        /* \"#utility.yul\":3041:3050   */\n      dup5\n        /* \"#utility.yul\":3037:3055   */\n      add\n        /* \"#utility.yul\":3018:3056   */\n      tag_470\n      jump\t// in\n    tag_499:\n        /* \"#utility.yul\":3008:3056   */\n      swap1\n      pop\n        /* \"#utility.yul\":2808:3062   */\n      swap3\n      pop\n      swap3\n      swap1\n      pop\n      jump\t// out\n        /* \"#utility.yul\":3434:3620   */\n    tag_96:\n        /* \"#utility.yul\":3493:3499   */\n      0x00\n        /* \"#utility.yul\":3546:3548   */\n      0x20\n        /* \"#utility.yul\":3534:3543   */\n      dup3\n        /* \"#utility.yul\":3525:3532   */\n      dup5\n        /* \"#utility.yul\":3521:3544   */\n      sub\n        /* \"#utility.yul\":3517:3549   */\n      slt\n        /* \"#utility.yul\":3514:3566   */\n      iszero\n      tag_504\n      jumpi\n        /* \"#utility.yul\":3562:3563   */\n      0x00\n        /* \"#utility.yul\":3559:3560   */\n      dup1\n        /* \"#utility.yul\":3552:3564   */\n      revert\n        /* \"#utility.yul\":3514:3566   */\n    tag_504:\n        /* \"#utility.yul\":3585:3614   */\n      tag_464\n        /* \"#utility.yul\":3604:3613   */\n      dup3\n        /* \"#utility.yul\":3585:3614   */\n      tag_470\n      jump\t// in\n        /* \"#utility.yul\":3884:4264   */\n    tag_211:\n        /* \"#utility.yul\":3963:3964   */\n      0x01\n        /* \"#utility.yul\":3959:3971   */\n      dup2\n      dup2\n      shr\n      swap1\n        /* \"#utility.yul\":4006:4018   */\n      dup3\n      and\n      dup1\n        /* \"#utility.yul\":4027:4088   */\n      tag_510\n      jumpi\n        /* \"#utility.yul\":4081:4085   */\n      0x7f\n        /* \"#utility.yul\":4073:4079   */\n      dup3\n        /* \"#utility.yul\":4069:4086   */\n      and\n        /* \"#utility.yul\":4059:4086   */\n      swap2\n      pop\n        /* \"#utility.yul\":4027:4088   */\n    tag_510:\n        /* \"#utility.yul\":4134:4136   */\n      0x20\n        /* \"#utility.yul\":4126:4132   */\n      dup3\n        /* \"#utility.yul\":4123:4137   */\n      lt\n        /* \"#utility.yul\":4103:4121   */\n      dup2\n        /* \"#utility.yul\":4100:4138   */\n      sub\n        /* \"#utility.yul\":4097:4258   */\n      tag_301\n      jumpi\n        /* \"#utility.yul\":4180:4190   */\n      0x4e487b71\n        /* \"#utility.yul\":4175:4178   */\n      0xe0\n        /* \"#utility.yul\":4171:4191   */\n      shl\n        /* \"#utility.yul\":4168:4169   */\n      0x00\n        /* \"#utility.yul\":4161:4192   */\n      mstore\n        /* \"#utility.yul\":4215:4219   */\n      0x22\n        /* \"#utility.yul\":4212:4213   */\n      0x04\n        /* \"#utility.yul\":4205:4220   */\n      mstore\n        /* \"#utility.yul\":4243:4247   */\n      0x24\n        /* \"#utility.yul\":4240:4241   */\n      0x00\n        /* \"#utility.yul\":4233:4248   */\n      revert\n        /* \"#utility.yul\":4269:4396   */\n    tag_446:\n        /* \"#utility.yul\":4330:4340   */\n      0x4e487b71\n        /* \"#utility.yul\":4325:4328   */\n      0xe0\n        /* \"#utility.yul\":4321:4341   */\n      shl\n        /* \"#utility.yul\":4318:4319   */\n      0x00\n        /* \"#utility.yul\":4311:4342   */\n      mstore\n        /* \"#utility.yul\":4361:4365   */\n      0x41\n        /* \"#utility.yul\":4358:4359   */\n      0x04\n        /* \"#utility.yul\":4351:4366   */\n      mstore\n        /* \"#utility.yul\":4385:4389   */\n      0x24\n        /* \"#utility.yul\":4382:4383   */\n      0x00\n        /* \"#utility.yul\":4375:4390   */\n      revert\n        /* \"#utility.yul\":4526:5070   */\n    tag_472:\n        /* \"#utility.yul\":4627:4629   */\n      0x1f\n        /* \"#utility.yul\":4622:4625   */\n      dup3\n        /* \"#utility.yul\":4619:4630   */\n      gt\n        /* \"#utility.yul\":4616:5064   */\n      iszero\n      tag_281\n      jumpi\n        /* \"#utility.yul\":4663:4664   */\n      0x00\n        /* \"#utility.yul\":4688:4693   */\n      dup2\n        /* \"#utility.yul\":4684:4686   */\n      dup2\n        /* \"#utility.yul\":4677:4694   */\n      mstore\n        /* \"#utility.yul\":4733:4737   */\n      0x20\n        /* \"#utility.yul\":4729:4731   */\n      dup2\n        /* \"#utility.yul\":4719:4738   */\n      keccak256\n        /* \"#utility.yul\":4803:4805   */\n      0x1f\n        /* \"#utility.yul\":4791:4801   */\n      dup6\n        /* \"#utility.yul\":4787:4806   */\n      add\n        /* \"#utility.yul\":4784:4785   */\n      0x05\n        /* \"#utility.yul\":4780:4807   */\n      shr\n        /* \"#utility.yul\":4774:4778   */\n      dup2\n        /* \"#utility.yul\":4770:4808   */\n      add\n        /* \"#utility.yul\":4839:4843   */\n      0x20\n        /* \"#utility.yul\":4827:4837   */\n      dup7\n        /* \"#utility.yul\":4824:4844   */\n      lt\n        /* \"#utility.yul\":4821:4868   */\n      iszero\n      tag_516\n      jumpi\n      pop\n        /* \"#utility.yul\":4862:4866   */\n      dup1\n        /* \"#utility.yul\":4821:4868   */\n    tag_516:\n        /* \"#utility.yul\":4917:4919   */\n      0x1f\n        /* \"#utility.yul\":4912:4915   */\n      dup6\n        /* \"#utility.yul\":4908:4920   */\n      add\n        /* \"#utility.yul\":4905:4906   */\n      0x05\n        /* \"#utility.yul\":4901:4921   */\n      shr\n        /* \"#utility.yul\":4895:4899   */\n      dup3\n        /* \"#utility.yul\":4891:4922   */\n      add\n        /* \"#utility.yul\":4881:4922   */\n      swap2\n      pop\n        /* \"#utility.yul\":4972:5054   */\n    tag_517:\n        /* \"#utility.yul\":4990:4992   */\n      dup2\n        /* \"#utility.yul\":4983:4988   */\n      dup2\n        /* \"#utility.yul\":4980:4993   */\n      lt\n        /* \"#utility.yul\":4972:5054   */\n      iszero\n      tag_519\n      jumpi\n        /* \"#utility.yul\":5035:5052   */\n      dup3\n      dup2\n      sstore\n        /* \"#utility.yul\":5016:5017   */\n      0x01\n        /* \"#utility.yul\":5005:5018   */\n      add\n        /* \"#utility.yul\":4972:5054   */\n      jump(tag_517)\n    tag_519:\n        /* \"#utility.yul\":4976:4979   */\n      pop\n      pop\n      pop\n        /* \"#utility.yul\":4526:5070   */\n      pop\n      pop\n      pop\n      jump\t// out\n        /* \"#utility.yul\":5246:6594   */\n    tag_233:\n        /* \"#utility.yul\":5370:5373   */\n      dup2\n        /* \"#utility.yul\":5364:5374   */\n      mload\n        /* \"#utility.yul\":5397:5415   */\n      0xffffffffffffffff\n        /* \"#utility.yul\":5389:5395   */\n      dup2\n        /* \"#utility.yul\":5386:5416   */\n      gt\n        /* \"#utility.yul\":5383:5439   */\n      iszero\n      tag_523\n      jumpi\n        /* \"#utility.yul\":5419:5437   */\n      tag_523\n      tag_446\n      jump\t// in\n    tag_523:\n        /* \"#utility.yul\":5448:5544   */\n      tag_524\n        /* \"#utility.yul\":5537:5543   */\n      dup2\n        /* \"#utility.yul\":5497:5535   */\n      tag_525\n        /* \"#utility.yul\":5529:5533   */\n      dup5\n        /* \"#utility.yul\":5523:5534   */\n      sload\n        /* \"#utility.yul\":5497:5535   */\n      tag_211\n      jump\t// in\n    tag_525:\n        /* \"#utility.yul\":5491:5495   */\n      dup5\n        /* \"#utility.yul\":5448:5544   */\n      tag_472\n      jump\t// in\n    tag_524:\n        /* \"#utility.yul\":5599:5603   */\n      0x20\n      dup1\n        /* \"#utility.yul\":5663:5665   */\n      0x1f\n        /* \"#utility.yul\":5652:5666   */\n      dup4\n      gt\n        /* \"#utility.yul\":5680:5681   */\n      0x01\n        /* \"#utility.yul\":5675:6337   */\n      dup2\n      eq\n      tag_527\n      jumpi\n        /* \"#utility.yul\":6381:6382   */\n      0x00\n        /* \"#utility.yul\":6398:6404   */\n      dup5\n        /* \"#utility.yul\":6395:6484   */\n      iszero\n      tag_528\n      jumpi\n      pop\n        /* \"#utility.yul\":6450:6469   */\n      dup6\n      dup4\n      add\n        /* \"#utility.yul\":6444:6470   */\n      mload\n        /* \"#utility.yul\":6395:6484   */\n    tag_528:\n      not(0x00)\n        /* \"#utility.yul\":5203:5204   */\n      0x03\n        /* \"#utility.yul\":5199:5210   */\n      dup7\n      swap1\n      shl\n        /* \"#utility.yul\":5195:5219   */\n      shr\n        /* \"#utility.yul\":5191:5220   */\n      not\n        /* \"#utility.yul\":5181:5221   */\n      and\n        /* \"#utility.yul\":5227:5228   */\n      0x01\n        /* \"#utility.yul\":5223:5234   */\n      dup6\n      swap1\n      shl\n        /* \"#utility.yul\":5178:5235   */\n      or\n        /* \"#utility.yul\":6497:6578   */\n      dup6\n      sstore\n        /* \"#utility.yul\":5645:6588   */\n      jump(tag_519)\n        /* \"#utility.yul\":5675:6337   */\n    tag_527:\n        /* \"#utility.yul\":4473:4474   */\n      0x00\n        /* \"#utility.yul\":4466:4480   */\n      dup6\n      dup2\n      mstore\n        /* \"#utility.yul\":4510:4514   */\n      0x20\n        /* \"#utility.yul\":4497:4515   */\n      dup2\n      keccak256\n      not(0x1f)\n        /* \"#utility.yul\":5711:5731   */\n      dup7\n      and\n      swap2\n        /* \"#utility.yul\":5828:6064   */\n    tag_531:\n        /* \"#utility.yul\":5842:5849   */\n      dup3\n        /* \"#utility.yul\":5839:5840   */\n      dup2\n        /* \"#utility.yul\":5836:5850   */\n      lt\n        /* \"#utility.yul\":5828:6064   */\n      iszero\n      tag_533\n      jumpi\n        /* \"#utility.yul\":5931:5950   */\n      dup9\n      dup7\n      add\n        /* \"#utility.yul\":5925:5951   */\n      mload\n        /* \"#utility.yul\":5910:5952   */\n      dup3\n      sstore\n        /* \"#utility.yul\":6023:6050   */\n      swap5\n      dup5\n      add\n      swap5\n        /* \"#utility.yul\":5991:5992   */\n      0x01\n        /* \"#utility.yul\":5979:5993   */\n      swap1\n      swap2\n      add\n      swap1\n        /* \"#utility.yul\":5858:5877   */\n      dup5\n      add\n        /* \"#utility.yul\":5828:6064   */\n      jump(tag_531)\n    tag_533:\n        /* \"#utility.yul\":5832:5835   */\n      pop\n        /* \"#utility.yul\":6092:6098   */\n      dup6\n        /* \"#utility.yul\":6083:6090   */\n      dup3\n        /* \"#utility.yul\":6080:6099   */\n      lt\n        /* \"#utility.yul\":6077:6278   */\n      iszero\n      tag_534\n      jumpi\n        /* \"#utility.yul\":6153:6172   */\n      dup8\n      dup6\n      add\n        /* \"#utility.yul\":6147:6173   */\n      mload\n      not(0x00)\n        /* \"#utility.yul\":6236:6237   */\n      0x03\n        /* \"#utility.yul\":6232:6246   */\n      dup9\n      swap1\n      shl\n        /* \"#utility.yul\":6248:6251   */\n      0xf8\n        /* \"#utility.yul\":6228:6252   */\n      and\n        /* \"#utility.yul\":6224:6261   */\n      shr\n        /* \"#utility.yul\":6220:6262   */\n      not\n        /* \"#utility.yul\":6205:6263   */\n      and\n        /* \"#utility.yul\":6190:6264   */\n      dup2\n      sstore\n        /* \"#utility.yul\":6077:6278   */\n    tag_534:\n      pop\n      pop\n      pop\n      pop\n      pop\n        /* \"#utility.yul\":6324:6325   */\n      0x01\n        /* \"#utility.yul\":6308:6322   */\n      swap1\n      dup2\n      shl\n        /* \"#utility.yul\":6304:6326   */\n      add\n        /* \"#utility.yul\":6291:6327   */\n      swap1\n      sstore\n      pop\n        /* \"#utility.yul\":5246:6594   */\n      jump\t// out\n        /* \"#utility.yul\":6599:6814   */\n    tag_235:\n        /* \"#utility.yul\":6749:6751   */\n      0x20\n        /* \"#utility.yul\":6734:6752   */\n      dup2\n      add\n        /* \"#utility.yul\":6761:6808   */\n      tag_217\n        /* \"#utility.yul\":6738:6747   */\n      dup3\n        /* \"#utility.yul\":6790:6796   */\n      dup5\n        /* \"#utility.yul\":6761:6808   */\n      tag_467\n      jump\t// in\n        /* \"#utility.yul\":7171:7520   */\n    tag_244:\n        /* \"#utility.yul\":7373:7375   */\n      0x20\n        /* \"#utility.yul\":7355:7376   */\n      dup1\n      dup3\n      mstore\n        /* \"#utility.yul\":7412:7414   */\n      0x19\n        /* \"#utility.yul\":7392:7410   */\n      swap1\n      dup3\n      add\n        /* \"#utility.yul\":7385:7415   */\n      mstore\n        /* \"#utility.yul\":7451:7478   */\n      0x50726f706f73616c20616c726561647920657865637574656400000000000000\n        /* \"#utility.yul\":7446:7448   */\n      0x40\n        /* \"#utility.yul\":7431:7449   */\n      dup3\n      add\n        /* \"#utility.yul\":7424:7479   */\n      mstore\n        /* \"#utility.yul\":7511:7513   */\n      0x60\n        /* \"#utility.yul\":7496:7514   */\n      add\n      swap1\n        /* \"#utility.yul\":7171:7520   */\n      jump\t// out\n        /* \"#utility.yul\":8223:8350   */\n    tag_474:\n        /* \"#utility.yul\":8284:8294   */\n      0x4e487b71\n        /* \"#utility.yul\":8279:8282   */\n      0xe0\n        /* \"#utility.yul\":8275:8295   */\n      shl\n        /* \"#utility.yul\":8272:8273   */\n      0x00\n        /* \"#utility.yul\":8265:8296   */\n      mstore\n        /* \"#utility.yul\":8315:8319   */\n      0x11\n        /* \"#utility.yul\":8312:8313   */\n      0x04\n        /* \"#utility.yul\":8305:8320   */\n      mstore\n        /* \"#utility.yul\":8339:8343   */\n      0x24\n        /* \"#utility.yul\":8336:8337   */\n      0x00\n        /* \"#utility.yul\":8329:8344   */\n      revert\n        /* \"#utility.yul\":8355:8480   */\n    tag_252:\n        /* \"#utility.yul\":8420:8429   */\n      dup1\n      dup3\n      add\n        /* \"#utility.yul\":8441:8451   */\n      dup1\n      dup3\n      gt\n        /* \"#utility.yul\":8438:8474   */\n      iszero\n      tag_217\n      jumpi\n        /* \"#utility.yul\":8454:8472   */\n      tag_217\n      tag_474\n      jump\t// in\n        /* \"#utility.yul\":11367:11502   */\n    tag_336:\n        /* \"#utility.yul\":11406:11409   */\n      0x00\n        /* \"#utility.yul\":11427:11444   */\n      0x01\n      dup3\n      add\n        /* \"#utility.yul\":11424:11467   */\n      tag_555\n      jumpi\n        /* \"#utility.yul\":11447:11465   */\n      tag_555\n      tag_474\n      jump\t// in\n    tag_555:\n      pop\n        /* \"#utility.yul\":11494:11495   */\n      0x01\n        /* \"#utility.yul\":11483:11496   */\n      add\n      swap1\n        /* \"#utility.yul\":11367:11502   */\n      jump\t// out\n        /* \"#utility.yul\":13476:13604   */\n    tag_398:\n        /* \"#utility.yul\":13543:13552   */\n      dup2\n      dup2\n      sub\n        /* \"#utility.yul\":13564:13575   */\n      dup2\n      dup2\n      gt\n        /* \"#utility.yul\":13561:13598   */\n      iszero\n      tag_217\n      jumpi\n        /* \"#utility.yul\":13578:13596   */\n      tag_217\n      tag_474\n      jump\t// in\n        /* \"#utility.yul\":14162:14974   */\n    tag_435:\n        /* \"#utility.yul\":14573:14598   */\n      0x416363657373436f6e74726f6c3a206163636f756e7420000000000000000000\n        /* \"#utility.yul\":14568:14571   */\n      dup2\n        /* \"#utility.yul\":14561:14599   */\n      mstore\n        /* \"#utility.yul\":14543:14546   */\n      0x00\n        /* \"#utility.yul\":14628:14634   */\n      dup4\n        /* \"#utility.yul\":14622:14635   */\n      mload\n        /* \"#utility.yul\":14644:14719   */\n      tag_568\n        /* \"#utility.yul\":14712:14718   */\n      dup2\n        /* \"#utility.yul\":14707:14709   */\n      0x17\n        /* \"#utility.yul\":14702:14705   */\n      dup6\n        /* \"#utility.yul\":14698:14710   */\n      add\n        /* \"#utility.yul\":14691:14695   */\n      0x20\n        /* \"#utility.yul\":14683:14689   */\n      dup9\n        /* \"#utility.yul\":14679:14696   */\n      add\n        /* \"#utility.yul\":14644:14719   */\n      tag_468\n      jump\t// in\n    tag_568:\n      shl(0x7d, 0x01034b99036b4b9b9b4b733903937b6329)\n        /* \"#utility.yul\":14778:14780   */\n      0x17\n        /* \"#utility.yul\":14738:14754   */\n      swap2\n      dup5\n      add\n        /* \"#utility.yul\":14770:14781   */\n      swap2\n      dup3\n      add\n        /* \"#utility.yul\":14763:14803   */\n      mstore\n        /* \"#utility.yul\":14828:14841   */\n      dup4\n      mload\n        /* \"#utility.yul\":14850:14926   */\n      tag_569\n        /* \"#utility.yul\":14828:14841   */\n      dup2\n        /* \"#utility.yul\":14912:14914   */\n      0x28\n        /* \"#utility.yul\":14904:14915   */\n      dup5\n      add\n        /* \"#utility.yul\":14897:14901   */\n      0x20\n        /* \"#utility.yul\":14885:14902   */\n      dup9\n      add\n        /* \"#utility.yul\":14850:14926   */\n      tag_468\n      jump\t// in\n    tag_569:\n        /* \"#utility.yul\":14946:14963   */\n      add\n        /* \"#utility.yul\":14965:14967   */\n      0x28\n        /* \"#utility.yul\":14942:14968   */\n      add\n      swap5\n        /* \"#utility.yul\":14162:14974   */\n      swap4\n      pop\n      pop\n      pop\n      pop\n      jump\t// out\n        /* \"#utility.yul\":14979:15198   */\n    tag_437:\n        /* \"#utility.yul\":15128:15130   */\n      0x20\n        /* \"#utility.yul\":15117:15126   */\n      dup2\n        /* \"#utility.yul\":15110:15131   */\n      mstore\n        /* \"#utility.yul\":15091:15095   */\n      0x00\n        /* \"#utility.yul\":15148:15192   */\n      tag_464\n        /* \"#utility.yul\":15188:15190   */\n      0x20\n        /* \"#utility.yul\":15177:15186   */\n      dup4\n        /* \"#utility.yul\":15173:15191   */\n      add\n        /* \"#utility.yul\":15165:15171   */\n      dup5\n        /* \"#utility.yul\":15148:15192   */\n      tag_469\n      jump\t// in\n        /* \"#utility.yul\":15203:15371   */\n    tag_442:\n        /* \"#utility.yul\":15276:15285   */\n      dup1\n      dup3\n      mul\n        /* \"#utility.yul\":15307:15316   */\n      dup2\n      iszero\n        /* \"#utility.yul\":15324:15339   */\n      dup3\n      dup3\n      div\n        /* \"#utility.yul\":15318:15340   */\n      dup5\n      eq\n        /* \"#utility.yul\":15304:15341   */\n      or\n        /* \"#utility.yul\":15294:15365   */\n      tag_217\n      jumpi\n        /* \"#utility.yul\":15345:15363   */\n      tag_217\n      tag_474\n      jump\t// in\n        /* \"#utility.yul\":15376:15503   */\n    tag_450:\n        /* \"#utility.yul\":15437:15447   */\n      0x4e487b71\n        /* \"#utility.yul\":15432:15435   */\n      0xe0\n        /* \"#utility.yul\":15428:15448   */\n      shl\n        /* \"#utility.yul\":15425:15426   */\n      0x00\n        /* \"#utility.yul\":15418:15449   */\n      mstore\n        /* \"#utility.yul\":15468:15472   */\n      0x32\n        /* \"#utility.yul\":15465:15466   */\n      0x04\n        /* \"#utility.yul\":15458:15473   */\n      mstore\n        /* \"#utility.yul\":15492:15496   */\n      0x24\n        /* \"#utility.yul\":15489:15490   */\n      0x00\n        /* \"#utility.yul\":15482:15497   */\n      revert\n        /* \"#utility.yul\":15508:15644   */\n    tag_463:\n        /* \"#utility.yul\":15547:15550   */\n      0x00\n        /* \"#utility.yul\":15575:15580   */\n      dup2\n        /* \"#utility.yul\":15565:15604   */\n      tag_578\n      jumpi\n        /* \"#utility.yul\":15584:15602   */\n      tag_578\n      tag_474\n      jump\t// in\n    tag_578:\n      pop\n      not(0x00)\n        /* \"#utility.yul\":15620:15638   */\n      add\n      swap1\n        /* \"#utility.yul\":15508:15644   */\n      jump\t// out\n    stop\n    data_3f8eb866d258fc640a3f5774e37f33eaf684db99cbe43c28d82b47ac7b936104 a5a0b70b385ff7611cd3840916bd08b10829e5bf9e6637cf79dd9a427fc0e2ab\n\n    auxdata: 0xa2646970667358221220d77256ea1734f3e37f845872717e2713983d138e0d711e9f5ea18744f890201b64736f6c63430008140033\n}\n","methodIdentifiers":{"DEFAULT_ADMIN_ROLE()":"a217fddf","GUARDIAN_ROLE()":"24ea54f4","MULTISIG_ROLE()":"e328400c","OPERATOR_ROLE()":"f5b541a6","PAUSE_ROLE()":"389ed267","PROPOSAL_EXPIRY()":"8a14e3d0","REQUIRED_SIGNATURES()":"9ac18b19","TIMELOCK_DURATION()":"4623c81e","WITHDRAW_ROLE()":"e02023a1","approveProposal(uint256)":"98951b56","balances(address)":"27e235e3","cancelProposal(uint256)":"e0a8f6f5","createPauseProposal()":"0c0eb384","createWithdrawProposal(uint256)":"73febf67","deposit()":"d0e30db0","emergencyPause()":"51858e27","emergencyWithdraw()":"db2e21bc","executeProposal(uint256)":"0d61b519","getApprovalCount(uint256)":"ba7e7cab","getBalance(address)":"f8b2cb4f","getContractBalance()":"6f9fb98a","getProposal(uint256)":"c7f758a8","getProposalCount()":"c08cc02d","getRoleAdmin(bytes32)":"248a9ca3","grantRole(bytes32,address)":"2f2ff15d","hasApproved(uint256,address)":"2358d5a8","hasRole(bytes32,address)":"91d14854","maxWithdrawal()":"8c0ff5b7","paused()":"5c975abb","proposalApprovalCounts(uint256)":"037aadad","proposalApprovals(uint256,address)":"4733c271","proposals(uint256)":"013cf08b","renounceRole(bytes32,address)":"36568abe","revokeRole(bytes32,address)":"d547741f","supportsInterface(bytes4)":"01ffc9a7","totalFunds()":"968ed600"},"storageLayout":{"storage":[{"astId":39723,"contract":"projects/02-access-control/contracts/04-multisig/MultiSigVault.sol:MultiSigVault","label":"_roles","offset":0,"slot":"0","type":"t_mapping(t_bytes32,t_struct(RoleData)39718_storage)"},{"astId":40319,"contract":"projects/02-access-control/contracts/04-multisig/MultiSigVault.sol:MultiSigVault","label":"_status","offset":0,"slot":"1","type":"t_uint256"},{"astId":40218,"contract":"projects/02-access-control/contracts/04-multisig/MultiSigVault.sol:MultiSigVault","label":"_paused","offset":0,"slot":"2","type":"t_bool"},{"astId":46132,"contract":"projects/02-access-control/contracts/04-multisig/MultiSigVault.sol:MultiSigVault","label":"balances","offset":0,"slot":"3","type":"t_mapping(t_address,t_uint256)"},{"astId":46134,"contract":"projects/02-access-control/contracts/04-multisig/MultiSigVault.sol:MultiSigVault","label":"totalFunds","offset":0,"slot":"4","type":"t_uint256"},{"astId":46136,"contract":"projects/02-access-control/contracts/04-multisig/MultiSigVault.sol:MultiSigVault","label":"maxWithdrawal","offset":0,"slot":"5","type":"t_uint256"},{"astId":46139,"contract":"projects/02-access-control/contracts/04-multisig/MultiSigVault.sol:MultiSigVault","label":"_proposalId","offset":0,"slot":"6","type":"t_struct(Counter)40401_storage"},{"astId":46144,"contract":"projects/02-access-control/contracts/04-multisig/MultiSigVault.sol:MultiSigVault","label":"proposals","offset":0,"slot":"7","type":"t_mapping(t_uint256,t_struct(Proposal)46172_storage)"},{"astId":46150,"contract":"projects/02-access-control/contracts/04-multisig/MultiSigVault.sol:MultiSigVault","label":"proposalApprovals","offset":0,"slot":"8","type":"t_mapping(t_uint256,t_mapping(t_address,t_bool))"},{"astId":46154,"contract":"projects/02-access-control/contracts/04-multisig/MultiSigVault.sol:MultiSigVault","label":"proposalApprovalCounts","offset":0,"slot":"9","type":"t_mapping(t_uint256,t_uint256)"}],"types":{"t_address":{"encoding":"inplace","label":"address","numberOfBytes":"20"},"t_bool":{"encoding":"inplace","label":"bool","numberOfBytes":"1"},"t_bytes32":{"encoding":"inplace","label":"bytes32","numberOfBytes":"32"},"t_bytes_storage":{"encoding":"bytes","label":"bytes","numberOfBytes":"32"},"t_enum(ProposalType)46178":{"encoding":"inplace","label":"enum MultiSigVault.ProposalType","numberOfBytes":"1"},"t_mapping(t_address,t_bool)":{"encoding":"mapping","key":"t_address","label":"mapping(address => bool)","numberOfBytes":"32","value":"t_bool"},"t_mapping(t_address,t_uint256)":{"encoding":"mapping","key":"t_address","label":"mapping(address => uint256)","numberOfBytes":"32","value":"t_uint256"},"t_mapping(t_bytes32,t_struct(RoleData)39718_storage)":{"encoding":"mapping","key":"t_bytes32","label":"mapping(bytes32 => struct AccessControl.RoleData)","numberOfBytes":"32","value":"t_struct(RoleData)39718_storage"},"t_mapping(t_uint256,t_mapping(t_address,t_bool))":{"encoding":"mapping","key":"t_uint256","label":"mapping(uint256 => mapping(address => bool))","numberOfBytes":"32","value":"t_mapping(t_address,t_bool)"},"t_mapping(t_uint256,t_struct(Proposal)46172_storage)":{"encoding":"mapping","key":"t_uint256","label":"mapping(uint256 => struct MultiSigVault.Proposal)","numberOfBytes":"32","value":"t_struct(Proposal)46172_storage"},"t_mapping(t_uint256,t_uint256)":{"encoding":"mapping","key":"t_uint256","label":"mapping(uint256 => uint256)","numberOfBytes":"32","value":"t_uint256"},"t_struct(Counter)40401_storage":{"encoding":"inplace","label":"struct Counters.Counter","numberOfBytes":"32","members":[{"astId":40400,"contract":"projects/02-access-control/contracts/04-multisig/MultiSigVault.sol:MultiSigVault","label":"_value","offset":0,"slot":"0","type":"t_uint256"}]},"t_struct(Proposal)46172_storage":{"encoding":"inplace","label":"struct MultiSigVault.Proposal","numberOfBytes":"192","members":[{"astId":46156,"contract":"projects/02-access-control/contracts/04-multisig/MultiSigVault.sol:MultiSigVault","label":"proposer","offset":0,"slot":"0","type":"t_address"},{"astId":46159,"contract":"projects/02-access-control/contracts/04-multisig/MultiSigVault.sol:MultiSigVault","label":"proposalType","offset":20,"slot":"0","type":"t_enum(ProposalType)46178"},{"astId":46161,"contract":"projects/02-access-control/contracts/04-multisig/MultiSigVault.sol:MultiSigVault","label":"amount","offset":0,"slot":"1","type":"t_uint256"},{"astId":46163,"contract":"projects/02-access-control/contracts/04-multisig/MultiSigVault.sol:MultiSigVault","label":"target","offset":0,"slot":"2","type":"t_address"},{"astId":46165,"contract":"projects/02-access-control/contracts/04-multisig/MultiSigVault.sol:MultiSigVault","label":"data","offset":0,"slot":"3","type":"t_bytes_storage"},{"astId":46167,"contract":"projects/02-access-control/contracts/04-multisig/MultiSigVault.sol:MultiSigVault","label":"timestamp","offset":0,"slot":"4","type":"t_uint256"},{"astId":46169,"contract":"projects/02-access-control/contracts/04-multisig/MultiSigVault.sol:MultiSigVault","label":"executed","offset":0,"slot":"5","type":"t_bool"},{"astId":46171,"contract":"projects/02-access-control/contracts/04-multisig/MultiSigVault.sol:MultiSigVault","label":"cancelled","offset":1,"slot":"5","type":"t_bool"}]},"t_struct(RoleData)39718_storage":{"encoding":"inplace","label":"struct AccessControl.RoleData","numberOfBytes":"64","members":[{"astId":39715,"contract":"projects/02-access-control/contracts/04-multisig/MultiSigVault.sol:MultiSigVault","label":"members","offset":0,"slot":"0","type":"t_mapping(t_address,t_bool)"},{"astId":39717,"contract":"projects/02-access-control/contracts/04-multisig/MultiSigVault.sol:MultiSigVault","label":"adminRole","offset":0,"slot":"1","type":"t_bytes32"}]},"t_uint256":{"encoding":"inplace","label":"uint256","numberOfBytes":"32"}}},"id":43}