{"abi":[{"type":"constructor","inputs":[{"name":"_vault","type":"address","internalType":"address payable"}],"stateMutability":"nonpayable"},{"type":"receive","stateMutability":"payable"},{"type":"function","name":"attack","inputs":[],"outputs":[],"stateMutability":"payable"},{"type":"function","name":"attackCount","inputs":[],"outputs":[{"name":"","type":"uint256","internalType":"uint256"}],"stateMutability":"view"},{"type":"function","name":"attackDepositBonus","inputs":[],"outputs":[],"stateMutability":"payable"},{"type":"function","name":"attackEmergencyWithdraw","inputs":[],"outputs":[],"stateMutability":"payable"},{"type":"function","name":"getAttackStats","inputs":[],"outputs":[{"name":"","type":"uint256","internalType":"uint256"},{"name":"","type":"uint256","internalType":"uint256"},{"name":"","type":"uint256","internalType":"uint256"}],"stateMutability":"view"},{"type":"function","name":"getVaultBalance","inputs":[],"outputs":[{"name":"","type":"uint256","internalType":"uint256"}],"stateMutability":"view"},{"type":"function","name":"getVaultUserBalance","inputs":[],"outputs":[{"name":"","type":"uint256","internalType":"uint256"}],"stateMutability":"view"},{"type":"function","name":"testInvalidWithdraw","inputs":[],"outputs":[],"stateMutability":"nonpayable"},{"type":"function","name":"testMultipleDeposits","inputs":[],"outputs":[],"stateMutability":"payable"},{"type":"function","name":"totalStolen","inputs":[],"outputs":[{"name":"","type":"uint256","internalType":"uint256"}],"stateMutability":"view"},{"type":"function","name":"vault","inputs":[],"outputs":[{"name":"","type":"address","internalType":"contract FixedVault"}],"stateMutability":"view"},{"type":"function","name":"withdrawStolenFunds","inputs":[],"outputs":[],"stateMutability":"nonpayable"},{"type":"event","name":"AttackAttempted","inputs":[{"name":"attackType","type":"uint256","indexed":false,"internalType":"uint256"},{"name":"reason","type":"string","indexed":false,"internalType":"string"}],"anonymous":false},{"type":"event","name":"AttackCompleted","inputs":[{"name":"totalStolen","type":"uint256","indexed":false,"internalType":"uint256"}],"anonymous":false},{"type":"event","name":"AttackExecuted","inputs":[{"name":"attackCount","type":"uint256","indexed":false,"internalType":"uint256"},{"name":"amount","type":"uint256","indexed":false,"internalType":"uint256"}],"anonymous":false},{"type":"event","name":"SecurityTestPassed","inputs":[{"name":"testName","type":"string","indexed":false,"internalType":"string"}],"anonymous":false}],"bytecode":{"object":"0x608060405234801561000f575f80fd5b506040516117c83803806117c883398101604081905261002e91610052565b5f80546001600160a01b0319166001600160a01b039290921691909117905561007f565b5f60208284031215610062575f80fd5b81516001600160a01b0381168114610078575f80fd5b9392505050565b61173c8061008c5f395ff3fe6080604052600436106100a8575f3560e01c8063d036972e11610062578063d036972e14610391578063d0d8bc86146103a5578063d9f9d5f2146103ad578063ed12e8ef146103c2578063fbfa77cf146103d6578063fd2767541461040c575f80fd5b80630777586a1461030f5780631f22e4b314610342578063407c28211461036457806350a63df1146103795780637dd0ddf9146103815780639e5faafc14610389575f80fd5b3661030b576100e3604051806040016040528060148152602001732932b1b2b4bb329031b0b63632b2103bb4ba341d60611b81525034610420565b6101146040518060400160405280600d81526020016c20ba3a30b1b59031b7bab73a1d60991b815250600154610420565b3460025f8282546101259190611359565b909155505060018054905f61013983611372565b9091555050600154604080519182523460208301527f61fb290b1aeb49a8eff0a91c4310d27d98e1199a1abab0312a9a39570824af7d910160405180910390a1600360015410801561019857505f54346001600160a01b039091163110155b15610309576101be60405180606001604052806026815260200161169460269139610469565b5f54604051632e1a7d4d60e01b81523460048201526001600160a01b0390911690632e1a7d4d906024015f604051808303815f87803b1580156101ff575f80fd5b505af1925050508015610210575060015b6102e85761021c61138a565b806308c379a0036102c557506102306113dc565b8061023b57506102c7565b61027a6040518060400160405280601f81526020017f5265656e7472616e637920626c6f636b6564207769746820726561736f6e3a00815250826104af565b5f805160206115db8339815191526040516102bb906020808252601290820152711499595b9d1c985b98de48109b1bd8dad95960721b604082015260600190565b60405180910390a1005b505b61027a60405180606001604052806022815260200161167260229139610469565b61030960405180606001604052806027815260200161156860279139610469565b005b5f80fd5b34801561031a575f80fd5b5060015460025447604080519384526020840192909252908201526060015b60405180910390f35b34801561034d575f80fd5b506103566104f4565b604051908152602001610339565b34801561036f575f80fd5b5061035660015481565b610309610563565b610309610810565b610309610a20565b34801561039c575f80fd5b50610309610e9f565b610309610ff0565b3480156103b8575f80fd5b5061035660025481565b3480156103cd575f80fd5b506103566111d4565b3480156103e1575f80fd5b505f546103f4906001600160a01b031681565b6040516001600160a01b039091168152602001610339565b348015610417575f80fd5b50610309611224565b61046582826040516024016104369291906114a8565b60408051601f198184030181529190526020810180516001600160e01b0316632d839cb360e21b179052611322565b5050565b6104ac8160405160240161047d91906114c9565b60408051601f198184030181529190526020810180516001600160e01b031663104c13eb60e21b179052611322565b50565b61046582826040516024016104c59291906114e2565b60408051601f198184030181529190526020810180516001600160e01b0316634b5c427760e01b179052611322565b5f805460405163f8b2cb4f60e01b81523060048201526001600160a01b039091169063f8b2cb4f90602401602060405180830381865afa15801561053a573d5f803e3d5ffd5b505050506040513d601f19601f8201168201806040525081019061055e919061150f565b905090565b670de0b6b3a76400003410156105b65760405162461bcd60e51b815260206004820152601360248201527209ccacac840c2e840d8cac2e6e84062408aa89606b1b60448201526064015b60405180910390fd5b6105d760405180606001604052806021815260200161154760219139610469565b5f8054906101000a90046001600160a01b03166001600160a01b031663d0e30db0346040518263ffffffff1660e01b81526004015f604051808303818588803b158015610622575f80fd5b505af193505050508015610634575060015b6106e85761064061138a565b806308c379a0036106de57506106546113dc565b8061065f57506106e0565b61069e6040518060400160405280601b81526020017f4465706f736974206661696c6564207769746820726561736f6e3a0000000000815250826104af565b7fc5016effea2104c72ad0b8c235734f5fea25efbca39fefed03cdc02c92e6c1146002826040516106d0929190611526565b60405180910390a1506107ba565b505b3d5f803e3d5ffd5b6107266040518060400160405280601c81526020017f4465706f73697420737563636565646564202865787065637465642900000000815250610469565b604080518082018252600e81526d2334b730b6103130b630b731b29d60911b60208201525f54915163f8b2cb4f60e01b81523060048201526107ba926001600160a01b03169063f8b2cb4f906024015b602060405180830381865afa158015610791573d5f803e3d5ffd5b505050506040513d601f19601f820116820180604052508101906107b5919061150f565b610420565b5f805160206115db8339815191526040516108069060208082526018908201527f4465706f73697420426f6e75732050726f74656374696f6e0000000000000000604082015260600190565b60405180910390a1565b5f34116108525760405162461bcd60e51b815260206004820152601060248201526f1399595908115512081d1bc81d195cdd60821b60448201526064016105ad565b6108736040518060600160405280602681526020016115b560269139610469565b5f8054906101000a90046001600160a01b03166001600160a01b031663d0e30db0346040518263ffffffff1660e01b81526004015f604051808303818588803b1580156108be575f80fd5b505af11580156108d0573d5f803e3d5ffd5b50505f8054604080516336cb886f60e21b815290516001600160a01b03909216955063db2e21bc9450600480820194509082900301818387803b158015610915575f80fd5b505af1925050508015610926575060015b6109b35761093261138a565b806308c379a0036106de57506109466113dc565b8061095157506106e0565b61097360405180606001604052806026815260200161158f60269139826104af565b7fc5016effea2104c72ad0b8c235734f5fea25efbca39fefed03cdc02c92e6c1146003826040516109a5929190611526565b60405180910390a1506109d4565b6109d460405180606001604052806027815260200161162460279139610469565b5f805160206115db833981519152604051610806906020808252601d908201527f456d657267656e63792057697468647261772050726f74656374696f6e000000604082015260600190565b670de0b6b3a7640000341015610a785760405162461bcd60e51b815260206004820152601b60248201527f4e656564206174206c6561737420312045544820746f2074657374000000000060448201526064016105ad565b610a9960405180606001604052806027815260200161164b60279139610469565b610ad86040518060400160405280601981526020017f496e697469616c2061747461636b65722062616c616e63653a0000000000000081525047610420565b610b586040518060400160405280601681526020017524b734ba34b0b6103b30bab63a103130b630b731b29d60511b8152505f8054906101000a90046001600160a01b03166001600160a01b0316636f9fb98a6040518163ffffffff1660e01b8152600401602060405180830381865afa158015610791573d5f803e3d5ffd5b5f8054906101000a90046001600160a01b03166001600160a01b031663d0e30db0346040518263ffffffff1660e01b81526004015f604051808303818588803b158015610ba3575f80fd5b505af1158015610bb5573d5f803e3d5ffd5b505060408051808201825260168152752130b630b731b29030b33a32b9103232b837b9b4ba1d60511b60208201525f54915163f8b2cb4f60e01b8152306004820152610c1a95509093506001600160a01b03909116915063f8b2cb4f90602401610776565b5f6001819055600281905554604051632e1a7d4d60e01b81523460048201526001600160a01b0390911690632e1a7d4d906024015f604051808303815f87803b158015610c65575f80fd5b505af1925050508015610c76575060015b610d2057610c8261138a565b806308c379a0036106de5750610c966113dc565b80610ca157506106e0565b610ce06040518060400160405280601c81526020017f5769746864726177206661696c6564207769746820726561736f6e3a00000000815250826104af565b7fc5016effea2104c72ad0b8c235734f5fea25efbca39fefed03cdc02c92e6c114600182604051610d12929190611526565b60405180910390a150610d5e565b610d5e6040518060400160405280601d81526020017f5769746864726177207375636365656465642028657870656374656429000000815250610469565b610d9c6040518060400160405280601881526020017f5365637572697479207465737420636f6d706c65746564210000000000000000815250610469565b610ddd6040518060400160405280601b81526020017f546f74616c2073746f6c656e202873686f756c642062652030293a0000000000815250600254610420565b610e5b604051806040016040528060148152602001732334b730b6103b30bab63a103130b630b731b29d60611b8152505f8054906101000a90046001600160a01b03166001600160a01b0316636f9fb98a6040518163ffffffff1660e01b8152600401602060405180830381865afa158015610791573d5f803e3d5ffd5b5f805160206115db833981519152604051610806906020808252601590820152742932b2b73a3930b731bc90283937ba32b1ba34b7b760591b604082015260600190565b610ec06040518060600160405280602681526020016116e160269139610469565b5f8054604051632e1a7d4d60e01b815260048101929092526001600160a01b031690632e1a7d4d906024015f604051808303815f87803b158015610f02575f80fd5b505af1925050508015610f13575060015b610fcd57610f1f61138a565b806308c379a0036106de5750610f336113dc565b80610f3e57506106e0565b610f76604051806040016040528060168152602001752d32b937903bb4ba34323930bb90313637b1b5b2b21d60511b815250826104af565b5f805160206115db833981519152604051610fc2906020808252601b908201527f496e76616c69642057697468647261772050726f74656374696f6e0000000000604082015260600190565b60405180910390a150565b610fee6040518060600160405280602981526020016115fb60299139610469565b565b6110116040518060600160405280602781526020016116ba60279139610469565b5f8054906101000a90046001600160a01b03166001600160a01b031663d0e30db067016345785d8a00006040518263ffffffff1660e01b81526004015f604051808303818588803b158015611064575f80fd5b505af1158015611076573d5f803e3d5ffd5b50505050505f8054906101000a90046001600160a01b03166001600160a01b031663d0e30db067016345785d8a00006040518263ffffffff1660e01b81526004015f604051808303818588803b1580156110ce575f80fd5b505af1935050505080156110e0575060015b611196576110ec61138a565b806308c379a0036106de57506111006113dc565b8061110b57506106e0565b61114a6040518060400160405280601781526020017f5365636f6e64206465706f73697420626c6f636b65643a000000000000000000815250826104af565b5f805160206115db833981519152604051610fc2906020808252601b908201527f4d756c7469706c65204465706f7369742050726f74656374696f6e0000000000604082015260600190565b610fee6040518060400160405280601881526020017f5365636f6e64206465706f736974207375636365656465640000000000000000815250610469565b5f805f9054906101000a90046001600160a01b03166001600160a01b0316636f9fb98a6040518163ffffffff1660e01b8152600401602060405180830381865afa15801561053a573d5f803e3d5ffd5b47806112695760405162461bcd60e51b81526020600482015260146024820152734e6f2066756e647320746f20776974686472617760601b60448201526064016105ad565b6040515f90339083908381818185875af1925050503d805f81146112a8576040519150601f19603f3d011682016040523d82523d5f602084013e6112ad565b606091505b50509050806112f05760405162461bcd60e51b815260206004820152600f60248201526e151c985b9cd9995c8819985a5b1959608a1b60448201526064016105ad565b6104656040518060400160405280601081526020016f233ab73239903bb4ba34323930bbb71d60811b81525083610420565b6104ac815f6a636f6e736f6c652e6c6f6790505f80835160208501845afa505050565b634e487b7160e01b5f52601160045260245ffd5b8082018082111561136c5761136c611345565b92915050565b5f6001820161138357611383611345565b5060010190565b5f60033d11156113a05760045f803e505f5160e01c5b90565b601f8201601f1916810167ffffffffffffffff811182821017156113d557634e487b7160e01b5f52604160045260245ffd5b6040525050565b5f60443d10156113e95790565b6040516003193d81016004833e81513d67ffffffffffffffff816024840111818411171561141957505050505090565b82850191508151818111156114315750505050505090565b843d870101602082850101111561144b5750505050505090565b61145a602082860101876113a3565b509095945050505050565b5f81518084525f5b818110156114895760208185018101518683018201520161146d565b505f602082860101526020601f19601f83011685010191505092915050565b604081525f6114ba6040830185611465565b90508260208301529392505050565b602081525f6114db6020830184611465565b9392505050565b604081525f6114f46040830185611465565b82810360208401526115068185611465565b95945050505050565b5f6020828403121561151f575f80fd5b5051919050565b828152604060208201525f61153e6040830184611465565b94935050505056fe54657374696e67206465706f73697420626f6e75732073656375726974792e2e2e5245454e5452414e435920535543434545444544202d2053454355524954592042524541434821456d657267656e6379207769746864726177206661696c6564207769746820726561736f6e3a54657374696e6720656d657267656e63792077697468647261772073656375726974792e2e2ef526efd7b4a5ca43ceaffba3bc68e198ecbb7812c67dcffad2f5e418a18d138e5a65726f20776974686472617720737563636565646564202d20706f74656e7469616c206973737565456d657267656e637920776974686472617720737563636565646564202865787065637465642954657374696e672046697865645661756c74207365637572697479206d656173757265732e2e2e5265656e7472616e637920626c6f636b6564202867656e65726963206572726f7229417474656d7074696e67207265656e7472616e6379202873686f756c64206661696c292e2e2e54657374696e67206d756c7469706c65206465706f736974732070726f74656374696f6e2e2e2e54657374696e6720696e76616c69642077697468647261772070726f74656374696f6e2e2e2ea2646970667358221220abe98ef39c9aa32e2a2fb8e71cbc241e5a43fa88355640a8c00c083fe7826c5c64736f6c63430008140033","linkReferences":{}},"assembly":"    /* \"projects/01-reentrancy-vault/contracts/fixed/SafeAttacker.sol\":546:6496  contract SafeAttacker is IAttacker {... */\n  mstore(0x40, 0x80)\n    /* \"projects/01-reentrancy-vault/contracts/fixed/SafeAttacker.sol\":703:782  constructor(address payable _vault) {... */\n  callvalue\n  dup1\n  iszero\n  tag_1\n  jumpi\n  0x00\n  dup1\n  revert\ntag_1:\n  pop\n  mload(0x40)\n  sub(codesize, bytecodeSize)\n  dup1\n  bytecodeSize\n  dup4\n  codecopy\n  dup2\n  add\n  0x40\n  dup2\n  swap1\n  mstore\n  tag_2\n  swap2\n  tag_3\n  jump\t// in\ntag_2:\n    /* \"projects/01-reentrancy-vault/contracts/fixed/SafeAttacker.sol\":749:754  vault */\n  0x00\n    /* \"projects/01-reentrancy-vault/contracts/fixed/SafeAttacker.sol\":749:775  vault = FixedVault(_vault) */\n  dup1\n  sload\n  not(sub(shl(0xa0, 0x01), 0x01))\n  and\n  sub(shl(0xa0, 0x01), 0x01)\n  swap3\n  swap1\n  swap3\n  and\n  swap2\n  swap1\n  swap2\n  or\n  swap1\n  sstore\n    /* \"projects/01-reentrancy-vault/contracts/fixed/SafeAttacker.sol\":546:6496  contract SafeAttacker is IAttacker {... */\n  jump(tag_7)\n    /* \"#utility.yul\":14:312   */\ntag_3:\n    /* \"#utility.yul\":92:98   */\n  0x00\n    /* \"#utility.yul\":145:147   */\n  0x20\n    /* \"#utility.yul\":133:142   */\n  dup3\n    /* \"#utility.yul\":124:131   */\n  dup5\n    /* \"#utility.yul\":120:143   */\n  sub\n    /* \"#utility.yul\":116:148   */\n  slt\n    /* \"#utility.yul\":113:165   */\n  iszero\n  tag_9\n  jumpi\n    /* \"#utility.yul\":161:162   */\n  0x00\n    /* \"#utility.yul\":158:159   */\n  dup1\n    /* \"#utility.yul\":151:163   */\n  revert\n    /* \"#utility.yul\":113:165   */\ntag_9:\n    /* \"#utility.yul\":187:203   */\n  dup2\n  mload\n  sub(shl(0xa0, 0x01), 0x01)\n    /* \"#utility.yul\":232:263   */\n  dup2\n  and\n    /* \"#utility.yul\":222:264   */\n  dup2\n  eq\n    /* \"#utility.yul\":212:282   */\n  tag_10\n  jumpi\n    /* \"#utility.yul\":278:279   */\n  0x00\n    /* \"#utility.yul\":275:276   */\n  dup1\n    /* \"#utility.yul\":268:280   */\n  revert\n    /* \"#utility.yul\":212:282   */\ntag_10:\n    /* \"#utility.yul\":301:306   */\n  swap4\n    /* \"#utility.yul\":14:312   */\n  swap3\n  pop\n  pop\n  pop\n  jump\t// out\ntag_7:\n    /* \"projects/01-reentrancy-vault/contracts/fixed/SafeAttacker.sol\":546:6496  contract SafeAttacker is IAttacker {... */\n  dataSize(sub_0)\n  dup1\n  dataOffset(sub_0)\n  0x00\n  codecopy\n  0x00\n  return\nstop\n\nsub_0: assembly {\n        /* \"projects/01-reentrancy-vault/contracts/fixed/SafeAttacker.sol\":546:6496  contract SafeAttacker is IAttacker {... */\n      mstore(0x40, 0x80)\n      jumpi(tag_1, lt(calldatasize, 0x04))\n      shr(0xe0, calldataload(0x00))\n      dup1\n      0xd036972e\n      gt\n      tag_15\n      jumpi\n      dup1\n      0xd036972e\n      eq\n      tag_9\n      jumpi\n      dup1\n      0xd0d8bc86\n      eq\n      tag_10\n      jumpi\n      dup1\n      0xd9f9d5f2\n      eq\n      tag_11\n      jumpi\n      dup1\n      0xed12e8ef\n      eq\n      tag_12\n      jumpi\n      dup1\n      0xfbfa77cf\n      eq\n      tag_13\n      jumpi\n      dup1\n      0xfd276754\n      eq\n      tag_14\n      jumpi\n      0x00\n      dup1\n      revert\n    tag_15:\n      dup1\n      0x0777586a\n      eq\n      tag_3\n      jumpi\n      dup1\n      0x1f22e4b3\n      eq\n      tag_4\n      jumpi\n      dup1\n      0x407c2821\n      eq\n      tag_5\n      jumpi\n      dup1\n      0x50a63df1\n      eq\n      tag_6\n      jumpi\n      dup1\n      0x7dd0ddf9\n      eq\n      tag_7\n      jumpi\n      dup1\n      0x9e5faafc\n      eq\n      tag_8\n      jumpi\n      0x00\n      dup1\n      revert\n    tag_1:\n      jumpi(tag_2, calldatasize)\n        /* \"projects/01-reentrancy-vault/contracts/fixed/SafeAttacker.sol\":3607:3653  console.log(\"Receive called with:\", msg.value) */\n      tag_18\n      mload(0x40)\n      dup1\n      0x40\n      add\n      0x40\n      mstore\n      dup1\n      0x14\n      dup2\n      mstore\n      0x20\n      add\n      shl(0x61, 0x2932b1b2b4bb329031b0b63632b2103bb4ba341d)\n      dup2\n      mstore\n      pop\n        /* \"projects/01-reentrancy-vault/contracts/fixed/SafeAttacker.sol\":3643:3652  msg.value */\n      callvalue\n        /* \"projects/01-reentrancy-vault/contracts/fixed/SafeAttacker.sol\":3607:3618  console.log */\n      tag_19\n        /* \"projects/01-reentrancy-vault/contracts/fixed/SafeAttacker.sol\":3607:3653  console.log(\"Receive called with:\", msg.value) */\n      jump\t// in\n    tag_18:\n        /* \"projects/01-reentrancy-vault/contracts/fixed/SafeAttacker.sol\":3663:3704  console.log(\"Attack count:\", attackCount) */\n      tag_20\n      mload(0x40)\n      dup1\n      0x40\n      add\n      0x40\n      mstore\n      dup1\n      0x0d\n      dup2\n      mstore\n      0x20\n      add\n      shl(0x99, 0x20ba3a30b1b59031b7bab73a1d)\n      dup2\n      mstore\n      pop\n        /* \"projects/01-reentrancy-vault/contracts/fixed/SafeAttacker.sol\":3692:3703  attackCount */\n      sload(0x01)\n        /* \"projects/01-reentrancy-vault/contracts/fixed/SafeAttacker.sol\":3663:3674  console.log */\n      tag_19\n        /* \"projects/01-reentrancy-vault/contracts/fixed/SafeAttacker.sol\":3663:3704  console.log(\"Attack count:\", attackCount) */\n      jump\t// in\n    tag_20:\n        /* \"projects/01-reentrancy-vault/contracts/fixed/SafeAttacker.sol\":3738:3747  msg.value */\n      callvalue\n        /* \"projects/01-reentrancy-vault/contracts/fixed/SafeAttacker.sol\":3723:3734  totalStolen */\n      0x02\n      0x00\n        /* \"projects/01-reentrancy-vault/contracts/fixed/SafeAttacker.sol\":3723:3747  totalStolen += msg.value */\n      dup3\n      dup3\n      sload\n      tag_21\n      swap2\n      swap1\n      tag_22\n      jump\t// in\n    tag_21:\n      swap1\n      swap2\n      sstore\n      pop\n      pop\n        /* \"projects/01-reentrancy-vault/contracts/fixed/SafeAttacker.sol\":3757:3768  attackCount */\n      0x01\n        /* \"projects/01-reentrancy-vault/contracts/fixed/SafeAttacker.sol\":3757:3770  attackCount++ */\n      dup1\n      sload\n      swap1\n        /* \"projects/01-reentrancy-vault/contracts/fixed/SafeAttacker.sol\":3757:3768  attackCount */\n      0x00\n        /* \"projects/01-reentrancy-vault/contracts/fixed/SafeAttacker.sol\":3757:3770  attackCount++ */\n      tag_23\n      dup4\n      tag_24\n      jump\t// in\n    tag_23:\n      swap1\n      swap2\n      sstore\n      pop\n      pop\n        /* \"projects/01-reentrancy-vault/contracts/fixed/SafeAttacker.sol\":3809:3820  attackCount */\n      sload(0x01)\n        /* \"projects/01-reentrancy-vault/contracts/fixed/SafeAttacker.sol\":3794:3832  AttackExecuted(attackCount, msg.value) */\n      0x40\n      dup1\n      mload\n        /* \"#utility.yul\":590:615   */\n      swap2\n      dup3\n      mstore\n        /* \"projects/01-reentrancy-vault/contracts/fixed/SafeAttacker.sol\":3822:3831  msg.value */\n      callvalue\n        /* \"#utility.yul\":646:648   */\n      0x20\n        /* \"#utility.yul\":631:649   */\n      dup4\n      add\n        /* \"#utility.yul\":624:658   */\n      mstore\n        /* \"projects/01-reentrancy-vault/contracts/fixed/SafeAttacker.sol\":3794:3832  AttackExecuted(attackCount, msg.value) */\n      0x61fb290b1aeb49a8eff0a91c4310d27d98e1199a1abab0312a9a39570824af7d\n      swap2\n        /* \"#utility.yul\":563:581   */\n      add\n        /* \"projects/01-reentrancy-vault/contracts/fixed/SafeAttacker.sol\":3794:3832  AttackExecuted(attackCount, msg.value) */\n      mload(0x40)\n      dup1\n      swap2\n      sub\n      swap1\n      log1\n        /* \"projects/01-reentrancy-vault/contracts/fixed/SafeAttacker.sol\":3948:3949  3 */\n      0x03\n        /* \"projects/01-reentrancy-vault/contracts/fixed/SafeAttacker.sol\":3934:3945  attackCount */\n      sload(0x01)\n        /* \"projects/01-reentrancy-vault/contracts/fixed/SafeAttacker.sol\":3934:3949  attackCount < 3 */\n      lt\n        /* \"projects/01-reentrancy-vault/contracts/fixed/SafeAttacker.sol\":3934:3988  attackCount < 3 && address(vault).balance >= msg.value */\n      dup1\n      iszero\n      tag_27\n      jumpi\n      pop\n        /* \"projects/01-reentrancy-vault/contracts/fixed/SafeAttacker.sol\":3961:3966  vault */\n      sload(0x00)\n        /* \"projects/01-reentrancy-vault/contracts/fixed/SafeAttacker.sol\":3979:3988  msg.value */\n      callvalue\n      sub(shl(0xa0, 0x01), 0x01)\n        /* \"projects/01-reentrancy-vault/contracts/fixed/SafeAttacker.sol\":3961:3966  vault */\n      swap1\n      swap2\n      and\n        /* \"projects/01-reentrancy-vault/contracts/fixed/SafeAttacker.sol\":3953:3975  address(vault).balance */\n      balance\n        /* \"projects/01-reentrancy-vault/contracts/fixed/SafeAttacker.sol\":3953:3988  address(vault).balance >= msg.value */\n      lt\n      iszero\n        /* \"projects/01-reentrancy-vault/contracts/fixed/SafeAttacker.sol\":3934:3988  attackCount < 3 && address(vault).balance >= msg.value */\n    tag_27:\n        /* \"projects/01-reentrancy-vault/contracts/fixed/SafeAttacker.sol\":3930:4548  if (attackCount < 3 && address(vault).balance >= msg.value) {... */\n      iszero\n      tag_51\n      jumpi\n        /* \"projects/01-reentrancy-vault/contracts/fixed/SafeAttacker.sol\":4004:4057  console.log(\"Attempting reentrancy (should fail)...\") */\n      tag_29\n      mload(0x40)\n      dup1\n      0x60\n      add\n      0x40\n      mstore\n      dup1\n      0x26\n      dup2\n      mstore\n      0x20\n      add\n      data_c3693f19ba6014cbd71accce976ddea7552976964ee1bd0b0ee0fe1a78255bb9\n      0x26\n      swap2\n      codecopy\n        /* \"projects/01-reentrancy-vault/contracts/fixed/SafeAttacker.sol\":4004:4015  console.log */\n      tag_30\n        /* \"projects/01-reentrancy-vault/contracts/fixed/SafeAttacker.sol\":4004:4057  console.log(\"Attempting reentrancy (should fail)...\") */\n      jump\t// in\n    tag_29:\n        /* \"projects/01-reentrancy-vault/contracts/fixed/SafeAttacker.sol\":4088:4093  vault */\n      sload(0x00)\n        /* \"projects/01-reentrancy-vault/contracts/fixed/SafeAttacker.sol\":4088:4113  vault.withdraw(msg.value) */\n      mload(0x40)\n      shl(0xe0, 0x2e1a7d4d)\n      dup2\n      mstore\n        /* \"projects/01-reentrancy-vault/contracts/fixed/SafeAttacker.sol\":4103:4112  msg.value */\n      callvalue\n        /* \"projects/01-reentrancy-vault/contracts/fixed/SafeAttacker.sol\":4088:4113  vault.withdraw(msg.value) */\n      0x04\n      dup3\n      add\n        /* \"#utility.yul\":815:840   */\n      mstore\n      sub(shl(0xa0, 0x01), 0x01)\n        /* \"projects/01-reentrancy-vault/contracts/fixed/SafeAttacker.sol\":4088:4093  vault */\n      swap1\n      swap2\n      and\n      swap1\n        /* \"projects/01-reentrancy-vault/contracts/fixed/SafeAttacker.sol\":4088:4102  vault.withdraw */\n      0x2e1a7d4d\n      swap1\n        /* \"#utility.yul\":788:806   */\n      0x24\n      add\n        /* \"projects/01-reentrancy-vault/contracts/fixed/SafeAttacker.sol\":4088:4113  vault.withdraw(msg.value) */\n      0x00\n      mload(0x40)\n      dup1\n      dup4\n      sub\n      dup2\n      0x00\n      dup8\n      dup1\n      extcodesize\n      iszero\n      dup1\n      iszero\n      tag_33\n      jumpi\n      0x00\n      dup1\n      revert\n    tag_33:\n      pop\n      gas\n      call\n      swap3\n      pop\n      pop\n      pop\n      dup1\n      iszero\n      tag_34\n      jumpi\n      pop\n      0x01\n    tag_34:\n        /* \"projects/01-reentrancy-vault/contracts/fixed/SafeAttacker.sol\":4084:4538  try vault.withdraw(msg.value) {... */\n      tag_35\n      jumpi\n      tag_39\n      tag_40\n      jump\t// in\n    tag_39:\n      dup1\n      0x08c379a0\n      sub\n      tag_38\n      jumpi\n      pop\n      tag_41\n      tag_42\n      jump\t// in\n    tag_41:\n      dup1\n      tag_43\n      jumpi\n      pop\n      jump(tag_37)\n    tag_43:\n        /* \"projects/01-reentrancy-vault/contracts/fixed/SafeAttacker.sol\":4254:4308  console.log(\"Reentrancy blocked with reason:\", reason) */\n      tag_44\n      mload(0x40)\n      dup1\n      0x40\n      add\n      0x40\n      mstore\n      dup1\n      0x1f\n      dup2\n      mstore\n      0x20\n      add\n      0x5265656e7472616e637920626c6f636b6564207769746820726561736f6e3a00\n      dup2\n      mstore\n      pop\n        /* \"projects/01-reentrancy-vault/contracts/fixed/SafeAttacker.sol\":4301:4307  reason */\n      dup3\n        /* \"projects/01-reentrancy-vault/contracts/fixed/SafeAttacker.sol\":4254:4265  console.log */\n      tag_45\n        /* \"projects/01-reentrancy-vault/contracts/fixed/SafeAttacker.sol\":4254:4308  console.log(\"Reentrancy blocked with reason:\", reason) */\n      jump\t// in\n    tag_44:\n      0x00\n      dup1\n      mload\n      0x20\n      data_5fb5946472844d2cdf93561fee9ecd60c46278d480bceaa3d64d18dc163b389d\n      dup4\n      codecopy\n      dup2\n      mload\n      swap2\n      mstore\n        /* \"projects/01-reentrancy-vault/contracts/fixed/SafeAttacker.sol\":4331:4371  SecurityTestPassed(\"Reentrancy Blocked\") */\n      mload(0x40)\n      tag_46\n      swap1\n        /* \"#utility.yul\":2264:2266   */\n      0x20\n        /* \"#utility.yul\":2246:2267   */\n      dup1\n      dup3\n      mstore\n        /* \"#utility.yul\":2303:2305   */\n      0x12\n        /* \"#utility.yul\":2283:2301   */\n      swap1\n      dup3\n      add\n        /* \"#utility.yul\":2276:2306   */\n      mstore\n      shl(0x72, 0x1499595b9d1c985b98de48109b1bd8dad959)\n        /* \"#utility.yul\":2337:2339   */\n      0x40\n        /* \"#utility.yul\":2322:2340   */\n      dup3\n      add\n        /* \"#utility.yul\":2315:2363   */\n      mstore\n        /* \"#utility.yul\":2395:2397   */\n      0x60\n        /* \"#utility.yul\":2380:2398   */\n      add\n      swap1\n        /* \"#utility.yul\":2062:2404   */\n      jump\n        /* \"projects/01-reentrancy-vault/contracts/fixed/SafeAttacker.sol\":4331:4371  SecurityTestPassed(\"Reentrancy Blocked\") */\n    tag_46:\n      mload(0x40)\n      dup1\n      swap2\n      sub\n      swap1\n      log1\n        /* \"projects/01-reentrancy-vault/contracts/fixed/SafeAttacker.sol\":4202:4386  catch Error(string memory reason) {... */\n      stop\n        /* \"projects/01-reentrancy-vault/contracts/fixed/SafeAttacker.sol\":4084:4538  try vault.withdraw(msg.value) {... */\n    tag_38:\n      pop\n    tag_37:\n        /* \"projects/01-reentrancy-vault/contracts/fixed/SafeAttacker.sol\":4411:4460  console.log(\"Reentrancy blocked (generic error)\") */\n      tag_44\n      mload(0x40)\n      dup1\n      0x60\n      add\n      0x40\n      mstore\n      dup1\n      0x22\n      dup2\n      mstore\n      0x20\n      add\n      data_b08ccea919803a1ee6d710132c881e5854c0b356083b79d39af15a18fe83cc4b\n      0x22\n      swap2\n      codecopy\n        /* \"projects/01-reentrancy-vault/contracts/fixed/SafeAttacker.sol\":4411:4422  console.log */\n      tag_30\n        /* \"projects/01-reentrancy-vault/contracts/fixed/SafeAttacker.sol\":4411:4460  console.log(\"Reentrancy blocked (generic error)\") */\n      jump\t// in\n        /* \"projects/01-reentrancy-vault/contracts/fixed/SafeAttacker.sol\":4084:4538  try vault.withdraw(msg.value) {... */\n    tag_35:\n        /* \"projects/01-reentrancy-vault/contracts/fixed/SafeAttacker.sol\":4132:4186  console.log(\"REENTRANCY SUCCEEDED - SECURITY BREACH!\") */\n      tag_51\n      mload(0x40)\n      dup1\n      0x60\n      add\n      0x40\n      mstore\n      dup1\n      0x27\n      dup2\n      mstore\n      0x20\n      add\n      data_2a0d085931cd43a46e4e625bdfc157eeaf0ae396f0d40874e546c25b848175ab\n      0x27\n      swap2\n      codecopy\n        /* \"projects/01-reentrancy-vault/contracts/fixed/SafeAttacker.sol\":4132:4143  console.log */\n      tag_30\n        /* \"projects/01-reentrancy-vault/contracts/fixed/SafeAttacker.sol\":4132:4186  console.log(\"REENTRANCY SUCCEEDED - SECURITY BREACH!\") */\n      jump\t// in\n    tag_51:\n        /* \"projects/01-reentrancy-vault/contracts/fixed/SafeAttacker.sol\":546:6496  contract SafeAttacker is IAttacker {... */\n      stop\n    tag_2:\n      0x00\n      dup1\n      revert\n        /* \"projects/01-reentrancy-vault/contracts/fixed/SafeAttacker.sol\":5004:5162  function getAttackStats() external view override returns (uint256, uint256, uint256) {... */\n    tag_3:\n      callvalue\n      dup1\n      iszero\n      tag_52\n      jumpi\n      0x00\n      dup1\n      revert\n    tag_52:\n      pop\n        /* \"projects/01-reentrancy-vault/contracts/fixed/SafeAttacker.sol\":5107:5118  attackCount */\n      sload(0x01)\n        /* \"projects/01-reentrancy-vault/contracts/fixed/SafeAttacker.sol\":5120:5131  totalStolen */\n      sload(0x02)\n        /* \"projects/01-reentrancy-vault/contracts/fixed/SafeAttacker.sol\":5133:5154  address(this).balance */\n      selfbalance\n        /* \"projects/01-reentrancy-vault/contracts/fixed/SafeAttacker.sol\":5004:5162  function getAttackStats() external view override returns (uint256, uint256, uint256) {... */\n      0x40\n      dup1\n      mload\n        /* \"#utility.yul\":2611:2636   */\n      swap4\n      dup5\n      mstore\n        /* \"#utility.yul\":2667:2669   */\n      0x20\n        /* \"#utility.yul\":2652:2670   */\n      dup5\n      add\n        /* \"#utility.yul\":2645:2679   */\n      swap3\n      swap1\n      swap3\n      mstore\n        /* \"#utility.yul\":2695:2713   */\n      swap1\n      dup3\n      add\n        /* \"#utility.yul\":2688:2722   */\n      mstore\n        /* \"#utility.yul\":2599:2601   */\n      0x60\n        /* \"#utility.yul\":2584:2602   */\n      add\n        /* \"projects/01-reentrancy-vault/contracts/fixed/SafeAttacker.sol\":5004:5162  function getAttackStats() external view override returns (uint256, uint256, uint256) {... */\n    tag_55:\n      mload(0x40)\n      dup1\n      swap2\n      sub\n      swap1\n      return\n        /* \"projects/01-reentrancy-vault/contracts/fixed/SafeAttacker.sol\":5386:5513  function getVaultUserBalance() external view override returns (uint256) {... */\n    tag_4:\n      callvalue\n      dup1\n      iszero\n      tag_57\n      jumpi\n      0x00\n      dup1\n      revert\n    tag_57:\n      pop\n      tag_58\n      tag_59\n      jump\t// in\n    tag_58:\n      mload(0x40)\n        /* \"#utility.yul\":815:840   */\n      swap1\n      dup2\n      mstore\n        /* \"#utility.yul\":803:805   */\n      0x20\n        /* \"#utility.yul\":788:806   */\n      add\n        /* \"projects/01-reentrancy-vault/contracts/fixed/SafeAttacker.sol\":5386:5513  function getVaultUserBalance() external view override returns (uint256) {... */\n      tag_55\n        /* \"#utility.yul\":669:846   */\n      jump\n        /* \"projects/01-reentrancy-vault/contracts/fixed/SafeAttacker.sol\":616:651  uint256 public override attackCount */\n    tag_5:\n      callvalue\n      dup1\n      iszero\n      tag_61\n      jumpi\n      0x00\n      dup1\n      revert\n    tag_61:\n      pop\n      tag_58\n      sload(0x01)\n      dup2\n      jump\n        /* \"projects/01-reentrancy-vault/contracts/fixed/SafeAttacker.sol\":2068:2685  function attackDepositBonus() external payable override {... */\n    tag_6:\n      tag_51\n      tag_66\n      jump\t// in\n        /* \"projects/01-reentrancy-vault/contracts/fixed/SafeAttacker.sol\":2747:3486  function attackEmergencyWithdraw() external payable override {... */\n    tag_7:\n      tag_51\n      tag_68\n      jump\t// in\n        /* \"projects/01-reentrancy-vault/contracts/fixed/SafeAttacker.sol\":834:2011  function attack() external payable override {... */\n    tag_8:\n      tag_51\n      tag_70\n      jump\t// in\n        /* \"projects/01-reentrancy-vault/contracts/fixed/SafeAttacker.sol\":6090:6494  function testInvalidWithdraw() external {... */\n    tag_9:\n      callvalue\n      dup1\n      iszero\n      tag_71\n      jumpi\n      0x00\n      dup1\n      revert\n    tag_71:\n      pop\n      tag_51\n      tag_73\n      jump\t// in\n        /* \"projects/01-reentrancy-vault/contracts/fixed/SafeAttacker.sol\":5565:6080  function testMultipleDeposits() external payable {... */\n    tag_10:\n      tag_51\n      tag_75\n      jump\t// in\n        /* \"projects/01-reentrancy-vault/contracts/fixed/SafeAttacker.sol\":657:692  uint256 public override totalStolen */\n    tag_11:\n      callvalue\n      dup1\n      iszero\n      tag_76\n      jumpi\n      0x00\n      dup1\n      revert\n    tag_76:\n      pop\n      tag_58\n      sload(0x02)\n      dup2\n      jump\n        /* \"projects/01-reentrancy-vault/contracts/fixed/SafeAttacker.sol\":5209:5327  function getVaultBalance() external view override returns (uint256) {... */\n    tag_12:\n      callvalue\n      dup1\n      iszero\n      tag_80\n      jumpi\n      0x00\n      dup1\n      revert\n    tag_80:\n      pop\n      tag_58\n      tag_82\n      jump\t// in\n        /* \"projects/01-reentrancy-vault/contracts/fixed/SafeAttacker.sol\":587:610  FixedVault public vault */\n    tag_13:\n      callvalue\n      dup1\n      iszero\n      tag_84\n      jumpi\n      0x00\n      dup1\n      revert\n    tag_84:\n      pop\n      sload(0x00)\n      tag_85\n      swap1\n      sub(shl(0xa0, 0x01), 0x01)\n      and\n      dup2\n      jump\n    tag_85:\n      mload(0x40)\n      sub(shl(0xa0, 0x01), 0x01)\n        /* \"#utility.yul\":2925:2957   */\n      swap1\n      swap2\n      and\n        /* \"#utility.yul\":2907:2958   */\n      dup2\n      mstore\n        /* \"#utility.yul\":2895:2897   */\n      0x20\n        /* \"#utility.yul\":2880:2898   */\n      add\n        /* \"projects/01-reentrancy-vault/contracts/fixed/SafeAttacker.sol\":587:610  FixedVault public vault */\n      tag_55\n        /* \"#utility.yul\":2733:2964   */\n      jump\n        /* \"projects/01-reentrancy-vault/contracts/fixed/SafeAttacker.sol\":4617:4953  function withdrawStolenFunds() external override {... */\n    tag_14:\n      callvalue\n      dup1\n      iszero\n      tag_89\n      jumpi\n      0x00\n      dup1\n      revert\n    tag_89:\n      pop\n      tag_51\n      tag_91\n      jump\t// in\n        /* \"lib/forge-std/src/console.sol\":7139:7284  function log(string memory p0, uint256 p1) internal pure {... */\n    tag_19:\n        /* \"lib/forge-std/src/console.sol\":7206:7277  _sendLogPayload(abi.encodeWithSignature(\"log(string,uint256)\", p0, p1)) */\n      tag_93\n        /* \"lib/forge-std/src/console.sol\":7269:7271  p0 */\n      dup3\n        /* \"lib/forge-std/src/console.sol\":7273:7275  p1 */\n      dup3\n        /* \"lib/forge-std/src/console.sol\":7222:7276  abi.encodeWithSignature(\"log(string,uint256)\", p0, p1) */\n      add(0x24, mload(0x40))\n      tag_94\n      swap3\n      swap2\n      swap1\n      tag_95\n      jump\t// in\n    tag_94:\n      0x40\n      dup1\n      mload\n      not(0x1f)\n      dup2\n      dup5\n      sub\n      add\n      dup2\n      mstore\n      swap2\n      swap1\n      mstore\n      0x20\n      dup2\n      add\n      dup1\n      mload\n      sub(shl(0xe0, 0x01), 0x01)\n      and\n      shl(0xe2, 0x2d839cb3)\n      or\n      swap1\n      mstore\n        /* \"lib/forge-std/src/console.sol\":7206:7221  _sendLogPayload */\n      tag_96\n        /* \"lib/forge-std/src/console.sol\":7206:7277  _sendLogPayload(abi.encodeWithSignature(\"log(string,uint256)\", p0, p1)) */\n      jump\t// in\n    tag_93:\n        /* \"lib/forge-std/src/console.sol\":7139:7284  function log(string memory p0, uint256 p1) internal pure {... */\n      pop\n      pop\n      jump\t// out\n        /* \"lib/forge-std/src/console.sol\":6191:6312  function log(string memory p0) internal pure {... */\n    tag_30:\n        /* \"lib/forge-std/src/console.sol\":6246:6305  _sendLogPayload(abi.encodeWithSignature(\"log(string)\", p0)) */\n      tag_98\n        /* \"lib/forge-std/src/console.sol\":6301:6303  p0 */\n      dup2\n        /* \"lib/forge-std/src/console.sol\":6262:6304  abi.encodeWithSignature(\"log(string)\", p0) */\n      add(0x24, mload(0x40))\n      tag_99\n      swap2\n      swap1\n      tag_100\n      jump\t// in\n    tag_99:\n      0x40\n      dup1\n      mload\n      not(0x1f)\n      dup2\n      dup5\n      sub\n      add\n      dup2\n      mstore\n      swap2\n      swap1\n      mstore\n      0x20\n      dup2\n      add\n      dup1\n      mload\n      sub(shl(0xe0, 0x01), 0x01)\n      and\n      shl(0xe2, 0x104c13eb)\n      or\n      swap1\n      mstore\n        /* \"lib/forge-std/src/console.sol\":6246:6261  _sendLogPayload */\n      tag_96\n        /* \"lib/forge-std/src/console.sol\":6246:6305  _sendLogPayload(abi.encodeWithSignature(\"log(string)\", p0)) */\n      jump\t// in\n    tag_98:\n        /* \"lib/forge-std/src/console.sol\":6191:6312  function log(string memory p0) internal pure {... */\n      pop\n      jump\t// out\n        /* \"lib/forge-std/src/console.sol\":7439:7589  function log(string memory p0, string memory p1) internal pure {... */\n    tag_45:\n        /* \"lib/forge-std/src/console.sol\":7512:7582  _sendLogPayload(abi.encodeWithSignature(\"log(string,string)\", p0, p1)) */\n      tag_93\n        /* \"lib/forge-std/src/console.sol\":7574:7576  p0 */\n      dup3\n        /* \"lib/forge-std/src/console.sol\":7578:7580  p1 */\n      dup3\n        /* \"lib/forge-std/src/console.sol\":7528:7581  abi.encodeWithSignature(\"log(string,string)\", p0, p1) */\n      add(0x24, mload(0x40))\n      tag_103\n      swap3\n      swap2\n      swap1\n      tag_104\n      jump\t// in\n    tag_103:\n      0x40\n      dup1\n      mload\n      not(0x1f)\n      dup2\n      dup5\n      sub\n      add\n      dup2\n      mstore\n      swap2\n      swap1\n      mstore\n      0x20\n      dup2\n      add\n      dup1\n      mload\n      sub(shl(0xe0, 0x01), 0x01)\n      and\n      shl(0xe0, 0x4b5c4277)\n      or\n      swap1\n      mstore\n        /* \"lib/forge-std/src/console.sol\":7512:7527  _sendLogPayload */\n      tag_96\n        /* \"lib/forge-std/src/console.sol\":7512:7582  _sendLogPayload(abi.encodeWithSignature(\"log(string,string)\", p0, p1)) */\n      jump\t// in\n        /* \"projects/01-reentrancy-vault/contracts/fixed/SafeAttacker.sol\":5386:5513  function getVaultUserBalance() external view override returns (uint256) {... */\n    tag_59:\n        /* \"projects/01-reentrancy-vault/contracts/fixed/SafeAttacker.sol\":5449:5456  uint256 */\n      0x00\n        /* \"projects/01-reentrancy-vault/contracts/fixed/SafeAttacker.sol\":5475:5480  vault */\n      dup1\n      sload\n        /* \"projects/01-reentrancy-vault/contracts/fixed/SafeAttacker.sol\":5475:5506  vault.getBalance(address(this)) */\n      mload(0x40)\n      shl(0xe0, 0xf8b2cb4f)\n      dup2\n      mstore\n        /* \"projects/01-reentrancy-vault/contracts/fixed/SafeAttacker.sol\":5500:5504  this */\n      address\n        /* \"projects/01-reentrancy-vault/contracts/fixed/SafeAttacker.sol\":5475:5506  vault.getBalance(address(this)) */\n      0x04\n      dup3\n      add\n        /* \"#utility.yul\":2907:2958   */\n      mstore\n      sub(shl(0xa0, 0x01), 0x01)\n        /* \"projects/01-reentrancy-vault/contracts/fixed/SafeAttacker.sol\":5475:5480  vault */\n      swap1\n      swap2\n      and\n      swap1\n        /* \"projects/01-reentrancy-vault/contracts/fixed/SafeAttacker.sol\":5475:5491  vault.getBalance */\n      0xf8b2cb4f\n      swap1\n        /* \"#utility.yul\":2880:2898   */\n      0x24\n      add\n        /* \"projects/01-reentrancy-vault/contracts/fixed/SafeAttacker.sol\":5475:5506  vault.getBalance(address(this)) */\n      0x20\n      mload(0x40)\n      dup1\n      dup4\n      sub\n      dup2\n      dup7\n      gas\n      staticcall\n      iszero\n      dup1\n      iszero\n      tag_110\n      jumpi\n      returndatasize\n      0x00\n      dup1\n      returndatacopy\n      revert(0x00, returndatasize)\n    tag_110:\n      pop\n      pop\n      pop\n      pop\n      mload(0x40)\n      returndatasize\n      not(0x1f)\n      0x1f\n      dup3\n      add\n      and\n      dup3\n      add\n      dup1\n      0x40\n      mstore\n      pop\n      dup2\n      add\n      swap1\n      tag_111\n      swap2\n      swap1\n      tag_112\n      jump\t// in\n    tag_111:\n        /* \"projects/01-reentrancy-vault/contracts/fixed/SafeAttacker.sol\":5468:5506  return vault.getBalance(address(this)) */\n      swap1\n      pop\n        /* \"projects/01-reentrancy-vault/contracts/fixed/SafeAttacker.sol\":5386:5513  function getVaultUserBalance() external view override returns (uint256) {... */\n      swap1\n      jump\t// out\n        /* \"projects/01-reentrancy-vault/contracts/fixed/SafeAttacker.sol\":2068:2685  function attackDepositBonus() external payable override {... */\n    tag_66:\n        /* \"projects/01-reentrancy-vault/contracts/fixed/SafeAttacker.sol\":2155:2162  1 ether */\n      0x0de0b6b3a7640000\n        /* \"projects/01-reentrancy-vault/contracts/fixed/SafeAttacker.sol\":2142:2151  msg.value */\n      callvalue\n        /* \"projects/01-reentrancy-vault/contracts/fixed/SafeAttacker.sol\":2142:2162  msg.value >= 1 ether */\n      lt\n      iszero\n        /* \"projects/01-reentrancy-vault/contracts/fixed/SafeAttacker.sol\":2134:2186  require(msg.value >= 1 ether, \"Need at least 1 ETH\") */\n      tag_114\n      jumpi\n      mload(0x40)\n      shl(0xe5, 0x461bcd)\n      dup2\n      mstore\n        /* \"#utility.yul\":4905:4907   */\n      0x20\n        /* \"projects/01-reentrancy-vault/contracts/fixed/SafeAttacker.sol\":2134:2186  require(msg.value >= 1 ether, \"Need at least 1 ETH\") */\n      0x04\n      dup3\n      add\n        /* \"#utility.yul\":4887:4908   */\n      mstore\n        /* \"#utility.yul\":4944:4946   */\n      0x13\n        /* \"#utility.yul\":4924:4942   */\n      0x24\n      dup3\n      add\n        /* \"#utility.yul\":4917:4947   */\n      mstore\n      shl(0x6b, 0x09ccacac840c2e840d8cac2e6e84062408aa89)\n        /* \"#utility.yul\":4963:4981   */\n      0x44\n      dup3\n      add\n        /* \"#utility.yul\":4956:5005   */\n      mstore\n        /* \"#utility.yul\":5022:5040   */\n      0x64\n      add\n        /* \"projects/01-reentrancy-vault/contracts/fixed/SafeAttacker.sol\":2134:2186  require(msg.value >= 1 ether, \"Need at least 1 ETH\") */\n    tag_115:\n      mload(0x40)\n      dup1\n      swap2\n      sub\n      swap1\n      revert\n    tag_114:\n        /* \"projects/01-reentrancy-vault/contracts/fixed/SafeAttacker.sol\":2205:2253  console.log(\"Testing deposit bonus security...\") */\n      tag_117\n      mload(0x40)\n      dup1\n      0x60\n      add\n      0x40\n      mstore\n      dup1\n      0x21\n      dup2\n      mstore\n      0x20\n      add\n      data_1a361d4ce2bd4b83a73364705ffbc564beaba38b586f0af32776ef320d572a38\n      0x21\n      swap2\n      codecopy\n        /* \"projects/01-reentrancy-vault/contracts/fixed/SafeAttacker.sol\":2205:2216  console.log */\n      tag_30\n        /* \"projects/01-reentrancy-vault/contracts/fixed/SafeAttacker.sol\":2205:2253  console.log(\"Testing deposit bonus security...\") */\n      jump\t// in\n    tag_117:\n        /* \"projects/01-reentrancy-vault/contracts/fixed/SafeAttacker.sol\":2276:2281  vault */\n      0x00\n      dup1\n      sload\n      swap1\n      0x0100\n      exp\n      swap1\n      div\n      sub(shl(0xa0, 0x01), 0x01)\n      and\n      sub(shl(0xa0, 0x01), 0x01)\n        /* \"projects/01-reentrancy-vault/contracts/fixed/SafeAttacker.sol\":2276:2289  vault.deposit */\n      and\n      0xd0e30db0\n        /* \"projects/01-reentrancy-vault/contracts/fixed/SafeAttacker.sol\":2297:2306  msg.value */\n      callvalue\n        /* \"projects/01-reentrancy-vault/contracts/fixed/SafeAttacker.sol\":2276:2309  vault.deposit{value: msg.value}() */\n      mload(0x40)\n      dup3\n      0xffffffff\n      and\n      0xe0\n      shl\n      dup2\n      mstore\n      0x04\n      add\n      0x00\n      mload(0x40)\n      dup1\n      dup4\n      sub\n      dup2\n      dup6\n      dup9\n      dup1\n      extcodesize\n      iszero\n      dup1\n      iszero\n      tag_118\n      jumpi\n      0x00\n      dup1\n      revert\n    tag_118:\n      pop\n      gas\n      call\n      swap4\n      pop\n      pop\n      pop\n      pop\n      dup1\n      iszero\n      tag_119\n      jumpi\n      pop\n      0x01\n    tag_119:\n        /* \"projects/01-reentrancy-vault/contracts/fixed/SafeAttacker.sol\":2272:2609  try vault.deposit{value: msg.value}() {... */\n      tag_120\n      jumpi\n      tag_124\n      tag_40\n      jump\t// in\n    tag_124:\n      dup1\n      0x08c379a0\n      sub\n      tag_123\n      jumpi\n      pop\n      tag_125\n      tag_42\n      jump\t// in\n    tag_125:\n      dup1\n      tag_126\n      jumpi\n      pop\n      jump(tag_122)\n    tag_126:\n        /* \"projects/01-reentrancy-vault/contracts/fixed/SafeAttacker.sol\":2503:2553  console.log(\"Deposit failed with reason:\", reason) */\n      tag_127\n      mload(0x40)\n      dup1\n      0x40\n      add\n      0x40\n      mstore\n      dup1\n      0x1b\n      dup2\n      mstore\n      0x20\n      add\n      0x4465706f736974206661696c6564207769746820726561736f6e3a0000000000\n      dup2\n      mstore\n      pop\n        /* \"projects/01-reentrancy-vault/contracts/fixed/SafeAttacker.sol\":2546:2552  reason */\n      dup3\n        /* \"projects/01-reentrancy-vault/contracts/fixed/SafeAttacker.sol\":2503:2514  console.log */\n      tag_45\n        /* \"projects/01-reentrancy-vault/contracts/fixed/SafeAttacker.sol\":2503:2553  console.log(\"Deposit failed with reason:\", reason) */\n      jump\t// in\n    tag_127:\n        /* \"projects/01-reentrancy-vault/contracts/fixed/SafeAttacker.sol\":2572:2598  AttackAttempted(2, reason) */\n      0xc5016effea2104c72ad0b8c235734f5fea25efbca39fefed03cdc02c92e6c114\n        /* \"projects/01-reentrancy-vault/contracts/fixed/SafeAttacker.sol\":2588:2589  2 */\n      0x02\n        /* \"projects/01-reentrancy-vault/contracts/fixed/SafeAttacker.sol\":2591:2597  reason */\n      dup3\n        /* \"projects/01-reentrancy-vault/contracts/fixed/SafeAttacker.sol\":2572:2598  AttackAttempted(2, reason) */\n      mload(0x40)\n      tag_128\n      swap3\n      swap2\n      swap1\n      tag_129\n      jump\t// in\n    tag_128:\n      mload(0x40)\n      dup1\n      swap2\n      sub\n      swap1\n      log1\n        /* \"projects/01-reentrancy-vault/contracts/fixed/SafeAttacker.sol\":2455:2609  catch Error(string memory reason) {... */\n      pop\n        /* \"projects/01-reentrancy-vault/contracts/fixed/SafeAttacker.sol\":2272:2609  try vault.deposit{value: msg.value}() {... */\n      jump(tag_132)\n    tag_123:\n      pop\n    tag_122:\n      returndatasize\n      0x00\n      dup1\n      returndatacopy\n      revert(0x00, returndatasize)\n    tag_120:\n        /* \"projects/01-reentrancy-vault/contracts/fixed/SafeAttacker.sol\":2324:2367  console.log(\"Deposit succeeded (expected)\") */\n      tag_131\n      mload(0x40)\n      dup1\n      0x40\n      add\n      0x40\n      mstore\n      dup1\n      0x1c\n      dup2\n      mstore\n      0x20\n      add\n      0x4465706f73697420737563636565646564202865787065637465642900000000\n      dup2\n      mstore\n      pop\n        /* \"projects/01-reentrancy-vault/contracts/fixed/SafeAttacker.sol\":2324:2335  console.log */\n      tag_30\n        /* \"projects/01-reentrancy-vault/contracts/fixed/SafeAttacker.sol\":2324:2367  console.log(\"Deposit succeeded (expected)\") */\n      jump\t// in\n    tag_131:\n        /* \"projects/01-reentrancy-vault/contracts/fixed/SafeAttacker.sol\":2381:2443  console.log(\"Final balance:\", vault.getBalance(address(this))) */\n      0x40\n      dup1\n      mload\n      dup1\n      dup3\n      add\n      dup3\n      mstore\n      0x0e\n      dup2\n      mstore\n      shl(0x91, 0x2334b730b6103130b630b731b29d)\n      0x20\n      dup3\n      add\n      mstore\n      0x00\n        /* \"projects/01-reentrancy-vault/contracts/fixed/SafeAttacker.sol\":2411:2416  vault */\n      sload\n        /* \"projects/01-reentrancy-vault/contracts/fixed/SafeAttacker.sol\":2411:2442  vault.getBalance(address(this)) */\n      swap2\n      mload\n      shl(0xe0, 0xf8b2cb4f)\n      dup2\n      mstore\n        /* \"projects/01-reentrancy-vault/contracts/fixed/SafeAttacker.sol\":2436:2440  this */\n      address\n        /* \"projects/01-reentrancy-vault/contracts/fixed/SafeAttacker.sol\":2411:2442  vault.getBalance(address(this)) */\n      0x04\n      dup3\n      add\n        /* \"#utility.yul\":2907:2958   */\n      mstore\n        /* \"projects/01-reentrancy-vault/contracts/fixed/SafeAttacker.sol\":2381:2443  console.log(\"Final balance:\", vault.getBalance(address(this))) */\n      tag_132\n      swap3\n      sub(shl(0xa0, 0x01), 0x01)\n        /* \"projects/01-reentrancy-vault/contracts/fixed/SafeAttacker.sol\":2411:2416  vault */\n      and\n      swap1\n        /* \"projects/01-reentrancy-vault/contracts/fixed/SafeAttacker.sol\":2411:2427  vault.getBalance */\n      0xf8b2cb4f\n      swap1\n        /* \"#utility.yul\":2880:2898   */\n      0x24\n      add\n        /* \"projects/01-reentrancy-vault/contracts/fixed/SafeAttacker.sol\":2411:2442  vault.getBalance(address(this)) */\n    tag_133:\n      0x20\n      mload(0x40)\n      dup1\n      dup4\n      sub\n      dup2\n      dup7\n      gas\n      staticcall\n      iszero\n      dup1\n      iszero\n      tag_135\n      jumpi\n      returndatasize\n      0x00\n      dup1\n      returndatacopy\n      revert(0x00, returndatasize)\n    tag_135:\n      pop\n      pop\n      pop\n      pop\n      mload(0x40)\n      returndatasize\n      not(0x1f)\n      0x1f\n      dup3\n      add\n      and\n      dup3\n      add\n      dup1\n      0x40\n      mstore\n      pop\n      dup2\n      add\n      swap1\n      tag_136\n      swap2\n      swap1\n      tag_112\n      jump\t// in\n    tag_136:\n        /* \"projects/01-reentrancy-vault/contracts/fixed/SafeAttacker.sol\":2381:2392  console.log */\n      tag_19\n        /* \"projects/01-reentrancy-vault/contracts/fixed/SafeAttacker.sol\":2381:2443  console.log(\"Final balance:\", vault.getBalance(address(this))) */\n      jump\t// in\n    tag_132:\n      0x00\n      dup1\n      mload\n      0x20\n      data_5fb5946472844d2cdf93561fee9ecd60c46278d480bceaa3d64d18dc163b389d\n      dup4\n      codecopy\n      dup2\n      mload\n      swap2\n      mstore\n        /* \"projects/01-reentrancy-vault/contracts/fixed/SafeAttacker.sol\":2632:2678  SecurityTestPassed(\"Deposit Bonus Protection\") */\n      mload(0x40)\n      tag_137\n      swap1\n        /* \"#utility.yul\":5557:5559   */\n      0x20\n        /* \"#utility.yul\":5539:5560   */\n      dup1\n      dup3\n      mstore\n        /* \"#utility.yul\":5596:5598   */\n      0x18\n        /* \"#utility.yul\":5576:5594   */\n      swap1\n      dup3\n      add\n        /* \"#utility.yul\":5569:5599   */\n      mstore\n        /* \"#utility.yul\":5635:5661   */\n      0x4465706f73697420426f6e75732050726f74656374696f6e0000000000000000\n        /* \"#utility.yul\":5630:5632   */\n      0x40\n        /* \"#utility.yul\":5615:5633   */\n      dup3\n      add\n        /* \"#utility.yul\":5608:5662   */\n      mstore\n        /* \"#utility.yul\":5694:5696   */\n      0x60\n        /* \"#utility.yul\":5679:5697   */\n      add\n      swap1\n        /* \"#utility.yul\":5355:5703   */\n      jump\n        /* \"projects/01-reentrancy-vault/contracts/fixed/SafeAttacker.sol\":2632:2678  SecurityTestPassed(\"Deposit Bonus Protection\") */\n    tag_137:\n      mload(0x40)\n      dup1\n      swap2\n      sub\n      swap1\n      log1\n        /* \"projects/01-reentrancy-vault/contracts/fixed/SafeAttacker.sol\":2068:2685  function attackDepositBonus() external payable override {... */\n      jump\t// out\n        /* \"projects/01-reentrancy-vault/contracts/fixed/SafeAttacker.sol\":2747:3486  function attackEmergencyWithdraw() external payable override {... */\n    tag_68:\n        /* \"projects/01-reentrancy-vault/contracts/fixed/SafeAttacker.sol\":2838:2839  0 */\n      0x00\n        /* \"projects/01-reentrancy-vault/contracts/fixed/SafeAttacker.sol\":2826:2835  msg.value */\n      callvalue\n        /* \"projects/01-reentrancy-vault/contracts/fixed/SafeAttacker.sol\":2826:2839  msg.value > 0 */\n      gt\n        /* \"projects/01-reentrancy-vault/contracts/fixed/SafeAttacker.sol\":2818:2860  require(msg.value > 0, \"Need ETH to test\") */\n      tag_140\n      jumpi\n      mload(0x40)\n      shl(0xe5, 0x461bcd)\n      dup2\n      mstore\n        /* \"#utility.yul\":5910:5912   */\n      0x20\n        /* \"projects/01-reentrancy-vault/contracts/fixed/SafeAttacker.sol\":2818:2860  require(msg.value > 0, \"Need ETH to test\") */\n      0x04\n      dup3\n      add\n        /* \"#utility.yul\":5892:5913   */\n      mstore\n        /* \"#utility.yul\":5949:5951   */\n      0x10\n        /* \"#utility.yul\":5929:5947   */\n      0x24\n      dup3\n      add\n        /* \"#utility.yul\":5922:5952   */\n      mstore\n      shl(0x82, 0x1399595908115512081d1bc81d195cdd)\n        /* \"#utility.yul\":5968:5986   */\n      0x44\n      dup3\n      add\n        /* \"#utility.yul\":5961:6007   */\n      mstore\n        /* \"#utility.yul\":6024:6042   */\n      0x64\n      add\n        /* \"projects/01-reentrancy-vault/contracts/fixed/SafeAttacker.sol\":2818:2860  require(msg.value > 0, \"Need ETH to test\") */\n      tag_115\n        /* \"#utility.yul\":5708:6048   */\n      jump\n        /* \"projects/01-reentrancy-vault/contracts/fixed/SafeAttacker.sol\":2818:2860  require(msg.value > 0, \"Need ETH to test\") */\n    tag_140:\n        /* \"projects/01-reentrancy-vault/contracts/fixed/SafeAttacker.sol\":2879:2932  console.log(\"Testing emergency withdraw security...\") */\n      tag_143\n      mload(0x40)\n      dup1\n      0x60\n      add\n      0x40\n      mstore\n      dup1\n      0x26\n      dup2\n      mstore\n      0x20\n      add\n      data_5647caeccbe88b61a87b84c41db4a0d5a2a09411b35068bcc48a46514627efa8\n      0x26\n      swap2\n      codecopy\n        /* \"projects/01-reentrancy-vault/contracts/fixed/SafeAttacker.sol\":2879:2890  console.log */\n      tag_30\n        /* \"projects/01-reentrancy-vault/contracts/fixed/SafeAttacker.sol\":2879:2932  console.log(\"Testing emergency withdraw security...\") */\n      jump\t// in\n    tag_143:\n        /* \"projects/01-reentrancy-vault/contracts/fixed/SafeAttacker.sol\":2996:3001  vault */\n      0x00\n      dup1\n      sload\n      swap1\n      0x0100\n      exp\n      swap1\n      div\n      sub(shl(0xa0, 0x01), 0x01)\n      and\n      sub(shl(0xa0, 0x01), 0x01)\n        /* \"projects/01-reentrancy-vault/contracts/fixed/SafeAttacker.sol\":2996:3009  vault.deposit */\n      and\n      0xd0e30db0\n        /* \"projects/01-reentrancy-vault/contracts/fixed/SafeAttacker.sol\":3017:3026  msg.value */\n      callvalue\n        /* \"projects/01-reentrancy-vault/contracts/fixed/SafeAttacker.sol\":2996:3029  vault.deposit{value: msg.value}() */\n      mload(0x40)\n      dup3\n      0xffffffff\n      and\n      0xe0\n      shl\n      dup2\n      mstore\n      0x04\n      add\n      0x00\n      mload(0x40)\n      dup1\n      dup4\n      sub\n      dup2\n      dup6\n      dup9\n      dup1\n      extcodesize\n      iszero\n      dup1\n      iszero\n      tag_144\n      jumpi\n      0x00\n      dup1\n      revert\n    tag_144:\n      pop\n      gas\n      call\n      iszero\n      dup1\n      iszero\n      tag_146\n      jumpi\n      returndatasize\n      0x00\n      dup1\n      returndatacopy\n      revert(0x00, returndatasize)\n    tag_146:\n      pop\n      pop\n        /* \"projects/01-reentrancy-vault/contracts/fixed/SafeAttacker.sol\":3134:3139  vault */\n      0x00\n      dup1\n      sload\n        /* \"projects/01-reentrancy-vault/contracts/fixed/SafeAttacker.sol\":3134:3159  vault.emergencyWithdraw() */\n      0x40\n      dup1\n      mload\n      shl(0xe2, 0x36cb886f)\n      dup2\n      mstore\n      swap1\n      mload\n      sub(shl(0xa0, 0x01), 0x01)\n        /* \"projects/01-reentrancy-vault/contracts/fixed/SafeAttacker.sol\":3134:3139  vault */\n      swap1\n      swap3\n      and\n      swap6\n      pop\n        /* \"projects/01-reentrancy-vault/contracts/fixed/SafeAttacker.sol\":3134:3157  vault.emergencyWithdraw */\n      0xdb2e21bc\n      swap5\n      pop\n        /* \"projects/01-reentrancy-vault/contracts/fixed/SafeAttacker.sol\":3134:3159  vault.emergencyWithdraw() */\n      0x04\n      dup1\n      dup3\n      add\n      swap5\n      pop\n      swap1\n      dup3\n      swap1\n      sub\n      add\n      dup2\n        /* \"projects/01-reentrancy-vault/contracts/fixed/SafeAttacker.sol\":3134:3139  vault */\n      dup4\n      dup8\n        /* \"projects/01-reentrancy-vault/contracts/fixed/SafeAttacker.sol\":3134:3159  vault.emergencyWithdraw() */\n      dup1\n      extcodesize\n      iszero\n      dup1\n      iszero\n      tag_147\n      jumpi\n      0x00\n      dup1\n      revert\n    tag_147:\n      pop\n      gas\n      call\n      swap3\n      pop\n      pop\n      pop\n      dup1\n      iszero\n      tag_148\n      jumpi\n      pop\n      0x01\n    tag_148:\n        /* \"projects/01-reentrancy-vault/contracts/fixed/SafeAttacker.sol\":3130:3405  try vault.emergencyWithdraw() {... */\n      tag_149\n      jumpi\n      tag_153\n      tag_40\n      jump\t// in\n    tag_153:\n      dup1\n      0x08c379a0\n      sub\n      tag_123\n      jumpi\n      pop\n      tag_154\n      tag_42\n      jump\t// in\n    tag_154:\n      dup1\n      tag_155\n      jumpi\n      pop\n      jump(tag_122)\n    tag_155:\n        /* \"projects/01-reentrancy-vault/contracts/fixed/SafeAttacker.sol\":3288:3349  console.log(\"Emergency withdraw failed with reason:\", reason) */\n      tag_156\n      mload(0x40)\n      dup1\n      0x60\n      add\n      0x40\n      mstore\n      dup1\n      0x26\n      dup2\n      mstore\n      0x20\n      add\n      data_53de7949f12b81e012a5ee6c46608d9b96e7c046ceaa646463ff040f3c8f7aa6\n      0x26\n      swap2\n      codecopy\n        /* \"projects/01-reentrancy-vault/contracts/fixed/SafeAttacker.sol\":3342:3348  reason */\n      dup3\n        /* \"projects/01-reentrancy-vault/contracts/fixed/SafeAttacker.sol\":3288:3299  console.log */\n      tag_45\n        /* \"projects/01-reentrancy-vault/contracts/fixed/SafeAttacker.sol\":3288:3349  console.log(\"Emergency withdraw failed with reason:\", reason) */\n      jump\t// in\n    tag_156:\n        /* \"projects/01-reentrancy-vault/contracts/fixed/SafeAttacker.sol\":3368:3394  AttackAttempted(3, reason) */\n      0xc5016effea2104c72ad0b8c235734f5fea25efbca39fefed03cdc02c92e6c114\n        /* \"projects/01-reentrancy-vault/contracts/fixed/SafeAttacker.sol\":3384:3385  3 */\n      0x03\n        /* \"projects/01-reentrancy-vault/contracts/fixed/SafeAttacker.sol\":3387:3393  reason */\n      dup3\n        /* \"projects/01-reentrancy-vault/contracts/fixed/SafeAttacker.sol\":3368:3394  AttackAttempted(3, reason) */\n      mload(0x40)\n      tag_157\n      swap3\n      swap2\n      swap1\n      tag_129\n      jump\t// in\n    tag_157:\n      mload(0x40)\n      dup1\n      swap2\n      sub\n      swap1\n      log1\n        /* \"projects/01-reentrancy-vault/contracts/fixed/SafeAttacker.sol\":3240:3405  catch Error(string memory reason) {... */\n      pop\n        /* \"projects/01-reentrancy-vault/contracts/fixed/SafeAttacker.sol\":3130:3405  try vault.emergencyWithdraw() {... */\n      jump(tag_160)\n    tag_149:\n        /* \"projects/01-reentrancy-vault/contracts/fixed/SafeAttacker.sol\":3174:3228  console.log(\"Emergency withdraw succeeded (expected)\") */\n      tag_160\n      mload(0x40)\n      dup1\n      0x60\n      add\n      0x40\n      mstore\n      dup1\n      0x27\n      dup2\n      mstore\n      0x20\n      add\n      data_8db7e41d2312668d44c26d657fda740393ee0d4f29d99e6a5180efc697aae8fb\n      0x27\n      swap2\n      codecopy\n        /* \"projects/01-reentrancy-vault/contracts/fixed/SafeAttacker.sol\":3174:3185  console.log */\n      tag_30\n        /* \"projects/01-reentrancy-vault/contracts/fixed/SafeAttacker.sol\":3174:3228  console.log(\"Emergency withdraw succeeded (expected)\") */\n      jump\t// in\n    tag_160:\n      0x00\n      dup1\n      mload\n      0x20\n      data_5fb5946472844d2cdf93561fee9ecd60c46278d480bceaa3d64d18dc163b389d\n      dup4\n      codecopy\n      dup2\n      mload\n      swap2\n      mstore\n        /* \"projects/01-reentrancy-vault/contracts/fixed/SafeAttacker.sol\":3428:3479  SecurityTestPassed(\"Emergency Withdraw Protection\") */\n      mload(0x40)\n      tag_137\n      swap1\n        /* \"#utility.yul\":6559:6561   */\n      0x20\n        /* \"#utility.yul\":6541:6562   */\n      dup1\n      dup3\n      mstore\n        /* \"#utility.yul\":6598:6600   */\n      0x1d\n        /* \"#utility.yul\":6578:6596   */\n      swap1\n      dup3\n      add\n        /* \"#utility.yul\":6571:6601   */\n      mstore\n        /* \"#utility.yul\":6637:6668   */\n      0x456d657267656e63792057697468647261772050726f74656374696f6e000000\n        /* \"#utility.yul\":6632:6634   */\n      0x40\n        /* \"#utility.yul\":6617:6635   */\n      dup3\n      add\n        /* \"#utility.yul\":6610:6669   */\n      mstore\n        /* \"#utility.yul\":6701:6703   */\n      0x60\n        /* \"#utility.yul\":6686:6704   */\n      add\n      swap1\n        /* \"#utility.yul\":6357:6710   */\n      jump\n        /* \"projects/01-reentrancy-vault/contracts/fixed/SafeAttacker.sol\":834:2011  function attack() external payable override {... */\n    tag_70:\n        /* \"projects/01-reentrancy-vault/contracts/fixed/SafeAttacker.sol\":909:916  1 ether */\n      0x0de0b6b3a7640000\n        /* \"projects/01-reentrancy-vault/contracts/fixed/SafeAttacker.sol\":896:905  msg.value */\n      callvalue\n        /* \"projects/01-reentrancy-vault/contracts/fixed/SafeAttacker.sol\":896:916  msg.value >= 1 ether */\n      lt\n      iszero\n        /* \"projects/01-reentrancy-vault/contracts/fixed/SafeAttacker.sol\":888:948  require(msg.value >= 1 ether, \"Need at least 1 ETH to test\") */\n      tag_164\n      jumpi\n      mload(0x40)\n      shl(0xe5, 0x461bcd)\n      dup2\n      mstore\n        /* \"#utility.yul\":6917:6919   */\n      0x20\n        /* \"projects/01-reentrancy-vault/contracts/fixed/SafeAttacker.sol\":888:948  require(msg.value >= 1 ether, \"Need at least 1 ETH to test\") */\n      0x04\n      dup3\n      add\n        /* \"#utility.yul\":6899:6920   */\n      mstore\n        /* \"#utility.yul\":6956:6958   */\n      0x1b\n        /* \"#utility.yul\":6936:6954   */\n      0x24\n      dup3\n      add\n        /* \"#utility.yul\":6929:6959   */\n      mstore\n        /* \"#utility.yul\":6995:7024   */\n      0x4e656564206174206c6561737420312045544820746f20746573740000000000\n        /* \"#utility.yul\":6975:6993   */\n      0x44\n      dup3\n      add\n        /* \"#utility.yul\":6968:7025   */\n      mstore\n        /* \"#utility.yul\":7042:7060   */\n      0x64\n      add\n        /* \"projects/01-reentrancy-vault/contracts/fixed/SafeAttacker.sol\":888:948  require(msg.value >= 1 ether, \"Need at least 1 ETH to test\") */\n      tag_115\n        /* \"#utility.yul\":6715:7066   */\n      jump\n        /* \"projects/01-reentrancy-vault/contracts/fixed/SafeAttacker.sol\":888:948  require(msg.value >= 1 ether, \"Need at least 1 ETH to test\") */\n    tag_164:\n        /* \"projects/01-reentrancy-vault/contracts/fixed/SafeAttacker.sol\":967:1021  console.log(\"Testing FixedVault security measures...\") */\n      tag_167\n      mload(0x40)\n      dup1\n      0x60\n      add\n      0x40\n      mstore\n      dup1\n      0x27\n      dup2\n      mstore\n      0x20\n      add\n      data_9c292076947de5b37f6e36c33b696487771ea00df875ee98a38ec9610b67aeb4\n      0x27\n      swap2\n      codecopy\n        /* \"projects/01-reentrancy-vault/contracts/fixed/SafeAttacker.sol\":967:978  console.log */\n      tag_30\n        /* \"projects/01-reentrancy-vault/contracts/fixed/SafeAttacker.sol\":967:1021  console.log(\"Testing FixedVault security measures...\") */\n      jump\t// in\n    tag_167:\n        /* \"projects/01-reentrancy-vault/contracts/fixed/SafeAttacker.sol\":1031:1094  console.log(\"Initial attacker balance:\", address(this).balance) */\n      tag_168\n      mload(0x40)\n      dup1\n      0x40\n      add\n      0x40\n      mstore\n      dup1\n      0x19\n      dup2\n      mstore\n      0x20\n      add\n      0x496e697469616c2061747461636b65722062616c616e63653a00000000000000\n      dup2\n      mstore\n      pop\n        /* \"projects/01-reentrancy-vault/contracts/fixed/SafeAttacker.sol\":1072:1093  address(this).balance */\n      selfbalance\n        /* \"projects/01-reentrancy-vault/contracts/fixed/SafeAttacker.sol\":1031:1042  console.log */\n      tag_19\n        /* \"projects/01-reentrancy-vault/contracts/fixed/SafeAttacker.sol\":1031:1094  console.log(\"Initial attacker balance:\", address(this).balance) */\n      jump\t// in\n    tag_168:\n        /* \"projects/01-reentrancy-vault/contracts/fixed/SafeAttacker.sol\":1104:1169  console.log(\"Initial vault balance:\", vault.getContractBalance()) */\n      tag_169\n      mload(0x40)\n      dup1\n      0x40\n      add\n      0x40\n      mstore\n      dup1\n      0x16\n      dup2\n      mstore\n      0x20\n      add\n      shl(0x51, 0x24b734ba34b0b6103b30bab63a103130b630b731b29d)\n      dup2\n      mstore\n      pop\n        /* \"projects/01-reentrancy-vault/contracts/fixed/SafeAttacker.sol\":1142:1147  vault */\n      0x00\n      dup1\n      sload\n      swap1\n      0x0100\n      exp\n      swap1\n      div\n      sub(shl(0xa0, 0x01), 0x01)\n      and\n      sub(shl(0xa0, 0x01), 0x01)\n        /* \"projects/01-reentrancy-vault/contracts/fixed/SafeAttacker.sol\":1142:1166  vault.getContractBalance */\n      and\n      0x6f9fb98a\n        /* \"projects/01-reentrancy-vault/contracts/fixed/SafeAttacker.sol\":1142:1168  vault.getContractBalance() */\n      mload(0x40)\n      dup2\n      0xffffffff\n      and\n      0xe0\n      shl\n      dup2\n      mstore\n      0x04\n      add\n      0x20\n      mload(0x40)\n      dup1\n      dup4\n      sub\n      dup2\n      dup7\n      gas\n      staticcall\n      iszero\n      dup1\n      iszero\n      tag_135\n      jumpi\n      returndatasize\n      0x00\n      dup1\n      returndatacopy\n      revert(0x00, returndatasize)\n        /* \"projects/01-reentrancy-vault/contracts/fixed/SafeAttacker.sol\":1104:1169  console.log(\"Initial vault balance:\", vault.getContractBalance()) */\n    tag_169:\n        /* \"projects/01-reentrancy-vault/contracts/fixed/SafeAttacker.sol\":1228:1233  vault */\n      0x00\n      dup1\n      sload\n      swap1\n      0x0100\n      exp\n      swap1\n      div\n      sub(shl(0xa0, 0x01), 0x01)\n      and\n      sub(shl(0xa0, 0x01), 0x01)\n        /* \"projects/01-reentrancy-vault/contracts/fixed/SafeAttacker.sol\":1228:1241  vault.deposit */\n      and\n      0xd0e30db0\n        /* \"projects/01-reentrancy-vault/contracts/fixed/SafeAttacker.sol\":1249:1258  msg.value */\n      callvalue\n        /* \"projects/01-reentrancy-vault/contracts/fixed/SafeAttacker.sol\":1228:1261  vault.deposit{value: msg.value}() */\n      mload(0x40)\n      dup3\n      0xffffffff\n      and\n      0xe0\n      shl\n      dup2\n      mstore\n      0x04\n      add\n      0x00\n      mload(0x40)\n      dup1\n      dup4\n      sub\n      dup2\n      dup6\n      dup9\n      dup1\n      extcodesize\n      iszero\n      dup1\n      iszero\n      tag_173\n      jumpi\n      0x00\n      dup1\n      revert\n    tag_173:\n      pop\n      gas\n      call\n      iszero\n      dup1\n      iszero\n      tag_175\n      jumpi\n      returndatasize\n      0x00\n      dup1\n      returndatacopy\n      revert(0x00, returndatasize)\n    tag_175:\n      pop\n      pop\n        /* \"projects/01-reentrancy-vault/contracts/fixed/SafeAttacker.sol\":1280:1350  console.log(\"Balance after deposit:\", vault.getBalance(address(this))) */\n      0x40\n      dup1\n      mload\n      dup1\n      dup3\n      add\n      dup3\n      mstore\n      0x16\n      dup2\n      mstore\n      shl(0x51, 0x2130b630b731b29030b33a32b9103232b837b9b4ba1d)\n      0x20\n      dup3\n      add\n      mstore\n      0x00\n        /* \"projects/01-reentrancy-vault/contracts/fixed/SafeAttacker.sol\":1318:1323  vault */\n      sload\n        /* \"projects/01-reentrancy-vault/contracts/fixed/SafeAttacker.sol\":1318:1349  vault.getBalance(address(this)) */\n      swap2\n      mload\n      shl(0xe0, 0xf8b2cb4f)\n      dup2\n      mstore\n        /* \"projects/01-reentrancy-vault/contracts/fixed/SafeAttacker.sol\":1343:1347  this */\n      address\n        /* \"projects/01-reentrancy-vault/contracts/fixed/SafeAttacker.sol\":1318:1349  vault.getBalance(address(this)) */\n      0x04\n      dup3\n      add\n        /* \"#utility.yul\":2907:2958   */\n      mstore\n        /* \"projects/01-reentrancy-vault/contracts/fixed/SafeAttacker.sol\":1280:1350  console.log(\"Balance after deposit:\", vault.getBalance(address(this))) */\n      tag_176\n      swap6\n      pop\n      swap1\n      swap4\n      pop\n      sub(shl(0xa0, 0x01), 0x01)\n        /* \"projects/01-reentrancy-vault/contracts/fixed/SafeAttacker.sol\":1318:1323  vault */\n      swap1\n      swap2\n      and\n      swap2\n      pop\n        /* \"projects/01-reentrancy-vault/contracts/fixed/SafeAttacker.sol\":1318:1334  vault.getBalance */\n      0xf8b2cb4f\n      swap1\n        /* \"#utility.yul\":2880:2898   */\n      0x24\n      add\n        /* \"projects/01-reentrancy-vault/contracts/fixed/SafeAttacker.sol\":1318:1349  vault.getBalance(address(this)) */\n      tag_133\n        /* \"#utility.yul\":2733:2964   */\n      jump\n        /* \"projects/01-reentrancy-vault/contracts/fixed/SafeAttacker.sol\":1280:1350  console.log(\"Balance after deposit:\", vault.getBalance(address(this))) */\n    tag_176:\n        /* \"projects/01-reentrancy-vault/contracts/fixed/SafeAttacker.sol\":1442:1443  0 */\n      0x00\n        /* \"projects/01-reentrancy-vault/contracts/fixed/SafeAttacker.sol\":1428:1439  attackCount */\n      0x01\n        /* \"projects/01-reentrancy-vault/contracts/fixed/SafeAttacker.sol\":1428:1443  attackCount = 0 */\n      dup2\n      swap1\n      sstore\n        /* \"projects/01-reentrancy-vault/contracts/fixed/SafeAttacker.sol\":1453:1464  totalStolen */\n      0x02\n        /* \"projects/01-reentrancy-vault/contracts/fixed/SafeAttacker.sol\":1453:1468  totalStolen = 0 */\n      dup2\n      swap1\n      sstore\n        /* \"projects/01-reentrancy-vault/contracts/fixed/SafeAttacker.sol\":1491:1496  vault */\n      sload\n        /* \"projects/01-reentrancy-vault/contracts/fixed/SafeAttacker.sol\":1491:1516  vault.withdraw(msg.value) */\n      mload(0x40)\n      shl(0xe0, 0x2e1a7d4d)\n      dup2\n      mstore\n        /* \"projects/01-reentrancy-vault/contracts/fixed/SafeAttacker.sol\":1506:1515  msg.value */\n      callvalue\n        /* \"projects/01-reentrancy-vault/contracts/fixed/SafeAttacker.sol\":1491:1516  vault.withdraw(msg.value) */\n      0x04\n      dup3\n      add\n        /* \"#utility.yul\":815:840   */\n      mstore\n      sub(shl(0xa0, 0x01), 0x01)\n        /* \"projects/01-reentrancy-vault/contracts/fixed/SafeAttacker.sol\":1491:1496  vault */\n      swap1\n      swap2\n      and\n      swap1\n        /* \"projects/01-reentrancy-vault/contracts/fixed/SafeAttacker.sol\":1491:1505  vault.withdraw */\n      0x2e1a7d4d\n      swap1\n        /* \"#utility.yul\":788:806   */\n      0x24\n      add\n        /* \"projects/01-reentrancy-vault/contracts/fixed/SafeAttacker.sol\":1491:1516  vault.withdraw(msg.value) */\n      0x00\n      mload(0x40)\n      dup1\n      dup4\n      sub\n      dup2\n      0x00\n      dup8\n      dup1\n      extcodesize\n      iszero\n      dup1\n      iszero\n      tag_182\n      jumpi\n      0x00\n      dup1\n      revert\n    tag_182:\n      pop\n      gas\n      call\n      swap3\n      pop\n      pop\n      pop\n      dup1\n      iszero\n      tag_183\n      jumpi\n      pop\n      0x01\n    tag_183:\n        /* \"projects/01-reentrancy-vault/contracts/fixed/SafeAttacker.sol\":1487:1742  try vault.withdraw(msg.value) {... */\n      tag_184\n      jumpi\n      tag_188\n      tag_40\n      jump\t// in\n    tag_188:\n      dup1\n      0x08c379a0\n      sub\n      tag_123\n      jumpi\n      pop\n      tag_189\n      tag_42\n      jump\t// in\n    tag_189:\n      dup1\n      tag_190\n      jumpi\n      pop\n      jump(tag_122)\n    tag_190:\n        /* \"projects/01-reentrancy-vault/contracts/fixed/SafeAttacker.sol\":1635:1686  console.log(\"Withdraw failed with reason:\", reason) */\n      tag_191\n      mload(0x40)\n      dup1\n      0x40\n      add\n      0x40\n      mstore\n      dup1\n      0x1c\n      dup2\n      mstore\n      0x20\n      add\n      0x5769746864726177206661696c6564207769746820726561736f6e3a00000000\n      dup2\n      mstore\n      pop\n        /* \"projects/01-reentrancy-vault/contracts/fixed/SafeAttacker.sol\":1679:1685  reason */\n      dup3\n        /* \"projects/01-reentrancy-vault/contracts/fixed/SafeAttacker.sol\":1635:1646  console.log */\n      tag_45\n        /* \"projects/01-reentrancy-vault/contracts/fixed/SafeAttacker.sol\":1635:1686  console.log(\"Withdraw failed with reason:\", reason) */\n      jump\t// in\n    tag_191:\n        /* \"projects/01-reentrancy-vault/contracts/fixed/SafeAttacker.sol\":1705:1731  AttackAttempted(1, reason) */\n      0xc5016effea2104c72ad0b8c235734f5fea25efbca39fefed03cdc02c92e6c114\n        /* \"projects/01-reentrancy-vault/contracts/fixed/SafeAttacker.sol\":1721:1722  1 */\n      0x01\n        /* \"projects/01-reentrancy-vault/contracts/fixed/SafeAttacker.sol\":1724:1730  reason */\n      dup3\n        /* \"projects/01-reentrancy-vault/contracts/fixed/SafeAttacker.sol\":1705:1731  AttackAttempted(1, reason) */\n      mload(0x40)\n      tag_192\n      swap3\n      swap2\n      swap1\n      tag_129\n      jump\t// in\n    tag_192:\n      mload(0x40)\n      dup1\n      swap2\n      sub\n      swap1\n      log1\n        /* \"projects/01-reentrancy-vault/contracts/fixed/SafeAttacker.sol\":1587:1742  catch Error(string memory reason) {... */\n      pop\n        /* \"projects/01-reentrancy-vault/contracts/fixed/SafeAttacker.sol\":1487:1742  try vault.withdraw(msg.value) {... */\n      jump(tag_195)\n    tag_184:\n        /* \"projects/01-reentrancy-vault/contracts/fixed/SafeAttacker.sol\":1531:1575  console.log(\"Withdraw succeeded (expected)\") */\n      tag_195\n      mload(0x40)\n      dup1\n      0x40\n      add\n      0x40\n      mstore\n      dup1\n      0x1d\n      dup2\n      mstore\n      0x20\n      add\n      0x5769746864726177207375636365656465642028657870656374656429000000\n      dup2\n      mstore\n      pop\n        /* \"projects/01-reentrancy-vault/contracts/fixed/SafeAttacker.sol\":1531:1542  console.log */\n      tag_30\n        /* \"projects/01-reentrancy-vault/contracts/fixed/SafeAttacker.sol\":1531:1575  console.log(\"Withdraw succeeded (expected)\") */\n      jump\t// in\n    tag_195:\n        /* \"projects/01-reentrancy-vault/contracts/fixed/SafeAttacker.sol\":1760:1799  console.log(\"Security test completed!\") */\n      tag_196\n      mload(0x40)\n      dup1\n      0x40\n      add\n      0x40\n      mstore\n      dup1\n      0x18\n      dup2\n      mstore\n      0x20\n      add\n      0x5365637572697479207465737420636f6d706c65746564210000000000000000\n      dup2\n      mstore\n      pop\n        /* \"projects/01-reentrancy-vault/contracts/fixed/SafeAttacker.sol\":1760:1771  console.log */\n      tag_30\n        /* \"projects/01-reentrancy-vault/contracts/fixed/SafeAttacker.sol\":1760:1799  console.log(\"Security test completed!\") */\n      jump\t// in\n    tag_196:\n        /* \"projects/01-reentrancy-vault/contracts/fixed/SafeAttacker.sol\":1809:1864  console.log(\"Total stolen (should be 0):\", totalStolen) */\n      tag_197\n      mload(0x40)\n      dup1\n      0x40\n      add\n      0x40\n      mstore\n      dup1\n      0x1b\n      dup2\n      mstore\n      0x20\n      add\n      0x546f74616c2073746f6c656e202873686f756c642062652030293a0000000000\n      dup2\n      mstore\n      pop\n        /* \"projects/01-reentrancy-vault/contracts/fixed/SafeAttacker.sol\":1852:1863  totalStolen */\n      sload(0x02)\n        /* \"projects/01-reentrancy-vault/contracts/fixed/SafeAttacker.sol\":1809:1820  console.log */\n      tag_19\n        /* \"projects/01-reentrancy-vault/contracts/fixed/SafeAttacker.sol\":1809:1864  console.log(\"Total stolen (should be 0):\", totalStolen) */\n      jump\t// in\n    tag_197:\n        /* \"projects/01-reentrancy-vault/contracts/fixed/SafeAttacker.sol\":1874:1937  console.log(\"Final vault balance:\", vault.getContractBalance()) */\n      tag_198\n      mload(0x40)\n      dup1\n      0x40\n      add\n      0x40\n      mstore\n      dup1\n      0x14\n      dup2\n      mstore\n      0x20\n      add\n      shl(0x61, 0x2334b730b6103b30bab63a103130b630b731b29d)\n      dup2\n      mstore\n      pop\n        /* \"projects/01-reentrancy-vault/contracts/fixed/SafeAttacker.sol\":1910:1915  vault */\n      0x00\n      dup1\n      sload\n      swap1\n      0x0100\n      exp\n      swap1\n      div\n      sub(shl(0xa0, 0x01), 0x01)\n      and\n      sub(shl(0xa0, 0x01), 0x01)\n        /* \"projects/01-reentrancy-vault/contracts/fixed/SafeAttacker.sol\":1910:1934  vault.getContractBalance */\n      and\n      0x6f9fb98a\n        /* \"projects/01-reentrancy-vault/contracts/fixed/SafeAttacker.sol\":1910:1936  vault.getContractBalance() */\n      mload(0x40)\n      dup2\n      0xffffffff\n      and\n      0xe0\n      shl\n      dup2\n      mstore\n      0x04\n      add\n      0x20\n      mload(0x40)\n      dup1\n      dup4\n      sub\n      dup2\n      dup7\n      gas\n      staticcall\n      iszero\n      dup1\n      iszero\n      tag_135\n      jumpi\n      returndatasize\n      0x00\n      dup1\n      returndatacopy\n      revert(0x00, returndatasize)\n        /* \"projects/01-reentrancy-vault/contracts/fixed/SafeAttacker.sol\":1874:1937  console.log(\"Final vault balance:\", vault.getContractBalance()) */\n    tag_198:\n      0x00\n      dup1\n      mload\n      0x20\n      data_5fb5946472844d2cdf93561fee9ecd60c46278d480bceaa3d64d18dc163b389d\n      dup4\n      codecopy\n      dup2\n      mload\n      swap2\n      mstore\n        /* \"projects/01-reentrancy-vault/contracts/fixed/SafeAttacker.sol\":1961:2004  SecurityTestPassed(\"Reentrancy Protection\") */\n      mload(0x40)\n      tag_137\n      swap1\n        /* \"#utility.yul\":7577:7579   */\n      0x20\n        /* \"#utility.yul\":7559:7580   */\n      dup1\n      dup3\n      mstore\n        /* \"#utility.yul\":7616:7618   */\n      0x15\n        /* \"#utility.yul\":7596:7614   */\n      swap1\n      dup3\n      add\n        /* \"#utility.yul\":7589:7619   */\n      mstore\n      shl(0x59, 0x2932b2b73a3930b731bc90283937ba32b1ba34b7b7)\n        /* \"#utility.yul\":7650:7652   */\n      0x40\n        /* \"#utility.yul\":7635:7653   */\n      dup3\n      add\n        /* \"#utility.yul\":7628:7679   */\n      mstore\n        /* \"#utility.yul\":7711:7713   */\n      0x60\n        /* \"#utility.yul\":7696:7714   */\n      add\n      swap1\n        /* \"#utility.yul\":7375:7720   */\n      jump\n        /* \"projects/01-reentrancy-vault/contracts/fixed/SafeAttacker.sol\":6090:6494  function testInvalidWithdraw() external {... */\n    tag_73:\n        /* \"projects/01-reentrancy-vault/contracts/fixed/SafeAttacker.sol\":6140:6193  console.log(\"Testing invalid withdraw protection...\") */\n      tag_205\n      mload(0x40)\n      dup1\n      0x60\n      add\n      0x40\n      mstore\n      dup1\n      0x26\n      dup2\n      mstore\n      0x20\n      add\n      data_fdbfee63879b2e058da8d6db9872ec4ba65a2c18fa422838e0fae4cd7568fad7\n      0x26\n      swap2\n      codecopy\n        /* \"projects/01-reentrancy-vault/contracts/fixed/SafeAttacker.sol\":6140:6151  console.log */\n      tag_30\n        /* \"projects/01-reentrancy-vault/contracts/fixed/SafeAttacker.sol\":6140:6193  console.log(\"Testing invalid withdraw protection...\") */\n      jump\t// in\n    tag_205:\n        /* \"projects/01-reentrancy-vault/contracts/fixed/SafeAttacker.sol\":6216:6221  vault */\n      0x00\n      dup1\n      sload\n        /* \"projects/01-reentrancy-vault/contracts/fixed/SafeAttacker.sol\":6216:6233  vault.withdraw(0) */\n      mload(0x40)\n      shl(0xe0, 0x2e1a7d4d)\n      dup2\n      mstore\n      0x04\n      dup2\n      add\n        /* \"#utility.yul\":815:840   */\n      swap3\n      swap1\n      swap3\n      mstore\n      sub(shl(0xa0, 0x01), 0x01)\n        /* \"projects/01-reentrancy-vault/contracts/fixed/SafeAttacker.sol\":6216:6221  vault */\n      and\n      swap1\n        /* \"projects/01-reentrancy-vault/contracts/fixed/SafeAttacker.sol\":6216:6230  vault.withdraw */\n      0x2e1a7d4d\n      swap1\n        /* \"#utility.yul\":788:806   */\n      0x24\n      add\n        /* \"projects/01-reentrancy-vault/contracts/fixed/SafeAttacker.sol\":6216:6233  vault.withdraw(0) */\n      0x00\n      mload(0x40)\n      dup1\n      dup4\n      sub\n      dup2\n      0x00\n      dup8\n      dup1\n      extcodesize\n      iszero\n      dup1\n      iszero\n      tag_208\n      jumpi\n      0x00\n      dup1\n      revert\n    tag_208:\n      pop\n      gas\n      call\n      swap3\n      pop\n      pop\n      pop\n      dup1\n      iszero\n      tag_209\n      jumpi\n      pop\n      0x01\n    tag_209:\n        /* \"projects/01-reentrancy-vault/contracts/fixed/SafeAttacker.sol\":6212:6488  try vault.withdraw(0) {... */\n      tag_210\n      jumpi\n      tag_214\n      tag_40\n      jump\t// in\n    tag_214:\n      dup1\n      0x08c379a0\n      sub\n      tag_123\n      jumpi\n      pop\n      tag_215\n      tag_42\n      jump\t// in\n    tag_215:\n      dup1\n      tag_216\n      jumpi\n      pop\n      jump(tag_122)\n    tag_216:\n        /* \"projects/01-reentrancy-vault/contracts/fixed/SafeAttacker.sol\":6364:6409  console.log(\"Zero withdraw blocked:\", reason) */\n      tag_217\n      mload(0x40)\n      dup1\n      0x40\n      add\n      0x40\n      mstore\n      dup1\n      0x16\n      dup2\n      mstore\n      0x20\n      add\n      shl(0x51, 0x2d32b937903bb4ba34323930bb90313637b1b5b2b21d)\n      dup2\n      mstore\n      pop\n        /* \"projects/01-reentrancy-vault/contracts/fixed/SafeAttacker.sol\":6402:6408  reason */\n      dup3\n        /* \"projects/01-reentrancy-vault/contracts/fixed/SafeAttacker.sol\":6364:6375  console.log */\n      tag_45\n        /* \"projects/01-reentrancy-vault/contracts/fixed/SafeAttacker.sol\":6364:6409  console.log(\"Zero withdraw blocked:\", reason) */\n      jump\t// in\n    tag_217:\n      0x00\n      dup1\n      mload\n      0x20\n      data_5fb5946472844d2cdf93561fee9ecd60c46278d480bceaa3d64d18dc163b389d\n      dup4\n      codecopy\n      dup2\n      mload\n      swap2\n      mstore\n        /* \"projects/01-reentrancy-vault/contracts/fixed/SafeAttacker.sol\":6428:6477  SecurityTestPassed(\"Invalid Withdraw Protection\") */\n      mload(0x40)\n      tag_218\n      swap1\n        /* \"#utility.yul\":8117:8119   */\n      0x20\n        /* \"#utility.yul\":8099:8120   */\n      dup1\n      dup3\n      mstore\n        /* \"#utility.yul\":8156:8158   */\n      0x1b\n        /* \"#utility.yul\":8136:8154   */\n      swap1\n      dup3\n      add\n        /* \"#utility.yul\":8129:8159   */\n      mstore\n        /* \"#utility.yul\":8195:8224   */\n      0x496e76616c69642057697468647261772050726f74656374696f6e0000000000\n        /* \"#utility.yul\":8190:8192   */\n      0x40\n        /* \"#utility.yul\":8175:8193   */\n      dup3\n      add\n        /* \"#utility.yul\":8168:8225   */\n      mstore\n        /* \"#utility.yul\":8257:8259   */\n      0x60\n        /* \"#utility.yul\":8242:8260   */\n      add\n      swap1\n        /* \"#utility.yul\":7915:8266   */\n      jump\n        /* \"projects/01-reentrancy-vault/contracts/fixed/SafeAttacker.sol\":6428:6477  SecurityTestPassed(\"Invalid Withdraw Protection\") */\n    tag_218:\n      mload(0x40)\n      dup1\n      swap2\n      sub\n      swap1\n      log1\n        /* \"projects/01-reentrancy-vault/contracts/fixed/SafeAttacker.sol\":6316:6488  catch Error(string memory reason) {... */\n      pop\n        /* \"projects/01-reentrancy-vault/contracts/fixed/SafeAttacker.sol\":6090:6494  function testInvalidWithdraw() external {... */\n      jump\t// out\n        /* \"projects/01-reentrancy-vault/contracts/fixed/SafeAttacker.sol\":6212:6488  try vault.withdraw(0) {... */\n    tag_210:\n        /* \"projects/01-reentrancy-vault/contracts/fixed/SafeAttacker.sol\":6248:6304  console.log(\"Zero withdraw succeeded - potential issue\") */\n      tag_221\n      mload(0x40)\n      dup1\n      0x60\n      add\n      0x40\n      mstore\n      dup1\n      0x29\n      dup2\n      mstore\n      0x20\n      add\n      data_7bc836a083f212ac85884f2c231595a4fc81c04b56f486fb3ffdc7dab57190af\n      0x29\n      swap2\n      codecopy\n        /* \"projects/01-reentrancy-vault/contracts/fixed/SafeAttacker.sol\":6248:6259  console.log */\n      tag_30\n        /* \"projects/01-reentrancy-vault/contracts/fixed/SafeAttacker.sol\":6248:6304  console.log(\"Zero withdraw succeeded - potential issue\") */\n      jump\t// in\n    tag_221:\n        /* \"projects/01-reentrancy-vault/contracts/fixed/SafeAttacker.sol\":6090:6494  function testInvalidWithdraw() external {... */\n      jump\t// out\n        /* \"projects/01-reentrancy-vault/contracts/fixed/SafeAttacker.sol\":5565:6080  function testMultipleDeposits() external payable {... */\n    tag_75:\n        /* \"projects/01-reentrancy-vault/contracts/fixed/SafeAttacker.sol\":5624:5678  console.log(\"Testing multiple deposits protection...\") */\n      tag_223\n      mload(0x40)\n      dup1\n      0x60\n      add\n      0x40\n      mstore\n      dup1\n      0x27\n      dup2\n      mstore\n      0x20\n      add\n      data_d53463e19c758b43999a87933db224b61ef1e9634eded8754d5e91363974f3fa\n      0x27\n      swap2\n      codecopy\n        /* \"projects/01-reentrancy-vault/contracts/fixed/SafeAttacker.sol\":5624:5635  console.log */\n      tag_30\n        /* \"projects/01-reentrancy-vault/contracts/fixed/SafeAttacker.sol\":5624:5678  console.log(\"Testing multiple deposits protection...\") */\n      jump\t// in\n    tag_223:\n        /* \"projects/01-reentrancy-vault/contracts/fixed/SafeAttacker.sol\":5746:5751  vault */\n      0x00\n      dup1\n      sload\n      swap1\n      0x0100\n      exp\n      swap1\n      div\n      sub(shl(0xa0, 0x01), 0x01)\n      and\n      sub(shl(0xa0, 0x01), 0x01)\n        /* \"projects/01-reentrancy-vault/contracts/fixed/SafeAttacker.sol\":5746:5759  vault.deposit */\n      and\n      0xd0e30db0\n        /* \"projects/01-reentrancy-vault/contracts/fixed/SafeAttacker.sol\":5767:5776  0.1 ether */\n      0x016345785d8a0000\n        /* \"projects/01-reentrancy-vault/contracts/fixed/SafeAttacker.sol\":5746:5779  vault.deposit{value: 0.1 ether}() */\n      mload(0x40)\n      dup3\n      0xffffffff\n      and\n      0xe0\n      shl\n      dup2\n      mstore\n      0x04\n      add\n      0x00\n      mload(0x40)\n      dup1\n      dup4\n      sub\n      dup2\n      dup6\n      dup9\n      dup1\n      extcodesize\n      iszero\n      dup1\n      iszero\n      tag_224\n      jumpi\n      0x00\n      dup1\n      revert\n    tag_224:\n      pop\n      gas\n      call\n      iszero\n      dup1\n      iszero\n      tag_226\n      jumpi\n      returndatasize\n      0x00\n      dup1\n      returndatacopy\n      revert(0x00, returndatasize)\n    tag_226:\n      pop\n      pop\n      pop\n      pop\n      pop\n        /* \"projects/01-reentrancy-vault/contracts/fixed/SafeAttacker.sol\":5802:5807  vault */\n      0x00\n      dup1\n      sload\n      swap1\n      0x0100\n      exp\n      swap1\n      div\n      sub(shl(0xa0, 0x01), 0x01)\n      and\n      sub(shl(0xa0, 0x01), 0x01)\n        /* \"projects/01-reentrancy-vault/contracts/fixed/SafeAttacker.sol\":5802:5815  vault.deposit */\n      and\n      0xd0e30db0\n        /* \"projects/01-reentrancy-vault/contracts/fixed/SafeAttacker.sol\":5823:5832  0.1 ether */\n      0x016345785d8a0000\n        /* \"projects/01-reentrancy-vault/contracts/fixed/SafeAttacker.sol\":5802:5835  vault.deposit{value: 0.1 ether}() */\n      mload(0x40)\n      dup3\n      0xffffffff\n      and\n      0xe0\n      shl\n      dup2\n      mstore\n      0x04\n      add\n      0x00\n      mload(0x40)\n      dup1\n      dup4\n      sub\n      dup2\n      dup6\n      dup9\n      dup1\n      extcodesize\n      iszero\n      dup1\n      iszero\n      tag_227\n      jumpi\n      0x00\n      dup1\n      revert\n    tag_227:\n      pop\n      gas\n      call\n      swap4\n      pop\n      pop\n      pop\n      pop\n      dup1\n      iszero\n      tag_228\n      jumpi\n      pop\n      0x01\n    tag_228:\n        /* \"projects/01-reentrancy-vault/contracts/fixed/SafeAttacker.sol\":5798:6074  try vault.deposit{value: 0.1 ether}() {... */\n      tag_229\n      jumpi\n      tag_233\n      tag_40\n      jump\t// in\n    tag_233:\n      dup1\n      0x08c379a0\n      sub\n      tag_123\n      jumpi\n      pop\n      tag_234\n      tag_42\n      jump\t// in\n    tag_234:\n      dup1\n      tag_235\n      jumpi\n      pop\n      jump(tag_122)\n    tag_235:\n        /* \"projects/01-reentrancy-vault/contracts/fixed/SafeAttacker.sol\":5949:5995  console.log(\"Second deposit blocked:\", reason) */\n      tag_236\n      mload(0x40)\n      dup1\n      0x40\n      add\n      0x40\n      mstore\n      dup1\n      0x17\n      dup2\n      mstore\n      0x20\n      add\n      0x5365636f6e64206465706f73697420626c6f636b65643a000000000000000000\n      dup2\n      mstore\n      pop\n        /* \"projects/01-reentrancy-vault/contracts/fixed/SafeAttacker.sol\":5988:5994  reason */\n      dup3\n        /* \"projects/01-reentrancy-vault/contracts/fixed/SafeAttacker.sol\":5949:5960  console.log */\n      tag_45\n        /* \"projects/01-reentrancy-vault/contracts/fixed/SafeAttacker.sol\":5949:5995  console.log(\"Second deposit blocked:\", reason) */\n      jump\t// in\n    tag_236:\n      0x00\n      dup1\n      mload\n      0x20\n      data_5fb5946472844d2cdf93561fee9ecd60c46278d480bceaa3d64d18dc163b389d\n      dup4\n      codecopy\n      dup2\n      mload\n      swap2\n      mstore\n        /* \"projects/01-reentrancy-vault/contracts/fixed/SafeAttacker.sol\":6014:6063  SecurityTestPassed(\"Multiple Deposit Protection\") */\n      mload(0x40)\n      tag_218\n      swap1\n        /* \"#utility.yul\":8473:8475   */\n      0x20\n        /* \"#utility.yul\":8455:8476   */\n      dup1\n      dup3\n      mstore\n        /* \"#utility.yul\":8512:8514   */\n      0x1b\n        /* \"#utility.yul\":8492:8510   */\n      swap1\n      dup3\n      add\n        /* \"#utility.yul\":8485:8515   */\n      mstore\n        /* \"#utility.yul\":8551:8580   */\n      0x4d756c7469706c65204465706f7369742050726f74656374696f6e0000000000\n        /* \"#utility.yul\":8546:8548   */\n      0x40\n        /* \"#utility.yul\":8531:8549   */\n      dup3\n      add\n        /* \"#utility.yul\":8524:8581   */\n      mstore\n        /* \"#utility.yul\":8613:8615   */\n      0x60\n        /* \"#utility.yul\":8598:8616   */\n      add\n      swap1\n        /* \"#utility.yul\":8271:8622   */\n      jump\n        /* \"projects/01-reentrancy-vault/contracts/fixed/SafeAttacker.sol\":5798:6074  try vault.deposit{value: 0.1 ether}() {... */\n    tag_229:\n        /* \"projects/01-reentrancy-vault/contracts/fixed/SafeAttacker.sol\":5850:5889  console.log(\"Second deposit succeeded\") */\n      tag_221\n      mload(0x40)\n      dup1\n      0x40\n      add\n      0x40\n      mstore\n      dup1\n      0x18\n      dup2\n      mstore\n      0x20\n      add\n      0x5365636f6e64206465706f736974207375636365656465640000000000000000\n      dup2\n      mstore\n      pop\n        /* \"projects/01-reentrancy-vault/contracts/fixed/SafeAttacker.sol\":5850:5861  console.log */\n      tag_30\n        /* \"projects/01-reentrancy-vault/contracts/fixed/SafeAttacker.sol\":5850:5889  console.log(\"Second deposit succeeded\") */\n      jump\t// in\n        /* \"projects/01-reentrancy-vault/contracts/fixed/SafeAttacker.sol\":5209:5327  function getVaultBalance() external view override returns (uint256) {... */\n    tag_82:\n        /* \"projects/01-reentrancy-vault/contracts/fixed/SafeAttacker.sol\":5268:5275  uint256 */\n      0x00\n        /* \"projects/01-reentrancy-vault/contracts/fixed/SafeAttacker.sol\":5294:5299  vault */\n      dup1\n      0x00\n      swap1\n      sload\n      swap1\n      0x0100\n      exp\n      swap1\n      div\n      sub(shl(0xa0, 0x01), 0x01)\n      and\n      sub(shl(0xa0, 0x01), 0x01)\n        /* \"projects/01-reentrancy-vault/contracts/fixed/SafeAttacker.sol\":5294:5318  vault.getContractBalance */\n      and\n      0x6f9fb98a\n        /* \"projects/01-reentrancy-vault/contracts/fixed/SafeAttacker.sol\":5294:5320  vault.getContractBalance() */\n      mload(0x40)\n      dup2\n      0xffffffff\n      and\n      0xe0\n      shl\n      dup2\n      mstore\n      0x04\n      add\n      0x20\n      mload(0x40)\n      dup1\n      dup4\n      sub\n      dup2\n      dup7\n      gas\n      staticcall\n      iszero\n      dup1\n      iszero\n      tag_110\n      jumpi\n      returndatasize\n      0x00\n      dup1\n      returndatacopy\n      revert(0x00, returndatasize)\n        /* \"projects/01-reentrancy-vault/contracts/fixed/SafeAttacker.sol\":4617:4953  function withdrawStolenFunds() external override {... */\n    tag_91:\n        /* \"projects/01-reentrancy-vault/contracts/fixed/SafeAttacker.sol\":4694:4715  address(this).balance */\n      selfbalance\n        /* \"projects/01-reentrancy-vault/contracts/fixed/SafeAttacker.sol\":4733:4744  balance > 0 */\n      dup1\n        /* \"projects/01-reentrancy-vault/contracts/fixed/SafeAttacker.sol\":4725:4769  require(balance > 0, \"No funds to withdraw\") */\n      tag_246\n      jumpi\n      mload(0x40)\n      shl(0xe5, 0x461bcd)\n      dup2\n      mstore\n        /* \"#utility.yul\":8829:8831   */\n      0x20\n        /* \"projects/01-reentrancy-vault/contracts/fixed/SafeAttacker.sol\":4725:4769  require(balance > 0, \"No funds to withdraw\") */\n      0x04\n      dup3\n      add\n        /* \"#utility.yul\":8811:8832   */\n      mstore\n        /* \"#utility.yul\":8868:8870   */\n      0x14\n        /* \"#utility.yul\":8848:8866   */\n      0x24\n      dup3\n      add\n        /* \"#utility.yul\":8841:8871   */\n      mstore\n      shl(0x60, 0x4e6f2066756e647320746f207769746864726177)\n        /* \"#utility.yul\":8887:8905   */\n      0x44\n      dup3\n      add\n        /* \"#utility.yul\":8880:8930   */\n      mstore\n        /* \"#utility.yul\":8947:8965   */\n      0x64\n      add\n        /* \"projects/01-reentrancy-vault/contracts/fixed/SafeAttacker.sol\":4725:4769  require(balance > 0, \"No funds to withdraw\") */\n      tag_115\n        /* \"#utility.yul\":8627:8971   */\n      jump\n        /* \"projects/01-reentrancy-vault/contracts/fixed/SafeAttacker.sol\":4725:4769  require(balance > 0, \"No funds to withdraw\") */\n    tag_246:\n        /* \"projects/01-reentrancy-vault/contracts/fixed/SafeAttacker.sol\":4807:4842  msg.sender.call{value: balance}(\"\") */\n      mload(0x40)\n        /* \"projects/01-reentrancy-vault/contracts/fixed/SafeAttacker.sol\":4789:4801  bool success */\n      0x00\n      swap1\n        /* \"projects/01-reentrancy-vault/contracts/fixed/SafeAttacker.sol\":4807:4817  msg.sender */\n      caller\n      swap1\n        /* \"projects/01-reentrancy-vault/contracts/fixed/SafeAttacker.sol\":4830:4837  balance */\n      dup4\n      swap1\n        /* \"projects/01-reentrancy-vault/contracts/fixed/SafeAttacker.sol\":4789:4801  bool success */\n      dup4\n        /* \"projects/01-reentrancy-vault/contracts/fixed/SafeAttacker.sol\":4807:4842  msg.sender.call{value: balance}(\"\") */\n      dup2\n        /* \"projects/01-reentrancy-vault/contracts/fixed/SafeAttacker.sol\":4789:4801  bool success */\n      dup2\n        /* \"projects/01-reentrancy-vault/contracts/fixed/SafeAttacker.sol\":4807:4842  msg.sender.call{value: balance}(\"\") */\n      dup2\n        /* \"projects/01-reentrancy-vault/contracts/fixed/SafeAttacker.sol\":4830:4837  balance */\n      dup6\n        /* \"projects/01-reentrancy-vault/contracts/fixed/SafeAttacker.sol\":4807:4817  msg.sender */\n      dup8\n        /* \"projects/01-reentrancy-vault/contracts/fixed/SafeAttacker.sol\":4807:4842  msg.sender.call{value: balance}(\"\") */\n      gas\n      call\n      swap3\n      pop\n      pop\n      pop\n      returndatasize\n      dup1\n      0x00\n      dup2\n      eq\n      tag_253\n      jumpi\n      mload(0x40)\n      swap2\n      pop\n      and(add(returndatasize, 0x3f), not(0x1f))\n      dup3\n      add\n      0x40\n      mstore\n      returndatasize\n      dup3\n      mstore\n      returndatasize\n      0x00\n      0x20\n      dup5\n      add\n      returndatacopy\n      jump(tag_252)\n    tag_253:\n      0x60\n      swap2\n      pop\n    tag_252:\n      pop\n        /* \"projects/01-reentrancy-vault/contracts/fixed/SafeAttacker.sol\":4788:4842  (bool success, ) = msg.sender.call{value: balance}(\"\") */\n      pop\n      swap1\n      pop\n        /* \"projects/01-reentrancy-vault/contracts/fixed/SafeAttacker.sol\":4860:4867  success */\n      dup1\n        /* \"projects/01-reentrancy-vault/contracts/fixed/SafeAttacker.sol\":4852:4887  require(success, \"Transfer failed\") */\n      tag_254\n      jumpi\n      mload(0x40)\n      shl(0xe5, 0x461bcd)\n      dup2\n      mstore\n        /* \"#utility.yul\":9388:9390   */\n      0x20\n        /* \"projects/01-reentrancy-vault/contracts/fixed/SafeAttacker.sol\":4852:4887  require(success, \"Transfer failed\") */\n      0x04\n      dup3\n      add\n        /* \"#utility.yul\":9370:9391   */\n      mstore\n        /* \"#utility.yul\":9427:9429   */\n      0x0f\n        /* \"#utility.yul\":9407:9425   */\n      0x24\n      dup3\n      add\n        /* \"#utility.yul\":9400:9430   */\n      mstore\n      shl(0x8a, 0x151c985b9cd9995c8819985a5b1959)\n        /* \"#utility.yul\":9446:9464   */\n      0x44\n      dup3\n      add\n        /* \"#utility.yul\":9439:9484   */\n      mstore\n        /* \"#utility.yul\":9501:9519   */\n      0x64\n      add\n        /* \"projects/01-reentrancy-vault/contracts/fixed/SafeAttacker.sol\":4852:4887  require(success, \"Transfer failed\") */\n      tag_115\n        /* \"#utility.yul\":9186:9525   */\n      jump\n        /* \"projects/01-reentrancy-vault/contracts/fixed/SafeAttacker.sol\":4852:4887  require(success, \"Transfer failed\") */\n    tag_254:\n        /* \"projects/01-reentrancy-vault/contracts/fixed/SafeAttacker.sol\":4906:4946  console.log(\"Funds withdrawn:\", balance) */\n      tag_93\n      mload(0x40)\n      dup1\n      0x40\n      add\n      0x40\n      mstore\n      dup1\n      0x10\n      dup2\n      mstore\n      0x20\n      add\n      shl(0x81, 0x233ab73239903bb4ba34323930bbb71d)\n      dup2\n      mstore\n      pop\n        /* \"projects/01-reentrancy-vault/contracts/fixed/SafeAttacker.sol\":4938:4945  balance */\n      dup4\n        /* \"projects/01-reentrancy-vault/contracts/fixed/SafeAttacker.sol\":4906:4917  console.log */\n      tag_19\n        /* \"projects/01-reentrancy-vault/contracts/fixed/SafeAttacker.sol\":4906:4946  console.log(\"Funds withdrawn:\", balance) */\n      jump\t// in\n        /* \"lib/forge-std/src/console.sol\":851:980  function _sendLogPayload(bytes memory payload) internal pure {... */\n    tag_96:\n        /* \"lib/forge-std/src/console.sol\":922:973  _castToPure(_sendLogPayloadImplementation)(payload) */\n      tag_98\n        /* \"lib/forge-std/src/console.sol\":965:972  payload */\n      dup2\n        /* \"lib/forge-std/src/console.sol\":265:287  address consoleAddress */\n      0x00\n        /* \"lib/forge-std/src/console.sol\":131:173  0x000000000000000000636F6e736F6c652e6c6f67 */\n      0x636f6e736f6c652e6c6f67\n        /* \"lib/forge-std/src/console.sol\":265:305  address consoleAddress = CONSOLE_ADDRESS */\n      swap1\n      pop\n        /* \"lib/forge-std/src/console.sol\":594:595  0 */\n      0x00\n        /* \"lib/forge-std/src/console.sol\":571:572  0 */\n      dup1\n        /* \"lib/forge-std/src/console.sol\":541:548  payload */\n      dup4\n        /* \"lib/forge-std/src/console.sol\":535:549  mload(payload) */\n      mload\n        /* \"lib/forge-std/src/console.sol\":510:512  32 */\n      0x20\n        /* \"lib/forge-std/src/console.sol\":501:508  payload */\n      dup6\n        /* \"lib/forge-std/src/console.sol\":497:513  add(payload, 32) */\n      add\n        /* \"lib/forge-std/src/console.sol\":461:475  consoleAddress */\n      dup5\n        /* \"lib/forge-std/src/console.sol\":434:439  gas() */\n      gas\n        /* \"lib/forge-std/src/console.sol\":402:613  staticcall(... */\n      staticcall\n        /* \"lib/forge-std/src/console.sol\":381:627  pop(... */\n      pop\n        /* \"lib/forge-std/src/console.sol\":367:637  {... */\n      pop\n        /* \"lib/forge-std/src/console.sol\":180:643  function _sendLogPayloadImplementation(bytes memory payload) internal view {... */\n      pop\n      jump\t// out\n        /* \"#utility.yul\":14:141   */\n    tag_268:\n        /* \"#utility.yul\":75:85   */\n      0x4e487b71\n        /* \"#utility.yul\":70:73   */\n      0xe0\n        /* \"#utility.yul\":66:86   */\n      shl\n        /* \"#utility.yul\":63:64   */\n      0x00\n        /* \"#utility.yul\":56:87   */\n      mstore\n        /* \"#utility.yul\":106:110   */\n      0x11\n        /* \"#utility.yul\":103:104   */\n      0x04\n        /* \"#utility.yul\":96:111   */\n      mstore\n        /* \"#utility.yul\":130:134   */\n      0x24\n        /* \"#utility.yul\":127:128   */\n      0x00\n        /* \"#utility.yul\":120:135   */\n      revert\n        /* \"#utility.yul\":146:271   */\n    tag_22:\n        /* \"#utility.yul\":211:220   */\n      dup1\n      dup3\n      add\n        /* \"#utility.yul\":232:242   */\n      dup1\n      dup3\n      gt\n        /* \"#utility.yul\":229:265   */\n      iszero\n      tag_275\n      jumpi\n        /* \"#utility.yul\":245:263   */\n      tag_275\n      tag_268\n      jump\t// in\n    tag_275:\n        /* \"#utility.yul\":146:271   */\n      swap3\n      swap2\n      pop\n      pop\n      jump\t// out\n        /* \"#utility.yul\":276:411   */\n    tag_24:\n        /* \"#utility.yul\":315:318   */\n      0x00\n        /* \"#utility.yul\":336:353   */\n      0x01\n      dup3\n      add\n        /* \"#utility.yul\":333:376   */\n      tag_278\n      jumpi\n        /* \"#utility.yul\":356:374   */\n      tag_278\n      tag_268\n      jump\t// in\n    tag_278:\n      pop\n        /* \"#utility.yul\":403:404   */\n      0x01\n        /* \"#utility.yul\":392:405   */\n      add\n      swap1\n        /* \"#utility.yul\":276:411   */\n      jump\t// out\n        /* \"#utility.yul\":851:1030   */\n    tag_40:\n        /* \"#utility.yul\":886:889   */\n      0x00\n        /* \"#utility.yul\":928:929   */\n      0x03\n        /* \"#utility.yul\":910:926   */\n      returndatasize\n        /* \"#utility.yul\":907:930   */\n      gt\n        /* \"#utility.yul\":904:1024   */\n      iszero\n      tag_282\n      jumpi\n        /* \"#utility.yul\":974:975   */\n      0x04\n        /* \"#utility.yul\":971:972   */\n      0x00\n        /* \"#utility.yul\":968:969   */\n      dup1\n        /* \"#utility.yul\":953:976   */\n      returndatacopy\n      pop\n        /* \"#utility.yul\":1011:1012   */\n      0x00\n        /* \"#utility.yul\":1005:1013   */\n      mload\n        /* \"#utility.yul\":1000:1003   */\n      0xe0\n        /* \"#utility.yul\":996:1014   */\n      shr\n        /* \"#utility.yul\":904:1024   */\n    tag_282:\n        /* \"#utility.yul\":851:1030   */\n      swap1\n      jump\t// out\n        /* \"#utility.yul\":1035:1381   */\n    tag_269:\n        /* \"#utility.yul\":1145:1147   */\n      0x1f\n        /* \"#utility.yul\":1126:1139   */\n      dup3\n      add\n      not(0x1f)\n        /* \"#utility.yul\":1122:1149   */\n      and\n        /* \"#utility.yul\":1110:1150   */\n      dup2\n      add\n        /* \"#utility.yul\":1180:1198   */\n      0xffffffffffffffff\n        /* \"#utility.yul\":1165:1199   */\n      dup2\n      gt\n        /* \"#utility.yul\":1201:1223   */\n      dup3\n      dup3\n      lt\n        /* \"#utility.yul\":1162:1224   */\n      or\n        /* \"#utility.yul\":1159:1344   */\n      iszero\n      tag_284\n      jumpi\n        /* \"#utility.yul\":1266:1276   */\n      0x4e487b71\n        /* \"#utility.yul\":1261:1264   */\n      0xe0\n        /* \"#utility.yul\":1257:1277   */\n      shl\n        /* \"#utility.yul\":1254:1255   */\n      0x00\n        /* \"#utility.yul\":1247:1278   */\n      mstore\n        /* \"#utility.yul\":1301:1305   */\n      0x41\n        /* \"#utility.yul\":1298:1299   */\n      0x04\n        /* \"#utility.yul\":1291:1306   */\n      mstore\n        /* \"#utility.yul\":1329:1333   */\n      0x24\n        /* \"#utility.yul\":1326:1327   */\n      0x00\n        /* \"#utility.yul\":1319:1334   */\n      revert\n        /* \"#utility.yul\":1159:1344   */\n    tag_284:\n        /* \"#utility.yul\":1360:1362   */\n      0x40\n        /* \"#utility.yul\":1353:1375   */\n      mstore\n      pop\n      pop\n        /* \"#utility.yul\":1035:1381   */\n      jump\t// out\n        /* \"#utility.yul\":1386:2057   */\n    tag_42:\n        /* \"#utility.yul\":1425:1428   */\n      0x00\n        /* \"#utility.yul\":1467:1471   */\n      0x44\n        /* \"#utility.yul\":1449:1465   */\n      returndatasize\n        /* \"#utility.yul\":1446:1472   */\n      lt\n        /* \"#utility.yul\":1443:1482   */\n      iszero\n      tag_286\n      jumpi\n        /* \"#utility.yul\":1386:2057   */\n      swap1\n      jump\t// out\n        /* \"#utility.yul\":1443:1482   */\n    tag_286:\n        /* \"#utility.yul\":1509:1511   */\n      0x40\n        /* \"#utility.yul\":1503:1512   */\n      mload\n      not(0x03)\n        /* \"#utility.yul\":1574:1590   */\n      returndatasize\n        /* \"#utility.yul\":1570:1595   */\n      dup2\n      add\n        /* \"#utility.yul\":1567:1568   */\n      0x04\n        /* \"#utility.yul\":1503:1512   */\n      dup4\n        /* \"#utility.yul\":1546:1596   */\n      returndatacopy\n        /* \"#utility.yul\":1625:1629   */\n      dup2\n        /* \"#utility.yul\":1619:1630   */\n      mload\n        /* \"#utility.yul\":1649:1665   */\n      returndatasize\n        /* \"#utility.yul\":1684:1702   */\n      0xffffffffffffffff\n        /* \"#utility.yul\":1755:1757   */\n      dup2\n        /* \"#utility.yul\":1748:1752   */\n      0x24\n        /* \"#utility.yul\":1740:1746   */\n      dup5\n        /* \"#utility.yul\":1736:1753   */\n      add\n        /* \"#utility.yul\":1733:1758   */\n      gt\n        /* \"#utility.yul\":1728:1730   */\n      dup2\n        /* \"#utility.yul\":1720:1726   */\n      dup5\n        /* \"#utility.yul\":1717:1731   */\n      gt\n        /* \"#utility.yul\":1714:1759   */\n      or\n        /* \"#utility.yul\":1711:1769   */\n      iszero\n      tag_287\n      jumpi\n        /* \"#utility.yul\":1762:1767   */\n      pop\n      pop\n      pop\n      pop\n      pop\n        /* \"#utility.yul\":1386:2057   */\n      swap1\n      jump\t// out\n        /* \"#utility.yul\":1711:1769   */\n    tag_287:\n        /* \"#utility.yul\":1799:1805   */\n      dup3\n        /* \"#utility.yul\":1793:1797   */\n      dup6\n        /* \"#utility.yul\":1789:1806   */\n      add\n        /* \"#utility.yul\":1778:1806   */\n      swap2\n      pop\n        /* \"#utility.yul\":1835:1838   */\n      dup2\n        /* \"#utility.yul\":1829:1839   */\n      mload\n        /* \"#utility.yul\":1862:1864   */\n      dup2\n        /* \"#utility.yul\":1854:1860   */\n      dup2\n        /* \"#utility.yul\":1851:1865   */\n      gt\n        /* \"#utility.yul\":1848:1875   */\n      iszero\n      tag_288\n      jumpi\n        /* \"#utility.yul\":1868:1873   */\n      pop\n      pop\n      pop\n      pop\n      pop\n      pop\n        /* \"#utility.yul\":1386:2057   */\n      swap1\n      jump\t// out\n        /* \"#utility.yul\":1848:1875   */\n    tag_288:\n        /* \"#utility.yul\":1952:1954   */\n      dup5\n        /* \"#utility.yul\":1933:1949   */\n      returndatasize\n        /* \"#utility.yul\":1927:1931   */\n      dup8\n        /* \"#utility.yul\":1923:1950   */\n      add\n        /* \"#utility.yul\":1919:1955   */\n      add\n        /* \"#utility.yul\":1912:1916   */\n      0x20\n        /* \"#utility.yul\":1903:1909   */\n      dup3\n        /* \"#utility.yul\":1898:1901   */\n      dup6\n        /* \"#utility.yul\":1894:1910   */\n      add\n        /* \"#utility.yul\":1890:1917   */\n      add\n        /* \"#utility.yul\":1887:1956   */\n      gt\n        /* \"#utility.yul\":1884:1966   */\n      iszero\n      tag_289\n      jumpi\n        /* \"#utility.yul\":1959:1964   */\n      pop\n      pop\n      pop\n      pop\n      pop\n      pop\n        /* \"#utility.yul\":1386:2057   */\n      swap1\n      jump\t// out\n        /* \"#utility.yul\":1884:1966   */\n    tag_289:\n        /* \"#utility.yul\":1975:2032   */\n      tag_290\n        /* \"#utility.yul\":2026:2030   */\n      0x20\n        /* \"#utility.yul\":2017:2023   */\n      dup3\n        /* \"#utility.yul\":2009:2015   */\n      dup7\n        /* \"#utility.yul\":2005:2024   */\n      add\n        /* \"#utility.yul\":2001:2031   */\n      add\n        /* \"#utility.yul\":1995:1999   */\n      dup8\n        /* \"#utility.yul\":1975:2032   */\n      tag_269\n      jump\t// in\n    tag_290:\n      pop\n        /* \"#utility.yul\":2048:2051   */\n      swap1\n      swap6\n        /* \"#utility.yul\":1386:2057   */\n      swap5\n      pop\n      pop\n      pop\n      pop\n      pop\n      jump\t// out\n        /* \"#utility.yul\":2969:3392   */\n    tag_270:\n        /* \"#utility.yul\":3011:3014   */\n      0x00\n        /* \"#utility.yul\":3049:3054   */\n      dup2\n        /* \"#utility.yul\":3043:3055   */\n      mload\n        /* \"#utility.yul\":3076:3082   */\n      dup1\n        /* \"#utility.yul\":3071:3074   */\n      dup5\n        /* \"#utility.yul\":3064:3083   */\n      mstore\n        /* \"#utility.yul\":3101:3102   */\n      0x00\n        /* \"#utility.yul\":3111:3273   */\n    tag_295:\n        /* \"#utility.yul\":3125:3131   */\n      dup2\n        /* \"#utility.yul\":3122:3123   */\n      dup2\n        /* \"#utility.yul\":3119:3132   */\n      lt\n        /* \"#utility.yul\":3111:3273   */\n      iszero\n      tag_297\n      jumpi\n        /* \"#utility.yul\":3187:3191   */\n      0x20\n        /* \"#utility.yul\":3243:3256   */\n      dup2\n      dup6\n      add\n        /* \"#utility.yul\":3239:3261   */\n      dup2\n      add\n        /* \"#utility.yul\":3233:3262   */\n      mload\n        /* \"#utility.yul\":3215:3226   */\n      dup7\n      dup4\n      add\n        /* \"#utility.yul\":3211:3231   */\n      dup3\n      add\n        /* \"#utility.yul\":3204:3263   */\n      mstore\n        /* \"#utility.yul\":3140:3152   */\n      add\n        /* \"#utility.yul\":3111:3273   */\n      jump(tag_295)\n    tag_297:\n        /* \"#utility.yul\":3115:3118   */\n      pop\n        /* \"#utility.yul\":3318:3319   */\n      0x00\n        /* \"#utility.yul\":3311:3315   */\n      0x20\n        /* \"#utility.yul\":3302:3308   */\n      dup3\n        /* \"#utility.yul\":3297:3300   */\n      dup7\n        /* \"#utility.yul\":3293:3309   */\n      add\n        /* \"#utility.yul\":3289:3316   */\n      add\n        /* \"#utility.yul\":3282:3320   */\n      mstore\n        /* \"#utility.yul\":3381:3385   */\n      0x20\n        /* \"#utility.yul\":3374:3376   */\n      0x1f\n        /* \"#utility.yul\":3370:3377   */\n      not\n        /* \"#utility.yul\":3365:3367   */\n      0x1f\n        /* \"#utility.yul\":3357:3363   */\n      dup4\n        /* \"#utility.yul\":3353:3368   */\n      add\n        /* \"#utility.yul\":3349:3378   */\n      and\n        /* \"#utility.yul\":3344:3347   */\n      dup6\n        /* \"#utility.yul\":3340:3379   */\n      add\n        /* \"#utility.yul\":3336:3386   */\n      add\n        /* \"#utility.yul\":3329:3386   */\n      swap2\n      pop\n      pop\n        /* \"#utility.yul\":2969:3392   */\n      swap3\n      swap2\n      pop\n      pop\n      jump\t// out\n        /* \"#utility.yul\":3397:3688   */\n    tag_95:\n        /* \"#utility.yul\":3574:3576   */\n      0x40\n        /* \"#utility.yul\":3563:3572   */\n      dup2\n        /* \"#utility.yul\":3556:3577   */\n      mstore\n        /* \"#utility.yul\":3537:3541   */\n      0x00\n        /* \"#utility.yul\":3594:3639   */\n      tag_299\n        /* \"#utility.yul\":3635:3637   */\n      0x40\n        /* \"#utility.yul\":3624:3633   */\n      dup4\n        /* \"#utility.yul\":3620:3638   */\n      add\n        /* \"#utility.yul\":3612:3618   */\n      dup6\n        /* \"#utility.yul\":3594:3639   */\n      tag_270\n      jump\t// in\n    tag_299:\n        /* \"#utility.yul\":3586:3639   */\n      swap1\n      pop\n        /* \"#utility.yul\":3675:3681   */\n      dup3\n        /* \"#utility.yul\":3670:3672   */\n      0x20\n        /* \"#utility.yul\":3659:3668   */\n      dup4\n        /* \"#utility.yul\":3655:3673   */\n      add\n        /* \"#utility.yul\":3648:3682   */\n      mstore\n        /* \"#utility.yul\":3397:3688   */\n      swap4\n      swap3\n      pop\n      pop\n      pop\n      jump\t// out\n        /* \"#utility.yul\":3693:3913   */\n    tag_100:\n        /* \"#utility.yul\":3842:3844   */\n      0x20\n        /* \"#utility.yul\":3831:3840   */\n      dup2\n        /* \"#utility.yul\":3824:3845   */\n      mstore\n        /* \"#utility.yul\":3805:3809   */\n      0x00\n        /* \"#utility.yul\":3862:3907   */\n      tag_301\n        /* \"#utility.yul\":3903:3905   */\n      0x20\n        /* \"#utility.yul\":3892:3901   */\n      dup4\n        /* \"#utility.yul\":3888:3906   */\n      add\n        /* \"#utility.yul\":3880:3886   */\n      dup5\n        /* \"#utility.yul\":3862:3907   */\n      tag_270\n      jump\t// in\n    tag_301:\n        /* \"#utility.yul\":3854:3907   */\n      swap4\n        /* \"#utility.yul\":3693:3913   */\n      swap3\n      pop\n      pop\n      pop\n      jump\t// out\n        /* \"#utility.yul\":3918:4301   */\n    tag_104:\n        /* \"#utility.yul\":4115:4117   */\n      0x40\n        /* \"#utility.yul\":4104:4113   */\n      dup2\n        /* \"#utility.yul\":4097:4118   */\n      mstore\n        /* \"#utility.yul\":4078:4082   */\n      0x00\n        /* \"#utility.yul\":4141:4186   */\n      tag_303\n        /* \"#utility.yul\":4182:4184   */\n      0x40\n        /* \"#utility.yul\":4171:4180   */\n      dup4\n        /* \"#utility.yul\":4167:4185   */\n      add\n        /* \"#utility.yul\":4159:4165   */\n      dup6\n        /* \"#utility.yul\":4141:4186   */\n      tag_270\n      jump\t// in\n    tag_303:\n        /* \"#utility.yul\":4234:4243   */\n      dup3\n        /* \"#utility.yul\":4226:4232   */\n      dup2\n        /* \"#utility.yul\":4222:4244   */\n      sub\n        /* \"#utility.yul\":4217:4219   */\n      0x20\n        /* \"#utility.yul\":4206:4215   */\n      dup5\n        /* \"#utility.yul\":4202:4220   */\n      add\n        /* \"#utility.yul\":4195:4245   */\n      mstore\n        /* \"#utility.yul\":4262:4295   */\n      tag_304\n        /* \"#utility.yul\":4288:4294   */\n      dup2\n        /* \"#utility.yul\":4280:4286   */\n      dup6\n        /* \"#utility.yul\":4262:4295   */\n      tag_270\n      jump\t// in\n    tag_304:\n        /* \"#utility.yul\":4254:4295   */\n      swap6\n        /* \"#utility.yul\":3918:4301   */\n      swap5\n      pop\n      pop\n      pop\n      pop\n      pop\n      jump\t// out\n        /* \"#utility.yul\":4514:4698   */\n    tag_112:\n        /* \"#utility.yul\":4584:4590   */\n      0x00\n        /* \"#utility.yul\":4637:4639   */\n      0x20\n        /* \"#utility.yul\":4625:4634   */\n      dup3\n        /* \"#utility.yul\":4616:4623   */\n      dup5\n        /* \"#utility.yul\":4612:4635   */\n      sub\n        /* \"#utility.yul\":4608:4640   */\n      slt\n        /* \"#utility.yul\":4605:4657   */\n      iszero\n      tag_307\n      jumpi\n        /* \"#utility.yul\":4653:4654   */\n      0x00\n        /* \"#utility.yul\":4650:4651   */\n      dup1\n        /* \"#utility.yul\":4643:4655   */\n      revert\n        /* \"#utility.yul\":4605:4657   */\n    tag_307:\n      pop\n        /* \"#utility.yul\":4676:4692   */\n      mload\n      swap2\n        /* \"#utility.yul\":4514:4698   */\n      swap1\n      pop\n      jump\t// out\n        /* \"#utility.yul\":5051:5350   */\n    tag_129:\n        /* \"#utility.yul\":5236:5242   */\n      dup3\n        /* \"#utility.yul\":5225:5234   */\n      dup2\n        /* \"#utility.yul\":5218:5243   */\n      mstore\n        /* \"#utility.yul\":5279:5281   */\n      0x40\n        /* \"#utility.yul\":5274:5276   */\n      0x20\n        /* \"#utility.yul\":5263:5272   */\n      dup3\n        /* \"#utility.yul\":5259:5277   */\n      add\n        /* \"#utility.yul\":5252:5282   */\n      mstore\n        /* \"#utility.yul\":5199:5203   */\n      0x00\n        /* \"#utility.yul\":5299:5344   */\n      tag_310\n        /* \"#utility.yul\":5340:5342   */\n      0x40\n        /* \"#utility.yul\":5329:5338   */\n      dup4\n        /* \"#utility.yul\":5325:5343   */\n      add\n        /* \"#utility.yul\":5317:5323   */\n      dup5\n        /* \"#utility.yul\":5299:5344   */\n      tag_270\n      jump\t// in\n    tag_310:\n        /* \"#utility.yul\":5291:5344   */\n      swap5\n        /* \"#utility.yul\":5051:5350   */\n      swap4\n      pop\n      pop\n      pop\n      pop\n      jump\t// out\n    stop\n    data_1a361d4ce2bd4b83a73364705ffbc564beaba38b586f0af32776ef320d572a38 54657374696e67206465706f73697420626f6e75732073656375726974792e2e2e\n    data_2a0d085931cd43a46e4e625bdfc157eeaf0ae396f0d40874e546c25b848175ab 5245454e5452414e435920535543434545444544202d2053454355524954592042524541434821\n    data_53de7949f12b81e012a5ee6c46608d9b96e7c046ceaa646463ff040f3c8f7aa6 456d657267656e6379207769746864726177206661696c6564207769746820726561736f6e3a\n    data_5647caeccbe88b61a87b84c41db4a0d5a2a09411b35068bcc48a46514627efa8 54657374696e6720656d657267656e63792077697468647261772073656375726974792e2e2e\n    data_5fb5946472844d2cdf93561fee9ecd60c46278d480bceaa3d64d18dc163b389d f526efd7b4a5ca43ceaffba3bc68e198ecbb7812c67dcffad2f5e418a18d138e\n    data_7bc836a083f212ac85884f2c231595a4fc81c04b56f486fb3ffdc7dab57190af 5a65726f20776974686472617720737563636565646564202d20706f74656e7469616c206973737565\n    data_8db7e41d2312668d44c26d657fda740393ee0d4f29d99e6a5180efc697aae8fb 456d657267656e6379207769746864726177207375636365656465642028657870656374656429\n    data_9c292076947de5b37f6e36c33b696487771ea00df875ee98a38ec9610b67aeb4 54657374696e672046697865645661756c74207365637572697479206d656173757265732e2e2e\n    data_b08ccea919803a1ee6d710132c881e5854c0b356083b79d39af15a18fe83cc4b 5265656e7472616e637920626c6f636b6564202867656e65726963206572726f7229\n    data_c3693f19ba6014cbd71accce976ddea7552976964ee1bd0b0ee0fe1a78255bb9 417474656d7074696e67207265656e7472616e6379202873686f756c64206661696c292e2e2e\n    data_d53463e19c758b43999a87933db224b61ef1e9634eded8754d5e91363974f3fa 54657374696e67206d756c7469706c65206465706f736974732070726f74656374696f6e2e2e2e\n    data_fdbfee63879b2e058da8d6db9872ec4ba65a2c18fa422838e0fae4cd7568fad7 54657374696e6720696e76616c69642077697468647261772070726f74656374696f6e2e2e2e\n\n    auxdata: 0xa2646970667358221220abe98ef39c9aa32e2a2fb8e71cbc241e5a43fa88355640a8c00c083fe7826c5c64736f6c63430008140033\n}\n","methodIdentifiers":{"attack()":"9e5faafc","attackCount()":"407c2821","attackDepositBonus()":"50a63df1","attackEmergencyWithdraw()":"7dd0ddf9","getAttackStats()":"0777586a","getVaultBalance()":"ed12e8ef","getVaultUserBalance()":"1f22e4b3","testInvalidWithdraw()":"d036972e","testMultipleDeposits()":"d0d8bc86","totalStolen()":"d9f9d5f2","vault()":"fbfa77cf","withdrawStolenFunds()":"fd276754"},"storageLayout":{"storage":[{"astId":40119,"contract":"projects/01-reentrancy-vault/contracts/fixed/SafeAttacker.sol:SafeAttacker","label":"vault","offset":0,"slot":"0","type":"t_contract(FixedVault)40108"},{"astId":40122,"contract":"projects/01-reentrancy-vault/contracts/fixed/SafeAttacker.sol:SafeAttacker","label":"attackCount","offset":0,"slot":"1","type":"t_uint256"},{"astId":40125,"contract":"projects/01-reentrancy-vault/contracts/fixed/SafeAttacker.sol:SafeAttacker","label":"totalStolen","offset":0,"slot":"2","type":"t_uint256"}],"types":{"t_contract(FixedVault)40108":{"encoding":"inplace","label":"contract FixedVault","numberOfBytes":"20"},"t_uint256":{"encoding":"inplace","label":"uint256","numberOfBytes":"32"}}},"id":22}