{"abi":[{"type":"receive","stateMutability":"payable"},{"type":"function","name":"balances","inputs":[{"name":"","type":"address","internalType":"address"}],"outputs":[{"name":"","type":"uint256","internalType":"uint256"}],"stateMutability":"view"},{"type":"function","name":"deposit","inputs":[],"outputs":[],"stateMutability":"payable"},{"type":"function","name":"emergencyWithdraw","inputs":[],"outputs":[],"stateMutability":"nonpayable"},{"type":"function","name":"getBalance","inputs":[{"name":"user","type":"address","internalType":"address"}],"outputs":[{"name":"","type":"uint256","internalType":"uint256"}],"stateMutability":"view"},{"type":"function","name":"getContractBalance","inputs":[],"outputs":[{"name":"","type":"uint256","internalType":"uint256"}],"stateMutability":"view"},{"type":"function","name":"getDepositState","inputs":[{"name":"user","type":"address","internalType":"address"}],"outputs":[{"name":"","type":"bool","internalType":"bool"}],"stateMutability":"view"},{"type":"function","name":"isDepositing","inputs":[{"name":"","type":"address","internalType":"address"}],"outputs":[{"name":"","type":"bool","internalType":"bool"}],"stateMutability":"view"},{"type":"function","name":"pauseDeposits","inputs":[],"outputs":[],"stateMutability":"nonpayable"},{"type":"function","name":"withdraw","inputs":[{"name":"amount","type":"uint256","internalType":"uint256"}],"outputs":[],"stateMutability":"nonpayable"},{"type":"event","name":"Deposit","inputs":[{"name":"user","type":"address","indexed":true,"internalType":"address"},{"name":"amount","type":"uint256","indexed":false,"internalType":"uint256"}],"anonymous":false},{"type":"event","name":"EmergencyWithdraw","inputs":[{"name":"user","type":"address","indexed":true,"internalType":"address"},{"name":"amount","type":"uint256","indexed":false,"internalType":"uint256"}],"anonymous":false},{"type":"event","name":"Withdraw","inputs":[{"name":"user","type":"address","indexed":true,"internalType":"address"},{"name":"amount","type":"uint256","indexed":false,"internalType":"uint256"}],"anonymous":false}],"bytecode":{"object":"0x608060405234801561000f575f80fd5b5060015f556109e4806100215f395ff3fe608060405260043610610087575f3560e01c80632e1a7d4d116100575780632e1a7d4d1461024f5780636f9fb98a1461026e578063d0e30db014610280578063db2e21bc14610288578063f8b2cb4f1461029c575f80fd5b8063021919801461018d57806313b085d91461019c57806319b02120146101e857806327e235e314610216575f80fd5b36610189575f34116100d05760405162461bcd60e51b815260206004820152600d60248201526c09aeae6e840e6cadcc8408aa89609b1b60448201526064015b60405180910390fd5b335f9081526002602052604090205460ff161561012f5760405162461bcd60e51b815260206004820152601d60248201527f43616e6e6f74207265636569766520647572696e67206465706f73697400000060448201526064016100c7565b335f908152600160205260408120805434929061014d90849061093e565b909155505060405134815233907fe1fffcc4923d04b559f4d29a8bfc6cda04eb5b0d3c460751c2402c5c5cc9109c9060200160405180910390a2005b5f80fd5b348015610198575f80fd5b505b005b3480156101a7575f80fd5b506101d36101b6366004610957565b6001600160a01b03165f9081526002602052604090205460ff1690565b60405190151581526020015b60405180910390f35b3480156101f3575f80fd5b506101d3610202366004610957565b60026020525f908152604090205460ff1681565b348015610221575f80fd5b50610241610230366004610957565b60016020525f908152604090205481565b6040519081526020016101df565b34801561025a575f80fd5b5061019a610269366004610984565b6102d2565b348015610279575f80fd5b5047610241565b61019a6104ba565b348015610293575f80fd5b5061019a6106e9565b3480156102a7575f80fd5b506102416102b6366004610957565b6001600160a01b03165f9081526001602052604090205490565b565b6102da6108d3565b335f9081526001602052604090205481111561032f5760405162461bcd60e51b8152602060048201526014602482015273496e73756666696369656e742062616c616e636560601b60448201526064016100c7565b5f811161037e5760405162461bcd60e51b815260206004820152601d60248201527f416d6f756e74206d7573742062652067726561746572207468616e203000000060448201526064016100c7565b804710156103ce5760405162461bcd60e51b815260206004820152601d60248201527f496e73756666696369656e7420636f6e74726163742062616c616e636500000060448201526064016100c7565b335f90815260016020526040812080548392906103ec90849061099b565b90915550506040515f90339083908381818185875af1925050503d805f8114610430576040519150601f19603f3d011682016040523d82523d5f602084013e610435565b606091505b50509050806104785760405162461bcd60e51b815260206004820152600f60248201526e151c985b9cd9995c8819985a5b1959608a1b60448201526064016100c7565b60405182815233907f884edad9ce6fa2440d8a54cc123490eb96d2768479d49ff9c7366125a94243649060200160405180910390a2506104b760015f55565b50565b6104c26108d3565b5f34116105015760405162461bcd60e51b815260206004820152600d60248201526c09aeae6e840e6cadcc8408aa89609b1b60448201526064016100c7565b335f9081526002602052604090205460ff16156105555760405162461bcd60e51b8152602060048201526012602482015271416c7265616479206465706f736974696e6760701b60448201526064016100c7565b335f908152600160205260408120805434929061057390849061093e565b9091555050335f908152600260205260409020805460ff19166001179055670de0b6b3a764000034106106905767016345785d8a0000478111156105f95760405162461bcd60e51b815260206004820152601860248201527f496e73756666696369656e7420626f6e75732066756e6473000000000000000060448201526064016100c7565b335f908152600160205260408120805483929061061790849061093e565b90915550506040515f90339082908181818181875af1925050503d805f811461065b576040519150601f19603f3d011682016040523d82523d5f602084013e610660565b606091505b505090508061068d57335f908152600160205260408120805484929061068790849061099b565b90915550505b50505b335f8181526002602052604090819020805460ff19169055517fe1fffcc4923d04b559f4d29a8bfc6cda04eb5b0d3c460751c2402c5c5cc9109c906106d89034815260200190565b60405180910390a26102d060015f55565b6106f16108d3565b335f9081526002602052604090205460ff166107465760405162461bcd60e51b81526020600482015260146024820152734e6f7420696e206465706f73697420737461746560601b60448201526064016100c7565b335f908152600160205260409020548061079b5760405162461bcd60e51b81526020600482015260166024820152754e6f2062616c616e636520746f20776974686472617760501b60448201526064016100c7565b804710156107eb5760405162461bcd60e51b815260206004820152601d60248201527f496e73756666696369656e7420636f6e74726163742062616c616e636500000060448201526064016100c7565b335f8181526001602090815260408083208390556002909152808220805460ff191690555190919083908381818185875af1925050503d805f811461084b576040519150601f19603f3d011682016040523d82523d5f602084013e610850565b606091505b50509050806108935760405162461bcd60e51b815260206004820152600f60248201526e151c985b9cd9995c8819985a5b1959608a1b60448201526064016100c7565b60405182815233907f5fafa99d0643513820be26656b45130b01e1c03062e1266bf36f88cbd3bd96959060200160405180910390a250506102d060015f55565b60025f54036109245760405162461bcd60e51b815260206004820152601f60248201527f5265656e7472616e637947756172643a207265656e7472616e742063616c6c0060448201526064016100c7565b60025f55565b634e487b7160e01b5f52601160045260245ffd5b808201808211156109515761095161092a565b92915050565b5f60208284031215610967575f80fd5b81356001600160a01b038116811461097d575f80fd5b9392505050565b5f60208284031215610994575f80fd5b5035919050565b818103818111156109515761095161092a56fea264697066735822122060a724a0dd1a662e16a179d1e32b525d2ed9a863e1f07ba7bc617e8c86d1dfc064736f6c63430008140033","linkReferences":{}},"assembly":"    /* \"projects/01-reentrancy-vault/contracts/fixed/FixedVault.sol\":499:4359  contract FixedVault is IVault, ReentrancyGuard {... */\n  mstore(0x40, 0x80)\n  callvalue\n  dup1\n  iszero\n  tag_1\n  jumpi\n  0x00\n  dup1\n  revert\ntag_1:\n  pop\n    /* \"lib/openzeppelin-contracts/contracts/security/ReentrancyGuard.sol\":1716:1717  1 */\n  0x01\n    /* \"lib/openzeppelin-contracts/contracts/security/ReentrancyGuard.sol\":1821:1828  _status */\n  0x00\n    /* \"lib/openzeppelin-contracts/contracts/security/ReentrancyGuard.sol\":1821:1843  _status = _NOT_ENTERED */\n  sstore\n    /* \"projects/01-reentrancy-vault/contracts/fixed/FixedVault.sol\":499:4359  contract FixedVault is IVault, ReentrancyGuard {... */\n  dataSize(sub_0)\n  dup1\n  dataOffset(sub_0)\n  0x00\n  codecopy\n  0x00\n  return\nstop\n\nsub_0: assembly {\n        /* \"projects/01-reentrancy-vault/contracts/fixed/FixedVault.sol\":499:4359  contract FixedVault is IVault, ReentrancyGuard {... */\n      mstore(0x40, 0x80)\n      jumpi(tag_1, lt(calldatasize, 0x04))\n      shr(0xe0, calldataload(0x00))\n      dup1\n      0x2e1a7d4d\n      gt\n      tag_12\n      jumpi\n      dup1\n      0x2e1a7d4d\n      eq\n      tag_7\n      jumpi\n      dup1\n      0x6f9fb98a\n      eq\n      tag_8\n      jumpi\n      dup1\n      0xd0e30db0\n      eq\n      tag_9\n      jumpi\n      dup1\n      0xdb2e21bc\n      eq\n      tag_10\n      jumpi\n      dup1\n      0xf8b2cb4f\n      eq\n      tag_11\n      jumpi\n      0x00\n      dup1\n      revert\n    tag_12:\n      dup1\n      0x02191980\n      eq\n      tag_3\n      jumpi\n      dup1\n      0x13b085d9\n      eq\n      tag_4\n      jumpi\n      dup1\n      0x19b02120\n      eq\n      tag_5\n      jumpi\n      dup1\n      0x27e235e3\n      eq\n      tag_6\n      jumpi\n      0x00\n      dup1\n      revert\n    tag_1:\n      jumpi(tag_2, calldatasize)\n        /* \"projects/01-reentrancy-vault/contracts/fixed/FixedVault.sol\":3566:3567  0 */\n      0x00\n        /* \"projects/01-reentrancy-vault/contracts/fixed/FixedVault.sol\":3554:3563  msg.value */\n      callvalue\n        /* \"projects/01-reentrancy-vault/contracts/fixed/FixedVault.sol\":3554:3567  msg.value > 0 */\n      gt\n        /* \"projects/01-reentrancy-vault/contracts/fixed/FixedVault.sol\":3546:3585  require(msg.value > 0, \"Must send ETH\") */\n      tag_15\n      jumpi\n      mload(0x40)\n      shl(0xe5, 0x461bcd)\n      dup2\n      mstore\n        /* \"#utility.yul\":216:218   */\n      0x20\n        /* \"projects/01-reentrancy-vault/contracts/fixed/FixedVault.sol\":3546:3585  require(msg.value > 0, \"Must send ETH\") */\n      0x04\n      dup3\n      add\n        /* \"#utility.yul\":198:219   */\n      mstore\n        /* \"#utility.yul\":255:257   */\n      0x0d\n        /* \"#utility.yul\":235:253   */\n      0x24\n      dup3\n      add\n        /* \"#utility.yul\":228:258   */\n      mstore\n      shl(0x9b, 0x09aeae6e840e6cadcc8408aa89)\n        /* \"#utility.yul\":274:292   */\n      0x44\n      dup3\n      add\n        /* \"#utility.yul\":267:310   */\n      mstore\n        /* \"#utility.yul\":327:345   */\n      0x64\n      add\n        /* \"projects/01-reentrancy-vault/contracts/fixed/FixedVault.sol\":3546:3585  require(msg.value > 0, \"Must send ETH\") */\n    tag_16:\n      mload(0x40)\n      dup1\n      swap2\n      sub\n      swap1\n      revert\n    tag_15:\n        /* \"projects/01-reentrancy-vault/contracts/fixed/FixedVault.sol\":3617:3627  msg.sender */\n      caller\n        /* \"projects/01-reentrancy-vault/contracts/fixed/FixedVault.sol\":3604:3628  isDepositing[msg.sender] */\n      0x00\n      swap1\n      dup2\n      mstore\n        /* \"projects/01-reentrancy-vault/contracts/fixed/FixedVault.sol\":3604:3616  isDepositing */\n      0x02\n        /* \"projects/01-reentrancy-vault/contracts/fixed/FixedVault.sol\":3604:3628  isDepositing[msg.sender] */\n      0x20\n      mstore\n      0x40\n      swap1\n      keccak256\n      sload\n      0xff\n      and\n        /* \"projects/01-reentrancy-vault/contracts/fixed/FixedVault.sol\":3603:3628  !isDepositing[msg.sender] */\n      iszero\n        /* \"projects/01-reentrancy-vault/contracts/fixed/FixedVault.sol\":3595:3662  require(!isDepositing[msg.sender], \"Cannot receive during deposit\") */\n      tag_18\n      jumpi\n      mload(0x40)\n      shl(0xe5, 0x461bcd)\n      dup2\n      mstore\n        /* \"#utility.yul\":558:560   */\n      0x20\n        /* \"projects/01-reentrancy-vault/contracts/fixed/FixedVault.sol\":3595:3662  require(!isDepositing[msg.sender], \"Cannot receive during deposit\") */\n      0x04\n      dup3\n      add\n        /* \"#utility.yul\":540:561   */\n      mstore\n        /* \"#utility.yul\":597:599   */\n      0x1d\n        /* \"#utility.yul\":577:595   */\n      0x24\n      dup3\n      add\n        /* \"#utility.yul\":570:600   */\n      mstore\n        /* \"#utility.yul\":636:667   */\n      0x43616e6e6f74207265636569766520647572696e67206465706f736974000000\n        /* \"#utility.yul\":616:634   */\n      0x44\n      dup3\n      add\n        /* \"#utility.yul\":609:668   */\n      mstore\n        /* \"#utility.yul\":685:703   */\n      0x64\n      add\n        /* \"projects/01-reentrancy-vault/contracts/fixed/FixedVault.sol\":3595:3662  require(!isDepositing[msg.sender], \"Cannot receive during deposit\") */\n      tag_16\n        /* \"#utility.yul\":356:709   */\n      jump\n        /* \"projects/01-reentrancy-vault/contracts/fixed/FixedVault.sol\":3595:3662  require(!isDepositing[msg.sender], \"Cannot receive during deposit\") */\n    tag_18:\n        /* \"projects/01-reentrancy-vault/contracts/fixed/FixedVault.sol\":3690:3700  msg.sender */\n      caller\n        /* \"projects/01-reentrancy-vault/contracts/fixed/FixedVault.sol\":3681:3701  balances[msg.sender] */\n      0x00\n      swap1\n      dup2\n      mstore\n        /* \"projects/01-reentrancy-vault/contracts/fixed/FixedVault.sol\":3681:3689  balances */\n      0x01\n        /* \"projects/01-reentrancy-vault/contracts/fixed/FixedVault.sol\":3681:3701  balances[msg.sender] */\n      0x20\n      mstore\n      0x40\n      dup2\n      keccak256\n        /* \"projects/01-reentrancy-vault/contracts/fixed/FixedVault.sol\":3681:3714  balances[msg.sender] += msg.value */\n      dup1\n      sload\n        /* \"projects/01-reentrancy-vault/contracts/fixed/FixedVault.sol\":3705:3714  msg.value */\n      callvalue\n      swap3\n        /* \"projects/01-reentrancy-vault/contracts/fixed/FixedVault.sol\":3681:3701  balances[msg.sender] */\n      swap1\n        /* \"projects/01-reentrancy-vault/contracts/fixed/FixedVault.sol\":3681:3714  balances[msg.sender] += msg.value */\n      tag_21\n      swap1\n        /* \"projects/01-reentrancy-vault/contracts/fixed/FixedVault.sol\":3705:3714  msg.value */\n      dup5\n      swap1\n        /* \"projects/01-reentrancy-vault/contracts/fixed/FixedVault.sol\":3681:3714  balances[msg.sender] += msg.value */\n      tag_22\n      jump\t// in\n    tag_21:\n      swap1\n      swap2\n      sstore\n      pop\n      pop\n        /* \"projects/01-reentrancy-vault/contracts/fixed/FixedVault.sol\":3729:3759  Deposit(msg.sender, msg.value) */\n      mload(0x40)\n        /* \"projects/01-reentrancy-vault/contracts/fixed/FixedVault.sol\":3749:3758  msg.value */\n      callvalue\n        /* \"#utility.yul\":1122:1147   */\n      dup2\n      mstore\n        /* \"projects/01-reentrancy-vault/contracts/fixed/FixedVault.sol\":3737:3747  msg.sender */\n      caller\n      swap1\n        /* \"projects/01-reentrancy-vault/contracts/fixed/FixedVault.sol\":3729:3759  Deposit(msg.sender, msg.value) */\n      0xe1fffcc4923d04b559f4d29a8bfc6cda04eb5b0d3c460751c2402c5c5cc9109c\n      swap1\n        /* \"#utility.yul\":1110:1112   */\n      0x20\n        /* \"#utility.yul\":1095:1113   */\n      add\n        /* \"projects/01-reentrancy-vault/contracts/fixed/FixedVault.sol\":3729:3759  Deposit(msg.sender, msg.value) */\n      mload(0x40)\n      dup1\n      swap2\n      sub\n      swap1\n      log2\n        /* \"projects/01-reentrancy-vault/contracts/fixed/FixedVault.sol\":499:4359  contract FixedVault is IVault, ReentrancyGuard {... */\n      stop\n    tag_2:\n      0x00\n      dup1\n      revert\n        /* \"projects/01-reentrancy-vault/contracts/fixed/FixedVault.sol\":4100:4237  function pauseDeposits() external {... */\n    tag_3:\n      callvalue\n      dup1\n      iszero\n      tag_25\n      jumpi\n      0x00\n      dup1\n      revert\n    tag_25:\n      pop\n    tag_26:\n      stop\n        /* \"projects/01-reentrancy-vault/contracts/fixed/FixedVault.sol\":4247:4357  function getDepositState(address user) external view returns (bool) {... */\n    tag_4:\n      callvalue\n      dup1\n      iszero\n      tag_28\n      jumpi\n      0x00\n      dup1\n      revert\n    tag_28:\n      pop\n      tag_29\n      tag_30\n      calldatasize\n      0x04\n      tag_31\n      jump\t// in\n    tag_30:\n      sub(shl(0xa0, 0x01), 0x01)\n        /* \"projects/01-reentrancy-vault/contracts/fixed/FixedVault.sol\":4332:4350  isDepositing[user] */\n      and\n        /* \"projects/01-reentrancy-vault/contracts/fixed/FixedVault.sol\":4309:4313  bool */\n      0x00\n        /* \"projects/01-reentrancy-vault/contracts/fixed/FixedVault.sol\":4332:4350  isDepositing[user] */\n      swap1\n      dup2\n      mstore\n        /* \"projects/01-reentrancy-vault/contracts/fixed/FixedVault.sol\":4332:4344  isDepositing */\n      0x02\n        /* \"projects/01-reentrancy-vault/contracts/fixed/FixedVault.sol\":4332:4350  isDepositing[user] */\n      0x20\n      mstore\n      0x40\n      swap1\n      keccak256\n      sload\n      0xff\n      and\n      swap1\n        /* \"projects/01-reentrancy-vault/contracts/fixed/FixedVault.sol\":4247:4357  function getDepositState(address user) external view returns (bool) {... */\n      jump\n    tag_29:\n      mload(0x40)\n        /* \"#utility.yul\":1614:1628   */\n      swap1\n      iszero\n        /* \"#utility.yul\":1607:1629   */\n      iszero\n        /* \"#utility.yul\":1589:1630   */\n      dup2\n      mstore\n        /* \"#utility.yul\":1577:1579   */\n      0x20\n        /* \"#utility.yul\":1562:1580   */\n      add\n        /* \"projects/01-reentrancy-vault/contracts/fixed/FixedVault.sol\":4247:4357  function getDepositState(address user) external view returns (bool) {... */\n    tag_33:\n      mload(0x40)\n      dup1\n      swap2\n      sub\n      swap1\n      return\n        /* \"projects/01-reentrancy-vault/contracts/fixed/FixedVault.sol\":610:663  mapping(address => bool) public override isDepositing */\n    tag_5:\n      callvalue\n      dup1\n      iszero\n      tag_35\n      jumpi\n      0x00\n      dup1\n      revert\n    tag_35:\n      pop\n      tag_29\n      tag_37\n      calldatasize\n      0x04\n      tag_31\n      jump\t// in\n    tag_37:\n      mstore(0x20, 0x02)\n      0x00\n      swap1\n      dup2\n      mstore\n      0x40\n      swap1\n      keccak256\n      sload\n      0xff\n      and\n      dup2\n      jump\n        /* \"projects/01-reentrancy-vault/contracts/fixed/FixedVault.sol\":552:604  mapping(address => uint256) public override balances */\n    tag_6:\n      callvalue\n      dup1\n      iszero\n      tag_40\n      jumpi\n      0x00\n      dup1\n      revert\n    tag_40:\n      pop\n      tag_41\n      tag_42\n      calldatasize\n      0x04\n      tag_31\n      jump\t// in\n    tag_42:\n      mstore(0x20, 0x01)\n      0x00\n      swap1\n      dup2\n      mstore\n      0x40\n      swap1\n      keccak256\n      sload\n      dup2\n      jump\n    tag_41:\n      mload(0x40)\n        /* \"#utility.yul\":1122:1147   */\n      swap1\n      dup2\n      mstore\n        /* \"#utility.yul\":1110:1112   */\n      0x20\n        /* \"#utility.yul\":1095:1113   */\n      add\n        /* \"projects/01-reentrancy-vault/contracts/fixed/FixedVault.sol\":552:604  mapping(address => uint256) public override balances */\n      tag_33\n        /* \"#utility.yul\":976:1153   */\n      jump\n        /* \"projects/01-reentrancy-vault/contracts/fixed/FixedVault.sol\":813:1487  function withdraw(uint256 amount) external override nonReentrant {... */\n    tag_7:\n      callvalue\n      dup1\n      iszero\n      tag_45\n      jumpi\n      0x00\n      dup1\n      revert\n    tag_45:\n      pop\n      tag_26\n      tag_47\n      calldatasize\n      0x04\n      tag_48\n      jump\t// in\n    tag_47:\n      tag_49\n      jump\t// in\n        /* \"projects/01-reentrancy-vault/contracts/fixed/FixedVault.sol\":3814:3930  function getContractBalance() external view override returns (uint256) {... */\n    tag_8:\n      callvalue\n      dup1\n      iszero\n      tag_50\n      jumpi\n      0x00\n      dup1\n      revert\n    tag_50:\n      pop\n        /* \"projects/01-reentrancy-vault/contracts/fixed/FixedVault.sol\":3902:3923  address(this).balance */\n      selfbalance\n        /* \"projects/01-reentrancy-vault/contracts/fixed/FixedVault.sol\":3814:3930  function getContractBalance() external view override returns (uint256) {... */\n      jump(tag_41)\n        /* \"projects/01-reentrancy-vault/contracts/fixed/FixedVault.sol\":1552:2646  function deposit() external payable override nonReentrant {... */\n    tag_9:\n      tag_26\n      tag_55\n      jump\t// in\n        /* \"projects/01-reentrancy-vault/contracts/fixed/FixedVault.sol\":2716:3432  function emergencyWithdraw() external override nonReentrant {... */\n    tag_10:\n      callvalue\n      dup1\n      iszero\n      tag_56\n      jumpi\n      0x00\n      dup1\n      revert\n    tag_56:\n      pop\n      tag_26\n      tag_58\n      jump\t// in\n        /* \"projects/01-reentrancy-vault/contracts/fixed/FixedVault.sol\":3940:4053  function getBalance(address user) external view override returns (uint256) {... */\n    tag_11:\n      callvalue\n      dup1\n      iszero\n      tag_59\n      jumpi\n      0x00\n      dup1\n      revert\n    tag_59:\n      pop\n      tag_41\n      tag_61\n      calldatasize\n      0x04\n      tag_31\n      jump\t// in\n    tag_61:\n      sub(shl(0xa0, 0x01), 0x01)\n        /* \"projects/01-reentrancy-vault/contracts/fixed/FixedVault.sol\":4032:4046  balances[user] */\n      and\n        /* \"projects/01-reentrancy-vault/contracts/fixed/FixedVault.sol\":4006:4013  uint256 */\n      0x00\n        /* \"projects/01-reentrancy-vault/contracts/fixed/FixedVault.sol\":4032:4046  balances[user] */\n      swap1\n      dup2\n      mstore\n        /* \"projects/01-reentrancy-vault/contracts/fixed/FixedVault.sol\":4032:4040  balances */\n      0x01\n        /* \"projects/01-reentrancy-vault/contracts/fixed/FixedVault.sol\":4032:4046  balances[user] */\n      0x20\n      mstore\n      0x40\n      swap1\n      keccak256\n      sload\n      swap1\n        /* \"projects/01-reentrancy-vault/contracts/fixed/FixedVault.sol\":3940:4053  function getBalance(address user) external view override returns (uint256) {... */\n      jump\n        /* \"projects/01-reentrancy-vault/contracts/fixed/FixedVault.sol\":4100:4237  function pauseDeposits() external {... */\n    tag_27:\n      jump\t// out\n        /* \"projects/01-reentrancy-vault/contracts/fixed/FixedVault.sol\":813:1487  function withdraw(uint256 amount) external override nonReentrant {... */\n    tag_49:\n        /* \"lib/openzeppelin-contracts/contracts/security/ReentrancyGuard.sol\":2261:2282  _nonReentrantBefore() */\n      tag_67\n        /* \"lib/openzeppelin-contracts/contracts/security/ReentrancyGuard.sol\":2261:2280  _nonReentrantBefore */\n      tag_68\n        /* \"lib/openzeppelin-contracts/contracts/security/ReentrancyGuard.sol\":2261:2282  _nonReentrantBefore() */\n      jump\t// in\n    tag_67:\n        /* \"projects/01-reentrancy-vault/contracts/fixed/FixedVault.sol\":905:915  msg.sender */\n      caller\n        /* \"projects/01-reentrancy-vault/contracts/fixed/FixedVault.sol\":896:916  balances[msg.sender] */\n      0x00\n      swap1\n      dup2\n      mstore\n        /* \"projects/01-reentrancy-vault/contracts/fixed/FixedVault.sol\":896:904  balances */\n      0x01\n        /* \"projects/01-reentrancy-vault/contracts/fixed/FixedVault.sol\":896:916  balances[msg.sender] */\n      0x20\n      mstore\n      0x40\n      swap1\n      keccak256\n      sload\n        /* \"projects/01-reentrancy-vault/contracts/fixed/FixedVault.sol\":896:926  balances[msg.sender] >= amount */\n      dup2\n      gt\n      iszero\n        /* \"projects/01-reentrancy-vault/contracts/fixed/FixedVault.sol\":888:951  require(balances[msg.sender] >= amount, \"Insufficient balance\") */\n      tag_70\n      jumpi\n      mload(0x40)\n      shl(0xe5, 0x461bcd)\n      dup2\n      mstore\n        /* \"#utility.yul\":2028:2030   */\n      0x20\n        /* \"projects/01-reentrancy-vault/contracts/fixed/FixedVault.sol\":888:951  require(balances[msg.sender] >= amount, \"Insufficient balance\") */\n      0x04\n      dup3\n      add\n        /* \"#utility.yul\":2010:2031   */\n      mstore\n        /* \"#utility.yul\":2067:2069   */\n      0x14\n        /* \"#utility.yul\":2047:2065   */\n      0x24\n      dup3\n      add\n        /* \"#utility.yul\":2040:2070   */\n      mstore\n      shl(0x60, 0x496e73756666696369656e742062616c616e6365)\n        /* \"#utility.yul\":2086:2104   */\n      0x44\n      dup3\n      add\n        /* \"#utility.yul\":2079:2129   */\n      mstore\n        /* \"#utility.yul\":2146:2164   */\n      0x64\n      add\n        /* \"projects/01-reentrancy-vault/contracts/fixed/FixedVault.sol\":888:951  require(balances[msg.sender] >= amount, \"Insufficient balance\") */\n      tag_16\n        /* \"#utility.yul\":1826:2170   */\n      jump\n        /* \"projects/01-reentrancy-vault/contracts/fixed/FixedVault.sol\":888:951  require(balances[msg.sender] >= amount, \"Insufficient balance\") */\n    tag_70:\n        /* \"projects/01-reentrancy-vault/contracts/fixed/FixedVault.sol\":978:979  0 */\n      0x00\n        /* \"projects/01-reentrancy-vault/contracts/fixed/FixedVault.sol\":969:975  amount */\n      dup2\n        /* \"projects/01-reentrancy-vault/contracts/fixed/FixedVault.sol\":969:979  amount > 0 */\n      gt\n        /* \"projects/01-reentrancy-vault/contracts/fixed/FixedVault.sol\":961:1013  require(amount > 0, \"Amount must be greater than 0\") */\n      tag_73\n      jumpi\n      mload(0x40)\n      shl(0xe5, 0x461bcd)\n      dup2\n      mstore\n        /* \"#utility.yul\":2377:2379   */\n      0x20\n        /* \"projects/01-reentrancy-vault/contracts/fixed/FixedVault.sol\":961:1013  require(amount > 0, \"Amount must be greater than 0\") */\n      0x04\n      dup3\n      add\n        /* \"#utility.yul\":2359:2380   */\n      mstore\n        /* \"#utility.yul\":2416:2418   */\n      0x1d\n        /* \"#utility.yul\":2396:2414   */\n      0x24\n      dup3\n      add\n        /* \"#utility.yul\":2389:2419   */\n      mstore\n        /* \"#utility.yul\":2455:2486   */\n      0x416d6f756e74206d7573742062652067726561746572207468616e2030000000\n        /* \"#utility.yul\":2435:2453   */\n      0x44\n      dup3\n      add\n        /* \"#utility.yul\":2428:2487   */\n      mstore\n        /* \"#utility.yul\":2504:2522   */\n      0x64\n      add\n        /* \"projects/01-reentrancy-vault/contracts/fixed/FixedVault.sol\":961:1013  require(amount > 0, \"Amount must be greater than 0\") */\n      tag_16\n        /* \"#utility.yul\":2175:2528   */\n      jump\n        /* \"projects/01-reentrancy-vault/contracts/fixed/FixedVault.sol\":961:1013  require(amount > 0, \"Amount must be greater than 0\") */\n    tag_73:\n        /* \"projects/01-reentrancy-vault/contracts/fixed/FixedVault.sol\":1102:1108  amount */\n      dup1\n        /* \"projects/01-reentrancy-vault/contracts/fixed/FixedVault.sol\":1077:1098  address(this).balance */\n      selfbalance\n        /* \"projects/01-reentrancy-vault/contracts/fixed/FixedVault.sol\":1077:1108  address(this).balance >= amount */\n      lt\n      iszero\n        /* \"projects/01-reentrancy-vault/contracts/fixed/FixedVault.sol\":1069:1142  require(address(this).balance >= amount, \"Insufficient contract balance\") */\n      tag_76\n      jumpi\n      mload(0x40)\n      shl(0xe5, 0x461bcd)\n      dup2\n      mstore\n        /* \"#utility.yul\":2735:2737   */\n      0x20\n        /* \"projects/01-reentrancy-vault/contracts/fixed/FixedVault.sol\":1069:1142  require(address(this).balance >= amount, \"Insufficient contract balance\") */\n      0x04\n      dup3\n      add\n        /* \"#utility.yul\":2717:2738   */\n      mstore\n        /* \"#utility.yul\":2774:2776   */\n      0x1d\n        /* \"#utility.yul\":2754:2772   */\n      0x24\n      dup3\n      add\n        /* \"#utility.yul\":2747:2777   */\n      mstore\n        /* \"#utility.yul\":2813:2844   */\n      0x496e73756666696369656e7420636f6e74726163742062616c616e6365000000\n        /* \"#utility.yul\":2793:2811   */\n      0x44\n      dup3\n      add\n        /* \"#utility.yul\":2786:2845   */\n      mstore\n        /* \"#utility.yul\":2862:2880   */\n      0x64\n      add\n        /* \"projects/01-reentrancy-vault/contracts/fixed/FixedVault.sol\":1069:1142  require(address(this).balance >= amount, \"Insufficient contract balance\") */\n      tag_16\n        /* \"#utility.yul\":2533:2886   */\n      jump\n        /* \"projects/01-reentrancy-vault/contracts/fixed/FixedVault.sol\":1069:1142  require(address(this).balance >= amount, \"Insufficient contract balance\") */\n    tag_76:\n        /* \"projects/01-reentrancy-vault/contracts/fixed/FixedVault.sol\":1228:1238  msg.sender */\n      caller\n        /* \"projects/01-reentrancy-vault/contracts/fixed/FixedVault.sol\":1219:1239  balances[msg.sender] */\n      0x00\n      swap1\n      dup2\n      mstore\n        /* \"projects/01-reentrancy-vault/contracts/fixed/FixedVault.sol\":1219:1227  balances */\n      0x01\n        /* \"projects/01-reentrancy-vault/contracts/fixed/FixedVault.sol\":1219:1239  balances[msg.sender] */\n      0x20\n      mstore\n      0x40\n      dup2\n      keccak256\n        /* \"projects/01-reentrancy-vault/contracts/fixed/FixedVault.sol\":1219:1249  balances[msg.sender] -= amount */\n      dup1\n      sload\n        /* \"projects/01-reentrancy-vault/contracts/fixed/FixedVault.sol\":1243:1249  amount */\n      dup4\n      swap3\n        /* \"projects/01-reentrancy-vault/contracts/fixed/FixedVault.sol\":1219:1239  balances[msg.sender] */\n      swap1\n        /* \"projects/01-reentrancy-vault/contracts/fixed/FixedVault.sol\":1219:1249  balances[msg.sender] -= amount */\n      tag_79\n      swap1\n        /* \"projects/01-reentrancy-vault/contracts/fixed/FixedVault.sol\":1243:1249  amount */\n      dup5\n      swap1\n        /* \"projects/01-reentrancy-vault/contracts/fixed/FixedVault.sol\":1219:1249  balances[msg.sender] -= amount */\n      tag_80\n      jump\t// in\n    tag_79:\n      swap1\n      swap2\n      sstore\n      pop\n      pop\n        /* \"projects/01-reentrancy-vault/contracts/fixed/FixedVault.sol\":1349:1383  msg.sender.call{value: amount}(\"\") */\n      mload(0x40)\n        /* \"projects/01-reentrancy-vault/contracts/fixed/FixedVault.sol\":1331:1343  bool success */\n      0x00\n      swap1\n        /* \"projects/01-reentrancy-vault/contracts/fixed/FixedVault.sol\":1349:1359  msg.sender */\n      caller\n      swap1\n        /* \"projects/01-reentrancy-vault/contracts/fixed/FixedVault.sol\":1372:1378  amount */\n      dup4\n      swap1\n        /* \"projects/01-reentrancy-vault/contracts/fixed/FixedVault.sol\":1331:1343  bool success */\n      dup4\n        /* \"projects/01-reentrancy-vault/contracts/fixed/FixedVault.sol\":1349:1383  msg.sender.call{value: amount}(\"\") */\n      dup2\n        /* \"projects/01-reentrancy-vault/contracts/fixed/FixedVault.sol\":1331:1343  bool success */\n      dup2\n        /* \"projects/01-reentrancy-vault/contracts/fixed/FixedVault.sol\":1349:1383  msg.sender.call{value: amount}(\"\") */\n      dup2\n        /* \"projects/01-reentrancy-vault/contracts/fixed/FixedVault.sol\":1372:1378  amount */\n      dup6\n        /* \"projects/01-reentrancy-vault/contracts/fixed/FixedVault.sol\":1349:1359  msg.sender */\n      dup8\n        /* \"projects/01-reentrancy-vault/contracts/fixed/FixedVault.sol\":1349:1383  msg.sender.call{value: amount}(\"\") */\n      gas\n      call\n      swap3\n      pop\n      pop\n      pop\n      returndatasize\n      dup1\n      0x00\n      dup2\n      eq\n      tag_85\n      jumpi\n      mload(0x40)\n      swap2\n      pop\n      and(add(returndatasize, 0x3f), not(0x1f))\n      dup3\n      add\n      0x40\n      mstore\n      returndatasize\n      dup3\n      mstore\n      returndatasize\n      0x00\n      0x20\n      dup5\n      add\n      returndatacopy\n      jump(tag_84)\n    tag_85:\n      0x60\n      swap2\n      pop\n    tag_84:\n      pop\n        /* \"projects/01-reentrancy-vault/contracts/fixed/FixedVault.sol\":1330:1383  (bool success, ) = msg.sender.call{value: amount}(\"\") */\n      pop\n      swap1\n      pop\n        /* \"projects/01-reentrancy-vault/contracts/fixed/FixedVault.sol\":1401:1408  success */\n      dup1\n        /* \"projects/01-reentrancy-vault/contracts/fixed/FixedVault.sol\":1393:1428  require(success, \"Transfer failed\") */\n      tag_86\n      jumpi\n      mload(0x40)\n      shl(0xe5, 0x461bcd)\n      dup2\n      mstore\n        /* \"#utility.yul\":3436:3438   */\n      0x20\n        /* \"projects/01-reentrancy-vault/contracts/fixed/FixedVault.sol\":1393:1428  require(success, \"Transfer failed\") */\n      0x04\n      dup3\n      add\n        /* \"#utility.yul\":3418:3439   */\n      mstore\n        /* \"#utility.yul\":3475:3477   */\n      0x0f\n        /* \"#utility.yul\":3455:3473   */\n      0x24\n      dup3\n      add\n        /* \"#utility.yul\":3448:3478   */\n      mstore\n      shl(0x8a, 0x151c985b9cd9995c8819985a5b1959)\n        /* \"#utility.yul\":3494:3512   */\n      0x44\n      dup3\n      add\n        /* \"#utility.yul\":3487:3532   */\n      mstore\n        /* \"#utility.yul\":3549:3567   */\n      0x64\n      add\n        /* \"projects/01-reentrancy-vault/contracts/fixed/FixedVault.sol\":1393:1428  require(success, \"Transfer failed\") */\n      tag_16\n        /* \"#utility.yul\":3234:3573   */\n      jump\n        /* \"projects/01-reentrancy-vault/contracts/fixed/FixedVault.sol\":1393:1428  require(success, \"Transfer failed\") */\n    tag_86:\n        /* \"projects/01-reentrancy-vault/contracts/fixed/FixedVault.sol\":1452:1480  Withdraw(msg.sender, amount) */\n      mload(0x40)\n        /* \"#utility.yul\":1122:1147   */\n      dup3\n      dup2\n      mstore\n        /* \"projects/01-reentrancy-vault/contracts/fixed/FixedVault.sol\":1461:1471  msg.sender */\n      caller\n      swap1\n        /* \"projects/01-reentrancy-vault/contracts/fixed/FixedVault.sol\":1452:1480  Withdraw(msg.sender, amount) */\n      0x884edad9ce6fa2440d8a54cc123490eb96d2768479d49ff9c7366125a9424364\n      swap1\n        /* \"#utility.yul\":1110:1112   */\n      0x20\n        /* \"#utility.yul\":1095:1113   */\n      add\n        /* \"projects/01-reentrancy-vault/contracts/fixed/FixedVault.sol\":1452:1480  Withdraw(msg.sender, amount) */\n      mload(0x40)\n      dup1\n      swap2\n      sub\n      swap1\n      log2\n        /* \"projects/01-reentrancy-vault/contracts/fixed/FixedVault.sol\":878:1487  {... */\n      pop\n        /* \"lib/openzeppelin-contracts/contracts/security/ReentrancyGuard.sol\":2303:2323  _nonReentrantAfter() */\n      tag_90\n        /* \"lib/openzeppelin-contracts/contracts/security/ReentrancyGuard.sol\":1716:1717  1 */\n      0x01\n        /* \"lib/openzeppelin-contracts/contracts/security/ReentrancyGuard.sol\":2809:2816  _status */\n      0x00\n        /* \"lib/openzeppelin-contracts/contracts/security/ReentrancyGuard.sol\":2809:2831  _status = _NOT_ENTERED */\n      sstore\n        /* \"lib/openzeppelin-contracts/contracts/security/ReentrancyGuard.sol\":2629:2838  function _nonReentrantAfter() private {... */\n      jump\n        /* \"lib/openzeppelin-contracts/contracts/security/ReentrancyGuard.sol\":2303:2323  _nonReentrantAfter() */\n    tag_90:\n        /* \"projects/01-reentrancy-vault/contracts/fixed/FixedVault.sol\":813:1487  function withdraw(uint256 amount) external override nonReentrant {... */\n      pop\n      jump\t// out\n        /* \"projects/01-reentrancy-vault/contracts/fixed/FixedVault.sol\":1552:2646  function deposit() external payable override nonReentrant {... */\n    tag_55:\n        /* \"lib/openzeppelin-contracts/contracts/security/ReentrancyGuard.sol\":2261:2282  _nonReentrantBefore() */\n      tag_94\n        /* \"lib/openzeppelin-contracts/contracts/security/ReentrancyGuard.sol\":2261:2280  _nonReentrantBefore */\n      tag_68\n        /* \"lib/openzeppelin-contracts/contracts/security/ReentrancyGuard.sol\":2261:2282  _nonReentrantBefore() */\n      jump\t// in\n    tag_94:\n        /* \"projects/01-reentrancy-vault/contracts/fixed/FixedVault.sol\":1640:1641  0 */\n      0x00\n        /* \"projects/01-reentrancy-vault/contracts/fixed/FixedVault.sol\":1628:1637  msg.value */\n      callvalue\n        /* \"projects/01-reentrancy-vault/contracts/fixed/FixedVault.sol\":1628:1641  msg.value > 0 */\n      gt\n        /* \"projects/01-reentrancy-vault/contracts/fixed/FixedVault.sol\":1620:1659  require(msg.value > 0, \"Must send ETH\") */\n      tag_96\n      jumpi\n      mload(0x40)\n      shl(0xe5, 0x461bcd)\n      dup2\n      mstore\n        /* \"#utility.yul\":216:218   */\n      0x20\n        /* \"projects/01-reentrancy-vault/contracts/fixed/FixedVault.sol\":1620:1659  require(msg.value > 0, \"Must send ETH\") */\n      0x04\n      dup3\n      add\n        /* \"#utility.yul\":198:219   */\n      mstore\n        /* \"#utility.yul\":255:257   */\n      0x0d\n        /* \"#utility.yul\":235:253   */\n      0x24\n      dup3\n      add\n        /* \"#utility.yul\":228:258   */\n      mstore\n      shl(0x9b, 0x09aeae6e840e6cadcc8408aa89)\n        /* \"#utility.yul\":274:292   */\n      0x44\n      dup3\n      add\n        /* \"#utility.yul\":267:310   */\n      mstore\n        /* \"#utility.yul\":327:345   */\n      0x64\n      add\n        /* \"projects/01-reentrancy-vault/contracts/fixed/FixedVault.sol\":1620:1659  require(msg.value > 0, \"Must send ETH\") */\n      tag_16\n        /* \"#utility.yul\":14:351   */\n      jump\n        /* \"projects/01-reentrancy-vault/contracts/fixed/FixedVault.sol\":1620:1659  require(msg.value > 0, \"Must send ETH\") */\n    tag_96:\n        /* \"projects/01-reentrancy-vault/contracts/fixed/FixedVault.sol\":1737:1747  msg.sender */\n      caller\n        /* \"projects/01-reentrancy-vault/contracts/fixed/FixedVault.sol\":1724:1748  isDepositing[msg.sender] */\n      0x00\n      swap1\n      dup2\n      mstore\n        /* \"projects/01-reentrancy-vault/contracts/fixed/FixedVault.sol\":1724:1736  isDepositing */\n      0x02\n        /* \"projects/01-reentrancy-vault/contracts/fixed/FixedVault.sol\":1724:1748  isDepositing[msg.sender] */\n      0x20\n      mstore\n      0x40\n      swap1\n      keccak256\n      sload\n      0xff\n      and\n        /* \"projects/01-reentrancy-vault/contracts/fixed/FixedVault.sol\":1723:1748  !isDepositing[msg.sender] */\n      iszero\n        /* \"projects/01-reentrancy-vault/contracts/fixed/FixedVault.sol\":1715:1771  require(!isDepositing[msg.sender], \"Already depositing\") */\n      tag_98\n      jumpi\n      mload(0x40)\n      shl(0xe5, 0x461bcd)\n      dup2\n      mstore\n        /* \"#utility.yul\":3780:3782   */\n      0x20\n        /* \"projects/01-reentrancy-vault/contracts/fixed/FixedVault.sol\":1715:1771  require(!isDepositing[msg.sender], \"Already depositing\") */\n      0x04\n      dup3\n      add\n        /* \"#utility.yul\":3762:3783   */\n      mstore\n        /* \"#utility.yul\":3819:3821   */\n      0x12\n        /* \"#utility.yul\":3799:3817   */\n      0x24\n      dup3\n      add\n        /* \"#utility.yul\":3792:3822   */\n      mstore\n      shl(0x70, 0x416c7265616479206465706f736974696e67)\n        /* \"#utility.yul\":3838:3856   */\n      0x44\n      dup3\n      add\n        /* \"#utility.yul\":3831:3879   */\n      mstore\n        /* \"#utility.yul\":3896:3914   */\n      0x64\n      add\n        /* \"projects/01-reentrancy-vault/contracts/fixed/FixedVault.sol\":1715:1771  require(!isDepositing[msg.sender], \"Already depositing\") */\n      tag_16\n        /* \"#utility.yul\":3578:3920   */\n      jump\n        /* \"projects/01-reentrancy-vault/contracts/fixed/FixedVault.sol\":1715:1771  require(!isDepositing[msg.sender], \"Already depositing\") */\n    tag_98:\n        /* \"projects/01-reentrancy-vault/contracts/fixed/FixedVault.sol\":1836:1846  msg.sender */\n      caller\n        /* \"projects/01-reentrancy-vault/contracts/fixed/FixedVault.sol\":1827:1847  balances[msg.sender] */\n      0x00\n      swap1\n      dup2\n      mstore\n        /* \"projects/01-reentrancy-vault/contracts/fixed/FixedVault.sol\":1827:1835  balances */\n      0x01\n        /* \"projects/01-reentrancy-vault/contracts/fixed/FixedVault.sol\":1827:1847  balances[msg.sender] */\n      0x20\n      mstore\n      0x40\n      dup2\n      keccak256\n        /* \"projects/01-reentrancy-vault/contracts/fixed/FixedVault.sol\":1827:1860  balances[msg.sender] += msg.value */\n      dup1\n      sload\n        /* \"projects/01-reentrancy-vault/contracts/fixed/FixedVault.sol\":1851:1860  msg.value */\n      callvalue\n      swap3\n        /* \"projects/01-reentrancy-vault/contracts/fixed/FixedVault.sol\":1827:1847  balances[msg.sender] */\n      swap1\n        /* \"projects/01-reentrancy-vault/contracts/fixed/FixedVault.sol\":1827:1860  balances[msg.sender] += msg.value */\n      tag_101\n      swap1\n        /* \"projects/01-reentrancy-vault/contracts/fixed/FixedVault.sol\":1851:1860  msg.value */\n      dup5\n      swap1\n        /* \"projects/01-reentrancy-vault/contracts/fixed/FixedVault.sol\":1827:1860  balances[msg.sender] += msg.value */\n      tag_22\n      jump\t// in\n    tag_101:\n      swap1\n      swap2\n      sstore\n      pop\n      pop\n        /* \"projects/01-reentrancy-vault/contracts/fixed/FixedVault.sol\":1883:1893  msg.sender */\n      caller\n        /* \"projects/01-reentrancy-vault/contracts/fixed/FixedVault.sol\":1870:1894  isDepositing[msg.sender] */\n      0x00\n      swap1\n      dup2\n      mstore\n        /* \"projects/01-reentrancy-vault/contracts/fixed/FixedVault.sol\":1870:1882  isDepositing */\n      0x02\n        /* \"projects/01-reentrancy-vault/contracts/fixed/FixedVault.sol\":1870:1894  isDepositing[msg.sender] */\n      0x20\n      mstore\n      0x40\n      swap1\n      keccak256\n        /* \"projects/01-reentrancy-vault/contracts/fixed/FixedVault.sol\":1870:1901  isDepositing[msg.sender] = true */\n      dup1\n      sload\n      not(0xff)\n      and\n        /* \"projects/01-reentrancy-vault/contracts/fixed/FixedVault.sol\":1897:1901  true */\n      0x01\n        /* \"projects/01-reentrancy-vault/contracts/fixed/FixedVault.sol\":1870:1901  isDepositing[msg.sender] = true */\n      or\n      swap1\n      sstore\n        /* \"projects/01-reentrancy-vault/contracts/fixed/FixedVault.sol\":2003:2010  1 ether */\n      0x0de0b6b3a7640000\n        /* \"projects/01-reentrancy-vault/contracts/fixed/FixedVault.sol\":1990:1999  msg.value */\n      callvalue\n        /* \"projects/01-reentrancy-vault/contracts/fixed/FixedVault.sol\":1990:2010  msg.value >= 1 ether */\n      lt\n        /* \"projects/01-reentrancy-vault/contracts/fixed/FixedVault.sol\":1986:2544  if (msg.value >= 1 ether) {... */\n      tag_102\n      jumpi\n        /* \"projects/01-reentrancy-vault/contracts/fixed/FixedVault.sol\":2098:2107  0.1 ether */\n      0x016345785d8a0000\n        /* \"projects/01-reentrancy-vault/contracts/fixed/FixedVault.sol\":2129:2150  address(this).balance */\n      selfbalance\n        /* \"projects/01-reentrancy-vault/contracts/fixed/FixedVault.sol\":2129:2159  address(this).balance >= bonus */\n      dup2\n      gt\n      iszero\n        /* \"projects/01-reentrancy-vault/contracts/fixed/FixedVault.sol\":2121:2188  require(address(this).balance >= bonus, \"Insufficient bonus funds\") */\n      tag_103\n      jumpi\n      mload(0x40)\n      shl(0xe5, 0x461bcd)\n      dup2\n      mstore\n        /* \"#utility.yul\":4127:4129   */\n      0x20\n        /* \"projects/01-reentrancy-vault/contracts/fixed/FixedVault.sol\":2121:2188  require(address(this).balance >= bonus, \"Insufficient bonus funds\") */\n      0x04\n      dup3\n      add\n        /* \"#utility.yul\":4109:4130   */\n      mstore\n        /* \"#utility.yul\":4166:4168   */\n      0x18\n        /* \"#utility.yul\":4146:4164   */\n      0x24\n      dup3\n      add\n        /* \"#utility.yul\":4139:4169   */\n      mstore\n        /* \"#utility.yul\":4205:4231   */\n      0x496e73756666696369656e7420626f6e75732066756e64730000000000000000\n        /* \"#utility.yul\":4185:4203   */\n      0x44\n      dup3\n      add\n        /* \"#utility.yul\":4178:4232   */\n      mstore\n        /* \"#utility.yul\":4249:4267   */\n      0x64\n      add\n        /* \"projects/01-reentrancy-vault/contracts/fixed/FixedVault.sol\":2121:2188  require(address(this).balance >= bonus, \"Insufficient bonus funds\") */\n      tag_16\n        /* \"#utility.yul\":3925:4273   */\n      jump\n        /* \"projects/01-reentrancy-vault/contracts/fixed/FixedVault.sol\":2121:2188  require(address(this).balance >= bonus, \"Insufficient bonus funds\") */\n    tag_103:\n        /* \"projects/01-reentrancy-vault/contracts/fixed/FixedVault.sol\":2224:2234  msg.sender */\n      caller\n        /* \"projects/01-reentrancy-vault/contracts/fixed/FixedVault.sol\":2215:2235  balances[msg.sender] */\n      0x00\n      swap1\n      dup2\n      mstore\n        /* \"projects/01-reentrancy-vault/contracts/fixed/FixedVault.sol\":2215:2223  balances */\n      0x01\n        /* \"projects/01-reentrancy-vault/contracts/fixed/FixedVault.sol\":2215:2235  balances[msg.sender] */\n      0x20\n      mstore\n      0x40\n      dup2\n      keccak256\n        /* \"projects/01-reentrancy-vault/contracts/fixed/FixedVault.sol\":2215:2244  balances[msg.sender] += bonus */\n      dup1\n      sload\n        /* \"projects/01-reentrancy-vault/contracts/fixed/FixedVault.sol\":2239:2244  bonus */\n      dup4\n      swap3\n        /* \"projects/01-reentrancy-vault/contracts/fixed/FixedVault.sol\":2215:2235  balances[msg.sender] */\n      swap1\n        /* \"projects/01-reentrancy-vault/contracts/fixed/FixedVault.sol\":2215:2244  balances[msg.sender] += bonus */\n      tag_106\n      swap1\n        /* \"projects/01-reentrancy-vault/contracts/fixed/FixedVault.sol\":2239:2244  bonus */\n      dup5\n      swap1\n        /* \"projects/01-reentrancy-vault/contracts/fixed/FixedVault.sol\":2215:2244  balances[msg.sender] += bonus */\n      tag_22\n      jump\t// in\n    tag_106:\n      swap1\n      swap2\n      sstore\n      pop\n      pop\n        /* \"projects/01-reentrancy-vault/contracts/fixed/FixedVault.sol\":2324:2353  msg.sender.call{value: 0}(\"\") */\n      mload(0x40)\n        /* \"projects/01-reentrancy-vault/contracts/fixed/FixedVault.sol\":2306:2318  bool success */\n      0x00\n      swap1\n        /* \"projects/01-reentrancy-vault/contracts/fixed/FixedVault.sol\":2324:2334  msg.sender */\n      caller\n      swap1\n        /* \"projects/01-reentrancy-vault/contracts/fixed/FixedVault.sol\":2306:2318  bool success */\n      dup3\n      swap1\n      dup2\n        /* \"projects/01-reentrancy-vault/contracts/fixed/FixedVault.sol\":2324:2353  msg.sender.call{value: 0}(\"\") */\n      dup2\n        /* \"projects/01-reentrancy-vault/contracts/fixed/FixedVault.sol\":2306:2318  bool success */\n      dup2\n        /* \"projects/01-reentrancy-vault/contracts/fixed/FixedVault.sol\":2324:2353  msg.sender.call{value: 0}(\"\") */\n      dup2\n        /* \"projects/01-reentrancy-vault/contracts/fixed/FixedVault.sol\":2306:2318  bool success */\n      dup2\n        /* \"projects/01-reentrancy-vault/contracts/fixed/FixedVault.sol\":2324:2334  msg.sender */\n      dup8\n        /* \"projects/01-reentrancy-vault/contracts/fixed/FixedVault.sol\":2324:2353  msg.sender.call{value: 0}(\"\") */\n      gas\n      call\n      swap3\n      pop\n      pop\n      pop\n      returndatasize\n      dup1\n      0x00\n      dup2\n      eq\n      tag_110\n      jumpi\n      mload(0x40)\n      swap2\n      pop\n      and(add(returndatasize, 0x3f), not(0x1f))\n      dup3\n      add\n      0x40\n      mstore\n      returndatasize\n      dup3\n      mstore\n      returndatasize\n      0x00\n      0x20\n      dup5\n      add\n      returndatacopy\n      jump(tag_109)\n    tag_110:\n      0x60\n      swap2\n      pop\n    tag_109:\n      pop\n        /* \"projects/01-reentrancy-vault/contracts/fixed/FixedVault.sol\":2305:2353  (bool success, ) = msg.sender.call{value: 0}(\"\") */\n      pop\n      swap1\n      pop\n        /* \"projects/01-reentrancy-vault/contracts/fixed/FixedVault.sol\":2408:2415  success */\n      dup1\n        /* \"projects/01-reentrancy-vault/contracts/fixed/FixedVault.sol\":2403:2534  if (!success) {... */\n      tag_111\n      jumpi\n        /* \"projects/01-reentrancy-vault/contracts/fixed/FixedVault.sol\":2499:2509  msg.sender */\n      caller\n        /* \"projects/01-reentrancy-vault/contracts/fixed/FixedVault.sol\":2490:2510  balances[msg.sender] */\n      0x00\n      swap1\n      dup2\n      mstore\n        /* \"projects/01-reentrancy-vault/contracts/fixed/FixedVault.sol\":2490:2498  balances */\n      0x01\n        /* \"projects/01-reentrancy-vault/contracts/fixed/FixedVault.sol\":2490:2510  balances[msg.sender] */\n      0x20\n      mstore\n      0x40\n      dup2\n      keccak256\n        /* \"projects/01-reentrancy-vault/contracts/fixed/FixedVault.sol\":2490:2519  balances[msg.sender] -= bonus */\n      dup1\n      sload\n        /* \"projects/01-reentrancy-vault/contracts/fixed/FixedVault.sol\":2514:2519  bonus */\n      dup5\n      swap3\n        /* \"projects/01-reentrancy-vault/contracts/fixed/FixedVault.sol\":2490:2510  balances[msg.sender] */\n      swap1\n        /* \"projects/01-reentrancy-vault/contracts/fixed/FixedVault.sol\":2490:2519  balances[msg.sender] -= bonus */\n      tag_112\n      swap1\n        /* \"projects/01-reentrancy-vault/contracts/fixed/FixedVault.sol\":2514:2519  bonus */\n      dup5\n      swap1\n        /* \"projects/01-reentrancy-vault/contracts/fixed/FixedVault.sol\":2490:2519  balances[msg.sender] -= bonus */\n      tag_80\n      jump\t// in\n    tag_112:\n      swap1\n      swap2\n      sstore\n      pop\n      pop\n        /* \"projects/01-reentrancy-vault/contracts/fixed/FixedVault.sol\":2403:2534  if (!success) {... */\n    tag_111:\n        /* \"projects/01-reentrancy-vault/contracts/fixed/FixedVault.sol\":2012:2544  {... */\n      pop\n      pop\n        /* \"projects/01-reentrancy-vault/contracts/fixed/FixedVault.sol\":1986:2544  if (msg.value >= 1 ether) {... */\n    tag_102:\n        /* \"projects/01-reentrancy-vault/contracts/fixed/FixedVault.sol\":2575:2585  msg.sender */\n      caller\n        /* \"projects/01-reentrancy-vault/contracts/fixed/FixedVault.sol\":2589:2594  false */\n      0x00\n        /* \"projects/01-reentrancy-vault/contracts/fixed/FixedVault.sol\":2562:2586  isDepositing[msg.sender] */\n      dup2\n      dup2\n      mstore\n        /* \"projects/01-reentrancy-vault/contracts/fixed/FixedVault.sol\":2562:2574  isDepositing */\n      0x02\n        /* \"projects/01-reentrancy-vault/contracts/fixed/FixedVault.sol\":2562:2586  isDepositing[msg.sender] */\n      0x20\n      mstore\n      0x40\n      swap1\n      dup2\n      swap1\n      keccak256\n        /* \"projects/01-reentrancy-vault/contracts/fixed/FixedVault.sol\":2562:2594  isDepositing[msg.sender] = false */\n      dup1\n      sload\n      not(0xff)\n      and\n      swap1\n      sstore\n        /* \"projects/01-reentrancy-vault/contracts/fixed/FixedVault.sol\":2609:2639  Deposit(msg.sender, msg.value) */\n      mload\n      0xe1fffcc4923d04b559f4d29a8bfc6cda04eb5b0d3c460751c2402c5c5cc9109c\n      swap1\n      tag_113\n      swap1\n        /* \"projects/01-reentrancy-vault/contracts/fixed/FixedVault.sol\":2629:2638  msg.value */\n      callvalue\n        /* \"#utility.yul\":1122:1147   */\n      dup2\n      mstore\n        /* \"#utility.yul\":1110:1112   */\n      0x20\n        /* \"#utility.yul\":1095:1113   */\n      add\n      swap1\n        /* \"#utility.yul\":976:1153   */\n      jump\n        /* \"projects/01-reentrancy-vault/contracts/fixed/FixedVault.sol\":2609:2639  Deposit(msg.sender, msg.value) */\n    tag_113:\n      mload(0x40)\n      dup1\n      swap2\n      sub\n      swap1\n      log2\n        /* \"lib/openzeppelin-contracts/contracts/security/ReentrancyGuard.sol\":2303:2323  _nonReentrantAfter() */\n      tag_27\n        /* \"lib/openzeppelin-contracts/contracts/security/ReentrancyGuard.sol\":1716:1717  1 */\n      0x01\n        /* \"lib/openzeppelin-contracts/contracts/security/ReentrancyGuard.sol\":2809:2816  _status */\n      0x00\n        /* \"lib/openzeppelin-contracts/contracts/security/ReentrancyGuard.sol\":2809:2831  _status = _NOT_ENTERED */\n      sstore\n        /* \"lib/openzeppelin-contracts/contracts/security/ReentrancyGuard.sol\":2629:2838  function _nonReentrantAfter() private {... */\n      jump\n        /* \"projects/01-reentrancy-vault/contracts/fixed/FixedVault.sol\":2716:3432  function emergencyWithdraw() external override nonReentrant {... */\n    tag_58:\n        /* \"lib/openzeppelin-contracts/contracts/security/ReentrancyGuard.sol\":2261:2282  _nonReentrantBefore() */\n      tag_116\n        /* \"lib/openzeppelin-contracts/contracts/security/ReentrancyGuard.sol\":2261:2280  _nonReentrantBefore */\n      tag_68\n        /* \"lib/openzeppelin-contracts/contracts/security/ReentrancyGuard.sol\":2261:2282  _nonReentrantBefore() */\n      jump\t// in\n    tag_116:\n        /* \"projects/01-reentrancy-vault/contracts/fixed/FixedVault.sol\":2807:2817  msg.sender */\n      caller\n        /* \"projects/01-reentrancy-vault/contracts/fixed/FixedVault.sol\":2794:2818  isDepositing[msg.sender] */\n      0x00\n      swap1\n      dup2\n      mstore\n        /* \"projects/01-reentrancy-vault/contracts/fixed/FixedVault.sol\":2794:2806  isDepositing */\n      0x02\n        /* \"projects/01-reentrancy-vault/contracts/fixed/FixedVault.sol\":2794:2818  isDepositing[msg.sender] */\n      0x20\n      mstore\n      0x40\n      swap1\n      keccak256\n      sload\n      0xff\n      and\n        /* \"projects/01-reentrancy-vault/contracts/fixed/FixedVault.sol\":2786:2843  require(isDepositing[msg.sender], \"Not in deposit state\") */\n      tag_118\n      jumpi\n      mload(0x40)\n      shl(0xe5, 0x461bcd)\n      dup2\n      mstore\n        /* \"#utility.yul\":4480:4482   */\n      0x20\n        /* \"projects/01-reentrancy-vault/contracts/fixed/FixedVault.sol\":2786:2843  require(isDepositing[msg.sender], \"Not in deposit state\") */\n      0x04\n      dup3\n      add\n        /* \"#utility.yul\":4462:4483   */\n      mstore\n        /* \"#utility.yul\":4519:4521   */\n      0x14\n        /* \"#utility.yul\":4499:4517   */\n      0x24\n      dup3\n      add\n        /* \"#utility.yul\":4492:4522   */\n      mstore\n      shl(0x60, 0x4e6f7420696e206465706f736974207374617465)\n        /* \"#utility.yul\":4538:4556   */\n      0x44\n      dup3\n      add\n        /* \"#utility.yul\":4531:4581   */\n      mstore\n        /* \"#utility.yul\":4598:4616   */\n      0x64\n      add\n        /* \"projects/01-reentrancy-vault/contracts/fixed/FixedVault.sol\":2786:2843  require(isDepositing[msg.sender], \"Not in deposit state\") */\n      tag_16\n        /* \"#utility.yul\":4278:4622   */\n      jump\n        /* \"projects/01-reentrancy-vault/contracts/fixed/FixedVault.sol\":2786:2843  require(isDepositing[msg.sender], \"Not in deposit state\") */\n    tag_118:\n        /* \"projects/01-reentrancy-vault/contracts/fixed/FixedVault.sol\":2889:2899  msg.sender */\n      caller\n        /* \"projects/01-reentrancy-vault/contracts/fixed/FixedVault.sol\":2862:2877  uint256 balance */\n      0x00\n        /* \"projects/01-reentrancy-vault/contracts/fixed/FixedVault.sol\":2880:2900  balances[msg.sender] */\n      swap1\n      dup2\n      mstore\n        /* \"projects/01-reentrancy-vault/contracts/fixed/FixedVault.sol\":2880:2888  balances */\n      0x01\n        /* \"projects/01-reentrancy-vault/contracts/fixed/FixedVault.sol\":2880:2900  balances[msg.sender] */\n      0x20\n      mstore\n      0x40\n      swap1\n      keccak256\n      sload\n        /* \"projects/01-reentrancy-vault/contracts/fixed/FixedVault.sol\":2918:2929  balance > 0 */\n      dup1\n        /* \"projects/01-reentrancy-vault/contracts/fixed/FixedVault.sol\":2910:2956  require(balance > 0, \"No balance to withdraw\") */\n      tag_121\n      jumpi\n      mload(0x40)\n      shl(0xe5, 0x461bcd)\n      dup2\n      mstore\n        /* \"#utility.yul\":4829:4831   */\n      0x20\n        /* \"projects/01-reentrancy-vault/contracts/fixed/FixedVault.sol\":2910:2956  require(balance > 0, \"No balance to withdraw\") */\n      0x04\n      dup3\n      add\n        /* \"#utility.yul\":4811:4832   */\n      mstore\n        /* \"#utility.yul\":4868:4870   */\n      0x16\n        /* \"#utility.yul\":4848:4866   */\n      0x24\n      dup3\n      add\n        /* \"#utility.yul\":4841:4871   */\n      mstore\n      shl(0x50, 0x4e6f2062616c616e636520746f207769746864726177)\n        /* \"#utility.yul\":4887:4905   */\n      0x44\n      dup3\n      add\n        /* \"#utility.yul\":4880:4932   */\n      mstore\n        /* \"#utility.yul\":4949:4967   */\n      0x64\n      add\n        /* \"projects/01-reentrancy-vault/contracts/fixed/FixedVault.sol\":2910:2956  require(balance > 0, \"No balance to withdraw\") */\n      tag_16\n        /* \"#utility.yul\":4627:4973   */\n      jump\n        /* \"projects/01-reentrancy-vault/contracts/fixed/FixedVault.sol\":2910:2956  require(balance > 0, \"No balance to withdraw\") */\n    tag_121:\n        /* \"projects/01-reentrancy-vault/contracts/fixed/FixedVault.sol\":2999:3006  balance */\n      dup1\n        /* \"projects/01-reentrancy-vault/contracts/fixed/FixedVault.sol\":2974:2995  address(this).balance */\n      selfbalance\n        /* \"projects/01-reentrancy-vault/contracts/fixed/FixedVault.sol\":2974:3006  address(this).balance >= balance */\n      lt\n      iszero\n        /* \"projects/01-reentrancy-vault/contracts/fixed/FixedVault.sol\":2966:3040  require(address(this).balance >= balance, \"Insufficient contract balance\") */\n      tag_124\n      jumpi\n      mload(0x40)\n      shl(0xe5, 0x461bcd)\n      dup2\n      mstore\n        /* \"#utility.yul\":2735:2737   */\n      0x20\n        /* \"projects/01-reentrancy-vault/contracts/fixed/FixedVault.sol\":2966:3040  require(address(this).balance >= balance, \"Insufficient contract balance\") */\n      0x04\n      dup3\n      add\n        /* \"#utility.yul\":2717:2738   */\n      mstore\n        /* \"#utility.yul\":2774:2776   */\n      0x1d\n        /* \"#utility.yul\":2754:2772   */\n      0x24\n      dup3\n      add\n        /* \"#utility.yul\":2747:2777   */\n      mstore\n        /* \"#utility.yul\":2813:2844   */\n      0x496e73756666696369656e7420636f6e74726163742062616c616e6365000000\n        /* \"#utility.yul\":2793:2811   */\n      0x44\n      dup3\n      add\n        /* \"#utility.yul\":2786:2845   */\n      mstore\n        /* \"#utility.yul\":2862:2880   */\n      0x64\n      add\n        /* \"projects/01-reentrancy-vault/contracts/fixed/FixedVault.sol\":2966:3040  require(address(this).balance >= balance, \"Insufficient contract balance\") */\n      tag_16\n        /* \"#utility.yul\":2533:2886   */\n      jump\n        /* \"projects/01-reentrancy-vault/contracts/fixed/FixedVault.sol\":2966:3040  require(address(this).balance >= balance, \"Insufficient contract balance\") */\n    tag_124:\n        /* \"projects/01-reentrancy-vault/contracts/fixed/FixedVault.sol\":3126:3136  msg.sender */\n      caller\n        /* \"projects/01-reentrancy-vault/contracts/fixed/FixedVault.sol\":3140:3141  0 */\n      0x00\n        /* \"projects/01-reentrancy-vault/contracts/fixed/FixedVault.sol\":3117:3137  balances[msg.sender] */\n      dup2\n      dup2\n      mstore\n        /* \"projects/01-reentrancy-vault/contracts/fixed/FixedVault.sol\":3117:3125  balances */\n      0x01\n        /* \"projects/01-reentrancy-vault/contracts/fixed/FixedVault.sol\":3117:3137  balances[msg.sender] */\n      0x20\n      swap1\n      dup2\n      mstore\n      0x40\n      dup1\n      dup4\n      keccak256\n        /* \"projects/01-reentrancy-vault/contracts/fixed/FixedVault.sol\":3117:3141  balances[msg.sender] = 0 */\n      dup4\n      swap1\n      sstore\n        /* \"projects/01-reentrancy-vault/contracts/fixed/FixedVault.sol\":3151:3163  isDepositing */\n      0x02\n        /* \"projects/01-reentrancy-vault/contracts/fixed/FixedVault.sol\":3151:3175  isDepositing[msg.sender] */\n      swap1\n      swap2\n      mstore\n      dup1\n      dup3\n      keccak256\n        /* \"projects/01-reentrancy-vault/contracts/fixed/FixedVault.sol\":3151:3183  isDepositing[msg.sender] = false */\n      dup1\n      sload\n      not(0xff)\n      and\n      swap1\n      sstore\n        /* \"projects/01-reentrancy-vault/contracts/fixed/FixedVault.sol\":3283:3318  msg.sender.call{value: balance}(\"\") */\n      mload\n        /* \"projects/01-reentrancy-vault/contracts/fixed/FixedVault.sol\":3140:3141  0 */\n      swap1\n      swap2\n        /* \"projects/01-reentrancy-vault/contracts/fixed/FixedVault.sol\":3126:3136  msg.sender */\n      swap1\n        /* \"projects/01-reentrancy-vault/contracts/fixed/FixedVault.sol\":3306:3313  balance */\n      dup4\n      swap1\n        /* \"projects/01-reentrancy-vault/contracts/fixed/FixedVault.sol\":3140:3141  0 */\n      dup4\n        /* \"projects/01-reentrancy-vault/contracts/fixed/FixedVault.sol\":3283:3318  msg.sender.call{value: balance}(\"\") */\n      dup2\n        /* \"projects/01-reentrancy-vault/contracts/fixed/FixedVault.sol\":3140:3141  0 */\n      dup2\n        /* \"projects/01-reentrancy-vault/contracts/fixed/FixedVault.sol\":3283:3318  msg.sender.call{value: balance}(\"\") */\n      dup2\n        /* \"projects/01-reentrancy-vault/contracts/fixed/FixedVault.sol\":3306:3313  balance */\n      dup6\n        /* \"projects/01-reentrancy-vault/contracts/fixed/FixedVault.sol\":3126:3136  msg.sender */\n      dup8\n        /* \"projects/01-reentrancy-vault/contracts/fixed/FixedVault.sol\":3283:3318  msg.sender.call{value: balance}(\"\") */\n      gas\n      call\n      swap3\n      pop\n      pop\n      pop\n      returndatasize\n      dup1\n      0x00\n      dup2\n      eq\n      tag_129\n      jumpi\n      mload(0x40)\n      swap2\n      pop\n      and(add(returndatasize, 0x3f), not(0x1f))\n      dup3\n      add\n      0x40\n      mstore\n      returndatasize\n      dup3\n      mstore\n      returndatasize\n      0x00\n      0x20\n      dup5\n      add\n      returndatacopy\n      jump(tag_128)\n    tag_129:\n      0x60\n      swap2\n      pop\n    tag_128:\n      pop\n        /* \"projects/01-reentrancy-vault/contracts/fixed/FixedVault.sol\":3264:3318  (bool success, ) = msg.sender.call{value: balance}(\"\") */\n      pop\n      swap1\n      pop\n        /* \"projects/01-reentrancy-vault/contracts/fixed/FixedVault.sol\":3336:3343  success */\n      dup1\n        /* \"projects/01-reentrancy-vault/contracts/fixed/FixedVault.sol\":3328:3363  require(success, \"Transfer failed\") */\n      tag_130\n      jumpi\n      mload(0x40)\n      shl(0xe5, 0x461bcd)\n      dup2\n      mstore\n        /* \"#utility.yul\":3436:3438   */\n      0x20\n        /* \"projects/01-reentrancy-vault/contracts/fixed/FixedVault.sol\":3328:3363  require(success, \"Transfer failed\") */\n      0x04\n      dup3\n      add\n        /* \"#utility.yul\":3418:3439   */\n      mstore\n        /* \"#utility.yul\":3475:3477   */\n      0x0f\n        /* \"#utility.yul\":3455:3473   */\n      0x24\n      dup3\n      add\n        /* \"#utility.yul\":3448:3478   */\n      mstore\n      shl(0x8a, 0x151c985b9cd9995c8819985a5b1959)\n        /* \"#utility.yul\":3494:3512   */\n      0x44\n      dup3\n      add\n        /* \"#utility.yul\":3487:3532   */\n      mstore\n        /* \"#utility.yul\":3549:3567   */\n      0x64\n      add\n        /* \"projects/01-reentrancy-vault/contracts/fixed/FixedVault.sol\":3328:3363  require(success, \"Transfer failed\") */\n      tag_16\n        /* \"#utility.yul\":3234:3573   */\n      jump\n        /* \"projects/01-reentrancy-vault/contracts/fixed/FixedVault.sol\":3328:3363  require(success, \"Transfer failed\") */\n    tag_130:\n        /* \"projects/01-reentrancy-vault/contracts/fixed/FixedVault.sol\":3387:3425  EmergencyWithdraw(msg.sender, balance) */\n      mload(0x40)\n        /* \"#utility.yul\":1122:1147   */\n      dup3\n      dup2\n      mstore\n        /* \"projects/01-reentrancy-vault/contracts/fixed/FixedVault.sol\":3405:3415  msg.sender */\n      caller\n      swap1\n        /* \"projects/01-reentrancy-vault/contracts/fixed/FixedVault.sol\":3387:3425  EmergencyWithdraw(msg.sender, balance) */\n      0x5fafa99d0643513820be26656b45130b01e1c03062e1266bf36f88cbd3bd9695\n      swap1\n        /* \"#utility.yul\":1110:1112   */\n      0x20\n        /* \"#utility.yul\":1095:1113   */\n      add\n        /* \"projects/01-reentrancy-vault/contracts/fixed/FixedVault.sol\":3387:3425  EmergencyWithdraw(msg.sender, balance) */\n      mload(0x40)\n      dup1\n      swap2\n      sub\n      swap1\n      log2\n        /* \"projects/01-reentrancy-vault/contracts/fixed/FixedVault.sol\":2776:3432  {... */\n      pop\n      pop\n        /* \"lib/openzeppelin-contracts/contracts/security/ReentrancyGuard.sol\":2303:2323  _nonReentrantAfter() */\n      tag_27\n        /* \"lib/openzeppelin-contracts/contracts/security/ReentrancyGuard.sol\":1716:1717  1 */\n      0x01\n        /* \"lib/openzeppelin-contracts/contracts/security/ReentrancyGuard.sol\":2809:2816  _status */\n      0x00\n        /* \"lib/openzeppelin-contracts/contracts/security/ReentrancyGuard.sol\":2809:2831  _status = _NOT_ENTERED */\n      sstore\n        /* \"lib/openzeppelin-contracts/contracts/security/ReentrancyGuard.sol\":2629:2838  function _nonReentrantAfter() private {... */\n      jump\n        /* \"lib/openzeppelin-contracts/contracts/security/ReentrancyGuard.sol\":2336:2623  function _nonReentrantBefore() private {... */\n    tag_68:\n        /* \"lib/openzeppelin-contracts/contracts/security/ReentrancyGuard.sol\":1759:1760  2 */\n      0x02\n        /* \"lib/openzeppelin-contracts/contracts/security/ReentrancyGuard.sol\":2468:2475  _status */\n      sload(0x00)\n        /* \"lib/openzeppelin-contracts/contracts/security/ReentrancyGuard.sol\":2468:2487  _status != _ENTERED */\n      sub\n        /* \"lib/openzeppelin-contracts/contracts/security/ReentrancyGuard.sol\":2460:2523  require(_status != _ENTERED, \"ReentrancyGuard: reentrant call\") */\n      tag_136\n      jumpi\n      mload(0x40)\n      shl(0xe5, 0x461bcd)\n      dup2\n      mstore\n        /* \"#utility.yul\":5180:5182   */\n      0x20\n        /* \"lib/openzeppelin-contracts/contracts/security/ReentrancyGuard.sol\":2460:2523  require(_status != _ENTERED, \"ReentrancyGuard: reentrant call\") */\n      0x04\n      dup3\n      add\n        /* \"#utility.yul\":5162:5183   */\n      mstore\n        /* \"#utility.yul\":5219:5221   */\n      0x1f\n        /* \"#utility.yul\":5199:5217   */\n      0x24\n      dup3\n      add\n        /* \"#utility.yul\":5192:5222   */\n      mstore\n        /* \"#utility.yul\":5258:5291   */\n      0x5265656e7472616e637947756172643a207265656e7472616e742063616c6c00\n        /* \"#utility.yul\":5238:5256   */\n      0x44\n      dup3\n      add\n        /* \"#utility.yul\":5231:5292   */\n      mstore\n        /* \"#utility.yul\":5309:5327   */\n      0x64\n      add\n        /* \"lib/openzeppelin-contracts/contracts/security/ReentrancyGuard.sol\":2460:2523  require(_status != _ENTERED, \"ReentrancyGuard: reentrant call\") */\n      tag_16\n        /* \"#utility.yul\":4978:5333   */\n      jump\n        /* \"lib/openzeppelin-contracts/contracts/security/ReentrancyGuard.sol\":2460:2523  require(_status != _ENTERED, \"ReentrancyGuard: reentrant call\") */\n    tag_136:\n        /* \"lib/openzeppelin-contracts/contracts/security/ReentrancyGuard.sol\":1759:1760  2 */\n      0x02\n        /* \"lib/openzeppelin-contracts/contracts/security/ReentrancyGuard.sol\":2598:2605  _status */\n      0x00\n        /* \"lib/openzeppelin-contracts/contracts/security/ReentrancyGuard.sol\":2598:2616  _status = _ENTERED */\n      sstore\n        /* \"lib/openzeppelin-contracts/contracts/security/ReentrancyGuard.sol\":2336:2623  function _nonReentrantBefore() private {... */\n      jump\t// out\n        /* \"#utility.yul\":714:841   */\n    tag_140:\n        /* \"#utility.yul\":775:785   */\n      0x4e487b71\n        /* \"#utility.yul\":770:773   */\n      0xe0\n        /* \"#utility.yul\":766:786   */\n      shl\n        /* \"#utility.yul\":763:764   */\n      0x00\n        /* \"#utility.yul\":756:787   */\n      mstore\n        /* \"#utility.yul\":806:810   */\n      0x11\n        /* \"#utility.yul\":803:804   */\n      0x04\n        /* \"#utility.yul\":796:811   */\n      mstore\n        /* \"#utility.yul\":830:834   */\n      0x24\n        /* \"#utility.yul\":827:828   */\n      0x00\n        /* \"#utility.yul\":820:835   */\n      revert\n        /* \"#utility.yul\":846:971   */\n    tag_22:\n        /* \"#utility.yul\":911:920   */\n      dup1\n      dup3\n      add\n        /* \"#utility.yul\":932:942   */\n      dup1\n      dup3\n      gt\n        /* \"#utility.yul\":929:965   */\n      iszero\n      tag_147\n      jumpi\n        /* \"#utility.yul\":945:963   */\n      tag_147\n      tag_140\n      jump\t// in\n    tag_147:\n        /* \"#utility.yul\":846:971   */\n      swap3\n      swap2\n      pop\n      pop\n      jump\t// out\n        /* \"#utility.yul\":1158:1444   */\n    tag_31:\n        /* \"#utility.yul\":1217:1223   */\n      0x00\n        /* \"#utility.yul\":1270:1272   */\n      0x20\n        /* \"#utility.yul\":1258:1267   */\n      dup3\n        /* \"#utility.yul\":1249:1256   */\n      dup5\n        /* \"#utility.yul\":1245:1268   */\n      sub\n        /* \"#utility.yul\":1241:1273   */\n      slt\n        /* \"#utility.yul\":1238:1290   */\n      iszero\n      tag_150\n      jumpi\n        /* \"#utility.yul\":1286:1287   */\n      0x00\n        /* \"#utility.yul\":1283:1284   */\n      dup1\n        /* \"#utility.yul\":1276:1288   */\n      revert\n        /* \"#utility.yul\":1238:1290   */\n    tag_150:\n        /* \"#utility.yul\":1312:1335   */\n      dup2\n      calldataload\n      sub(shl(0xa0, 0x01), 0x01)\n        /* \"#utility.yul\":1364:1395   */\n      dup2\n      and\n        /* \"#utility.yul\":1354:1396   */\n      dup2\n      eq\n        /* \"#utility.yul\":1344:1414   */\n      tag_151\n      jumpi\n        /* \"#utility.yul\":1410:1411   */\n      0x00\n        /* \"#utility.yul\":1407:1408   */\n      dup1\n        /* \"#utility.yul\":1400:1412   */\n      revert\n        /* \"#utility.yul\":1344:1414   */\n    tag_151:\n        /* \"#utility.yul\":1433:1438   */\n      swap4\n        /* \"#utility.yul\":1158:1444   */\n      swap3\n      pop\n      pop\n      pop\n      jump\t// out\n        /* \"#utility.yul\":1641:1821   */\n    tag_48:\n        /* \"#utility.yul\":1700:1706   */\n      0x00\n        /* \"#utility.yul\":1753:1755   */\n      0x20\n        /* \"#utility.yul\":1741:1750   */\n      dup3\n        /* \"#utility.yul\":1732:1739   */\n      dup5\n        /* \"#utility.yul\":1728:1751   */\n      sub\n        /* \"#utility.yul\":1724:1756   */\n      slt\n        /* \"#utility.yul\":1721:1773   */\n      iszero\n      tag_154\n      jumpi\n        /* \"#utility.yul\":1769:1770   */\n      0x00\n        /* \"#utility.yul\":1766:1767   */\n      dup1\n        /* \"#utility.yul\":1759:1771   */\n      revert\n        /* \"#utility.yul\":1721:1773   */\n    tag_154:\n      pop\n        /* \"#utility.yul\":1792:1815   */\n      calldataload\n      swap2\n        /* \"#utility.yul\":1641:1821   */\n      swap1\n      pop\n      jump\t// out\n        /* \"#utility.yul\":2891:3019   */\n    tag_80:\n        /* \"#utility.yul\":2958:2967   */\n      dup2\n      dup2\n      sub\n        /* \"#utility.yul\":2979:2990   */\n      dup2\n      dup2\n      gt\n        /* \"#utility.yul\":2976:3013   */\n      iszero\n      tag_147\n      jumpi\n        /* \"#utility.yul\":2993:3011   */\n      tag_147\n      tag_140\n      jump\t// in\n\n    auxdata: 0xa264697066735822122060a724a0dd1a662e16a179d1e32b525d2ed9a863e1f07ba7bc617e8c86d1dfc064736f6c63430008140033\n}\n","methodIdentifiers":{"balances(address)":"27e235e3","deposit()":"d0e30db0","emergencyWithdraw()":"db2e21bc","getBalance(address)":"f8b2cb4f","getContractBalance()":"6f9fb98a","getDepositState(address)":"13b085d9","isDepositing(address)":"19b02120","pauseDeposits()":"02191980","withdraw(uint256)":"2e1a7d4d"},"storageLayout":{"storage":[{"astId":40319,"contract":"projects/01-reentrancy-vault/contracts/fixed/FixedVault.sol:FixedVault","label":"_status","offset":0,"slot":"0","type":"t_uint256"},{"astId":41719,"contract":"projects/01-reentrancy-vault/contracts/fixed/FixedVault.sol:FixedVault","label":"balances","offset":0,"slot":"1","type":"t_mapping(t_address,t_uint256)"},{"astId":41724,"contract":"projects/01-reentrancy-vault/contracts/fixed/FixedVault.sol:FixedVault","label":"isDepositing","offset":0,"slot":"2","type":"t_mapping(t_address,t_bool)"}],"types":{"t_address":{"encoding":"inplace","label":"address","numberOfBytes":"20"},"t_bool":{"encoding":"inplace","label":"bool","numberOfBytes":"1"},"t_mapping(t_address,t_bool)":{"encoding":"mapping","key":"t_address","label":"mapping(address => bool)","numberOfBytes":"32","value":"t_bool"},"t_mapping(t_address,t_uint256)":{"encoding":"mapping","key":"t_address","label":"mapping(address => uint256)","numberOfBytes":"32","value":"t_uint256"},"t_uint256":{"encoding":"inplace","label":"uint256","numberOfBytes":"32"}}},"id":32}