{"abi":[{"type":"constructor","inputs":[{"name":"_maxWithdrawal","type":"uint256","internalType":"uint256"},{"name":"_dailyLimit","type":"uint256","internalType":"uint256"}],"stateMutability":"nonpayable"},{"type":"receive","stateMutability":"payable"},{"type":"function","name":"DEFAULT_ADMIN_ROLE","inputs":[],"outputs":[{"name":"","type":"bytes32","internalType":"bytes32"}],"stateMutability":"view"},{"type":"function","name":"GUARDIAN_ROLE","inputs":[],"outputs":[{"name":"","type":"bytes32","internalType":"bytes32"}],"stateMutability":"view"},{"type":"function","name":"OPERATOR_ROLE","inputs":[],"outputs":[{"name":"","type":"bytes32","internalType":"bytes32"}],"stateMutability":"view"},{"type":"function","name":"PAUSE_ROLE","inputs":[],"outputs":[{"name":"","type":"bytes32","internalType":"bytes32"}],"stateMutability":"view"},{"type":"function","name":"WITHDRAW_ROLE","inputs":[],"outputs":[{"name":"","type":"bytes32","internalType":"bytes32"}],"stateMutability":"view"},{"type":"function","name":"balances","inputs":[{"name":"","type":"address","internalType":"address"}],"outputs":[{"name":"","type":"uint256","internalType":"uint256"}],"stateMutability":"view"},{"type":"function","name":"dailyWithdrawalLimit","inputs":[],"outputs":[{"name":"","type":"uint256","internalType":"uint256"}],"stateMutability":"view"},{"type":"function","name":"dailyWithdrawalTimestamps","inputs":[{"name":"","type":"uint256","internalType":"uint256"}],"outputs":[{"name":"","type":"uint256","internalType":"uint256"}],"stateMutability":"view"},{"type":"function","name":"dailyWithdrawals","inputs":[{"name":"","type":"address","internalType":"address"}],"outputs":[{"name":"","type":"uint256","internalType":"uint256"}],"stateMutability":"view"},{"type":"function","name":"deposit","inputs":[],"outputs":[],"stateMutability":"payable"},{"type":"function","name":"emergencyPause","inputs":[],"outputs":[],"stateMutability":"nonpayable"},{"type":"function","name":"emergencyWithdraw","inputs":[],"outputs":[],"stateMutability":"nonpayable"},{"type":"function","name":"getBalance","inputs":[{"name":"user","type":"address","internalType":"address"}],"outputs":[{"name":"","type":"uint256","internalType":"uint256"}],"stateMutability":"view"},{"type":"function","name":"getContractBalance","inputs":[],"outputs":[{"name":"","type":"uint256","internalType":"uint256"}],"stateMutability":"view"},{"type":"function","name":"getDailyWithdrawal","inputs":[{"name":"user","type":"address","internalType":"address"}],"outputs":[{"name":"","type":"uint256","internalType":"uint256"}],"stateMutability":"view"},{"type":"function","name":"getOperationCount","inputs":[],"outputs":[{"name":"","type":"uint256","internalType":"uint256"}],"stateMutability":"view"},{"type":"function","name":"getRoleAdmin","inputs":[{"name":"role","type":"bytes32","internalType":"bytes32"}],"outputs":[{"name":"","type":"bytes32","internalType":"bytes32"}],"stateMutability":"view"},{"type":"function","name":"grantRole","inputs":[{"name":"role","type":"bytes32","internalType":"bytes32"},{"name":"account","type":"address","internalType":"address"}],"outputs":[],"stateMutability":"nonpayable"},{"type":"function","name":"hasRole","inputs":[{"name":"role","type":"bytes32","internalType":"bytes32"},{"name":"account","type":"address","internalType":"address"}],"outputs":[{"name":"","type":"bool","internalType":"bool"}],"stateMutability":"view"},{"type":"function","name":"maxWithdrawal","inputs":[],"outputs":[{"name":"","type":"uint256","internalType":"uint256"}],"stateMutability":"view"},{"type":"function","name":"pause","inputs":[],"outputs":[],"stateMutability":"nonpayable"},{"type":"function","name":"paused","inputs":[],"outputs":[{"name":"","type":"bool","internalType":"bool"}],"stateMutability":"view"},{"type":"function","name":"renounceRole","inputs":[{"name":"role","type":"bytes32","internalType":"bytes32"},{"name":"account","type":"address","internalType":"address"}],"outputs":[],"stateMutability":"nonpayable"},{"type":"function","name":"revokeRole","inputs":[{"name":"role","type":"bytes32","internalType":"bytes32"},{"name":"account","type":"address","internalType":"address"}],"outputs":[],"stateMutability":"nonpayable"},{"type":"function","name":"supportsInterface","inputs":[{"name":"interfaceId","type":"bytes4","internalType":"bytes4"}],"outputs":[{"name":"","type":"bool","internalType":"bool"}],"stateMutability":"view"},{"type":"function","name":"totalFunds","inputs":[],"outputs":[{"name":"","type":"uint256","internalType":"uint256"}],"stateMutability":"view"},{"type":"function","name":"unpause","inputs":[],"outputs":[],"stateMutability":"nonpayable"},{"type":"function","name":"updateDailyLimit","inputs":[{"name":"newDailyLimit","type":"uint256","internalType":"uint256"}],"outputs":[],"stateMutability":"nonpayable"},{"type":"function","name":"updateMaxWithdrawal","inputs":[{"name":"newMaxWithdrawal","type":"uint256","internalType":"uint256"}],"outputs":[],"stateMutability":"nonpayable"},{"type":"function","name":"withdraw","inputs":[{"name":"amount","type":"uint256","internalType":"uint256"}],"outputs":[],"stateMutability":"nonpayable"},{"type":"event","name":"DailyLimitUpdated","inputs":[{"name":"oldLimit","type":"uint256","indexed":false,"internalType":"uint256"},{"name":"newLimit","type":"uint256","indexed":false,"internalType":"uint256"}],"anonymous":false},{"type":"event","name":"Deposit","inputs":[{"name":"user","type":"address","indexed":true,"internalType":"address"},{"name":"amount","type":"uint256","indexed":false,"internalType":"uint256"}],"anonymous":false},{"type":"event","name":"EmergencyAction","inputs":[{"name":"guardian","type":"address","indexed":true,"internalType":"address"},{"name":"action","type":"string","indexed":false,"internalType":"string"}],"anonymous":false},{"type":"event","name":"MaxWithdrawalUpdated","inputs":[{"name":"oldLimit","type":"uint256","indexed":false,"internalType":"uint256"},{"name":"newLimit","type":"uint256","indexed":false,"internalType":"uint256"}],"anonymous":false},{"type":"event","name":"Paused","inputs":[{"name":"account","type":"address","indexed":false,"internalType":"address"}],"anonymous":false},{"type":"event","name":"RoleAdminChanged","inputs":[{"name":"role","type":"bytes32","indexed":true,"internalType":"bytes32"},{"name":"previousAdminRole","type":"bytes32","indexed":true,"internalType":"bytes32"},{"name":"newAdminRole","type":"bytes32","indexed":true,"internalType":"bytes32"}],"anonymous":false},{"type":"event","name":"RoleGranted","inputs":[{"name":"role","type":"bytes32","indexed":true,"internalType":"bytes32"},{"name":"account","type":"address","indexed":true,"internalType":"address"},{"name":"sender","type":"address","indexed":true,"internalType":"address"}],"anonymous":false},{"type":"event","name":"RoleRevoked","inputs":[{"name":"role","type":"bytes32","indexed":true,"internalType":"bytes32"},{"name":"account","type":"address","indexed":true,"internalType":"address"},{"name":"sender","type":"address","indexed":true,"internalType":"address"}],"anonymous":false},{"type":"event","name":"Unpaused","inputs":[{"name":"account","type":"address","indexed":false,"internalType":"address"}],"anonymous":false},{"type":"event","name":"Withdraw","inputs":[{"name":"user","type":"address","indexed":true,"internalType":"address"},{"name":"amount","type":"uint256","indexed":false,"internalType":"uint256"},{"name":"operationId","type":"uint256","indexed":false,"internalType":"uint256"}],"anonymous":false}],"bytecode":{"object":"0x608060405234801562000010575f80fd5b50604051620017ea380380620017ea8339810160408190526200003391620001ae565b600180556002805460ff1916905560058290556006819055620000575f336200010f565b620000837f5d8e12c39142ff96d79d04d15d1ba1269e4fe57bb9d26f43523628b34ba108ec336200010f565b620000af7f139c2898040ef16910dc9f44dc697df79363da767d8bc92f2e310312b816e46d336200010f565b620000db7f97667070c54ef182b0f5858b034beac1b6f3089aa2d3188bb1e8929f4fa9b929336200010f565b620001077f55435dd261a4b9b3364963f7738a7a662ad9c84396d64be3365284bb7f0a5041336200010f565b5050620001d1565b5f828152602081815260408083206001600160a01b038516845290915290205460ff16620001aa575f828152602081815260408083206001600160a01b03851684529091529020805460ff19166001179055620001693390565b6001600160a01b0316816001600160a01b0316837f2f8788117e7eff1d82e926ec794901d17c78024a50270940304540a733656f0d60405160405180910390a45b5050565b5f8060408385031215620001c0575f80fd5b505080516020909101519092909150565b61160b80620001df5f395ff3fe6080604052600436106101c8575f3560e01c80637620843a116100f2578063bdcc96aa11610092578063e02023a111610062578063e02023a114610501578063f5b541a614610534578063f8175d7814610567578063f8b2cb4f14610586575f80fd5b8063bdcc96aa14610492578063d0e30db0146104c6578063d547741f146104ce578063db2e21bc146104ed575f80fd5b80638c0ff5b7116100cd5780638c0ff5b71461043657806391d148541461044b578063968ed6001461046a578063a217fddf1461047f575f80fd5b80637620843a146103ee5780638456cb59146104035780638a959ba714610417575f80fd5b806336568abe1161016857806351858e271161013857806351858e271461039d57806356149adf146103b15780635c975abb146103c55780636f9fb98a146103dc575f80fd5b806336568abe1461030c578063389ed2671461032b5780633f4ba83a1461035e57806341d636a214610372575f80fd5b806324ea54f4116101a357806324ea54f41461026e57806327e235e3146102a15780632e1a7d4d146102cc5780632f2ff15d146102ed575f80fd5b806301ffc9a7146101d3578063042f762214610207578063248a9ca314610240575f80fd5b366101cf57005b5f80fd5b3480156101de575f80fd5b506101f26101ed3660046113c4565b6105ba565b60405190151581526020015b60405180910390f35b348015610212575f80fd5b506102326102213660046113eb565b60086020525f908152604090205481565b6040519081526020016101fe565b34801561024b575f80fd5b5061023261025a3660046113eb565b5f9081526020819052604090206001015490565b348015610279575f80fd5b506102327f55435dd261a4b9b3364963f7738a7a662ad9c84396d64be3365284bb7f0a504181565b3480156102ac575f80fd5b506102326102bb36600461141d565b60036020525f908152604090205481565b3480156102d7575f80fd5b506102eb6102e63660046113eb565b6105ca565b005b3480156102f8575f80fd5b506102eb610307366004611436565b61081f565b348015610317575f80fd5b506102eb610326366004611436565b61086f565b348015610336575f80fd5b506102327f139c2898040ef16910dc9f44dc697df79363da767d8bc92f2e310312b816e46d81565b348015610369575f80fd5b506102eb6108e9565b34801561037d575f80fd5b5061023261038c36600461141d565b60076020525f908152604090205481565b3480156103a8575f80fd5b506102eb61091e565b3480156103bc575f80fd5b506102326109c4565b3480156103d0575f80fd5b5060025460ff166101f2565b3480156103e7575f80fd5b5047610232565b3480156103f9575f80fd5b5061023260065481565b34801561040e575f80fd5b506102eb6109d3565b348015610422575f80fd5b506102eb6104313660046113eb565b610a05565b348015610441575f80fd5b5061023260055481565b348015610456575f80fd5b506101f2610465366004611436565b610ab3565b348015610475575f80fd5b5061023260045481565b34801561048a575f80fd5b506102325f81565b34801561049d575f80fd5b506102326104ac36600461141d565b6001600160a01b03165f9081526007602052604090205490565b6102eb610adb565b3480156104d9575f80fd5b506102eb6104e8366004611436565b610ba4565b3480156104f8575f80fd5b506102eb610bf4565b34801561050c575f80fd5b506102327f5d8e12c39142ff96d79d04d15d1ba1269e4fe57bb9d26f43523628b34ba108ec81565b34801561053f575f80fd5b506102327f97667070c54ef182b0f5858b034beac1b6f3089aa2d3188bb1e8929f4fa9b92981565b348015610572575f80fd5b506102eb6105813660046113eb565b610d64565b348015610591575f80fd5b506102326105a036600461141d565b6001600160a01b03165f9081526003602052604090205490565b5f6105c482610e06565b92915050565b7f5d8e12c39142ff96d79d04d15d1ba1269e4fe57bb9d26f43523628b34ba108ec6105f481610e3a565b6105fc610e44565b610604610e9d565b5f82116106585760405162461bcd60e51b815260206004820152601d60248201527f416d6f756e74206d7573742062652067726561746572207468616e203000000060448201526064015b60405180910390fd5b478211156106a85760405162461bcd60e51b815260206004820152601d60248201527f496e73756666696369656e7420636f6e74726163742062616c616e6365000000604482015260640161064f565b6005548211156106fa5760405162461bcd60e51b815260206004820152601c60248201527f45786365656473206d6178207769746864726177616c206c696d697400000000604482015260640161064f565b6107043383610ee5565b8160045f8282546107159190611474565b9091555050335f9081526007602052604081208054849290610738908490611487565b90915550506009805460010190556040515f90339084908381818185875af1925050503d805f8114610785576040519150601f19603f3d011682016040523d82523d5f602084013e61078a565b606091505b50509050806107cd5760405162461bcd60e51b815260206004820152600f60248201526e151c985b9cd9995c8819985a5b1959608a1b604482015260640161064f565b337ff279e6a1f5e320cca91135676d9cb6e44ca8a08c0b88342bcdb1144f6511b568846107f960095490565b6040805192835260208301919091520160405180910390a25061081b60018055565b5050565b5f61082981610e3a565b6108338383610fb5565b60405133906001600160a01b0384169085907f2f8788117e7eff1d82e926ec794901d17c78024a50270940304540a733656f0d905f90a4505050565b6001600160a01b03811633146108df5760405162461bcd60e51b815260206004820152602f60248201527f416363657373436f6e74726f6c3a2063616e206f6e6c792072656e6f756e636560448201526e103937b632b9903337b91039b2b63360891b606482015260840161064f565b61081b8282610fd9565b7f139c2898040ef16910dc9f44dc697df79363da767d8bc92f2e310312b816e46d61091381610e3a565b61091b61103d565b50565b7f55435dd261a4b9b3364963f7738a7a662ad9c84396d64be3365284bb7f0a504161094881610e3a565b61095061108f565b336001600160a01b03167fadd39274de8dd8b809f76ff95f1489f4d93c1ae807bcb035ab8cee8d68a1af1b6040516109b99060208082526019908201527f456d657267656e63792070617573652061637469766174656400000000000000604082015260600190565b60405180910390a250565b5f6109ce60095490565b905090565b7f139c2898040ef16910dc9f44dc697df79363da767d8bc92f2e310312b816e46d6109fd81610e3a565b61091b61108f565b5f610a0f81610e3a565b5f8211610a6c5760405162461bcd60e51b815260206004820152602560248201527f4d6178207769746864726177616c206d75737420626520677265617465722074604482015264068616e20360dc1b606482015260840161064f565b600580549083905560408051828152602081018590527f4a91b35fe9913ecc73c195a97ed30c0d98b57337f0039f9e1f0c017962192f3891015b60405180910390a1505050565b5f918252602082815260408084206001600160a01b0393909316845291905290205460ff1690565b610ae3610e9d565b5f3411610b325760405162461bcd60e51b815260206004820152601d60248201527f416d6f756e74206d7573742062652067726561746572207468616e2030000000604482015260640161064f565b335f9081526003602052604081208054349290610b50908490611487565b925050819055503460045f828254610b689190611487565b909155505060405134815233907fe1fffcc4923d04b559f4d29a8bfc6cda04eb5b0d3c460751c2402c5c5cc9109c9060200160405180910390a2565b5f610bae81610e3a565b610bb883836110cc565b60405133906001600160a01b0384169085907ff6391f5c32d9c69d2a47ea670b442974b53935d1edc7fd64eb21e047a839171b905f90a4505050565b7f55435dd261a4b9b3364963f7738a7a662ad9c84396d64be3365284bb7f0a5041610c1e81610e3a565b4780610c635760405162461bcd60e51b81526020600482015260146024820152734e6f2066756e647320746f20776974686472617760601b604482015260640161064f565b5f6004819055604051339083908381818185875af1925050503d805f8114610ca6576040519150601f19603f3d011682016040523d82523d5f602084013e610cab565b606091505b5050905080610cee5760405162461bcd60e51b815260206004820152600f60248201526e151c985b9cd9995c8819985a5b1959608a1b604482015260640161064f565b336001600160a01b03167fadd39274de8dd8b809f76ff95f1489f4d93c1ae807bcb035ab8cee8d68a1af1b604051610d57906020808252601d908201527f456d657267656e6379207769746864726177616c206578656375746564000000604082015260600190565b60405180910390a2505050565b5f610d6e81610e3a565b5f8211610dc85760405162461bcd60e51b815260206004820152602260248201527f4461696c79206c696d6974206d7573742062652067726561746572207468616e604482015261020360f41b606482015260840161064f565b600680549083905560408051828152602081018590527f207c4cbdf55ec315a13f0d5e047732ec5d947da056e706593aa509909941cedf9101610aa6565b5f6001600160e01b03198216637965db0b60e01b14806105c457506301ffc9a760e01b6001600160e01b03198316146105c4565b61091b81336110f0565b600260015403610e965760405162461bcd60e51b815260206004820152601f60248201527f5265656e7472616e637947756172643a207265656e7472616e742063616c6c00604482015260640161064f565b6002600155565b60025460ff1615610ee35760405162461bcd60e51b815260206004820152601060248201526f14185d5cd8589b194e881c185d5cd95960821b604482015260640161064f565b565b5f610ef3620151804261149a565b6001600160a01b0384165f908152600860205260409020549091508114610f3c576001600160a01b0383165f908152600760209081526040808320839055600890915290208190555b6006546001600160a01b0384165f90815260076020526040902054610f62908490611487565b1115610fb05760405162461bcd60e51b815260206004820152601e60248201527f45786365656473206461696c79207769746864726177616c206c696d69740000604482015260640161064f565b505050565b5f82815260208190526040902060010154610fcf81610e3a565b610fb08383611149565b610fe38282610ab3565b1561081b575f828152602081815260408083206001600160a01b0385168085529252808320805460ff1916905551339285917ff6391f5c32d9c69d2a47ea670b442974b53935d1edc7fd64eb21e047a839171b9190a45050565b6110456111cc565b6002805460ff191690557f5db9ee0a495bf2e6ff9c91a7834c1ba4fdd244a5e8aa4e537bd38aeae4b073aa335b6040516001600160a01b03909116815260200160405180910390a1565b611097610e9d565b6002805460ff191660011790557f62e78cea01bee320cd4e420270b5ea74000d11b0c9f74754ebdbfc544b05a2586110723390565b5f828152602081905260409020600101546110e681610e3a565b610fb08383610fd9565b6110fa8282610ab3565b61081b5761110781611215565b611112836020611227565b6040516020016111239291906114db565b60408051601f198184030181529082905262461bcd60e51b825261064f9160040161154f565b6111538282610ab3565b61081b575f828152602081815260408083206001600160a01b03851684529091529020805460ff191660011790556111883390565b6001600160a01b0316816001600160a01b0316837f2f8788117e7eff1d82e926ec794901d17c78024a50270940304540a733656f0d60405160405180910390a45050565b60025460ff16610ee35760405162461bcd60e51b815260206004820152601460248201527314185d5cd8589b194e881b9bdd081c185d5cd95960621b604482015260640161064f565b60606105c46001600160a01b03831660145b60605f611235836002611581565b611240906002611487565b67ffffffffffffffff81111561125857611258611598565b6040519080825280601f01601f191660200182016040528015611282576020820181803683370190505b509050600360fc1b815f8151811061129c5761129c6115ac565b60200101906001600160f81b03191690815f1a905350600f60fb1b816001815181106112ca576112ca6115ac565b60200101906001600160f81b03191690815f1a9053505f6112ec846002611581565b6112f7906001611487565b90505b600181111561136e576f181899199a1a9b1b9c1cb0b131b232b360811b85600f166010811061132b5761132b6115ac565b1a60f81b828281518110611341576113416115ac565b60200101906001600160f81b03191690815f1a90535060049490941c93611367816115c0565b90506112fa565b5083156113bd5760405162461bcd60e51b815260206004820181905260248201527f537472696e67733a20686578206c656e67746820696e73756666696369656e74604482015260640161064f565b9392505050565b5f602082840312156113d4575f80fd5b81356001600160e01b0319811681146113bd575f80fd5b5f602082840312156113fb575f80fd5b5035919050565b80356001600160a01b0381168114611418575f80fd5b919050565b5f6020828403121561142d575f80fd5b6113bd82611402565b5f8060408385031215611447575f80fd5b8235915061145760208401611402565b90509250929050565b634e487b7160e01b5f52601160045260245ffd5b818103818111156105c4576105c4611460565b808201808211156105c4576105c4611460565b5f826114b457634e487b7160e01b5f52601260045260245ffd5b500490565b5f5b838110156114d35781810151838201526020016114bb565b50505f910152565b7f416363657373436f6e74726f6c3a206163636f756e742000000000000000000081525f83516115128160178501602088016114b9565b7001034b99036b4b9b9b4b733903937b6329607d1b60179184019182015283516115438160288401602088016114b9565b01602801949350505050565b602081525f825180602084015261156d8160408501602087016114b9565b601f01601f19169190910160400192915050565b80820281158282048414176105c4576105c4611460565b634e487b7160e01b5f52604160045260245ffd5b634e487b7160e01b5f52603260045260245ffd5b5f816115ce576115ce611460565b505f19019056fea26469706673582212200328dd39072508720341ef0e635ee2468a620c9e676194821267a189fb198f6664736f6c63430008140033","linkReferences":{}},"assembly":"    /* \"projects/02-access-control/contracts/03-access-control/AdvancedVault.sol\":1055:8730  contract AdvancedVault is AccessControl, ReentrancyGuard, Pausable {... */\n  mstore(0x40, 0x80)\n    /* \"projects/02-access-control/contracts/03-access-control/AdvancedVault.sol\":2380:2883  constructor(uint256 _maxWithdrawal, uint256 _dailyLimit) {... */\n  callvalue\n  dup1\n  iszero\n  tag_1\n  jumpi\n  0x00\n  dup1\n  revert\ntag_1:\n  pop\n  mload(0x40)\n  sub(codesize, bytecodeSize)\n  dup1\n  bytecodeSize\n  dup4\n  codecopy\n  dup2\n  add\n  0x40\n  dup2\n  swap1\n  mstore\n  tag_2\n  swap2\n  tag_3\n  jump\t// in\ntag_2:\n    /* \"lib/openzeppelin-contracts/contracts/security/ReentrancyGuard.sol\":1716:1717  1 */\n  0x01\n    /* \"lib/openzeppelin-contracts/contracts/security/ReentrancyGuard.sol\":1821:1843  _status = _NOT_ENTERED */\n  dup1\n  sstore\n    /* \"lib/openzeppelin-contracts/contracts/security/Pausable.sol\":996:1003  _paused */\n  0x02\n    /* \"lib/openzeppelin-contracts/contracts/security/Pausable.sol\":996:1011  _paused = false */\n  dup1\n  sload\n  not(0xff)\n  and\n  swap1\n  sstore\n    /* \"projects/02-access-control/contracts/03-access-control/AdvancedVault.sol\":2447:2460  maxWithdrawal */\n  0x05\n    /* \"projects/02-access-control/contracts/03-access-control/AdvancedVault.sol\":2447:2477  maxWithdrawal = _maxWithdrawal */\n  dup3\n  swap1\n  sstore\n    /* \"projects/02-access-control/contracts/03-access-control/AdvancedVault.sol\":2487:2507  dailyWithdrawalLimit */\n  0x06\n    /* \"projects/02-access-control/contracts/03-access-control/AdvancedVault.sol\":2487:2521  dailyWithdrawalLimit = _dailyLimit */\n  dup2\n  swap1\n  sstore\n    /* \"projects/02-access-control/contracts/03-access-control/AdvancedVault.sol\":2597:2639  _grantRole(DEFAULT_ADMIN_ROLE, msg.sender) */\n  tag_10\n    /* \"lib/openzeppelin-contracts/contracts/security/Pausable.sol\":1006:1011  false */\n  0x00\n    /* \"projects/02-access-control/contracts/03-access-control/AdvancedVault.sol\":2628:2638  msg.sender */\n  caller\n    /* \"projects/02-access-control/contracts/03-access-control/AdvancedVault.sol\":2597:2607  _grantRole */\n  tag_11\n    /* \"projects/02-access-control/contracts/03-access-control/AdvancedVault.sol\":2597:2639  _grantRole(DEFAULT_ADMIN_ROLE, msg.sender) */\n  jump\t// in\ntag_10:\n    /* \"projects/02-access-control/contracts/03-access-control/AdvancedVault.sol\":2701:2738  _grantRole(WITHDRAW_ROLE, msg.sender) */\n  tag_12\n    /* \"projects/02-access-control/contracts/03-access-control/AdvancedVault.sol\":1238:1264  keccak256(\"WITHDRAW_ROLE\") */\n  0x5d8e12c39142ff96d79d04d15d1ba1269e4fe57bb9d26f43523628b34ba108ec\n    /* \"projects/02-access-control/contracts/03-access-control/AdvancedVault.sol\":2727:2737  msg.sender */\n  caller\n    /* \"projects/02-access-control/contracts/03-access-control/AdvancedVault.sol\":2701:2711  _grantRole */\n  tag_11\n    /* \"projects/02-access-control/contracts/03-access-control/AdvancedVault.sol\":2701:2738  _grantRole(WITHDRAW_ROLE, msg.sender) */\n  jump\t// in\ntag_12:\n    /* \"projects/02-access-control/contracts/03-access-control/AdvancedVault.sol\":2748:2782  _grantRole(PAUSE_ROLE, msg.sender) */\n  tag_13\n    /* \"projects/02-access-control/contracts/03-access-control/AdvancedVault.sol\":1307:1330  keccak256(\"PAUSE_ROLE\") */\n  0x139c2898040ef16910dc9f44dc697df79363da767d8bc92f2e310312b816e46d\n    /* \"projects/02-access-control/contracts/03-access-control/AdvancedVault.sol\":2771:2781  msg.sender */\n  caller\n    /* \"projects/02-access-control/contracts/03-access-control/AdvancedVault.sol\":2748:2758  _grantRole */\n  tag_11\n    /* \"projects/02-access-control/contracts/03-access-control/AdvancedVault.sol\":2748:2782  _grantRole(PAUSE_ROLE, msg.sender) */\n  jump\t// in\ntag_13:\n    /* \"projects/02-access-control/contracts/03-access-control/AdvancedVault.sol\":2792:2829  _grantRole(OPERATOR_ROLE, msg.sender) */\n  tag_14\n    /* \"projects/02-access-control/contracts/03-access-control/AdvancedVault.sol\":1376:1402  keccak256(\"OPERATOR_ROLE\") */\n  0x97667070c54ef182b0f5858b034beac1b6f3089aa2d3188bb1e8929f4fa9b929\n    /* \"projects/02-access-control/contracts/03-access-control/AdvancedVault.sol\":2818:2828  msg.sender */\n  caller\n    /* \"projects/02-access-control/contracts/03-access-control/AdvancedVault.sol\":2792:2802  _grantRole */\n  tag_11\n    /* \"projects/02-access-control/contracts/03-access-control/AdvancedVault.sol\":2792:2829  _grantRole(OPERATOR_ROLE, msg.sender) */\n  jump\t// in\ntag_14:\n    /* \"projects/02-access-control/contracts/03-access-control/AdvancedVault.sol\":2839:2876  _grantRole(GUARDIAN_ROLE, msg.sender) */\n  tag_15\n    /* \"projects/02-access-control/contracts/03-access-control/AdvancedVault.sol\":1448:1474  keccak256(\"GUARDIAN_ROLE\") */\n  0x55435dd261a4b9b3364963f7738a7a662ad9c84396d64be3365284bb7f0a5041\n    /* \"projects/02-access-control/contracts/03-access-control/AdvancedVault.sol\":2865:2875  msg.sender */\n  caller\n    /* \"projects/02-access-control/contracts/03-access-control/AdvancedVault.sol\":2839:2849  _grantRole */\n  tag_11\n    /* \"projects/02-access-control/contracts/03-access-control/AdvancedVault.sol\":2839:2876  _grantRole(GUARDIAN_ROLE, msg.sender) */\n  jump\t// in\ntag_15:\n    /* \"projects/02-access-control/contracts/03-access-control/AdvancedVault.sol\":2380:2883  constructor(uint256 _maxWithdrawal, uint256 _dailyLimit) {... */\n  pop\n  pop\n    /* \"projects/02-access-control/contracts/03-access-control/AdvancedVault.sol\":1055:8730  contract AdvancedVault is AccessControl, ReentrancyGuard, Pausable {... */\n  jump(tag_25)\n    /* \"lib/openzeppelin-contracts/contracts/access/AccessControl.sol\":7587:7820  function _grantRole(bytes32 role, address account) internal virtual {... */\ntag_11:\n    /* \"lib/openzeppelin-contracts/contracts/access/AccessControl.sol\":3107:3111  bool */\n  0x00\n    /* \"lib/openzeppelin-contracts/contracts/access/AccessControl.sol\":3130:3142  _roles[role] */\n  dup3\n  dup2\n  mstore\n  0x20\n  dup2\n  dup2\n  mstore\n  0x40\n  dup1\n  dup4\n  keccak256\n  sub(shl(0xa0, 0x01), 0x01)\n    /* \"lib/openzeppelin-contracts/contracts/access/AccessControl.sol\":3130:3159  _roles[role].members[account] */\n  dup6\n  and\n  dup5\n  mstore\n  swap1\n  swap2\n  mstore\n  swap1\n  keccak256\n  sload\n  0xff\n  and\n    /* \"lib/openzeppelin-contracts/contracts/access/AccessControl.sol\":7665:7814  if (!hasRole(role, account)) {... */\n  tag_20\n  jumpi\n    /* \"lib/openzeppelin-contracts/contracts/access/AccessControl.sol\":7708:7714  _roles */\n  0x00\n    /* \"lib/openzeppelin-contracts/contracts/access/AccessControl.sol\":7708:7720  _roles[role] */\n  dup3\n  dup2\n  mstore\n  0x20\n  dup2\n  dup2\n  mstore\n  0x40\n  dup1\n  dup4\n  keccak256\n  sub(shl(0xa0, 0x01), 0x01)\n    /* \"lib/openzeppelin-contracts/contracts/access/AccessControl.sol\":7708:7737  _roles[role].members[account] */\n  dup6\n  and\n  dup5\n  mstore\n  swap1\n  swap2\n  mstore\n  swap1\n  keccak256\n    /* \"lib/openzeppelin-contracts/contracts/access/AccessControl.sol\":7708:7744  _roles[role].members[account] = true */\n  dup1\n  sload\n  not(0xff)\n  and\n    /* \"lib/openzeppelin-contracts/contracts/access/AccessControl.sol\":7740:7744  true */\n  0x01\n    /* \"lib/openzeppelin-contracts/contracts/access/AccessControl.sol\":7708:7744  _roles[role].members[account] = true */\n  or\n  swap1\n  sstore\n    /* \"lib/openzeppelin-contracts/contracts/access/AccessControl.sol\":7790:7802  _msgSender() */\n  tag_21\n    /* \"lib/openzeppelin-contracts/contracts/utils/Context.sol\":719:729  msg.sender */\n  caller\n  swap1\n    /* \"lib/openzeppelin-contracts/contracts/utils/Context.sol\":640:736  function _msgSender() internal view virtual returns (address) {... */\n  jump\n    /* \"lib/openzeppelin-contracts/contracts/access/AccessControl.sol\":7790:7802  _msgSender() */\ntag_21:\n  sub(shl(0xa0, 0x01), 0x01)\n    /* \"lib/openzeppelin-contracts/contracts/access/AccessControl.sol\":7763:7803  RoleGranted(role, account, _msgSender()) */\n  and\n    /* \"lib/openzeppelin-contracts/contracts/access/AccessControl.sol\":7781:7788  account */\n  dup2\n  sub(shl(0xa0, 0x01), 0x01)\n    /* \"lib/openzeppelin-contracts/contracts/access/AccessControl.sol\":7763:7803  RoleGranted(role, account, _msgSender()) */\n  and\n    /* \"lib/openzeppelin-contracts/contracts/access/AccessControl.sol\":7775:7779  role */\n  dup4\n    /* \"lib/openzeppelin-contracts/contracts/access/AccessControl.sol\":7763:7803  RoleGranted(role, account, _msgSender()) */\n  0x2f8788117e7eff1d82e926ec794901d17c78024a50270940304540a733656f0d\n  mload(0x40)\n  mload(0x40)\n  dup1\n  swap2\n  sub\n  swap1\n  log4\n    /* \"lib/openzeppelin-contracts/contracts/access/AccessControl.sol\":7665:7814  if (!hasRole(role, account)) {... */\ntag_20:\n    /* \"lib/openzeppelin-contracts/contracts/access/AccessControl.sol\":7587:7820  function _grantRole(bytes32 role, address account) internal virtual {... */\n  pop\n  pop\n  jump\t// out\n    /* \"#utility.yul\":14:259   */\ntag_3:\n    /* \"#utility.yul\":93:99   */\n  0x00\n    /* \"#utility.yul\":101:107   */\n  dup1\n    /* \"#utility.yul\":154:156   */\n  0x40\n    /* \"#utility.yul\":142:151   */\n  dup4\n    /* \"#utility.yul\":133:140   */\n  dup6\n    /* \"#utility.yul\":129:152   */\n  sub\n    /* \"#utility.yul\":125:157   */\n  slt\n    /* \"#utility.yul\":122:174   */\n  iszero\n  tag_27\n  jumpi\n    /* \"#utility.yul\":170:171   */\n  0x00\n    /* \"#utility.yul\":167:168   */\n  dup1\n    /* \"#utility.yul\":160:172   */\n  revert\n    /* \"#utility.yul\":122:174   */\ntag_27:\n  pop\n  pop\n    /* \"#utility.yul\":193:209   */\n  dup1\n  mload\n    /* \"#utility.yul\":249:251   */\n  0x20\n    /* \"#utility.yul\":234:252   */\n  swap1\n  swap2\n  add\n    /* \"#utility.yul\":228:253   */\n  mload\n    /* \"#utility.yul\":193:209   */\n  swap1\n  swap3\n    /* \"#utility.yul\":228:253   */\n  swap1\n  swap2\n  pop\n    /* \"#utility.yul\":14:259   */\n  jump\t// out\ntag_25:\n    /* \"projects/02-access-control/contracts/03-access-control/AdvancedVault.sol\":1055:8730  contract AdvancedVault is AccessControl, ReentrancyGuard, Pausable {... */\n  dataSize(sub_0)\n  dup1\n  dataOffset(sub_0)\n  0x00\n  codecopy\n  0x00\n  return\nstop\n\nsub_0: assembly {\n        /* \"projects/02-access-control/contracts/03-access-control/AdvancedVault.sol\":1055:8730  contract AdvancedVault is AccessControl, ReentrancyGuard, Pausable {... */\n      mstore(0x40, 0x80)\n      jumpi(tag_1, lt(calldatasize, 0x04))\n      shr(0xe0, calldataload(0x00))\n      dup1\n      0x7620843a\n      gt\n      tag_33\n      jumpi\n      dup1\n      0xbdcc96aa\n      gt\n      tag_34\n      jumpi\n      dup1\n      0xe02023a1\n      gt\n      tag_35\n      jumpi\n      dup1\n      0xe02023a1\n      eq\n      tag_29\n      jumpi\n      dup1\n      0xf5b541a6\n      eq\n      tag_30\n      jumpi\n      dup1\n      0xf8175d78\n      eq\n      tag_31\n      jumpi\n      dup1\n      0xf8b2cb4f\n      eq\n      tag_32\n      jumpi\n      0x00\n      dup1\n      revert\n    tag_35:\n      dup1\n      0xbdcc96aa\n      eq\n      tag_25\n      jumpi\n      dup1\n      0xd0e30db0\n      eq\n      tag_26\n      jumpi\n      dup1\n      0xd547741f\n      eq\n      tag_27\n      jumpi\n      dup1\n      0xdb2e21bc\n      eq\n      tag_28\n      jumpi\n      0x00\n      dup1\n      revert\n    tag_34:\n      dup1\n      0x8c0ff5b7\n      gt\n      tag_36\n      jumpi\n      dup1\n      0x8c0ff5b7\n      eq\n      tag_21\n      jumpi\n      dup1\n      0x91d14854\n      eq\n      tag_22\n      jumpi\n      dup1\n      0x968ed600\n      eq\n      tag_23\n      jumpi\n      dup1\n      0xa217fddf\n      eq\n      tag_24\n      jumpi\n      0x00\n      dup1\n      revert\n    tag_36:\n      dup1\n      0x7620843a\n      eq\n      tag_18\n      jumpi\n      dup1\n      0x8456cb59\n      eq\n      tag_19\n      jumpi\n      dup1\n      0x8a959ba7\n      eq\n      tag_20\n      jumpi\n      0x00\n      dup1\n      revert\n    tag_33:\n      dup1\n      0x36568abe\n      gt\n      tag_37\n      jumpi\n      dup1\n      0x51858e27\n      gt\n      tag_38\n      jumpi\n      dup1\n      0x51858e27\n      eq\n      tag_14\n      jumpi\n      dup1\n      0x56149adf\n      eq\n      tag_15\n      jumpi\n      dup1\n      0x5c975abb\n      eq\n      tag_16\n      jumpi\n      dup1\n      0x6f9fb98a\n      eq\n      tag_17\n      jumpi\n      0x00\n      dup1\n      revert\n    tag_38:\n      dup1\n      0x36568abe\n      eq\n      tag_10\n      jumpi\n      dup1\n      0x389ed267\n      eq\n      tag_11\n      jumpi\n      dup1\n      0x3f4ba83a\n      eq\n      tag_12\n      jumpi\n      dup1\n      0x41d636a2\n      eq\n      tag_13\n      jumpi\n      0x00\n      dup1\n      revert\n    tag_37:\n      dup1\n      0x24ea54f4\n      gt\n      tag_39\n      jumpi\n      dup1\n      0x24ea54f4\n      eq\n      tag_6\n      jumpi\n      dup1\n      0x27e235e3\n      eq\n      tag_7\n      jumpi\n      dup1\n      0x2e1a7d4d\n      eq\n      tag_8\n      jumpi\n      dup1\n      0x2f2ff15d\n      eq\n      tag_9\n      jumpi\n      0x00\n      dup1\n      revert\n    tag_39:\n      dup1\n      0x01ffc9a7\n      eq\n      tag_3\n      jumpi\n      dup1\n      0x042f7622\n      eq\n      tag_4\n      jumpi\n      dup1\n      0x248a9ca3\n      eq\n      tag_5\n      jumpi\n      0x00\n      dup1\n      revert\n    tag_1:\n      jumpi(tag_2, calldatasize)\n      stop\n    tag_2:\n      0x00\n      dup1\n      revert\n        /* \"projects/02-access-control/contracts/03-access-control/AdvancedVault.sol\":8570:8728  function supportsInterface(bytes4 interfaceId) public view override(AccessControl) returns (bool) {... */\n    tag_3:\n      callvalue\n      dup1\n      iszero\n      tag_42\n      jumpi\n      0x00\n      dup1\n      revert\n    tag_42:\n      pop\n      tag_43\n      tag_44\n      calldatasize\n      0x04\n      tag_45\n      jump\t// in\n    tag_44:\n      tag_46\n      jump\t// in\n    tag_43:\n      mload(0x40)\n        /* \"#utility.yul\":470:484   */\n      swap1\n      iszero\n        /* \"#utility.yul\":463:485   */\n      iszero\n        /* \"#utility.yul\":445:486   */\n      dup2\n      mstore\n        /* \"#utility.yul\":433:435   */\n      0x20\n        /* \"#utility.yul\":418:436   */\n      add\n        /* \"projects/02-access-control/contracts/03-access-control/AdvancedVault.sol\":8570:8728  function supportsInterface(bytes4 interfaceId) public view override(AccessControl) returns (bool) {... */\n    tag_47:\n      mload(0x40)\n      dup1\n      swap2\n      sub\n      swap1\n      return\n        /* \"projects/02-access-control/contracts/03-access-control/AdvancedVault.sol\":1720:1780  mapping(uint256 => uint256) public dailyWithdrawalTimestamps */\n    tag_4:\n      callvalue\n      dup1\n      iszero\n      tag_49\n      jumpi\n      0x00\n      dup1\n      revert\n    tag_49:\n      pop\n      tag_50\n      tag_51\n      calldatasize\n      0x04\n      tag_52\n      jump\t// in\n    tag_51:\n      mstore(0x20, 0x08)\n      0x00\n      swap1\n      dup2\n      mstore\n      0x40\n      swap1\n      keccak256\n      sload\n      dup2\n      jump\n    tag_50:\n      mload(0x40)\n        /* \"#utility.yul\":828:853   */\n      swap1\n      dup2\n      mstore\n        /* \"#utility.yul\":816:818   */\n      0x20\n        /* \"#utility.yul\":801:819   */\n      add\n        /* \"projects/02-access-control/contracts/03-access-control/AdvancedVault.sol\":1720:1780  mapping(uint256 => uint256) public dailyWithdrawalTimestamps */\n      tag_47\n        /* \"#utility.yul\":682:859   */\n      jump\n        /* \"lib/openzeppelin-contracts/contracts/access/AccessControl.sol\":4504:4633  function getRoleAdmin(bytes32 role) public view virtual override returns (bytes32) {... */\n    tag_5:\n      callvalue\n      dup1\n      iszero\n      tag_56\n      jumpi\n      0x00\n      dup1\n      revert\n    tag_56:\n      pop\n      tag_50\n      tag_58\n      calldatasize\n      0x04\n      tag_52\n      jump\t// in\n    tag_58:\n        /* \"lib/openzeppelin-contracts/contracts/access/AccessControl.sol\":4578:4585  bytes32 */\n      0x00\n        /* \"lib/openzeppelin-contracts/contracts/access/AccessControl.sol\":4604:4616  _roles[role] */\n      swap1\n      dup2\n      mstore\n      0x20\n      dup2\n      swap1\n      mstore\n      0x40\n      swap1\n      keccak256\n        /* \"lib/openzeppelin-contracts/contracts/access/AccessControl.sol\":4604:4626  _roles[role].adminRole */\n      0x01\n      add\n      sload\n      swap1\n        /* \"lib/openzeppelin-contracts/contracts/access/AccessControl.sol\":4504:4633  function getRoleAdmin(bytes32 role) public view virtual override returns (bytes32) {... */\n      jump\n        /* \"projects/02-access-control/contracts/03-access-control/AdvancedVault.sol\":1408:1474  bytes32 public constant GUARDIAN_ROLE = keccak256(\"GUARDIAN_ROLE\") */\n    tag_6:\n      callvalue\n      dup1\n      iszero\n      tag_63\n      jumpi\n      0x00\n      dup1\n      revert\n    tag_63:\n      pop\n      tag_50\n        /* \"projects/02-access-control/contracts/03-access-control/AdvancedVault.sol\":1448:1474  keccak256(\"GUARDIAN_ROLE\") */\n      0x55435dd261a4b9b3364963f7738a7a662ad9c84396d64be3365284bb7f0a5041\n        /* \"projects/02-access-control/contracts/03-access-control/AdvancedVault.sol\":1408:1474  bytes32 public constant GUARDIAN_ROLE = keccak256(\"GUARDIAN_ROLE\") */\n      dup2\n      jump\n        /* \"projects/02-access-control/contracts/03-access-control/AdvancedVault.sol\":1508:1551  mapping(address => uint256) public balances */\n    tag_7:\n      callvalue\n      dup1\n      iszero\n      tag_67\n      jumpi\n      0x00\n      dup1\n      revert\n    tag_67:\n      pop\n      tag_50\n      tag_69\n      calldatasize\n      0x04\n      tag_70\n      jump\t// in\n    tag_69:\n      mstore(0x20, 0x03)\n      0x00\n      swap1\n      dup2\n      mstore\n      0x40\n      swap1\n      keccak256\n      sload\n      dup2\n      jump\n        /* \"projects/02-access-control/contracts/03-access-control/AdvancedVault.sol\":3342:4090  function withdraw(uint256 amount) external onlyRole(WITHDRAW_ROLE) nonReentrant whenNotPaused {... */\n    tag_8:\n      callvalue\n      dup1\n      iszero\n      tag_73\n      jumpi\n      0x00\n      dup1\n      revert\n    tag_73:\n      pop\n      tag_74\n      tag_75\n      calldatasize\n      0x04\n      tag_52\n      jump\t// in\n    tag_75:\n      tag_76\n      jump\t// in\n    tag_74:\n      stop\n        /* \"projects/02-access-control/contracts/03-access-control/AdvancedVault.sol\":6393:6588  function grantRole(bytes32 role, address account) public override onlyRole(DEFAULT_ADMIN_ROLE) {... */\n    tag_9:\n      callvalue\n      dup1\n      iszero\n      tag_77\n      jumpi\n      0x00\n      dup1\n      revert\n    tag_77:\n      pop\n      tag_74\n      tag_79\n      calldatasize\n      0x04\n      tag_80\n      jump\t// in\n    tag_79:\n      tag_81\n      jump\t// in\n        /* \"lib/openzeppelin-contracts/contracts/access/AccessControl.sol\":6038:6252  function renounceRole(bytes32 role, address account) public virtual override {... */\n    tag_10:\n      callvalue\n      dup1\n      iszero\n      tag_82\n      jumpi\n      0x00\n      dup1\n      revert\n    tag_82:\n      pop\n      tag_74\n      tag_84\n      calldatasize\n      0x04\n      tag_80\n      jump\t// in\n    tag_84:\n      tag_85\n      jump\t// in\n        /* \"projects/02-access-control/contracts/03-access-control/AdvancedVault.sol\":1270:1330  bytes32 public constant PAUSE_ROLE = keccak256(\"PAUSE_ROLE\") */\n    tag_11:\n      callvalue\n      dup1\n      iszero\n      tag_86\n      jumpi\n      0x00\n      dup1\n      revert\n    tag_86:\n      pop\n      tag_50\n        /* \"projects/02-access-control/contracts/03-access-control/AdvancedVault.sol\":1307:1330  keccak256(\"PAUSE_ROLE\") */\n      0x139c2898040ef16910dc9f44dc697df79363da767d8bc92f2e310312b816e46d\n        /* \"projects/02-access-control/contracts/03-access-control/AdvancedVault.sol\":1270:1330  bytes32 public constant PAUSE_ROLE = keccak256(\"PAUSE_ROLE\") */\n      dup2\n      jump\n        /* \"projects/02-access-control/contracts/03-access-control/AdvancedVault.sol\":4314:4390  function unpause() external onlyRole(PAUSE_ROLE) {... */\n    tag_12:\n      callvalue\n      dup1\n      iszero\n      tag_90\n      jumpi\n      0x00\n      dup1\n      revert\n    tag_90:\n      pop\n      tag_74\n      tag_92\n      jump\t// in\n        /* \"projects/02-access-control/contracts/03-access-control/AdvancedVault.sol\":1663:1714  mapping(address => uint256) public dailyWithdrawals */\n    tag_13:\n      callvalue\n      dup1\n      iszero\n      tag_93\n      jumpi\n      0x00\n      dup1\n      revert\n    tag_93:\n      pop\n      tag_50\n      tag_95\n      calldatasize\n      0x04\n      tag_70\n      jump\t// in\n    tag_95:\n      mstore(0x20, 0x07)\n      0x00\n      swap1\n      dup2\n      mstore\n      0x40\n      swap1\n      keccak256\n      sload\n      dup2\n      jump\n        /* \"projects/02-access-control/contracts/03-access-control/AdvancedVault.sol\":5520:5675  function emergencyPause() external onlyRole(GUARDIAN_ROLE) {... */\n    tag_14:\n      callvalue\n      dup1\n      iszero\n      tag_98\n      jumpi\n      0x00\n      dup1\n      revert\n    tag_98:\n      pop\n      tag_74\n      tag_100\n      jump\t// in\n        /* \"projects/02-access-control/contracts/03-access-control/AdvancedVault.sol\":8296:8403  function getOperationCount() external view returns (uint256) {... */\n    tag_15:\n      callvalue\n      dup1\n      iszero\n      tag_101\n      jumpi\n      0x00\n      dup1\n      revert\n    tag_101:\n      pop\n      tag_50\n      tag_103\n      jump\t// in\n        /* \"lib/openzeppelin-contracts/contracts/security/Pausable.sol\":1615:1699  function paused() public view virtual returns (bool) {... */\n    tag_16:\n      callvalue\n      dup1\n      iszero\n      tag_105\n      jumpi\n      0x00\n      dup1\n      revert\n    tag_105:\n      pop\n        /* \"lib/openzeppelin-contracts/contracts/security/Pausable.sol\":1685:1692  _paused */\n      and(0xff, sload(0x02))\n        /* \"lib/openzeppelin-contracts/contracts/security/Pausable.sol\":1615:1699  function paused() public view virtual returns (bool) {... */\n      jump(tag_43)\n        /* \"projects/02-access-control/contracts/03-access-control/AdvancedVault.sol\":7907:8014  function getContractBalance() external view returns (uint256) {... */\n    tag_17:\n      callvalue\n      dup1\n      iszero\n      tag_109\n      jumpi\n      0x00\n      dup1\n      revert\n    tag_109:\n      pop\n        /* \"projects/02-access-control/contracts/03-access-control/AdvancedVault.sol\":7986:8007  address(this).balance */\n      selfbalance\n        /* \"projects/02-access-control/contracts/03-access-control/AdvancedVault.sol\":7907:8014  function getContractBalance() external view returns (uint256) {... */\n      jump(tag_50)\n        /* \"projects/02-access-control/contracts/03-access-control/AdvancedVault.sol\":1622:1657  uint256 public dailyWithdrawalLimit */\n    tag_18:\n      callvalue\n      dup1\n      iszero\n      tag_113\n      jumpi\n      0x00\n      dup1\n      revert\n    tag_113:\n      pop\n      tag_50\n      sload(0x06)\n      dup2\n      jump\n        /* \"projects/02-access-control/contracts/03-access-control/AdvancedVault.sol\":4165:4237  function pause() external onlyRole(PAUSE_ROLE) {... */\n    tag_19:\n      callvalue\n      dup1\n      iszero\n      tag_117\n      jumpi\n      0x00\n      dup1\n      revert\n    tag_117:\n      pop\n      tag_74\n      tag_119\n      jump\t// in\n        /* \"projects/02-access-control/contracts/03-access-control/AdvancedVault.sol\":4547:4892  function updateMaxWithdrawal(uint256 newMaxWithdrawal) external onlyRole(DEFAULT_ADMIN_ROLE) {... */\n    tag_20:\n      callvalue\n      dup1\n      iszero\n      tag_120\n      jumpi\n      0x00\n      dup1\n      revert\n    tag_120:\n      pop\n      tag_74\n      tag_122\n      calldatasize\n      0x04\n      tag_52\n      jump\t// in\n    tag_122:\n      tag_123\n      jump\t// in\n        /* \"projects/02-access-control/contracts/03-access-control/AdvancedVault.sol\":1588:1616  uint256 public maxWithdrawal */\n    tag_21:\n      callvalue\n      dup1\n      iszero\n      tag_124\n      jumpi\n      0x00\n      dup1\n      revert\n    tag_124:\n      pop\n      tag_50\n      sload(0x05)\n      dup2\n      jump\n        /* \"lib/openzeppelin-contracts/contracts/access/AccessControl.sol\":3021:3166  function hasRole(bytes32 role, address account) public view virtual override returns (bool) {... */\n    tag_22:\n      callvalue\n      dup1\n      iszero\n      tag_128\n      jumpi\n      0x00\n      dup1\n      revert\n    tag_128:\n      pop\n      tag_43\n      tag_130\n      calldatasize\n      0x04\n      tag_80\n      jump\t// in\n    tag_130:\n      tag_131\n      jump\t// in\n        /* \"projects/02-access-control/contracts/03-access-control/AdvancedVault.sol\":1557:1582  uint256 public totalFunds */\n    tag_23:\n      callvalue\n      dup1\n      iszero\n      tag_133\n      jumpi\n      0x00\n      dup1\n      revert\n    tag_133:\n      pop\n      tag_50\n      sload(0x04)\n      dup2\n      jump\n        /* \"lib/openzeppelin-contracts/contracts/access/AccessControl.sol\":2153:2202  bytes32 public constant DEFAULT_ADMIN_ROLE = 0x00 */\n    tag_24:\n      callvalue\n      dup1\n      iszero\n      tag_137\n      jumpi\n      0x00\n      dup1\n      revert\n    tag_137:\n      pop\n      tag_50\n        /* \"lib/openzeppelin-contracts/contracts/access/AccessControl.sol\":2198:2202  0x00 */\n      0x00\n        /* \"lib/openzeppelin-contracts/contracts/access/AccessControl.sol\":2153:2202  bytes32 public constant DEFAULT_ADMIN_ROLE = 0x00 */\n      dup2\n      jump\n        /* \"projects/02-access-control/contracts/03-access-control/AdvancedVault.sol\":8118:8238  function getDailyWithdrawal(address user) external view returns (uint256) {... */\n    tag_25:\n      callvalue\n      dup1\n      iszero\n      tag_141\n      jumpi\n      0x00\n      dup1\n      revert\n    tag_141:\n      pop\n      tag_50\n      tag_143\n      calldatasize\n      0x04\n      tag_70\n      jump\t// in\n    tag_143:\n      sub(shl(0xa0, 0x01), 0x01)\n        /* \"projects/02-access-control/contracts/03-access-control/AdvancedVault.sol\":8209:8231  dailyWithdrawals[user] */\n      and\n        /* \"projects/02-access-control/contracts/03-access-control/AdvancedVault.sol\":8183:8190  uint256 */\n      0x00\n        /* \"projects/02-access-control/contracts/03-access-control/AdvancedVault.sol\":8209:8231  dailyWithdrawals[user] */\n      swap1\n      dup2\n      mstore\n        /* \"projects/02-access-control/contracts/03-access-control/AdvancedVault.sol\":8209:8225  dailyWithdrawals */\n      0x07\n        /* \"projects/02-access-control/contracts/03-access-control/AdvancedVault.sol\":8209:8231  dailyWithdrawals[user] */\n      0x20\n      mstore\n      0x40\n      swap1\n      keccak256\n      sload\n      swap1\n        /* \"projects/02-access-control/contracts/03-access-control/AdvancedVault.sol\":8118:8238  function getDailyWithdrawal(address user) external view returns (uint256) {... */\n      jump\n        /* \"projects/02-access-control/contracts/03-access-control/AdvancedVault.sol\":2960:3221  function deposit() external payable whenNotPaused {... */\n    tag_26:\n      tag_74\n      tag_147\n      jump\t// in\n        /* \"projects/02-access-control/contracts/03-access-control/AdvancedVault.sol\":6765:6962  function revokeRole(bytes32 role, address account) public override onlyRole(DEFAULT_ADMIN_ROLE) {... */\n    tag_27:\n      callvalue\n      dup1\n      iszero\n      tag_148\n      jumpi\n      0x00\n      dup1\n      revert\n    tag_148:\n      pop\n      tag_74\n      tag_150\n      calldatasize\n      0x04\n      tag_80\n      jump\t// in\n    tag_150:\n      tag_151\n      jump\t// in\n        /* \"projects/02-access-control/contracts/03-access-control/AdvancedVault.sol\":5816:6223  function emergencyWithdraw() external onlyRole(GUARDIAN_ROLE) {... */\n    tag_28:\n      callvalue\n      dup1\n      iszero\n      tag_152\n      jumpi\n      0x00\n      dup1\n      revert\n    tag_152:\n      pop\n      tag_74\n      tag_154\n      jump\t// in\n        /* \"projects/02-access-control/contracts/03-access-control/AdvancedVault.sol\":1198:1264  bytes32 public constant WITHDRAW_ROLE = keccak256(\"WITHDRAW_ROLE\") */\n    tag_29:\n      callvalue\n      dup1\n      iszero\n      tag_155\n      jumpi\n      0x00\n      dup1\n      revert\n    tag_155:\n      pop\n      tag_50\n        /* \"projects/02-access-control/contracts/03-access-control/AdvancedVault.sol\":1238:1264  keccak256(\"WITHDRAW_ROLE\") */\n      0x5d8e12c39142ff96d79d04d15d1ba1269e4fe57bb9d26f43523628b34ba108ec\n        /* \"projects/02-access-control/contracts/03-access-control/AdvancedVault.sol\":1198:1264  bytes32 public constant WITHDRAW_ROLE = keccak256(\"WITHDRAW_ROLE\") */\n      dup2\n      jump\n        /* \"projects/02-access-control/contracts/03-access-control/AdvancedVault.sol\":1336:1402  bytes32 public constant OPERATOR_ROLE = keccak256(\"OPERATOR_ROLE\") */\n    tag_30:\n      callvalue\n      dup1\n      iszero\n      tag_159\n      jumpi\n      0x00\n      dup1\n      revert\n    tag_159:\n      pop\n      tag_50\n        /* \"projects/02-access-control/contracts/03-access-control/AdvancedVault.sol\":1376:1402  keccak256(\"OPERATOR_ROLE\") */\n      0x97667070c54ef182b0f5858b034beac1b6f3089aa2d3188bb1e8929f4fa9b929\n        /* \"projects/02-access-control/contracts/03-access-control/AdvancedVault.sol\":1336:1402  bytes32 public constant OPERATOR_ROLE = keccak256(\"OPERATOR_ROLE\") */\n      dup2\n      jump\n        /* \"projects/02-access-control/contracts/03-access-control/AdvancedVault.sol\":5045:5383  function updateDailyLimit(uint256 newDailyLimit) external onlyRole(DEFAULT_ADMIN_ROLE) {... */\n    tag_31:\n      callvalue\n      dup1\n      iszero\n      tag_163\n      jumpi\n      0x00\n      dup1\n      revert\n    tag_163:\n      pop\n      tag_74\n      tag_165\n      calldatasize\n      0x04\n      tag_52\n      jump\t// in\n    tag_165:\n      tag_166\n      jump\t// in\n        /* \"projects/02-access-control/contracts/03-access-control/AdvancedVault.sol\":7744:7848  function getBalance(address user) external view returns (uint256) {... */\n    tag_32:\n      callvalue\n      dup1\n      iszero\n      tag_167\n      jumpi\n      0x00\n      dup1\n      revert\n    tag_167:\n      pop\n      tag_50\n      tag_169\n      calldatasize\n      0x04\n      tag_70\n      jump\t// in\n    tag_169:\n      sub(shl(0xa0, 0x01), 0x01)\n        /* \"projects/02-access-control/contracts/03-access-control/AdvancedVault.sol\":7827:7841  balances[user] */\n      and\n        /* \"projects/02-access-control/contracts/03-access-control/AdvancedVault.sol\":7801:7808  uint256 */\n      0x00\n        /* \"projects/02-access-control/contracts/03-access-control/AdvancedVault.sol\":7827:7841  balances[user] */\n      swap1\n      dup2\n      mstore\n        /* \"projects/02-access-control/contracts/03-access-control/AdvancedVault.sol\":7827:7835  balances */\n      0x03\n        /* \"projects/02-access-control/contracts/03-access-control/AdvancedVault.sol\":7827:7841  balances[user] */\n      0x20\n      mstore\n      0x40\n      swap1\n      keccak256\n      sload\n      swap1\n        /* \"projects/02-access-control/contracts/03-access-control/AdvancedVault.sol\":7744:7848  function getBalance(address user) external view returns (uint256) {... */\n      jump\n        /* \"projects/02-access-control/contracts/03-access-control/AdvancedVault.sol\":8570:8728  function supportsInterface(bytes4 interfaceId) public view override(AccessControl) returns (bool) {... */\n    tag_46:\n        /* \"projects/02-access-control/contracts/03-access-control/AdvancedVault.sol\":8662:8666  bool */\n      0x00\n        /* \"projects/02-access-control/contracts/03-access-control/AdvancedVault.sol\":8685:8721  super.supportsInterface(interfaceId) */\n      tag_173\n        /* \"projects/02-access-control/contracts/03-access-control/AdvancedVault.sol\":8709:8720  interfaceId */\n      dup3\n        /* \"projects/02-access-control/contracts/03-access-control/AdvancedVault.sol\":8685:8708  super.supportsInterface */\n      tag_174\n        /* \"projects/02-access-control/contracts/03-access-control/AdvancedVault.sol\":8685:8721  super.supportsInterface(interfaceId) */\n      jump\t// in\n    tag_173:\n        /* \"projects/02-access-control/contracts/03-access-control/AdvancedVault.sol\":8678:8721  return super.supportsInterface(interfaceId) */\n      swap3\n        /* \"projects/02-access-control/contracts/03-access-control/AdvancedVault.sol\":8570:8728  function supportsInterface(bytes4 interfaceId) public view override(AccessControl) returns (bool) {... */\n      swap2\n      pop\n      pop\n      jump\t// out\n        /* \"projects/02-access-control/contracts/03-access-control/AdvancedVault.sol\":3342:4090  function withdraw(uint256 amount) external onlyRole(WITHDRAW_ROLE) nonReentrant whenNotPaused {... */\n    tag_76:\n        /* \"projects/02-access-control/contracts/03-access-control/AdvancedVault.sol\":1238:1264  keccak256(\"WITHDRAW_ROLE\") */\n      0x5d8e12c39142ff96d79d04d15d1ba1269e4fe57bb9d26f43523628b34ba108ec\n        /* \"lib/openzeppelin-contracts/contracts/access/AccessControl.sol\":2631:2647  _checkRole(role) */\n      tag_177\n        /* \"lib/openzeppelin-contracts/contracts/access/AccessControl.sol\":2642:2646  role */\n      dup2\n        /* \"lib/openzeppelin-contracts/contracts/access/AccessControl.sol\":2631:2641  _checkRole */\n      tag_178\n        /* \"lib/openzeppelin-contracts/contracts/access/AccessControl.sol\":2631:2647  _checkRole(role) */\n      jump\t// in\n    tag_177:\n        /* \"lib/openzeppelin-contracts/contracts/security/ReentrancyGuard.sol\":2261:2282  _nonReentrantBefore() */\n      tag_180\n        /* \"lib/openzeppelin-contracts/contracts/security/ReentrancyGuard.sol\":2261:2280  _nonReentrantBefore */\n      tag_181\n        /* \"lib/openzeppelin-contracts/contracts/security/ReentrancyGuard.sol\":2261:2282  _nonReentrantBefore() */\n      jump\t// in\n    tag_180:\n        /* \"lib/openzeppelin-contracts/contracts/security/Pausable.sol\":1239:1258  _requireNotPaused() */\n      tag_183\n        /* \"lib/openzeppelin-contracts/contracts/security/Pausable.sol\":1239:1256  _requireNotPaused */\n      tag_184\n        /* \"lib/openzeppelin-contracts/contracts/security/Pausable.sol\":1239:1258  _requireNotPaused() */\n      jump\t// in\n    tag_183:\n        /* \"projects/02-access-control/contracts/03-access-control/AdvancedVault.sol\":3463:3464  0 */\n      0x00\n        /* \"projects/02-access-control/contracts/03-access-control/AdvancedVault.sol\":3454:3460  amount */\n      dup3\n        /* \"projects/02-access-control/contracts/03-access-control/AdvancedVault.sol\":3454:3464  amount > 0 */\n      gt\n        /* \"projects/02-access-control/contracts/03-access-control/AdvancedVault.sol\":3446:3498  require(amount > 0, \"Amount must be greater than 0\") */\n      tag_186\n      jumpi\n      mload(0x40)\n      shl(0xe5, 0x461bcd)\n      dup2\n      mstore\n        /* \"#utility.yul\":2061:2063   */\n      0x20\n        /* \"projects/02-access-control/contracts/03-access-control/AdvancedVault.sol\":3446:3498  require(amount > 0, \"Amount must be greater than 0\") */\n      0x04\n      dup3\n      add\n        /* \"#utility.yul\":2043:2064   */\n      mstore\n        /* \"#utility.yul\":2100:2102   */\n      0x1d\n        /* \"#utility.yul\":2080:2098   */\n      0x24\n      dup3\n      add\n        /* \"#utility.yul\":2073:2103   */\n      mstore\n        /* \"#utility.yul\":2139:2170   */\n      0x416d6f756e74206d7573742062652067726561746572207468616e2030000000\n        /* \"#utility.yul\":2119:2137   */\n      0x44\n      dup3\n      add\n        /* \"#utility.yul\":2112:2171   */\n      mstore\n        /* \"#utility.yul\":2188:2206   */\n      0x64\n      add\n        /* \"projects/02-access-control/contracts/03-access-control/AdvancedVault.sol\":3446:3498  require(amount > 0, \"Amount must be greater than 0\") */\n    tag_187:\n      mload(0x40)\n      dup1\n      swap2\n      sub\n      swap1\n      revert\n    tag_186:\n        /* \"projects/02-access-control/contracts/03-access-control/AdvancedVault.sol\":3526:3547  address(this).balance */\n      selfbalance\n        /* \"projects/02-access-control/contracts/03-access-control/AdvancedVault.sol\":3516:3522  amount */\n      dup3\n        /* \"projects/02-access-control/contracts/03-access-control/AdvancedVault.sol\":3516:3547  amount <= address(this).balance */\n      gt\n      iszero\n        /* \"projects/02-access-control/contracts/03-access-control/AdvancedVault.sol\":3508:3581  require(amount <= address(this).balance, \"Insufficient contract balance\") */\n      tag_189\n      jumpi\n      mload(0x40)\n      shl(0xe5, 0x461bcd)\n      dup2\n      mstore\n        /* \"#utility.yul\":2419:2421   */\n      0x20\n        /* \"projects/02-access-control/contracts/03-access-control/AdvancedVault.sol\":3508:3581  require(amount <= address(this).balance, \"Insufficient contract balance\") */\n      0x04\n      dup3\n      add\n        /* \"#utility.yul\":2401:2422   */\n      mstore\n        /* \"#utility.yul\":2458:2460   */\n      0x1d\n        /* \"#utility.yul\":2438:2456   */\n      0x24\n      dup3\n      add\n        /* \"#utility.yul\":2431:2461   */\n      mstore\n        /* \"#utility.yul\":2497:2528   */\n      0x496e73756666696369656e7420636f6e74726163742062616c616e6365000000\n        /* \"#utility.yul\":2477:2495   */\n      0x44\n      dup3\n      add\n        /* \"#utility.yul\":2470:2529   */\n      mstore\n        /* \"#utility.yul\":2546:2564   */\n      0x64\n      add\n        /* \"projects/02-access-control/contracts/03-access-control/AdvancedVault.sol\":3508:3581  require(amount <= address(this).balance, \"Insufficient contract balance\") */\n      tag_187\n        /* \"#utility.yul\":2217:2570   */\n      jump\n        /* \"projects/02-access-control/contracts/03-access-control/AdvancedVault.sol\":3508:3581  require(amount <= address(this).balance, \"Insufficient contract balance\") */\n    tag_189:\n        /* \"projects/02-access-control/contracts/03-access-control/AdvancedVault.sol\":3609:3622  maxWithdrawal */\n      sload(0x05)\n        /* \"projects/02-access-control/contracts/03-access-control/AdvancedVault.sol\":3599:3605  amount */\n      dup3\n        /* \"projects/02-access-control/contracts/03-access-control/AdvancedVault.sol\":3599:3622  amount <= maxWithdrawal */\n      gt\n      iszero\n        /* \"projects/02-access-control/contracts/03-access-control/AdvancedVault.sol\":3591:3655  require(amount <= maxWithdrawal, \"Exceeds max withdrawal limit\") */\n      tag_192\n      jumpi\n      mload(0x40)\n      shl(0xe5, 0x461bcd)\n      dup2\n      mstore\n        /* \"#utility.yul\":2777:2779   */\n      0x20\n        /* \"projects/02-access-control/contracts/03-access-control/AdvancedVault.sol\":3591:3655  require(amount <= maxWithdrawal, \"Exceeds max withdrawal limit\") */\n      0x04\n      dup3\n      add\n        /* \"#utility.yul\":2759:2780   */\n      mstore\n        /* \"#utility.yul\":2816:2818   */\n      0x1c\n        /* \"#utility.yul\":2796:2814   */\n      0x24\n      dup3\n      add\n        /* \"#utility.yul\":2789:2819   */\n      mstore\n        /* \"#utility.yul\":2855:2885   */\n      0x45786365656473206d6178207769746864726177616c206c696d697400000000\n        /* \"#utility.yul\":2835:2853   */\n      0x44\n      dup3\n      add\n        /* \"#utility.yul\":2828:2886   */\n      mstore\n        /* \"#utility.yul\":2903:2921   */\n      0x64\n      add\n        /* \"projects/02-access-control/contracts/03-access-control/AdvancedVault.sol\":3591:3655  require(amount <= maxWithdrawal, \"Exceeds max withdrawal limit\") */\n      tag_187\n        /* \"#utility.yul\":2575:2927   */\n      jump\n        /* \"projects/02-access-control/contracts/03-access-control/AdvancedVault.sol\":3591:3655  require(amount <= maxWithdrawal, \"Exceeds max withdrawal limit\") */\n    tag_192:\n        /* \"projects/02-access-control/contracts/03-access-control/AdvancedVault.sol\":3714:3760  _checkDailyWithdrawalLimit(msg.sender, amount) */\n      tag_195\n        /* \"projects/02-access-control/contracts/03-access-control/AdvancedVault.sol\":3741:3751  msg.sender */\n      caller\n        /* \"projects/02-access-control/contracts/03-access-control/AdvancedVault.sol\":3753:3759  amount */\n      dup4\n        /* \"projects/02-access-control/contracts/03-access-control/AdvancedVault.sol\":3714:3740  _checkDailyWithdrawalLimit */\n      tag_196\n        /* \"projects/02-access-control/contracts/03-access-control/AdvancedVault.sol\":3714:3760  _checkDailyWithdrawalLimit(msg.sender, amount) */\n      jump\t// in\n    tag_195:\n        /* \"projects/02-access-control/contracts/03-access-control/AdvancedVault.sol\":3793:3799  amount */\n      dup2\n        /* \"projects/02-access-control/contracts/03-access-control/AdvancedVault.sol\":3779:3789  totalFunds */\n      0x04\n      0x00\n        /* \"projects/02-access-control/contracts/03-access-control/AdvancedVault.sol\":3779:3799  totalFunds -= amount */\n      dup3\n      dup3\n      sload\n      tag_197\n      swap2\n      swap1\n      tag_198\n      jump\t// in\n    tag_197:\n      swap1\n      swap2\n      sstore\n      pop\n      pop\n        /* \"projects/02-access-control/contracts/03-access-control/AdvancedVault.sol\":3826:3836  msg.sender */\n      caller\n        /* \"projects/02-access-control/contracts/03-access-control/AdvancedVault.sol\":3809:3837  dailyWithdrawals[msg.sender] */\n      0x00\n      swap1\n      dup2\n      mstore\n        /* \"projects/02-access-control/contracts/03-access-control/AdvancedVault.sol\":3809:3825  dailyWithdrawals */\n      0x07\n        /* \"projects/02-access-control/contracts/03-access-control/AdvancedVault.sol\":3809:3837  dailyWithdrawals[msg.sender] */\n      0x20\n      mstore\n      0x40\n      dup2\n      keccak256\n        /* \"projects/02-access-control/contracts/03-access-control/AdvancedVault.sol\":3809:3847  dailyWithdrawals[msg.sender] += amount */\n      dup1\n      sload\n        /* \"projects/02-access-control/contracts/03-access-control/AdvancedVault.sol\":3841:3847  amount */\n      dup5\n      swap3\n        /* \"projects/02-access-control/contracts/03-access-control/AdvancedVault.sol\":3809:3837  dailyWithdrawals[msg.sender] */\n      swap1\n        /* \"projects/02-access-control/contracts/03-access-control/AdvancedVault.sol\":3809:3847  dailyWithdrawals[msg.sender] += amount */\n      tag_199\n      swap1\n        /* \"projects/02-access-control/contracts/03-access-control/AdvancedVault.sol\":3841:3847  amount */\n      dup5\n      swap1\n        /* \"projects/02-access-control/contracts/03-access-control/AdvancedVault.sol\":3809:3847  dailyWithdrawals[msg.sender] += amount */\n      tag_200\n      jump\t// in\n    tag_199:\n      swap1\n      swap2\n      sstore\n      pop\n      pop\n        /* \"projects/02-access-control/contracts/03-access-control/AdvancedVault.sol\":3866:3878  _operationId */\n      0x09\n        /* \"lib/openzeppelin-contracts/contracts/utils/Counters.sol\":1032:1051  counter._value += 1 */\n      dup1\n      sload\n        /* \"lib/openzeppelin-contracts/contracts/utils/Counters.sol\":1050:1051  1 */\n      0x01\n        /* \"lib/openzeppelin-contracts/contracts/utils/Counters.sol\":1032:1051  counter._value += 1 */\n      add\n      swap1\n      sstore\n        /* \"projects/02-access-control/contracts/03-access-control/AdvancedVault.sol\":3928:3962  msg.sender.call{value: amount}(\"\") */\n      mload(0x40)\n        /* \"projects/02-access-control/contracts/03-access-control/AdvancedVault.sol\":3910:3922  bool success */\n      0x00\n      swap1\n        /* \"projects/02-access-control/contracts/03-access-control/AdvancedVault.sol\":3928:3938  msg.sender */\n      caller\n      swap1\n        /* \"projects/02-access-control/contracts/03-access-control/AdvancedVault.sol\":3951:3957  amount */\n      dup5\n      swap1\n        /* \"projects/02-access-control/contracts/03-access-control/AdvancedVault.sol\":3910:3922  bool success */\n      dup4\n        /* \"projects/02-access-control/contracts/03-access-control/AdvancedVault.sol\":3928:3962  msg.sender.call{value: amount}(\"\") */\n      dup2\n        /* \"projects/02-access-control/contracts/03-access-control/AdvancedVault.sol\":3910:3922  bool success */\n      dup2\n        /* \"projects/02-access-control/contracts/03-access-control/AdvancedVault.sol\":3928:3962  msg.sender.call{value: amount}(\"\") */\n      dup2\n        /* \"projects/02-access-control/contracts/03-access-control/AdvancedVault.sol\":3951:3957  amount */\n      dup6\n        /* \"projects/02-access-control/contracts/03-access-control/AdvancedVault.sol\":3928:3938  msg.sender */\n      dup8\n        /* \"projects/02-access-control/contracts/03-access-control/AdvancedVault.sol\":3928:3962  msg.sender.call{value: amount}(\"\") */\n      gas\n      call\n      swap3\n      pop\n      pop\n      pop\n      returndatasize\n      dup1\n      0x00\n      dup2\n      eq\n      tag_207\n      jumpi\n      mload(0x40)\n      swap2\n      pop\n      and(add(returndatasize, 0x3f), not(0x1f))\n      dup3\n      add\n      0x40\n      mstore\n      returndatasize\n      dup3\n      mstore\n      returndatasize\n      0x00\n      0x20\n      dup5\n      add\n      returndatacopy\n      jump(tag_206)\n    tag_207:\n      0x60\n      swap2\n      pop\n    tag_206:\n      pop\n        /* \"projects/02-access-control/contracts/03-access-control/AdvancedVault.sol\":3909:3962  (bool success, ) = msg.sender.call{value: amount}(\"\") */\n      pop\n      swap1\n      pop\n        /* \"projects/02-access-control/contracts/03-access-control/AdvancedVault.sol\":3980:3987  success */\n      dup1\n        /* \"projects/02-access-control/contracts/03-access-control/AdvancedVault.sol\":3972:4007  require(success, \"Transfer failed\") */\n      tag_208\n      jumpi\n      mload(0x40)\n      shl(0xe5, 0x461bcd)\n      dup2\n      mstore\n        /* \"#utility.yul\":3739:3741   */\n      0x20\n        /* \"projects/02-access-control/contracts/03-access-control/AdvancedVault.sol\":3972:4007  require(success, \"Transfer failed\") */\n      0x04\n      dup3\n      add\n        /* \"#utility.yul\":3721:3742   */\n      mstore\n        /* \"#utility.yul\":3778:3780   */\n      0x0f\n        /* \"#utility.yul\":3758:3776   */\n      0x24\n      dup3\n      add\n        /* \"#utility.yul\":3751:3781   */\n      mstore\n      shl(0x8a, 0x151c985b9cd9995c8819985a5b1959)\n        /* \"#utility.yul\":3797:3815   */\n      0x44\n      dup3\n      add\n        /* \"#utility.yul\":3790:3835   */\n      mstore\n        /* \"#utility.yul\":3852:3870   */\n      0x64\n      add\n        /* \"projects/02-access-control/contracts/03-access-control/AdvancedVault.sol\":3972:4007  require(success, \"Transfer failed\") */\n      tag_187\n        /* \"#utility.yul\":3537:3876   */\n      jump\n        /* \"projects/02-access-control/contracts/03-access-control/AdvancedVault.sol\":3972:4007  require(success, \"Transfer failed\") */\n    tag_208:\n        /* \"projects/02-access-control/contracts/03-access-control/AdvancedVault.sol\":4040:4050  msg.sender */\n      caller\n        /* \"projects/02-access-control/contracts/03-access-control/AdvancedVault.sol\":4031:4083  Withdraw(msg.sender, amount, _operationId.current()) */\n      0xf279e6a1f5e320cca91135676d9cb6e44ca8a08c0b88342bcdb1144f6511b568\n        /* \"projects/02-access-control/contracts/03-access-control/AdvancedVault.sol\":4052:4058  amount */\n      dup5\n        /* \"projects/02-access-control/contracts/03-access-control/AdvancedVault.sol\":4060:4082  _operationId.current() */\n      tag_211\n        /* \"projects/02-access-control/contracts/03-access-control/AdvancedVault.sol\":4060:4072  _operationId */\n      0x09\n        /* \"lib/openzeppelin-contracts/contracts/utils/Counters.sol\":918:932  counter._value */\n      sload\n      swap1\n        /* \"lib/openzeppelin-contracts/contracts/utils/Counters.sol\":827:939  function current(Counter storage counter) internal view returns (uint256) {... */\n      jump\n        /* \"projects/02-access-control/contracts/03-access-control/AdvancedVault.sol\":4060:4082  _operationId.current() */\n    tag_211:\n        /* \"projects/02-access-control/contracts/03-access-control/AdvancedVault.sol\":4031:4083  Withdraw(msg.sender, amount, _operationId.current()) */\n      0x40\n      dup1\n      mload\n        /* \"#utility.yul\":4055:4080   */\n      swap3\n      dup4\n      mstore\n        /* \"#utility.yul\":4111:4113   */\n      0x20\n        /* \"#utility.yul\":4096:4114   */\n      dup4\n      add\n        /* \"#utility.yul\":4089:4123   */\n      swap2\n      swap1\n      swap2\n      mstore\n        /* \"#utility.yul\":4028:4046   */\n      add\n        /* \"projects/02-access-control/contracts/03-access-control/AdvancedVault.sol\":4031:4083  Withdraw(msg.sender, amount, _operationId.current()) */\n      mload(0x40)\n      dup1\n      swap2\n      sub\n      swap1\n      log2\n        /* \"projects/02-access-control/contracts/03-access-control/AdvancedVault.sol\":3436:4090  {... */\n      pop\n        /* \"lib/openzeppelin-contracts/contracts/security/ReentrancyGuard.sol\":2303:2323  _nonReentrantAfter() */\n      tag_215\n        /* \"lib/openzeppelin-contracts/contracts/security/ReentrancyGuard.sol\":1716:1717  1 */\n      0x01\n        /* \"lib/openzeppelin-contracts/contracts/security/ReentrancyGuard.sol\":2809:2831  _status = _NOT_ENTERED */\n      dup1\n      sstore\n        /* \"lib/openzeppelin-contracts/contracts/security/ReentrancyGuard.sol\":2629:2838  function _nonReentrantAfter() private {... */\n      jump\n        /* \"lib/openzeppelin-contracts/contracts/security/ReentrancyGuard.sol\":2303:2323  _nonReentrantAfter() */\n    tag_215:\n        /* \"projects/02-access-control/contracts/03-access-control/AdvancedVault.sol\":3342:4090  function withdraw(uint256 amount) external onlyRole(WITHDRAW_ROLE) nonReentrant whenNotPaused {... */\n      pop\n      pop\n      jump\t// out\n        /* \"projects/02-access-control/contracts/03-access-control/AdvancedVault.sol\":6393:6588  function grantRole(bytes32 role, address account) public override onlyRole(DEFAULT_ADMIN_ROLE) {... */\n    tag_81:\n        /* \"lib/openzeppelin-contracts/contracts/access/AccessControl.sol\":2198:2202  0x00 */\n      0x00\n        /* \"lib/openzeppelin-contracts/contracts/access/AccessControl.sol\":2631:2647  _checkRole(role) */\n      tag_218\n        /* \"lib/openzeppelin-contracts/contracts/access/AccessControl.sol\":2198:2202  0x00 */\n      dup2\n        /* \"lib/openzeppelin-contracts/contracts/access/AccessControl.sol\":2631:2641  _checkRole */\n      tag_178\n        /* \"lib/openzeppelin-contracts/contracts/access/AccessControl.sol\":2631:2647  _checkRole(role) */\n      jump\t// in\n    tag_218:\n        /* \"projects/02-access-control/contracts/03-access-control/AdvancedVault.sol\":6498:6528  super.grantRole(role, account) */\n      tag_220\n        /* \"projects/02-access-control/contracts/03-access-control/AdvancedVault.sol\":6514:6518  role */\n      dup4\n        /* \"projects/02-access-control/contracts/03-access-control/AdvancedVault.sol\":6520:6527  account */\n      dup4\n        /* \"projects/02-access-control/contracts/03-access-control/AdvancedVault.sol\":6498:6513  super.grantRole */\n      tag_221\n        /* \"projects/02-access-control/contracts/03-access-control/AdvancedVault.sol\":6498:6528  super.grantRole(role, account) */\n      jump\t// in\n    tag_220:\n        /* \"projects/02-access-control/contracts/03-access-control/AdvancedVault.sol\":6543:6581  RoleGranted(role, account, msg.sender) */\n      mload(0x40)\n        /* \"projects/02-access-control/contracts/03-access-control/AdvancedVault.sol\":6570:6580  msg.sender */\n      caller\n      swap1\n      sub(shl(0xa0, 0x01), 0x01)\n        /* \"projects/02-access-control/contracts/03-access-control/AdvancedVault.sol\":6543:6581  RoleGranted(role, account, msg.sender) */\n      dup5\n      and\n      swap1\n        /* \"projects/02-access-control/contracts/03-access-control/AdvancedVault.sol\":6555:6559  role */\n      dup6\n      swap1\n        /* \"projects/02-access-control/contracts/03-access-control/AdvancedVault.sol\":6543:6581  RoleGranted(role, account, msg.sender) */\n      0x2f8788117e7eff1d82e926ec794901d17c78024a50270940304540a733656f0d\n      swap1\n      0x00\n      swap1\n      log4\n        /* \"projects/02-access-control/contracts/03-access-control/AdvancedVault.sol\":6393:6588  function grantRole(bytes32 role, address account) public override onlyRole(DEFAULT_ADMIN_ROLE) {... */\n      pop\n      pop\n      pop\n      jump\t// out\n        /* \"lib/openzeppelin-contracts/contracts/access/AccessControl.sol\":6038:6252  function renounceRole(bytes32 role, address account) public virtual override {... */\n    tag_85:\n      sub(shl(0xa0, 0x01), 0x01)\n        /* \"lib/openzeppelin-contracts/contracts/access/AccessControl.sol\":6133:6156  account == _msgSender() */\n      dup2\n      and\n        /* \"lib/openzeppelin-contracts/contracts/utils/Context.sol\":719:729  msg.sender */\n      caller\n        /* \"lib/openzeppelin-contracts/contracts/access/AccessControl.sol\":6133:6156  account == _msgSender() */\n      eq\n        /* \"lib/openzeppelin-contracts/contracts/access/AccessControl.sol\":6125:6208  require(account == _msgSender(), \"AccessControl: can only renounce roles for self\") */\n      tag_225\n      jumpi\n      mload(0x40)\n      shl(0xe5, 0x461bcd)\n      dup2\n      mstore\n        /* \"#utility.yul\":4336:4338   */\n      0x20\n        /* \"lib/openzeppelin-contracts/contracts/access/AccessControl.sol\":6125:6208  require(account == _msgSender(), \"AccessControl: can only renounce roles for self\") */\n      0x04\n      dup3\n      add\n        /* \"#utility.yul\":4318:4339   */\n      mstore\n        /* \"#utility.yul\":4375:4377   */\n      0x2f\n        /* \"#utility.yul\":4355:4373   */\n      0x24\n      dup3\n      add\n        /* \"#utility.yul\":4348:4378   */\n      mstore\n        /* \"#utility.yul\":4414:4448   */\n      0x416363657373436f6e74726f6c3a2063616e206f6e6c792072656e6f756e6365\n        /* \"#utility.yul\":4394:4412   */\n      0x44\n      dup3\n      add\n        /* \"#utility.yul\":4387:4449   */\n      mstore\n      shl(0x89, 0x103937b632b9903337b91039b2b633)\n        /* \"#utility.yul\":4465:4483   */\n      0x64\n      dup3\n      add\n        /* \"#utility.yul\":4458:4503   */\n      mstore\n        /* \"#utility.yul\":4520:4539   */\n      0x84\n      add\n        /* \"lib/openzeppelin-contracts/contracts/access/AccessControl.sol\":6125:6208  require(account == _msgSender(), \"AccessControl: can only renounce roles for self\") */\n      tag_187\n        /* \"#utility.yul\":4134:4545   */\n      jump\n        /* \"lib/openzeppelin-contracts/contracts/access/AccessControl.sol\":6125:6208  require(account == _msgSender(), \"AccessControl: can only renounce roles for self\") */\n    tag_225:\n        /* \"lib/openzeppelin-contracts/contracts/access/AccessControl.sol\":6219:6245  _revokeRole(role, account) */\n      tag_215\n        /* \"lib/openzeppelin-contracts/contracts/access/AccessControl.sol\":6231:6235  role */\n      dup3\n        /* \"lib/openzeppelin-contracts/contracts/access/AccessControl.sol\":6237:6244  account */\n      dup3\n        /* \"lib/openzeppelin-contracts/contracts/access/AccessControl.sol\":6219:6230  _revokeRole */\n      tag_229\n        /* \"lib/openzeppelin-contracts/contracts/access/AccessControl.sol\":6219:6245  _revokeRole(role, account) */\n      jump\t// in\n        /* \"projects/02-access-control/contracts/03-access-control/AdvancedVault.sol\":4314:4390  function unpause() external onlyRole(PAUSE_ROLE) {... */\n    tag_92:\n        /* \"projects/02-access-control/contracts/03-access-control/AdvancedVault.sol\":1307:1330  keccak256(\"PAUSE_ROLE\") */\n      0x139c2898040ef16910dc9f44dc697df79363da767d8bc92f2e310312b816e46d\n        /* \"lib/openzeppelin-contracts/contracts/access/AccessControl.sol\":2631:2647  _checkRole(role) */\n      tag_231\n        /* \"lib/openzeppelin-contracts/contracts/access/AccessControl.sol\":2642:2646  role */\n      dup2\n        /* \"lib/openzeppelin-contracts/contracts/access/AccessControl.sol\":2631:2641  _checkRole */\n      tag_178\n        /* \"lib/openzeppelin-contracts/contracts/access/AccessControl.sol\":2631:2647  _checkRole(role) */\n      jump\t// in\n    tag_231:\n        /* \"projects/02-access-control/contracts/03-access-control/AdvancedVault.sol\":4373:4383  _unpause() */\n      tag_233\n        /* \"projects/02-access-control/contracts/03-access-control/AdvancedVault.sol\":4373:4381  _unpause */\n      tag_234\n        /* \"projects/02-access-control/contracts/03-access-control/AdvancedVault.sol\":4373:4383  _unpause() */\n      jump\t// in\n    tag_233:\n        /* \"projects/02-access-control/contracts/03-access-control/AdvancedVault.sol\":4314:4390  function unpause() external onlyRole(PAUSE_ROLE) {... */\n      pop\n      jump\t// out\n        /* \"projects/02-access-control/contracts/03-access-control/AdvancedVault.sol\":5520:5675  function emergencyPause() external onlyRole(GUARDIAN_ROLE) {... */\n    tag_100:\n        /* \"projects/02-access-control/contracts/03-access-control/AdvancedVault.sol\":1448:1474  keccak256(\"GUARDIAN_ROLE\") */\n      0x55435dd261a4b9b3364963f7738a7a662ad9c84396d64be3365284bb7f0a5041\n        /* \"lib/openzeppelin-contracts/contracts/access/AccessControl.sol\":2631:2647  _checkRole(role) */\n      tag_236\n        /* \"lib/openzeppelin-contracts/contracts/access/AccessControl.sol\":2642:2646  role */\n      dup2\n        /* \"lib/openzeppelin-contracts/contracts/access/AccessControl.sol\":2631:2641  _checkRole */\n      tag_178\n        /* \"lib/openzeppelin-contracts/contracts/access/AccessControl.sol\":2631:2647  _checkRole(role) */\n      jump\t// in\n    tag_236:\n        /* \"projects/02-access-control/contracts/03-access-control/AdvancedVault.sol\":5589:5597  _pause() */\n      tag_238\n        /* \"projects/02-access-control/contracts/03-access-control/AdvancedVault.sol\":5589:5595  _pause */\n      tag_239\n        /* \"projects/02-access-control/contracts/03-access-control/AdvancedVault.sol\":5589:5597  _pause() */\n      jump\t// in\n    tag_238:\n        /* \"projects/02-access-control/contracts/03-access-control/AdvancedVault.sol\":5628:5638  msg.sender */\n      caller\n      sub(shl(0xa0, 0x01), 0x01)\n        /* \"projects/02-access-control/contracts/03-access-control/AdvancedVault.sol\":5612:5668  EmergencyAction(msg.sender, \"Emergency pause activated\") */\n      and\n      0xadd39274de8dd8b809f76ff95f1489f4d93c1ae807bcb035ab8cee8d68a1af1b\n      mload(0x40)\n      tag_240\n      swap1\n        /* \"#utility.yul\":4752:4754   */\n      0x20\n        /* \"#utility.yul\":4734:4755   */\n      dup1\n      dup3\n      mstore\n        /* \"#utility.yul\":4791:4793   */\n      0x19\n        /* \"#utility.yul\":4771:4789   */\n      swap1\n      dup3\n      add\n        /* \"#utility.yul\":4764:4794   */\n      mstore\n        /* \"#utility.yul\":4830:4857   */\n      0x456d657267656e63792070617573652061637469766174656400000000000000\n        /* \"#utility.yul\":4825:4827   */\n      0x40\n        /* \"#utility.yul\":4810:4828   */\n      dup3\n      add\n        /* \"#utility.yul\":4803:4858   */\n      mstore\n        /* \"#utility.yul\":4890:4892   */\n      0x60\n        /* \"#utility.yul\":4875:4893   */\n      add\n      swap1\n        /* \"#utility.yul\":4550:4899   */\n      jump\n        /* \"projects/02-access-control/contracts/03-access-control/AdvancedVault.sol\":5612:5668  EmergencyAction(msg.sender, \"Emergency pause activated\") */\n    tag_240:\n      mload(0x40)\n      dup1\n      swap2\n      sub\n      swap1\n      log2\n        /* \"projects/02-access-control/contracts/03-access-control/AdvancedVault.sol\":5520:5675  function emergencyPause() external onlyRole(GUARDIAN_ROLE) {... */\n      pop\n      jump\t// out\n        /* \"projects/02-access-control/contracts/03-access-control/AdvancedVault.sol\":8296:8403  function getOperationCount() external view returns (uint256) {... */\n    tag_103:\n        /* \"projects/02-access-control/contracts/03-access-control/AdvancedVault.sol\":8348:8355  uint256 */\n      0x00\n        /* \"projects/02-access-control/contracts/03-access-control/AdvancedVault.sol\":8374:8396  _operationId.current() */\n      tag_243\n        /* \"projects/02-access-control/contracts/03-access-control/AdvancedVault.sol\":8374:8386  _operationId */\n      0x09\n        /* \"lib/openzeppelin-contracts/contracts/utils/Counters.sol\":918:932  counter._value */\n      sload\n      swap1\n        /* \"lib/openzeppelin-contracts/contracts/utils/Counters.sol\":827:939  function current(Counter storage counter) internal view returns (uint256) {... */\n      jump\n        /* \"projects/02-access-control/contracts/03-access-control/AdvancedVault.sol\":8374:8396  _operationId.current() */\n    tag_243:\n        /* \"projects/02-access-control/contracts/03-access-control/AdvancedVault.sol\":8367:8396  return _operationId.current() */\n      swap1\n      pop\n        /* \"projects/02-access-control/contracts/03-access-control/AdvancedVault.sol\":8296:8403  function getOperationCount() external view returns (uint256) {... */\n      swap1\n      jump\t// out\n        /* \"projects/02-access-control/contracts/03-access-control/AdvancedVault.sol\":4165:4237  function pause() external onlyRole(PAUSE_ROLE) {... */\n    tag_119:\n        /* \"projects/02-access-control/contracts/03-access-control/AdvancedVault.sol\":1307:1330  keccak256(\"PAUSE_ROLE\") */\n      0x139c2898040ef16910dc9f44dc697df79363da767d8bc92f2e310312b816e46d\n        /* \"lib/openzeppelin-contracts/contracts/access/AccessControl.sol\":2631:2647  _checkRole(role) */\n      tag_247\n        /* \"lib/openzeppelin-contracts/contracts/access/AccessControl.sol\":2642:2646  role */\n      dup2\n        /* \"lib/openzeppelin-contracts/contracts/access/AccessControl.sol\":2631:2641  _checkRole */\n      tag_178\n        /* \"lib/openzeppelin-contracts/contracts/access/AccessControl.sol\":2631:2647  _checkRole(role) */\n      jump\t// in\n    tag_247:\n        /* \"projects/02-access-control/contracts/03-access-control/AdvancedVault.sol\":4222:4230  _pause() */\n      tag_233\n        /* \"projects/02-access-control/contracts/03-access-control/AdvancedVault.sol\":4222:4228  _pause */\n      tag_239\n        /* \"projects/02-access-control/contracts/03-access-control/AdvancedVault.sol\":4222:4230  _pause() */\n      jump\t// in\n        /* \"projects/02-access-control/contracts/03-access-control/AdvancedVault.sol\":4547:4892  function updateMaxWithdrawal(uint256 newMaxWithdrawal) external onlyRole(DEFAULT_ADMIN_ROLE) {... */\n    tag_123:\n        /* \"lib/openzeppelin-contracts/contracts/access/AccessControl.sol\":2198:2202  0x00 */\n      0x00\n        /* \"lib/openzeppelin-contracts/contracts/access/AccessControl.sol\":2631:2647  _checkRole(role) */\n      tag_251\n        /* \"lib/openzeppelin-contracts/contracts/access/AccessControl.sol\":2198:2202  0x00 */\n      dup2\n        /* \"lib/openzeppelin-contracts/contracts/access/AccessControl.sol\":2631:2641  _checkRole */\n      tag_178\n        /* \"lib/openzeppelin-contracts/contracts/access/AccessControl.sol\":2631:2647  _checkRole(role) */\n      jump\t// in\n    tag_251:\n        /* \"projects/02-access-control/contracts/03-access-control/AdvancedVault.sol\":4677:4678  0 */\n      0x00\n        /* \"projects/02-access-control/contracts/03-access-control/AdvancedVault.sol\":4658:4674  newMaxWithdrawal */\n      dup3\n        /* \"projects/02-access-control/contracts/03-access-control/AdvancedVault.sol\":4658:4678  newMaxWithdrawal > 0 */\n      gt\n        /* \"projects/02-access-control/contracts/03-access-control/AdvancedVault.sol\":4650:4720  require(newMaxWithdrawal > 0, \"Max withdrawal must be greater than 0\") */\n      tag_253\n      jumpi\n      mload(0x40)\n      shl(0xe5, 0x461bcd)\n      dup2\n      mstore\n        /* \"#utility.yul\":5106:5108   */\n      0x20\n        /* \"projects/02-access-control/contracts/03-access-control/AdvancedVault.sol\":4650:4720  require(newMaxWithdrawal > 0, \"Max withdrawal must be greater than 0\") */\n      0x04\n      dup3\n      add\n        /* \"#utility.yul\":5088:5109   */\n      mstore\n        /* \"#utility.yul\":5145:5147   */\n      0x25\n        /* \"#utility.yul\":5125:5143   */\n      0x24\n      dup3\n      add\n        /* \"#utility.yul\":5118:5148   */\n      mstore\n        /* \"#utility.yul\":5184:5218   */\n      0x4d6178207769746864726177616c206d75737420626520677265617465722074\n        /* \"#utility.yul\":5164:5182   */\n      0x44\n      dup3\n      add\n        /* \"#utility.yul\":5157:5219   */\n      mstore\n      shl(0xdc, 0x068616e203)\n        /* \"#utility.yul\":5235:5253   */\n      0x64\n      dup3\n      add\n        /* \"#utility.yul\":5228:5263   */\n      mstore\n        /* \"#utility.yul\":5280:5299   */\n      0x84\n      add\n        /* \"projects/02-access-control/contracts/03-access-control/AdvancedVault.sol\":4650:4720  require(newMaxWithdrawal > 0, \"Max withdrawal must be greater than 0\") */\n      tag_187\n        /* \"#utility.yul\":4904:5305   */\n      jump\n        /* \"projects/02-access-control/contracts/03-access-control/AdvancedVault.sol\":4650:4720  require(newMaxWithdrawal > 0, \"Max withdrawal must be greater than 0\") */\n    tag_253:\n        /* \"projects/02-access-control/contracts/03-access-control/AdvancedVault.sol\":4758:4771  maxWithdrawal */\n      0x05\n      dup1\n      sload\n        /* \"projects/02-access-control/contracts/03-access-control/AdvancedVault.sol\":4781:4813  maxWithdrawal = newMaxWithdrawal */\n      swap1\n      dup4\n      swap1\n      sstore\n        /* \"projects/02-access-control/contracts/03-access-control/AdvancedVault.sol\":4837:4885  MaxWithdrawalUpdated(oldValue, newMaxWithdrawal) */\n      0x40\n      dup1\n      mload\n        /* \"#utility.yul\":4055:4080   */\n      dup3\n      dup2\n      mstore\n        /* \"#utility.yul\":4111:4113   */\n      0x20\n        /* \"#utility.yul\":4096:4114   */\n      dup2\n      add\n        /* \"#utility.yul\":4089:4123   */\n      dup6\n      swap1\n      mstore\n        /* \"projects/02-access-control/contracts/03-access-control/AdvancedVault.sol\":4837:4885  MaxWithdrawalUpdated(oldValue, newMaxWithdrawal) */\n      0x4a91b35fe9913ecc73c195a97ed30c0d98b57337f0039f9e1f0c017962192f38\n      swap2\n        /* \"#utility.yul\":4028:4046   */\n      add\n        /* \"projects/02-access-control/contracts/03-access-control/AdvancedVault.sol\":4837:4885  MaxWithdrawalUpdated(oldValue, newMaxWithdrawal) */\n    tag_256:\n      mload(0x40)\n      dup1\n      swap2\n      sub\n      swap1\n      log1\n        /* \"projects/02-access-control/contracts/03-access-control/AdvancedVault.sol\":4640:4892  {... */\n      pop\n        /* \"projects/02-access-control/contracts/03-access-control/AdvancedVault.sol\":4547:4892  function updateMaxWithdrawal(uint256 newMaxWithdrawal) external onlyRole(DEFAULT_ADMIN_ROLE) {... */\n      pop\n      pop\n      jump\t// out\n        /* \"lib/openzeppelin-contracts/contracts/access/AccessControl.sol\":3021:3166  function hasRole(bytes32 role, address account) public view virtual override returns (bool) {... */\n    tag_131:\n        /* \"lib/openzeppelin-contracts/contracts/access/AccessControl.sol\":3107:3111  bool */\n      0x00\n        /* \"lib/openzeppelin-contracts/contracts/access/AccessControl.sol\":3130:3142  _roles[role] */\n      swap2\n      dup3\n      mstore\n      0x20\n      dup3\n      dup2\n      mstore\n      0x40\n      dup1\n      dup5\n      keccak256\n      sub(shl(0xa0, 0x01), 0x01)\n        /* \"lib/openzeppelin-contracts/contracts/access/AccessControl.sol\":3130:3159  _roles[role].members[account] */\n      swap4\n      swap1\n      swap4\n      and\n      dup5\n      mstore\n      swap2\n      swap1\n      mstore\n      swap1\n      keccak256\n      sload\n      0xff\n      and\n      swap1\n        /* \"lib/openzeppelin-contracts/contracts/access/AccessControl.sol\":3021:3166  function hasRole(bytes32 role, address account) public view virtual override returns (bool) {... */\n      jump\t// out\n        /* \"projects/02-access-control/contracts/03-access-control/AdvancedVault.sol\":2960:3221  function deposit() external payable whenNotPaused {... */\n    tag_147:\n        /* \"lib/openzeppelin-contracts/contracts/security/Pausable.sol\":1239:1258  _requireNotPaused() */\n      tag_260\n        /* \"lib/openzeppelin-contracts/contracts/security/Pausable.sol\":1239:1256  _requireNotPaused */\n      tag_184\n        /* \"lib/openzeppelin-contracts/contracts/security/Pausable.sol\":1239:1258  _requireNotPaused() */\n      jump\t// in\n    tag_260:\n        /* \"projects/02-access-control/contracts/03-access-control/AdvancedVault.sol\":3040:3041  0 */\n      0x00\n        /* \"projects/02-access-control/contracts/03-access-control/AdvancedVault.sol\":3028:3037  msg.value */\n      callvalue\n        /* \"projects/02-access-control/contracts/03-access-control/AdvancedVault.sol\":3028:3041  msg.value > 0 */\n      gt\n        /* \"projects/02-access-control/contracts/03-access-control/AdvancedVault.sol\":3020:3075  require(msg.value > 0, \"Amount must be greater than 0\") */\n      tag_262\n      jumpi\n      mload(0x40)\n      shl(0xe5, 0x461bcd)\n      dup2\n      mstore\n        /* \"#utility.yul\":2061:2063   */\n      0x20\n        /* \"projects/02-access-control/contracts/03-access-control/AdvancedVault.sol\":3020:3075  require(msg.value > 0, \"Amount must be greater than 0\") */\n      0x04\n      dup3\n      add\n        /* \"#utility.yul\":2043:2064   */\n      mstore\n        /* \"#utility.yul\":2100:2102   */\n      0x1d\n        /* \"#utility.yul\":2080:2098   */\n      0x24\n      dup3\n      add\n        /* \"#utility.yul\":2073:2103   */\n      mstore\n        /* \"#utility.yul\":2139:2170   */\n      0x416d6f756e74206d7573742062652067726561746572207468616e2030000000\n        /* \"#utility.yul\":2119:2137   */\n      0x44\n      dup3\n      add\n        /* \"#utility.yul\":2112:2171   */\n      mstore\n        /* \"#utility.yul\":2188:2206   */\n      0x64\n      add\n        /* \"projects/02-access-control/contracts/03-access-control/AdvancedVault.sol\":3020:3075  require(msg.value > 0, \"Amount must be greater than 0\") */\n      tag_187\n        /* \"#utility.yul\":1859:2212   */\n      jump\n        /* \"projects/02-access-control/contracts/03-access-control/AdvancedVault.sol\":3020:3075  require(msg.value > 0, \"Amount must be greater than 0\") */\n    tag_262:\n        /* \"projects/02-access-control/contracts/03-access-control/AdvancedVault.sol\":3103:3113  msg.sender */\n      caller\n        /* \"projects/02-access-control/contracts/03-access-control/AdvancedVault.sol\":3094:3114  balances[msg.sender] */\n      0x00\n      swap1\n      dup2\n      mstore\n        /* \"projects/02-access-control/contracts/03-access-control/AdvancedVault.sol\":3094:3102  balances */\n      0x03\n        /* \"projects/02-access-control/contracts/03-access-control/AdvancedVault.sol\":3094:3114  balances[msg.sender] */\n      0x20\n      mstore\n      0x40\n      dup2\n      keccak256\n        /* \"projects/02-access-control/contracts/03-access-control/AdvancedVault.sol\":3094:3127  balances[msg.sender] += msg.value */\n      dup1\n      sload\n        /* \"projects/02-access-control/contracts/03-access-control/AdvancedVault.sol\":3118:3127  msg.value */\n      callvalue\n      swap3\n        /* \"projects/02-access-control/contracts/03-access-control/AdvancedVault.sol\":3094:3114  balances[msg.sender] */\n      swap1\n        /* \"projects/02-access-control/contracts/03-access-control/AdvancedVault.sol\":3094:3127  balances[msg.sender] += msg.value */\n      tag_264\n      swap1\n        /* \"projects/02-access-control/contracts/03-access-control/AdvancedVault.sol\":3118:3127  msg.value */\n      dup5\n      swap1\n        /* \"projects/02-access-control/contracts/03-access-control/AdvancedVault.sol\":3094:3127  balances[msg.sender] += msg.value */\n      tag_200\n      jump\t// in\n    tag_264:\n      swap3\n      pop\n      pop\n      dup2\n      swap1\n      sstore\n      pop\n        /* \"projects/02-access-control/contracts/03-access-control/AdvancedVault.sol\":3151:3160  msg.value */\n      callvalue\n        /* \"projects/02-access-control/contracts/03-access-control/AdvancedVault.sol\":3137:3147  totalFunds */\n      0x04\n      0x00\n        /* \"projects/02-access-control/contracts/03-access-control/AdvancedVault.sol\":3137:3160  totalFunds += msg.value */\n      dup3\n      dup3\n      sload\n      tag_265\n      swap2\n      swap1\n      tag_200\n      jump\t// in\n    tag_265:\n      swap1\n      swap2\n      sstore\n      pop\n      pop\n        /* \"projects/02-access-control/contracts/03-access-control/AdvancedVault.sol\":3184:3214  Deposit(msg.sender, msg.value) */\n      mload(0x40)\n        /* \"projects/02-access-control/contracts/03-access-control/AdvancedVault.sol\":3204:3213  msg.value */\n      callvalue\n        /* \"#utility.yul\":828:853   */\n      dup2\n      mstore\n        /* \"projects/02-access-control/contracts/03-access-control/AdvancedVault.sol\":3192:3202  msg.sender */\n      caller\n      swap1\n        /* \"projects/02-access-control/contracts/03-access-control/AdvancedVault.sol\":3184:3214  Deposit(msg.sender, msg.value) */\n      0xe1fffcc4923d04b559f4d29a8bfc6cda04eb5b0d3c460751c2402c5c5cc9109c\n      swap1\n        /* \"#utility.yul\":816:818   */\n      0x20\n        /* \"#utility.yul\":801:819   */\n      add\n        /* \"projects/02-access-control/contracts/03-access-control/AdvancedVault.sol\":3184:3214  Deposit(msg.sender, msg.value) */\n      mload(0x40)\n      dup1\n      swap2\n      sub\n      swap1\n      log2\n        /* \"projects/02-access-control/contracts/03-access-control/AdvancedVault.sol\":2960:3221  function deposit() external payable whenNotPaused {... */\n      jump\t// out\n        /* \"projects/02-access-control/contracts/03-access-control/AdvancedVault.sol\":6765:6962  function revokeRole(bytes32 role, address account) public override onlyRole(DEFAULT_ADMIN_ROLE) {... */\n    tag_151:\n        /* \"lib/openzeppelin-contracts/contracts/access/AccessControl.sol\":2198:2202  0x00 */\n      0x00\n        /* \"lib/openzeppelin-contracts/contracts/access/AccessControl.sol\":2631:2647  _checkRole(role) */\n      tag_268\n        /* \"lib/openzeppelin-contracts/contracts/access/AccessControl.sol\":2198:2202  0x00 */\n      dup2\n        /* \"lib/openzeppelin-contracts/contracts/access/AccessControl.sol\":2631:2641  _checkRole */\n      tag_178\n        /* \"lib/openzeppelin-contracts/contracts/access/AccessControl.sol\":2631:2647  _checkRole(role) */\n      jump\t// in\n    tag_268:\n        /* \"projects/02-access-control/contracts/03-access-control/AdvancedVault.sol\":6871:6902  super.revokeRole(role, account) */\n      tag_270\n        /* \"projects/02-access-control/contracts/03-access-control/AdvancedVault.sol\":6888:6892  role */\n      dup4\n        /* \"projects/02-access-control/contracts/03-access-control/AdvancedVault.sol\":6894:6901  account */\n      dup4\n        /* \"projects/02-access-control/contracts/03-access-control/AdvancedVault.sol\":6871:6887  super.revokeRole */\n      tag_271\n        /* \"projects/02-access-control/contracts/03-access-control/AdvancedVault.sol\":6871:6902  super.revokeRole(role, account) */\n      jump\t// in\n    tag_270:\n        /* \"projects/02-access-control/contracts/03-access-control/AdvancedVault.sol\":6917:6955  RoleRevoked(role, account, msg.sender) */\n      mload(0x40)\n        /* \"projects/02-access-control/contracts/03-access-control/AdvancedVault.sol\":6944:6954  msg.sender */\n      caller\n      swap1\n      sub(shl(0xa0, 0x01), 0x01)\n        /* \"projects/02-access-control/contracts/03-access-control/AdvancedVault.sol\":6917:6955  RoleRevoked(role, account, msg.sender) */\n      dup5\n      and\n      swap1\n        /* \"projects/02-access-control/contracts/03-access-control/AdvancedVault.sol\":6929:6933  role */\n      dup6\n      swap1\n        /* \"projects/02-access-control/contracts/03-access-control/AdvancedVault.sol\":6917:6955  RoleRevoked(role, account, msg.sender) */\n      0xf6391f5c32d9c69d2a47ea670b442974b53935d1edc7fd64eb21e047a839171b\n      swap1\n      0x00\n      swap1\n      log4\n        /* \"projects/02-access-control/contracts/03-access-control/AdvancedVault.sol\":6765:6962  function revokeRole(bytes32 role, address account) public override onlyRole(DEFAULT_ADMIN_ROLE) {... */\n      pop\n      pop\n      pop\n      jump\t// out\n        /* \"projects/02-access-control/contracts/03-access-control/AdvancedVault.sol\":5816:6223  function emergencyWithdraw() external onlyRole(GUARDIAN_ROLE) {... */\n    tag_154:\n        /* \"projects/02-access-control/contracts/03-access-control/AdvancedVault.sol\":1448:1474  keccak256(\"GUARDIAN_ROLE\") */\n      0x55435dd261a4b9b3364963f7738a7a662ad9c84396d64be3365284bb7f0a5041\n        /* \"lib/openzeppelin-contracts/contracts/access/AccessControl.sol\":2631:2647  _checkRole(role) */\n      tag_273\n        /* \"lib/openzeppelin-contracts/contracts/access/AccessControl.sol\":2642:2646  role */\n      dup2\n        /* \"lib/openzeppelin-contracts/contracts/access/AccessControl.sol\":2631:2641  _checkRole */\n      tag_178\n        /* \"lib/openzeppelin-contracts/contracts/access/AccessControl.sol\":2631:2647  _checkRole(role) */\n      jump\t// in\n    tag_273:\n        /* \"projects/02-access-control/contracts/03-access-control/AdvancedVault.sol\":5906:5927  address(this).balance */\n      selfbalance\n        /* \"projects/02-access-control/contracts/03-access-control/AdvancedVault.sol\":5945:5956  balance > 0 */\n      dup1\n        /* \"projects/02-access-control/contracts/03-access-control/AdvancedVault.sol\":5937:5981  require(balance > 0, \"No funds to withdraw\") */\n      tag_275\n      jumpi\n      mload(0x40)\n      shl(0xe5, 0x461bcd)\n      dup2\n      mstore\n        /* \"#utility.yul\":5512:5514   */\n      0x20\n        /* \"projects/02-access-control/contracts/03-access-control/AdvancedVault.sol\":5937:5981  require(balance > 0, \"No funds to withdraw\") */\n      0x04\n      dup3\n      add\n        /* \"#utility.yul\":5494:5515   */\n      mstore\n        /* \"#utility.yul\":5551:5553   */\n      0x14\n        /* \"#utility.yul\":5531:5549   */\n      0x24\n      dup3\n      add\n        /* \"#utility.yul\":5524:5554   */\n      mstore\n      shl(0x60, 0x4e6f2066756e647320746f207769746864726177)\n        /* \"#utility.yul\":5570:5588   */\n      0x44\n      dup3\n      add\n        /* \"#utility.yul\":5563:5613   */\n      mstore\n        /* \"#utility.yul\":5630:5648   */\n      0x64\n      add\n        /* \"projects/02-access-control/contracts/03-access-control/AdvancedVault.sol\":5937:5981  require(balance > 0, \"No funds to withdraw\") */\n      tag_187\n        /* \"#utility.yul\":5310:5654   */\n      jump\n        /* \"projects/02-access-control/contracts/03-access-control/AdvancedVault.sol\":5937:5981  require(balance > 0, \"No funds to withdraw\") */\n    tag_275:\n        /* \"projects/02-access-control/contracts/03-access-control/AdvancedVault.sol\":6013:6014  0 */\n      0x00\n        /* \"projects/02-access-control/contracts/03-access-control/AdvancedVault.sol\":6000:6010  totalFunds */\n      0x04\n        /* \"projects/02-access-control/contracts/03-access-control/AdvancedVault.sol\":6000:6014  totalFunds = 0 */\n      dup2\n      swap1\n      sstore\n        /* \"projects/02-access-control/contracts/03-access-control/AdvancedVault.sol\":6052:6087  msg.sender.call{value: balance}(\"\") */\n      mload(0x40)\n        /* \"projects/02-access-control/contracts/03-access-control/AdvancedVault.sol\":6052:6062  msg.sender */\n      caller\n      swap1\n        /* \"projects/02-access-control/contracts/03-access-control/AdvancedVault.sol\":6075:6082  balance */\n      dup4\n      swap1\n        /* \"projects/02-access-control/contracts/03-access-control/AdvancedVault.sol\":6013:6014  0 */\n      dup4\n        /* \"projects/02-access-control/contracts/03-access-control/AdvancedVault.sol\":6052:6087  msg.sender.call{value: balance}(\"\") */\n      dup2\n        /* \"projects/02-access-control/contracts/03-access-control/AdvancedVault.sol\":6013:6014  0 */\n      dup2\n        /* \"projects/02-access-control/contracts/03-access-control/AdvancedVault.sol\":6052:6087  msg.sender.call{value: balance}(\"\") */\n      dup2\n        /* \"projects/02-access-control/contracts/03-access-control/AdvancedVault.sol\":6075:6082  balance */\n      dup6\n        /* \"projects/02-access-control/contracts/03-access-control/AdvancedVault.sol\":6052:6062  msg.sender */\n      dup8\n        /* \"projects/02-access-control/contracts/03-access-control/AdvancedVault.sol\":6052:6087  msg.sender.call{value: balance}(\"\") */\n      gas\n      call\n      swap3\n      pop\n      pop\n      pop\n      returndatasize\n      dup1\n      0x00\n      dup2\n      eq\n      tag_281\n      jumpi\n      mload(0x40)\n      swap2\n      pop\n      and(add(returndatasize, 0x3f), not(0x1f))\n      dup3\n      add\n      0x40\n      mstore\n      returndatasize\n      dup3\n      mstore\n      returndatasize\n      0x00\n      0x20\n      dup5\n      add\n      returndatacopy\n      jump(tag_280)\n    tag_281:\n      0x60\n      swap2\n      pop\n    tag_280:\n      pop\n        /* \"projects/02-access-control/contracts/03-access-control/AdvancedVault.sol\":6033:6087  (bool success, ) = msg.sender.call{value: balance}(\"\") */\n      pop\n      swap1\n      pop\n        /* \"projects/02-access-control/contracts/03-access-control/AdvancedVault.sol\":6105:6112  success */\n      dup1\n        /* \"projects/02-access-control/contracts/03-access-control/AdvancedVault.sol\":6097:6132  require(success, \"Transfer failed\") */\n      tag_282\n      jumpi\n      mload(0x40)\n      shl(0xe5, 0x461bcd)\n      dup2\n      mstore\n        /* \"#utility.yul\":3739:3741   */\n      0x20\n        /* \"projects/02-access-control/contracts/03-access-control/AdvancedVault.sol\":6097:6132  require(success, \"Transfer failed\") */\n      0x04\n      dup3\n      add\n        /* \"#utility.yul\":3721:3742   */\n      mstore\n        /* \"#utility.yul\":3778:3780   */\n      0x0f\n        /* \"#utility.yul\":3758:3776   */\n      0x24\n      dup3\n      add\n        /* \"#utility.yul\":3751:3781   */\n      mstore\n      shl(0x8a, 0x151c985b9cd9995c8819985a5b1959)\n        /* \"#utility.yul\":3797:3815   */\n      0x44\n      dup3\n      add\n        /* \"#utility.yul\":3790:3835   */\n      mstore\n        /* \"#utility.yul\":3852:3870   */\n      0x64\n      add\n        /* \"projects/02-access-control/contracts/03-access-control/AdvancedVault.sol\":6097:6132  require(success, \"Transfer failed\") */\n      tag_187\n        /* \"#utility.yul\":3537:3876   */\n      jump\n        /* \"projects/02-access-control/contracts/03-access-control/AdvancedVault.sol\":6097:6132  require(success, \"Transfer failed\") */\n    tag_282:\n        /* \"projects/02-access-control/contracts/03-access-control/AdvancedVault.sol\":6172:6182  msg.sender */\n      caller\n      sub(shl(0xa0, 0x01), 0x01)\n        /* \"projects/02-access-control/contracts/03-access-control/AdvancedVault.sol\":6156:6216  EmergencyAction(msg.sender, \"Emergency withdrawal executed\") */\n      and\n      0xadd39274de8dd8b809f76ff95f1489f4d93c1ae807bcb035ab8cee8d68a1af1b\n      mload(0x40)\n      tag_284\n      swap1\n        /* \"#utility.yul\":5861:5863   */\n      0x20\n        /* \"#utility.yul\":5843:5864   */\n      dup1\n      dup3\n      mstore\n        /* \"#utility.yul\":5900:5902   */\n      0x1d\n        /* \"#utility.yul\":5880:5898   */\n      swap1\n      dup3\n      add\n        /* \"#utility.yul\":5873:5903   */\n      mstore\n        /* \"#utility.yul\":5939:5970   */\n      0x456d657267656e6379207769746864726177616c206578656375746564000000\n        /* \"#utility.yul\":5934:5936   */\n      0x40\n        /* \"#utility.yul\":5919:5937   */\n      dup3\n      add\n        /* \"#utility.yul\":5912:5971   */\n      mstore\n        /* \"#utility.yul\":6003:6005   */\n      0x60\n        /* \"#utility.yul\":5988:6006   */\n      add\n      swap1\n        /* \"#utility.yul\":5659:6012   */\n      jump\n        /* \"projects/02-access-control/contracts/03-access-control/AdvancedVault.sol\":6156:6216  EmergencyAction(msg.sender, \"Emergency withdrawal executed\") */\n    tag_284:\n      mload(0x40)\n      dup1\n      swap2\n      sub\n      swap1\n      log2\n        /* \"projects/02-access-control/contracts/03-access-control/AdvancedVault.sol\":5878:6223  {... */\n      pop\n      pop\n        /* \"projects/02-access-control/contracts/03-access-control/AdvancedVault.sol\":5816:6223  function emergencyWithdraw() external onlyRole(GUARDIAN_ROLE) {... */\n      pop\n      jump\t// out\n        /* \"projects/02-access-control/contracts/03-access-control/AdvancedVault.sol\":5045:5383  function updateDailyLimit(uint256 newDailyLimit) external onlyRole(DEFAULT_ADMIN_ROLE) {... */\n    tag_166:\n        /* \"lib/openzeppelin-contracts/contracts/access/AccessControl.sol\":2198:2202  0x00 */\n      0x00\n        /* \"lib/openzeppelin-contracts/contracts/access/AccessControl.sol\":2631:2647  _checkRole(role) */\n      tag_287\n        /* \"lib/openzeppelin-contracts/contracts/access/AccessControl.sol\":2198:2202  0x00 */\n      dup2\n        /* \"lib/openzeppelin-contracts/contracts/access/AccessControl.sol\":2631:2641  _checkRole */\n      tag_178\n        /* \"lib/openzeppelin-contracts/contracts/access/AccessControl.sol\":2631:2647  _checkRole(role) */\n      jump\t// in\n    tag_287:\n        /* \"projects/02-access-control/contracts/03-access-control/AdvancedVault.sol\":5166:5167  0 */\n      0x00\n        /* \"projects/02-access-control/contracts/03-access-control/AdvancedVault.sol\":5150:5163  newDailyLimit */\n      dup3\n        /* \"projects/02-access-control/contracts/03-access-control/AdvancedVault.sol\":5150:5167  newDailyLimit > 0 */\n      gt\n        /* \"projects/02-access-control/contracts/03-access-control/AdvancedVault.sol\":5142:5206  require(newDailyLimit > 0, \"Daily limit must be greater than 0\") */\n      tag_289\n      jumpi\n      mload(0x40)\n      shl(0xe5, 0x461bcd)\n      dup2\n      mstore\n        /* \"#utility.yul\":6219:6221   */\n      0x20\n        /* \"projects/02-access-control/contracts/03-access-control/AdvancedVault.sol\":5142:5206  require(newDailyLimit > 0, \"Daily limit must be greater than 0\") */\n      0x04\n      dup3\n      add\n        /* \"#utility.yul\":6201:6222   */\n      mstore\n        /* \"#utility.yul\":6258:6260   */\n      0x22\n        /* \"#utility.yul\":6238:6256   */\n      0x24\n      dup3\n      add\n        /* \"#utility.yul\":6231:6261   */\n      mstore\n        /* \"#utility.yul\":6297:6331   */\n      0x4461696c79206c696d6974206d7573742062652067726561746572207468616e\n        /* \"#utility.yul\":6277:6295   */\n      0x44\n      dup3\n      add\n        /* \"#utility.yul\":6270:6332   */\n      mstore\n      shl(0xf4, 0x0203)\n        /* \"#utility.yul\":6348:6366   */\n      0x64\n      dup3\n      add\n        /* \"#utility.yul\":6341:6373   */\n      mstore\n        /* \"#utility.yul\":6390:6409   */\n      0x84\n      add\n        /* \"projects/02-access-control/contracts/03-access-control/AdvancedVault.sol\":5142:5206  require(newDailyLimit > 0, \"Daily limit must be greater than 0\") */\n      tag_187\n        /* \"#utility.yul\":6017:6415   */\n      jump\n        /* \"projects/02-access-control/contracts/03-access-control/AdvancedVault.sol\":5142:5206  require(newDailyLimit > 0, \"Daily limit must be greater than 0\") */\n    tag_289:\n        /* \"projects/02-access-control/contracts/03-access-control/AdvancedVault.sol\":5244:5264  dailyWithdrawalLimit */\n      0x06\n      dup1\n      sload\n        /* \"projects/02-access-control/contracts/03-access-control/AdvancedVault.sol\":5274:5310  dailyWithdrawalLimit = newDailyLimit */\n      swap1\n      dup4\n      swap1\n      sstore\n        /* \"projects/02-access-control/contracts/03-access-control/AdvancedVault.sol\":5334:5376  DailyLimitUpdated(oldValue, newDailyLimit) */\n      0x40\n      dup1\n      mload\n        /* \"#utility.yul\":4055:4080   */\n      dup3\n      dup2\n      mstore\n        /* \"#utility.yul\":4111:4113   */\n      0x20\n        /* \"#utility.yul\":4096:4114   */\n      dup2\n      add\n        /* \"#utility.yul\":4089:4123   */\n      dup6\n      swap1\n      mstore\n        /* \"projects/02-access-control/contracts/03-access-control/AdvancedVault.sol\":5334:5376  DailyLimitUpdated(oldValue, newDailyLimit) */\n      0x207c4cbdf55ec315a13f0d5e047732ec5d947da056e706593aa509909941cedf\n      swap2\n        /* \"#utility.yul\":4028:4046   */\n      add\n        /* \"projects/02-access-control/contracts/03-access-control/AdvancedVault.sol\":5334:5376  DailyLimitUpdated(oldValue, newDailyLimit) */\n      tag_256\n        /* \"#utility.yul\":3881:4129   */\n      jump\n        /* \"lib/openzeppelin-contracts/contracts/access/AccessControl.sol\":2732:2934  function supportsInterface(bytes4 interfaceId) public view virtual override returns (bool) {... */\n    tag_174:\n        /* \"lib/openzeppelin-contracts/contracts/access/AccessControl.sol\":2817:2821  bool */\n      0x00\n      not(sub(shl(0xe0, 0x01), 0x01))\n        /* \"lib/openzeppelin-contracts/contracts/access/AccessControl.sol\":2840:2887  interfaceId == type(IAccessControl).interfaceId */\n      dup3\n      and\n      shl(0xe0, 0x7965db0b)\n      eq\n      dup1\n        /* \"lib/openzeppelin-contracts/contracts/access/AccessControl.sol\":2840:2927  interfaceId == type(IAccessControl).interfaceId || super.supportsInterface(interfaceId) */\n      tag_173\n      jumpi\n      pop\n      shl(0xe0, 0x01ffc9a7)\n      not(sub(shl(0xe0, 0x01), 0x01))\n        /* \"lib/openzeppelin-contracts/contracts/utils/introspection/ERC165.sol\":937:977  interfaceId == type(IERC165).interfaceId */\n      dup4\n      and\n      eq\n        /* \"lib/openzeppelin-contracts/contracts/access/AccessControl.sol\":2891:2927  super.supportsInterface(interfaceId) */\n      tag_173\n        /* \"lib/openzeppelin-contracts/contracts/utils/introspection/ERC165.sol\":829:984  function supportsInterface(bytes4 interfaceId) public view virtual override returns (bool) {... */\n      jump\n        /* \"lib/openzeppelin-contracts/contracts/access/AccessControl.sol\":3460:3563  function _checkRole(bytes32 role) internal view virtual {... */\n    tag_178:\n        /* \"lib/openzeppelin-contracts/contracts/access/AccessControl.sol\":3526:3556  _checkRole(role, _msgSender()) */\n      tag_233\n        /* \"lib/openzeppelin-contracts/contracts/access/AccessControl.sol\":3537:3541  role */\n      dup2\n        /* \"lib/openzeppelin-contracts/contracts/utils/Context.sol\":719:729  msg.sender */\n      caller\n        /* \"lib/openzeppelin-contracts/contracts/access/AccessControl.sol\":3526:3536  _checkRole */\n      tag_301\n        /* \"lib/openzeppelin-contracts/contracts/access/AccessControl.sol\":3526:3556  _checkRole(role, _msgSender()) */\n      jump\t// in\n        /* \"lib/openzeppelin-contracts/contracts/security/ReentrancyGuard.sol\":2336:2623  function _nonReentrantBefore() private {... */\n    tag_181:\n        /* \"lib/openzeppelin-contracts/contracts/security/ReentrancyGuard.sol\":1759:1760  2 */\n      0x02\n        /* \"lib/openzeppelin-contracts/contracts/security/ReentrancyGuard.sol\":2468:2475  _status */\n      sload(0x01)\n        /* \"lib/openzeppelin-contracts/contracts/security/ReentrancyGuard.sol\":2468:2487  _status != _ENTERED */\n      sub\n        /* \"lib/openzeppelin-contracts/contracts/security/ReentrancyGuard.sol\":2460:2523  require(_status != _ENTERED, \"ReentrancyGuard: reentrant call\") */\n      tag_303\n      jumpi\n      mload(0x40)\n      shl(0xe5, 0x461bcd)\n      dup2\n      mstore\n        /* \"#utility.yul\":6622:6624   */\n      0x20\n        /* \"lib/openzeppelin-contracts/contracts/security/ReentrancyGuard.sol\":2460:2523  require(_status != _ENTERED, \"ReentrancyGuard: reentrant call\") */\n      0x04\n      dup3\n      add\n        /* \"#utility.yul\":6604:6625   */\n      mstore\n        /* \"#utility.yul\":6661:6663   */\n      0x1f\n        /* \"#utility.yul\":6641:6659   */\n      0x24\n      dup3\n      add\n        /* \"#utility.yul\":6634:6664   */\n      mstore\n        /* \"#utility.yul\":6700:6733   */\n      0x5265656e7472616e637947756172643a207265656e7472616e742063616c6c00\n        /* \"#utility.yul\":6680:6698   */\n      0x44\n      dup3\n      add\n        /* \"#utility.yul\":6673:6734   */\n      mstore\n        /* \"#utility.yul\":6751:6769   */\n      0x64\n      add\n        /* \"lib/openzeppelin-contracts/contracts/security/ReentrancyGuard.sol\":2460:2523  require(_status != _ENTERED, \"ReentrancyGuard: reentrant call\") */\n      tag_187\n        /* \"#utility.yul\":6420:6775   */\n      jump\n        /* \"lib/openzeppelin-contracts/contracts/security/ReentrancyGuard.sol\":2460:2523  require(_status != _ENTERED, \"ReentrancyGuard: reentrant call\") */\n    tag_303:\n        /* \"lib/openzeppelin-contracts/contracts/security/ReentrancyGuard.sol\":1759:1760  2 */\n      0x02\n        /* \"lib/openzeppelin-contracts/contracts/security/ReentrancyGuard.sol\":2598:2605  _status */\n      0x01\n        /* \"lib/openzeppelin-contracts/contracts/security/ReentrancyGuard.sol\":2598:2616  _status = _ENTERED */\n      sstore\n        /* \"lib/openzeppelin-contracts/contracts/security/ReentrancyGuard.sol\":2336:2623  function _nonReentrantBefore() private {... */\n      jump\t// out\n        /* \"lib/openzeppelin-contracts/contracts/security/Pausable.sol\":1767:1873  function _requireNotPaused() internal view virtual {... */\n    tag_184:\n        /* \"lib/openzeppelin-contracts/contracts/security/Pausable.sol\":1685:1692  _paused */\n      and(0xff, sload(0x02))\n        /* \"lib/openzeppelin-contracts/contracts/security/Pausable.sol\":1836:1845  !paused() */\n      iszero\n        /* \"lib/openzeppelin-contracts/contracts/security/Pausable.sol\":1828:1866  require(!paused(), \"Pausable: paused\") */\n      tag_308\n      jumpi\n      mload(0x40)\n      shl(0xe5, 0x461bcd)\n      dup2\n      mstore\n        /* \"#utility.yul\":6982:6984   */\n      0x20\n        /* \"lib/openzeppelin-contracts/contracts/security/Pausable.sol\":1828:1866  require(!paused(), \"Pausable: paused\") */\n      0x04\n      dup3\n      add\n        /* \"#utility.yul\":6964:6985   */\n      mstore\n        /* \"#utility.yul\":7021:7023   */\n      0x10\n        /* \"#utility.yul\":7001:7019   */\n      0x24\n      dup3\n      add\n        /* \"#utility.yul\":6994:7024   */\n      mstore\n      shl(0x82, 0x14185d5cd8589b194e881c185d5cd959)\n        /* \"#utility.yul\":7040:7058   */\n      0x44\n      dup3\n      add\n        /* \"#utility.yul\":7033:7079   */\n      mstore\n        /* \"#utility.yul\":7096:7114   */\n      0x64\n      add\n        /* \"lib/openzeppelin-contracts/contracts/security/Pausable.sol\":1828:1866  require(!paused(), \"Pausable: paused\") */\n      tag_187\n        /* \"#utility.yul\":6780:7120   */\n      jump\n        /* \"lib/openzeppelin-contracts/contracts/security/Pausable.sol\":1828:1866  require(!paused(), \"Pausable: paused\") */\n    tag_308:\n        /* \"lib/openzeppelin-contracts/contracts/security/Pausable.sol\":1767:1873  function _requireNotPaused() internal view virtual {... */\n      jump\t// out\n        /* \"projects/02-access-control/contracts/03-access-control/AdvancedVault.sol\":7114:7653  function _checkDailyWithdrawalLimit(address user, uint256 amount) internal {... */\n    tag_196:\n        /* \"projects/02-access-control/contracts/03-access-control/AdvancedVault.sol\":7199:7212  uint256 today */\n      0x00\n        /* \"projects/02-access-control/contracts/03-access-control/AdvancedVault.sol\":7215:7239  block.timestamp / 1 days */\n      tag_312\n        /* \"projects/02-access-control/contracts/03-access-control/AdvancedVault.sol\":7233:7239  1 days */\n      0x015180\n        /* \"projects/02-access-control/contracts/03-access-control/AdvancedVault.sol\":7215:7230  block.timestamp */\n      timestamp\n        /* \"projects/02-access-control/contracts/03-access-control/AdvancedVault.sol\":7215:7239  block.timestamp / 1 days */\n      tag_313\n      jump\t// in\n    tag_312:\n      sub(shl(0xa0, 0x01), 0x01)\n        /* \"projects/02-access-control/contracts/03-access-control/AdvancedVault.sol\":7340:7362  uint256(uint160(user)) */\n      dup5\n      and\n        /* \"projects/02-access-control/contracts/03-access-control/AdvancedVault.sol\":7314:7363  dailyWithdrawalTimestamps[uint256(uint160(user))] */\n      0x00\n      swap1\n      dup2\n      mstore\n        /* \"projects/02-access-control/contracts/03-access-control/AdvancedVault.sol\":7314:7339  dailyWithdrawalTimestamps */\n      0x08\n        /* \"projects/02-access-control/contracts/03-access-control/AdvancedVault.sol\":7314:7363  dailyWithdrawalTimestamps[uint256(uint160(user))] */\n      0x20\n      mstore\n      0x40\n      swap1\n      keccak256\n      sload\n        /* \"projects/02-access-control/contracts/03-access-control/AdvancedVault.sol\":7199:7239  uint256 today = block.timestamp / 1 days */\n      swap1\n      swap2\n      pop\n        /* \"projects/02-access-control/contracts/03-access-control/AdvancedVault.sol\":7314:7372  dailyWithdrawalTimestamps[uint256(uint160(user))] != today */\n      dup2\n      eq\n        /* \"projects/02-access-control/contracts/03-access-control/AdvancedVault.sol\":7310:7496  if (dailyWithdrawalTimestamps[uint256(uint160(user))] != today) {... */\n      tag_314\n      jumpi\n      sub(shl(0xa0, 0x01), 0x01)\n        /* \"projects/02-access-control/contracts/03-access-control/AdvancedVault.sol\":7388:7410  dailyWithdrawals[user] */\n      dup4\n      and\n        /* \"projects/02-access-control/contracts/03-access-control/AdvancedVault.sol\":7413:7414  0 */\n      0x00\n        /* \"projects/02-access-control/contracts/03-access-control/AdvancedVault.sol\":7388:7410  dailyWithdrawals[user] */\n      swap1\n      dup2\n      mstore\n        /* \"projects/02-access-control/contracts/03-access-control/AdvancedVault.sol\":7388:7404  dailyWithdrawals */\n      0x07\n        /* \"projects/02-access-control/contracts/03-access-control/AdvancedVault.sol\":7388:7410  dailyWithdrawals[user] */\n      0x20\n      swap1\n      dup2\n      mstore\n      0x40\n      dup1\n      dup4\n      keccak256\n        /* \"projects/02-access-control/contracts/03-access-control/AdvancedVault.sol\":7388:7414  dailyWithdrawals[user] = 0 */\n      dup4\n      swap1\n      sstore\n        /* \"projects/02-access-control/contracts/03-access-control/AdvancedVault.sol\":7428:7453  dailyWithdrawalTimestamps */\n      0x08\n        /* \"projects/02-access-control/contracts/03-access-control/AdvancedVault.sol\":7428:7477  dailyWithdrawalTimestamps[uint256(uint160(user))] */\n      swap1\n      swap2\n      mstore\n      swap1\n      keccak256\n        /* \"projects/02-access-control/contracts/03-access-control/AdvancedVault.sol\":7428:7485  dailyWithdrawalTimestamps[uint256(uint160(user))] = today */\n      dup2\n      swap1\n      sstore\n        /* \"projects/02-access-control/contracts/03-access-control/AdvancedVault.sol\":7310:7496  if (dailyWithdrawalTimestamps[uint256(uint160(user))] != today) {... */\n    tag_314:\n        /* \"projects/02-access-control/contracts/03-access-control/AdvancedVault.sol\":7570:7590  dailyWithdrawalLimit */\n      sload(0x06)\n      sub(shl(0xa0, 0x01), 0x01)\n        /* \"projects/02-access-control/contracts/03-access-control/AdvancedVault.sol\":7535:7557  dailyWithdrawals[user] */\n      dup5\n      and\n      0x00\n      swap1\n      dup2\n      mstore\n        /* \"projects/02-access-control/contracts/03-access-control/AdvancedVault.sol\":7535:7551  dailyWithdrawals */\n      0x07\n        /* \"projects/02-access-control/contracts/03-access-control/AdvancedVault.sol\":7535:7557  dailyWithdrawals[user] */\n      0x20\n      mstore\n      0x40\n      swap1\n      keccak256\n      sload\n        /* \"projects/02-access-control/contracts/03-access-control/AdvancedVault.sol\":7535:7566  dailyWithdrawals[user] + amount */\n      tag_315\n      swap1\n        /* \"projects/02-access-control/contracts/03-access-control/AdvancedVault.sol\":7560:7566  amount */\n      dup5\n      swap1\n        /* \"projects/02-access-control/contracts/03-access-control/AdvancedVault.sol\":7535:7566  dailyWithdrawals[user] + amount */\n      tag_200\n      jump\t// in\n    tag_315:\n        /* \"projects/02-access-control/contracts/03-access-control/AdvancedVault.sol\":7535:7590  dailyWithdrawals[user] + amount <= dailyWithdrawalLimit */\n      gt\n      iszero\n        /* \"projects/02-access-control/contracts/03-access-control/AdvancedVault.sol\":7514:7646  require(... */\n      tag_316\n      jumpi\n      mload(0x40)\n      shl(0xe5, 0x461bcd)\n      dup2\n      mstore\n        /* \"#utility.yul\":7549:7551   */\n      0x20\n        /* \"projects/02-access-control/contracts/03-access-control/AdvancedVault.sol\":7514:7646  require(... */\n      0x04\n      dup3\n      add\n        /* \"#utility.yul\":7531:7552   */\n      mstore\n        /* \"#utility.yul\":7588:7590   */\n      0x1e\n        /* \"#utility.yul\":7568:7586   */\n      0x24\n      dup3\n      add\n        /* \"#utility.yul\":7561:7591   */\n      mstore\n        /* \"#utility.yul\":7627:7659   */\n      0x45786365656473206461696c79207769746864726177616c206c696d69740000\n        /* \"#utility.yul\":7607:7625   */\n      0x44\n      dup3\n      add\n        /* \"#utility.yul\":7600:7660   */\n      mstore\n        /* \"#utility.yul\":7677:7695   */\n      0x64\n      add\n        /* \"projects/02-access-control/contracts/03-access-control/AdvancedVault.sol\":7514:7646  require(... */\n      tag_187\n        /* \"#utility.yul\":7347:7701   */\n      jump\n        /* \"projects/02-access-control/contracts/03-access-control/AdvancedVault.sol\":7514:7646  require(... */\n    tag_316:\n        /* \"projects/02-access-control/contracts/03-access-control/AdvancedVault.sol\":7189:7653  {... */\n      pop\n        /* \"projects/02-access-control/contracts/03-access-control/AdvancedVault.sol\":7114:7653  function _checkDailyWithdrawalLimit(address user, uint256 amount) internal {... */\n      pop\n      pop\n      jump\t// out\n        /* \"lib/openzeppelin-contracts/contracts/access/AccessControl.sol\":4929:5074  function grantRole(bytes32 role, address account) public virtual override onlyRole(getRoleAdmin(role)) {... */\n    tag_221:\n        /* \"lib/openzeppelin-contracts/contracts/access/AccessControl.sol\":4578:4585  bytes32 */\n      0x00\n        /* \"lib/openzeppelin-contracts/contracts/access/AccessControl.sol\":4604:4616  _roles[role] */\n      dup3\n      dup2\n      mstore\n      0x20\n      dup2\n      swap1\n      mstore\n      0x40\n      swap1\n      keccak256\n        /* \"lib/openzeppelin-contracts/contracts/access/AccessControl.sol\":4604:4626  _roles[role].adminRole */\n      0x01\n      add\n      sload\n        /* \"lib/openzeppelin-contracts/contracts/access/AccessControl.sol\":2631:2647  _checkRole(role) */\n      tag_324\n        /* \"lib/openzeppelin-contracts/contracts/access/AccessControl.sol\":2642:2646  role */\n      dup2\n        /* \"lib/openzeppelin-contracts/contracts/access/AccessControl.sol\":2631:2641  _checkRole */\n      tag_178\n        /* \"lib/openzeppelin-contracts/contracts/access/AccessControl.sol\":2631:2647  _checkRole(role) */\n      jump\t// in\n    tag_324:\n        /* \"lib/openzeppelin-contracts/contracts/access/AccessControl.sol\":5042:5067  _grantRole(role, account) */\n      tag_316\n        /* \"lib/openzeppelin-contracts/contracts/access/AccessControl.sol\":5053:5057  role */\n      dup4\n        /* \"lib/openzeppelin-contracts/contracts/access/AccessControl.sol\":5059:5066  account */\n      dup4\n        /* \"lib/openzeppelin-contracts/contracts/access/AccessControl.sol\":5042:5052  _grantRole */\n      tag_327\n        /* \"lib/openzeppelin-contracts/contracts/access/AccessControl.sol\":5042:5067  _grantRole(role, account) */\n      jump\t// in\n        /* \"lib/openzeppelin-contracts/contracts/access/AccessControl.sol\":7991:8225  function _revokeRole(bytes32 role, address account) internal virtual {... */\n    tag_229:\n        /* \"lib/openzeppelin-contracts/contracts/access/AccessControl.sol\":8074:8096  hasRole(role, account) */\n      tag_330\n        /* \"lib/openzeppelin-contracts/contracts/access/AccessControl.sol\":8082:8086  role */\n      dup3\n        /* \"lib/openzeppelin-contracts/contracts/access/AccessControl.sol\":8088:8095  account */\n      dup3\n        /* \"lib/openzeppelin-contracts/contracts/access/AccessControl.sol\":8074:8081  hasRole */\n      tag_131\n        /* \"lib/openzeppelin-contracts/contracts/access/AccessControl.sol\":8074:8096  hasRole(role, account) */\n      jump\t// in\n    tag_330:\n        /* \"lib/openzeppelin-contracts/contracts/access/AccessControl.sol\":8070:8219  if (hasRole(role, account)) {... */\n      iszero\n      tag_215\n      jumpi\n        /* \"lib/openzeppelin-contracts/contracts/access/AccessControl.sol\":8144:8149  false */\n      0x00\n        /* \"lib/openzeppelin-contracts/contracts/access/AccessControl.sol\":8112:8124  _roles[role] */\n      dup3\n      dup2\n      mstore\n      0x20\n      dup2\n      dup2\n      mstore\n      0x40\n      dup1\n      dup4\n      keccak256\n      sub(shl(0xa0, 0x01), 0x01)\n        /* \"lib/openzeppelin-contracts/contracts/access/AccessControl.sol\":8112:8141  _roles[role].members[account] */\n      dup6\n      and\n      dup1\n      dup6\n      mstore\n      swap3\n      mstore\n      dup1\n      dup4\n      keccak256\n        /* \"lib/openzeppelin-contracts/contracts/access/AccessControl.sol\":8112:8149  _roles[role].members[account] = false */\n      dup1\n      sload\n      not(0xff)\n      and\n      swap1\n      sstore\n        /* \"lib/openzeppelin-contracts/contracts/access/AccessControl.sol\":8168:8208  RoleRevoked(role, account, _msgSender()) */\n      mload\n        /* \"lib/openzeppelin-contracts/contracts/utils/Context.sol\":719:729  msg.sender */\n      caller\n      swap3\n        /* \"lib/openzeppelin-contracts/contracts/access/AccessControl.sol\":8112:8124  _roles[role] */\n      dup6\n      swap2\n        /* \"lib/openzeppelin-contracts/contracts/access/AccessControl.sol\":8168:8208  RoleRevoked(role, account, _msgSender()) */\n      0xf6391f5c32d9c69d2a47ea670b442974b53935d1edc7fd64eb21e047a839171b\n      swap2\n        /* \"lib/openzeppelin-contracts/contracts/access/AccessControl.sol\":8144:8149  false */\n      swap1\n        /* \"lib/openzeppelin-contracts/contracts/access/AccessControl.sol\":8168:8208  RoleRevoked(role, account, _msgSender()) */\n      log4\n        /* \"lib/openzeppelin-contracts/contracts/access/AccessControl.sol\":7991:8225  function _revokeRole(bytes32 role, address account) internal virtual {... */\n      pop\n      pop\n      jump\t// out\n        /* \"lib/openzeppelin-contracts/contracts/security/Pausable.sol\":2433:2550  function _unpause() internal virtual whenPaused {... */\n    tag_234:\n        /* \"lib/openzeppelin-contracts/contracts/security/Pausable.sol\":1486:1502  _requirePaused() */\n      tag_334\n        /* \"lib/openzeppelin-contracts/contracts/security/Pausable.sol\":1486:1500  _requirePaused */\n      tag_335\n        /* \"lib/openzeppelin-contracts/contracts/security/Pausable.sol\":1486:1502  _requirePaused() */\n      jump\t// in\n    tag_334:\n        /* \"lib/openzeppelin-contracts/contracts/security/Pausable.sol\":2491:2498  _paused */\n      0x02\n        /* \"lib/openzeppelin-contracts/contracts/security/Pausable.sol\":2491:2506  _paused = false */\n      dup1\n      sload\n      not(0xff)\n      and\n      swap1\n      sstore\n        /* \"lib/openzeppelin-contracts/contracts/security/Pausable.sol\":2521:2543  Unpaused(_msgSender()) */\n      0x5db9ee0a495bf2e6ff9c91a7834c1ba4fdd244a5e8aa4e537bd38aeae4b073aa\n        /* \"lib/openzeppelin-contracts/contracts/utils/Context.sol\":719:729  msg.sender */\n      caller\n        /* \"lib/openzeppelin-contracts/contracts/security/Pausable.sol\":2530:2542  _msgSender() */\n    tag_337:\n        /* \"lib/openzeppelin-contracts/contracts/security/Pausable.sol\":2521:2543  Unpaused(_msgSender()) */\n      mload(0x40)\n      sub(shl(0xa0, 0x01), 0x01)\n        /* \"#utility.yul\":7870:7902   */\n      swap1\n      swap2\n      and\n        /* \"#utility.yul\":7852:7903   */\n      dup2\n      mstore\n        /* \"#utility.yul\":7840:7842   */\n      0x20\n        /* \"#utility.yul\":7825:7843   */\n      add\n        /* \"lib/openzeppelin-contracts/contracts/security/Pausable.sol\":2521:2543  Unpaused(_msgSender()) */\n      mload(0x40)\n      dup1\n      swap2\n      sub\n      swap1\n      log1\n        /* \"lib/openzeppelin-contracts/contracts/security/Pausable.sol\":2433:2550  function _unpause() internal virtual whenPaused {... */\n      jump\t// out\n        /* \"lib/openzeppelin-contracts/contracts/security/Pausable.sol\":2186:2301  function _pause() internal virtual whenNotPaused {... */\n    tag_239:\n        /* \"lib/openzeppelin-contracts/contracts/security/Pausable.sol\":1239:1258  _requireNotPaused() */\n      tag_341\n        /* \"lib/openzeppelin-contracts/contracts/security/Pausable.sol\":1239:1256  _requireNotPaused */\n      tag_184\n        /* \"lib/openzeppelin-contracts/contracts/security/Pausable.sol\":1239:1258  _requireNotPaused() */\n      jump\t// in\n    tag_341:\n        /* \"lib/openzeppelin-contracts/contracts/security/Pausable.sol\":2245:2252  _paused */\n      0x02\n        /* \"lib/openzeppelin-contracts/contracts/security/Pausable.sol\":2245:2259  _paused = true */\n      dup1\n      sload\n      not(0xff)\n      and\n        /* \"lib/openzeppelin-contracts/contracts/security/Pausable.sol\":2255:2259  true */\n      0x01\n        /* \"lib/openzeppelin-contracts/contracts/security/Pausable.sol\":2245:2259  _paused = true */\n      or\n      swap1\n      sstore\n        /* \"lib/openzeppelin-contracts/contracts/security/Pausable.sol\":2274:2294  Paused(_msgSender()) */\n      0x62e78cea01bee320cd4e420270b5ea74000d11b0c9f74754ebdbfc544b05a258\n        /* \"lib/openzeppelin-contracts/contracts/security/Pausable.sol\":2281:2293  _msgSender() */\n      tag_337\n        /* \"lib/openzeppelin-contracts/contracts/utils/Context.sol\":719:729  msg.sender */\n      caller\n      swap1\n        /* \"lib/openzeppelin-contracts/contracts/utils/Context.sol\":640:736  function _msgSender() internal view virtual returns (address) {... */\n      jump\n        /* \"lib/openzeppelin-contracts/contracts/access/AccessControl.sol\":5354:5501  function revokeRole(bytes32 role, address account) public virtual override onlyRole(getRoleAdmin(role)) {... */\n    tag_271:\n        /* \"lib/openzeppelin-contracts/contracts/access/AccessControl.sol\":4578:4585  bytes32 */\n      0x00\n        /* \"lib/openzeppelin-contracts/contracts/access/AccessControl.sol\":4604:4616  _roles[role] */\n      dup3\n      dup2\n      mstore\n      0x20\n      dup2\n      swap1\n      mstore\n      0x40\n      swap1\n      keccak256\n        /* \"lib/openzeppelin-contracts/contracts/access/AccessControl.sol\":4604:4626  _roles[role].adminRole */\n      0x01\n      add\n      sload\n        /* \"lib/openzeppelin-contracts/contracts/access/AccessControl.sol\":2631:2647  _checkRole(role) */\n      tag_347\n        /* \"lib/openzeppelin-contracts/contracts/access/AccessControl.sol\":2642:2646  role */\n      dup2\n        /* \"lib/openzeppelin-contracts/contracts/access/AccessControl.sol\":2631:2641  _checkRole */\n      tag_178\n        /* \"lib/openzeppelin-contracts/contracts/access/AccessControl.sol\":2631:2647  _checkRole(role) */\n      jump\t// in\n    tag_347:\n        /* \"lib/openzeppelin-contracts/contracts/access/AccessControl.sol\":5468:5494  _revokeRole(role, account) */\n      tag_316\n        /* \"lib/openzeppelin-contracts/contracts/access/AccessControl.sol\":5480:5484  role */\n      dup4\n        /* \"lib/openzeppelin-contracts/contracts/access/AccessControl.sol\":5486:5493  account */\n      dup4\n        /* \"lib/openzeppelin-contracts/contracts/access/AccessControl.sol\":5468:5479  _revokeRole */\n      tag_229\n        /* \"lib/openzeppelin-contracts/contracts/access/AccessControl.sol\":5468:5494  _revokeRole(role, account) */\n      jump\t// in\n        /* \"lib/openzeppelin-contracts/contracts/access/AccessControl.sol\":3844:4323  function _checkRole(bytes32 role, address account) internal view virtual {... */\n    tag_301:\n        /* \"lib/openzeppelin-contracts/contracts/access/AccessControl.sol\":3932:3954  hasRole(role, account) */\n      tag_352\n        /* \"lib/openzeppelin-contracts/contracts/access/AccessControl.sol\":3940:3944  role */\n      dup3\n        /* \"lib/openzeppelin-contracts/contracts/access/AccessControl.sol\":3946:3953  account */\n      dup3\n        /* \"lib/openzeppelin-contracts/contracts/access/AccessControl.sol\":3932:3939  hasRole */\n      tag_131\n        /* \"lib/openzeppelin-contracts/contracts/access/AccessControl.sol\":3932:3954  hasRole(role, account) */\n      jump\t// in\n    tag_352:\n        /* \"lib/openzeppelin-contracts/contracts/access/AccessControl.sol\":3927:4317  if (!hasRole(role, account)) {... */\n      tag_215\n      jumpi\n        /* \"lib/openzeppelin-contracts/contracts/access/AccessControl.sol\":4115:4143  Strings.toHexString(account) */\n      tag_354\n        /* \"lib/openzeppelin-contracts/contracts/access/AccessControl.sol\":4135:4142  account */\n      dup2\n        /* \"lib/openzeppelin-contracts/contracts/access/AccessControl.sol\":4115:4134  Strings.toHexString */\n      tag_355\n        /* \"lib/openzeppelin-contracts/contracts/access/AccessControl.sol\":4115:4143  Strings.toHexString(account) */\n      jump\t// in\n    tag_354:\n        /* \"lib/openzeppelin-contracts/contracts/access/AccessControl.sol\":4214:4252  Strings.toHexString(uint256(role), 32) */\n      tag_356\n        /* \"lib/openzeppelin-contracts/contracts/access/AccessControl.sol\":4242:4246  role */\n      dup4\n        /* \"lib/openzeppelin-contracts/contracts/access/AccessControl.sol\":4249:4251  32 */\n      0x20\n        /* \"lib/openzeppelin-contracts/contracts/access/AccessControl.sol\":4214:4233  Strings.toHexString */\n      tag_357\n        /* \"lib/openzeppelin-contracts/contracts/access/AccessControl.sol\":4214:4252  Strings.toHexString(uint256(role), 32) */\n      jump\t// in\n    tag_356:\n        /* \"lib/openzeppelin-contracts/contracts/access/AccessControl.sol\":4022:4274  abi.encodePacked(... */\n      add(0x20, mload(0x40))\n      tag_358\n      swap3\n      swap2\n      swap1\n      tag_359\n      jump\t// in\n    tag_358:\n      0x40\n      dup1\n      mload\n      not(0x1f)\n      dup2\n      dup5\n      sub\n      add\n      dup2\n      mstore\n      swap1\n      dup3\n      swap1\n      mstore\n      shl(0xe5, 0x461bcd)\n        /* \"lib/openzeppelin-contracts/contracts/access/AccessControl.sol\":3970:4306  revert(... */\n      dup3\n      mstore\n      tag_187\n      swap2\n      0x04\n      add\n      tag_361\n      jump\t// in\n        /* \"lib/openzeppelin-contracts/contracts/access/AccessControl.sol\":7587:7820  function _grantRole(bytes32 role, address account) internal virtual {... */\n    tag_327:\n        /* \"lib/openzeppelin-contracts/contracts/access/AccessControl.sol\":7670:7692  hasRole(role, account) */\n      tag_363\n        /* \"lib/openzeppelin-contracts/contracts/access/AccessControl.sol\":7678:7682  role */\n      dup3\n        /* \"lib/openzeppelin-contracts/contracts/access/AccessControl.sol\":7684:7691  account */\n      dup3\n        /* \"lib/openzeppelin-contracts/contracts/access/AccessControl.sol\":7670:7677  hasRole */\n      tag_131\n        /* \"lib/openzeppelin-contracts/contracts/access/AccessControl.sol\":7670:7692  hasRole(role, account) */\n      jump\t// in\n    tag_363:\n        /* \"lib/openzeppelin-contracts/contracts/access/AccessControl.sol\":7665:7814  if (!hasRole(role, account)) {... */\n      tag_215\n      jumpi\n        /* \"lib/openzeppelin-contracts/contracts/access/AccessControl.sol\":7708:7714  _roles */\n      0x00\n        /* \"lib/openzeppelin-contracts/contracts/access/AccessControl.sol\":7708:7720  _roles[role] */\n      dup3\n      dup2\n      mstore\n      0x20\n      dup2\n      dup2\n      mstore\n      0x40\n      dup1\n      dup4\n      keccak256\n      sub(shl(0xa0, 0x01), 0x01)\n        /* \"lib/openzeppelin-contracts/contracts/access/AccessControl.sol\":7708:7737  _roles[role].members[account] */\n      dup6\n      and\n      dup5\n      mstore\n      swap1\n      swap2\n      mstore\n      swap1\n      keccak256\n        /* \"lib/openzeppelin-contracts/contracts/access/AccessControl.sol\":7708:7744  _roles[role].members[account] = true */\n      dup1\n      sload\n      not(0xff)\n      and\n        /* \"lib/openzeppelin-contracts/contracts/access/AccessControl.sol\":7740:7744  true */\n      0x01\n        /* \"lib/openzeppelin-contracts/contracts/access/AccessControl.sol\":7708:7744  _roles[role].members[account] = true */\n      or\n      swap1\n      sstore\n        /* \"lib/openzeppelin-contracts/contracts/access/AccessControl.sol\":7790:7802  _msgSender() */\n      tag_365\n        /* \"lib/openzeppelin-contracts/contracts/utils/Context.sol\":719:729  msg.sender */\n      caller\n      swap1\n        /* \"lib/openzeppelin-contracts/contracts/utils/Context.sol\":640:736  function _msgSender() internal view virtual returns (address) {... */\n      jump\n        /* \"lib/openzeppelin-contracts/contracts/access/AccessControl.sol\":7790:7802  _msgSender() */\n    tag_365:\n      sub(shl(0xa0, 0x01), 0x01)\n        /* \"lib/openzeppelin-contracts/contracts/access/AccessControl.sol\":7763:7803  RoleGranted(role, account, _msgSender()) */\n      and\n        /* \"lib/openzeppelin-contracts/contracts/access/AccessControl.sol\":7781:7788  account */\n      dup2\n      sub(shl(0xa0, 0x01), 0x01)\n        /* \"lib/openzeppelin-contracts/contracts/access/AccessControl.sol\":7763:7803  RoleGranted(role, account, _msgSender()) */\n      and\n        /* \"lib/openzeppelin-contracts/contracts/access/AccessControl.sol\":7775:7779  role */\n      dup4\n        /* \"lib/openzeppelin-contracts/contracts/access/AccessControl.sol\":7763:7803  RoleGranted(role, account, _msgSender()) */\n      0x2f8788117e7eff1d82e926ec794901d17c78024a50270940304540a733656f0d\n      mload(0x40)\n      mload(0x40)\n      dup1\n      swap2\n      sub\n      swap1\n      log4\n        /* \"lib/openzeppelin-contracts/contracts/access/AccessControl.sol\":7587:7820  function _grantRole(bytes32 role, address account) internal virtual {... */\n      pop\n      pop\n      jump\t// out\n        /* \"lib/openzeppelin-contracts/contracts/security/Pausable.sol\":1945:2051  function _requirePaused() internal view virtual {... */\n    tag_335:\n        /* \"lib/openzeppelin-contracts/contracts/security/Pausable.sol\":1685:1692  _paused */\n      and(0xff, sload(0x02))\n        /* \"lib/openzeppelin-contracts/contracts/security/Pausable.sol\":2003:2044  require(paused(), \"Pausable: not paused\") */\n      tag_308\n      jumpi\n      mload(0x40)\n      shl(0xe5, 0x461bcd)\n      dup2\n      mstore\n        /* \"#utility.yul\":9589:9591   */\n      0x20\n        /* \"lib/openzeppelin-contracts/contracts/security/Pausable.sol\":2003:2044  require(paused(), \"Pausable: not paused\") */\n      0x04\n      dup3\n      add\n        /* \"#utility.yul\":9571:9592   */\n      mstore\n        /* \"#utility.yul\":9628:9630   */\n      0x14\n        /* \"#utility.yul\":9608:9626   */\n      0x24\n      dup3\n      add\n        /* \"#utility.yul\":9601:9631   */\n      mstore\n      shl(0x62, 0x14185d5cd8589b194e881b9bdd081c185d5cd959)\n        /* \"#utility.yul\":9647:9665   */\n      0x44\n      dup3\n      add\n        /* \"#utility.yul\":9640:9690   */\n      mstore\n        /* \"#utility.yul\":9707:9725   */\n      0x64\n      add\n        /* \"lib/openzeppelin-contracts/contracts/security/Pausable.sol\":2003:2044  require(paused(), \"Pausable: not paused\") */\n      tag_187\n        /* \"#utility.yul\":9387:9731   */\n      jump\n        /* \"lib/openzeppelin-contracts/contracts/utils/Strings.sol\":2407:2556  function toHexString(address addr) internal pure returns (string memory) {... */\n    tag_355:\n        /* \"lib/openzeppelin-contracts/contracts/utils/Strings.sol\":2465:2478  string memory */\n      0x60\n        /* \"lib/openzeppelin-contracts/contracts/utils/Strings.sol\":2497:2549  toHexString(uint256(uint160(addr)), _ADDRESS_LENGTH) */\n      tag_173\n      sub(shl(0xa0, 0x01), 0x01)\n        /* \"lib/openzeppelin-contracts/contracts/utils/Strings.sol\":2509:2531  uint256(uint160(addr)) */\n      dup4\n      and\n        /* \"lib/openzeppelin-contracts/contracts/utils/Strings.sol\":343:345  20 */\n      0x14\n        /* \"lib/openzeppelin-contracts/contracts/utils/Strings.sol\":1818:2255  function toHexString(uint256 value, uint256 length) internal pure returns (string memory) {... */\n    tag_357:\n        /* \"lib/openzeppelin-contracts/contracts/utils/Strings.sol\":1893:1906  string memory */\n      0x60\n        /* \"lib/openzeppelin-contracts/contracts/utils/Strings.sol\":1918:1937  bytes memory buffer */\n      0x00\n        /* \"lib/openzeppelin-contracts/contracts/utils/Strings.sol\":1950:1960  2 * length */\n      tag_374\n        /* \"lib/openzeppelin-contracts/contracts/utils/Strings.sol\":1954:1960  length */\n      dup4\n        /* \"lib/openzeppelin-contracts/contracts/utils/Strings.sol\":1950:1951  2 */\n      0x02\n        /* \"lib/openzeppelin-contracts/contracts/utils/Strings.sol\":1950:1960  2 * length */\n      tag_375\n      jump\t// in\n    tag_374:\n        /* \"lib/openzeppelin-contracts/contracts/utils/Strings.sol\":1950:1964  2 * length + 2 */\n      tag_376\n      swap1\n        /* \"lib/openzeppelin-contracts/contracts/utils/Strings.sol\":1963:1964  2 */\n      0x02\n        /* \"lib/openzeppelin-contracts/contracts/utils/Strings.sol\":1950:1964  2 * length + 2 */\n      tag_200\n      jump\t// in\n    tag_376:\n        /* \"lib/openzeppelin-contracts/contracts/utils/Strings.sol\":1940:1965  new bytes(2 * length + 2) */\n      0xffffffffffffffff\n      dup2\n      gt\n      iszero\n      tag_378\n      jumpi\n      tag_378\n      tag_379\n      jump\t// in\n    tag_378:\n      mload(0x40)\n      swap1\n      dup1\n      dup3\n      mstore\n      dup1\n      0x1f\n      add\n      not(0x1f)\n      and\n      0x20\n      add\n      dup3\n      add\n      0x40\n      mstore\n      dup1\n      iszero\n      tag_380\n      jumpi\n      0x20\n      dup3\n      add\n      dup2\n      dup1\n      calldatasize\n      dup4\n      calldatacopy\n      add\n      swap1\n      pop\n    tag_380:\n      pop\n        /* \"lib/openzeppelin-contracts/contracts/utils/Strings.sol\":1918:1965  bytes memory buffer = new bytes(2 * length + 2) */\n      swap1\n      pop\n      shl(0xfc, 0x03)\n        /* \"lib/openzeppelin-contracts/contracts/utils/Strings.sol\":1975:1981  buffer */\n      dup2\n        /* \"lib/openzeppelin-contracts/contracts/utils/Strings.sol\":1982:1983  0 */\n      0x00\n        /* \"lib/openzeppelin-contracts/contracts/utils/Strings.sol\":1975:1984  buffer[0] */\n      dup2\n      mload\n      dup2\n      lt\n      tag_382\n      jumpi\n      tag_382\n      tag_383\n      jump\t// in\n    tag_382:\n      0x20\n      add\n      add\n        /* \"lib/openzeppelin-contracts/contracts/utils/Strings.sol\":1975:1990  buffer[0] = \"0\" */\n      swap1\n      not(sub(shl(0xf8, 0x01), 0x01))\n      and\n      swap1\n      dup2\n      0x00\n      byte\n      swap1\n      mstore8\n      pop\n      shl(0xfb, 0x0f)\n        /* \"lib/openzeppelin-contracts/contracts/utils/Strings.sol\":2000:2006  buffer */\n      dup2\n        /* \"lib/openzeppelin-contracts/contracts/utils/Strings.sol\":2007:2008  1 */\n      0x01\n        /* \"lib/openzeppelin-contracts/contracts/utils/Strings.sol\":2000:2009  buffer[1] */\n      dup2\n      mload\n      dup2\n      lt\n      tag_385\n      jumpi\n      tag_385\n      tag_383\n      jump\t// in\n    tag_385:\n      0x20\n      add\n      add\n        /* \"lib/openzeppelin-contracts/contracts/utils/Strings.sol\":2000:2015  buffer[1] = \"x\" */\n      swap1\n      not(sub(shl(0xf8, 0x01), 0x01))\n      and\n      swap1\n      dup2\n      0x00\n      byte\n      swap1\n      mstore8\n      pop\n        /* \"lib/openzeppelin-contracts/contracts/utils/Strings.sol\":2030:2039  uint256 i */\n      0x00\n        /* \"lib/openzeppelin-contracts/contracts/utils/Strings.sol\":2042:2052  2 * length */\n      tag_389\n        /* \"lib/openzeppelin-contracts/contracts/utils/Strings.sol\":2046:2052  length */\n      dup5\n        /* \"lib/openzeppelin-contracts/contracts/utils/Strings.sol\":2042:2043  2 */\n      0x02\n        /* \"lib/openzeppelin-contracts/contracts/utils/Strings.sol\":2042:2052  2 * length */\n      tag_375\n      jump\t// in\n    tag_389:\n        /* \"lib/openzeppelin-contracts/contracts/utils/Strings.sol\":2042:2056  2 * length + 1 */\n      tag_390\n      swap1\n        /* \"lib/openzeppelin-contracts/contracts/utils/Strings.sol\":2055:2056  1 */\n      0x01\n        /* \"lib/openzeppelin-contracts/contracts/utils/Strings.sol\":2042:2056  2 * length + 1 */\n      tag_200\n      jump\t// in\n    tag_390:\n        /* \"lib/openzeppelin-contracts/contracts/utils/Strings.sol\":2030:2056  uint256 i = 2 * length + 1 */\n      swap1\n      pop\n        /* \"lib/openzeppelin-contracts/contracts/utils/Strings.sol\":2025:2153  for (uint256 i = 2 * length + 1; i > 1; --i) {... */\n    tag_386:\n        /* \"lib/openzeppelin-contracts/contracts/utils/Strings.sol\":2062:2063  1 */\n      0x01\n        /* \"lib/openzeppelin-contracts/contracts/utils/Strings.sol\":2058:2059  i */\n      dup2\n        /* \"lib/openzeppelin-contracts/contracts/utils/Strings.sol\":2058:2063  i > 1 */\n      gt\n        /* \"lib/openzeppelin-contracts/contracts/utils/Strings.sol\":2025:2153  for (uint256 i = 2 * length + 1; i > 1; --i) {... */\n      iszero\n      tag_387\n      jumpi\n      shl(0x81, 0x181899199a1a9b1b9c1cb0b131b232b3)\n        /* \"lib/openzeppelin-contracts/contracts/utils/Strings.sol\":2105:2110  value */\n      dup6\n        /* \"lib/openzeppelin-contracts/contracts/utils/Strings.sol\":2113:2116  0xf */\n      0x0f\n        /* \"lib/openzeppelin-contracts/contracts/utils/Strings.sol\":2105:2116  value & 0xf */\n      and\n        /* \"lib/openzeppelin-contracts/contracts/utils/Strings.sol\":2096:2117  _SYMBOLS[value & 0xf] */\n      0x10\n      dup2\n      lt\n      tag_392\n      jumpi\n      tag_392\n      tag_383\n      jump\t// in\n    tag_392:\n      byte\n      0xf8\n      shl\n        /* \"lib/openzeppelin-contracts/contracts/utils/Strings.sol\":2084:2090  buffer */\n      dup3\n        /* \"lib/openzeppelin-contracts/contracts/utils/Strings.sol\":2091:2092  i */\n      dup3\n        /* \"lib/openzeppelin-contracts/contracts/utils/Strings.sol\":2084:2093  buffer[i] */\n      dup2\n      mload\n      dup2\n      lt\n      tag_394\n      jumpi\n      tag_394\n      tag_383\n      jump\t// in\n    tag_394:\n      0x20\n      add\n      add\n        /* \"lib/openzeppelin-contracts/contracts/utils/Strings.sol\":2084:2117  buffer[i] = _SYMBOLS[value & 0xf] */\n      swap1\n      not(sub(shl(0xf8, 0x01), 0x01))\n      and\n      swap1\n      dup2\n      0x00\n      byte\n      swap1\n      mstore8\n      pop\n        /* \"lib/openzeppelin-contracts/contracts/utils/Strings.sol\":2141:2142  4 */\n      0x04\n        /* \"lib/openzeppelin-contracts/contracts/utils/Strings.sol\":2131:2142  value >>= 4 */\n      swap5\n      swap1\n      swap5\n      shr\n      swap4\n        /* \"lib/openzeppelin-contracts/contracts/utils/Strings.sol\":2065:2068  --i */\n      tag_395\n      dup2\n      tag_396\n      jump\t// in\n    tag_395:\n      swap1\n      pop\n        /* \"lib/openzeppelin-contracts/contracts/utils/Strings.sol\":2025:2153  for (uint256 i = 2 * length + 1; i > 1; --i) {... */\n      jump(tag_386)\n    tag_387:\n      pop\n        /* \"lib/openzeppelin-contracts/contracts/utils/Strings.sol\":2170:2180  value == 0 */\n      dup4\n      iszero\n        /* \"lib/openzeppelin-contracts/contracts/utils/Strings.sol\":2162:2217  require(value == 0, \"Strings: hex length insufficient\") */\n      tag_397\n      jumpi\n      mload(0x40)\n      shl(0xe5, 0x461bcd)\n      dup2\n      mstore\n        /* \"#utility.yul\":10516:10518   */\n      0x20\n        /* \"lib/openzeppelin-contracts/contracts/utils/Strings.sol\":2162:2217  require(value == 0, \"Strings: hex length insufficient\") */\n      0x04\n      dup3\n      add\n        /* \"#utility.yul\":10498:10519   */\n      dup2\n      swap1\n      mstore\n        /* \"#utility.yul\":10535:10553   */\n      0x24\n      dup3\n      add\n        /* \"#utility.yul\":10528:10558   */\n      mstore\n        /* \"#utility.yul\":10594:10628   */\n      0x537472696e67733a20686578206c656e67746820696e73756666696369656e74\n        /* \"#utility.yul\":10574:10592   */\n      0x44\n      dup3\n      add\n        /* \"#utility.yul\":10567:10629   */\n      mstore\n        /* \"#utility.yul\":10646:10664   */\n      0x64\n      add\n        /* \"lib/openzeppelin-contracts/contracts/utils/Strings.sol\":2162:2217  require(value == 0, \"Strings: hex length insufficient\") */\n      tag_187\n        /* \"#utility.yul\":10314:10670   */\n      jump\n        /* \"lib/openzeppelin-contracts/contracts/utils/Strings.sol\":2162:2217  require(value == 0, \"Strings: hex length insufficient\") */\n    tag_397:\n        /* \"lib/openzeppelin-contracts/contracts/utils/Strings.sol\":2241:2247  buffer */\n      swap4\n        /* \"lib/openzeppelin-contracts/contracts/utils/Strings.sol\":1818:2255  function toHexString(uint256 value, uint256 length) internal pure returns (string memory) {... */\n      swap3\n      pop\n      pop\n      pop\n      jump\t// out\n        /* \"#utility.yul\":14:300   */\n    tag_45:\n        /* \"#utility.yul\":72:78   */\n      0x00\n        /* \"#utility.yul\":125:127   */\n      0x20\n        /* \"#utility.yul\":113:122   */\n      dup3\n        /* \"#utility.yul\":104:111   */\n      dup5\n        /* \"#utility.yul\":100:123   */\n      sub\n        /* \"#utility.yul\":96:128   */\n      slt\n        /* \"#utility.yul\":93:145   */\n      iszero\n      tag_405\n      jumpi\n        /* \"#utility.yul\":141:142   */\n      0x00\n        /* \"#utility.yul\":138:139   */\n      dup1\n        /* \"#utility.yul\":131:143   */\n      revert\n        /* \"#utility.yul\":93:145   */\n    tag_405:\n        /* \"#utility.yul\":167:190   */\n      dup2\n      calldataload\n      not(sub(shl(0xe0, 0x01), 0x01))\n        /* \"#utility.yul\":219:251   */\n      dup2\n      and\n        /* \"#utility.yul\":209:252   */\n      dup2\n      eq\n        /* \"#utility.yul\":199:270   */\n      tag_397\n      jumpi\n        /* \"#utility.yul\":266:267   */\n      0x00\n        /* \"#utility.yul\":263:264   */\n      dup1\n        /* \"#utility.yul\":256:268   */\n      revert\n        /* \"#utility.yul\":497:677   */\n    tag_52:\n        /* \"#utility.yul\":556:562   */\n      0x00\n        /* \"#utility.yul\":609:611   */\n      0x20\n        /* \"#utility.yul\":597:606   */\n      dup3\n        /* \"#utility.yul\":588:595   */\n      dup5\n        /* \"#utility.yul\":584:607   */\n      sub\n        /* \"#utility.yul\":580:612   */\n      slt\n        /* \"#utility.yul\":577:629   */\n      iszero\n      tag_409\n      jumpi\n        /* \"#utility.yul\":625:626   */\n      0x00\n        /* \"#utility.yul\":622:623   */\n      dup1\n        /* \"#utility.yul\":615:627   */\n      revert\n        /* \"#utility.yul\":577:629   */\n    tag_409:\n      pop\n        /* \"#utility.yul\":648:671   */\n      calldataload\n      swap2\n        /* \"#utility.yul\":497:677   */\n      swap1\n      pop\n      jump\t// out\n        /* \"#utility.yul\":1231:1404   */\n    tag_400:\n        /* \"#utility.yul\":1299:1319   */\n      dup1\n      calldataload\n      sub(shl(0xa0, 0x01), 0x01)\n        /* \"#utility.yul\":1348:1379   */\n      dup2\n      and\n        /* \"#utility.yul\":1338:1380   */\n      dup2\n      eq\n        /* \"#utility.yul\":1328:1398   */\n      tag_415\n      jumpi\n        /* \"#utility.yul\":1394:1395   */\n      0x00\n        /* \"#utility.yul\":1391:1392   */\n      dup1\n        /* \"#utility.yul\":1384:1396   */\n      revert\n        /* \"#utility.yul\":1328:1398   */\n    tag_415:\n        /* \"#utility.yul\":1231:1404   */\n      swap2\n      swap1\n      pop\n      jump\t// out\n        /* \"#utility.yul\":1409:1595   */\n    tag_70:\n        /* \"#utility.yul\":1468:1474   */\n      0x00\n        /* \"#utility.yul\":1521:1523   */\n      0x20\n        /* \"#utility.yul\":1509:1518   */\n      dup3\n        /* \"#utility.yul\":1500:1507   */\n      dup5\n        /* \"#utility.yul\":1496:1519   */\n      sub\n        /* \"#utility.yul\":1492:1524   */\n      slt\n        /* \"#utility.yul\":1489:1541   */\n      iszero\n      tag_417\n      jumpi\n        /* \"#utility.yul\":1537:1538   */\n      0x00\n        /* \"#utility.yul\":1534:1535   */\n      dup1\n        /* \"#utility.yul\":1527:1539   */\n      revert\n        /* \"#utility.yul\":1489:1541   */\n    tag_417:\n        /* \"#utility.yul\":1560:1589   */\n      tag_397\n        /* \"#utility.yul\":1579:1588   */\n      dup3\n        /* \"#utility.yul\":1560:1589   */\n      tag_400\n      jump\t// in\n        /* \"#utility.yul\":1600:1854   */\n    tag_80:\n        /* \"#utility.yul\":1668:1674   */\n      0x00\n        /* \"#utility.yul\":1676:1682   */\n      dup1\n        /* \"#utility.yul\":1729:1731   */\n      0x40\n        /* \"#utility.yul\":1717:1726   */\n      dup4\n        /* \"#utility.yul\":1708:1715   */\n      dup6\n        /* \"#utility.yul\":1704:1727   */\n      sub\n        /* \"#utility.yul\":1700:1732   */\n      slt\n        /* \"#utility.yul\":1697:1749   */\n      iszero\n      tag_420\n      jumpi\n        /* \"#utility.yul\":1745:1746   */\n      0x00\n        /* \"#utility.yul\":1742:1743   */\n      dup1\n        /* \"#utility.yul\":1735:1747   */\n      revert\n        /* \"#utility.yul\":1697:1749   */\n    tag_420:\n        /* \"#utility.yul\":1781:1790   */\n      dup3\n        /* \"#utility.yul\":1768:1791   */\n      calldataload\n        /* \"#utility.yul\":1758:1791   */\n      swap2\n      pop\n        /* \"#utility.yul\":1810:1848   */\n      tag_421\n        /* \"#utility.yul\":1844:1846   */\n      0x20\n        /* \"#utility.yul\":1833:1842   */\n      dup5\n        /* \"#utility.yul\":1829:1847   */\n      add\n        /* \"#utility.yul\":1810:1848   */\n      tag_400\n      jump\t// in\n    tag_421:\n        /* \"#utility.yul\":1800:1848   */\n      swap1\n      pop\n        /* \"#utility.yul\":1600:1854   */\n      swap3\n      pop\n      swap3\n      swap1\n      pop\n      jump\t// out\n        /* \"#utility.yul\":2932:3059   */\n    tag_401:\n        /* \"#utility.yul\":2993:3003   */\n      0x4e487b71\n        /* \"#utility.yul\":2988:2991   */\n      0xe0\n        /* \"#utility.yul\":2984:3004   */\n      shl\n        /* \"#utility.yul\":2981:2982   */\n      0x00\n        /* \"#utility.yul\":2974:3005   */\n      mstore\n        /* \"#utility.yul\":3024:3028   */\n      0x11\n        /* \"#utility.yul\":3021:3022   */\n      0x04\n        /* \"#utility.yul\":3014:3029   */\n      mstore\n        /* \"#utility.yul\":3048:3052   */\n      0x24\n        /* \"#utility.yul\":3045:3046   */\n      0x00\n        /* \"#utility.yul\":3038:3053   */\n      revert\n        /* \"#utility.yul\":3064:3192   */\n    tag_198:\n        /* \"#utility.yul\":3131:3140   */\n      dup2\n      dup2\n      sub\n        /* \"#utility.yul\":3152:3163   */\n      dup2\n      dup2\n      gt\n        /* \"#utility.yul\":3149:3186   */\n      iszero\n      tag_173\n      jumpi\n        /* \"#utility.yul\":3166:3184   */\n      tag_173\n      tag_401\n      jump\t// in\n        /* \"#utility.yul\":3197:3322   */\n    tag_200:\n        /* \"#utility.yul\":3262:3271   */\n      dup1\n      dup3\n      add\n        /* \"#utility.yul\":3283:3293   */\n      dup1\n      dup3\n      gt\n        /* \"#utility.yul\":3280:3316   */\n      iszero\n      tag_173\n      jumpi\n        /* \"#utility.yul\":3296:3314   */\n      tag_173\n      tag_401\n      jump\t// in\n        /* \"#utility.yul\":7125:7342   */\n    tag_313:\n        /* \"#utility.yul\":7165:7166   */\n      0x00\n        /* \"#utility.yul\":7191:7192   */\n      dup3\n        /* \"#utility.yul\":7181:7313   */\n      tag_444\n      jumpi\n        /* \"#utility.yul\":7235:7245   */\n      0x4e487b71\n        /* \"#utility.yul\":7230:7233   */\n      0xe0\n        /* \"#utility.yul\":7226:7246   */\n      shl\n        /* \"#utility.yul\":7223:7224   */\n      0x00\n        /* \"#utility.yul\":7216:7247   */\n      mstore\n        /* \"#utility.yul\":7270:7274   */\n      0x12\n        /* \"#utility.yul\":7267:7268   */\n      0x04\n        /* \"#utility.yul\":7260:7275   */\n      mstore\n        /* \"#utility.yul\":7298:7302   */\n      0x24\n        /* \"#utility.yul\":7295:7296   */\n      0x00\n        /* \"#utility.yul\":7288:7303   */\n      revert\n        /* \"#utility.yul\":7181:7313   */\n    tag_444:\n      pop\n        /* \"#utility.yul\":7327:7336   */\n      div\n      swap1\n        /* \"#utility.yul\":7125:7342   */\n      jump\t// out\n        /* \"#utility.yul\":7914:8164   */\n    tag_402:\n        /* \"#utility.yul\":7999:8000   */\n      0x00\n        /* \"#utility.yul\":8009:8122   */\n    tag_448:\n        /* \"#utility.yul\":8023:8029   */\n      dup4\n        /* \"#utility.yul\":8020:8021   */\n      dup2\n        /* \"#utility.yul\":8017:8030   */\n      lt\n        /* \"#utility.yul\":8009:8122   */\n      iszero\n      tag_450\n      jumpi\n        /* \"#utility.yul\":8099:8110   */\n      dup2\n      dup2\n      add\n        /* \"#utility.yul\":8093:8111   */\n      mload\n        /* \"#utility.yul\":8080:8091   */\n      dup4\n      dup3\n      add\n        /* \"#utility.yul\":8073:8112   */\n      mstore\n        /* \"#utility.yul\":8045:8047   */\n      0x20\n        /* \"#utility.yul\":8038:8048   */\n      add\n        /* \"#utility.yul\":8009:8122   */\n      jump(tag_448)\n    tag_450:\n      pop\n      pop\n        /* \"#utility.yul\":8156:8157   */\n      0x00\n        /* \"#utility.yul\":8138:8154   */\n      swap2\n      add\n        /* \"#utility.yul\":8131:8158   */\n      mstore\n        /* \"#utility.yul\":7914:8164   */\n      jump\t// out\n        /* \"#utility.yul\":8169:8981   */\n    tag_359:\n        /* \"#utility.yul\":8580:8605   */\n      0x416363657373436f6e74726f6c3a206163636f756e7420000000000000000000\n        /* \"#utility.yul\":8575:8578   */\n      dup2\n        /* \"#utility.yul\":8568:8606   */\n      mstore\n        /* \"#utility.yul\":8550:8553   */\n      0x00\n        /* \"#utility.yul\":8635:8641   */\n      dup4\n        /* \"#utility.yul\":8629:8642   */\n      mload\n        /* \"#utility.yul\":8651:8726   */\n      tag_452\n        /* \"#utility.yul\":8719:8725   */\n      dup2\n        /* \"#utility.yul\":8714:8716   */\n      0x17\n        /* \"#utility.yul\":8709:8712   */\n      dup6\n        /* \"#utility.yul\":8705:8717   */\n      add\n        /* \"#utility.yul\":8698:8702   */\n      0x20\n        /* \"#utility.yul\":8690:8696   */\n      dup9\n        /* \"#utility.yul\":8686:8703   */\n      add\n        /* \"#utility.yul\":8651:8726   */\n      tag_402\n      jump\t// in\n    tag_452:\n      shl(0x7d, 0x01034b99036b4b9b9b4b733903937b6329)\n        /* \"#utility.yul\":8785:8787   */\n      0x17\n        /* \"#utility.yul\":8745:8761   */\n      swap2\n      dup5\n      add\n        /* \"#utility.yul\":8777:8788   */\n      swap2\n      dup3\n      add\n        /* \"#utility.yul\":8770:8810   */\n      mstore\n        /* \"#utility.yul\":8835:8848   */\n      dup4\n      mload\n        /* \"#utility.yul\":8857:8933   */\n      tag_453\n        /* \"#utility.yul\":8835:8848   */\n      dup2\n        /* \"#utility.yul\":8919:8921   */\n      0x28\n        /* \"#utility.yul\":8911:8922   */\n      dup5\n      add\n        /* \"#utility.yul\":8904:8908   */\n      0x20\n        /* \"#utility.yul\":8892:8909   */\n      dup9\n      add\n        /* \"#utility.yul\":8857:8933   */\n      tag_402\n      jump\t// in\n    tag_453:\n        /* \"#utility.yul\":8953:8970   */\n      add\n        /* \"#utility.yul\":8972:8974   */\n      0x28\n        /* \"#utility.yul\":8949:8975   */\n      add\n      swap5\n        /* \"#utility.yul\":8169:8981   */\n      swap4\n      pop\n      pop\n      pop\n      pop\n      jump\t// out\n        /* \"#utility.yul\":8986:9382   */\n    tag_361:\n        /* \"#utility.yul\":9135:9137   */\n      0x20\n        /* \"#utility.yul\":9124:9133   */\n      dup2\n        /* \"#utility.yul\":9117:9138   */\n      mstore\n        /* \"#utility.yul\":9098:9102   */\n      0x00\n        /* \"#utility.yul\":9167:9173   */\n      dup3\n        /* \"#utility.yul\":9161:9174   */\n      mload\n        /* \"#utility.yul\":9210:9216   */\n      dup1\n        /* \"#utility.yul\":9205:9207   */\n      0x20\n        /* \"#utility.yul\":9194:9203   */\n      dup5\n        /* \"#utility.yul\":9190:9208   */\n      add\n        /* \"#utility.yul\":9183:9217   */\n      mstore\n        /* \"#utility.yul\":9226:9305   */\n      tag_455\n        /* \"#utility.yul\":9298:9304   */\n      dup2\n        /* \"#utility.yul\":9293:9295   */\n      0x40\n        /* \"#utility.yul\":9282:9291   */\n      dup6\n        /* \"#utility.yul\":9278:9296   */\n      add\n        /* \"#utility.yul\":9273:9275   */\n      0x20\n        /* \"#utility.yul\":9265:9271   */\n      dup8\n        /* \"#utility.yul\":9261:9276   */\n      add\n        /* \"#utility.yul\":9226:9305   */\n      tag_402\n      jump\t// in\n    tag_455:\n        /* \"#utility.yul\":9366:9368   */\n      0x1f\n        /* \"#utility.yul\":9345:9360   */\n      add\n      not(0x1f)\n        /* \"#utility.yul\":9341:9370   */\n      and\n        /* \"#utility.yul\":9326:9371   */\n      swap2\n      swap1\n      swap2\n      add\n        /* \"#utility.yul\":9373:9375   */\n      0x40\n        /* \"#utility.yul\":9322:9376   */\n      add\n      swap3\n        /* \"#utility.yul\":8986:9382   */\n      swap2\n      pop\n      pop\n      jump\t// out\n        /* \"#utility.yul\":9736:9904   */\n    tag_375:\n        /* \"#utility.yul\":9809:9818   */\n      dup1\n      dup3\n      mul\n        /* \"#utility.yul\":9840:9849   */\n      dup2\n      iszero\n        /* \"#utility.yul\":9857:9872   */\n      dup3\n      dup3\n      div\n        /* \"#utility.yul\":9851:9873   */\n      dup5\n      eq\n        /* \"#utility.yul\":9837:9874   */\n      or\n        /* \"#utility.yul\":9827:9898   */\n      tag_173\n      jumpi\n        /* \"#utility.yul\":9878:9896   */\n      tag_173\n      tag_401\n      jump\t// in\n        /* \"#utility.yul\":9909:10036   */\n    tag_379:\n        /* \"#utility.yul\":9970:9980   */\n      0x4e487b71\n        /* \"#utility.yul\":9965:9968   */\n      0xe0\n        /* \"#utility.yul\":9961:9981   */\n      shl\n        /* \"#utility.yul\":9958:9959   */\n      0x00\n        /* \"#utility.yul\":9951:9982   */\n      mstore\n        /* \"#utility.yul\":10001:10005   */\n      0x41\n        /* \"#utility.yul\":9998:9999   */\n      0x04\n        /* \"#utility.yul\":9991:10006   */\n      mstore\n        /* \"#utility.yul\":10025:10029   */\n      0x24\n        /* \"#utility.yul\":10022:10023   */\n      0x00\n        /* \"#utility.yul\":10015:10030   */\n      revert\n        /* \"#utility.yul\":10041:10168   */\n    tag_383:\n        /* \"#utility.yul\":10102:10112   */\n      0x4e487b71\n        /* \"#utility.yul\":10097:10100   */\n      0xe0\n        /* \"#utility.yul\":10093:10113   */\n      shl\n        /* \"#utility.yul\":10090:10091   */\n      0x00\n        /* \"#utility.yul\":10083:10114   */\n      mstore\n        /* \"#utility.yul\":10133:10137   */\n      0x32\n        /* \"#utility.yul\":10130:10131   */\n      0x04\n        /* \"#utility.yul\":10123:10138   */\n      mstore\n        /* \"#utility.yul\":10157:10161   */\n      0x24\n        /* \"#utility.yul\":10154:10155   */\n      0x00\n        /* \"#utility.yul\":10147:10162   */\n      revert\n        /* \"#utility.yul\":10173:10309   */\n    tag_396:\n        /* \"#utility.yul\":10212:10215   */\n      0x00\n        /* \"#utility.yul\":10240:10245   */\n      dup2\n        /* \"#utility.yul\":10230:10269   */\n      tag_464\n      jumpi\n        /* \"#utility.yul\":10249:10267   */\n      tag_464\n      tag_401\n      jump\t// in\n    tag_464:\n      pop\n      not(0x00)\n        /* \"#utility.yul\":10285:10303   */\n      add\n      swap1\n        /* \"#utility.yul\":10173:10309   */\n      jump\t// out\n\n    auxdata: 0xa26469706673582212200328dd39072508720341ef0e635ee2468a620c9e676194821267a189fb198f6664736f6c63430008140033\n}\n","methodIdentifiers":{"DEFAULT_ADMIN_ROLE()":"a217fddf","GUARDIAN_ROLE()":"24ea54f4","OPERATOR_ROLE()":"f5b541a6","PAUSE_ROLE()":"389ed267","WITHDRAW_ROLE()":"e02023a1","balances(address)":"27e235e3","dailyWithdrawalLimit()":"7620843a","dailyWithdrawalTimestamps(uint256)":"042f7622","dailyWithdrawals(address)":"41d636a2","deposit()":"d0e30db0","emergencyPause()":"51858e27","emergencyWithdraw()":"db2e21bc","getBalance(address)":"f8b2cb4f","getContractBalance()":"6f9fb98a","getDailyWithdrawal(address)":"bdcc96aa","getOperationCount()":"56149adf","getRoleAdmin(bytes32)":"248a9ca3","grantRole(bytes32,address)":"2f2ff15d","hasRole(bytes32,address)":"91d14854","maxWithdrawal()":"8c0ff5b7","pause()":"8456cb59","paused()":"5c975abb","renounceRole(bytes32,address)":"36568abe","revokeRole(bytes32,address)":"d547741f","supportsInterface(bytes4)":"01ffc9a7","totalFunds()":"968ed600","unpause()":"3f4ba83a","updateDailyLimit(uint256)":"f8175d78","updateMaxWithdrawal(uint256)":"8a959ba7","withdraw(uint256)":"2e1a7d4d"},"storageLayout":{"storage":[{"astId":39723,"contract":"projects/02-access-control/contracts/03-access-control/AdvancedVault.sol:AdvancedVault","label":"_roles","offset":0,"slot":"0","type":"t_mapping(t_bytes32,t_struct(RoleData)39718_storage)"},{"astId":40319,"contract":"projects/02-access-control/contracts/03-access-control/AdvancedVault.sol:AdvancedVault","label":"_status","offset":0,"slot":"1","type":"t_uint256"},{"astId":40218,"contract":"projects/02-access-control/contracts/03-access-control/AdvancedVault.sol:AdvancedVault","label":"_paused","offset":0,"slot":"2","type":"t_bool"},{"astId":45530,"contract":"projects/02-access-control/contracts/03-access-control/AdvancedVault.sol:AdvancedVault","label":"balances","offset":0,"slot":"3","type":"t_mapping(t_address,t_uint256)"},{"astId":45532,"contract":"projects/02-access-control/contracts/03-access-control/AdvancedVault.sol:AdvancedVault","label":"totalFunds","offset":0,"slot":"4","type":"t_uint256"},{"astId":45534,"contract":"projects/02-access-control/contracts/03-access-control/AdvancedVault.sol:AdvancedVault","label":"maxWithdrawal","offset":0,"slot":"5","type":"t_uint256"},{"astId":45536,"contract":"projects/02-access-control/contracts/03-access-control/AdvancedVault.sol:AdvancedVault","label":"dailyWithdrawalLimit","offset":0,"slot":"6","type":"t_uint256"},{"astId":45540,"contract":"projects/02-access-control/contracts/03-access-control/AdvancedVault.sol:AdvancedVault","label":"dailyWithdrawals","offset":0,"slot":"7","type":"t_mapping(t_address,t_uint256)"},{"astId":45544,"contract":"projects/02-access-control/contracts/03-access-control/AdvancedVault.sol:AdvancedVault","label":"dailyWithdrawalTimestamps","offset":0,"slot":"8","type":"t_mapping(t_uint256,t_uint256)"},{"astId":45547,"contract":"projects/02-access-control/contracts/03-access-control/AdvancedVault.sol:AdvancedVault","label":"_operationId","offset":0,"slot":"9","type":"t_struct(Counter)40401_storage"}],"types":{"t_address":{"encoding":"inplace","label":"address","numberOfBytes":"20"},"t_bool":{"encoding":"inplace","label":"bool","numberOfBytes":"1"},"t_bytes32":{"encoding":"inplace","label":"bytes32","numberOfBytes":"32"},"t_mapping(t_address,t_bool)":{"encoding":"mapping","key":"t_address","label":"mapping(address => bool)","numberOfBytes":"32","value":"t_bool"},"t_mapping(t_address,t_uint256)":{"encoding":"mapping","key":"t_address","label":"mapping(address => uint256)","numberOfBytes":"32","value":"t_uint256"},"t_mapping(t_bytes32,t_struct(RoleData)39718_storage)":{"encoding":"mapping","key":"t_bytes32","label":"mapping(bytes32 => struct AccessControl.RoleData)","numberOfBytes":"32","value":"t_struct(RoleData)39718_storage"},"t_mapping(t_uint256,t_uint256)":{"encoding":"mapping","key":"t_uint256","label":"mapping(uint256 => uint256)","numberOfBytes":"32","value":"t_uint256"},"t_struct(Counter)40401_storage":{"encoding":"inplace","label":"struct Counters.Counter","numberOfBytes":"32","members":[{"astId":40400,"contract":"projects/02-access-control/contracts/03-access-control/AdvancedVault.sol:AdvancedVault","label":"_value","offset":0,"slot":"0","type":"t_uint256"}]},"t_struct(RoleData)39718_storage":{"encoding":"inplace","label":"struct AccessControl.RoleData","numberOfBytes":"64","members":[{"astId":39715,"contract":"projects/02-access-control/contracts/03-access-control/AdvancedVault.sol:AdvancedVault","label":"members","offset":0,"slot":"0","type":"t_mapping(t_address,t_bool)"},{"astId":39717,"contract":"projects/02-access-control/contracts/03-access-control/AdvancedVault.sol:AdvancedVault","label":"adminRole","offset":0,"slot":"1","type":"t_bytes32"}]},"t_uint256":{"encoding":"inplace","label":"uint256","numberOfBytes":"32"}}},"id":42}