{"abi":[{"type":"constructor","inputs":[{"name":"_maxWithdrawal","type":"uint256","internalType":"uint256"}],"stateMutability":"nonpayable"},{"type":"receive","stateMutability":"payable"},{"type":"function","name":"balances","inputs":[{"name":"","type":"address","internalType":"address"}],"outputs":[{"name":"","type":"uint256","internalType":"uint256"}],"stateMutability":"view"},{"type":"function","name":"deposit","inputs":[],"outputs":[],"stateMutability":"payable"},{"type":"function","name":"emergencyWithdraw","inputs":[],"outputs":[],"stateMutability":"nonpayable"},{"type":"function","name":"getBalance","inputs":[{"name":"user","type":"address","internalType":"address"}],"outputs":[{"name":"","type":"uint256","internalType":"uint256"}],"stateMutability":"view"},{"type":"function","name":"getContractBalance","inputs":[],"outputs":[{"name":"","type":"uint256","internalType":"uint256"}],"stateMutability":"view"},{"type":"function","name":"maxWithdrawal","inputs":[],"outputs":[{"name":"","type":"uint256","internalType":"uint256"}],"stateMutability":"view"},{"type":"function","name":"owner","inputs":[],"outputs":[{"name":"","type":"address","internalType":"address"}],"stateMutability":"view"},{"type":"function","name":"pause","inputs":[],"outputs":[],"stateMutability":"nonpayable"},{"type":"function","name":"paused","inputs":[],"outputs":[{"name":"","type":"bool","internalType":"bool"}],"stateMutability":"view"},{"type":"function","name":"renounceOwnership","inputs":[],"outputs":[],"stateMutability":"nonpayable"},{"type":"function","name":"totalFunds","inputs":[],"outputs":[{"name":"","type":"uint256","internalType":"uint256"}],"stateMutability":"view"},{"type":"function","name":"transferOwnership","inputs":[{"name":"newOwner","type":"address","internalType":"address"}],"outputs":[],"stateMutability":"nonpayable"},{"type":"function","name":"unpause","inputs":[],"outputs":[],"stateMutability":"nonpayable"},{"type":"function","name":"updateMaxWithdrawal","inputs":[{"name":"newMaxWithdrawal","type":"uint256","internalType":"uint256"}],"outputs":[],"stateMutability":"nonpayable"},{"type":"function","name":"withdraw","inputs":[{"name":"amount","type":"uint256","internalType":"uint256"}],"outputs":[],"stateMutability":"nonpayable"},{"type":"event","name":"Deposit","inputs":[{"name":"user","type":"address","indexed":true,"internalType":"address"},{"name":"amount","type":"uint256","indexed":false,"internalType":"uint256"}],"anonymous":false},{"type":"event","name":"EmergencyWithdraw","inputs":[{"name":"owner","type":"address","indexed":true,"internalType":"address"},{"name":"amount","type":"uint256","indexed":false,"internalType":"uint256"}],"anonymous":false},{"type":"event","name":"MaxWithdrawalUpdated","inputs":[{"name":"oldValue","type":"uint256","indexed":false,"internalType":"uint256"},{"name":"newValue","type":"uint256","indexed":false,"internalType":"uint256"}],"anonymous":false},{"type":"event","name":"OwnershipTransferred","inputs":[{"name":"previousOwner","type":"address","indexed":true,"internalType":"address"},{"name":"newOwner","type":"address","indexed":true,"internalType":"address"}],"anonymous":false},{"type":"event","name":"Paused","inputs":[{"name":"account","type":"address","indexed":false,"internalType":"address"}],"anonymous":false},{"type":"event","name":"Unpaused","inputs":[{"name":"account","type":"address","indexed":false,"internalType":"address"}],"anonymous":false},{"type":"event","name":"Withdraw","inputs":[{"name":"user","type":"address","indexed":true,"internalType":"address"},{"name":"amount","type":"uint256","indexed":false,"internalType":"uint256"}],"anonymous":false}],"bytecode":{"object":"0x608060405234801561000f575f80fd5b50604051610bd0380380610bd083398101604081905261002e9161009c565b6100373361004d565b600180556002805460ff191690556005556100b3565b5f80546001600160a01b038381166001600160a01b0319831681178455604051919092169283917f8be0079c531659141344cd1fd0a4f28419497f9722a3daafe3b4186f6b6457e09190a35050565b5f602082840312156100ac575f80fd5b5051919050565b610b10806100c05f395ff3fe6080604052600436106100e7575f3560e01c80638a959ba711610087578063d0e30db011610057578063d0e30db014610230578063db2e21bc14610238578063f2fde38b1461024c578063f8b2cb4f1461026b575f80fd5b80638a959ba7146101c15780638c0ff5b7146101e05780638da5cb5b146101f5578063968ed6001461021b575f80fd5b80635c975abb116100c25780635c975abb146101655780636f9fb98a14610187578063715018a6146101995780638456cb59146101ad575f80fd5b806327e235e3146100f25780632e1a7d4d146101305780633f4ba83a14610151575f80fd5b366100ee57005b5f80fd5b3480156100fd575f80fd5b5061011d61010c366004610a56565b60036020525f908152604090205481565b6040519081526020015b60405180910390f35b34801561013b575f80fd5b5061014f61014a366004610a83565b61029f565b005b34801561015c575f80fd5b5061014f610497565b348015610170575f80fd5b5060025460ff166040519015158152602001610127565b348015610192575f80fd5b504761011d565b3480156101a4575f80fd5b5061014f6104a9565b3480156101b8575f80fd5b5061014f6104ba565b3480156101cc575f80fd5b5061014f6101db366004610a83565b6104ca565b3480156101eb575f80fd5b5061011d60055481565b348015610200575f80fd5b505f546040516001600160a01b039091168152602001610127565b348015610226575f80fd5b5061011d60045481565b61014f610574565b348015610243575f80fd5b5061014f61063d565b348015610257575f80fd5b5061014f610266366004610a56565b61075a565b348015610276575f80fd5b5061011d610285366004610a56565b6001600160a01b03165f9081526003602052604090205490565b6102a76107c1565b6102af61081a565b6102b7610873565b5f811161030b5760405162461bcd60e51b815260206004820152601d60248201527f416d6f756e74206d7573742062652067726561746572207468616e203000000060448201526064015b60405180910390fd5b4781111561035b5760405162461bcd60e51b815260206004820152601d60248201527f496e73756666696369656e7420636f6e74726163742062616c616e63650000006044820152606401610302565b6005548111156103ad5760405162461bcd60e51b815260206004820152601c60248201527f45786365656473206d6178207769746864726177616c206c696d6974000000006044820152606401610302565b8060045f8282546103be9190610aae565b90915550505f80546040516001600160a01b039091169083908381818185875af1925050503d805f811461040d576040519150601f19603f3d011682016040523d82523d5f602084013e610412565b606091505b50509050806104555760405162461bcd60e51b815260206004820152600f60248201526e151c985b9cd9995c8819985a5b1959608a1b6044820152606401610302565b60405182815233907f884edad9ce6fa2440d8a54cc123490eb96d2768479d49ff9c7366125a94243649060200160405180910390a25061049460018055565b50565b61049f6107c1565b6104a76108b9565b565b6104b16107c1565b6104a75f61090b565b6104c26107c1565b6104a761095a565b6104d26107c1565b5f811161052f5760405162461bcd60e51b815260206004820152602560248201527f4d6178207769746864726177616c206d75737420626520677265617465722074604482015264068616e20360dc1b6064820152608401610302565b600580549082905560408051828152602081018490527f4a91b35fe9913ecc73c195a97ed30c0d98b57337f0039f9e1f0c017962192f38910160405180910390a15050565b61057c610873565b5f34116105cb5760405162461bcd60e51b815260206004820152601d60248201527f416d6f756e74206d7573742062652067726561746572207468616e20300000006044820152606401610302565b335f90815260036020526040812080543492906105e9908490610ac7565b925050819055503460045f8282546106019190610ac7565b909155505060405134815233907fe1fffcc4923d04b559f4d29a8bfc6cda04eb5b0d3c460751c2402c5c5cc9109c9060200160405180910390a2565b6106456107c1565b478061068a5760405162461bcd60e51b81526020600482015260146024820152734e6f2066756e647320746f20776974686472617760601b6044820152606401610302565b5f600481905580546040516001600160a01b039091169083908381818185875af1925050503d805f81146106d9576040519150601f19603f3d011682016040523d82523d5f602084013e6106de565b606091505b50509050806107215760405162461bcd60e51b815260206004820152600f60248201526e151c985b9cd9995c8819985a5b1959608a1b6044820152606401610302565b60405182815233907f5fafa99d0643513820be26656b45130b01e1c03062e1266bf36f88cbd3bd96959060200160405180910390a25050565b6107626107c1565b6001600160a01b0381166107b85760405162461bcd60e51b815260206004820181905260248201527f4e6577206f776e65722063616e6e6f74206265207a65726f20616464726573736044820152606401610302565b61049481610997565b5f546001600160a01b031633146104a75760405162461bcd60e51b815260206004820181905260248201527f4f776e61626c653a2063616c6c6572206973206e6f7420746865206f776e65726044820152606401610302565b60026001540361086c5760405162461bcd60e51b815260206004820152601f60248201527f5265656e7472616e637947756172643a207265656e7472616e742063616c6c006044820152606401610302565b6002600155565b60025460ff16156104a75760405162461bcd60e51b815260206004820152601060248201526f14185d5cd8589b194e881c185d5cd95960821b6044820152606401610302565b6108c1610a0d565b6002805460ff191690557f5db9ee0a495bf2e6ff9c91a7834c1ba4fdd244a5e8aa4e537bd38aeae4b073aa335b6040516001600160a01b03909116815260200160405180910390a1565b5f80546001600160a01b038381166001600160a01b0319831681178455604051919092169283917f8be0079c531659141344cd1fd0a4f28419497f9722a3daafe3b4186f6b6457e09190a35050565b610962610873565b6002805460ff191660011790557f62e78cea01bee320cd4e420270b5ea74000d11b0c9f74754ebdbfc544b05a2586108ee3390565b61099f6107c1565b6001600160a01b038116610a045760405162461bcd60e51b815260206004820152602660248201527f4f776e61626c653a206e6577206f776e657220697320746865207a65726f206160448201526564647265737360d01b6064820152608401610302565b6104948161090b565b60025460ff166104a75760405162461bcd60e51b815260206004820152601460248201527314185d5cd8589b194e881b9bdd081c185d5cd95960621b6044820152606401610302565b5f60208284031215610a66575f80fd5b81356001600160a01b0381168114610a7c575f80fd5b9392505050565b5f60208284031215610a93575f80fd5b5035919050565b634e487b7160e01b5f52601160045260245ffd5b81810381811115610ac157610ac1610a9a565b92915050565b80820180821115610ac157610ac1610a9a56fea2646970667358221220975b113233429aee409f443a12d040872a9265f3afa4a214c27b91bcf17d9a4d64736f6c63430008140033","linkReferences":{}},"assembly":"    /* \"projects/02-access-control/contracts/02-ownable/SecureVaultOwnable.sol\":728:4370  contract SecureVaultOwnable is Ownable, ReentrancyGuard, Pausable {... */\n  mstore(0x40, 0x80)\n    /* \"projects/02-access-control/contracts/02-ownable/SecureVaultOwnable.sol\":1279:1362  constructor(uint256 _maxWithdrawal) {... */\n  callvalue\n  dup1\n  iszero\n  tag_1\n  jumpi\n  0x00\n  dup1\n  revert\ntag_1:\n  pop\n  mload(0x40)\n  sub(codesize, bytecodeSize)\n  dup1\n  bytecodeSize\n  dup4\n  codecopy\n  dup2\n  add\n  0x40\n  dup2\n  swap1\n  mstore\n  tag_2\n  swap2\n  tag_3\n  jump\t// in\ntag_2:\n    /* \"lib/openzeppelin-contracts/contracts/access/Ownable.sol\":936:968  _transferOwnership(_msgSender()) */\n  tag_9\n    /* \"lib/openzeppelin-contracts/contracts/utils/Context.sol\":719:729  msg.sender */\n  caller\n    /* \"lib/openzeppelin-contracts/contracts/access/Ownable.sol\":936:954  _transferOwnership */\n  tag_12\n    /* \"lib/openzeppelin-contracts/contracts/access/Ownable.sol\":936:968  _transferOwnership(_msgSender()) */\n  jump\t// in\ntag_9:\n    /* \"lib/openzeppelin-contracts/contracts/security/ReentrancyGuard.sol\":1716:1717  1 */\n  0x01\n    /* \"lib/openzeppelin-contracts/contracts/security/ReentrancyGuard.sol\":1821:1843  _status = _NOT_ENTERED */\n  dup1\n  sstore\n    /* \"lib/openzeppelin-contracts/contracts/security/Pausable.sol\":996:1003  _paused */\n  0x02\n    /* \"lib/openzeppelin-contracts/contracts/security/Pausable.sol\":996:1011  _paused = false */\n  dup1\n  sload\n  not(0xff)\n  and\n  swap1\n  sstore\n    /* \"projects/02-access-control/contracts/02-ownable/SecureVaultOwnable.sol\":1325:1338  maxWithdrawal */\n  0x05\n    /* \"projects/02-access-control/contracts/02-ownable/SecureVaultOwnable.sol\":1325:1355  maxWithdrawal = _maxWithdrawal */\n  sstore\n    /* \"projects/02-access-control/contracts/02-ownable/SecureVaultOwnable.sol\":728:4370  contract SecureVaultOwnable is Ownable, ReentrancyGuard, Pausable {... */\n  jump(tag_19)\n    /* \"lib/openzeppelin-contracts/contracts/access/Ownable.sol\":2426:2613  function _transferOwnership(address newOwner) internal virtual {... */\ntag_12:\n    /* \"lib/openzeppelin-contracts/contracts/access/Ownable.sol\":2499:2515  address oldOwner */\n  0x00\n    /* \"lib/openzeppelin-contracts/contracts/access/Ownable.sol\":2518:2524  _owner */\n  dup1\n  sload\n  sub(shl(0xa0, 0x01), 0x01)\n    /* \"lib/openzeppelin-contracts/contracts/access/Ownable.sol\":2534:2551  _owner = newOwner */\n  dup4\n  dup2\n  and\n  not(sub(shl(0xa0, 0x01), 0x01))\n  dup4\n  and\n  dup2\n  or\n  dup5\n  sstore\n    /* \"lib/openzeppelin-contracts/contracts/access/Ownable.sol\":2566:2606  OwnershipTransferred(oldOwner, newOwner) */\n  mload(0x40)\n    /* \"lib/openzeppelin-contracts/contracts/access/Ownable.sol\":2518:2524  _owner */\n  swap2\n  swap1\n  swap3\n  and\n  swap3\n  dup4\n  swap2\n    /* \"lib/openzeppelin-contracts/contracts/access/Ownable.sol\":2566:2606  OwnershipTransferred(oldOwner, newOwner) */\n  0x8be0079c531659141344cd1fd0a4f28419497f9722a3daafe3b4186f6b6457e0\n  swap2\n    /* \"lib/openzeppelin-contracts/contracts/access/Ownable.sol\":2499:2515  address oldOwner */\n  swap1\n    /* \"lib/openzeppelin-contracts/contracts/access/Ownable.sol\":2566:2606  OwnershipTransferred(oldOwner, newOwner) */\n  log3\n    /* \"lib/openzeppelin-contracts/contracts/access/Ownable.sol\":2489:2613  {... */\n  pop\n    /* \"lib/openzeppelin-contracts/contracts/access/Ownable.sol\":2426:2613  function _transferOwnership(address newOwner) internal virtual {... */\n  pop\n  jump\t// out\n    /* \"#utility.yul\":14:198   */\ntag_3:\n    /* \"#utility.yul\":84:90   */\n  0x00\n    /* \"#utility.yul\":137:139   */\n  0x20\n    /* \"#utility.yul\":125:134   */\n  dup3\n    /* \"#utility.yul\":116:123   */\n  dup5\n    /* \"#utility.yul\":112:135   */\n  sub\n    /* \"#utility.yul\":108:140   */\n  slt\n    /* \"#utility.yul\":105:157   */\n  iszero\n  tag_21\n  jumpi\n    /* \"#utility.yul\":153:154   */\n  0x00\n    /* \"#utility.yul\":150:151   */\n  dup1\n    /* \"#utility.yul\":143:155   */\n  revert\n    /* \"#utility.yul\":105:157   */\ntag_21:\n  pop\n    /* \"#utility.yul\":176:192   */\n  mload\n  swap2\n    /* \"#utility.yul\":14:198   */\n  swap1\n  pop\n  jump\t// out\ntag_19:\n    /* \"projects/02-access-control/contracts/02-ownable/SecureVaultOwnable.sol\":728:4370  contract SecureVaultOwnable is Ownable, ReentrancyGuard, Pausable {... */\n  dataSize(sub_0)\n  dup1\n  dataOffset(sub_0)\n  0x00\n  codecopy\n  0x00\n  return\nstop\n\nsub_0: assembly {\n        /* \"projects/02-access-control/contracts/02-ownable/SecureVaultOwnable.sol\":728:4370  contract SecureVaultOwnable is Ownable, ReentrancyGuard, Pausable {... */\n      mstore(0x40, 0x80)\n      jumpi(tag_1, lt(calldatasize, 0x04))\n      shr(0xe0, calldataload(0x00))\n      dup1\n      0x8a959ba7\n      gt\n      tag_18\n      jumpi\n      dup1\n      0xd0e30db0\n      gt\n      tag_19\n      jumpi\n      dup1\n      0xd0e30db0\n      eq\n      tag_14\n      jumpi\n      dup1\n      0xdb2e21bc\n      eq\n      tag_15\n      jumpi\n      dup1\n      0xf2fde38b\n      eq\n      tag_16\n      jumpi\n      dup1\n      0xf8b2cb4f\n      eq\n      tag_17\n      jumpi\n      0x00\n      dup1\n      revert\n    tag_19:\n      dup1\n      0x8a959ba7\n      eq\n      tag_10\n      jumpi\n      dup1\n      0x8c0ff5b7\n      eq\n      tag_11\n      jumpi\n      dup1\n      0x8da5cb5b\n      eq\n      tag_12\n      jumpi\n      dup1\n      0x968ed600\n      eq\n      tag_13\n      jumpi\n      0x00\n      dup1\n      revert\n    tag_18:\n      dup1\n      0x5c975abb\n      gt\n      tag_20\n      jumpi\n      dup1\n      0x5c975abb\n      eq\n      tag_6\n      jumpi\n      dup1\n      0x6f9fb98a\n      eq\n      tag_7\n      jumpi\n      dup1\n      0x715018a6\n      eq\n      tag_8\n      jumpi\n      dup1\n      0x8456cb59\n      eq\n      tag_9\n      jumpi\n      0x00\n      dup1\n      revert\n    tag_20:\n      dup1\n      0x27e235e3\n      eq\n      tag_3\n      jumpi\n      dup1\n      0x2e1a7d4d\n      eq\n      tag_4\n      jumpi\n      dup1\n      0x3f4ba83a\n      eq\n      tag_5\n      jumpi\n      0x00\n      dup1\n      revert\n    tag_1:\n      jumpi(tag_2, calldatasize)\n      stop\n    tag_2:\n      0x00\n      dup1\n      revert\n        /* \"projects/02-access-control/contracts/02-ownable/SecureVaultOwnable.sol\":823:866  mapping(address => uint256) public balances */\n    tag_3:\n      callvalue\n      dup1\n      iszero\n      tag_23\n      jumpi\n      0x00\n      dup1\n      revert\n    tag_23:\n      pop\n      tag_24\n      tag_25\n      calldatasize\n      0x04\n      tag_26\n      jump\t// in\n    tag_25:\n      mstore(0x20, 0x03)\n      0x00\n      swap1\n      dup2\n      mstore\n      0x40\n      swap1\n      keccak256\n      sload\n      dup2\n      jump\n    tag_24:\n      mload(0x40)\n        /* \"#utility.yul\":451:476   */\n      swap1\n      dup2\n      mstore\n        /* \"#utility.yul\":439:441   */\n      0x20\n        /* \"#utility.yul\":424:442   */\n      add\n        /* \"projects/02-access-control/contracts/02-ownable/SecureVaultOwnable.sol\":823:866  mapping(address => uint256) public balances */\n    tag_28:\n      mload(0x40)\n      dup1\n      swap2\n      sub\n      swap1\n      return\n        /* \"projects/02-access-control/contracts/02-ownable/SecureVaultOwnable.sol\":1828:2339  function withdraw(uint256 amount) external onlyOwner nonReentrant whenNotPaused {... */\n    tag_4:\n      callvalue\n      dup1\n      iszero\n      tag_30\n      jumpi\n      0x00\n      dup1\n      revert\n    tag_30:\n      pop\n      tag_31\n      tag_32\n      calldatasize\n      0x04\n      tag_33\n      jump\t// in\n    tag_32:\n      tag_34\n      jump\t// in\n    tag_31:\n      stop\n        /* \"projects/02-access-control/contracts/02-ownable/SecureVaultOwnable.sol\":2571:2636  function unpause() external onlyOwner {... */\n    tag_5:\n      callvalue\n      dup1\n      iszero\n      tag_35\n      jumpi\n      0x00\n      dup1\n      revert\n    tag_35:\n      pop\n      tag_31\n      tag_37\n      jump\t// in\n        /* \"lib/openzeppelin-contracts/contracts/security/Pausable.sol\":1615:1699  function paused() public view virtual returns (bool) {... */\n    tag_6:\n      callvalue\n      dup1\n      iszero\n      tag_38\n      jumpi\n      0x00\n      dup1\n      revert\n    tag_38:\n      pop\n        /* \"lib/openzeppelin-contracts/contracts/security/Pausable.sol\":1685:1692  _paused */\n      and(0xff, sload(0x02))\n        /* \"lib/openzeppelin-contracts/contracts/security/Pausable.sol\":1615:1699  function paused() public view virtual returns (bool) {... */\n      mload(0x40)\n        /* \"#utility.yul\":837:851   */\n      swap1\n      iszero\n        /* \"#utility.yul\":830:852   */\n      iszero\n        /* \"#utility.yul\":812:853   */\n      dup2\n      mstore\n        /* \"#utility.yul\":800:802   */\n      0x20\n        /* \"#utility.yul\":785:803   */\n      add\n        /* \"lib/openzeppelin-contracts/contracts/security/Pausable.sol\":1615:1699  function paused() public view virtual returns (bool) {... */\n      tag_28\n        /* \"#utility.yul\":672:859   */\n      jump\n        /* \"projects/02-access-control/contracts/02-ownable/SecureVaultOwnable.sol\":3823:3930  function getContractBalance() external view returns (uint256) {... */\n    tag_7:\n      callvalue\n      dup1\n      iszero\n      tag_43\n      jumpi\n      0x00\n      dup1\n      revert\n    tag_43:\n      pop\n        /* \"projects/02-access-control/contracts/02-ownable/SecureVaultOwnable.sol\":3902:3923  address(this).balance */\n      selfbalance\n        /* \"projects/02-access-control/contracts/02-ownable/SecureVaultOwnable.sol\":3823:3930  function getContractBalance() external view returns (uint256) {... */\n      jump(tag_24)\n        /* \"lib/openzeppelin-contracts/contracts/access/Ownable.sol\":1824:1925  function renounceOwnership() public virtual onlyOwner {... */\n    tag_8:\n      callvalue\n      dup1\n      iszero\n      tag_47\n      jumpi\n      0x00\n      dup1\n      revert\n    tag_47:\n      pop\n      tag_31\n      tag_49\n      jump\t// in\n        /* \"projects/02-access-control/contracts/02-ownable/SecureVaultOwnable.sol\":2423:2484  function pause() external onlyOwner {... */\n    tag_9:\n      callvalue\n      dup1\n      iszero\n      tag_50\n      jumpi\n      0x00\n      dup1\n      revert\n    tag_50:\n      pop\n      tag_31\n      tag_52\n      jump\t// in\n        /* \"projects/02-access-control/contracts/02-ownable/SecureVaultOwnable.sol\":2730:3056  function updateMaxWithdrawal(uint256 newMaxWithdrawal) external onlyOwner {... */\n    tag_10:\n      callvalue\n      dup1\n      iszero\n      tag_53\n      jumpi\n      0x00\n      dup1\n      revert\n    tag_53:\n      pop\n      tag_31\n      tag_55\n      calldatasize\n      0x04\n      tag_33\n      jump\t// in\n    tag_55:\n      tag_56\n      jump\t// in\n        /* \"projects/02-access-control/contracts/02-ownable/SecureVaultOwnable.sol\":903:931  uint256 public maxWithdrawal */\n    tag_11:\n      callvalue\n      dup1\n      iszero\n      tag_57\n      jumpi\n      0x00\n      dup1\n      revert\n    tag_57:\n      pop\n      tag_24\n      sload(0x05)\n      dup2\n      jump\n        /* \"lib/openzeppelin-contracts/contracts/access/Ownable.sol\":1201:1286  function owner() public view virtual returns (address) {... */\n    tag_12:\n      callvalue\n      dup1\n      iszero\n      tag_61\n      jumpi\n      0x00\n      dup1\n      revert\n    tag_61:\n      pop\n        /* \"lib/openzeppelin-contracts/contracts/access/Ownable.sol\":1247:1254  address */\n      0x00\n        /* \"lib/openzeppelin-contracts/contracts/access/Ownable.sol\":1273:1279  _owner */\n      sload\n        /* \"lib/openzeppelin-contracts/contracts/access/Ownable.sol\":1201:1286  function owner() public view virtual returns (address) {... */\n      mload(0x40)\n      sub(shl(0xa0, 0x01), 0x01)\n        /* \"lib/openzeppelin-contracts/contracts/access/Ownable.sol\":1273:1279  _owner */\n      swap1\n      swap2\n      and\n        /* \"#utility.yul\":1010:1061   */\n      dup2\n      mstore\n        /* \"#utility.yul\":998:1000   */\n      0x20\n        /* \"#utility.yul\":983:1001   */\n      add\n        /* \"lib/openzeppelin-contracts/contracts/access/Ownable.sol\":1201:1286  function owner() public view virtual returns (address) {... */\n      tag_28\n        /* \"#utility.yul\":864:1067   */\n      jump\n        /* \"projects/02-access-control/contracts/02-ownable/SecureVaultOwnable.sol\":872:897  uint256 public totalFunds */\n    tag_13:\n      callvalue\n      dup1\n      iszero\n      tag_66\n      jumpi\n      0x00\n      dup1\n      revert\n    tag_66:\n      pop\n      tag_24\n      sload(0x04)\n      dup2\n      jump\n        /* \"projects/02-access-control/contracts/02-ownable/SecureVaultOwnable.sol\":1447:1708  function deposit() external payable whenNotPaused {... */\n    tag_14:\n      tag_31\n      tag_71\n      jump\t// in\n        /* \"projects/02-access-control/contracts/02-ownable/SecureVaultOwnable.sol\":3188:3556  function emergencyWithdraw() external onlyOwner {... */\n    tag_15:\n      callvalue\n      dup1\n      iszero\n      tag_72\n      jumpi\n      0x00\n      dup1\n      revert\n    tag_72:\n      pop\n      tag_31\n      tag_74\n      jump\t// in\n        /* \"projects/02-access-control/contracts/02-ownable/SecureVaultOwnable.sol\":4162:4368  function transferOwnership(address newOwner) public virtual override onlyOwner {... */\n    tag_16:\n      callvalue\n      dup1\n      iszero\n      tag_75\n      jumpi\n      0x00\n      dup1\n      revert\n    tag_75:\n      pop\n      tag_31\n      tag_77\n      calldatasize\n      0x04\n      tag_26\n      jump\t// in\n    tag_77:\n      tag_78\n      jump\t// in\n        /* \"projects/02-access-control/contracts/02-ownable/SecureVaultOwnable.sol\":3638:3742  function getBalance(address user) external view returns (uint256) {... */\n    tag_17:\n      callvalue\n      dup1\n      iszero\n      tag_79\n      jumpi\n      0x00\n      dup1\n      revert\n    tag_79:\n      pop\n      tag_24\n      tag_81\n      calldatasize\n      0x04\n      tag_26\n      jump\t// in\n    tag_81:\n      sub(shl(0xa0, 0x01), 0x01)\n        /* \"projects/02-access-control/contracts/02-ownable/SecureVaultOwnable.sol\":3721:3735  balances[user] */\n      and\n        /* \"projects/02-access-control/contracts/02-ownable/SecureVaultOwnable.sol\":3695:3702  uint256 */\n      0x00\n        /* \"projects/02-access-control/contracts/02-ownable/SecureVaultOwnable.sol\":3721:3735  balances[user] */\n      swap1\n      dup2\n      mstore\n        /* \"projects/02-access-control/contracts/02-ownable/SecureVaultOwnable.sol\":3721:3729  balances */\n      0x03\n        /* \"projects/02-access-control/contracts/02-ownable/SecureVaultOwnable.sol\":3721:3735  balances[user] */\n      0x20\n      mstore\n      0x40\n      swap1\n      keccak256\n      sload\n      swap1\n        /* \"projects/02-access-control/contracts/02-ownable/SecureVaultOwnable.sol\":3638:3742  function getBalance(address user) external view returns (uint256) {... */\n      jump\n        /* \"projects/02-access-control/contracts/02-ownable/SecureVaultOwnable.sol\":1828:2339  function withdraw(uint256 amount) external onlyOwner nonReentrant whenNotPaused {... */\n    tag_34:\n        /* \"lib/openzeppelin-contracts/contracts/access/Ownable.sol\":1094:1107  _checkOwner() */\n      tag_85\n        /* \"lib/openzeppelin-contracts/contracts/access/Ownable.sol\":1094:1105  _checkOwner */\n      tag_86\n        /* \"lib/openzeppelin-contracts/contracts/access/Ownable.sol\":1094:1107  _checkOwner() */\n      jump\t// in\n    tag_85:\n        /* \"lib/openzeppelin-contracts/contracts/security/ReentrancyGuard.sol\":2261:2282  _nonReentrantBefore() */\n      tag_88\n        /* \"lib/openzeppelin-contracts/contracts/security/ReentrancyGuard.sol\":2261:2280  _nonReentrantBefore */\n      tag_89\n        /* \"lib/openzeppelin-contracts/contracts/security/ReentrancyGuard.sol\":2261:2282  _nonReentrantBefore() */\n      jump\t// in\n    tag_88:\n        /* \"lib/openzeppelin-contracts/contracts/security/Pausable.sol\":1239:1258  _requireNotPaused() */\n      tag_91\n        /* \"lib/openzeppelin-contracts/contracts/security/Pausable.sol\":1239:1256  _requireNotPaused */\n      tag_92\n        /* \"lib/openzeppelin-contracts/contracts/security/Pausable.sol\":1239:1258  _requireNotPaused() */\n      jump\t// in\n    tag_91:\n        /* \"projects/02-access-control/contracts/02-ownable/SecureVaultOwnable.sol\":1935:1936  0 */\n      0x00\n        /* \"projects/02-access-control/contracts/02-ownable/SecureVaultOwnable.sol\":1926:1932  amount */\n      dup2\n        /* \"projects/02-access-control/contracts/02-ownable/SecureVaultOwnable.sol\":1926:1936  amount > 0 */\n      gt\n        /* \"projects/02-access-control/contracts/02-ownable/SecureVaultOwnable.sol\":1918:1970  require(amount > 0, \"Amount must be greater than 0\") */\n      tag_94\n      jumpi\n      mload(0x40)\n      shl(0xe5, 0x461bcd)\n      dup2\n      mstore\n        /* \"#utility.yul\":1274:1276   */\n      0x20\n        /* \"projects/02-access-control/contracts/02-ownable/SecureVaultOwnable.sol\":1918:1970  require(amount > 0, \"Amount must be greater than 0\") */\n      0x04\n      dup3\n      add\n        /* \"#utility.yul\":1256:1277   */\n      mstore\n        /* \"#utility.yul\":1313:1315   */\n      0x1d\n        /* \"#utility.yul\":1293:1311   */\n      0x24\n      dup3\n      add\n        /* \"#utility.yul\":1286:1316   */\n      mstore\n        /* \"#utility.yul\":1352:1383   */\n      0x416d6f756e74206d7573742062652067726561746572207468616e2030000000\n        /* \"#utility.yul\":1332:1350   */\n      0x44\n      dup3\n      add\n        /* \"#utility.yul\":1325:1384   */\n      mstore\n        /* \"#utility.yul\":1401:1419   */\n      0x64\n      add\n        /* \"projects/02-access-control/contracts/02-ownable/SecureVaultOwnable.sol\":1918:1970  require(amount > 0, \"Amount must be greater than 0\") */\n    tag_95:\n      mload(0x40)\n      dup1\n      swap2\n      sub\n      swap1\n      revert\n    tag_94:\n        /* \"projects/02-access-control/contracts/02-ownable/SecureVaultOwnable.sol\":1998:2019  address(this).balance */\n      selfbalance\n        /* \"projects/02-access-control/contracts/02-ownable/SecureVaultOwnable.sol\":1988:1994  amount */\n      dup2\n        /* \"projects/02-access-control/contracts/02-ownable/SecureVaultOwnable.sol\":1988:2019  amount <= address(this).balance */\n      gt\n      iszero\n        /* \"projects/02-access-control/contracts/02-ownable/SecureVaultOwnable.sol\":1980:2053  require(amount <= address(this).balance, \"Insufficient contract balance\") */\n      tag_97\n      jumpi\n      mload(0x40)\n      shl(0xe5, 0x461bcd)\n      dup2\n      mstore\n        /* \"#utility.yul\":1632:1634   */\n      0x20\n        /* \"projects/02-access-control/contracts/02-ownable/SecureVaultOwnable.sol\":1980:2053  require(amount <= address(this).balance, \"Insufficient contract balance\") */\n      0x04\n      dup3\n      add\n        /* \"#utility.yul\":1614:1635   */\n      mstore\n        /* \"#utility.yul\":1671:1673   */\n      0x1d\n        /* \"#utility.yul\":1651:1669   */\n      0x24\n      dup3\n      add\n        /* \"#utility.yul\":1644:1674   */\n      mstore\n        /* \"#utility.yul\":1710:1741   */\n      0x496e73756666696369656e7420636f6e74726163742062616c616e6365000000\n        /* \"#utility.yul\":1690:1708   */\n      0x44\n      dup3\n      add\n        /* \"#utility.yul\":1683:1742   */\n      mstore\n        /* \"#utility.yul\":1759:1777   */\n      0x64\n      add\n        /* \"projects/02-access-control/contracts/02-ownable/SecureVaultOwnable.sol\":1980:2053  require(amount <= address(this).balance, \"Insufficient contract balance\") */\n      tag_95\n        /* \"#utility.yul\":1430:1783   */\n      jump\n        /* \"projects/02-access-control/contracts/02-ownable/SecureVaultOwnable.sol\":1980:2053  require(amount <= address(this).balance, \"Insufficient contract balance\") */\n    tag_97:\n        /* \"projects/02-access-control/contracts/02-ownable/SecureVaultOwnable.sol\":2081:2094  maxWithdrawal */\n      sload(0x05)\n        /* \"projects/02-access-control/contracts/02-ownable/SecureVaultOwnable.sol\":2071:2077  amount */\n      dup2\n        /* \"projects/02-access-control/contracts/02-ownable/SecureVaultOwnable.sol\":2071:2094  amount <= maxWithdrawal */\n      gt\n      iszero\n        /* \"projects/02-access-control/contracts/02-ownable/SecureVaultOwnable.sol\":2063:2127  require(amount <= maxWithdrawal, \"Exceeds max withdrawal limit\") */\n      tag_100\n      jumpi\n      mload(0x40)\n      shl(0xe5, 0x461bcd)\n      dup2\n      mstore\n        /* \"#utility.yul\":1990:1992   */\n      0x20\n        /* \"projects/02-access-control/contracts/02-ownable/SecureVaultOwnable.sol\":2063:2127  require(amount <= maxWithdrawal, \"Exceeds max withdrawal limit\") */\n      0x04\n      dup3\n      add\n        /* \"#utility.yul\":1972:1993   */\n      mstore\n        /* \"#utility.yul\":2029:2031   */\n      0x1c\n        /* \"#utility.yul\":2009:2027   */\n      0x24\n      dup3\n      add\n        /* \"#utility.yul\":2002:2032   */\n      mstore\n        /* \"#utility.yul\":2068:2098   */\n      0x45786365656473206d6178207769746864726177616c206c696d697400000000\n        /* \"#utility.yul\":2048:2066   */\n      0x44\n      dup3\n      add\n        /* \"#utility.yul\":2041:2099   */\n      mstore\n        /* \"#utility.yul\":2116:2134   */\n      0x64\n      add\n        /* \"projects/02-access-control/contracts/02-ownable/SecureVaultOwnable.sol\":2063:2127  require(amount <= maxWithdrawal, \"Exceeds max withdrawal limit\") */\n      tag_95\n        /* \"#utility.yul\":1788:2140   */\n      jump\n        /* \"projects/02-access-control/contracts/02-ownable/SecureVaultOwnable.sol\":2063:2127  require(amount <= maxWithdrawal, \"Exceeds max withdrawal limit\") */\n    tag_100:\n        /* \"projects/02-access-control/contracts/02-ownable/SecureVaultOwnable.sol\":2160:2166  amount */\n      dup1\n        /* \"projects/02-access-control/contracts/02-ownable/SecureVaultOwnable.sol\":2146:2156  totalFunds */\n      0x04\n      0x00\n        /* \"projects/02-access-control/contracts/02-ownable/SecureVaultOwnable.sol\":2146:2166  totalFunds -= amount */\n      dup3\n      dup3\n      sload\n      tag_103\n      swap2\n      swap1\n      tag_104\n      jump\t// in\n    tag_103:\n      swap1\n      swap2\n      sstore\n      pop\n      pop\n        /* \"projects/02-access-control/contracts/02-ownable/SecureVaultOwnable.sol\":2186:2198  bool success */\n      0x00\n        /* \"lib/openzeppelin-contracts/contracts/access/Ownable.sol\":1273:1279  _owner */\n      dup1\n      sload\n        /* \"projects/02-access-control/contracts/02-ownable/SecureVaultOwnable.sol\":2204:2235  owner().call{value: amount}(\"\") */\n      mload(0x40)\n      sub(shl(0xa0, 0x01), 0x01)\n        /* \"lib/openzeppelin-contracts/contracts/access/Ownable.sol\":1273:1279  _owner */\n      swap1\n      swap2\n      and\n      swap1\n        /* \"projects/02-access-control/contracts/02-ownable/SecureVaultOwnable.sol\":2224:2230  amount */\n      dup4\n      swap1\n        /* \"projects/02-access-control/contracts/02-ownable/SecureVaultOwnable.sol\":2186:2198  bool success */\n      dup4\n        /* \"projects/02-access-control/contracts/02-ownable/SecureVaultOwnable.sol\":2204:2235  owner().call{value: amount}(\"\") */\n      dup2\n        /* \"projects/02-access-control/contracts/02-ownable/SecureVaultOwnable.sol\":2186:2198  bool success */\n      dup2\n        /* \"projects/02-access-control/contracts/02-ownable/SecureVaultOwnable.sol\":2204:2235  owner().call{value: amount}(\"\") */\n      dup2\n        /* \"projects/02-access-control/contracts/02-ownable/SecureVaultOwnable.sol\":2224:2230  amount */\n      dup6\n        /* \"lib/openzeppelin-contracts/contracts/access/Ownable.sol\":1273:1279  _owner */\n      dup8\n        /* \"projects/02-access-control/contracts/02-ownable/SecureVaultOwnable.sol\":2204:2235  owner().call{value: amount}(\"\") */\n      gas\n      call\n      swap3\n      pop\n      pop\n      pop\n      returndatasize\n      dup1\n      0x00\n      dup2\n      eq\n      tag_110\n      jumpi\n      mload(0x40)\n      swap2\n      pop\n      and(add(returndatasize, 0x3f), not(0x1f))\n      dup3\n      add\n      0x40\n      mstore\n      returndatasize\n      dup3\n      mstore\n      returndatasize\n      0x00\n      0x20\n      dup5\n      add\n      returndatacopy\n      jump(tag_109)\n    tag_110:\n      0x60\n      swap2\n      pop\n    tag_109:\n      pop\n        /* \"projects/02-access-control/contracts/02-ownable/SecureVaultOwnable.sol\":2185:2235  (bool success, ) = owner().call{value: amount}(\"\") */\n      pop\n      swap1\n      pop\n        /* \"projects/02-access-control/contracts/02-ownable/SecureVaultOwnable.sol\":2253:2260  success */\n      dup1\n        /* \"projects/02-access-control/contracts/02-ownable/SecureVaultOwnable.sol\":2245:2280  require(success, \"Transfer failed\") */\n      tag_111\n      jumpi\n      mload(0x40)\n      shl(0xe5, 0x461bcd)\n      dup2\n      mstore\n        /* \"#utility.yul\":2822:2824   */\n      0x20\n        /* \"projects/02-access-control/contracts/02-ownable/SecureVaultOwnable.sol\":2245:2280  require(success, \"Transfer failed\") */\n      0x04\n      dup3\n      add\n        /* \"#utility.yul\":2804:2825   */\n      mstore\n        /* \"#utility.yul\":2861:2863   */\n      0x0f\n        /* \"#utility.yul\":2841:2859   */\n      0x24\n      dup3\n      add\n        /* \"#utility.yul\":2834:2864   */\n      mstore\n      shl(0x8a, 0x151c985b9cd9995c8819985a5b1959)\n        /* \"#utility.yul\":2880:2898   */\n      0x44\n      dup3\n      add\n        /* \"#utility.yul\":2873:2918   */\n      mstore\n        /* \"#utility.yul\":2935:2953   */\n      0x64\n      add\n        /* \"projects/02-access-control/contracts/02-ownable/SecureVaultOwnable.sol\":2245:2280  require(success, \"Transfer failed\") */\n      tag_95\n        /* \"#utility.yul\":2620:2959   */\n      jump\n        /* \"projects/02-access-control/contracts/02-ownable/SecureVaultOwnable.sol\":2245:2280  require(success, \"Transfer failed\") */\n    tag_111:\n        /* \"projects/02-access-control/contracts/02-ownable/SecureVaultOwnable.sol\":2304:2332  Withdraw(msg.sender, amount) */\n      mload(0x40)\n        /* \"#utility.yul\":451:476   */\n      dup3\n      dup2\n      mstore\n        /* \"projects/02-access-control/contracts/02-ownable/SecureVaultOwnable.sol\":2313:2323  msg.sender */\n      caller\n      swap1\n        /* \"projects/02-access-control/contracts/02-ownable/SecureVaultOwnable.sol\":2304:2332  Withdraw(msg.sender, amount) */\n      0x884edad9ce6fa2440d8a54cc123490eb96d2768479d49ff9c7366125a9424364\n      swap1\n        /* \"#utility.yul\":439:441   */\n      0x20\n        /* \"#utility.yul\":424:442   */\n      add\n        /* \"projects/02-access-control/contracts/02-ownable/SecureVaultOwnable.sol\":2304:2332  Withdraw(msg.sender, amount) */\n      mload(0x40)\n      dup1\n      swap2\n      sub\n      swap1\n      log2\n        /* \"projects/02-access-control/contracts/02-ownable/SecureVaultOwnable.sol\":1908:2339  {... */\n      pop\n        /* \"lib/openzeppelin-contracts/contracts/security/ReentrancyGuard.sol\":2303:2323  _nonReentrantAfter() */\n      tag_115\n        /* \"lib/openzeppelin-contracts/contracts/security/ReentrancyGuard.sol\":1716:1717  1 */\n      0x01\n        /* \"lib/openzeppelin-contracts/contracts/security/ReentrancyGuard.sol\":2809:2831  _status = _NOT_ENTERED */\n      dup1\n      sstore\n        /* \"lib/openzeppelin-contracts/contracts/security/ReentrancyGuard.sol\":2629:2838  function _nonReentrantAfter() private {... */\n      jump\n        /* \"lib/openzeppelin-contracts/contracts/security/ReentrancyGuard.sol\":2303:2323  _nonReentrantAfter() */\n    tag_115:\n        /* \"projects/02-access-control/contracts/02-ownable/SecureVaultOwnable.sol\":1828:2339  function withdraw(uint256 amount) external onlyOwner nonReentrant whenNotPaused {... */\n      pop\n      jump\t// out\n        /* \"projects/02-access-control/contracts/02-ownable/SecureVaultOwnable.sol\":2571:2636  function unpause() external onlyOwner {... */\n    tag_37:\n        /* \"lib/openzeppelin-contracts/contracts/access/Ownable.sol\":1094:1107  _checkOwner() */\n      tag_118\n        /* \"lib/openzeppelin-contracts/contracts/access/Ownable.sol\":1094:1105  _checkOwner */\n      tag_86\n        /* \"lib/openzeppelin-contracts/contracts/access/Ownable.sol\":1094:1107  _checkOwner() */\n      jump\t// in\n    tag_118:\n        /* \"projects/02-access-control/contracts/02-ownable/SecureVaultOwnable.sol\":2619:2629  _unpause() */\n      tag_120\n        /* \"projects/02-access-control/contracts/02-ownable/SecureVaultOwnable.sol\":2619:2627  _unpause */\n      tag_121\n        /* \"projects/02-access-control/contracts/02-ownable/SecureVaultOwnable.sol\":2619:2629  _unpause() */\n      jump\t// in\n    tag_120:\n        /* \"projects/02-access-control/contracts/02-ownable/SecureVaultOwnable.sol\":2571:2636  function unpause() external onlyOwner {... */\n      jump\t// out\n        /* \"lib/openzeppelin-contracts/contracts/access/Ownable.sol\":1824:1925  function renounceOwnership() public virtual onlyOwner {... */\n    tag_49:\n        /* \"lib/openzeppelin-contracts/contracts/access/Ownable.sol\":1094:1107  _checkOwner() */\n      tag_125\n        /* \"lib/openzeppelin-contracts/contracts/access/Ownable.sol\":1094:1105  _checkOwner */\n      tag_86\n        /* \"lib/openzeppelin-contracts/contracts/access/Ownable.sol\":1094:1107  _checkOwner() */\n      jump\t// in\n    tag_125:\n        /* \"lib/openzeppelin-contracts/contracts/access/Ownable.sol\":1888:1918  _transferOwnership(address(0)) */\n      tag_120\n        /* \"lib/openzeppelin-contracts/contracts/access/Ownable.sol\":1915:1916  0 */\n      0x00\n        /* \"lib/openzeppelin-contracts/contracts/access/Ownable.sol\":1888:1906  _transferOwnership */\n      tag_128\n        /* \"lib/openzeppelin-contracts/contracts/access/Ownable.sol\":1888:1918  _transferOwnership(address(0)) */\n      jump\t// in\n        /* \"projects/02-access-control/contracts/02-ownable/SecureVaultOwnable.sol\":2423:2484  function pause() external onlyOwner {... */\n    tag_52:\n        /* \"lib/openzeppelin-contracts/contracts/access/Ownable.sol\":1094:1107  _checkOwner() */\n      tag_130\n        /* \"lib/openzeppelin-contracts/contracts/access/Ownable.sol\":1094:1105  _checkOwner */\n      tag_86\n        /* \"lib/openzeppelin-contracts/contracts/access/Ownable.sol\":1094:1107  _checkOwner() */\n      jump\t// in\n    tag_130:\n        /* \"projects/02-access-control/contracts/02-ownable/SecureVaultOwnable.sol\":2469:2477  _pause() */\n      tag_120\n        /* \"projects/02-access-control/contracts/02-ownable/SecureVaultOwnable.sol\":2469:2475  _pause */\n      tag_133\n        /* \"projects/02-access-control/contracts/02-ownable/SecureVaultOwnable.sol\":2469:2477  _pause() */\n      jump\t// in\n        /* \"projects/02-access-control/contracts/02-ownable/SecureVaultOwnable.sol\":2730:3056  function updateMaxWithdrawal(uint256 newMaxWithdrawal) external onlyOwner {... */\n    tag_56:\n        /* \"lib/openzeppelin-contracts/contracts/access/Ownable.sol\":1094:1107  _checkOwner() */\n      tag_135\n        /* \"lib/openzeppelin-contracts/contracts/access/Ownable.sol\":1094:1105  _checkOwner */\n      tag_86\n        /* \"lib/openzeppelin-contracts/contracts/access/Ownable.sol\":1094:1107  _checkOwner() */\n      jump\t// in\n    tag_135:\n        /* \"projects/02-access-control/contracts/02-ownable/SecureVaultOwnable.sol\":2841:2842  0 */\n      0x00\n        /* \"projects/02-access-control/contracts/02-ownable/SecureVaultOwnable.sol\":2822:2838  newMaxWithdrawal */\n      dup2\n        /* \"projects/02-access-control/contracts/02-ownable/SecureVaultOwnable.sol\":2822:2842  newMaxWithdrawal > 0 */\n      gt\n        /* \"projects/02-access-control/contracts/02-ownable/SecureVaultOwnable.sol\":2814:2884  require(newMaxWithdrawal > 0, \"Max withdrawal must be greater than 0\") */\n      tag_137\n      jumpi\n      mload(0x40)\n      shl(0xe5, 0x461bcd)\n      dup2\n      mstore\n        /* \"#utility.yul\":3166:3168   */\n      0x20\n        /* \"projects/02-access-control/contracts/02-ownable/SecureVaultOwnable.sol\":2814:2884  require(newMaxWithdrawal > 0, \"Max withdrawal must be greater than 0\") */\n      0x04\n      dup3\n      add\n        /* \"#utility.yul\":3148:3169   */\n      mstore\n        /* \"#utility.yul\":3205:3207   */\n      0x25\n        /* \"#utility.yul\":3185:3203   */\n      0x24\n      dup3\n      add\n        /* \"#utility.yul\":3178:3208   */\n      mstore\n        /* \"#utility.yul\":3244:3278   */\n      0x4d6178207769746864726177616c206d75737420626520677265617465722074\n        /* \"#utility.yul\":3224:3242   */\n      0x44\n      dup3\n      add\n        /* \"#utility.yul\":3217:3279   */\n      mstore\n      shl(0xdc, 0x068616e203)\n        /* \"#utility.yul\":3295:3313   */\n      0x64\n      dup3\n      add\n        /* \"#utility.yul\":3288:3323   */\n      mstore\n        /* \"#utility.yul\":3340:3359   */\n      0x84\n      add\n        /* \"projects/02-access-control/contracts/02-ownable/SecureVaultOwnable.sol\":2814:2884  require(newMaxWithdrawal > 0, \"Max withdrawal must be greater than 0\") */\n      tag_95\n        /* \"#utility.yul\":2964:3365   */\n      jump\n        /* \"projects/02-access-control/contracts/02-ownable/SecureVaultOwnable.sol\":2814:2884  require(newMaxWithdrawal > 0, \"Max withdrawal must be greater than 0\") */\n    tag_137:\n        /* \"projects/02-access-control/contracts/02-ownable/SecureVaultOwnable.sol\":2922:2935  maxWithdrawal */\n      0x05\n      dup1\n      sload\n        /* \"projects/02-access-control/contracts/02-ownable/SecureVaultOwnable.sol\":2945:2977  maxWithdrawal = newMaxWithdrawal */\n      swap1\n      dup3\n      swap1\n      sstore\n        /* \"projects/02-access-control/contracts/02-ownable/SecureVaultOwnable.sol\":3001:3049  MaxWithdrawalUpdated(oldValue, newMaxWithdrawal) */\n      0x40\n      dup1\n      mload\n        /* \"#utility.yul\":3544:3569   */\n      dup3\n      dup2\n      mstore\n        /* \"#utility.yul\":3600:3602   */\n      0x20\n        /* \"#utility.yul\":3585:3603   */\n      dup2\n      add\n        /* \"#utility.yul\":3578:3612   */\n      dup5\n      swap1\n      mstore\n        /* \"projects/02-access-control/contracts/02-ownable/SecureVaultOwnable.sol\":3001:3049  MaxWithdrawalUpdated(oldValue, newMaxWithdrawal) */\n      0x4a91b35fe9913ecc73c195a97ed30c0d98b57337f0039f9e1f0c017962192f38\n      swap2\n        /* \"#utility.yul\":3517:3535   */\n      add\n        /* \"projects/02-access-control/contracts/02-ownable/SecureVaultOwnable.sol\":3001:3049  MaxWithdrawalUpdated(oldValue, newMaxWithdrawal) */\n      mload(0x40)\n      dup1\n      swap2\n      sub\n      swap1\n      log1\n        /* \"projects/02-access-control/contracts/02-ownable/SecureVaultOwnable.sol\":2804:3056  {... */\n      pop\n        /* \"projects/02-access-control/contracts/02-ownable/SecureVaultOwnable.sol\":2730:3056  function updateMaxWithdrawal(uint256 newMaxWithdrawal) external onlyOwner {... */\n      pop\n      jump\t// out\n        /* \"projects/02-access-control/contracts/02-ownable/SecureVaultOwnable.sol\":1447:1708  function deposit() external payable whenNotPaused {... */\n    tag_71:\n        /* \"lib/openzeppelin-contracts/contracts/security/Pausable.sol\":1239:1258  _requireNotPaused() */\n      tag_144\n        /* \"lib/openzeppelin-contracts/contracts/security/Pausable.sol\":1239:1256  _requireNotPaused */\n      tag_92\n        /* \"lib/openzeppelin-contracts/contracts/security/Pausable.sol\":1239:1258  _requireNotPaused() */\n      jump\t// in\n    tag_144:\n        /* \"projects/02-access-control/contracts/02-ownable/SecureVaultOwnable.sol\":1527:1528  0 */\n      0x00\n        /* \"projects/02-access-control/contracts/02-ownable/SecureVaultOwnable.sol\":1515:1524  msg.value */\n      callvalue\n        /* \"projects/02-access-control/contracts/02-ownable/SecureVaultOwnable.sol\":1515:1528  msg.value > 0 */\n      gt\n        /* \"projects/02-access-control/contracts/02-ownable/SecureVaultOwnable.sol\":1507:1562  require(msg.value > 0, \"Amount must be greater than 0\") */\n      tag_146\n      jumpi\n      mload(0x40)\n      shl(0xe5, 0x461bcd)\n      dup2\n      mstore\n        /* \"#utility.yul\":1274:1276   */\n      0x20\n        /* \"projects/02-access-control/contracts/02-ownable/SecureVaultOwnable.sol\":1507:1562  require(msg.value > 0, \"Amount must be greater than 0\") */\n      0x04\n      dup3\n      add\n        /* \"#utility.yul\":1256:1277   */\n      mstore\n        /* \"#utility.yul\":1313:1315   */\n      0x1d\n        /* \"#utility.yul\":1293:1311   */\n      0x24\n      dup3\n      add\n        /* \"#utility.yul\":1286:1316   */\n      mstore\n        /* \"#utility.yul\":1352:1383   */\n      0x416d6f756e74206d7573742062652067726561746572207468616e2030000000\n        /* \"#utility.yul\":1332:1350   */\n      0x44\n      dup3\n      add\n        /* \"#utility.yul\":1325:1384   */\n      mstore\n        /* \"#utility.yul\":1401:1419   */\n      0x64\n      add\n        /* \"projects/02-access-control/contracts/02-ownable/SecureVaultOwnable.sol\":1507:1562  require(msg.value > 0, \"Amount must be greater than 0\") */\n      tag_95\n        /* \"#utility.yul\":1072:1425   */\n      jump\n        /* \"projects/02-access-control/contracts/02-ownable/SecureVaultOwnable.sol\":1507:1562  require(msg.value > 0, \"Amount must be greater than 0\") */\n    tag_146:\n        /* \"projects/02-access-control/contracts/02-ownable/SecureVaultOwnable.sol\":1590:1600  msg.sender */\n      caller\n        /* \"projects/02-access-control/contracts/02-ownable/SecureVaultOwnable.sol\":1581:1601  balances[msg.sender] */\n      0x00\n      swap1\n      dup2\n      mstore\n        /* \"projects/02-access-control/contracts/02-ownable/SecureVaultOwnable.sol\":1581:1589  balances */\n      0x03\n        /* \"projects/02-access-control/contracts/02-ownable/SecureVaultOwnable.sol\":1581:1601  balances[msg.sender] */\n      0x20\n      mstore\n      0x40\n      dup2\n      keccak256\n        /* \"projects/02-access-control/contracts/02-ownable/SecureVaultOwnable.sol\":1581:1614  balances[msg.sender] += msg.value */\n      dup1\n      sload\n        /* \"projects/02-access-control/contracts/02-ownable/SecureVaultOwnable.sol\":1605:1614  msg.value */\n      callvalue\n      swap3\n        /* \"projects/02-access-control/contracts/02-ownable/SecureVaultOwnable.sol\":1581:1601  balances[msg.sender] */\n      swap1\n        /* \"projects/02-access-control/contracts/02-ownable/SecureVaultOwnable.sol\":1581:1614  balances[msg.sender] += msg.value */\n      tag_148\n      swap1\n        /* \"projects/02-access-control/contracts/02-ownable/SecureVaultOwnable.sol\":1605:1614  msg.value */\n      dup5\n      swap1\n        /* \"projects/02-access-control/contracts/02-ownable/SecureVaultOwnable.sol\":1581:1614  balances[msg.sender] += msg.value */\n      tag_149\n      jump\t// in\n    tag_148:\n      swap3\n      pop\n      pop\n      dup2\n      swap1\n      sstore\n      pop\n        /* \"projects/02-access-control/contracts/02-ownable/SecureVaultOwnable.sol\":1638:1647  msg.value */\n      callvalue\n        /* \"projects/02-access-control/contracts/02-ownable/SecureVaultOwnable.sol\":1624:1634  totalFunds */\n      0x04\n      0x00\n        /* \"projects/02-access-control/contracts/02-ownable/SecureVaultOwnable.sol\":1624:1647  totalFunds += msg.value */\n      dup3\n      dup3\n      sload\n      tag_150\n      swap2\n      swap1\n      tag_149\n      jump\t// in\n    tag_150:\n      swap1\n      swap2\n      sstore\n      pop\n      pop\n        /* \"projects/02-access-control/contracts/02-ownable/SecureVaultOwnable.sol\":1671:1701  Deposit(msg.sender, msg.value) */\n      mload(0x40)\n        /* \"projects/02-access-control/contracts/02-ownable/SecureVaultOwnable.sol\":1691:1700  msg.value */\n      callvalue\n        /* \"#utility.yul\":451:476   */\n      dup2\n      mstore\n        /* \"projects/02-access-control/contracts/02-ownable/SecureVaultOwnable.sol\":1679:1689  msg.sender */\n      caller\n      swap1\n        /* \"projects/02-access-control/contracts/02-ownable/SecureVaultOwnable.sol\":1671:1701  Deposit(msg.sender, msg.value) */\n      0xe1fffcc4923d04b559f4d29a8bfc6cda04eb5b0d3c460751c2402c5c5cc9109c\n      swap1\n        /* \"#utility.yul\":439:441   */\n      0x20\n        /* \"#utility.yul\":424:442   */\n      add\n        /* \"projects/02-access-control/contracts/02-ownable/SecureVaultOwnable.sol\":1671:1701  Deposit(msg.sender, msg.value) */\n      mload(0x40)\n      dup1\n      swap2\n      sub\n      swap1\n      log2\n        /* \"projects/02-access-control/contracts/02-ownable/SecureVaultOwnable.sol\":1447:1708  function deposit() external payable whenNotPaused {... */\n      jump\t// out\n        /* \"projects/02-access-control/contracts/02-ownable/SecureVaultOwnable.sol\":3188:3556  function emergencyWithdraw() external onlyOwner {... */\n    tag_74:\n        /* \"lib/openzeppelin-contracts/contracts/access/Ownable.sol\":1094:1107  _checkOwner() */\n      tag_153\n        /* \"lib/openzeppelin-contracts/contracts/access/Ownable.sol\":1094:1105  _checkOwner */\n      tag_86\n        /* \"lib/openzeppelin-contracts/contracts/access/Ownable.sol\":1094:1107  _checkOwner() */\n      jump\t// in\n    tag_153:\n        /* \"projects/02-access-control/contracts/02-ownable/SecureVaultOwnable.sol\":3264:3285  address(this).balance */\n      selfbalance\n        /* \"projects/02-access-control/contracts/02-ownable/SecureVaultOwnable.sol\":3303:3314  balance > 0 */\n      dup1\n        /* \"projects/02-access-control/contracts/02-ownable/SecureVaultOwnable.sol\":3295:3339  require(balance > 0, \"No funds to withdraw\") */\n      tag_155\n      jumpi\n      mload(0x40)\n      shl(0xe5, 0x461bcd)\n      dup2\n      mstore\n        /* \"#utility.yul\":3955:3957   */\n      0x20\n        /* \"projects/02-access-control/contracts/02-ownable/SecureVaultOwnable.sol\":3295:3339  require(balance > 0, \"No funds to withdraw\") */\n      0x04\n      dup3\n      add\n        /* \"#utility.yul\":3937:3958   */\n      mstore\n        /* \"#utility.yul\":3994:3996   */\n      0x14\n        /* \"#utility.yul\":3974:3992   */\n      0x24\n      dup3\n      add\n        /* \"#utility.yul\":3967:3997   */\n      mstore\n      shl(0x60, 0x4e6f2066756e647320746f207769746864726177)\n        /* \"#utility.yul\":4013:4031   */\n      0x44\n      dup3\n      add\n        /* \"#utility.yul\":4006:4056   */\n      mstore\n        /* \"#utility.yul\":4073:4091   */\n      0x64\n      add\n        /* \"projects/02-access-control/contracts/02-ownable/SecureVaultOwnable.sol\":3295:3339  require(balance > 0, \"No funds to withdraw\") */\n      tag_95\n        /* \"#utility.yul\":3753:4097   */\n      jump\n        /* \"projects/02-access-control/contracts/02-ownable/SecureVaultOwnable.sol\":3295:3339  require(balance > 0, \"No funds to withdraw\") */\n    tag_155:\n        /* \"projects/02-access-control/contracts/02-ownable/SecureVaultOwnable.sol\":3371:3372  0 */\n      0x00\n        /* \"projects/02-access-control/contracts/02-ownable/SecureVaultOwnable.sol\":3358:3368  totalFunds */\n      0x04\n        /* \"projects/02-access-control/contracts/02-ownable/SecureVaultOwnable.sol\":3358:3372  totalFunds = 0 */\n      dup2\n      swap1\n      sstore\n        /* \"lib/openzeppelin-contracts/contracts/access/Ownable.sol\":1273:1279  _owner */\n      dup1\n      sload\n        /* \"projects/02-access-control/contracts/02-ownable/SecureVaultOwnable.sol\":3410:3442  owner().call{value: balance}(\"\") */\n      mload(0x40)\n      sub(shl(0xa0, 0x01), 0x01)\n        /* \"lib/openzeppelin-contracts/contracts/access/Ownable.sol\":1273:1279  _owner */\n      swap1\n      swap2\n      and\n      swap1\n        /* \"projects/02-access-control/contracts/02-ownable/SecureVaultOwnable.sol\":3430:3437  balance */\n      dup4\n      swap1\n        /* \"projects/02-access-control/contracts/02-ownable/SecureVaultOwnable.sol\":3371:3372  0 */\n      dup4\n        /* \"projects/02-access-control/contracts/02-ownable/SecureVaultOwnable.sol\":3410:3442  owner().call{value: balance}(\"\") */\n      dup2\n        /* \"projects/02-access-control/contracts/02-ownable/SecureVaultOwnable.sol\":3371:3372  0 */\n      dup2\n        /* \"projects/02-access-control/contracts/02-ownable/SecureVaultOwnable.sol\":3410:3442  owner().call{value: balance}(\"\") */\n      dup2\n        /* \"projects/02-access-control/contracts/02-ownable/SecureVaultOwnable.sol\":3430:3437  balance */\n      dup6\n        /* \"lib/openzeppelin-contracts/contracts/access/Ownable.sol\":1273:1279  _owner */\n      dup8\n        /* \"projects/02-access-control/contracts/02-ownable/SecureVaultOwnable.sol\":3410:3442  owner().call{value: balance}(\"\") */\n      gas\n      call\n      swap3\n      pop\n      pop\n      pop\n      returndatasize\n      dup1\n      0x00\n      dup2\n      eq\n      tag_162\n      jumpi\n      mload(0x40)\n      swap2\n      pop\n      and(add(returndatasize, 0x3f), not(0x1f))\n      dup3\n      add\n      0x40\n      mstore\n      returndatasize\n      dup3\n      mstore\n      returndatasize\n      0x00\n      0x20\n      dup5\n      add\n      returndatacopy\n      jump(tag_161)\n    tag_162:\n      0x60\n      swap2\n      pop\n    tag_161:\n      pop\n        /* \"projects/02-access-control/contracts/02-ownable/SecureVaultOwnable.sol\":3391:3442  (bool success, ) = owner().call{value: balance}(\"\") */\n      pop\n      swap1\n      pop\n        /* \"projects/02-access-control/contracts/02-ownable/SecureVaultOwnable.sol\":3460:3467  success */\n      dup1\n        /* \"projects/02-access-control/contracts/02-ownable/SecureVaultOwnable.sol\":3452:3487  require(success, \"Transfer failed\") */\n      tag_163\n      jumpi\n      mload(0x40)\n      shl(0xe5, 0x461bcd)\n      dup2\n      mstore\n        /* \"#utility.yul\":2822:2824   */\n      0x20\n        /* \"projects/02-access-control/contracts/02-ownable/SecureVaultOwnable.sol\":3452:3487  require(success, \"Transfer failed\") */\n      0x04\n      dup3\n      add\n        /* \"#utility.yul\":2804:2825   */\n      mstore\n        /* \"#utility.yul\":2861:2863   */\n      0x0f\n        /* \"#utility.yul\":2841:2859   */\n      0x24\n      dup3\n      add\n        /* \"#utility.yul\":2834:2864   */\n      mstore\n      shl(0x8a, 0x151c985b9cd9995c8819985a5b1959)\n        /* \"#utility.yul\":2880:2898   */\n      0x44\n      dup3\n      add\n        /* \"#utility.yul\":2873:2918   */\n      mstore\n        /* \"#utility.yul\":2935:2953   */\n      0x64\n      add\n        /* \"projects/02-access-control/contracts/02-ownable/SecureVaultOwnable.sol\":3452:3487  require(success, \"Transfer failed\") */\n      tag_95\n        /* \"#utility.yul\":2620:2959   */\n      jump\n        /* \"projects/02-access-control/contracts/02-ownable/SecureVaultOwnable.sol\":3452:3487  require(success, \"Transfer failed\") */\n    tag_163:\n        /* \"projects/02-access-control/contracts/02-ownable/SecureVaultOwnable.sol\":3511:3549  EmergencyWithdraw(msg.sender, balance) */\n      mload(0x40)\n        /* \"#utility.yul\":451:476   */\n      dup3\n      dup2\n      mstore\n        /* \"projects/02-access-control/contracts/02-ownable/SecureVaultOwnable.sol\":3529:3539  msg.sender */\n      caller\n      swap1\n        /* \"projects/02-access-control/contracts/02-ownable/SecureVaultOwnable.sol\":3511:3549  EmergencyWithdraw(msg.sender, balance) */\n      0x5fafa99d0643513820be26656b45130b01e1c03062e1266bf36f88cbd3bd9695\n      swap1\n        /* \"#utility.yul\":439:441   */\n      0x20\n        /* \"#utility.yul\":424:442   */\n      add\n        /* \"projects/02-access-control/contracts/02-ownable/SecureVaultOwnable.sol\":3511:3549  EmergencyWithdraw(msg.sender, balance) */\n      mload(0x40)\n      dup1\n      swap2\n      sub\n      swap1\n      log2\n        /* \"projects/02-access-control/contracts/02-ownable/SecureVaultOwnable.sol\":3236:3556  {... */\n      pop\n      pop\n        /* \"projects/02-access-control/contracts/02-ownable/SecureVaultOwnable.sol\":3188:3556  function emergencyWithdraw() external onlyOwner {... */\n      jump\t// out\n        /* \"projects/02-access-control/contracts/02-ownable/SecureVaultOwnable.sol\":4162:4368  function transferOwnership(address newOwner) public virtual override onlyOwner {... */\n    tag_78:\n        /* \"lib/openzeppelin-contracts/contracts/access/Ownable.sol\":1094:1107  _checkOwner() */\n      tag_167\n        /* \"lib/openzeppelin-contracts/contracts/access/Ownable.sol\":1094:1105  _checkOwner */\n      tag_86\n        /* \"lib/openzeppelin-contracts/contracts/access/Ownable.sol\":1094:1107  _checkOwner() */\n      jump\t// in\n    tag_167:\n      sub(shl(0xa0, 0x01), 0x01)\n        /* \"projects/02-access-control/contracts/02-ownable/SecureVaultOwnable.sol\":4259:4281  newOwner != address(0) */\n      dup2\n      and\n        /* \"projects/02-access-control/contracts/02-ownable/SecureVaultOwnable.sol\":4251:4318  require(newOwner != address(0), \"New owner cannot be zero address\") */\n      tag_169\n      jumpi\n      mload(0x40)\n      shl(0xe5, 0x461bcd)\n      dup2\n      mstore\n        /* \"#utility.yul\":4304:4306   */\n      0x20\n        /* \"projects/02-access-control/contracts/02-ownable/SecureVaultOwnable.sol\":4251:4318  require(newOwner != address(0), \"New owner cannot be zero address\") */\n      0x04\n      dup3\n      add\n        /* \"#utility.yul\":4286:4307   */\n      dup2\n      swap1\n      mstore\n        /* \"#utility.yul\":4323:4341   */\n      0x24\n      dup3\n      add\n        /* \"#utility.yul\":4316:4346   */\n      mstore\n        /* \"#utility.yul\":4382:4416   */\n      0x4e6577206f776e65722063616e6e6f74206265207a65726f2061646472657373\n        /* \"#utility.yul\":4362:4380   */\n      0x44\n      dup3\n      add\n        /* \"#utility.yul\":4355:4417   */\n      mstore\n        /* \"#utility.yul\":4434:4452   */\n      0x64\n      add\n        /* \"projects/02-access-control/contracts/02-ownable/SecureVaultOwnable.sol\":4251:4318  require(newOwner != address(0), \"New owner cannot be zero address\") */\n      tag_95\n        /* \"#utility.yul\":4102:4458   */\n      jump\n        /* \"projects/02-access-control/contracts/02-ownable/SecureVaultOwnable.sol\":4251:4318  require(newOwner != address(0), \"New owner cannot be zero address\") */\n    tag_169:\n        /* \"projects/02-access-control/contracts/02-ownable/SecureVaultOwnable.sol\":4328:4361  super.transferOwnership(newOwner) */\n      tag_115\n        /* \"projects/02-access-control/contracts/02-ownable/SecureVaultOwnable.sol\":4352:4360  newOwner */\n      dup2\n        /* \"projects/02-access-control/contracts/02-ownable/SecureVaultOwnable.sol\":4328:4351  super.transferOwnership */\n      tag_173\n        /* \"projects/02-access-control/contracts/02-ownable/SecureVaultOwnable.sol\":4328:4361  super.transferOwnership(newOwner) */\n      jump\t// in\n        /* \"lib/openzeppelin-contracts/contracts/access/Ownable.sol\":1359:1489  function _checkOwner() internal view virtual {... */\n    tag_86:\n        /* \"lib/openzeppelin-contracts/contracts/access/Ownable.sol\":1247:1254  address */\n      0x00\n        /* \"lib/openzeppelin-contracts/contracts/access/Ownable.sol\":1273:1279  _owner */\n      sload\n      sub(shl(0xa0, 0x01), 0x01)\n      and\n        /* \"lib/openzeppelin-contracts/contracts/utils/Context.sol\":719:729  msg.sender */\n      caller\n        /* \"lib/openzeppelin-contracts/contracts/access/Ownable.sol\":1422:1445  owner() == _msgSender() */\n      eq\n        /* \"lib/openzeppelin-contracts/contracts/access/Ownable.sol\":1414:1482  require(owner() == _msgSender(), \"Ownable: caller is not the owner\") */\n      tag_120\n      jumpi\n      mload(0x40)\n      shl(0xe5, 0x461bcd)\n      dup2\n      mstore\n        /* \"#utility.yul\":4665:4667   */\n      0x20\n        /* \"lib/openzeppelin-contracts/contracts/access/Ownable.sol\":1414:1482  require(owner() == _msgSender(), \"Ownable: caller is not the owner\") */\n      0x04\n      dup3\n      add\n        /* \"#utility.yul\":4647:4668   */\n      dup2\n      swap1\n      mstore\n        /* \"#utility.yul\":4684:4702   */\n      0x24\n      dup3\n      add\n        /* \"#utility.yul\":4677:4707   */\n      mstore\n        /* \"#utility.yul\":4743:4777   */\n      0x4f776e61626c653a2063616c6c6572206973206e6f7420746865206f776e6572\n        /* \"#utility.yul\":4723:4741   */\n      0x44\n      dup3\n      add\n        /* \"#utility.yul\":4716:4778   */\n      mstore\n        /* \"#utility.yul\":4795:4813   */\n      0x64\n      add\n        /* \"lib/openzeppelin-contracts/contracts/access/Ownable.sol\":1414:1482  require(owner() == _msgSender(), \"Ownable: caller is not the owner\") */\n      tag_95\n        /* \"#utility.yul\":4463:4819   */\n      jump\n        /* \"lib/openzeppelin-contracts/contracts/security/ReentrancyGuard.sol\":2336:2623  function _nonReentrantBefore() private {... */\n    tag_89:\n        /* \"lib/openzeppelin-contracts/contracts/security/ReentrancyGuard.sol\":1759:1760  2 */\n      0x02\n        /* \"lib/openzeppelin-contracts/contracts/security/ReentrancyGuard.sol\":2468:2475  _status */\n      sload(0x01)\n        /* \"lib/openzeppelin-contracts/contracts/security/ReentrancyGuard.sol\":2468:2487  _status != _ENTERED */\n      sub\n        /* \"lib/openzeppelin-contracts/contracts/security/ReentrancyGuard.sol\":2460:2523  require(_status != _ENTERED, \"ReentrancyGuard: reentrant call\") */\n      tag_183\n      jumpi\n      mload(0x40)\n      shl(0xe5, 0x461bcd)\n      dup2\n      mstore\n        /* \"#utility.yul\":5026:5028   */\n      0x20\n        /* \"lib/openzeppelin-contracts/contracts/security/ReentrancyGuard.sol\":2460:2523  require(_status != _ENTERED, \"ReentrancyGuard: reentrant call\") */\n      0x04\n      dup3\n      add\n        /* \"#utility.yul\":5008:5029   */\n      mstore\n        /* \"#utility.yul\":5065:5067   */\n      0x1f\n        /* \"#utility.yul\":5045:5063   */\n      0x24\n      dup3\n      add\n        /* \"#utility.yul\":5038:5068   */\n      mstore\n        /* \"#utility.yul\":5104:5137   */\n      0x5265656e7472616e637947756172643a207265656e7472616e742063616c6c00\n        /* \"#utility.yul\":5084:5102   */\n      0x44\n      dup3\n      add\n        /* \"#utility.yul\":5077:5138   */\n      mstore\n        /* \"#utility.yul\":5155:5173   */\n      0x64\n      add\n        /* \"lib/openzeppelin-contracts/contracts/security/ReentrancyGuard.sol\":2460:2523  require(_status != _ENTERED, \"ReentrancyGuard: reentrant call\") */\n      tag_95\n        /* \"#utility.yul\":4824:5179   */\n      jump\n        /* \"lib/openzeppelin-contracts/contracts/security/ReentrancyGuard.sol\":2460:2523  require(_status != _ENTERED, \"ReentrancyGuard: reentrant call\") */\n    tag_183:\n        /* \"lib/openzeppelin-contracts/contracts/security/ReentrancyGuard.sol\":1759:1760  2 */\n      0x02\n        /* \"lib/openzeppelin-contracts/contracts/security/ReentrancyGuard.sol\":2598:2605  _status */\n      0x01\n        /* \"lib/openzeppelin-contracts/contracts/security/ReentrancyGuard.sol\":2598:2616  _status = _ENTERED */\n      sstore\n        /* \"lib/openzeppelin-contracts/contracts/security/ReentrancyGuard.sol\":2336:2623  function _nonReentrantBefore() private {... */\n      jump\t// out\n        /* \"lib/openzeppelin-contracts/contracts/security/Pausable.sol\":1767:1873  function _requireNotPaused() internal view virtual {... */\n    tag_92:\n        /* \"lib/openzeppelin-contracts/contracts/security/Pausable.sol\":1685:1692  _paused */\n      and(0xff, sload(0x02))\n        /* \"lib/openzeppelin-contracts/contracts/security/Pausable.sol\":1836:1845  !paused() */\n      iszero\n        /* \"lib/openzeppelin-contracts/contracts/security/Pausable.sol\":1828:1866  require(!paused(), \"Pausable: paused\") */\n      tag_120\n      jumpi\n      mload(0x40)\n      shl(0xe5, 0x461bcd)\n      dup2\n      mstore\n        /* \"#utility.yul\":5386:5388   */\n      0x20\n        /* \"lib/openzeppelin-contracts/contracts/security/Pausable.sol\":1828:1866  require(!paused(), \"Pausable: paused\") */\n      0x04\n      dup3\n      add\n        /* \"#utility.yul\":5368:5389   */\n      mstore\n        /* \"#utility.yul\":5425:5427   */\n      0x10\n        /* \"#utility.yul\":5405:5423   */\n      0x24\n      dup3\n      add\n        /* \"#utility.yul\":5398:5428   */\n      mstore\n      shl(0x82, 0x14185d5cd8589b194e881c185d5cd959)\n        /* \"#utility.yul\":5444:5462   */\n      0x44\n      dup3\n      add\n        /* \"#utility.yul\":5437:5483   */\n      mstore\n        /* \"#utility.yul\":5500:5518   */\n      0x64\n      add\n        /* \"lib/openzeppelin-contracts/contracts/security/Pausable.sol\":1828:1866  require(!paused(), \"Pausable: paused\") */\n      tag_95\n        /* \"#utility.yul\":5184:5524   */\n      jump\n        /* \"lib/openzeppelin-contracts/contracts/security/Pausable.sol\":2433:2550  function _unpause() internal virtual whenPaused {... */\n    tag_121:\n        /* \"lib/openzeppelin-contracts/contracts/security/Pausable.sol\":1486:1502  _requirePaused() */\n      tag_193\n        /* \"lib/openzeppelin-contracts/contracts/security/Pausable.sol\":1486:1500  _requirePaused */\n      tag_194\n        /* \"lib/openzeppelin-contracts/contracts/security/Pausable.sol\":1486:1502  _requirePaused() */\n      jump\t// in\n    tag_193:\n        /* \"lib/openzeppelin-contracts/contracts/security/Pausable.sol\":2491:2498  _paused */\n      0x02\n        /* \"lib/openzeppelin-contracts/contracts/security/Pausable.sol\":2491:2506  _paused = false */\n      dup1\n      sload\n      not(0xff)\n      and\n      swap1\n      sstore\n        /* \"lib/openzeppelin-contracts/contracts/security/Pausable.sol\":2521:2543  Unpaused(_msgSender()) */\n      0x5db9ee0a495bf2e6ff9c91a7834c1ba4fdd244a5e8aa4e537bd38aeae4b073aa\n        /* \"lib/openzeppelin-contracts/contracts/utils/Context.sol\":719:729  msg.sender */\n      caller\n        /* \"lib/openzeppelin-contracts/contracts/security/Pausable.sol\":2530:2542  _msgSender() */\n    tag_196:\n        /* \"lib/openzeppelin-contracts/contracts/security/Pausable.sol\":2521:2543  Unpaused(_msgSender()) */\n      mload(0x40)\n      sub(shl(0xa0, 0x01), 0x01)\n        /* \"#utility.yul\":1028:1060   */\n      swap1\n      swap2\n      and\n        /* \"#utility.yul\":1010:1061   */\n      dup2\n      mstore\n        /* \"#utility.yul\":998:1000   */\n      0x20\n        /* \"#utility.yul\":983:1001   */\n      add\n        /* \"lib/openzeppelin-contracts/contracts/security/Pausable.sol\":2521:2543  Unpaused(_msgSender()) */\n      mload(0x40)\n      dup1\n      swap2\n      sub\n      swap1\n      log1\n        /* \"lib/openzeppelin-contracts/contracts/security/Pausable.sol\":2433:2550  function _unpause() internal virtual whenPaused {... */\n      jump\t// out\n        /* \"lib/openzeppelin-contracts/contracts/access/Ownable.sol\":2426:2613  function _transferOwnership(address newOwner) internal virtual {... */\n    tag_128:\n        /* \"lib/openzeppelin-contracts/contracts/access/Ownable.sol\":2499:2515  address oldOwner */\n      0x00\n        /* \"lib/openzeppelin-contracts/contracts/access/Ownable.sol\":2518:2524  _owner */\n      dup1\n      sload\n      sub(shl(0xa0, 0x01), 0x01)\n        /* \"lib/openzeppelin-contracts/contracts/access/Ownable.sol\":2534:2551  _owner = newOwner */\n      dup4\n      dup2\n      and\n      not(sub(shl(0xa0, 0x01), 0x01))\n      dup4\n      and\n      dup2\n      or\n      dup5\n      sstore\n        /* \"lib/openzeppelin-contracts/contracts/access/Ownable.sol\":2566:2606  OwnershipTransferred(oldOwner, newOwner) */\n      mload(0x40)\n        /* \"lib/openzeppelin-contracts/contracts/access/Ownable.sol\":2518:2524  _owner */\n      swap2\n      swap1\n      swap3\n      and\n      swap3\n      dup4\n      swap2\n        /* \"lib/openzeppelin-contracts/contracts/access/Ownable.sol\":2566:2606  OwnershipTransferred(oldOwner, newOwner) */\n      0x8be0079c531659141344cd1fd0a4f28419497f9722a3daafe3b4186f6b6457e0\n      swap2\n        /* \"lib/openzeppelin-contracts/contracts/access/Ownable.sol\":2499:2515  address oldOwner */\n      swap1\n        /* \"lib/openzeppelin-contracts/contracts/access/Ownable.sol\":2566:2606  OwnershipTransferred(oldOwner, newOwner) */\n      log3\n        /* \"lib/openzeppelin-contracts/contracts/access/Ownable.sol\":2489:2613  {... */\n      pop\n        /* \"lib/openzeppelin-contracts/contracts/access/Ownable.sol\":2426:2613  function _transferOwnership(address newOwner) internal virtual {... */\n      pop\n      jump\t// out\n        /* \"lib/openzeppelin-contracts/contracts/security/Pausable.sol\":2186:2301  function _pause() internal virtual whenNotPaused {... */\n    tag_133:\n        /* \"lib/openzeppelin-contracts/contracts/security/Pausable.sol\":1239:1258  _requireNotPaused() */\n      tag_200\n        /* \"lib/openzeppelin-contracts/contracts/security/Pausable.sol\":1239:1256  _requireNotPaused */\n      tag_92\n        /* \"lib/openzeppelin-contracts/contracts/security/Pausable.sol\":1239:1258  _requireNotPaused() */\n      jump\t// in\n    tag_200:\n        /* \"lib/openzeppelin-contracts/contracts/security/Pausable.sol\":2245:2252  _paused */\n      0x02\n        /* \"lib/openzeppelin-contracts/contracts/security/Pausable.sol\":2245:2259  _paused = true */\n      dup1\n      sload\n      not(0xff)\n      and\n        /* \"lib/openzeppelin-contracts/contracts/security/Pausable.sol\":2255:2259  true */\n      0x01\n        /* \"lib/openzeppelin-contracts/contracts/security/Pausable.sol\":2245:2259  _paused = true */\n      or\n      swap1\n      sstore\n        /* \"lib/openzeppelin-contracts/contracts/security/Pausable.sol\":2274:2294  Paused(_msgSender()) */\n      0x62e78cea01bee320cd4e420270b5ea74000d11b0c9f74754ebdbfc544b05a258\n        /* \"lib/openzeppelin-contracts/contracts/security/Pausable.sol\":2281:2293  _msgSender() */\n      tag_196\n        /* \"lib/openzeppelin-contracts/contracts/utils/Context.sol\":719:729  msg.sender */\n      caller\n      swap1\n        /* \"lib/openzeppelin-contracts/contracts/utils/Context.sol\":640:736  function _msgSender() internal view virtual returns (address) {... */\n      jump\n        /* \"lib/openzeppelin-contracts/contracts/access/Ownable.sol\":2074:2272  function transferOwnership(address newOwner) public virtual onlyOwner {... */\n    tag_173:\n        /* \"lib/openzeppelin-contracts/contracts/access/Ownable.sol\":1094:1107  _checkOwner() */\n      tag_205\n        /* \"lib/openzeppelin-contracts/contracts/access/Ownable.sol\":1094:1105  _checkOwner */\n      tag_86\n        /* \"lib/openzeppelin-contracts/contracts/access/Ownable.sol\":1094:1107  _checkOwner() */\n      jump\t// in\n    tag_205:\n      sub(shl(0xa0, 0x01), 0x01)\n        /* \"lib/openzeppelin-contracts/contracts/access/Ownable.sol\":2162:2184  newOwner != address(0) */\n      dup2\n      and\n        /* \"lib/openzeppelin-contracts/contracts/access/Ownable.sol\":2154:2227  require(newOwner != address(0), \"Ownable: new owner is the zero address\") */\n      tag_207\n      jumpi\n      mload(0x40)\n      shl(0xe5, 0x461bcd)\n      dup2\n      mstore\n        /* \"#utility.yul\":5731:5733   */\n      0x20\n        /* \"lib/openzeppelin-contracts/contracts/access/Ownable.sol\":2154:2227  require(newOwner != address(0), \"Ownable: new owner is the zero address\") */\n      0x04\n      dup3\n      add\n        /* \"#utility.yul\":5713:5734   */\n      mstore\n        /* \"#utility.yul\":5770:5772   */\n      0x26\n        /* \"#utility.yul\":5750:5768   */\n      0x24\n      dup3\n      add\n        /* \"#utility.yul\":5743:5773   */\n      mstore\n        /* \"#utility.yul\":5809:5843   */\n      0x4f776e61626c653a206e6577206f776e657220697320746865207a65726f2061\n        /* \"#utility.yul\":5789:5807   */\n      0x44\n      dup3\n      add\n        /* \"#utility.yul\":5782:5844   */\n      mstore\n      shl(0xd0, 0x646472657373)\n        /* \"#utility.yul\":5860:5878   */\n      0x64\n      dup3\n      add\n        /* \"#utility.yul\":5853:5889   */\n      mstore\n        /* \"#utility.yul\":5906:5925   */\n      0x84\n      add\n        /* \"lib/openzeppelin-contracts/contracts/access/Ownable.sol\":2154:2227  require(newOwner != address(0), \"Ownable: new owner is the zero address\") */\n      tag_95\n        /* \"#utility.yul\":5529:5931   */\n      jump\n        /* \"lib/openzeppelin-contracts/contracts/access/Ownable.sol\":2154:2227  require(newOwner != address(0), \"Ownable: new owner is the zero address\") */\n    tag_207:\n        /* \"lib/openzeppelin-contracts/contracts/access/Ownable.sol\":2237:2265  _transferOwnership(newOwner) */\n      tag_115\n        /* \"lib/openzeppelin-contracts/contracts/access/Ownable.sol\":2256:2264  newOwner */\n      dup2\n        /* \"lib/openzeppelin-contracts/contracts/access/Ownable.sol\":2237:2255  _transferOwnership */\n      tag_128\n        /* \"lib/openzeppelin-contracts/contracts/access/Ownable.sol\":2237:2265  _transferOwnership(newOwner) */\n      jump\t// in\n        /* \"lib/openzeppelin-contracts/contracts/security/Pausable.sol\":1945:2051  function _requirePaused() internal view virtual {... */\n    tag_194:\n        /* \"lib/openzeppelin-contracts/contracts/security/Pausable.sol\":1685:1692  _paused */\n      and(0xff, sload(0x02))\n        /* \"lib/openzeppelin-contracts/contracts/security/Pausable.sol\":2003:2044  require(paused(), \"Pausable: not paused\") */\n      tag_120\n      jumpi\n      mload(0x40)\n      shl(0xe5, 0x461bcd)\n      dup2\n      mstore\n        /* \"#utility.yul\":6138:6140   */\n      0x20\n        /* \"lib/openzeppelin-contracts/contracts/security/Pausable.sol\":2003:2044  require(paused(), \"Pausable: not paused\") */\n      0x04\n      dup3\n      add\n        /* \"#utility.yul\":6120:6141   */\n      mstore\n        /* \"#utility.yul\":6177:6179   */\n      0x14\n        /* \"#utility.yul\":6157:6175   */\n      0x24\n      dup3\n      add\n        /* \"#utility.yul\":6150:6180   */\n      mstore\n      shl(0x62, 0x14185d5cd8589b194e881b9bdd081c185d5cd959)\n        /* \"#utility.yul\":6196:6214   */\n      0x44\n      dup3\n      add\n        /* \"#utility.yul\":6189:6239   */\n      mstore\n        /* \"#utility.yul\":6256:6274   */\n      0x64\n      add\n        /* \"lib/openzeppelin-contracts/contracts/security/Pausable.sol\":2003:2044  require(paused(), \"Pausable: not paused\") */\n      tag_95\n        /* \"#utility.yul\":5936:6280   */\n      jump\n        /* \"#utility.yul\":14:300   */\n    tag_26:\n        /* \"#utility.yul\":73:79   */\n      0x00\n        /* \"#utility.yul\":126:128   */\n      0x20\n        /* \"#utility.yul\":114:123   */\n      dup3\n        /* \"#utility.yul\":105:112   */\n      dup5\n        /* \"#utility.yul\":101:124   */\n      sub\n        /* \"#utility.yul\":97:129   */\n      slt\n        /* \"#utility.yul\":94:146   */\n      iszero\n      tag_220\n      jumpi\n        /* \"#utility.yul\":142:143   */\n      0x00\n        /* \"#utility.yul\":139:140   */\n      dup1\n        /* \"#utility.yul\":132:144   */\n      revert\n        /* \"#utility.yul\":94:146   */\n    tag_220:\n        /* \"#utility.yul\":168:191   */\n      dup2\n      calldataload\n      sub(shl(0xa0, 0x01), 0x01)\n        /* \"#utility.yul\":220:251   */\n      dup2\n      and\n        /* \"#utility.yul\":210:252   */\n      dup2\n      eq\n        /* \"#utility.yul\":200:270   */\n      tag_221\n      jumpi\n        /* \"#utility.yul\":266:267   */\n      0x00\n        /* \"#utility.yul\":263:264   */\n      dup1\n        /* \"#utility.yul\":256:268   */\n      revert\n        /* \"#utility.yul\":200:270   */\n    tag_221:\n        /* \"#utility.yul\":289:294   */\n      swap4\n        /* \"#utility.yul\":14:300   */\n      swap3\n      pop\n      pop\n      pop\n      jump\t// out\n        /* \"#utility.yul\":487:667   */\n    tag_33:\n        /* \"#utility.yul\":546:552   */\n      0x00\n        /* \"#utility.yul\":599:601   */\n      0x20\n        /* \"#utility.yul\":587:596   */\n      dup3\n        /* \"#utility.yul\":578:585   */\n      dup5\n        /* \"#utility.yul\":574:597   */\n      sub\n        /* \"#utility.yul\":570:602   */\n      slt\n        /* \"#utility.yul\":567:619   */\n      iszero\n      tag_224\n      jumpi\n        /* \"#utility.yul\":615:616   */\n      0x00\n        /* \"#utility.yul\":612:613   */\n      dup1\n        /* \"#utility.yul\":605:617   */\n      revert\n        /* \"#utility.yul\":567:619   */\n    tag_224:\n      pop\n        /* \"#utility.yul\":638:661   */\n      calldataload\n      swap2\n        /* \"#utility.yul\":487:667   */\n      swap1\n      pop\n      jump\t// out\n        /* \"#utility.yul\":2145:2272   */\n    tag_217:\n        /* \"#utility.yul\":2206:2216   */\n      0x4e487b71\n        /* \"#utility.yul\":2201:2204   */\n      0xe0\n        /* \"#utility.yul\":2197:2217   */\n      shl\n        /* \"#utility.yul\":2194:2195   */\n      0x00\n        /* \"#utility.yul\":2187:2218   */\n      mstore\n        /* \"#utility.yul\":2237:2241   */\n      0x11\n        /* \"#utility.yul\":2234:2235   */\n      0x04\n        /* \"#utility.yul\":2227:2242   */\n      mstore\n        /* \"#utility.yul\":2261:2265   */\n      0x24\n        /* \"#utility.yul\":2258:2259   */\n      0x00\n        /* \"#utility.yul\":2251:2266   */\n      revert\n        /* \"#utility.yul\":2277:2405   */\n    tag_104:\n        /* \"#utility.yul\":2344:2353   */\n      dup2\n      dup2\n      sub\n        /* \"#utility.yul\":2365:2376   */\n      dup2\n      dup2\n      gt\n        /* \"#utility.yul\":2362:2399   */\n      iszero\n      tag_233\n      jumpi\n        /* \"#utility.yul\":2379:2397   */\n      tag_233\n      tag_217\n      jump\t// in\n    tag_233:\n        /* \"#utility.yul\":2277:2405   */\n      swap3\n      swap2\n      pop\n      pop\n      jump\t// out\n        /* \"#utility.yul\":3623:3748   */\n    tag_149:\n        /* \"#utility.yul\":3688:3697   */\n      dup1\n      dup3\n      add\n        /* \"#utility.yul\":3709:3719   */\n      dup1\n      dup3\n      gt\n        /* \"#utility.yul\":3706:3742   */\n      iszero\n      tag_233\n      jumpi\n        /* \"#utility.yul\":3722:3740   */\n      tag_233\n      tag_217\n      jump\t// in\n\n    auxdata: 0xa2646970667358221220975b113233429aee409f443a12d040872a9265f3afa4a214c27b91bcf17d9a4d64736f6c63430008140033\n}\n","methodIdentifiers":{"balances(address)":"27e235e3","deposit()":"d0e30db0","emergencyWithdraw()":"db2e21bc","getBalance(address)":"f8b2cb4f","getContractBalance()":"6f9fb98a","maxWithdrawal()":"8c0ff5b7","owner()":"8da5cb5b","pause()":"8456cb59","paused()":"5c975abb","renounceOwnership()":"715018a6","totalFunds()":"968ed600","transferOwnership(address)":"f2fde38b","unpause()":"3f4ba83a","updateMaxWithdrawal(uint256)":"8a959ba7","withdraw(uint256)":"2e1a7d4d"},"storageLayout":{"storage":[{"astId":40095,"contract":"projects/02-access-control/contracts/02-ownable/SecureVaultOwnable.sol:SecureVaultOwnable","label":"_owner","offset":0,"slot":"0","type":"t_address"},{"astId":40319,"contract":"projects/02-access-control/contracts/02-ownable/SecureVaultOwnable.sol:SecureVaultOwnable","label":"_status","offset":0,"slot":"1","type":"t_uint256"},{"astId":40218,"contract":"projects/02-access-control/contracts/02-ownable/SecureVaultOwnable.sol:SecureVaultOwnable","label":"_paused","offset":0,"slot":"2","type":"t_bool"},{"astId":45198,"contract":"projects/02-access-control/contracts/02-ownable/SecureVaultOwnable.sol:SecureVaultOwnable","label":"balances","offset":0,"slot":"3","type":"t_mapping(t_address,t_uint256)"},{"astId":45200,"contract":"projects/02-access-control/contracts/02-ownable/SecureVaultOwnable.sol:SecureVaultOwnable","label":"totalFunds","offset":0,"slot":"4","type":"t_uint256"},{"astId":45202,"contract":"projects/02-access-control/contracts/02-ownable/SecureVaultOwnable.sol:SecureVaultOwnable","label":"maxWithdrawal","offset":0,"slot":"5","type":"t_uint256"}],"types":{"t_address":{"encoding":"inplace","label":"address","numberOfBytes":"20"},"t_bool":{"encoding":"inplace","label":"bool","numberOfBytes":"1"},"t_mapping(t_address,t_uint256)":{"encoding":"mapping","key":"t_address","label":"mapping(address => uint256)","numberOfBytes":"32","value":"t_uint256"},"t_uint256":{"encoding":"inplace","label":"uint256","numberOfBytes":"32"}}},"id":41}